:100000000C9462000C948A000C948A000C948A0070
:100010000C948A000C948A000C948A000C948A0038
:100020000C948A000C948A000C948A000C948A0028
:100030000C948A000C948A000C948A000C948A0018
:100040000C94D9020C948A000C945F030C94230343
:100050000C948A000C948A000C948A000C948A00F8
:100060000C948A000C948A000000000023002600F3
:10007000290000000000240027002A0000000000E2
:10008000250028002B0004040404040404040202D4
:100090000202020203030303030301020408102007
:1000A0004080010204081020010204081020000012
:1000B0000008000201000003040700000000000027
:1000C0000000B30711241FBECFEFD8E0DEBFCDBFC5
:1000D00011E0A0E0B1E0EEE1F0E102C005900D9288
:1000E000A831B107D9F721E0A8E1B1E001C01D9224
:1000F000A73CB207E1F710E0C2E6D0E004C02197C8
:10010000FE010E940208C136D107C9F70E9491037F
:100110000C940D080C94000090E0FC01E255FF4F98
:100120002491FC01E656FF4F3491FC01EA57FF4F42
:1001300084918823A1F0211118C0E82FF0E0EE0F80
:10014000FF1FE458FF4FA591B4918FB7F894611148
:1001500007C09C91E32FE095E923EC938FBF0895AE
:10016000EC91E32BEC938FBFFACF233029F160F0B1
:100170002730E1F02830A1F02430F9F6909180008A
:100180009F7D90938000D9CF213031F02230A9F6A5
:1001900094B59F7D94BDD1CF94B59F7794BDCDCFBD
:1001A0009091B0009F7D9093B000C7CF9091B00028
:1001B0009F779093B000C1CF909180009F779093EC
:1001C0008000BBCFCF93DF9390E0FC01E656FF4F5A
:1001D0002491FC01EA57FF4F84918823B9F090E005
:1001E000880F991FFC01EE58FF4FA591B491FC01B7
:1001F000E458FF4FC591D491662359F06230A9F0BD
:100200008FB7F894EC91E22BEC938FBFDF91CF91F5
:1002100008959FB7F8948C91E22FE0958E238C93EC
:100220002881E223E8839FBFF1CF9FB7F8948C9198
:10023000322F309583238C93E881E22BE8839FBF94
:10024000E5CFFC01918D228D892F90E0805C9F4F3E
:10025000821B91098F739927089520913A0180910B
:100260003B0130E0205C3F4F281B31092F733327BF
:1002700081E0232B09F480E00895FC0181E0808F68
:10028000938D848D981709F448C0238D30E02F5F3B
:100290003F4F2F733327922F03C00FB607FE17C0AF
:1002A000848D9817D1F3838DDF01A80FB11DA35A58
:1002B000BF4F6C939FB7F894238F0288F389E02D8A
:1002C0008081806280839FBF81E090E00895A08953
:1002D000B1898C9185FFE4CF848DDF01A80FB11D1A
:1002E000A35ABF4F8C91448D50E04F5F5F4F4F73C7
:1002F0005527448FA689B7898C93A089B1898C91A1
:10030000837080648C93438D848D4813C9CFA289F8
:10031000B3898C918F7D8C93C3CFA089B1898C9147
:1003200085FFB3CF9FB7F894A689B7896C930088EF
:10033000F189E02D80818370806480839FBF81E09C
:1003400090E00895BF92CF92DF92EF92FF920F93C9
:100350001F93CF93DF934115510509F486C06A01BD
:10036000EC017B0100E010E0BB24B394E881F9814B
:100370000190F081E02DD7016D917D01B1E0ED3369
:10038000FB0709F06CC0B88E9B8D8C8D981709F413
:1003900054C02B8D30E02F5F3F4F2F733327922FA8
:1003A00003C00FB607FE23C08C8D9817D1F38B8D39
:1003B000FE01E80FF11DE35AFF4F60839FB7F894E9
:1003C0002B8FEA89FB898081806280839FBF0F5FCA
:1003D0001F4FC016D10651F6C801DF91CF911F9172
:1003E0000F91FF90EF90DF90CF90BF900895E88934
:1003F000F989808185FFD8CF8C8DFE01E80FF11D32
:10040000E35AFF4F80814C8D50E04F5F5F4F4F7339
:1004100055274C8FEE89FF898083E889F98980818F
:100420008370806480834B8D8C8D4813BDCFEA89A7
:10043000FB8980818F7D8083B7CFE889F9898081AE
:1004400085FFA7CF9FB7F894EE89FF896083E8897D
:10045000F98980818370806480839FBFB8CFCE018B
:100460000995892B09F0B3CFB7CF00E010E0B4CFE6
:10047000089580E090E00895CF93DF93DC015896D3
:100480008C915897882309F447C05296ED91FC91BE
:1004900053975096CD91DC915197908195FF39C03B
:1004A0000FB607FCFACF908195FFF7CF888185FFC3
:1004B000F4CF5C968C915C97FD01E80FF11DE35A37
:1004C000FF4F20815C968C915C9790E001968F7332
:1004D00099275C968C935C975696ED91FC91579773
:1004E00020835096ED91FC915197808183708064B8
:1004F00080835B969C915B975C968C915C9798133C
:10050000C4CF5296ED91FC91539780818F7D80836B
:10051000BCCF888186FFC4CFDF91CF910895FC01C5
:10052000238D348D231730F4832F90E0821B9109A3
:10053000019708958FE390E0821B9109830F911D2D
:100540000895FC01918D828D981761F0828DDF01F5
:10055000A80FB11D5D968C91928D9F5F9F73928FB6
:1005600090E008958FEF9FEF0895FC01918D828DAB
:10057000981731F0828DE80FF11D858D90E0089578
:100580008FEF9FEF089580E090E0892B79F08091C4
:100590003A0120913B0190E0805C9F4F821B9109C2
:1005A0008F739927892B11F00C94000008950E94F5
:1005B00008081F920F920FB60F9211242F933F93AA
:1005C0008F939F93AF93BF938091C3019091C40188
:1005D000A091C501B091C6013091C20123E0230F63
:1005E0002D3768F126E8230F0296A11DB11D209337
:1005F000C2018093C3019093C401A093C501B0933D
:10060000C6018091BE019091BF01A091C001B0913F
:10061000C1010196A11DB11D8093BE019093BF0140
:10062000A093C001B093C101BF91AF919F918F91F1
:100630003F912F910F900FBE0F901F90189501962C
:10064000A11DB11DD4CF1F920F920FB60F9211248E
:100650002F938F939F93EF93FF93E0913D01F0E0F1
:10066000E258FE4F208180913D0190E001968F730A
:10067000992780933D01E0913701F0913801208363
:10068000E0913101F0913201808183708064808338
:1006900090913C0180913D01981307C0E091330196
:1006A000F091340180818F7D8083FF91EF919F9144
:1006B0008F912F910F900FBE0F901F9018951F9242
:1006C0000F920FB60F9211242F938F939F93EF9356
:1006D000FF93E0913101F09132018081E091370187
:1006E000F091380182FF0BC08081FF91EF919F91C3
:1006F0008F912F910F900FBE0F901F901895208112
:1007000080913A018F5F8F7390913B01891769F354
:10071000E0913A01F0E0EF5DFE4F258F80933A01C2
:10072000E4CFCF93DF93CDB7DEB7A1970FB6F894A0
:10073000DEBF0FBECDBF789484B5826084BD84B522
:10074000816084BD85B5826085BD85B5816085BDCC
:1007500080916E00816080936E0010928100809184
:10076000810082608093810080918100816080930C
:100770008100809180008160809380008091B10031
:1007800084608093B1008091B00081608093B0005C
:1007900080917A00846080937A0080917A008260F0
:1007A00080937A0080917A00816080937A008091B2
:1007B0007A00806880937A001092C100E091310144
:1007C000F091320182E08083E0912D01F0912E01C1
:1007D0001082E0912F01F09130018FEC8083109214
:1007E0003901E0913501F091360186E08083E09196
:1007F0003301F0913401808180618083E091330185
:10080000F0913401808188608083E0913301F09120
:100810003401808180688083E0913301F09134015C
:1008200080818F7D808361E083E00E94E20061E04F
:100830008BE00E94E20061E08CE00E94E20061E057
:100840008DE00E94E20062E080E00E94E20060E051
:100850008EE00E94E20060E08FE00E94E20060E033
:1008600081E10E94E20060E083E00E948C0060E091
:100870008BE00E948C0061E08CE00E948C0060E0C4
:100880008DE00E948C0090E0492E90E0592E26E1E8
:10089000622E21E0722E3AE0832E912CA12CB12CF5
:1008A0004CE3242E312C11E00DE280911F01909138
:1008B000200197FDFEC1853691050CF4D6C144E6B2
:1008C00050E05093200140931F0120911D01309171
:1008D0001E0184E690E03092010120920001A901FE
:1008E0004E5F5F4F481759070CF475C1A90142507C
:1008F0005109841795070CF46EC128173907D9F0F0
:10090000009709F402C3232B59F443EA4093B00043
:100910005AE05093B10083E68093B30080911F01A9
:1009200081508093B40080911F0190912001909399
:100930001E0180931D01EEEAF0E09491EAE9F0E0F7
:100940002491E6E8F0E03491332371F09111BFC1B6
:10095000E32FF0E0EE0FFF1FE859FF4FA591B49190
:100960008C91822309F0A2C110931C018FB7F894D7
:100970004091C3015091C4016091C5017091C601BD
:100980008FBF8091180190911901A0911A01B09127
:100990001B016A017B01C81AD90AEA0AFB0A809185
:1009A000000190910101A0E0B0E0C816D906EA0666
:1009B000FB0608F4B7C040931801509319016093E7
:1009C0001A0170931B0180911C01811161C18091FA
:1009D0001F0190912001181619062CF4019790938D
:1009E000200180931F01F0E4F0937C0080917A0055
:1009F000806480937A0080917A0086FDFCCF2091FC
:100A000078008091790030E0382B37FD74C1032ED7
:100A1000000C440B550B19A2CE0181966C01CA0142
:100A2000B901A50194010E94E007605DF60162939F
:100A30006F01211531054105510589F73097E9F11D
:100A400001900020E9F7D6019F0121503109A2173A
:100A5000B30799F16D911093390190913C01809108
:100A60003D01E0913101F0913201981709F49FC0E6
:100A700040913C0150E04F5F5F4F4F735527942FDB
:100A800003C00FB607FE63C080913D019817C9F3FC
:100A9000E0913C01F0E0E258FE4F60839FB7F8948C
:100AA00040933C01E0913301F091340180818062F8
:100AB00080839FBFA217B30769F6A4E1B1E04D910F
:100AC0001093390190913C0180913D01E0913101F9
:100AD000F0913201981709F4B4C020913C0130E044
:100AE0002F5F3F4F2F733327922F03C00FB607FEA0
:100AF00077C080913D019817C9F3E0913C01F0E087
:100B0000E258FE4F40839FB7F89420933C01E09158
:100B10003301F09134018081806280839FBF6A1627
:100B20007B0669F64114510409F4BFCE80913A0165
:100B300020913B0190E0805C9F4F821B91098F7355
:100B40009927892B09F4B1CE0E940000ACCE808198
:100B500085FF9ACFE0913D01F0E0E258FE4F8081A1
:100B6000E0913D01F0E03196EF73FF27E0933D0106
:100B7000E0913701F09138018083E0913101F091EB
:100B80003201808183708064808370913C01809108
:100B90003D01781307C0E0913301F0913401808169
:100BA0008F7D8083E0913101F09132016DCF8081A2
:100BB00085FF5ECF9FB7F894E0913701F09138013F
:100BC0006083E0913101F091320180818370806413
:100BD00080839FBF3CCF5093200140931F01ABCE39
:100BE000808185FF86CFE0913D01F0E0E258FE4F25
:100BF000808160913D0170E06F5F7F4F6F73772759
:100C000060933D01E0913701F09138018083E091DC
:100C10003101F09132018081837080648083509132
:100C20003C0180913D01581307C0E0913301F091E0
:100C3000340180818F7D8083E0913101F091320118
:100C400058CF808185FF49CF9FB7F894E091370155
:100C5000F09138014083E0913101F09132018081BF
:100C60008370806480839FBF5ACF20911D01309193
:100C70001E01821793070CF02ECE893191050CF0DE
:100C80002ACEE4E6F0E0F0930101E093000127CEE4
:100C900080911F0190912001843691050CF0A3CE24
:100CA00001969093200180931F019DCE10921C010C
:100CB0005DCE1092200110921F0120911D013091F4
:100CC0001E0180E090E012161306DCF204CE933091
:100CD00009F443C108F410C1973009F438C19830C1
:100CE00009F42FC1943009F033CE809180008F7DBC
:100CF000809380002DCE1093390190913C0180911A
:100D00003D01E0913101F0913201981709F401C1E0
:100D100040913C0150E04F5F5F4F4F735527942F38
:100D200003C00FB607FEB7C080913D019817C9F305
:100D3000E0913C01F0E0E258FE4F00839FB7F89449
:100D400040933C01E0913301F09134018081806255
:100D500080839FBFC901330FAA0BBB0B2227332708
:100D6000A901281B390B4A0B5B0B19A2CE018196F6
:100D70006C01CA01B901A50194010E94E007605D00
:100D8000F60162936F01211531054105510589F77F
:100D9000309709F492CE01900020E9F7D6019F0127
:100DA000215031092A173B0709F487CE6D91109322
:100DB000390190913C0180913D01E0913101F09128
:100DC0003201981709F453C040913C0150E04F5F45
:100DD0005F4F4F735527942F03C00FB607FE17C000
:100DE00080913D019817C9F3E0913C01F0E0E25891
:100DF000FE4F60839FB7F89440933C01E09133012C
:100E0000F09134018081806280839FBFCBCF80814D
:100E100085FFE6CFE0913D01F0E0E258FE4F808192
:100E2000E0913D01F0E03196EF73FF27E0933D0143
:100E3000E0913701F09138018083E0913101F09128
:100E40003201808183708064808370913C01809145
:100E50003D01781307C0E0913301F09134018081A6
:100E60008F7D8083E0913101F0913201B9CF808193
:100E700085FFAACF9FB7F894E0913701F091380130
:100E80006083E0913101F091320180818370806450
:100E900080839FBF87CF808185FF46CFE0913D0152
:100EA000F0E0E258FE4F808160913D0170E06F5F9D
:100EB0007F4F6F73772760933D01E0913701F09189
:100EC00038018083E0913101F0913201808183709B
:100ED0008064808360913C0180913D01681307C06C
:100EE000E0913301F091340180818F7D8083E09126
:100EF0003101F091320118CF9130F9F0923009F0C0
:100F000027CD84B58F7D84BD23CDF8E0F093B1006B
:100F10000ACD808185FFFCCE9FB7F894E091370120
:100F2000F09138010083E0913101F091320180812C
:100F30008370806480839FBF0DCF84B58F7784BD1D
:100F400007CD8091B0008F7D8093B00001CD80915E
:100F5000B0008F778093B000FBCC809180008F77BA
:100F600080938000F5CCE1E2F1E01382128288EEFA
:100F700093E0A0E0B0E084839583A683B78386E006
:100F800091E09183808385EC90E09587848784EC61
:100F900090E09787868780EC90E0918B808B81EC46
:100FA00090E0938B828B82EC90E0958B848B86EC27
:100FB00090E0978B868B118E128E138E148E08956F
:100FC000A1E21A2EAA1BBB1BFD010DC0AA1FBB1F4D
:100FD000EE1FFF1FA217B307E407F50720F0A21BBF
:100FE000B30BE40BF50B661F771F881F991F1A942C
:100FF00069F760957095809590959B01AC01BD0156
:10100000CF010895EE0FFF1F0590F491E02D099494
:0E10100081E090E0F8940C940D08F894FFCF66
:10101E003C00000000003D01A2018F023C022101B4
:08102E00A102B5020D0A000049
:00000001FF
