:100000000C94B2000C94C6020C949F020C94DA007B
:100010000C94DA000C94DA000C94DA000C94DA00F8
:100020000C94DA000C94DA000C94DA000C94DA00E8
:100030000C94DA000C94DA000C94DA000C94DA00D8
:100040000C9484110C94DA000C9429030C94ED02A6
:100050000C94DA000C94DA000C94DA000C94DA00B8
:100060000C94DA000C94DA001C051C0533053305EA
:100070001E069D04D3059D046C069D0433069D0455
:100080009D049D049D049D049D049D049D049D0468
:100090009D049D049D049D049D049D049D049D0458
:1000A0009D049D04C0069D049D049D049D049D0423
:1000B0009D049D049D049D049D049D049D049D0438
:1000C0009D049D049D049D049D049D049D049D0428
:1000D0009D049D049D049D049D049D049D049D0418
:1000E0009D049D04C90400000000240027002A008C
:1000F00000000000250028002B000000000800027E
:100100000100000304070000000000000000005E82
:10011000BCE2613FDD83C29C7E20A3FD1F41009DA8
:1001200023BE46DB65F88C11AF32CA57E974000074
:10013000000023002600290004040404040404042D
:100140000202020202020303030303030102040882
:100150001020408001020408102001020408102031
:10016000C628BD2811241FBECFEFD8E0DEBFCDBF0B
:1001700012E0A0E0B1E0EEEAFCE502C005900D92CD
:10018000A431B107D9F724E0A4E1B2E001C01D9287
:10019000AE30B207E1F710E0C1EBD0E004C0219728
:1001A000FE010E948B2AC03BD107C9F70E94C013F1
:1001B0000C944A2E0C9400000895FC0181E0808F7D
:1001C000938D848D981709F448C0238D30E02F5FFC
:1001D0003F4F2F733327922F03C00FB607FE17C070
:1001E000848D9817D1F3838DDF01A80FB11DA35A19
:1001F000BF4F6C939FB7F894238F0288F389E02D4B
:100200008081806280839FBF81E090E00895A08913
:10021000B1898C9185FFE4CF848DDF01A80FB11DDA
:10022000A35ABF4F8C91448D50E04F5F5F4F4F7387
:100230005527448FA689B7898C93A089B1898C9161
:10024000837080648C93438D848D4813C9CFA289B9
:10025000B3898C918F7D8C93C3CFA089B1898C9108
:1002600085FFB3CF9FB7F894A689B7896C930088B0
:10027000F189E02D80818370806480839FBF81E05D
:1002800090E00895BF92CF92DF92EF92FF920F938A
:100290001F93CF93DF934115510509F486C06A017E
:1002A000EC017B0100E010E0BB24B394E881F9810C
:1002B0000190F081E02DD7016D917D01B0E0ED3D21
:1002C000FB0709F06CC0B88E9B8D8C8D981709F4D4
:1002D00054C02B8D30E02F5F3F4F2F733327922F69
:1002E00003C00FB607FE23C08C8D9817D1F38B8DFA
:1002F000FE01E80FF11DE35AFF4F60839FB7F894AA
:100300002B8FEA89FB898081806280839FBF0F5F8A
:100310001F4FC016D10651F6C801DF91CF911F9132
:100320000F91FF90EF90DF90CF90BF900895E889F4
:10033000F989808185FFD8CF8C8DFE01E80FF11DF2
:10034000E35AFF4F80814C8D50E04F5F5F4F4F73FA
:1003500055274C8FEE89FF898083E889F989808150
:100360008370806480834B8D8C8D4813BDCFEA8968
:10037000FB8980818F7D8083B7CFE889F98980816F
:1003800085FFA7CF9FB7F894EE89FF896083E8893E
:10039000F98980818370806480839FBFB8CFCE014C
:1003A0000995892B09F0B3CFB7CF00E010E0B4CFA7
:1003B000FC01918D228D892F90E0805C9F4F821BE4
:1003C00091098F7399270895209184028091850265
:1003D00030E0205C3F4F281B31092F73332781E029
:1003E000232B09F480E00895089580E090E00895BB
:1003F000CF93DF93DC0158968C915897882309F4AA
:1004000047C05296ED91FC9153975096CD91DC9157
:100410005197908195FF39C00FB607FCFACF9081B4
:1004200095FFF7CF888185FFF4CF5C968C915C9720
:10043000FD01E80FF11DE35AFF4F20815C968C917E
:100440005C9790E001968F7399275C968C935C97EC
:100450005696ED91FC91579720835096ED91FC9123
:10046000519780818370806480835B969C915B97B9
:100470005C968C915C979813C4CF5296ED91FC9149
:10048000539780818F7D8083BCCF888186FFC4CFC6
:10049000DF91CF910895FC01238D348D231730F423
:1004A000832F90E0821B9109019708958FE390E0DC
:1004B000821B9109830F911D0895FC01918D828DFE
:1004C000981761F0828DDF01A80FB11D5D968C91A8
:1004D000928D9F5F9F73928F90E008958FEF9FEFB3
:1004E0000895FC01918D828D981731F0828DE80F6F
:1004F000F11D858D90E008958FEF9FEF089580E0C6
:1005000090E0892B79F0809184022091850290E01F
:10051000805C9F4F821B91098F739927892B11F063
:100520000C94000008958091140290911502019698
:10053000909315028093140208950E943C2E1F92FE
:100540000F920FB60F9211242F933F934F935F9307
:100550006F937F938F939F93AF93BF93EF93FF938B
:10056000E0910C01F0910D010995FF91EF91BF9180
:10057000AF919F918F917F916F915F914F913F913B
:100580002F910F900FBE0F901F9018951F920F92F2
:100590000FB60F9211242F933F934F935F936F9356
:1005A0007F938F939F93AF93BF93EF93FF93E091CC
:1005B0000A01F0910B010995FF91EF91BF91AF9165
:1005C0009F918F917F916F915F914F913F912F916B
:1005D0000F900FBE0F901F9018951F920F920FB69D
:1005E0000F9211242F938F939F93EF93FF93E0919A
:1005F0008702F0E0E853FD4F20818091870290E070
:1006000001968F73992780938702E0918102F09180
:1006100082022083E0917B02F0917C0280818370D2
:10062000806480839091860280918702981307C02E
:10063000E0917D02F0917E0280818F7D8083FF9129
:10064000EF919F918F912F910F900FBE0F901F9060
:1006500018951F920F920FB60F9211242F938F931C
:100660009F93EF93FF93E0917B02F0917C02808156
:10067000E0918102F091820282FF0BC08081FF91A4
:10068000EF919F918F912F910F900FBE0F901F9020
:1006900018952081809184028F5F8F7390918502DD
:1006A000891769F3E0918402F0E0E559FD4F258F49
:1006B00080938402E4CF9F92AF92BF92CF92DF9259
:1006C000EF92FF920F931F93CF93DF93EC018B0177
:1006D00065E50E94CB127801680188E0C80ED11C44
:1006E0004FEF50E02FE030E003E210E067ED70E004
:1006F000F70191907F0188E090E0AA24A39419C0AB
:10070000B880E981FA81F894A281BB2DB095AB2322
:10071000A283A181AB29A183D8011197F1F7A2810E
:10072000BA2AB2827894FB013197F1F7AA0C0197AB
:10073000E1F0E92DEA2121F7B880E981FA81F89406
:10074000A281BB2DB095AB23A283A181AB29A1834C
:10075000DA011197F1F7A281BA2AB2827894F901ED
:100760003197F1F7AA0C019721F7F894E981FA8102
:1007700091818881809589238183E981FA819281A1
:1007800088818095892382837894CE14DF0409F0D0
:10079000AFCFDF91CF911F910F91FF90EF90DF903E
:1007A000CF90BF90AF909F900895FC019081018001
:1007B000F281E02D60FD16C0F8948281292F2095EA
:1007C000822382838181892B8183AFEFB0E01197EF
:1007D000F1F78281982B928378948FE090E00197D3
:1007E000F1F70895F8948281292F2095822382833E
:1007F0008181892B8183A3E2B0E01197F1F7828197
:10080000982B9283789487ED90E00197F1F7089503
:10081000FC0190810180F281E02DF8948181892B87
:1008200081832281892F809528232283A7E0B0E04D
:100830001197F1F7218182238183A3E2B0E0119720
:10084000F1F780817894EFECF0E03197F1F798239D
:1008500081E009F480E00895FC012081A181B2814A
:10086000F89411968C911197322F3095832311961D
:100870008C93119778948CE743E050E002C081504C
:1008800079F1FA013197F1F79C919223C1F3F89431
:1008900012968C911297832312968C93129711962D
:1008A0008C911197822B11968C93119778948BE7EA
:1008B00097E00197F1F7F89411968C9111973823EE
:1008C00011963C93119783E191E00197F1F78C9198
:1008D000282381E031F47894E3E6F6E03197F1F7EC
:1008E000089580E07894E3E6F6E03197F1F7F8CFE9
:1008F0005F926F927F928F929F92AF92BF92CF92B0
:10090000DF92EF92FF920F931F93CF93DF93CDB7B8
:10091000DEB76E970FB6F894DEBF0FBECDBF8C0169
:100920005B01DC0114968C91E82FEF778E2F90E01D
:10093000FC013297EF33F10540F1D5018D919C9187
:10094000DC01ED91FC910190F081E02D60EC0995C6
:10095000F50122813381820F931F938382836E96E8
:100960000FB6F894DEBF0FBECDBFDF91CF911F91C0
:100970000F91FF90EF90DF90CF90BF90AF909F903E
:100980008F907F906F905F900895EC5CFF4F0C9478
:100990008B2AF801A081B181109709F472C5FD017D
:1009A000E12CF12C2FEFE21AF20A8581811159C353
:1009B000E0E1EE16F10408F061C360E070E06F5F03
:1009C0007F4F15968C911597882339F0F8E08F02A8
:1009D000A00DB11D1124109791F76057D5018D918D
:1009E0009C91DC01ED91FC910190F081E02D099545
:1009F000F50122813381820F931F93838283D80173
:100A00000D911C910115110509F4A9CFB501C8017B
:100A10000E947804F8018581882341F0B8E08B02B8
:100A2000000D111D11240115110581F7D501129634
:100A30008D919C91139793CFDB018D919C91F8013F
:100A40004281538160817181DC01ED91FC910280D2
:100A5000F381E02D0995F50122813381820F931FE7
:100A6000938382837CCFD8018D909C90F401019078
:100A70000020E9F731976F01C818D908B0E2CB160A
:100A8000D10408F464C4DB018D919C91DC01FFEF7B
:100A9000CF16D10409F008F4ECC3ED91FC9101905C
:100AA000F081E02D6AED0995F50122813381820FF5
:100AB000931F93838283DA8AC98A8A89898BCA8A37
:100AC00080819181DC01ED91FC910280F381E02D28
:100AD000B1E0E234FB0709F0D6C4BE016F5E7F4F80
:100AE0000E94D10EF50122813381280F391F3383F3
:100AF0002283D5010D911C91F801A081B18112963C
:100B0000ED91FC91139781E0E234F80709F015C4E8
:100B1000C114D10409F4F8C4E12CF12C77247394A6
:100B2000ED91FC91D4016D914D01B0E0ED3DFB07DD
:100B300009F05EC3F801708E938D848D981709F4C7
:100B40003FC3F801238D30E02F5F3F4F2F733327D2
:100B5000922F03C00FB607FEC2C2D8015C968C91DB
:100B60005C979817B9F3F801838DE80FF11DE35AEC
:100B7000FF4F60839FB7F894D8015B962C935B97E7
:100B80005296ED91FC9153978081806280839FBF44
:100B9000FFEFEF1AFF0ACE14DF0409F45CC3F8017B
:100BA000A081B181BDCFD801CD90DD90ED90FC90BA
:100BB000B0E8CB16D104E104F10408F4DCC3DB0196
:100BC0008D919C91DC01FFEFCF16D104E104F1047B
:100BD00009F008F4E5C3C114D104F1E0EF06F10413
:100BE00008F47EC3ED91FC910190F081E02D6EEC54
:100BF0000995F50122813381820F931F93838283AC
:100C0000C982DA82EB82FC828C818983CC828A81E0
:100C10009B819A838B8380819181DC01ED91FC9192
:100C20000280F381E02DB1E0E234FB0709F01AC342
:100C3000BE016F5F7F4F0E945B0F8ACEF8018081FB
:100C40009181A281B381892B8A2B8B2B09F001C35F
:100C500062ECD5018D919C91DC01ED91FC910190AC
:100C6000F081E02D74CEF801F080D180E280138114
:100C7000DB018D919C91DC01ED91FC910190F08163
:100C8000E02D6AEC0995F50122813381820F931FD3
:100C9000938382838F2D9D2DAE2DB12F89879A87C7
:100CA000AB87BC878C858987FC868A859B859A87DC
:100CB0008B8780819181DC01ED91FC910280F38131
:100CC000E02DB1E0E234FB0709F030C3BE01675FFD
:100CD0007F4F0E945B0F3CCEF80180819181A28101
:100CE000B381CC24DD247601C81AD90AEA0AFB0AAA
:100CF00081329105A105B10508F4DDC28138910565
:100D0000A105B10508F498C38130F0E89F07A1055B
:100D1000B10508F467C30197A105B04808F086CE75
:100D2000FB0180819181DC01ED91FC910190F081CA
:100D3000E02D62ED0995F50122813381820F931F29
:100D400093838283CD82DE82EF82F88688858D83CD
:100D5000C8868E819F819E838F8380819181DC01F3
:100D6000ED91FC910280F381E02DB1E0E234FB07CC
:100D700009F0BCC3BE016B5F7F4F0E945B0FE8CDE3
:100D8000D801ED91FC91309709F48BC3E12CF12C43
:100D9000BFEFEB1AFB0A8581811150C180E1E81693
:100DA000F10408F442C2D5018D919C91DC01ED91D2
:100DB000FC910190F081E02D6EED0995F501228105
:100DC0003381820F931F93838283FE8AED8A8E89FB
:100DD0008D8BEE8A80819181DC01ED91FC91028006
:100DE000F381E02DB1E0E234FB0709F053C3BE010B
:100DF0006B5E7F4F0E94D10EF50122813381820FFD
:100E0000931F93838283D8016D907C906114710449
:100E100009F4A5CD55245394F301C680D780F6017B
:100E200001900020E9F731974F018C189D08D501FA
:100E30008D919C91DC01F0E28F16910408F4A5C11C
:100E4000FFEF8F16910409F008F47DC1ED91FC913C
:100E50000190F081E02D6AED0995F5012281338141
:100E6000820F931F938382839C8A8B8A8C898B8BBE
:100E70008C8A80819181DC01ED91FC910280F3816B
:100E8000E02DB1E0E234FB0709F0C1C1BE016D5EA7
:100E90007F4F0E94D10EF50122813381820F931F73
:100EA00093838283D5010D911C91F801A081B181BA
:100EB0001296ED91FC91139721E0E234F20709F0CC
:100EC00074C1E12CF12C8114910409F4A5C0ED91B9
:100ED000FC91D6016D916D01B0E0ED3DFB0709F08D
:100EE00093C0F801508E938D848D981709F467C0D4
:100EF000D8015B962C9130E02F5F3F4F2F73332743
:100F0000922F03C00FB607FE26C0D8015C968C91C5
:100F10005C979817B9F3F801838DE80FF11DE35A38
:100F2000FF4F60839FB7F894D8015B962C935B9733
:100F30005296ED91FC9153978081806280839FBF90
:100F4000BFEFEB1AFB0A8E149F0409F456C0F80198
:100F5000A081B181BCCF5096ED91FC9151978081D9
:100F600085FFD3CF5C968C915C97F801E80FF11D5B
:100F7000E35AFF4F8081F801448D50E04F5F5F4F8F
:100F80004F735527448F0688F789E02D808350964C
:100F9000ED91FC91519780818370806480835B9692
:100FA0004C915B975C968C915C974813AECF5296B0
:100FB000ED91FC91539780818F7D8083A6CF00882F
:100FC000F189E02D808185FF93CF9FB7F894D801F8
:100FD0005696ED91FC91579760835096ED91FC9158
:100FE000519780818370806480839FBFBFEFEB1A2D
:100FF000FB0A8E149F0409F0AACFD50112968D9199
:101000009C911397740108C0C8010995892B09F0B8
:1010100097CFF50182819381E80EF91EF501F382E5
:10102000E282B501C3010E947804D30115968C9128
:1010300081110DC0F5018281938191CC28E082025B
:10104000E00DF11D1124309709F0A2CEA7CEF8E0F3
:101050008F02600C711C11246114710409F0DCCE44
:10106000E9CF98E08902E00DF11D1124309709F0D5
:1010700099CC20E1E216F10408F49FCCD5018D91C2
:101080009C91DC01ED91FC910190F081E02D6CEDE3
:101090000995F50122813381820F931F9383828307
:1010A000F88EEF8A888D8F8BE88E80819181DC01AC
:1010B000ED91FC910280F381E02DB1E0E234FB0779
:1010C00009F01BC2BE01695E7F4F0E94D10EF5017F
:1010D00022813381820F931F9383828390CC509619
:1010E000ED91FC915197808185FF37CD5C968C9175
:1010F0005C97F801E80FF11DE35AFF4F8081F8017A
:10110000448D50E04F5F5F4F4F735527448F0688E3
:10111000F789E02D80835096ED91FC915197808165
:101120008370806480835B964C915B975C968C9116
:101130005C97481312CD5296ED91FC9153978081A4
:101140008F7D80830ACDED91FC910190F081E02D9F
:1011500069ED0995F50122813381820F931F9383F5
:1011600082838E8E80819181DC01ED91FC910280E1
:10117000F381E02DB1E0E234FB0709F04FC0BE017E
:10118000625E7F4F0E94E50F86CEED91FC9101904B
:10119000F081E02D60EA680D0995F501E280F380A9
:1011A0008E0D9F1D938382837DCEA401B601C8015D
:1011B00009957C01D50112968D919C9113972CCFA6
:1011C0000088F189E02D808185FFBBCC9FB7F89422
:1011D000D8015696ED91FC91579760835096ED910A
:1011E000FC91519780818370806480839FBFD0CCB5
:1011F000C8010995892B09F0CBCCF50122813381F7
:10120000C701820F931FF50193838283A8CB42E02D
:1012100050E0BE016D5E7F4F09953DCE41E050E04C
:10122000BE01625E7F4F099536CE60E86E0DD50136
:101230008D919C91DC01ED91FC910190F081E02D6C
:101240000995F50122813381820F931F9383828355
:10125000DACD63ECFECCD50112962D913C9113971B
:10126000C601CFCF44E050E0BE016F5F7F4F0995CC
:101270006FCBED91FC910190F081E02D69ED099526
:10128000F50122813381820F931F93838283CD8E58
:1012900080819181DC01ED91FC910280F381E02D50
:1012A000B1E0E234FB0709F005C1BE01635E7F4F88
:1012B0000E94E50F17CCCB8EDB018D919C91DC0158
:1012C000ED91FC910280F381E02DB1E0E234FB0767
:1012D00009F01DC1BE01655E7F4F0E94E50F38CB4E
:1012E000ED91FC910190F081E02D6DEC0995F501F7
:1012F00022813381820F931F93838283DE86CD8682
:101300008E858D87CE8680819181DC01ED91FC9167
:101310000280F381E02DB1E0E234FB0709F0C3C0A5
:10132000BE01635F7F4F0E94D10E12CB44E050E0BC
:10133000BE01675F7F4F09950BCBA601B401C801C1
:101340000995D50112962D913C9113975ACFFB0127
:1013500080819181DC01ED91FC910190F081E02D83
:1013600060EA6C0D0995F50122813381280F391F40
:1013700033832283BECBC98EFB0180819181DC0146
:10138000ED91FC910280F381E02DB1E0E234FB07A6
:1013900009F0C4C0BE01675E7F4F0E94E50FD8CA46
:1013A000ED91FC910190F081E02D6CEC0995F50137
:1013B00022813381820F931F93838283CA8E80811F
:1013C0009181DC01ED91FC910280F381E02DB1E08F
:1013D000E234FB0709F07CC0BE01665E7F4F0E94CD
:1013E000E50FB6CADB018D919C91DC01ED91FC917A
:1013F0000190F081E02D61ED0995F50122813381A5
:10140000820F931F93838283D88ACF8688898F87A0
:10141000C88A80819181DC01ED91FC910280F38189
:10142000E02DB1E0E234FB0709F04BC0BE01615F83
:101430007F4F0E94D10E8CCADB018D919C91DC0103
:10144000ED91FC910190F081E02D60ED0995F501A1
:1014500022813381820F931F93838283CC8E80817C
:101460009181DC01ED91FC910280F381E02DB1E0EE
:10147000E234FB07A1F5BE01645E7F4F0E94E50FD9
:1014800067CA60E9ABCA42E050E0BE016F5E7F4FC1
:10149000099528CB42E050E0BE016B5E7F4F099575
:1014A000ABCC60E8C4CE42E050E0BE01635F7F4F4A
:1014B00009954ECA41E050E0BE01635E7F4F099539
:1014C00011CB42E050E0BE01615F7F4F099540CAF9
:1014D00041E050E0BE01665E7F4F099539CA41E0A8
:1014E00050E0BE01645E7F4F099532CA44E050E08F
:1014F000BE016B5F7F4F09952BCA42E050E0BE01F1
:10150000695E7F4F0995E3CD80E090E07ACE41E0BF
:1015100050E0BE01655E7F4F09951ACA41E050E078
:10152000BE01675E7F4F099513CACF92DF92EF929B
:10153000FF920F931F93CF93DF93FC019481892F28
:101540008F7739F49078906294831182108213829D
:10155000128295FF3BC061157105C1F17A018B01C3
:101560006F01C081D18110C06115710529F0C801DA
:101570000E94412E892B79F09D819923B1F088E05A
:101580009802C00DD11D1124209779F06E817F81C2
:101590006017710749F7CE01DF91CF911F910F912D
:1015A000FF90EF90DF90CF900895D70114968D9122
:1015B0009C91159712962D913C911397285F3F4F60
:1015C0008217930730F481E018968C9380E090E0C6
:1015D000E3CFFC013897E701FD83EC833097B1F34B
:1015E000E601AA81BB811097A9F09F012A1B3B0B42
:1015F00035952795359527953595279515962C93EF
:10160000FB83EA8315821482DC0112970D931C93ED
:10161000CF01C2CFF983E883FB83EA83F3CF2F9214
:101620003F924F925F926F927F928F929F92AF9272
:10163000BF92CF92DF92EF92FF920F931F93CF93BF
:10164000DF93EC018B018D858823B9F01B861D8605
:101650001C8680E0DF91CF911F910F91FF90EF905A
:10166000DF90CF90BF90AF909F908F907F906F90C2
:101670005F904F903F902F9008953881E981FA81D3
:10168000F8948181632F60958623818378942CE779
:1016900043E050E002C02150C9F2CA010197F1F7BE
:1016A00080818323C1F3F8948281862382838181A0
:1016B000832B818378948BE797E00197F1F7F89477
:1016C00081816823618383E191E00197F1F7808153
:1016D0007894E3E6F6E03197F1F7382309F0B6CFD6
:1016E00060EFCE010E94CB1281E0F12C812CEE2420
:1016F000E39467E070E023E230E04FEC50E097EDD8
:10170000692E712C22242A94312CFFE0AF2EB12CAB
:101710002AC0442009F47EC0FE01EF0DF11D938123
:10172000D82ED0949D2193839881E981FA81F894F1
:10173000D280C92EC094DC20D282D180D92AD18215
:10174000D1011197F1F7D2809D2992837894F50108
:101750003197F1F7E394880F11F4F39481E0B7E047
:10176000BF1508F472C09881E981FA81F894D1809C
:10177000D92AD182D280992E9094D920D282DB01AD
:101780001197F1F7D1809D209182D9011197F1F73E
:1017900090807894FA013197F1F74880E981FA81D5
:1017A000F894D180D428D182D280542C5094D52062
:1017B000D282DB011197F1F7D1805D205182D901EE
:1017C0001197F1F7E0814E227894FA013197F1F701
:1017D000992109F49ECF411038C0FE01EF0DF11D93
:1017E0009381982B93839880E981FA81F894928170
:1017F000D92CD0949D219283918199299183D901EB
:101800001197F1F79281992992837894F301319796
:10181000F1F7A0CF9B85E91668F4FE01EF0DF11DED
:101820009381D92ED822E9F6A8E0AE1508F0EC860F
:101830008E2C76CFDD24D3949E11D12CFE01EF0D9A
:10184000F11D9381D110CDCFEFCFE0E4EE1508F07C
:10185000FDCE8B86882019F18B81882309F4F6CE82
:10186000D8018C938C8111968C9311978D8112964F
:101870008C9312978E8113968C9313978F81149665
:101880008C931497888515968C9315978985169651
:101890008C9316978A8517968C9381E0DBCE81E036
:1018A0008D87DACF8F929F92AF92BF92CF92DF92C5
:1018B000EF92FF920F931F93CF93DF938C01EB0175
:1018C000E091E003F091E1033081A181B281F894CD
:1018D00011969C911197732F7095972311969C9355
:1018E000119778942CE743E050E002C0215071F149
:1018F000FA013197F1F79C919323C1F3F894129672
:101900008C911297872312968C93129711968C9133
:101910001197832B11968C93119778948BE797E00E
:101920000197F1F7F89411968C91119778231196FD
:101930007C93119783E191E00197F1F78C91789472
:10194000E3E6F6E03197F1F7382371F080E0DF91BC
:10195000CF911F910F91FF90EF90DF90CF90BF90AC
:10196000AF909F908F9008954E01B8018091E00351
:101970009091E1030E945B036EEB8091E0039091F4
:10198000E1030E94CB128E017E0189E0E80EF11C7A
:10199000A7E0B0E043E250E02FEC30E0E091E0035C
:1019A000F091E1037081C181D281F8946981672B44
:1019B0006983DA80672F6095D622DA82CD0101979C
:1019C000F1F7D9806D216983CA010197F1F7888108
:1019D0007894E9012197F1F7972F9823AA24A394EB
:1019E000911101C0A12CB080C181D281F89499815C
:1019F0009B299983DA806B2D6095D622DA82CD01FE
:101A00000197F1F7D980962F9D219983CA010197FB
:101A1000F1F798817894E9012197F1F79B2119F06A
:101A20009A2D9260A92EB080C181D281F8949981BB
:101A30009B299983DA806B2D6095D622DA82CD01BD
:101A40000197F1F7D980962F9D219983CA010197BB
:101A5000F1F798817894E9012197F1F79B2119F02A
:101A60009A2D9460A92EB080C181D281F894998179
:101A70009B299983DA806B2D6095D622DA82CD017D
:101A80000197F1F7D980962F9D219983CA0101977B
:101A9000F1F798817894E9012197F1F79B2119F0EA
:101AA0009A2D9860A92EB080C181D281F894998135
:101AB0009B299983DA806B2D6095D622DA82CD013D
:101AC0000197F1F7D980962F9D219983CA0101973B
:101AD000F1F798817894E9012197F1F79B2119F0AA
:101AE0009A2D9061A92EB080C181D281F8949981FC
:101AF0009B299983DA806B2D6095D622DA82CD01FD
:101B00000197F1F7D980962F9D219983CA010197FA
:101B1000F1F798817894E9012197F1F79B2119F069
:101B20009A2D9062A92EB080C181D281F8949981BA
:101B30009B299983DA806B2D6095D622DA82CD01BC
:101B40000197F1F7D980962F9D219983CA010197BA
:101B5000F1F798817894E9012197F1F79B2119F029
:101B6000DA2DD064AD2E60810180F281E02DF894F1
:101B70009181962B91837281962F90957923728310
:101B8000ED012197F1F7718197239183CA010197A4
:101B9000F1F790817894F9013197F1F7962319F0D4
:101BA0009A2D9068A92EE801A9928E01CE15DF0525
:101BB00009F0F4CEE091E003F091E103308101807F
:101BC000F281E02DF8948181632F609586238183D3
:101BD00078942CE743E050E003C0215009F4B6CEDE
:101BE000CA010197F1F780818323B9F3F8948281C8
:101BF000862382838181832B818378948BE797E08E
:101C00000197F1F7F89481816823618383E191E082
:101C10000197F1F780817894E3E6F6E03197F1F7E8
:101C2000382309F093CEF401A081A1119BC0E401F7
:101C300071817111A0C0F4014A81411195C0E40184
:101C4000638161119AC0F4012C8121119CC0E401CF
:101C5000558151119DC0F4019E8191119DC0E401F7
:101C6000878181119CC03885332309F46FCEEA2F18
:101C7000EF70F0E0E25FFE4FB491A295AF70EA2FF3
:101C8000F0E0E25EFE4FE491EB277E27E72FEF7056
:101C9000F0E0E25FFE4FA49172957F70E72FF0E0D5
:101CA000E25EFE4FE491EA274E27E42FEF70F0E06A
:101CB000E25FFE4F749142954F70E42FF0E0E25ED8
:101CC000FE4FE491E7276E27E62FEF70F0E0E25F2A
:101CD000FE4F449162956F70E62FF0E0E25EFE4F9A
:101CE000E491E4272E27E22FEF70F0E0E25FFE4F51
:101CF000449122952F70E22FF0E0E25EFE4FE491D6
:101D0000E4275E27E52FEF70F0E0E25FFE4F2491BD
:101D100052955F70E52FF0E0E25EFE4FE491E2271E
:101D20009E27E92FEF70F0E0E25FFE4F249192953D
:101D30009F70E92FF0E0E25EFE4FE491E2278E27EC
:101D4000E82FEF70F0E0E25FFE4F949182958F7084
:101D5000E82FF0E0E25EFE4FE491E92781E03E13D8
:101D6000F5CDF5CD718142816381248155819681C4
:101D7000878130857CCF428163812C815D819E810A
:101D80008F81388574CF5D819E818F8138856FCF3B
:101D90009681878130856BCF8F81388568CF30857C
:101DA00066CFDF92EF92FF920F931F93CF93DF9353
:101DB000EC017B0100E010E0DD24D394E881F9819F
:101DC0000190F081E02DD7016D917D01B0E0ED3DF6
:101DD000FB0709F06AC0D88E9B8D8C8D981709F48B
:101DE00052C02B8D30E02F5F3F4F2F733327922F40
:101DF00003C00FB607FE21C08C8D9817D1F38B8DD1
:101E0000FE01E80FF11DE35AFF4F60839FB7F8947E
:101E10002B8FEA89FB898081806280839FBF0F5F5F
:101E20001F4F0230110551F6C801DF91CF911F916C
:101E30000F91FF90EF90DF900895E889F9898081F4
:101E400085FFDACF8C8DFE01E80FF11DE35AFF4FBD
:101E500080814C8D50E04F5F5F4F4F7355274C8F03
:101E6000EE89FF898083E889F989808183708064A5
:101E700080834B8D8C8D4813BFCFEA89FB8980818D
:101E80008F7D8083B9CFE889F989808185FFA9CFCB
:101E90009FB7F894EE89FF896083E889F98980818A
:101EA0008370806480839FBFBACFCE010995892B50
:101EB00009F0B5CFB9CFDF92EF92FF920F931F9346
:101EC000CF93DF93EC017B0100E010E0DD24D3949D
:101ED000E881F9810190F081E02DD7016D917D01BC
:101EE000B0E0ED3DFB0709F06AC0D88E9B8D8C8D6C
:101EF000981709F452C02B8D30E02F5F3F4F2F739E
:101F00003327922F03C00FB607FE21C08C8D981780
:101F1000D1F38B8DFE01E80FF11DE35AFF4F608373
:101F20009FB7F8942B8FEA89FB8980818062808338
:101F30009FBF0F5F1F4F0430110551F6C801DF919D
:101F4000CF911F910F91FF90EF90DF900895E88956
:101F5000F989808185FFDACF8C8DFE01E80FF11DB4
:101F6000E35AFF4F80814C8D50E04F5F5F4F4F73BE
:101F700055274C8FEE89FF898083E889F989808114
:101F80008370806480834B8D8C8D4813BFCFEA892A
:101F9000FB8980818F7D8083B9CFE889F989808131
:101FA00085FFA9CF9FB7F894EE89FF896083E88900
:101FB000F98980818370806480839FBFBACFCE010E
:101FC0000995892B09F0B5CFB9CFCF93DF93DC0109
:101FD000ED91FC9111970190F081E02DEB0168816A
:101FE000D0E0ED3DFD0709F08AC081E058968C9362
:101FF00058975B969C915B975C968C915C97981731
:1020000009F465C05B962C915B9730E02F5F3F4FE2
:102010002F733327922F03C00FB607FE20C05C96A4
:102020008C915C979817C1F35B968C915B97FD013F
:10203000E80FF11DE35AFF4F60839FB7F8945B965A
:102040002C935B975296ED91FC915397808180621F
:1020500080839FBF81E090E0DF91CF9108955096FB
:10206000ED91FC915197808185FFD9CF5C968C9141
:102070005C97FD01E80FF11DE35AFF4F80815C96EC
:102080004C915C9750E04F5F5F4F4F7355275C96C4
:102090004C935C975696ED91FC91579780835096A0
:1020A000ED91FC91519780818370806480835B9671
:1020B0004C915B975C968C915C974813B0CF52968D
:1020C000ED91FC91539780818F7D8083A8CF5096AE
:1020D000ED91FC915197808185FF94CF9FB7F89443
:1020E0005696ED91FC91579760835096ED91FC9137
:1020F000519780818370806480839FBFABCF0995A7
:10210000892B09F0A7CF80E090E0A6CF90E0FC01FA
:10211000E650FF4F2491FC01E45BFE4F3491FC013B
:10212000E85CFE4F84918823A1F0211118C0E82FAC
:10213000F0E0EE0FFF1FE051FF4FA591B4918FB774
:10214000F894611107C09C91E32FE095E923EC938B
:102150008FBF0895EC91E32BEC938FBFFACF233020
:1021600029F160F02730E1F02830A1F02430F9F6B1
:10217000909180009F7D90938000D9CF213031F0E5
:102180002230A9F694B59F7D94BDD1CF94B59F77A9
:1021900094BDCDCF9091B0009F7D9093B000C7CFFC
:1021A0009091B0009F779093B000C1CF9091800044
:1021B0009F7790938000BBCFCF93DF9390E0FC019B
:1021C000E45BFE4F2491FC01E85CFE4F8491882380
:1021D000B9F090E0880F991FFC01EA51FF4FA591DB
:1021E000B491FC01E051FF4FC591D491662359F0A1
:1021F0006230A9F08FB7F894EC91E22BEC938FBF8B
:10220000DF91CF9108959FB7F8948C91E22FE095DC
:102210008E238C932881E223E8839FBFF1CF9FB761
:10222000F8948C91322F309583238C93E881E22BA4
:10223000E8839FBFE5CF0F931F938B019C019FB74E
:10224000F89440916302509164026091650270912C
:10225000660286B5A89B06C08F3F21F04F5F5F4F97
:102260006F4F7F4F9FBF762F652F542F4427480F06
:10227000511D611D711D440F551F661F771F440FAF
:10228000551F661F771F0115110521053105C9F17D
:10229000FFB7F8948091630290916402A091650267
:1022A000B0916602E6B5A89B05C0EF3F19F0019614
:1022B000A11DB11DFFBFBA2FA92F982F88278E0F00
:1022C000911DA11DB11D880F991FAA1FBB1F880F4B
:1022D000991FAA1FBB1F841B950BA60BB70B883E2B
:1022E0009340A105B105A0F201501109210931095E
:1022F00048515C4F6F4F7F4F011511052105310586
:1023000039F61F910F9108951F920F920FB60F92F9
:1023100011242F933F938F939F93AF93BF938091FB
:10232000670290916802A0916902B0916A023091AF
:10233000620223E0230F2D3768F126E8230F02966F
:10234000A11DB11D209362028093670290936802E1
:10235000A0936902B0936A02809163029091640233
:10236000A0916502B09166020196A11DB11D8093F6
:10237000630290936402A0936502B0936602BF91DA
:10238000AF919F918F913F912F910F900FBE0F9022
:102390001F9018950196A11DB11DD4CFCF92DF9249
:1023A000EF92FF920F931F93CF93DF93E091DA03A5
:1023B0008091DC03882329F08091D703882309F4D6
:1023C000A1C0E950E33008F07FC0F0E0EE0FFF1F3E
:1023D000EF59FE4FC080D1800D2C000CEE08FF0895
:1023E0008091D80381117BC09FB7F894409163021C
:1023F00050916402609165027091660286B5A89B57
:1024000006C08F3F21F04F5F5F4F6F4F7F4F9FBFE1
:10241000762F652F542F4427480F511D611D711DC4
:10242000440F551F661F771F440F551F661F771FE8
:10243000C114D104E104F104D1F13FB7F8948091C3
:10244000630290916402A0916502B091660226B584
:10245000A89B05C02F3F19F00196A11DB11D3FBFDC
:10246000BA2FA92F982F8827820F911DA11DB11D6A
:10247000880F991FAA1FBB1F880F991FAA1FBB1F78
:10248000841B950BA60BB70B883E9340A105B105A5
:10249000A0F221E0C21AD108E108F10848515C4FCE
:1024A0006F4F7F4FC114D104E104F10431F68091E4
:1024B000D80381111AC0DF91CF911F910F91FF9026
:1024C000EF90DF90CF900895BEEECB2EB2E0DB2EE2
:1024D000E12CF12C8091D803882309F485CF60E0AA
:1024E0008091D9030E9486107FCF61E08091D9034B
:1024F000DF91CF911F910F91FF90EF90DF90CF90E0
:102500000C9486108FB7F894C0906702D090680240
:10251000E0906902F0906A028FBFA7E0B0E063E24A
:1025200070E04FEC50E0E091E003F091E103908126
:102530000180F281E02DF8948181892B81832281B1
:10254000892F809528232283ED012197F1F721819E
:1025500082238183EB012197F1F780817894FA013E
:102560003197F1F7892309F0A6CF8FB7F89400913E
:102570006702109168022091690230916A028FBF50
:102580000C191D092E093F090E3E12402105310587
:1025900008F4C9CF90CF8F929F92AF92BF92CF9203
:1025A000DF92EF92FF920F931F93CF93DF93DC01A3
:1025B00048E050E021E00FEF10E08FE0882E912CF2
:1025C00093E2C92ED12C37EDE32EF12C1CC08C9157
:1025D0001196ED91FC911297F8949281382F3095D5
:1025E000932392839181982B9183E6012197F1F7B0
:1025F0009281892B82837894C7010197F1F7220F8A
:1026000041505109F9F0862F822309F79C911196C8
:10261000ED91FC911297F8948281392F30958323A4
:1026200082838181892B8183E8012197F1F782815F
:10263000982B92837894C4010197F1F7220F4150AF
:10264000510909F7F8941196ED91FC911297918137
:102650008C918095892381831196ED91FC9112973D
:1026600092818C918095892382837894DF91CF9198
:102670001F910F91FF90EF90DF90CF90BF90AF90A0
:102680009F908F900895DC019C91E92FEF70F0E00E
:10269000E25FFE4F849192959F70E92FF0E0E25E39
:1026A000FE4FE491E82711969C9111978E2F892770
:1026B000E82FEF70F0E0E25FFE4F949182958F700B
:1026C000E82FF0E0E25EFE4FE4919E2712968C9197
:1026D00012979827E92FEF70F0E0E25FFE4F8491A8
:1026E00092959F70E92FF0E0E25EFE4FE4918E2715
:1026F00013969C9113978927E82FEF70F0E0E25F23
:10270000FE4F249182958F70E82FF0E0E25EFE4F3D
:10271000E4912E2714968C9114972827E22FEF70BE
:10272000F0E0E25FFE4F949122952F70E22FF0E0EF
:10273000E25EFE4FE4919E2715962C911597922705
:10274000E92FEF70F0E0E25FFE4F849192959F7069
:10275000E92FF0E0E25EFE4FE491E82716969C91A7
:102760009E27E92FEF70F0E0E25FFE4F8491E92FA2
:10277000E295EF70F0E0E25EFE4FE4918E2708955F
:10278000CF93DF93CDB7DEB764970FB6F894DEBF73
:102790000FBECDBF789484B5826084BD84B581605E
:1027A00084BD85B5826085BD85B5816085BD80911C
:1027B0006E00816080936E00109281008091810094
:1027C000826080938100809181008160809381008C
:1027D000809180008160809380008091B10084604E
:1027E0008093B1008091B00081608093B0008091AF
:1027F0007A00846080937A0080917A00826080936E
:102800007A0080917A00816080937A0080917A00CA
:10281000806880937A001092C10061E083E00E949A
:10282000DC1061E08BE00E94DC1061E08CE00E9433
:10283000DC1061E08DE00E94DC1060E08EE00E9420
:10284000DC1060E08FE00E94DC1060E081E10E941B
:10285000DC1060E083E00E94861060E08BE00E9464
:10286000861061E08CE00E94861060E08DE00E949E
:102870008610E0917B02F0917C0282E08083E091FF
:102880007702F09178021082E0917902F0917A0259
:1028900083E0808310928302E0917F02F0918002B6
:1028A00086E08083E0917D02F0917E0280818061EC
:1028B0008083E0917D02F0917E0280818860808338
:1028C000E0917D02F0917E02808180688083E091BA
:1028D0007D02F0917E0280818F7D80834EE053E007
:1028E0006BE771E087E193E00E94950AFC01892B78
:1028F00061F0948190789860948382E090E0A0E009
:10290000B0E080839183A283B383E091E003F091F0
:10291000E1031386158614861286339687E0DF015D
:102920001D928A95E9F71092DE031092DF0311E001
:1029300078C02A85E22FEF70F0E0E25FFE4F9491BD
:10294000E22FE295EF70F0E0E25EFE4FE4919E2709
:102950008B859827E92FEF70F0E0E25FFE4F8491BE
:1029600092959F70E92FF0E0E25EFE4FE491E82738
:102970009C858E2F8927E82FEF70F0E0E25FFE4FF5
:10298000949182958F70E82FF0E0E25EFE4FE49123
:10299000E9278D859E2F9827E92FEF70F0E0E25F01
:1029A000FE4F849192959F70E92FF0E0E25EFE4F1A
:1029B000E491E8279E858E2F8927E82FEF70F0E0BD
:1029C000E25FFE4F949182958F70E82FF0E0E25E17
:1029D000FE4FE491E9279F859E27E92FEF70F0E0F5
:1029E000E25FFE4F8491E92FE295EF70F0E0E25E46
:1029F000FE4FE491E82798898E2F8927E82FEF7002
:102A0000F0E0E25FFE4F949182958F70E82FF0E046
:102A1000E25EFE4FE491E92789898E1711F40C9448
:102A2000CD22BE01665F7F4F8091E0039091E1036C
:102A30000E940F0B81117DCF8091DE03282F30E0A3
:102A40003093200220931F029CE09093DA038823A6
:102A500009F4F1C0512CFE0172963F01CC24CA94B6
:102A6000D12C4FE0E42EF12C53E2852E912C67ED12
:102A7000A62EB12C352CE091E003F091E1031386F2
:102A80001586148612861186108617821682158284
:102A90001482138210E0BE01665F7F4F8091E003D5
:102AA0009091E1030E940F0B81110C9480208A8584
:102AB000803109F4BAC01091DA03BE016F5F7F4F15
:102AC000CE010A96193010F40C949B210E94520CEE
:102AD000882309F4AAC01D3008F01CE01A501330F6
:102AE00010F00C94A121E12FF0E0E85EFE4F808110
:102AF0009D81981709F499C08D838091E00390918E
:102B0000E1030E942C040091E0031091E10365E5CC
:102B1000C8010E94CB129E01265F3F4F2901D201BE
:102B20006D912D0128E030E091E01DC0D8018C911D
:102B30001196ED91FC911297F8944281582F50957F
:102B4000452342834181482B4183D4011197F1F7FA
:102B50004281842B82837894F5013197F1F7990FA4
:102B600021503109F9F0862F892301F7F80180817E
:102B70000180F281E02DF8944281582F5095452331
:102B800042834181482B4183D6011197F1F742815D
:102B9000842B82837894F7013197F1F7990F2150B4
:102BA000310909F7F894D8011196ED91FC9112972B
:102BB00091818C918095892381831196ED91FC916F
:102BC000129792818C918095892382837894461400
:102BD000570409F0A4CF6EE48091E0039091E103E3
:102BE0000E94CB126B818091E0039091E1030E94DF
:102BF000CB126C818091E0039091E1030E94CB1293
:102C00008A85803139F06D818091E0039091E103F4
:102C10000E94CB128091DD0381110C949C23809142
:102C2000E0039091E1030E942C0433948091DE0331
:102C3000381608F420CF1092DB038091E0039091C6
:102C4000E1030E942C046CEC8091E0039091E1037D
:102C50000E94CB120091D703C090E003D090E10313
:102C600078E0E72EF12C11E061E0812F847409F403
:102C700060E0C6010E94D503110FB1E0EB1AF10824
:102C800099F7011115C0F894D6011196ED91FC91B8
:102C9000129781819C919095892381831196ED9162
:102CA000FC91129782819C919095892382837894DC
:102CB0008091DB0381110E94CE1180E480937C001F
:102CC00080917A00806480937A0080917A0086FDFA
:102CD000FCCF809178008091790010922A021092A6
:102CE000290240E440937C0080917A0080648093C4
:102CF0007A0080917A0086FDFCCF80917800209147
:102D0000790090E0922B2091210230912202820FD3
:102D1000931F9093220280932102209129023091E7
:102D20002A022F5F3F4F30932A0220932902253039
:102D30003105C4F265E070E00E94582A70932202C7
:102D400060932102E3E9F2E0F0930B01E0930A01C2
:102D500080916900836080936900E89A9E012F5EEC
:102D60003F4F3B8B2A8B23E2222E312CAA24AA949C
:102D7000B12C9FE0892E912C80916002909161028C
:102D800097FF02C00C94DB218536910514F40C9456
:102D9000D02084E690E090936102809360022091BD
:102DA0005E0230915F022436310511F00C94F92156
:102DB0008FB7F89440916702509168026091690260
:102DC00070916A028FBF8091EE039091EF03A09102
:102DD000F003B091F1038A019B01081B190B2A0B28
:102DE0003B0B8091F2039091F303092E000CAA0B88
:102DF000BB0B081719072A073B0748F14093EE035E
:102E00005093EF036093F0037093F10380911E02DF
:102E1000882311F40C94A4218091500290915102C6
:102E2000009711F00C941E2384E690E090935102D9
:102E30008093500220911C0230911D0228173907FF
:102E400011F010921E0290931D0280931C028FB706
:102E5000F894409167025091680260916902709104
:102E60006A028FBF8091F4039091F503A091F6035D
:102E7000B091F7038A019B01081B190B2A0B3B0B2E
:102E80008091F8039091F903092E000CAA0BBB0B5B
:102E9000081719072A073B0708F46EC04093F4038C
:102EA0005093F5036093F6037093F70380911E022D
:102EB00081110C94AA2120912B0230912C02E091D7
:102EC0005002F09151022E173F0714F00C942B235F
:102ED0002F5F3F4F30932C0220932B026091100103
:102EE0007091110180E797E10E94582A7093F903CD
:102EF0006093F803EA35F10514F40C94B7212A35F0
:102F0000310524F430936102209360028091230202
:102F1000909124022091210230912202821793077E
:102F200014F00C941B2220916002309161022F5FFB
:102F30003F4F309361022093600221E020933B02D7
:102F4000873C914014F40C9402228091600290918D
:102F500061020297909361028093600281E0809306
:102F60003A0280912702909128028E34934014F007
:102F70000C940D22109239028FB7F8944091670299
:102F8000509168026091690270916A028FBF8091CE
:102F9000D1039091D203A091D303B091D4038A01BD
:102FA0009B01081B190B2A0B3B0B8091D5039091B9
:102FB000D603092E000CAA0BBB0B081719072A070A
:102FC0003B0708F412C14093D1035093D20360939E
:102FD000D3037093D40310922A0210922902C09056
:102FE0001F02D09020021C141D04E4F5B8E4EB2E5F
:102FF000B2E0FB2E00E010E0602EE091E003F091E3
:10300000E1031386158614861286118610861782B0
:103010001682158214821382712CBE01665F7F4F67
:103020008091E0039091E1030E940F0B882339F017
:10303000671411F40C9485277394671470F760E09B
:1030400070E08EEF92ECD7016D937D938D939D93FD
:103050007D010F5F1F4F10932A02009329020C1568
:103060001D0551F68091E0039091E1030E942C042C
:10307000A091E003B091E10328E030E051E01EC0F0
:103080001C911196ED91FC911297F8949281412F29
:103090004095942392839181912B9183C101019753
:1030A000F1F79281812F892B8283789487ED90E0CC
:1030B0000197F1F7550F2150310901F1852F8C7CD3
:1030C000F9F61C911196ED91FC911297F89492816A
:1030D000412F4095942392839181912B9183C50137
:1030E0000197F1F79281812F892B82837894C40113
:1030F0000197F1F7550F2150310901F7F894119616
:10310000ED91FC91129791818C9180958923818317
:103110001196ED91FC91129792818C918095892363
:10312000828378946091D703A091E003B091E1038A
:1031300028E030E051E01EC07C911196ED91FC91A9
:103140001297F8949281472F40959423928391810E
:10315000972B9183C1010197F1F79281872F892BDA
:103160008283789487ED90E00197F1F7550F215015
:10317000310901F1852F8474F9F67C911196ED9156
:10318000FC911297F8949281472F40959423928353
:103190009181972B9183C5010197F1F79281872F38
:1031A000892B82837894C4010197F1F7550F215040
:1031B000310901F7611114C0F8941196ED91FC9159
:1031C000129791818C918095892381831196ED913D
:1031D000FC91129792818C918095892382837894B7
:1031E0008091DB0381110C94D7218FB7F894409123
:1031F0006702509168026091690270916A028FBF04
:103200008091CB039091CC03A091CD03B091CE03DC
:103210008A019B01081B190B2A0B3B0B8091CF03E2
:103220009091D003092E000CAA0BBB0B08171907AD
:103230002A073B0708F4E0C04093CB035093CC032C
:103240006093CD037093CE0390917A0080917A00C1
:10325000887F846080937A0080E480937C008091F2
:103260007A00806480937A0080917A0086FDFCCF9A
:10327000609178008091790090937A0070E0782BCB
:10328000072E000C880B990B0E94F92B2B013C0197
:10329000E090A303F090A403E114F10411F40C9462
:1032A000E22480919E038701B4E08B9F000D111DE5
:1032B0001124F801208131814281538160919F0363
:1032C0007091A0038091A1039091A2030E94DD2A36
:1032D00060939F037093A0038093A1039093A20334
:1032E000D8014D925D926D927C92139710919E033E
:1032F000F701B4E01B9FE00DF11D112420919F0305
:103300003091A0034091A1035091A203608171818B
:10331000828193810E94DE2A60939F037093A003B1
:103320008093A1039093A2031F5F10939E030091CB
:103330009C03101711F40C941A2310919D03111182
:103340000C944B224092A9035092AA036092AB03C3
:103350007092AC034092A5035092A6036092A7031B
:103360007092A803101718F41F5F10939D038091AB
:1033700025029091260201969093260280932502C1
:10338000019611F40C949222112311F40C9443230E
:10339000612F70E080E090E00E94F92B9B01AC016E
:1033A00060919F037091A0038091A1039091A2036B
:1033B0000E944F2B0E94C12BAB01509324024093DB
:1033C00023022091210230912202BA01621B730B69
:1033D000072E000C880B990B0E94F92B20E030E09F
:1033E00043EC5DE30E94AE2C609340027093410277
:1033F00080934202909343028FB7F8944091670202
:10340000509168026091690270916A028FBF809149
:10341000C5039091C603A091C703B091C8038A0168
:103420009B01081B190B2A0B3B0B8091C903909140
:10343000CA03092E000CAA0BBB0B081719072A0791
:103440003B0708F45BC04093C5035093C6036093E9
:10345000C7037093C80310922A021092290243E412
:1034600090917A0080917A00887F846080937A00BE
:1034700040937C0080917A00806480937A008091F0
:103480007A0086FDFCCF809178002091790090939E
:103490007A0090E0922B2091270230912802820F2F
:1034A000931F909328028093270220912902309144
:1034B0002A022F5F3F4F30932A02209329022530A2
:1034C000310574F265E070E00E94582A709328027A
:1034D00060932702072E000C880B990B0E94F92B92
:1034E00023E333E343E35DE30E94AE2C60934402A5
:1034F0007093450280934602909347028FB7F894E9
:1035000040916702509168026091690270916A026D
:103510008FBF8091BF039091C003A091C103B09170
:10352000C2038A019B01081B190B2A0B3B0B8091DC
:10353000C3039091C403092E000CAA0BBB0B081700
:1035400019072A073B07A0F14093BF035093C0031C
:103550006093C1037093C2032091400230914102F5
:1035600040914202509143026091440270914502A1
:1035700080914602909147020E94AE2C6B017C0123
:103580006091600270916102072E000C880B990B0C
:103590000E94F92B9B01AC01C701B6010E94AE2C21
:1035A000609331027093320280933302909334021D
:1035B0008FB7F89440916702509168026091690258
:1035C00070916A028FBF8091B9039091BA03A09164
:1035D000BB03B091BC038A019B01081B190B2A0B8A
:1035E0003B0B8091BD039091BE03092E000CAA0BEA
:1035F000BB0B081719072A073B0708F463C0409361
:10360000B9035093BA036093BB037093BC0300915A
:10361000080110910901C0903102D0903202E0906F
:103620003302F090340220912D0230912E0240910D
:103630002F0250913002C701B6010E94DD2A60932B
:103640003C0270933D0280933E0290933F0220E043
:1036500030E0A9010E94A92C18160CF0D1C7809166
:10366000040190910501800F911F909309018093AF
:10367000080120915002309151022A3531050CF495
:10368000DEC620912B0230912C022A3531050CF038
:10369000CCC73093090120930801C90197FF06C0E8
:1036A000109209011092080180E090E0C0922D0272
:1036B000D0922E02E0922F02F092300290930701F6
:1036C000809306018FB7F894409167025091680289
:1036D0006091690270916A028FBF8091B3039091EB
:1036E000B403A091B503B091B6038A019B01081BF6
:1036F000190B2A0B3B0B8091B7039091B803092E4D
:10370000000CAA0BBB0B081719072A073B0708F484
:103710004EC04093B3035093B4036093B5037093CA
:10372000B603E8982CED30E030930B0120930A01AA
:103730008FB7F894C0906702D0906802E090690259
:10374000F0906A028FBFD0925D02C0925C028091BD
:103750005A0290915B02B601681B790B80911402AA
:10376000909115020E94582A20E63AEEDB010E9451
:10377000912A0E94F92B609356027093570280930E
:10378000580290935902D0925B02C0925A02109252
:1037900015021092140243E952E050930B0140933A
:1037A0000A0180916900836080936900E89A8FB76D
:1037B000F89440916702509168026091690270919B
:1037C0006A028FBF8091AD039091AE03A091AF03C9
:1037D000B091B0038A019B01081B190B2A0B3B0B0C
:1037E0008091B1039091B203092E000CAA0BBB0B80
:1037F000081719072A073B0770F14093AD03509350
:10380000AE036093AF037093B00300915C0210911C
:103810005D0280915A0290915B02081B190BC090C7
:103820005602D0905702E0905802F09059020115CC
:10383000110509F048C610925202109253021092DC
:10384000540210925502C0923502D0923602E09294
:103850003702F09238028FB7F89440916702509186
:1038600068026091690270916A028FBF80910803BB
:1038700090910903A0910A03B0910B038A019B0167
:10388000081B190B2A0B3B0B80910C0390910D0325
:10389000092E000CAA0BBB0B081719072A073B07B8
:1038A00008F415C4409308035093090360930A0376
:1038B00070930B034090560250905702609058024C
:1038C0007090590210911B03812F8F7761F410784B
:1038D000106210931B03109218031092170310929A
:1038E0001A031092190315FF33C0E0901703F090EC
:1038F000180315C06115710531F083E891E00E944D
:10390000412E892BD1F0D70115968C91882311F483
:103910000C94BD24E8E08E02E00CF11C1124E114AB
:10392000F10411F40C94BD24D70116966D917C918D
:103930001797B1E063387B07E9F6F7018481807857
:103940008C608483408251826282738210911B0357
:103950004090520250905302609054027090550271
:10396000812F8F7761F41078106210931B031092EF
:1039700018031092170310921A031092190315FFDF
:1039800032C0E0901703F090180314C06115710560
:1039900031F087E891E00E94412E892BC9F0F701B0
:1039A0008581882311F40C94F824E8E08E02E00C61
:1039B000F11C1124E114F10411F40C94F824D70142
:1039C00016966D917C911797B1E067387B07F1F6F9
:1039D000F701848180788C60848340825182628286
:1039E000738210911B03C0905002D0905102812F1E
:1039F0008F7761F41078106210931B0310921803F4
:103A00001092170310921A031092190315FF37C072
:103A1000E0901703F090180314C06115710531F0A0
:103A20008EE891E00E94412E892BC1F0D7011596B6
:103A30008C91882309F4B4C7E8E08E02E00CF11CF5
:103A40001124E114F10409F4ABC7D70116966D9166
:103A50007C911797B1E06E387B07F9F6F701848106
:103A60008078D7FC14C6886084830D2C000CEE0887
:103A7000FF08C082D182E282F38210911B03C090C2
:103A80006002D0906102812F8F7761F4107810620C
:103A900010931B03109218031092170310921A032D
:103AA0001092190315FF36C0E0901703F090180329
:103AB00013C06115710531F08EE991E00E94412E2D
:103AC000892BB9F0F7018581882309F47FC7E8E0E5
:103AD0008E02E00CF11C1124E114F10409F476C704
:103AE000D70116966D917C911797B1E06E397B07DF
:103AF00001F7F70184818078D7FCDEC58860848374
:103B00000D2C000CEE08FF08C082D182E282F38205
:103B100010911B0340910E0150910F0180911001F3
:103B200090911101489F9001499F300D589F300D91
:103B30001124032E000C440B550B60E074E284EF5B
:103B400090E00E946C2A29013A01812F8F7761F45D
:103B50001078106210931B03109218031092170331
:103B600010921A031092190315FF33C0E090170347
:103B7000F090180314C06115710531F08AEA91E0E4
:103B80000E94412E892BC1F0D70115968C91882374
:103B900009F4E1C6E8E08E02E00CF11C1124E11406
:103BA000F10409F4D8C6D70116966D917C91179748
:103BB000B1E06A3A7B07F9F6F7018481807877FCF7
:103BC00090C58860848340825182628273821091A2
:103BD0001B03409048025090490260904A02709046
:103BE0004B02812F8F7761F41078106210931B03C2
:103BF000109218031092170310921A0310921903CF
:103C000015FF30C0E0901703F090180313C0611542
:103C1000710531F087EB91E00E94412E892BB9F0BC
:103C2000F7018581882309F484C6E8E08E02E00C60
:103C3000F11C1124E114F10409F47BC6D701169696
:103C40006D917C911797B1E0673B7B0701F7F70116
:103C5000848180788C608483408251826282738206
:103C600010911B0340904402509045026090460220
:103C700070904702812F8F7761F410781062109353
:103C80001B03109218031092170310921A0310923C
:103C9000190315FF31C0E0901703F090180314C00A
:103CA0006115710531F08DEB91E00E94412E892B59
:103CB000C1F0D70115968C91882309F416C6E8E067
:103CC0008E02E00CF11C1124E114F10409F40DC67C
:103CD000D70116966D917C911797B1E06D3B7B07EC
:103CE000F9F6F701848180788C6084834082518268
:103CF0006282738210911B034090400250904102F7
:103D00006090420270904302812F8F7761F41078A7
:103D1000106210931B031092180310921703109255
:103D20001A031092190315FF30C0E0901703F090AA
:103D3000180313C06115710531F08BEC91E00E94FE
:103D4000412E892BB9F0F7018581882309F4DFC55D
:103D5000E8E08E02E00CF11C1124E114F10409F4F6
:103D6000D6C5D70116966D917C911797B1E06B3C43
:103D70007B0701F7F701848180788C60848340821F
:103D800051826282738210911B0340903C025090DA
:103D90003D0260903E0270903F02812F8F7761F468
:103DA0001078106210931B031092180310921703DF
:103DB00010921A031092190315FF31C0E0901703F7
:103DC000F090180314C06115710531F086ED91E093
:103DD0000E94412E892BC1F0D70115968C91882322
:103DE00009F471C5E8E08E02E00CF11C1124E11425
:103DF000F10409F468C5D70116966D917C91179767
:103E0000B1E0663D7B07F9F6F701848180788C602C
:103E10008483408251826282738210911B03812FBE
:103E20008F7761F41078106210931B0310921803BF
:103E30001092170310921A031092190315FF30C045
:103E4000E0901703F090180313C06115710531F06D
:103E500082EE91E00E94412E892BB9F0F701858115
:103E6000882309F41EC5E8E08E02E00CF11C112441
:103E7000E114F10409F415C5D70116966D917C91F2
:103E80001797B1E0623E7B0701F7F70184818078E4
:103E90008C608483108211821282138210911B0322
:103EA00000913B02812F8F7761F41078106210939C
:103EB0001B03109218031092170310921A0310920A
:103EC000190315FF34C0E0901703F090180314C0D5
:103ED0006115710531F080EF91E00E94412E892B30
:103EE000C1F0D70115968C91882309F4C8C4E8E085
:103EF0008E02E00CF11C1124E114F10409F4BFC49A
:103F0000D70116966D917C911797B1E0603F7B07C2
:103F1000F9F6F701848180788660848310E020E0E0
:103F200030E0008311832283338310911B030091BF
:103F30003A02812F8F7761F41078106210931B037F
:103F4000109218031092170310921A03109219037B
:103F500015FF33C0E0901703F090180313C06115EC
:103F6000710531F08AEF91E00E94412E892BB9F062
:103F7000F7018581882309F470C4E8E08E02E00C23
:103F8000F11C1124E114F10409F467C4D701169659
:103F90006D917C911797B1E06A3F7B0701F7F701BC
:103FA000848180788660848310E020E030E00083A4
:103FB00011832283338310911B03F0903902812FE8
:103FC0008F7761F41078106210931B03109218031E
:103FD0001092170310921A031092190315FF33C0A1
:103FE000009117031091180314C06115710531F089
:103FF00084E092E00E94412E892BC1F0D8011596F1
:104000008C91882309F417C4E8E08E02000D111D7D
:1040100011240115110509F40EC4D80116966D91ED
:104020007C911797B2E064307B07F9F6F801848140
:104030008078866084838F2D90E0A0E0B0E080835C
:104040009183A283B3834BE652E05A8349831C8257
:104050001B82BE016F5F7F4F87E193E00E9478046F
:10406000AEE0B2E051E04D91509383029091860210
:1040700080918702E0917B02F0917C02981709F40D
:104080007BC02091860230E02F5F3F4F2F73332794
:10409000922F03C00FB607FE3EC08091870298178B
:1040A000C9F3E0918602F0E0E853FD4F40839FB7EB
:1040B000F89420938602E0917D02F0917E02808147
:1040C000806280839FBF62E0A231B60761F680E024
:1040D00090E0892B11F40C94BC16809184022091FD
:1040E000850290E0805C9F4F821B91098F73992716
:1040F000892B11F40C94BC160E9400000C94B61687
:10410000311611F40C947A281F5F311610F40C94B8
:1041100057150C944B15808185FFBFCFE091870226
:10412000F0E0E853FD4F80816091870270E06F5F9F
:104130007F4F6F73772760938702E0918102F09140
:1041400082028083E0917B02F0917C028081837007
:10415000806480836091860280918702681307C023
:10416000E0917D02F0917E0280818F7D8083E091DD
:104170007B02F0917C0291CF808185FF82CF9FB737
:10418000F894E0918102F09182024083E0917B02F9
:10419000F0917C0280818370806480839FBF93CF85
:1041A00020915E0230915F028217930711F40C9404
:1041B000D816009709F40BC1833391050CF093C70F
:1041C000823091050CF41BC1843091050CF481C63A
:1041D000883091050CF471C68E3091050CF470C6D0
:1041E0008E30910509F46FC60F9709F46FC686E00B
:1041F00090E09093190280931802233331050CF458
:10420000ECC044E650E0421B530B10921B0210928C
:104210001A02423051050CF4E9C0443051050CF447
:1042200061C6483051050CF460C64E3051050CF49F
:104230005FC64E30510509F44FC64F30510509F4A1
:104240004EC646E050E050931B0240931A02509332
:10425000170240931602232B59F483EA8093B0008F
:104260008091180290911902409116025091170204
:1042700084179507E9F1FC01EE0FFF1F880F991FC6
:10428000880F991F880F991FDF01A80FB91FA55E1E
:10429000BE4F12962D913C9113972034310509F4AD
:1042A000C2C22032310509F4B6C328E030E03093B1
:1042B0000F0120930E012AE02093B1008E0F9F1F63
:1042C000FC01E55EFE4F84819581809310019093FF
:1042D000110146815781608571854093000150939B
:1042E0000101609302017093030181508093B30038
:1042F0006091600270916102072E000C880B990B8F
:104300000E94F92B2091000130910101409102019E
:10431000509103010E94AE2C0E94C12B615060930A
:10432000B400809160029091610290935F0280934B
:104330005E020C94D8160E94520C882311F40C943F
:1043400015168FE10C9478158091500290915102CE
:104350000C941A17E0915002F091510220912B0217
:1043600030912C02EA35F10514F00C947F172A35B0
:10437000310514F40C9482172C35310514F00C948B
:10438000861740916002509161028AE590E0841B9B
:10439000950B97FDB6C5029714F40C9486172F5F02
:1043A0003F4F30932C0220932B020C9486170E94CF
:1043B000CE110C94F5181092610210926002809157
:1043C0005E0290915F02892B11F40C94D8168091B3
:1043D000B0008F758093B000A4CF10921B02109292
:1043E0001A02A901423051050CF017CF40E050E00D
:1043F0002ECF80E090E0823091050CF0E5CE80E099
:1044000090E0F7CE10923A02809127029091280214
:104410008E34934014F40C94BA17809160029091FA
:1044200061020296909361028093600281E0809322
:1044300039020C94BC1710923B020C94A0172091E7
:104440002B0230912C022A353105D4F020916002E4
:10445000309161024AE550E0421B530B57FDF3C413
:10446000423051056CF02A3531050CF4D5C12A359E
:10447000310531F0215031093093610220936002FF
:10448000853691050CF40AC984E690E09093090101
:10449000809308010BC92091A5033091A603409198
:1044A000A7035091A803C301B2010E944A2B87FFC2
:1044B00029C14092A5035092A6036092A70370926F
:1044C000A8030C94B2192091350230913602409124
:1044D000370250913802C701B6010E94DD2A2CEA4A
:1044E00034EB41E45CE30E94AE2C2B013C01B801AB
:1044F000110F880B990B0E94F92B20E030E04AE75E
:1045000054E40E94AE2C9B01AC01C301B2010E9495
:104510004F2B6093520270935302809354029093F6
:10452000550291C9112309F465C110929F0310929D
:10453000A0031092A1031092A203412C512C32012E
:1045400000E0D7012D913D914D915D917D01C30119
:10455000B2010E94DE2A2B013C0160939F037093FD
:10456000A0038093A1039093A2030F5F0113E9CFEF
:10457000602F70E080E090E00E94F92B9B01AC017D
:10458000C301B2010E944F2B0E94C12BAB0170935B
:104590002402609323020C94E1198091DE038F5F63
:1045A0008093DE03283241F008F029C1203121F048
:1045B000223211F00C9411158091DF038F5F8093EC
:1045C000DF038091D703882309F49EC52031B1F021
:1045D000BE016F5F7F4FCE010A960E94520C882366
:1045E00009F476C58D818F3309F4BEC508F4C0C5C2
:1045F0008F3509F4BBC58F3709F06AC58CE069C5F2
:10460000809104019091050122273327281B390B43
:104610003093050120930401F801E81BF90BCF0149
:10462000F0930901E093080124C8909361028093FC
:10463000600226CF10929E030C949D19843691053A
:1046400011F00C941A17109251021092500280E04F
:1046500090E00C941A17E217F3070CF0D8C0215021
:10466000310930932C0220932B026091100170913C
:10467000110180E197E20E94582A7093F903609338
:10468000F8030C947A1740E050E00C94DD198A602E
:1046900084830D2C000CEE08FF08F094E094D09475
:1046A000C094C11CD11CE11CF11CC082D182E282E9
:1046B000F38210911B03E3C98A6084830D2C000CE4
:1046C000EE08FF08F094E094D094C094C11CD11C73
:1046D000E11CF11CC082D182E282F38210911B03A3
:1046E00019CA8A6084837094609450944094411CE9
:1046F000511C611C711C4082518262827382109134
:104700001B0367CA2091A9033091AA034091AB0310
:104710005091AC03C301B2010E94A92C181614F0E9
:104720000C94B2194092A9035092AA036092AB0371
:104730007092AC030C94B2198091E0039091E10364
:104740000E942C04882311F40C941516BE01665F98
:104750007F4F8091E0039091E1030E945B03B09151
:10476000D703BC8B4090E0035090E10308E010E0D9
:104770002224239461E0822D887409F460E0C20150
:104780000E94D503220C01501109A1F7EC89E11117
:1047900015C0F894D2011196ED91FC911297818188
:1047A0009C919095892381831196ED91FC911297AC
:1047B00082819C9190958923828378948091D703FC
:1047C000882309F472C38091D803811194C364E1F2
:1047D00070E080E090E00E941B118091D803882354
:1047E00011F40C940F1661E08091D9030E94861099
:1047F0000C940F1660E070E080EC9FE7C5CE2B3381
:1048000009F4DACE223411F00C941115D5CE81E0E2
:1048100080931E020C947A172F5F3F4F30936102F2
:10482000209360022DCE30930F0120930E012CE0D7
:104830002093B10043CD80911203909113032091F6
:10484000100330911103285F3F4F8217930708F040
:1048500046C281E080931603F6CB809112039091BB
:1048600013032091100330911103285F3F4F8217EB
:10487000930708F0D8C081E0809316039ECB809107
:104880001203909113032091100330911103285FBC
:104890003F4F8217930708F0F1C081E08093160321
:1048A00046CB809112039091130320911003309115
:1048B0001103285F3F4F8217930708F00AC181E078
:1048C00080931603EDCA80911203909113032091F7
:1048D000100330911103285F3F4F8217930708F0B0
:1048E0004EC181E0809316039ACA80911203909181
:1048F00013032091100330911103285F3F4F82175B
:10490000930708F011C181E080931603F5C98091E7
:104910001203909113032091100330911103285F2B
:104920003F4F8217930708F055C181E0809316032B
:104930002CCA80911203909113032091100330919F
:104940001103285F3F4F8217930708F0F3C181E0FE
:104950008093160387C980911203909113032091CD
:10496000100330911103285F3F4F8217930708F01F
:104970005CC181E0809316032CC980911203909151
:1049800013032091100330911103285F3F4F8217CA
:10499000930708F0FDC181E0809316030C94A81CD6
:1049A0008091120390911303209110033091110311
:1049B000285F3F4F8217930708F064C181E080931E
:1049C00016035DC810919D030C94B71980911203D2
:1049D000909113032091100330911103285F3F4FF2
:1049E0008217930708F002C281E08093160392C8F1
:1049F00080911203909113032091100330911103C1
:104A0000285F3F4F8217930708F021C281E080930F
:104A100016030C94F31C30930F0120930E012BE02E
:104A20002093B1004BCCFC013897F0931303E09333
:104A30001203309709F4C1CAA0911903B0911A0367
:104A4000109709F4D0C29F012A1B3B0B359527957F
:104A5000359527953595279515962C93F0931A0340
:104A6000E093190315821482DC0112972AEF31E0DA
:104A70002D933C93309709F093CA9DCAFC01389757
:104A8000F0931303E0931203309709F450CAA091F6
:104A90001903B0911A03109709F411C39F012A1B3F
:104AA0003B0B359527953595279535952795159683
:104AB0002C93F0931A03E093190315821482DC01FE
:104AC000129720EF31E02D933C93309709F022CAE2
:104AD0002CCAFC013897F0931303E093120330972C
:104AE00009F4DEC9A0911903B0911A03109709F4D3
:104AF000DDC29F012A1B3B0B3595279535952795E0
:104B00003595279515962C93F0931A03E093190386
:104B100015821482DC01129722EE31E02D933C9332
:104B2000309709F0B3C9BAC9FC013897F093130361
:104B3000E0931203309709F4DFC8A0911903B091F4
:104B40001A03109709F4A9C29F012A1B3B0B359544
:104B50002795359527953595279515962C93F093A0
:104B60001A03E093190315821482DC0112972DEBCE
:104B700031E02D933C93309709F0B4C8BBC8FC01D9
:104B80003897F0931303E0931203309709F447C961
:104B9000A0911903B0911A03109709F475C29F01EF
:104BA0002A1B3B0B359527953595279535952795E8
:104BB00015962C93F0931A03E0931903158214822F
:104BC000DC01129726ED31E02D933C93309709F0EC
:104BD0001CC923C9FC013897F0931303E093120317
:104BE000309709F4D2C8A0911903B0911A03109715
:104BF00009F441C29F012A1B3B0B3595279535953A
:104C000027953595279515962C93F0931A03E093E5
:104C1000190315821482DC0112972BEC31E02D93DD
:104C20003C93309709F0A7C8AEC8FC013897F093C1
:104C30001303E0931203309711F40C94E91DA09133
:104C40001903B0911A03109709F40CC29F012A1B93
:104C50003B0B3595279535952795359527951596D1
:104C60002C93F0931A03E093190315821482DC014C
:104C700012972AEA31E02D933C93309711F00C946F
:104C8000DD1D3DCDFC013897F0931303E093120333
:104C9000309711F40C943F1DA0911903B0911A03A1
:104CA000109709F4D6C19F012A1B3B0B3595279518
:104CB000359527953595279515962C93F0931A03DE
:104CC000E093190315821482DC0112972EE831E07B
:104CD0002D933C93309711F00C942F1DEACCFC01DE
:104CE0003897F0931303E0931203309709F4ABC99C
:104CF000A0911903B0911A03109709F4A1C19F0163
:104D00002A1B3B0B35952795359527953595279586
:104D100015962C93F0931A03E093190315821482CD
:104D2000DC01129724E032E02D933C93309709F098
:104D30007EC989C9FC013897F0931303E0931203ED
:104D4000309711F40C94321EA0911903B0911A03FC
:104D5000109709F46CC19F012A1B3B0B35952795D1
:104D6000359527953595279515962C93F0931A032D
:104D7000E093190315821482DC01129727EB31E0CE
:104D80002D933C93309711F00C94281E0C94301EF8
:104D9000FC013897F0931303E0931203309711F45A
:104DA0000C94A81CA0911903B0911A03109709F450
:104DB00035C19F012A1B3B0B3595279535952795C6
:104DC0003595279515962C93F0931A03E0931903C4
:104DD00015821482DC01129723E831E02D933C9375
:104DE000309711F00C949E1C0C94A61CFC01389773
:104DF000F0931303E0931203309711F40C948A1D7F
:104E0000A0911903B0911A03109709F4FEC09F01F5
:104E10002A1B3B0B35952795359527953595279575
:104E200015962C93F0931A03E093190315821482BC
:104E3000DC0112972EE931E02D933C93309711F06D
:104E40000C947A1D4BCC51954195510909CBFC012D
:104E50003897F0931303E0931203309711F40C94F6
:104E6000F31CA0911903B0911A03109709F4C4C060
:104E70009F012A1B3B0B3595279535952795359531
:104E8000279515962C93F0931A03E0931903158236
:104E90001482DC01129727E831E02D933C93309780
:104EA00011F00C94E91C0C94F11C64E170E080E0BA
:104EB00090E00E941B110C940F1682E090E099C9BB
:104EC00083E090E096C984E090E093C985E090E0AB
:104ED00090C981E090E08DC944E050E0B4C945E05C
:104EE00050E0B1C941E050E0AEC942E050E0ABC98A
:104EF00043E050E0A8C960E08091D9030E94861089
:104F000066CC91958195910946CADE011A9680E09A
:104F10009D918927E82FEF70F0E0E25FFE4F9491BA
:104F2000E82FE295EF70F0E0E25EFE4FE491892F0A
:104F30008E27EA89FB89AE17BF0751F79989981325
:104F40000C941C18BE016F5F7F4FCE010A960E9421
:104F5000520C882311F40C941F186A8170E0762F8C
:104F60006627770F770F770F898190E0880F991F59
:104F7000880F991F880F991F9B01282B392B8A8531
:104F80008031A9F0B901613854EE750714F40C941E
:104F90001F18072E000C880B990B0E94F92B20E09C
:104FA00030E040E05CE30E94AE2C0C94231868854E
:104FB000662341F370E08F81AB01481B5109CA01A0
:104FC0009695982F8827979587950E94582A605222
:104FD0007109207F220F331F220F331F220F331F2F
:104FE000620F731FD0CFF0931803E0931703F09371
:104FF0001A03E093190336CDF0931803E0931703D7
:10500000F0931A03E093190342CFF0931803E0934F
:105010001703F0931A03E093190308CFF0931803D2
:10502000E0931703F0931A03E0931903D1CEF093A2
:105030001803E0931703F0931A03E09319039ACE31
:10504000F0931803E0931703F0931A03E093190306
:1050500065CEF0931803E0931703F0931A03E093DF
:10506000190330CEF0931803E0931703F0931A035B
:10507000E0931903FACDF0931803E0931703F0932C
:105080001A03E0931903C5CDF0931803E0931703B7
:10509000F0931A03E093190391CDF0931803E09372
:1050A0001703F0931A03E09319035DCDF0931803EF
:1050B000E0931703F0931A03E093190329CDF093BB
:1050C0001803E0931703F0931A03E0931903F5CC48
:1050D00080E09091DA03981710F00C9411158093EA
:1050E000DA030C94111544E650E0BA01681B790B01
:1050F000CB0166C8CE010A960E9443139989891391
:105100000C9484200C9457158091E0039091E10356
:105110000E942C04BE01665F7F4F8091E003909156
:10512000E1030E945B0364EB8091E0039091E10353
:105130000E94CB128091E0039091E1030E94080449
:1051400081110AC08091E0039091E1030E942C0438
:105150001093D7032A853ACA8091E0039091E10326
:105160000E942C042A8532CA8AE0B3CF8BE0B1CFEB
:105170008F3109F0ADCF89E0ACCF8091A30390913E
:10518000A403009711F00C94B32D0895CF93DF93EF
:1051900010926E0210926D0288EE93E0A0E0B0E0F3
:1051A00080936F0290937002A0937102B093720289
:1051B0008BE691E090936C0280936B0285EC90E01B
:1051C000909378028093770284EC90E090937A0237
:1051D0008093790280EC90E090937C0280937B0234
:1051E00081EC90E090937E0280937D0282EC90E0CF
:1051F0009093800280937F0286EC90E090938202ED
:10520000809381021092840210928502109286028D
:10521000109287028CE193E090930F0380930E032A
:1052200090931103809310038CE993E09093130300
:105230008093120390931503809314031092160326
:1052400080911B03807880931B03109208031092B7
:10525000090310920A0310920B0384E690E09093E6
:105260000D0380930C03CEEED2E0D0930904C093DB
:10527000080460E082E00E94DC10EEE4F1E0E491DA
:10528000E093FA03EAE3F1E0E491F0E0EE0FFF1FB0
:10529000E25DFE4F859194919093FC038093FB0314
:1052A0001092050410920704109206041092040450
:1052B00087E0EDEFF3E0DF011D928A95E9F71092A8
:1052C000ED031092EC031092D8038AEF93E09093D1
:1052D000E1038093E0031092DE031092DF0310924B
:1052E000D70389E08093DA0381E08093DB03809326
:1052F000DC038093DD031092D1031092D20310924D
:10530000D3031092D403D093D603C093D503109245
:10531000CB031092CC031092CD031092CE038AE0FF
:1053200090E09093D0038093CF031092C503109226
:10533000C6031092C7031092C8039093CA038093C8
:10534000C9031092BF031092C0031092C1031092C0
:10535000C2039093C4038093C3031092B9031092C5
:10536000BA031092BB031092BC0382E390E09093C7
:10537000BE038093BD031092B3031092B403109246
:10538000B5031092B6039093B8038093B7031092BD
:10539000AD031092AE031092AF031092B00390933E
:1053A000B2038093B10380E180939C0380E490E09A
:1053B0000E941B2D9C019093A4038093A303892B2F
:1053C00009F453C010929D0310929E0310929F0304
:1053D0001092A0031092A1031092A20380E090E02B
:1053E000A0ECBFE78093A5039093A603A093A70327
:1053F000B093A8038093A9039093AA03A093AB034F
:10540000B093AC0390E19150F901B4E09B9FE00DA3
:10541000F11D112410821182128213829111F3CF97
:105420001092EE031092EF031092F0031092F1032A
:105430008AE090E09093F3038093F203609110016F
:105440007091110180E197E20E94582A1092F403B2
:105450001092F5031092F6031092F7037093F9037C
:105460006093F803DF91CF91089510929C031092FE
:105470009D0310929E0310929F031092A00310921E
:10548000A1031092A20380E090E0A0ECBFE780931C
:10549000A5039093A603A093A703B093A8038093BA
:1054A000A9039093AA03A093AB03B093AC03B8CF26
:1054B00097FB072E16F4009407D077FD09D00E94C1
:1054C000982A07FC05D03EF4909581959F4F08954A
:1054D000709561957F4F0895052E97FB1EF40094FB
:1054E0000E94832A57FD07D00E94AC2A07FC03D0F4
:1054F0004EF40C94832A50954095309521953F4F5A
:105500004F4F5F4F089590958095709561957F4FAF
:105510008F4F9F4F0895EE0FFF1F0590F491E02DE0
:1055200009940E94CE2AB7FF0895821B930B089519
:10553000AA1BBB1B51E107C0AA1FBB1FA617B707B9
:1055400010F0A61BB70B881F991F5A95A9F78095D5
:105550009095BC01CD010895A1E21A2EAA1BBB1B98
:10556000FD010DC0AA1FBB1FEE1FFF1FA217B3072F
:10557000E407F50720F0A21BB30BE40BF50B661F45
:10558000771F881F991F1A9469F760957095809509
:1055900090959B01AC01BD01CF010895A29FB00180
:1055A000B39FC001A39F700D811D1124911DB29F57
:1055B000700D811D1124911D08955058BB27AA27F5
:1055C0000E94F52A0C946F2C0E94612C38F00E94E6
:1055D000682C20F039F49F3F19F426F40C945E2CCB
:1055E0000EF4E095E7FB0C94582CE92F0E94802CD8
:1055F00058F3BA17620773078407950720F079F408
:10560000A6F50C94A22C0EF4E0950B2EBA2FA02D2B
:105610000B01B90190010C01CA01A0011124FF275F
:10562000591B99F0593F50F4503E68F11A16F0405A
:10563000A22F232F342F4427585FF3CF4695379559
:105640002795A795F0405395C9F77EF41F16BA0B1E
:10565000620B730B840BBAF09150A1F0FF0FBB1FCC
:10566000661F771F881FC2F70EC0BA0F621F731F15
:10567000841F48F4879577956795B795F7959E3F72
:1056800008F0B0CF9395880F08F09927EE0F979503
:10569000879508950E94342C08F481E008950E94B3
:1056A000632B0C946F2C0E94682C58F00E94612C84
:1056B00040F029F45F3F29F00C94582C51110C94C0
:1056C000A32C0C945E2C0E94802C68F39923B1F3D8
:1056D000552391F3951B550BBB27AA276217730718
:1056E000840738F09F5F5F4F220F331F441FAA1FAC
:1056F000A9F335D00E2E3AF0E0E832D09150504068
:10570000E695001CCAF72BD0FE2F29D0660F771F15
:10571000881FBB1F261737074807AB07B0E809F0FB
:10572000BB0B802DBF01FF2793585F4F3AF09E3F80
:10573000510578F00C94582C0C94A32C5F3FE4F3A3
:10574000983ED4F3869577956795B795F7959F5FC3
:10575000C9F7880F911D9695879597F90895E1E00F
:10576000660F771F881FBB1F621773078407BA076E
:1057700020F0621B730B840BBA0BEE1F88F7E095C9
:1057800008950E94C82B6894B1110C94A32C08951D
:105790000E94882C88F09F5798F0B92F9927B7510D
:1057A000B0F0E1F0660F771F881F991F1AF0BA95C5
:1057B000C9F714C0B13091F00E94A22CB1E0089555
:1057C0000C94A22C672F782F8827B85F39F0B93F47
:1057D000CCF3869577956795B395D9F73EF4909578
:1057E0008095709561957F4F8F4F9F4F0895E894F6
:1057F00009C097FB3EF490958095709561957F4F19
:105800008F4F9F4F9923A9F0F92F96E9BB279395C6
:10581000F695879577956795B795F111F8CFFAF4D6
:10582000BB0F11F460FF1BC06F5F7F4F8F4F9F4F07
:1058300016C0882311F096E911C0772321F09EE865
:10584000872F762F05C0662371F096E8862F70E0CB
:1058500060E02AF09A95660F771F881FDAF7880FA5
:105860009695879597F90895990F0008550FAA0BFB
:10587000E0E8FEEF16161706E807F907C0F0121663
:105880001306E407F50798F0621B730B840B950B66
:1058900039F40A2661F0232B242B252B21F40895BB
:1058A0000A2609F4A140A6958FEF811D811D089558
:1058B00097F99F6780E870E060E008959FEF80ECC3
:1058C000089500240A941616170618060906089566
:1058D00000240A9412161306140605060895092ECC
:1058E0000394000C11F4882352F0BB0F40F4BF2B3B
:1058F00011F460FF04C06F5F7F4F8F4F9F4F08957B
:1059000057FD9058440F551F59F05F3F71F0479570
:10591000880F97FB991F61F09F3F79F08795089555
:10592000121613061406551FF2CF4695F1DF08C074
:10593000161617061806991FF1CF86957105610591
:1059400008940895E894BB2766277727CB0197F939
:1059500008950E94342C08F48FEF08950E94C12C02
:105960000C946F2C0E94612C38F00E94682C20F05F
:10597000952311F00C94582C0C945E2C11240C944B
:10598000A32C0E94802C70F3959FC1F3950F50E0DB
:10599000551F629FF001729FBB27F00DB11D639FE1
:1059A000AA27F00DB11DAA1F649F6627B00DA11D87
:1059B000661F829F2227B00DA11D621F739FB00D2D
:1059C000A11D621F839FA00D611D221F749F33279D
:1059D000A00D611D231F849F600D211D822F762F36
:1059E0006A2F11249F5750409AF0F1F088234AF013
:1059F000EE0FFF1FBB1F661F771F881F915050407F
:105A0000A9F79E3F510580F00C94582C0C94A32CC0
:105A10005F3FE4F3983ED4F3869577956795B79505
:105A2000F795E7959F5FC1F7FE2B880F911D96951F
:105A3000879597F908950F931F93CF93DF93823043
:105A4000910510F482E090E0E0910C04F0910D04D7
:105A500020E030E0A0E0B0E0309719F140815181C2
:105A60000281138148175907C8F08417950769F414
:105A7000109731F012960C93129713961C9327C02F
:105A800000930C0410930D0422C02115310519F068
:105A90004217530718F49A01BD01EF01DF01F80125
:105AA000DBCF21153105F9F0281B390B24303105E6
:105AB00080F48A819B816115710521F0FB0193833C
:105AC000828304C090930D0480930C04FE013296EF
:105AD00044C0FE01E20FF31F8193919322503109DC
