:100000000C94B2000C941F030C94F8020C94DA00C8
:100010000C94DA000C94DA000C94DA000C94DA00F8
:100020000C94DA000C94DA000C94DA000C94DA00E8
:100030000C94DA000C94DA000C94DA000C94DA00D8
:100040000C94DD110C94DA000C9482030C9446039A
:100050000C94DA000C94DA000C94DA000C94DA00B8
:100060000C94DA000C94DA00750575058C058C0586
:100070007706F6042C06F604C506F6048C06F6048C
:10008000F604F604F604F604F604F604F604F604A0
:10009000F604F604F604F604F604F604F604F60490
:1000A000F604F6041907F604F604F604F604F6045A
:1000B000F604F604F604F604F604F604F604F60470
:1000C000F604F604F604F604F604F604F604F60460
:1000D000F604F604F604F604F604F604F604F60450
:1000E000F604F604220500000000240027002A0080
:1000F00000000000250028002B000000000800027E
:100100000100000304070000000000000000005E82
:10011000BCE2613FDD83C29C7E20A3FD1F41009DA8
:1001200023BE46DB65F88C11AF32CA57E974000074
:10013000000023002600290004040404040404042D
:100140000202020202020303030303030102040882
:100150001020408001020408102001020408102031
:1001600097298E2911241FBECFEFD8E0DEBFCDBF67
:1001700012E0A0E0B1E0E4E2FEE502C005900D92DD
:10018000A434B107D9F724E0A4E4B2E001C01D9281
:10019000A434B207E1F710E0C1EBD0E004C021972E
:1001A000FE010E945C2BC03BD107C9F70E941914C5
:1001B0000C94052F0C9400000895FC0181E0808FC1
:1001C000938D848D981709F448C0238D30E02F5FFC
:1001D0003F4F2F733327922F03C00FB607FE17C070
:1001E000848D9817D1F3838DDF01A80FB11DA35A19
:1001F000BF4F6C939FB7F894238F0288F389E02D4B
:100200008081806280839FBF81E090E00895A08913
:10021000B1898C9185FFE4CF848DDF01A80FB11DDA
:10022000A35ABF4F8C91448D50E04F5F5F4F4F7387
:100230005527448FA689B7898C93A089B1898C9161
:10024000837080648C93438D848D4813C9CFA289B9
:10025000B3898C918F7D8C93C3CFA089B1898C9108
:1002600085FFB3CF9FB7F894A689B7896C930088B0
:10027000F189E02D80818370806480839FBF81E05D
:1002800090E00895BF92CF92DF92EF92FF920F938A
:100290001F93CF93DF934115510509F486C06A017E
:1002A000EC017B0100E010E0BB24B394E881F9810C
:1002B0000190F081E02DD7016D917D01B0E0ED3D21
:1002C000FB0709F06CC0B88E9B8D8C8D981709F4D4
:1002D00054C02B8D30E02F5F3F4F2F733327922F69
:1002E00003C00FB607FE23C08C8D9817D1F38B8DFA
:1002F000FE01E80FF11DE35AFF4F60839FB7F894AA
:100300002B8FEA89FB898081806280839FBF0F5F8A
:100310001F4FC016D10651F6C801DF91CF911F9132
:100320000F91FF90EF90DF90CF90BF900895E889F4
:10033000F989808185FFD8CF8C8DFE01E80FF11DF2
:10034000E35AFF4F80814C8D50E04F5F5F4F4F73FA
:1003500055274C8FEE89FF898083E889F989808150
:100360008370806480834B8D8C8D4813BDCFEA8968
:10037000FB8980818F7D8083B7CFE889F98980816F
:1003800085FFA7CF9FB7F894EE89FF896083E8893E
:10039000F98980818370806480839FBFB8CFCE014C
:1003A0000995892B09F0B3CFB7CF00E010E0B4CFA7
:1003B000FC01918D228D892F90E0805C9F4F821BE4
:1003C00091098F73992708952091BA028091BB02F9
:1003D00030E0205C3F4F281B31092F73332781E029
:1003E000232B09F480E00895089580E090E00895BB
:1003F000CF93DF93DC0158968C915897882309F4AA
:1004000047C05296ED91FC9153975096CD91DC9157
:100410005197908195FF39C00FB607FCFACF9081B4
:1004200095FFF7CF888185FFF4CF5C968C915C9720
:10043000FD01E80FF11DE35AFF4F20815C968C917E
:100440005C9790E001968F7399275C968C935C97EC
:100450005696ED91FC91579720835096ED91FC9123
:10046000519780818370806480835B969C915B97B9
:100470005C968C915C979813C4CF5296ED91FC9149
:10048000539780818F7D8083BCCF888186FFC4CFC6
:10049000DF91CF910895FC01238D348D231730F423
:1004A000832F90E0821B9109019708958FE390E0DC
:1004B000821B9109830F911D0895FC01918D828DFE
:1004C000981761F0828DDF01A80FB11D5D968C91A8
:1004D000928D9F5F9F73928F90E008958FEF9FEFB3
:1004E0000895FC01918D828D981731F0828DE80F6F
:1004F000F11D858D90E008958FEF9FEF089580E0C6
:1005000090E0892B79F08091BA022091BB0290E0B3
:10051000805C9F4F821B91098F739927892B11F063
:100520000C94000008953FB7F8948091990290913F
:100530009A02A0919B02B0919C0226B5A89B05C08F
:100540002F3F19F00196A11DB11D3FBFBA2FA92F52
:10055000982F8827820F911DA11DB11D880F991F0B
:10056000AA1FBB1F880F991FAA1FBB1F40914402DF
:10057000509145026091460270914702841B950B91
:10058000A60BB70B8093140190931501A09316014D
:10059000B09317013FB7F8948091990290919A0215
:1005A000A0919B02B0919C0226B5A89B05C02F3F4D
:1005B00019F00196A11DB11D3FBFBA2FA92F982F89
:1005C0008827820F911DA11DB11D880F991FAA1F99
:1005D000BB1F880F991FAA1FBB1F809344029093D3
:1005E0004502A0934602B093470208950E94F72E59
:1005F0001F920F920FB60F9211242F933F934F9398
:100600005F936F937F938F939F93AF93BF93EF937A
:10061000FF93E0910C01F0910D010995FF91EF918D
:10062000BF91AF919F918F917F916F915F914F910A
:100630003F912F910F900FBE0F901F9018951F9212
:100640000F920FB60F9211242F933F934F935F9306
:100650006F937F938F939F93AF93BF93EF93FF938A
:10066000E0910A01F0910B010995FF91EF91BF9183
:10067000AF919F918F917F916F915F914F913F913A
:100680002F910F900FBE0F901F9018951F920F92F1
:100690000FB60F9211242F938F939F93EF93FF9395
:1006A000E091BD02F0E0E250FD4F20818091BD025B
:1006B00090E001968F7399278093BD02E091B70275
:1006C000F091B8022083E091B102F091B2028081F2
:1006D0008370806480839091BC028091BD029813E6
:1006E00007C0E091B302F091B40280818F7D8083D6
:1006F000FF91EF919F918F912F910F900FBE0F90CF
:100700001F9018951F920F920FB60F9211242F93DE
:100710008F939F93EF93FF93E091B102F091B20218
:100720008081E091B702F091B80282FF0BC0808116
:10073000FF91EF919F918F912F910F900FBE0F908E
:100740001F90189520818091BA028F5F8F739091CE
:10075000BB02891769F3E091BA02F0E0EF55FD4F53
:10076000258F8093BA02E4CF9F92AF92BF92CF922F
:10077000DF92EF92FF920F931F93CF93DF93EC01E1
:100780008B0165E50E9424137801680188E0C80E9A
:10079000D11C4FEF50E02FE030E003E210E067EDB6
:1007A00070E0F70191907F0188E090E0AA24A39483
:1007B00019C0B880E981FA81F894A281BB2DB09567
:1007C000AB23A283A181AB29A183D8011197F1F7B3
:1007D000A281BA2AB2827894FB013197F1F7AA0C70
:1007E0000197E1F0E92DEA2121F7B880E981FA814A
:1007F000F894A281BB2DB095AB23A283A181AB2934
:10080000A183DA011197F1F7A281BA2AB282789412
:10081000F9013197F1F7AA0C019721F7F894E981D2
:10082000FA8191818881809589238183E981FA8188
:10083000928188818095892382837894CE14DF0405
:1008400009F0AFCFDF91CF911F910F91FF90EF9003
:10085000DF90CF90BF90AF909F900895FC01908162
:100860000180F281E02D60FD16C0F8948281292F6D
:100870002095822382838181892B8183AFEFB0E031
:100880001197F1F78281982B928378948FE090E012
:100890000197F1F70895F8948281292F20958223FA
:1008A00082838181892B8183A3E2B0E01197F1F7E4
:1008B0008281982B9283789487ED90E00197F1F7ED
:1008C0000895FC0190810180F281E02DF8948181EE
:1008D000892B81832281892F809528232283A7E079
:1008E000B0E01197F1F7218182238183A3E2B0E088
:1008F0001197F1F780817894EFECF0E03197F1F700
:10090000982381E009F480E00895FC012081A18111
:10091000B281F89411968C911197322F30958323E0
:1009200011968C93119778948CE743E050E002C0C5
:10093000815079F1FA013197F1F79C919223C1F33B
:10094000F89412968C911297832312968C93129797
:1009500011968C911197822B11968C931197789404
:100960008BE797E00197F1F7F89411968C91119726
:10097000382311963C93119783E191E00197F1F7A9
:100980008C91282381E031F47894E3E6F6E0319706
:10099000F1F7089580E07894E3E6F6E03197F1F717
:1009A000F8CF5F926F927F928F929F92AF92BF9299
:1009B000CF92DF92EF92FF920F931F93CF93DF932B
:1009C000CDB7DEB76E970FB6F894DEBF0FBECDBFC2
:1009D0008C015B01DC0114968C91E82FEF778E2F50
:1009E00090E0FC013297EF33F10540F1D5018D9194
:1009F0009C91DC01ED91FC910190F081E02D60EC87
:100A00000995F50122813381820F931F938382839D
:100A10006E960FB6F894DEBF0FBECDBFDF91CF91BB
:100A20001F910F91FF90EF90DF90CF90BF90AF900C
:100A30009F908F907F906F905F900895EC5CFF4F38
:100A40000C945C2BF801A081B181109709F472C558
:100A5000FD01E12CF12C2FEFE21AF20A85818111C0
:100A600059C3E0E1EE16F10408F061C360E070E004
:100A70006F5F7F4F15968C911597882339F0F8E0BA
:100A80008F02A00DB11D1124109791F76057D50169
:100A90008D919C91DC01ED91FC910190F081E02D14
:100AA0000995F50122813381820F931F93838283FD
:100AB000D8010D911C910115110509F4A9CFB501BB
:100AC000C8010E94D104F8018581882341F0B8E073
:100AD0008B02000D111D11240115110581F7D5019F
:100AE00012968D919C91139793CFDB018D919C91E0
:100AF000F8014281538160817181DC01ED91FC91AB
:100B00000280F381E02D0995F50122813381820F66
:100B1000931F938382837CCFD8018D909C90F401A6
:100B200001900020E9F731976F01C818D908B0E2A9
:100B3000CB16D10408F464C4DB018D919C91DC01D7
:100B4000FFEFCF16D10409F008F4ECC3ED91FC914E
:100B50000190F081E02D6AED0995F5012281338144
:100B6000820F931F93838283DA8AC98A8A89898B49
:100B7000CA8A80819181DC01ED91FC910280F38130
:100B8000E02DB1E0E234FB0709F0D6C4BE016F5E90
:100B90007F4F0E942A0FF50122813381280F391FD0
:100BA00033832283D5010D911C91F801A081B1817D
:100BB0001296ED91FC91139781E0E234F80709F069
:100BC00015C4C114D10409F4F8C4E12CF12C772424
:100BD0007394ED91FC91D4016D914D01B0E0ED3D28
:100BE000FB0709F05EC3F801708E938D848D981712
:100BF00009F43FC3F801238D30E02F5F3F4F2F737F
:100C00003327922F03C00FB607FEC2C2D8015C96ED
:100C10008C915C979817B9F3F801838DE80FF11D5B
:100C2000E35AFF4F60839FB7F894D8015B962C93EB
:100C30005B975296ED91FC915397808180628083FF
:100C40009FBFFFEFEF1AFF0ACE14DF0409F45CC365
:100C5000F801A081B181BDCFD801CD90DD90ED909C
:100C6000FC90B0E8CB16D104E104F10408F4DCC335
:100C7000DB018D919C91DC01FFEFCF16D104E104E3
:100C8000F10409F008F4E5C3C114D104F1E0EF0662
:100C9000F10408F47EC3ED91FC910190F081E02D08
:100CA0006EEC0995F50122813381820F931F9383A6
:100CB0008283C982DA82EB82FC828C818983CC8236
:100CC0008A819B819A838B8380819181DC01ED9164
:100CD000FC910280F381E02DB1E0E234FB0709F0E2
:100CE0001AC3BE016F5F7F4F0E94B40F8ACEF80116
:100CF00080819181A281B381892B8A2B8B2B09F072
:100D000001C362ECD5018D919C91DC01ED91FC91C8
:100D10000190F081E02D74CEF801F080D180E28066
:100D20001381DB018D919C91DC01ED91FC9101908F
:100D3000F081E02D6AEC0995F50122813381820F63
:100D4000931F938382838F2D9D2DAE2DB12F898785
:100D50009A87AB87BC878C858987FC868A859B852B
:100D60009A878B8780819181DC01ED91FC910280D3
:100D7000F381E02DB1E0E234FB0709F030C3BE019E
:100D8000675F7F4F0E94B40F3CCEF8018081918154
:100D9000A281B381CC24DD247601C81AD90AEA0ADB
:100DA000FB0A81329105A105B10508F4DDC2813845
:100DB0009105A105B10508F498C38130F0E89F07BB
:100DC000A105B10508F467C30197A105B04808F073
:100DD00086CEFB0180819181DC01ED91FC91019037
:100DE000F081E02D62ED0995F50122813381820FBA
:100DF000931F93838283CD82DE82EF82F88688857B
:100E00008D83C8868E819F819E838F83808191810F
:100E1000DC01ED91FC910280F381E02DB1E0E23440
:100E2000FB0709F0BCC3BE016B5F7F4F0E94B40F8C
:100E3000E8CDD801ED91FC91309709F48BC3E12CFA
:100E4000F12CBFEFEB1AFB0A8581811150C180E1C3
:100E5000E816F10408F442C2D5018D919C91DC01A1
:100E6000ED91FC910190F081E02D6EED0995F50179
:100E700022813381820F931F93838283FE8AED8ABE
:100E80008E898D8BEE8A80819181DC01ED91FC91C0
:100E90000280F381E02DB1E0E234FB0709F053C397
:100EA000BE016B5E7F4F0E942A0FF50122813381C4
:100EB000820F931F93838283D8016D907C9061147D
:100EC000710409F4A5CD55245394F301C680D7804D
:100ED000F60101900020E9F731974F018C189D0829
:100EE000D5018D919C91DC01F0E28F16910408F4FC
:100EF000A5C1FFEF8F16910409F008F47DC1ED91B3
:100F0000FC910190F081E02D6AED0995F5012281B7
:100F10003381820F931F938382839C8A8B8A8C896F
:100F20008B8B8C8A80819181DC01ED91FC91028018
:100F3000F381E02DB1E0E234FB0709F0C1C1BE014D
:100F40006D5E7F4F0E942A0FF50122813381820F4F
:100F5000931F93838283D5010D911C91F801A08189
:100F6000B1811296ED91FC91139721E0E234F207E2
:100F700009F074C1E12CF12C8114910409F4A5C08D
:100F8000ED91FC91D6016D916D01B0E0ED3DFB0757
:100F900009F093C0F801508E938D848D981709F451
:100FA00067C0D8015B962C9130E02F5F3F4F2F73C5
:100FB0003327922F03C00FB607FE26C0D8015C96D8
:100FC0008C915C979817B9F3F801838DE80FF11DA8
:100FD000E35AFF4F60839FB7F894D8015B962C9338
:100FE0005B975296ED91FC9153978081806280834C
:100FF0009FBFBFEFEB1AFB0A8E149F0409F456C083
:10100000F801A081B181BCCF5096ED91FC91519730
:10101000808185FFD3CF5C968C915C97F801E80FB7
:10102000F11DE35AFF4F8081F801448D50E04F5F7E
:101030005F4F4F735527448F0688F789E02D8083D3
:101040005096ED91FC9151978081837080648083EC
:101050005B964C915B975C968C915C974813AECFF6
:101060005296ED91FC91539780818F7D8083A6CF1E
:101070000088F189E02D808185FF93CF9FB7F89498
:10108000D8015696ED91FC91579760835096ED915B
:10109000FC91519780818370806480839FBFBFEFF4
:1010A000EB1AFB0A8E149F0409F0AACFD501129601
:1010B0008D919C911397740108C0C8010995892BE3
:1010C00009F097CFF50182819381E80EF91EF501B1
:1010D000F382E282B501C3010E94D104D3011596C7
:1010E0008C9181110DC0F5018281938191CC28E012
:1010F0008202E00DF11D1124309709F0A2CEA7CE97
:10110000F8E08F02600C711C11246114710409F065
:10111000DCCEE9CF98E08902E00DF11D1124309773
:1011200009F099CC20E1E216F10408F49FCCD50136
:101130008D919C91DC01ED91FC910190F081E02D6D
:101140006CED0995F50122813381820F931F938302
:101150008283F88EEF8A888D8F8BE88E80819181D3
:10116000DC01ED91FC910280F381E02DB1E0E234ED
:10117000FB0709F01BC2BE01695E7F4F0E942A0F68
:10118000F50122813381820F931F9383828390CC58
:101190005096ED91FC915197808185FF37CD5C96FB
:1011A0008C915C97F801E80FF11DE35AFF4F8081A5
:1011B000F801448D50E04F5F5F4F4F735527448FC8
:1011C0000688F789E02D80835096ED91FC91519728
:1011D00080818370806480835B964C915B975C9682
:1011E0008C915C97481312CD5296ED91FC915397D8
:1011F00080818F7D80830ACDED91FC910190F081FB
:10120000E02D69ED0995F50122813381820F931F4D
:10121000938382838E8E80819181DC01ED91FC919C
:101220000280F381E02DB1E0E234FB0709F04FC00A
:10123000BE01625E7F4F0E943E1086CEED91FC9112
:101240000190F081E02D60EA680D0995F501E280DA
:10125000F3808E0D9F1D938382837DCEA401B60102
:10126000C80109957C01D50112968D919C91139727
:101270002CCF0088F189E02D808185FFBBCC9FB702
:10128000F894D8015696ED91FC915797608350964B
:10129000ED91FC91519780818370806480839FBF22
:1012A000D0CCC8010995892B09F0CBCCF50122815E
:1012B0003381C701820F931FF50193838283A8CBEB
:1012C00042E050E0BE016D5E7F4F09953DCE41E0AA
:1012D00050E0BE01625E7F4F099536CE60E86E0D2C
:1012E000D5018D919C91DC01ED91FC910190F081F3
:1012F000E02D0995F50122813381820F931F93839D
:101300008283DACD63ECFECCD50112962D913C910F
:101310001397C601CFCF44E050E0BE016F5F7F4F0F
:1013200009956FCBED91FC910190F081E02D69ED75
:101330000995F50122813381820F931F9383828364
:10134000CD8E80819181DC01ED91FC910280F38151
:10135000E02DB1E0E234FB0709F005C1BE01635E98
:101360007F4F0E943E1017CCCB8EDB018D919C915C
:10137000DC01ED91FC910280F381E02DB1E0E234DB
:10138000FB0709F01DC1BE01655E7F4F0E943E1044
:1013900038CBED91FC910190F081E02D6DEC099539
:1013A000F50122813381820F931F93838283DE862E
:1013B000CD868E858D87CE8680819181DC01ED91F1
:1013C000FC910280F381E02DB1E0E234FB0709F0EB
:1013D000C3C0BE01635F7F4F0E942A0F12CB44E05F
:1013E00050E0BE01675F7F4F09950BCBA601B401AA
:1013F000C8010995D50112962D913C9113975ACFAA
:10140000FB0180819181DC01ED91FC910190F081E3
:10141000E02D60EA6C0D0995F50122813381280FDA
:10142000391F33832283BECBC98EFB01808191811A
:10143000DC01ED91FC910280F381E02DB1E0E2341A
:10144000FB0709F0C4C0BE01675E7F4F0E943E10DB
:10145000D8CAED91FC910190F081E02D6CEC0995DA
:10146000F50122813381820F931F93838283CA8E79
:1014700080819181DC01ED91FC910280F381E02D6E
:10148000B1E0E234FB0709F07CC0BE01665E7F4F2D
:101490000E943E10B6CADB018D919C91DC01ED915A
:1014A000FC910190F081E02D61ED0995F50122811B
:1014B0003381820F931F93838283D88ACF86888952
:1014C0008F87C88A80819181DC01ED91FC91028037
:1014D000F381E02DB1E0E234FB0709F04BC0BE011F
:1014E000615F7F4F0E942A0F8CCADB018D919C9116
:1014F000DC01ED91FC910190F081E02D60ED09950A
:10150000F50122813381820F931F93838283CC8ED6
:1015100080819181DC01ED91FC910280F381E02DCD
:10152000B1E0E234FB07A1F5BE01645E7F4F0E948B
:101530003E1067CA60E9ABCA42E050E0BE016F5E90
:101540007F4F099528CB42E050E0BE016B5E7F4F94
:101550000995ABCC60E8C4CE42E050E0BE01635FC9
:101560007F4F09954ECA41E050E0BE01635E7F4F58
:10157000099511CB42E050E0BE01615F7F4F0995B4
:1015800040CA41E050E0BE01665E7F4F099539CA0E
:1015900041E050E0BE01645E7F4F099532CA44E0ED
:1015A00050E0BE016B5F7F4F09952BCA42E050E0CF
:1015B000BE01695E7F4F0995E3CD80E090E07ACE71
:1015C00041E050E0BE01655E7F4F09951ACA41E0D7
:1015D00050E0BE01675E7F4F099513CACF92DF923C
:1015E000EF92FF920F931F93CF93DF93FC019481AF
:1015F000892F8F7739F490789062948311821082CA
:101600001382128295FF3BC061157105C1F17A0109
:101610008B016F01C081D18110C06115710529F066
:10162000C8010E94FC2E892B79F09D819923B1F08D
:1016300088E09802C00DD11D1124209779F06E81A9
:101640007F816017710749F7CE01DF91CF911F911C
:101650000F91FF90EF90DF90CF900895D7011496EF
:101660008D919C91159712962D913C911397285F1F
:101670003F4F8217930730F481E018968C9380E0F7
:1016800090E0E3CFFC013897E701FD83EC833097CE
:10169000B1F3E601AA81BB811097A9F09F012A1B33
:1016A0003B0B3595279535952795359527951596B7
:1016B0002C93FB83EA8315821482DC0112970D932D
:1016C0001C93CF01C2CFF983E883FB83EA83F3CF76
:1016D0002F923F924F925F926F927F928F929F9242
:1016E000AF92BF92CF92DF92EF92FF920F931F9330
:1016F000CF93DF93EC018B018D858823B9F01B8696
:101700001D861C8680E0DF91CF911F910F91FF9085
:10171000EF90DF90CF90BF90AF909F908F907F9091
:101720006F905F904F903F902F9008953881E9819E
:10173000FA81F8948181632F609586238183789460
:101740002CE743E050E002C02150C9F2CA010197E2
:10175000F1F780818323C1F3F89482818623828309
:101760008181832B818378948BE797E00197F1F750
:10177000F89481816823618383E191E00197F1F717
:1017800080817894E3E6F6E03197F1F7382309F0A9
:10179000B6CF60EFCE010E94241381E0F12C812CA2
:1017A000EE24E39467E070E023E230E04FEC50E099
:1017B00097ED692E712C22242A94312CFFE0AF2E54
:1017C000B12C2AC0442009F47EC0FE01EF0DF11DAA
:1017D0009381D82ED0949D2193839881E981FA81B9
:1017E000F894D280C92EC094DC20D282D180D92A2C
:1017F000D182D1011197F1F7D2809D2992837894FB
:10180000F5013197F1F7E394880F11F4F39481E037
:10181000B7E0BF1508F472C09881E981FA81F894A5
:10182000D180D92AD182D280992E9094D920D28287
:10183000DB011197F1F7D1809D209182D901119799
:10184000F1F790807894FA013197F1F74880E981B7
:10185000FA81F894D180D428D182D280542C50942B
:10186000D520D282DB011197F1F7D1805D20518222
:10187000D9011197F1F7E0814E227894FA0131975E
:10188000F1F7992109F49ECF411038C0FE01EF0D08
:10189000F11D9381982B93839880E981FA81F894C4
:1018A0009281D92CD0949D21928391819929918301
:1018B000D9011197F1F79281992992837894F301D4
:1018C0003197F1F7A0CF9B85E91668F4FE01EF0D83
:1018D000F11D9381D92ED822E9F6A8E0AE1508F0C3
:1018E000EC868E2C76CFDD24D3949E11D12CFE0174
:1018F000EF0DF11D9381D110CDCFEFCFE0E4EE15C8
:1019000008F0FDCE8B86882019F18B81882309F49D
:10191000F6CED8018C938C8111968C9311978D8182
:1019200012968C9312978E8113968C9313978F81B6
:1019300014968C931497888515968C9315978985A2
:1019400016968C9316978A8517968C9381E0DBCE3A
:1019500081E08D87DACF8F929F92AF92BF92CF9224
:10196000DF92EF92FF920F931F93CF93DF938C013F
:10197000EB01E0911604F09117043081A181B2814E
:10198000F89411969C911197732F70959723119647
:101990009C93119778942CE743E050E002C02150CB
:1019A00071F1FA013197F1F79C919323C1F3F89407
:1019B00012968C911297872312968C9312971196F8
:1019C0008C911197832B11968C93119778948BE7B8
:1019D00097E00197F1F7F89411968C91119778237D
:1019E00011967C93119783E191E00197F1F78C9127
:1019F0007894E3E6F6E03197F1F7382371F080E070
:101A0000DF91CF911F910F91FF90EF90DF90CF90DA
:101A1000BF90AF909F908F9008954E01B801809134
:101A20001604909117040E94B4036EEB8091160483
:101A3000909117040E9424138E017E0189E0E80E24
:101A4000F11CA7E0B0E043E250E02FEC30E0E09181
:101A50001604F09117047081C181D281F8946981D4
:101A6000672B6983DA80672F6095D622DA82CD01F1
:101A70000197F1F7D9806D216983CA010197F1F7C8
:101A800088817894E9012197F1F7972F9823AA2468
:101A9000A394911101C0A12CB080C181D281F8948E
:101AA00099819B299983DA806B2D6095D622DA8201
:101AB000CD010197F1F7D980962F9D219983CA0115
:101AC0000197F1F798817894E9012197F1F79B212B
:101AD00019F09A2D9260A92EB080C181D281F8941C
:101AE00099819B299983DA806B2D6095D622DA82C1
:101AF000CD010197F1F7D980962F9D219983CA01D5
:101B00000197F1F798817894E9012197F1F79B21EA
:101B100019F09A2D9460A92EB080C181D281F894D9
:101B200099819B299983DA806B2D6095D622DA8280
:101B3000CD010197F1F7D980962F9D219983CA0194
:101B40000197F1F798817894E9012197F1F79B21AA
:101B500019F09A2D9860A92EB080C181D281F89495
:101B600099819B299983DA806B2D6095D622DA8240
:101B7000CD010197F1F7D980962F9D219983CA0154
:101B80000197F1F798817894E9012197F1F79B216A
:101B900019F09A2D9061A92EB080C181D281F8945C
:101BA00099819B299983DA806B2D6095D622DA8200
:101BB000CD010197F1F7D980962F9D219983CA0114
:101BC0000197F1F798817894E9012197F1F79B212A
:101BD00019F09A2D9062A92EB080C181D281F8941B
:101BE00099819B299983DA806B2D6095D622DA82C0
:101BF000CD010197F1F7D980962F9D219983CA01D4
:101C00000197F1F798817894E9012197F1F79B21E9
:101C100019F0DA2DD064AD2E60810180F281E02DC3
:101C2000F8949181962B91837281962F90957923C8
:101C30007283ED012197F1F7718197239183CA0196
:101C40000197F1F790817894F9013197F1F7962394
:101C500019F09A2D9068A92EE801A9928E01CE154F
:101C6000DF0509F0F4CEE0911604F09117043081FD
:101C70000180F281E02DF8948181632F60958623A5
:101C8000818378942CE743E050E003C0215009F4AD
:101C9000B6CECA010197F1F780818323B9F3F89496
:101CA0008281862382838181832B818378948BE751
:101CB00097E00197F1F7F89481816823618383E1CC
:101CC00091E00197F1F780817894E3E6F6E03197AF
:101CD000F1F7382309F093CEF401A081A1119BC044
:101CE000E40171817111A0C0F4014A81411195C0D4
:101CF000E401638161119AC0F4012C8121119CC01F
:101D0000E401558151119DC0F4019E8191119DC046
:101D1000E401878181119CC03885332309F46FCE9B
:101D2000EA2FEF70F0E0E25FFE4FB491A295AF7042
:101D3000EA2FF0E0E25EFE4FE491EB277E27E72FEB
:101D4000EF70F0E0E25FFE4FA49172957F70E72F95
:101D5000F0E0E25EFE4FE491EA274E27E42FEF70B9
:101D6000F0E0E25FFE4F749142954F70E42FF0E097
:101D7000E25EFE4FE491E7276E27E62FEF70F0E07A
:101D8000E25FFE4F449162956F70E62FF0E0E25EF5
:101D9000FE4FE491E4272E27E22FEF70F0E0E25FA0
:101DA000FE4F449122952F70E22FF0E0E25EFE4F4D
:101DB000E491E4275E27E52FEF70F0E0E25FFE4F4D
:101DC000249152955F70E52FF0E0E25EFE4FE491C2
:101DD000E2279E27E92FEF70F0E0E25FFE4F2491AB
:101DE00092959F70E92FF0E0E25EFE4FE491E227CA
:101DF0008E27E82FEF70F0E0E25FFE4F949182951E
:101E00008F70E82FF0E0E25EFE4FE491E92781E079
:101E10003E13F5CDF5CD71814281638124815581D9
:101E20009681878130857CCF428163812C815D8161
:101E30009E818F81388574CF5D819E818F813885A9
:101E40006FCF9681878130856BCF8F81388568CF42
:101E5000308566CFDF92EF92FF920F931F93CF935F
:101E6000DF93EC017B0100E010E0DD24D394E881F6
:101E7000F9810190F081E02DD7016D917D01B0E0F5
:101E8000ED3DFB0709F06AC0D88E9B8D8C8D9817AD
:101E900009F452C02B8D30E02F5F3F4F2F73332753
:101EA000922F03C00FB607FE21C08C8D9817D1F377
:101EB0008B8DFE01E80FF11DE35AFF4F60839FB742
:101EC000F8942B8FEA89FB898081806280839FBF91
:101ED0000F5F1F4F0230110551F6C801DF91CF91FE
:101EE0001F910F91FF90EF90DF900895E889F98995
:101EF000808185FFDACF8C8DFE01E80FF11DE35A5A
:101F0000FF4F80814C8D50E04F5F5F4F4F735527DF
:101F10004C8FEE89FF898083E889F98980818370FD
:101F2000806480834B8D8C8D4813BFCFEA89FB89F9
:101F300080818F7D8083B9CFE889F989808185FF91
:101F4000A9CF9FB7F894EE89FF896083E889F98962
:101F500080818370806480839FBFBACFCE01099552
:101F6000892B09F0B5CFB9CFDF92EF92FF920F9393
:101F70001F93CF93DF93EC017B0100E010E0DD24A1
:101F8000D394E881F9810190F081E02DD7016D9122
:101F90007D01B0E0ED3DFB0709F06AC0D88E9B8D56
:101FA0008C8D981709F452C02B8D30E02F5F3F4F76
:101FB0002F733327922F03C00FB607FE21C08C8DDD
:101FC0009817D1F38B8DFE01E80FF11DE35AFF4FF7
:101FD00060839FB7F8942B8FEA89FB8980818062A8
:101FE00080839FBF0F5F1F4F0430110551F6C8015A
:101FF000DF91CF911F910F91FF90EF90DF900895A7
:10200000E889F989808185FFDACF8C8DFE01E80FA0
:10201000F11DE35AFF4F80814C8D50E04F5F5F4FC1
:102020004F7355274C8FEE89FF898083E889F989A2
:1020300080818370806480834B8D8C8D4813BFCFEB
:10204000EA89FB8980818F7D8083B9CFE889F9890E
:10205000808185FFA9CF9FB7F894EE89FF896083BF
:10206000E889F98980818370806480839FBFBACFBB
:10207000CE010995892B09F0B5CFB9CFCF93DF9366
:10208000DC01ED91FC9111970190F081E02DEB01C5
:102090006881D0E0ED3DFD0709F08AC081E05896E7
:1020A0008C9358975B969C915B975C968C915C9710
:1020B000981709F465C05B962C915B9730E02F5F11
:1020C0003F4F2F733327922F03C00FB607FE20C058
:1020D0005C968C915C979817C1F35B968C915B979B
:1020E000FD01E80FF11DE35AFF4F60839FB7F8949D
:1020F0005B962C935B975296ED91FC915397808160
:10210000806280839FBF81E090E0DF91CF9108954E
:102110005096ED91FC915197808185FFD9CF5C96C7
:102120008C915C97FD01E80FF11DE35AFF4F808110
:102130005C964C915C9750E04F5F5F4F4F73552713
:102140005C964C935C975696ED91FC9157978083E3
:102150005096ED91FC9151978081837080648083CB
:102160005B964C915B975C968C915C974813B0CFD3
:102170005296ED91FC91539780818F7D8083A8CFFB
:102180005096ED91FC915197808185FF94CF9FB738
:10219000F8945696ED91FC91579760835096ED9187
:1021A000FC91519780818370806480839FBFABCF07
:1021B0000995892B09F0A7CF80E090E0A6CF90E0A9
:1021C000FC01E650FF4F2491FC01E45BFE4F34918B
:1021D000FC01E85CFE4F84918823A1F0211118C016
:1021E000E82FF0E0EE0FFF1FE051FF4FA591B491F3
:1021F0008FB7F894611107C09C91E32FE095E92314
:10220000EC938FBF0895EC91E32BEC938FBFFACF43
:10221000233029F160F02730E1F02830A1F024309C
:10222000F9F6909180009F7D90938000D9CF213066
:1022300031F02230A9F694B59F7D94BDD1CF94B5ED
:102240009F7794BDCDCF9091B0009F7D9093B000CB
:10225000C7CF9091B0009F779093B000C1CF90917D
:1022600080009F7790938000BBCFCF93DF9390E067
:10227000FC01E45BFE4F2491FC01E85CFE4F84917D
:102280008823B9F090E0880F991FFC01EA51FF4FB5
:10229000A591B491FC01E051FF4FC591D491662303
:1022A00059F06230A9F08FB7F894EC91E22BEC93DF
:1022B0008FBFDF91CF9108959FB7F8948C91E22F53
:1022C000E0958E238C932881E223E8839FBFF1CF92
:1022D0009FB7F8948C91322F309583238C93E881AB
:1022E000E22BE8839FBFE5CF0F931F938B019C01E7
:1022F0009FB7F8944091990250919A0260919B0285
:1023000070919C0286B5A89B06C08F3F21F04F5F5D
:102310005F4F6F4F7F4F9FBF762F652F542F4427FE
:10232000480F511D611D711D440F551F661F771FFA
:10233000440F551F661F771F011511052105310533
:10234000C9F1FFB7F8948091990290919A02A091F7
:102350009B02B0919C02E6B5A89B05C0EF3F19F027
:102360000196A11DB11DFFBFBA2FA92F982F882755
:102370008E0F911DA11DB11D880F991FAA1FBB1F94
:10238000880F991FAA1FBB1F841B950BA60BB70BA9
:10239000883E9340A105B105A0F201501109210921
:1023A000310948515C4F6F4F7F4F011511052105D1
:1023B000310539F61F910F9108951F920F920FB6B4
:1023C0000F9211242F933F938F939F93AF93BF93BB
:1023D00080919D0290919E02A0919F02B091A002D7
:1023E0003091980223E0230F2D3768F126E8230F60
:1023F0000296A11DB11D2093980280939D02909397
:102400009E02A0939F02B093A002809199029091A6
:102410009A02A0919B02B0919C020196A11DB11D50
:102420008093990290939A02A0939B02B0939C028E
:10243000BF91AF919F918F913F912F910F900FBEC0
:102440000F901F9018950196A11DB11DD4CFCF926A
:10245000DF92EF92FF920F931F93CF93DF93E09160
:10246000100480911204882329F080910D048823A0
:1024700009F4A1C0E950E33008F07FC0F0E0EE0FAE
:10248000FF1FE759FE4FC080D1800D2C000CEE08D5
:10249000FF0880910E0481117BC09FB7F894409192
:1024A000990250919A0260919B0270919C0286B5AC
:1024B000A89B06C08F3F21F04F5F5F4F6F4F7F4F4C
:1024C0009FBF762F652F542F4427480F511D611D44
:1024D000711D440F551F661F771F440F551F661F40
:1024E000771FC114D104E104F104D1F13FB7F8948E
:1024F0008091990290919A02A0919B02B0919C02C6
:1025000026B5A89B05C02F3F19F00196A11DB11D4E
:102510003FBFBA2FA92F982F8827820F911DA11D89
:10252000B11D880F991FAA1FBB1F880F991FAA1FD3
:10253000BB1F841B950BA60BB70B883E9340A105D0
:10254000B105A0F221E0C21AD108E108F108485112
:102550005C4F6F4F7F4FC114D104E104F10431F699
:1025600080910E0481111AC0DF91CF911F910F91BC
:10257000FF90EF90DF90CF900895BEEECB2EB2E0AB
:10258000DB2EE12CF12C80910E04882309F485CFF9
:1025900060E080910F040E94DF107FCF61E08091A6
:1025A0000F04DF91CF911F910F91FF90EF90DF907B
:1025B000CF900C94DF108FB7F894C0909D02D0900C
:1025C0009E02E0909F02F090A0028FBFA7E0B0E0D3
:1025D00063E270E04FEC50E0E0911604F0911704D4
:1025E00090810180F281E02DF8948181892B818393
:1025F0002281892F809528232283ED012197F1F7ED
:10260000218182238183EB012197F1F780817894E6
:10261000FA013197F1F7892309F0A6CF8FB7F89423
:1026200000919D0210919E0220919F023091A00284
:102630008FBF0C191D092E093F090E3E12402105BE
:10264000310508F4C9CF90CF8F929F92AF92BF927D
:10265000CF92DF92EF92FF920F931F93CF93DF936E
:10266000DC0148E050E021E00FEF10E08FE0882E21
:10267000912C93E2C92ED12C37EDE32EF12C1CC006
:102680008C911196ED91FC911297F8949281382FCC
:102690003095932392839181982B9183E601219722
:1026A000F1F79281892B82837894C7010197F1F722
:1026B000220F41505109F9F0862F822309F79C918E
:1026C0001196ED91FC911297F8948281392F3095F3
:1026D000832382838181892B8183E8012197F1F70C
:1026E0008281982B92837894C4010197F1F7220F8D
:1026F0004150510909F7F8941196ED91FC91129708
:1027000091818C918095892381831196ED91FC9123
:10271000129792818C918095892382837894DF919E
:10272000CF911F910F91FF90EF90DF90CF90BF90CE
:10273000AF909F908F900895DC019C91E92FEF70EE
:10274000F0E0E25FFE4F849192959F70E92FF0E0F8
:10275000E25EFE4FE491E82711969C9111978E2F2F
:102760008927E82FEF70F0E0E25FFE4F94918295A9
:102770008F70E82FF0E0E25EFE4FE4919E27129604
:102780008C9112979827E92FEF70F0E0E25FFE4FEF
:10279000849192959F70E92FF0E0E25EFE4FE49104
:1027A0008E2713969C9113978927E82FEF70F0E0FE
:1027B000E25FFE4F249182958F70E82FF0E0E25E99
:1027C000FE4FE4912E2714968C9114972827E22F20
:1027D000EF70F0E0E25FFE4F949122952F70E22FB0
:1027E000F0E0E25EFE4FE4919E2715962C9115973E
:1027F0009227E92FEF70F0E0E25FFE4F849192950F
:102800009F70E92FF0E0E25EFE4FE491E827169614
:102810009C919E27E92FEF70F0E0E25FFE4F8491DC
:10282000E92FE295EF70F0E0E25EFE4FE4918E2733
:102830000895CF93DF93CDB7DEB768970FB6F894BE
:10284000DEBF0FBECDBF789484B5826084BD84B5F1
:10285000816084BD85B5826085BD85B5816085BD9B
:1028600080916E00816080936E0010928100809153
:1028700081008260809381008091810081608093DB
:102880008100809180008160809380008091B10000
:1028900084608093B1008091B00081608093B0002B
:1028A00080917A00846080937A0080917A008260BF
:1028B00080937A0080917A00816080937A00809181
:1028C0007A00806880937A001092C10061E083E012
:1028D0000E94351161E08BE00E94351161E08CE0CF
:1028E0000E94351161E08DE00E94351160E08EE0BC
:1028F0000E94351160E08FE00E94351160E081E1B7
:102900000E94351160E083E00E94DF1060E08BE000
:102910000E94DF1061E08CE00E94DF1060E08DE03B
:102920000E94DF10E091B102F091B20282E0808358
:10293000E091AD02F091AE021082E091AF02F09111
:10294000B00283E080831092B902E091B502F09169
:10295000B60286E08083E091B302F091B4028081F8
:1029600080618083E091B302F091B402808188603D
:102970008083E091B302F091B4028081806880830B
:10298000E091B302F091B40280818F7D808344E4B2
:1029900053E063E871E08DE493E00E94EE0AFC01ED
:1029A000892B61F0948190789860948382E090E024
:1029B000A0E0B0E080839183A283B383E09116040A
:1029C000F09117041386158614861286339687E0D5
:1029D000DF011D928A95E9F71092140410921504F4
:1029E00011E077C02A85E22FEF70F0E0E25FFE4F42
:1029F0009491E22FE295EF70F0E0E25EFE4FE491F9
:102A00009E278B859827E92FEF70F0E0E25FFE4F5D
:102A1000849192959F70E92FF0E0E25EFE4FE49181
:102A2000E8279C858E2F8927E82FEF70F0E0E25F82
:102A3000FE4F949182958F70E82FF0E0E25EFE4F9A
:102A4000E491E9279D859E27E92FEF70F0E0E25F92
:102A5000FE4F8491E92FE295EF70F0E0E25EFE4FC9
:102A6000E491E8279E858E2F8927E82FEF70F0E00C
:102A7000E25FFE4F949182958F70E82FF0E0E25E66
:102A8000FE4FE491E9278F859E2F9827E92FEF705D
:102A9000F0E0E25FFE4F849192959F70E92FF0E0A5
:102AA000E25EFE4FE4918E2798898927E82FEF7028
:102AB000F0E0E25FFE4F949182958F70E82FF0E096
:102AC000E25EFE4FE491E92789898E1711F40C9498
:102AD000F423BE01665F7F4F809116049091170426
:102AE0000E94680B81117ECF80911404282F30E062
:102AF00030935202209351029CE09093100488235B
:102B000009F4F1C0912CFE0172962F01CC24CA94D5
:102B1000D12CFFE0EF2EF12CA3E26A2E712CB7ED41
:102B2000AB2EB12C392CE0911604F09117041386CA
:102B300015861486128611861086178216821582D3
:102B40001482138210E0BE01665F7F4F80911604ED
:102B5000909117040E94680B81110C94B2218A8510
:102B6000803109F4BAC010911004BE016F5F7F4F2D
:102B7000CE010A96193010F40C94BC210E94AB0CC3
:102B8000882309F4AAC01D3008F01CE01A50133045
:102B900010F00C94C221E12FF0E0E05EFE4F808146
:102BA0009D81981709F499C08D83809116049091A6
:102BB00017040E948504009116041091170465E51E
:102BC000C8010E9424139E01265F3F4F4901D40192
:102BD0006D914D0128E030E091E01DC0D8018C914D
:102BE0001196ED91FC911297F8944281582F5095CF
:102BF000452342834181482B4183D3011197F1F74B
:102C00004281842B82837894F5013197F1F7990FF3
:102C100021503109F9F0862F892301F7F8018081CD
:102C20000180F281E02DF8944281582F5095452380
:102C300042834181482B4183D6011197F1F74281AC
:102C4000842B82837894F7013197F1F7990F215003
:102C5000310909F7F894D8011196ED91FC9112977A
:102C600091818C918095892381831196ED91FC91BE
:102C7000129792818C918095892382837894841411
:102C8000950409F0A4CF6EE4809116049091170486
:102C90000E9424136B8180911604909117040E9466
:102CA00024136C8180911604909117040E942413C0
:102CB0008A85803139F06D818091160490911704D6
:102CC0000E9424138091130481110C94FB248091A1
:102CD0001604909117040E94850433948091140483
:102CE000381608F420CF10921104809116049091A8
:102CF00017040E9485046CEC8091160490911704CF
:102D00000E942413C0900D04A0911604B0911704E2
:102D100028E030E0DD24D39413E2E12EF12C07ED1E
:102D200010E06FEF70E04FE050E04D019D2D1CC0B2
:102D3000F40180810180F281E02DF894D280B82ED8
:102D4000B094DB20D282D180D82AD182D7011197CA
:102D5000F1F7D2808D2982837894F8013197F1F7C9
:102D6000990F2150310901F1892F847409F7D40199
:102D70008C911196ED91FC911297F894D280B82E17
:102D8000B094DB20D282D180D82AD182DB01119786
:102D9000F1F7D2808D2982837894FA013197F1F787
:102DA000990F2150310901F7D401C11014C0F894D2
:102DB0001196ED91FC91129781819C9190958923B8
:102DC00081831196ED91FC91129782819C9190954F
:102DD0008923828378948091110481110E942712A3
:102DE00080E480937C0080917A00806480937A00F4
:102DF00080917A0086FDFCCF8091780080917900E7
:102E000010925C0210925B0240E440937C0080913F
:102E10007A00806480937A0080917A0086FDFCCFEE
:102E2000809178002091790090E0922B20915302BC
:102E300030915402820F931F909354028093530257
:102E400020915B0230915C022F5F3F4F30935C0218
:102E500020935B0225303105C4F265E070E00E94EA
:102E6000292B709354026093530262E082E00E9427
:102E70003511E3E9F2E0F0930B01E0930A01809150
:102E80006900836080936900E89A9E012F5E3F4F3E
:102E90003B8B2A8B22242A94312C7FE0A72EB12C45
:102EA00003E210E0809196029091970297FF02C092
:102EB0000C940C238536910514F40C940A2284E6B4
:102EC00090E0909397028093960220919402309123
:102ED00095022436310511F00C942A238FB7F8940B
:102EE00040919D0250919E0260919F027091A002BC
:102EF0008FBF8091240490912504A0912604B09165
:102F000027046A017B01C81AD90AEA0AFB0A8091E0
:102F1000280490912904092E000CAA0BBB0BC8169B
:102F2000D906EA06FB0648F1409324045093250491
:102F3000609326047093270480915002882311F433
:102F40000C9402238091820290918302009711F0E9
:102F50000C94552484E690E090938302809382023F
:102F600020914E0230914F022817390711F010922C
:102F7000500290934F0280934E028FB7F894409185
:102F80009D0250919E0260919F027091A0028FBF9E
:102F900080912A0490912B04A0912C04B0912D04CF
:102FA0006A017B01C81AD90AEA0AFB0A80912E0439
:102FB00090912F04092E000CAA0BBB0BC816D90642
:102FC000EA06FB0608F46EC040932A0450932B04D3
:102FD00060932C0470932D048091500281110C9405
:102FE000D52220915D0230915E02E0918202F09143
:102FF00083022E173F0714F00C943D242F5F3F4FA0
:1030000030935E0220935D02609118017091190166
:1030100080E797E10E94292B70932F0460932E0480
:10302000EA35F10514F40C94E2222A35310524F432
:103030003093970220939602809155029091560208
:1030400020915302309154028217930714F00C948C
:103050004C2320919602309197022F5F3F4F30937F
:1030600097022093960221E020936D02873C9140C5
:1030700014F40C9433238091960290919702029756
:10308000909397028093960281E080936C028091E6
:10309000590290915A028E34934014F00C943E23BE
:1030A00010926B028FB7F89440919D0250919E024E
:1030B00060919F027091A0028FBF80910704909150
:1030C0000804A0910904B0910A046A017B01C81A9E
:1030D000D90AEA0AFB0A80910B0490910C04092E8C
:1030E000000CAA0BBB0BC816D906EA06FB0608F4AF
:1030F00013C140930704509308046093090470932C
:103100000A0410925C0210925B026090510270906F
:10311000520216141704ECF53AE7832E32E0932E90
:10312000C12CD12CEC2CE0911604F09117041386DD
:1031300015861486128611861086178216821582CD
:1031400014821382F12CBE01665F7F4F80911604BA
:10315000909117040E94680B882339F0EF1411F442
:103160000C948D28F394EF1470F760E070E08EEF0C
:1031700092ECD4016D937D938D939D934D01BFEFA0
:10318000CB1ADB0AD0925C02C0925B02C614D70451
:1031900049F680911604909117040E948504A0912D
:1031A0001604B091170428E030E051E01EC0FC90F6
:1031B0001196ED91FC911297F89492814F2D4095C4
:1031C0009423928391819F299183C8010197F1F7FC
:1031D00092818F2D892B8283789487ED90E00197DF
:1031E000F1F7550F2150310901F1852F8C7CF9F64B
:1031F000FC901196ED91FC911297F89492814F2DCD
:1032000040959423928391819F299183C1010197D5
:10321000F1F792818F2D892B82837894C5010197D4
:10322000F1F7550F2150310901F7F8941196ED91FE
:10323000FC91129791818C918095892381831196BD
:10324000ED91FC91129792818C91809589238283D4
:10325000789460910D04A0911604B091170428E0B1
:1032600030E051E01EC07C911196ED91FC911297D7
:10327000F8949281472F4095942392839181972BC4
:103280009183C8010197F1F79281872F892B82835F
:10329000789487ED90E00197F1F7550F21503109AF
:1032A00001F1852F8474F9F67C911196ED91FC91D2
:1032B0001297F8949281472F40959423928391819D
:1032C000972B9183C1010197F1F79281872F892B69
:1032D00082837894C5010197F1F7550F2150310988
:1032E00001F7611114C0F8941196ED91FC911297B9
:1032F00091818C918095892381831196ED91FC9128
:10330000129792818C918095892382837894809101
:10331000110481110C9408238FB7F89440919D02F9
:1033200050919E0260919F027091A0028FBF809188
:10333000010490910204A0910304B09104046A0175
:103340007B01C81AD90AEA0AFB0A80910504909108
:103350000604092E000CAA0BBB0BC816D906EA06F8
:10336000FB0608F4DFC0409301045093020460930D
:1033700003047093040490917A0080917A00887F0E
:10338000846080937A0080E480937C0080917A004E
:10339000806480937A0080917A0086FDFCCF6091F2
:1033A00078008091790090937A0070E0782B072E56
:1033B000000C880B990B0E94B42C2B013C01C0908F
:1033C000D903D090DA03C114D10411F40C941D2652
:1033D0008091D4037601E4E08E9FE00CF11C11246F
:1033E000D7012D913D914D915C916091D5037091E4
:1033F000D6038091D7039091D8030E94982B6093B5
:10340000D5037093D6038093D7039093D803F70125
:103410004082518262827382F090D403F60124E0EC
:10342000F29EE00DF11D11242091D5033091D603B9
:103430004091D7035091D80360817181828193813B
:103440000E94992B6093D5037093D6038093D70382
:103450009093D803F394F092D403E090D203FE1437
:1034600011F40C946724F090D303F1100C947C2396
:103470004092DF035092E0036092E1037092E20316
:103480004092DB035092DC036092DD037092DE0316
:10349000FE1418F4F394F092D303809157029091A4
:1034A000580201969093580280935702019611F4A6
:1034B0000C94B923FF2011F40C946B246F2D70E051
:1034C00080E090E00E94B42C9B01AC016091D50398
:1034D0007091D6038091D7039091D8030E940A2C53
:1034E0000E947C2CAB0150935602409355022091D0
:1034F000530230915402BA01621B730B072E000C69
:10350000880B990B0E94B42C20E030E043EC5DE383
:103510000E94692D6093720270937302809374020B
:10352000909375028FB7F89440919D0250919E023E
:1035300060919F027091A0028FBF8091FB039091D8
:10354000FC03A091FD03B091FE036A017B01C81A40
:10355000D90AEA0AFB0A8091FF0390910004092E20
:10356000000CAA0BBB0BC816D906EA06FB0608F42A
:103570005BC04093FB035093FC036093FD03709387
:10358000FE0310925C0210925B0243E490917A0079
:1035900080917A00887F846080937A0040937C00D9
:1035A00080917A00806480937A0080917A0086FD11
:1035B000FCCF809178002091790090937A0090E080
:1035C000922B2091590230915A02820F931F9093AF
:1035D0005A028093590220915B0230915C022F5F66
:1035E0003F4F30935C0220935B022530310574F22B
:1035F00065E070E00E94292B70935A026093590293
:10360000072E000C880B990B0E94B42C23E333E3A4
:1036100043E35DE30E94692D609376027093770225
:1036200080937802909379028FB7F89440919D022D
:1036300050919E0260919F027091A0028FBF809175
:10364000F5039091F603A091F703B091F8036A0196
:103650007B01C81AD90AEA0AFB0A8091F903909102
:10366000FA03092E000CAA0BBB0BC816D906EA06F2
:10367000FB06A0F14093F5035093F6036093F70324
:103680007093F8032091720230917302409174029A
:103690005091750260917602709177028091780264
:1036A000909179020E94692D6B017C0160919602D4
:1036B00070919702072E000C880B990B0E94B42C76
:1036C0009B01AC01C701B6010E94692D60936302A2
:1036D0007093640280936502909366028FB7F894AA
:1036E00040919D0250919E0260919F027091A002B4
:1036F0008FBF8091EF039091F003A091F103B091FF
:10370000F2036A017B01C81AD90AEA0AFB0A80910E
:10371000F3039091F403092E000CAA0BBB0BC816FF
:10372000D906EA06FB0608F465C04093EF03509300
:10373000F0036093F1037093F203E0900801F090BE
:10374000090140906302509064026090650270909D
:10375000660220915F0230916002409161025091B7
:103760006202C301B2010E94982B60936E027093B3
:103770006F02809370029093710220E030E0A90103
:103780000E94642D181614F00C94272480910401D3
:10379000909105018E0D9F1D909309018093080162
:1037A00020918202309183022A3531050CF478C7CA
:1037B00020915D0230915E022A35310514F00C949F
:1037C00062243093090120930801C90197FF06C0C4
:1037D000109209011092080180E090E040925F028F
:1037E00050926002609261027092620290930701AF
:1037F000809306018FB7F89440919D0250919E02EC
:1038000060919F027091A0028FBF8091E903909117
:10381000EA03A091EB03B091EC036A017B01C81AA3
:10382000D90AEA0AFB0A8091ED039091EE03092E72
:10383000000CAA0BBB0BC816D906EA06FB06A8F1BA
:103840004093E9035093EA036093EB037093EC0316
:10385000E8982CED30E030930B0120930A01609141
:1038600014017091150180911601909117010E9429
:10387000B42C9B01AC0160EC71EE84E69CE40E94E8
:103880000A2C60939002709391028093920290931D
:10389000930243E952E050930B0140930A01809157
:1038A0006900836080936900E89A8FB7F89440912B
:1038B0009D0250919E0260919F027091A0028FBF65
:1038C0008091E3039091E403A091E503B091E603B6
:1038D0006A017B01C81AD90AEA0AFB0A8091E70348
:1038E0009091E803092E000CAA0BBB0BC816D90651
:1038F000EA06FB0608F49CC04093E3035093E403FC
:103900006093E5037093E6033FB7F89480919902C2
:1039100090919A02A0919B02B0919C0226B5A89B1F
:1039200005C02F3F19F00196A11DB11D3FBFCC244A
:10393000D82EE92EFA2EC20ED11CE11CF11CCC0CA3
:10394000DD1CEE1CFF1CCC0CDD1CEE1CFF1C809152
:10395000840290918502A0918602B0918702C81AD4
:10396000D90AEA0AFB0AC0921001D0921101E09232
:103970001201F092130140909002509091026090D9
:1039800092027090930220916702309168024091F8
:10399000690250916A02C301B2010E94982B6093A0
:1039A00088027093890280938A0290938B02C114DB
:1039B000D104E104F10409F0B7C610928C02109210
:1039C0008D0210928E0210928F02409267025092E6
:1039D00068026092690270926A023FB7F89480911F
:1039E000990290919A02A0919B02B0919C0226B5F7
:1039F000A89B05C02F3F19F00196A11DB11D3FBF27
:103A0000BA2FA92F982F8827820F911DA11DB11DB4
:103A1000880F991FAA1FBB1F880F991FAA1FBB1FC2
:103A20008093840290938502A0938602B0938702CC
:103A30008FB7F89440919D0250919E0260919F0231
:103A40007091A0028FBF80913E0390913F03A0919F
:103A50004003B09141036A017B01C81AD90AEA0AFE
:103A6000FB0A8091420390914303092E000CAA0B9C
:103A7000BB0BC816D906EA06FB0608F45AC44093E5
:103A80003E0350933F036093400370934103409083
:103A90009002509091026090920270909302D090A8
:103AA00051038D2D8F7771F48D2D80788062D82E03
:103AB0008093510310924E0310924D0310925003C5
:103AC00010924F03D5FE33C0E0904D03F0904E03AB
:103AD00015C06115710531F08DE891E00E94FC2E52
:103AE000892BD1F0D70115968C91882311F40C9471
:103AF000D425E8E08E02E00CF11C1124E114F1045D
:103B000011F40C94D425D70116966D917C911797DA
:103B1000B1E06D387B07E9F6F701848180788C602D
:103B200084834082518262827382D090510340909C
:103B300014015090150160901601709017018D2DA1
:103B40008F7771F48D2D80788062D82E8093510309
:103B500010924E0310924D031092500310924F0397
:103B6000D5FE32C0E0904D03F0904E0314C06115B5
:103B7000710531F08BE891E00E94FC2E892BC9F091
:103B8000F7018581882311F40C943326E8E08E0236
:103B9000E00CF11C1124E114F10411F40C9433260F
:103BA000D70116966D917C911797B1E06B387B0722
:103BB000F1F6F7018481807877FC91C68860848370
:103BC0004082518262827382C0904402D09045024A
:103BD000E0904602F090470244E453E061E971E06E
:103BE0008DE493E00E94EE0AFC01892B51F0848160
:103BF0008078F7FC9DC688608483C082D182E2828F
:103C0000F382C0908C02D0908D02E0908E02F090F2
:103C10008F0244E453E06DE971E08DE493E00E948B
:103C2000EE0AFC01892B41F0948190789C6094838A
:103C3000C082D182E282F382C0908802D090890251
:103C4000E0908A02F0908B0244E453E064EA71E071
:103C50008DE493E00E94EE0AFC01892B41F09481EF
:103C600090789C609483C082D182E282F382C0907B
:103C70001001D0901101E0901201F090130144E482
:103C800053E067EA71E08DE493E00E94EE0AFC01E4
:103C9000892B51F084818078F7FC59C68860848331
:103CA000C082D182E282F3824090840250908502E9
:103CB000609086027090870280915103982F9F77C1
:103CC00061F4807880628093510310924E031092C9
:103CD0004D031092500310924F0385FF31C0E090C6
:103CE0004D03F0904E0314C06115710531F08FEA59
:103CF00091E00E94FC2E892BC1F0D70115968C9182
:103D0000882309F476C7E8E08E02E00CF11C112448
:103D1000E114F10409F46DC7D70116966D917C91F9
:103D20001797B1E06F3A7B07F9F6F7018481807845
:103D300077FC1CC6886084834082518262827382D1
:103D4000E0908202F090830244E453E06EEB71E075
:103D50008DE493E00E94EE0AFC01892B71F08481CE
:103D60008078F7FC12C688608483C701FF0CAA0B19
:103D7000BB0B80839183A283B383C0909602D090C3
:103D8000970290905103892D8F7771F4892D807857
:103D90008062982E8093510310924E0310924D032F
:103DA0001092500310924F0395FE36C0E0904D03E1
:103DB000F0904E0313C06115710531F08EEC91E067
:103DC0000E94FC2E892BB9F0F7018581882309F424
:103DD00038C7E8E08E02E00CF11C1124E114F10474
:103DE00009F42FC7D70116966D917C911797B1E012
:103DF0006E3C7B0701F7F70184818078D7FCD7C53B
:103E0000886084830D2C000CEE08FF08C082D182EC
:103E1000E282F3829090510340910E0150910F0184
:103E20008091180190911901489F9001499F300D90
:103E3000589F300D1124032E000C440B550B60E0ED
:103E400074E284EF90E00E943D2B29013A01892D14
:103E50008F7771F4892D80788062982E809351033A
:103E600010924E0310924D031092500310924F0384
:103E700095FE31C0E0904D03F0904E0314C06115E3
:103E8000710531F08AED91E00E94FC2E892BC1F082
:103E9000D70115968C91882309F462C6E8E08E025A
:103EA000E00CF11C1124E114F10409F459C6D70106
:103EB00016966D917C911797B1E06A3D7B07F9F6F4
:103EC000F7018481807877FC87C58860848340828D
:103ED000518262827382C0907A02D0907B02E0901D
:103EE0007C02F0907D0244E453E067EE71E08DE4E3
:103EF00093E00E94EE0AFC01892B41F094819078B6
:103F00009C609483C082D182E282F38240907602E8
:103F1000509077026090780270907902D0905103AF
:103F20008D2D8F7771F48D2D80788062D82E8093BF
:103F3000510310924E0310924D03109250031092B1
:103F40004F03D5FE30C0E0904D03F0904E0313C0F8
:103F50006115710531F08DEE91E00E94FC2E892BE8
:103F6000B9F0F7018581882309F455C6E8E08E028F
:103F7000E00CF11C1124E114F10409F44CC6D70142
:103F800016966D917C911797B1E06D3E7B0701F716
:103F9000F701848180788C608483408251826282C0
:103FA0007382D090510340907202509073026090DF
:103FB0007402709075028D2D8F7771F48D2D80783D
:103FC0008062D82E8093510310924E0310924D03BD
:103FD0001092500310924F03D5FE31C0E0904D0374
:103FE000F0904E0314C06115710531F08BEF91E034
:103FF0000E94FC2E892BC1F0D70115968C91882345
:1040000009F4C0C5E8E08E02E00CF11C1124E114B3
:10401000F10409F4B7C5D70116966D917C911797F5
:10402000B1E06B3F7B07F9F6F701848180788C6003
:1040300084834082518262827382D0905103409087
:104040006E0250906F0260907002709071028D2D20
:104050008F7771F48D2D80788062D82E80935103F4
:1040600010924E0310924D031092500310924F0382
:10407000D5FE2EC0E0904D03F0904E0313C06115A5
:10408000710531F086E092E00E94FC2E892BB9F098
:10409000F7018581882309F49AC5E8E08E02E00CD7
:1040A000F11C1124E114F10409F491C5D70116960D
:1040B0006D917C911797B2E066307B0701F7F701AD
:1040C000848180788C608483408251826282738292
:1040D00044E453E062E172E08DE493E00E94EE0A72
:1040E000FC01892B41F0948190789C60948310822C
:1040F000118212821382C0906D02D09051038D2DD7
:104100008F7771F48D2D80788062D82E8093510343
:1041100010924E0310924D031092500310924F03D1
:10412000D5FE34C0E0904D03F0904E0314C06115ED
:10413000710531F080E292E00E94FC2E892BC1F0E3
:10414000D70115968C91882309F4F8C4E8E08E0213
:10415000E00CF11C1124E114F10409F4EFC4D701BF
:1041600016966D917C911797B2E060327B07F9F655
:10417000F7018481807886608483D12CE12CF12C36
:10418000C082D182E282F382D0905103C0906C024F
:104190008D2D8F7771F48D2D80788062D82E80934D
:1041A000510310924E0310924D031092500310923F
:1041B0004F03D5FE33C0E0904D03F0904E0313C083
:1041C0006115710531F08AE292E00E94FC2E892B84
:1041D000B9F0F7018581882309F49EC4E8E08E02D6
:1041E000E00CF11C1124E114F10409F495C4D70189
:1041F00016966D917C911797B2E06A327B0701F7B2
:10420000F7018481807886608483D12CE12CF12CA5
:10421000C082D182E282F382D0905103C0906B02BF
:104220008D2D8F7771F48D2D80788062D82E8093BC
:10423000510310924E0310924D03109250031092AE
:104240004F03D5FE32C0E0904D03F0904E0314C0F2
:104250006115710531F084E392E00E94FC2E892BF8
:10426000C1F0D70115968C91882309F443C4E8E086
:104270008E02E00CF11C1124E114F10409F43AC49B
:10428000D70116966D917C911797B2E064337B0746
:10429000F9F6F7018481807886608483D12CE12C43
:1042A000F12CC082D182E282F38241EA52E05A8349
:1042B00049831C821B82BE016F5F7F4F8DE493E0B8
:1042C0000E94D104AEE3B2E051E04D915093B902A7
:1042D0009091BC028091BD02E091B102F091B202D6
:1042E000981709F483C02091BC0230E02F5F3F4F44
:1042F0002F733327922F03C00FB607FE46C080915D
:10430000BD029817C9F3E091BC02F0E0E250FD4F06
:1043100040839FB7F8942093BC02E091B302F091E0
:10432000B4028081806280839FBF62E0A234B607BE
:1043300061F680E090E0892B11F40C945217809183
:10434000BA022091BB0290E0805C9F4F821B9109D2
:104350008F739927892B11F40C9452170E94000037
:104360000C945017131509F497C71F5F311610F4FA
:104370000C94AF150C94A3150E94AB0C882311F478
:104380000C946D168FE10C94D015808185FFB7CF0A
:10439000E091BD02F0E0E250FD4F80816091BD02EE
:1043A00070E06F5F7F4F6F7377276093BD02E0917E
:1043B000B702F091B8028083E091B102F091B202AD
:1043C00080818370806480836091BC028091BD0293
:1043D000681307C0E091B302F091B40280818F7D31
:1043E0008083E091B102F091B20289CF808185FF94
:1043F0007ACF9FB7F894E091B702F091B80240836A
:10440000E091B102F091B202808183708064808378
:104410009FBF8BCF20919402309195028217930712
:1044200011F40C946E17009709F402C183339105BF
:104430000CF02BC7823091050CF412C18430910529
:104440000CF431C6883091050CF427C68E309105E6
:104450000CF426C68E30910509F42BC60F9709F48B
:104460002BC686E090E090934B0280934A02233360
:1044700031050CF4E3C044E650E0421B530B1092AC
:104480004D0210924C02423051050CF4E0C0443011
:1044900051050CF40BC6483051050CF4F2C54E30F2
:1044A00051050CF4F1C54E30510509F4F0C54F30FB
:1044B000510509F4EFC546E050E050934D0240939A
:1044C0004C025093490240934802232B59F483EA4B
:1044D0008093B00080914A0290914B024091480233
:1044E0005091490248175907E9F1FC01EE0FFF1FEF
:1044F000880F991F880F991F880F991FDF01A80F38
:10450000B91FAD5DBE4F12962D913C91139720348B
:10451000310509F4E7C22032310509F4B7C328E0B8
:1045200030E030930F0120930E012AE02093B10078
:104530008E0F9F1FFC01ED5DFE4F8481958180935E
:1045400018019093190146815781608571854093C8
:1045500000015093010160930201709303018150A7
:104560008093B3006091960270919702072E000C21
:10457000880B990B0E94B42C20910001309101010D
:1045800040910201509103010E94692D0E947C2CF0
:1045900061506093B400809196029091970290933D
:1045A0009502809394020C946E17E0918202F09130
:1045B000830220915D0230915E02EA35F10514F02C
:1045C0000C9415182A35310514F40C9418182C3550
:1045D000310514F00C941C184091960250919702EA
:1045E0008AE590E0841B950B97FD6FC5029714F444
:1045F0000C941C182F5F3F4F30935E0220935D0296
:104600000C941C1880918202909183020C94B01734
:104610000E9427120C948C19109297021092960205
:104620008091940290919502892B11F40C946E174D
:104630008091B0008F758093B000ADCF10924D0285
:1046400010924C02A901423051050CF020CF40E0FD
:1046500050E037CF80E090E0823091050CF0EECE54
:1046600080E090E000CF10926C028091590290910E
:104670005A028E34934014F40C9450188091960290
:10468000909197020296909397028093960281E010
:1046900080936B020C94521810926D020C94361891
:1046A00020915D0230915E022A353105D4F02091CF
:1046B0009602309197024AE550E0421B530B57FD9A
:1046C000A6C4423051056CF02A3531050CF403C202
:1046D0002A35310531F0215031093093970220936A
:1046E0009602853691050CF471C884E690E09093AB
:1046F00009018093080172C82091DB033091DC032B
:104700004091DD035091DE03C301B2010E94052CEC
:1047100087FFF4C04092DB035092DC036092DD031C
:104720007092DE030C94481A2CEA34EB41E45CE30B
:104730000E94692D6C8B7D8B8E8B9F8BC701B60180
:104740000E94B42C2DEB37E346E855E30E94692D17
:104750009B01AC016C897D898E899F890E940A2CFE
:1047600060938C0270938D0280938E0290938F02DF
:104770002CC9FF2009F49DC11092D5031092D603D5
:104780001092D7031092D803412C512C3201E12C06
:10479000D6012D913D914D915D916D01C301B20105
:1047A0000E94992B2B013C016093D5037093D60393
:1047B0008093D7039093D803E394EF10E9CF6E2D45
:1047C00070E080E090E00E94B42C9B01AC01C3013A
:1047D000B2010E940A2C0E947C2CAB0170935602FD
:1047E000609355020C94771A809114048F5F809324
:1047F0001404283241F008F061C1203121F0223246
:1048000011F00C946915809115048F5F8093150445
:1048100080910D04882309F448C52031B1F0BE0110
:104820006F5F7F4FCE010A960E94AB0C882309F47C
:1048300021C58D818F3309F468C508F46AC58F35A9
:1048400009F465C58F3709F015C58CE014C5809152
:1048500004019091050122273327281B390B30933F
:10486000050120930401F701E81BF90BCF01F09338
:104870000901E09308010C94D01BE217F3070CF038
:1048800025C12150310930935E0220935D02609171
:1048900018017091190180E197E20E94292B709311
:1048A0002F0460932E040C9410188436910511F097
:1048B0000C94B017109283021092820280E090E074
:1048C0000C94B01790939702809396020ACF10929F
:1048D000D4030C94331A40E050E00C94731A8A60AD
:1048E00084837094609450944094411C511C611CCA
:1048F000711C408251826282738266C92091DF03FB
:104900003091E0034091E1035091E203C301B20111
:104910000E94642D181614F00C94481A4092DF037C
:104920005092E0036092E1037092E2030C94481A03
:104930008A608483F094E094D094C094C11CD11C0C
:10494000E11CF11CC082D182E282F3825AC98A60E2
:104950008483F094E094D094C094C11CD11CE11CD9
:10496000F11CC082D182E282F3829EC98A60848374
:104970007094609450944094411C511C611C711CB3
:104980004082518262827382DBC98A608483C7015C
:10499000FF0CAA0BBB0BB095A095909581959F4FEE
:1049A000AF4FBF4F80839183A283B383E6C98A60F0
:1049B00084830D2C000CEE08FF08F094E094D09452
:1049C000C094C11CD11CE11CF11CC082D182E282C6
:1049D000F3829090510320CA8A608483709460941B
:1049E00050944094411C511C611C711C40825182A6
:1049F0006282738270CA80911604909117040E949B
:104A00008504882311F40C946D16BE01665F7F4FF8
:104A100080911604909117040E94B403B0910D0484
:104A2000B88F809016049090170408E010E02224BC
:104A3000239461E0822D887409F460E0C4010E942F
:104A40002E04220C01501109A1F7E88DE11115C0C7
:104A5000F894D4011196ED91FC91129781819C916B
:104A60009095892381831196ED91FC911297828113
:104A70009C91909589238283789480910D0488235A
:104A800009F4F7C280910E04811119C364E170E04A
:104A900080E090E00E94741180910E04882311F44C
:104AA0000C94671661E080910F040E94DF100C9453
:104AB000671660E070E080EC9FE78DCE2B3309F441
:104AC000A2CE223411F00C9469159DCE81E0809322
:104AD00050020C9410182F5F3F4F30939702209391
:104AE0009602FFCD30930F0120930E012CE020930E
:104AF000B1001ECD80914803909149032091460357
:104B000030914703285F3F4F8217930708F01CC17D
:104B100081E080934C03C9CB809148039091490375
:104B20002091460330914703285F3F4F8217930738
:104B300008F0B8C181E080934C0370CB80914803AA
:104B4000909149032091460330914703285F3F4FDE
:104B50008217930708F023C181E080934C0316CBA2
:104B60008091480390914903209146033091470377
:104B7000285F3F4F8217930708F0EDC181E08093D3
:104B80004C03A9C9809148039091490320914603A1
:104B900030914703285F3F4F8217930708F07EC08C
:104BA00081E080934C034BCA809148039091490364
:104BB0002091460330914703285F3F4F82179307A8
:104BC00008F09BC181E080934C030C94971D809169
:104BD0004803909149032091460330914703285F91
:104BE0003F4F8217930708F005C181E080934C0383
:104BF0006FCA8091480390914903209146033091F8
:104C00004703285F3F4F8217930708F0D2C181E026
:104C100080934C0395C8809148039091490320915B
:104C2000460330914703285F3F4F8217930708F0F0
:104C300060C081E080934C03B6C9F090D3030C941C
:104C40004D1A809148039091490320914603309179
:104C50004703285F3F4F8217930708F0F6C081E0B3
:104C600080934C03D9C880914803909149032091C7
:104C7000460330914703285F3F4F8217930708F0A0
:104C8000CAC181E080934C030C94E41D30930F0162
:104C900020930E012BE02093B1004ACCFC01389701
:104CA000F0934903E0934803309709F4C8C9A091F1
:104CB0004F03B0915003109709F49DC29F012A1B26
:104CC0003B0B359527953595279535952795159661
:104CD0002C93F0935003E0934F0315821482DC0170
:104CE00012972BEF31E02D933C93309709F09DC93B
:104CF000A4C9FC013897F0934903E0934803309727
:104D000009F451C9A0914F03B0915003109709F4D1
:104D1000A8C29F012A1B3B0B3595279535952795F2
:104D20003595279515962C93F0935003E0934F03F8
:104D300015821482DC0112972DEE31E02D933C9305
:104D4000309709F026C92DC9FC013897F093490323
:104D5000E0934803309709F4A8CAA0914F03B0919B
:104D60005003109709F474C29F012A1B3B0B359521
:104D70002795359527953595279515962C93F0937E
:104D80005003E0934F0315821482DC01129724E351
:104D900032E02D933C93309709F07CCA86CAFC011F
:104DA0003897F0934903E0934803309709F4EEC92C
:104DB000A0914F03B0915003109709F440C29F0196
:104DC0002A1B3B0B359527953595279535952795C6
:104DD00015962C93F0935003E0934F0315821482A1
:104DE000DC01129720E232E02D933C93309709F0DA
:104DF000C0C9CAC9FC013897F0934903E09348033E
:104E0000309709F465C9A0914F03B09150031097F2
:104E100009F40CC29F012A1B3B0B3595279535954C
:104E200027953595279515962C93F0935003E0938D
:104E30004F0315821482DC01129726E032E02D9395
:104E40003C93309709F03CC943C9FC013897F09373
:104E50004903E0934803309711F40C940C1FA09180
:104E60004F03B0915003109709F4D7C19F012A1B3B
:104E70003B0B3595279535952795359527951596AF
:104E80002C93F0935003E0934F0315821482DC01BE
:104E900012972EEC31E02D933C93309711F00C9447
:104EA000FC1E97CDFC013897F0934903E09348032B
:104EB000309709F4B3C9A0914F03B09150031097F4
:104EC00009F4A2C19F012A1B3B0B35952795359507
:104ED00027953595279515962C93F0935003E093DD
:104EE0004F0315821482DC0112972AE232E02D93DF
:104EF0003C93309709F085C98FC9FC013897F0932E
:104F00004903E0934803309711F40C94971DA09146
:104F10004F03B0915003109709F4F6C09F012A1B6C
:104F20003B0B3595279535952795359527951596FE
:104F30002C93F0935003E0934F0315821482DC010D
:104F400012972DE831E02D933C93309711F00C949B
:104F50008D1D0C94951DFC013897F0934903E09347
:104F60004803309711F40C946B1FA0914F03B0913C
:104F70005003109709F4BFC09F012A1B3B0B3595C6
:104F80002795359527953595279515962C93F0936C
:104F90005003E0934F0315821482DC0112972AED2F
:104FA00031E02D933C93309711F00C94611F0C94D9
:104FB0006B1FFC013897F0934903E0934803309747
:104FC00011F40C94A01EA0914F03B09150031097C0
:104FD00009F488C09F012A1B3B0B35952795359511
:104FE00027953595279515962C93F0935003E093CC
:104FF0004F0315821482DC0112972FEA31E02D93C2
:105000003C93309711F00C94961E0C94A01E519571
:105010004195510956CBFC013897F0934903E09331
:105020004803309711F40C94E41DA0914F03B09104
:105030005003109709F44DC09F012A1B3B0B359577
:105040002795359527953595279515962C93F093AB
:105050005003E0934F0315821482DC0112972BE872
:1050600031E02D933C93309711F00C94DA1D0C94A1
:10507000E41D64E170E080E090E00E9474110C9403
:10508000671642E050E019CA43E050E016CA44E017
:1050900050E013CA45E050E010CA82E090E0E3C956
:1050A00083E090E0E0C981E090E0DDC941E050E0BC
:1050B00004CA84E090E0D7C985E090E0D4C960E0FC
:1050C00080910F040E94DF10E1CC919581959109A8
:1050D0008DCAF0934E03E0934D03F0935003E09399
:1050E0004F03B9CFF0934E03E0934D03F093500379
:1050F000E0934F037ECFF0934E03E0934D03F09384
:105100005003E0934F0347CFF0934E03E0934D03DA
:10511000F0935003E0934F0310CFDE011A9680E026
:105120009D918927E82FEF70F0E0E25FFE4F9491A8
:10513000E82FE295EF70F0E0E25EFE4FE491892FF8
:105140008E27EA89FB89AE17BF0751F79989981313
:105150000C94B218BE016F5F7F4FCE010A960E9479
:10516000AB0C882311F40C94B5186A8170E0762F8B
:105170006627770F770F770F898190E0880F991F47
:10518000880F991F880F991F9B01282B392B8A851F
:105190008031A9F0B901613854EE750714F40C940C
:1051A000B518072E000C880B990B0E94B42C20E038
:1051B00030E040E05CE30E94692D0C94B9186885EA
:1051C000662341F370E08F81AB01481B5109CA018E
:1051D0009695982F8827979587950E94292B60523E
:1051E0007109207F220F331F220F331F220F331F1D
:1051F000620F731FD0CFF0934E03E0934D03F093F3
:105200005003E0934F0369CDF0934E03E0934D03B9
:10521000F0935003E0934F0364CEF0934E03E0937A
:105220004D03F0935003E0934F032FCEF0934E03C2
:10523000E0934D03F0935003E0934F03FACDF093C6
:105240004E03E0934D03F0935003E0934F03C6CD1C
:10525000F0934E03E0934D03F0935003E0934F031C
:1052600092CDF0934E03E0934D03F0935003E093FF
:105270004F035ECD80E090911004981710F00C94CD
:105280006915809310040C94691544E650E0BA0146
:10529000681B790BCB01CEC8CE010A960E949C13E5
:1052A0009989891362C80C94AF1580911604909166
:1052B00017040E948504BE01665F7F4F809116042B
:1052C000909117040E94B40364EB809116049091AE
:1052D00017040E94241380911604909117040E94D1
:1052E000610481110AC080911604909117040E94F4
:1052F000850410930D042A8590CA8091160490911C
:1053000017040E9485042A8588CA8AE0B4CF8BE0FE
:10531000B2CF8F3109F0AECF89E0ADCF8091D90304
:105320009091DA03009711F00C946E2E0895CF93AC
:10533000DF931092A4021092A30288EE93E0A0E003
:10534000B0E08093A5029093A602A093A702B09329
:10535000A80283E791E09093A2028093A10285ECDA
:1053600090E09093AE028093AD0284EC90E0909335
:10537000B0028093AF0280EC90E09093B2028093F1
:10538000B10281EC90E09093B4028093B30282EC7E
:1053900090E09093B6028093B50286EC90E09093F3
:1053A000B8028093B7021092BA021092BB02109218
:1053B000BC021092BD0282E593E090934503809376
:1053C0004403909347038093460382ED93E09093C8
:1053D00049038093480390934B0380934A031092B0
:1053E0004C038091510380788093510310923E03C7
:1053F00010923F03109240031092410388EE93E015
:105400009093430380934203CEEED2E0D0933F04C7
:10541000C0933E0460E082E00E943511EEE4F1E0CA
:10542000E491E0933004EAE3F1E0E491F0E0EE0F80
:10543000FF1FE25DFE4F859194919093320480931B
:10544000310410923B0410923D0410923C041092DF
:105450003A0487E0E3E3F4E0DF011D928A95E9F77F
:10546000109223041092220410920E0480E394E020
:10547000909317048093160410921404109215044C
:1054800010920D0489E08093100481E08093110450
:10549000809312048093130410920704109208045E
:1054A0001092090410920A04D0930C04C0930B04C8
:1054B000109201041092020410920304109204044A
:1054C0008AE090E090930604809305041092FB0319
:1054D0001092FC031092FD031092FE0390930004BF
:1054E0008093FF031092F5031092F6031092F703D6
:1054F0001092F8039093FA038093F9031092EF034C
:105500001092F0031092F1031092F20382E390E004
:105510009093F4038093F3031092E9031092EA034B
:105520001092EB031092EC039093EE038093ED0343
:105530001092E3031092E4031092E5031092E60345
:105540009093E8038093E70380E18093D20380E4A3
:1055500090E00E94D62D9C019093DA038093D903AA
:10556000892B09F453C01092D3031092D4031092E4
:10557000D5031092D6031092D7031092D80380E07F
:1055800090E0A0ECBFE78093DB039093DC03A09353
:10559000DD03B093DE038093DF039093E003A093D9
:1055A000E103B093E20390E19150F901B4E09B9FD5
:1055B000E00DF11D112410821182128213829111CB
:1055C000F3CF109224041092250410922604109216
:1055D00027048AE090E09093290480932804609146
:1055E00018017091190180E197E20E94292B109215
:1055F0002A0410922B0410922C0410922D04709304
:105600002F0460932E04DF91CF9108951092D2035E
:105610001092D3031092D4031092D5031092D603A4
:105620001092D7031092D80380E090E0A0ECBFE77F
:105630008093DB039093DC03A093DD03B093DE0340
:105640008093DF039093E003A093E103B093E20320
:10565000B8CF97FB072E16F4009407D077FD09D03A
:105660000E94622B07FC05D03EF4909581959F4FD8
:105670000895709561957F4F0895052E97FB1EF450
:1056800000940E94542B57FD07D00E94762B07FCF4
:1056900003D04EF40C94542B5095409530952195A1
:1056A0003F4F4F4F5F4F089590958095709561954E
:1056B0007F4F8F4F9F4F0895EE0FFF1F0590F4917E
:1056C000E02D0994AA1BBB1B51E107C0AA1FBB1FF9
:1056D000A617B70710F0A61BB70B881F991F5A957E
:1056E000A9F780959095BC01CD010895A1E21A2EED
:1056F000AA1BBB1BFD010DC0AA1FBB1FEE1FFF1F76
:10570000A217B307E407F50720F0A21BB30BE40BC5
:10571000F50B661F771F881F991F1A9469F760950C
:105720007095809590959B01AC01BD01CF010895C6
:105730005058BB27AA270E94B02B0C942A2D0E94F8
:105740001C2D38F00E94232D20F039F49F3F19F4CE
:1057500026F40C94192D0EF4E095E7FB0C94132D10
:10576000E92F0E943B2D58F3BA176207730784078D
:10577000950720F079F4A6F50C945D2D0EF4E095D4
:105780000B2EBA2FA02D0B01B90190010C01CA01FB
:10579000A0011124FF27591B99F0593F50F4503EA6
:1057A00068F11A16F040A22F232F342F4427585F98
:1057B000F3CF469537952795A795F0405395C9F7B0
:1057C0007EF41F16BA0B620B730B840BBAF0915068
:1057D000A1F0FF0FBB1F661F771F881FC2F70EC007
:1057E000BA0F621F731F841F48F4879577956795DA
:1057F000B795F7959E3F08F0B0CF9395880F08F0C6
:105800009927EE0F9795879508950E94EF2C08F43D
:1058100081E008950E941E2C0C942A2D0E94232DB5
:1058200058F00E941C2D40F029F45F3F29F00C94A1
:10583000132D51110C945E2D0C94192D0E943B2DAB
:1058400068F39923B1F3552391F3951B550BBB27AF
:10585000AA2762177307840738F09F5F5F4F220FF4
:10586000331F441FAA1FA9F335D00E2E3AF0E0E8EB
:1058700032D091505040E695001CCAF72BD0FE2F35
:1058800029D0660F771F881FBB1F261737074807C9
:10589000AB07B0E809F0BB0B802DBF01FF27935881
:1058A0005F4F3AF09E3F510578F00C94132D0C9405
:1058B0005E2D5F3FE4F3983ED4F386957795679528
:1058C000B795F7959F5FC9F7880F911D96958795B6
:1058D00097F90895E1E0660F771F881FBB1F6217D5
:1058E00073078407BA0720F0621B730B840BBA0B93
:1058F000EE1F88F7E09508950E94832C6894B111FB
:105900000C945E2D08950E94432D88F09F5798F0C7
:10591000B92F9927B751B0F0E1F0660F771F881FB4
:10592000991F1AF0BA95C9F714C0B13091F00E94CE
:105930005D2DB1E008950C945D2D672F782F882799
:10594000B85F39F0B93FCCF3869577956795B395F5
:10595000D9F73EF490958095709561957F4F8F4F64
:105960009F4F0895E89409C097FB3EF49095809569
:10597000709561957F4F8F4F9F4F9923A9F0F92F15
:1059800096E9BB279395F695879577956795B79593
:10599000F111F8CFFAF4BB0F11F460FF1BC06F5F79
:1059A0007F4F8F4F9F4F16C0882311F096E911C08B
:1059B000772321F09EE8872F762F05C0662371F0AC
:1059C00096E8862F70E060E02AF09A95660F771FC0
:1059D000881FDAF7880F9695879597F90895990F9C
:1059E0000008550FAA0BE0E8FEEF16161706E807A9
:1059F000F907C0F012161306E407F50798F0621BCA
:105A0000730B840B950B39F40A2661F0232B242B9E
:105A1000252B21F408950A2609F4A140A6958FEFBD
:105A2000811D811D089597F99F6780E870E060E00F
:105A300008959FEF80EC089500240A941616170627
:105A400018060906089500240A941216130614066F
:105A500005060895092E0394000C11F4882352F0D2
:105A6000BB0F40F4BF2B11F460FF04C06F5F7F4F8A
:105A70008F4F9F4F089557FD9058440F551F59F071
:105A80005F3F71F04795880F97FB991F61F09F3F2B
:105A900079F087950895121613061406551FF2CF54
:105AA0004695F1DF08C0161617061806991FF1CFA4
:105AB00086957105610508940895E894BB276627CB
:105AC0007727CB0197F908950E94EF2C08F48FEF08
:105AD00008950E947C2D0C942A2D0E941C2D38F0D4
