:100000000C94B2000C94DA000C94DA000C94DA0030
:100010000C94DA000C94DA000C94DA000C94DA00F8
:100020000C94DA000C94DA000C94DA000C94DA00E8
:100030000C94DA000C94DA000C94DA000C94DA00D8
:100040000C949C110C94DA000C94D0020C94940241
:100050000C94DA000C94DA000C94DA000C94DA00B8
:100060000C94DA000C94DA00830483049A049A0452
:10007000850504043A050404D30504049A05040420
:100080000404040404040404040404040404040430
:100090000404040404040404040404040404040420
:1000A00004040404270604040404040404040404EB
:1000B0000404040404040404040404040404040400
:1000C00004040404040404040404040404040404F0
:1000D00004040404040404040404040404040404E0
:1000E000040404043004005EBCE2613FDD83C29C72
:1000F0007E20A3FD1F41009D23BE46DB65F88C11C9
:10010000AF32CA57E974000000002300260029001E
:1001100004040404040404040202020202020303AD
:1001200003030303010204081020408001020408B5
:100130001020010204081020000000002400270005
:100140002A0000000000250028002B000000000805
:10015000000201000003040700000000000000008E
:10016000F827EF2711241FBECFEFD8E0DEBFCDBFA9
:1001700012E0A0E0B1E0EEE8FAE502C005900D92D1
:10018000A431B107D9F723E0A4E1B2E001C01D9288
:10019000A83EB207E1F710E0C1EBD0E004C0219720
:1001A000FE010E949129C03BD107C9F70E94E611C8
:1001B0000C943A2D0C940000FC0181E0808F938D0B
:1001C000848D981709F448C0238D30E02F5F3F4F8E
:1001D0002F733327922F03C00FB607FE17C0848DED
:1001E0009817D1F3838DDF01A80FB11DA35ABF4F1C
:1001F0006C939FB7F894238F0288F389E02D808158
:10020000806280839FBF81E090E00895A089B189DA
:100210008C9185FFE4CF848DDF01A80FB11DA35A17
:10022000BF4F8C91448D50E04F5F5F4F4F73552708
:10023000448FA689B7898C93A089B1898C918370EA
:1002400080648C93438D848D4813C9CFA289B38970
:100250008C918F7D8C93C3CFA089B1898C9185FFC0
:10026000B3CF9FB7F894A689B7896C930088F189BA
:10027000E02D80818370806480839FBF81E090E067
:100280000895BF92CF92DF92EF92FF920F931F9348
:10029000CF93DF934115510509F486C06A01EC0143
:1002A0007B0100E010E0BB24B394E881F981019068
:1002B000F081E02DD7016D917D01B0E0EC3DFB07B1
:1002C00009F06CC0B88E9B8D8C8D981709F454C0C2
:1002D0002B8D30E02F5F3F4F2F733327922F03C0BA
:1002E0000FB607FE23C08C8D9817D1F38B8DFE01BE
:1002F000E80FF11DE35AFF4F60839FB7F8942B8FEF
:10030000EA89FB898081806280839FBF0F5F1F4FD6
:10031000C016D10651F6C801DF91CF911F910F9100
:10032000FF90EF90DF90CF90BF900895E889F98912
:10033000808185FFD8CF8C8DFE01E80FF11DE35A37
:10034000FF4F80814C8D50E04F5F5F4F4F735527BB
:100350004C8FEE89FF898083E889F98980818370D9
:10036000806480834B8D8C8D4813BDCFEA89FB89D7
:1003700080818F7D8083B7CFE889F989808185FF6F
:10038000A7CF9FB7F894EE89FF896083E889F98940
:1003900080818370806480839FBFB8CFCE01099530
:1003A000892B09F0B3CFB7CF00E010E0B4CFFC0148
:1003B000918D228D892F90E0805C9F4F821B910947
:1003C0008F73992708952091690280916A0230E025
:1003D000205C3F4F281B31092F73332781E0232BEB
:1003E00009F480E00895089580E090E00895CF93A7
:1003F000DF93DC0158968C915897882309F447C005
:100400005296ED91FC9153975096CD91DC91519776
:10041000908195FF39C00FB607FCFACF908195FF08
:10042000F7CF888185FFF4CF5C968C915C97FD01B6
:10043000E80FF11DE35AFF4F20815C968C915C9789
:1004400090E001968F7399275C968C935C975696F3
:10045000ED91FC91579720835096ED91FC91519727
:1004600080818370806480835B969C915B975C96AF
:100470008C915C979813C4CF5296ED91FC91539751
:1004800080818F7D8083BCCF888186FFC4CFDF9140
:10049000CF910895FC01238D348D231730F4832FE1
:1004A00090E0821B9109019708958FE390E0821BF1
:1004B0009109830F911D0895FC01918D828D9817EC
:1004C00061F0828DDF01A80FB11D5D968C91928D38
:1004D0009F5F9F73928F90E008958FEF9FEF089535
:1004E000FC01918D828D981731F0828DE80FF11DFE
:1004F000858D90E008958FEF9FEF089580E090E064
:10050000892B79F08091690220916A0290E0805CE9
:100510009F4F821B91098F739927892B11F00C949F
:10052000000008950E942C2D1F920F920FB60F927B
:1005300011242F938F939F93EF93FF93E0916C027D
:10054000F0E0E355FD4F208180916C0290E0019630
:100550008F73992780936C02E0916602F091670295
:100560002083E0916002F091610280818370806459
:10057000808390916B0280916C02981307C0E09188
:100580006202F091630280818F7D8083FF91EF9101
:100590009F918F912F910F900FBE0F901F901895E4
:1005A0001F920F920FB60F9211242F938F939F9348
:1005B000EF93FF93E0916002F09161028081E091FE
:1005C0006602F091670282FF0BC08081FF91EF917C
:1005D0009F918F912F910F900FBE0F901F901895A4
:1005E0002081809169028F5F8F7390916A028917D1
:1005F00069F3E0916902F0E0E05BFD4F258F8093A5
:100600006902E4CF9F92AF92BF92CF92DF92EF92B6
:10061000FF920F931F93CF93DF93DC0128E030E02C
:1006200091E0AA24AA94B12C4FE050E0E3E2EE2E30
:10063000F12C07ED10E01CC08C911196ED91FC910E
:100640001297F894D280C82EC094DC20D282D18038
:10065000D82AD182E7012197F1F7D2808D298283B0
:100660007894F8013197F1F7990F21503109F9F099
:10067000892F857509F78C911196ED91FC91129750
:10068000F894D280C82EC094DC20D282D180D82A9F
:10069000D182E5012197F1F7D2808D298283789468
:1006A000FA013197F1F7990F2150310909F7F894C0
:1006B0001196ED91FC91129791818C9180958923EF
:1006C00081831196ED91FC91129792818C91809586
:1006D0008923828378947B016B0188E0C80ED11C4A
:1006E0006FEF70E04FE050E003E210E0C7EDD0E0C4
:1006F000F70191907F0128E030E0AA24A3941CC068
:10070000BC901196ED91FC911297F89482819B2DEB
:1007100090958923828381818B298183C8010197E8
:10072000F1F78281B82AB2827894CE010197F1F76D
:10073000AA0C21503109F9F0892D8A2109F7BC90C2
:100740001196ED91FC911297F89482819B2D9095D2
:100750008923828381818B298183CB010197F1F7E2
:100760008281B82AB2827894CA010197F1F7AA0C63
:100770002150310909F7F8941196ED91FC911297E7
:1007800091818C918095892381831196ED91FC91C3
:10079000129792818C918095892382837894CE14CC
:1007A000DF0409F0A5CFDF91CF911F910F91FF904A
:1007B000EF90DF90CF90BF90AF909F9008955F92A1
:1007C0006F927F928F929F92AF92BF92CF92DF9261
:1007D000EF92FF920F931F93CF93DF93CDB7DEB7C6
:1007E0006E970FB6F894DEBF0FBECDBF8C015B01D4
:1007F000DC0114968C91E82FEF778E2F90E0FC01AE
:100800003297EF33F10540F1D5018D919C91DC01D8
:10081000ED91FC910190F081E02D60EC0995F501DE
:1008200022813381820F931F938382836E960FB64A
:10083000F894DEBF0FBECDBFDF91CF911F910F9116
:10084000FF90EF90DF90CF90BF90AF909F908F90F0
:100850007F906F905F900895EC5CFF4F0C9491290E
:10086000F801A081B181109709F472C5FD01E12C56
:10087000F12C2FEFE21AF20A8581811159C3E0E1D0
:10088000EE16F10408F061C360E070E06F5F7F4F27
:1008900015968C911597882339F0F8E08F02A00DFA
:1008A000B11D1124109791F76057D5018D919C913E
:1008B000DC01ED91FC910190F081E02D0995F501AD
:1008C00022813381820F931F93838283D8010D91FC
:1008D0001C910115110509F4A9CFB501C8010E94A9
:1008E000DF03F8018581882341F0B8E08B02000D19
:1008F000111D11240115110581F7D50112968D9155
:100900009C91139793CFDB018D919C91F8014281CB
:10091000538160817181DC01ED91FC910280F38152
:10092000E02D0995F50122813381820F931F938376
:1009300082837CCFD8018D909C90F401019000209F
:10094000E9F731976F01C818D908B0E2CB16D10486
:1009500008F464C4DB018D919C91DC01FFEFCF169C
:10096000D10409F008F4ECC3ED91FC910190F08101
:10097000E02D6AED0995F50122813381820F931FE5
:1009800093838283DA8AC98A8A89898BCA8A808119
:100990009181DC01ED91FC910280F381E02DB1E0C9
:1009A000E134FB0709F0D6C4BE016F5E7F4F0E94A1
:1009B000520FF50122813381280F391F338322839F
:1009C000D5010D911C91F801A081B1811296ED9194
:1009D000FC91139781E0E134F80709F015C4C114C4
:1009E000D10409F4F8C4E12CF12C77247394ED912F
:1009F000FC91D4016D914D01B0E0EC3DFB0709F095
:100A00005EC3F801708E938D848D981709F43FC3EF
:100A1000F801238D30E02F5F3F4F2F733327922F44
:100A200003C00FB607FEC2C2D8015C968C915C97DA
:100A30009817B9F3F801838DE80FF11DE35AFF4FC2
:100A400060839FB7F894D8015B962C935B9752967E
:100A5000ED91FC9153978081806280839FBFFFEF6F
:100A6000EF1AFF0ACE14DF0409F45CC3F801A08179
:100A7000B181BDCFD801CD90DD90ED90FC90B0E874
:100A8000CB16D104E104F10408F4DCC3DB018D9141
:100A90009C91DC01FFEFCF16D104E104F10409F0D1
:100AA00008F4E5C3C114D104F1E0EF06F10408F441
:100AB0007EC3ED91FC910190F081E02D6EEC0995E3
:100AC000F50122813381820F931F93838283C98230
:100AD000DA82EB82FC828C818983CC828A819B8141
:100AE0009A838B8380819181DC01ED91FC9102805E
:100AF000F381E02DB1E0E134FB0709F01AC3BE0138
:100B00006F5F7F4F0E94DC0F8ACEF8018081918158
:100B1000A281B381892B8A2B8B2B09F001C362EC54
:100B2000D5018D919C91DC01ED91FC910190F081BA
:100B3000E02D74CEF801F080D180E2801381DB01DA
:100B40008D919C91DC01ED91FC910190F081E02D63
:100B50006AEC0995F50122813381820F931F9383FB
:100B600082838F2D9D2DAE2DB12F89879A87AB87DC
:100B7000BC878C858987FC868A859B859A878B872D
:100B800080819181DC01ED91FC910280F381E02D67
:100B9000B1E0E134FB0709F030C3BE01675F7F4F6E
:100BA0000E94DC0F3CCEF80180819181A281B3814B
:100BB000CC24DD247601C81AD90AEA0AFB0A81325C
:100BC0009105A105B10508F4DDC281389105A105A3
:100BD000B10508F498C38130F0E89F07A105B1057D
:100BE00008F467C30197A105B04808F086CEFB0161
:100BF00080819181DC01ED91FC910190F081E02DEB
:100C000062ED0995F50122813381820F931F938351
:100C10008283CD82DE82EF82F88688858D83C886C6
:100C20008E819F819E838F8380819181DC01ED91F4
:100C3000FC910280F381E02DB1E0E134FB0709F083
:100C4000BCC3BE016B5F7F4F0E94DC0FE8CDD801B3
:100C5000ED91FC91309709F48BC3E12CF12CBFEF9F
:100C6000EB1AFB0A8581811150C180E1E816F1047D
:100C700008F442C2D5018D919C91DC01ED91FC916B
:100C80000190F081E02D6EED0995F501228133810F
:100C9000820F931F93838283FE8AED8A8E898D8BC8
:100CA000EE8A80819181DC01ED91FC910280F381DB
:100CB000E02DB1E0E134FB0709F053C3BE016B5EE8
:100CC0007F4F0E94520FF50122813381820F931FC3
:100CD00093838283D8016D907C906114710409F430
:100CE000A5CD55245394F301C680D780F601019019
:100CF0000020E9F731974F018C189D08D5018D919F
:100D00009C91DC01F0E28F16910408F4A5C1FFEF7D
:100D10008F16910409F008F47DC1ED91FC910190CA
:100D2000F081E02D6AED0995F50122813381820F72
:100D3000931F938382839C8A8B8A8C898B8B8C8A6A
:100D400080819181DC01ED91FC910280F381E02DA5
:100D5000B1E0E134FB0709F0C1C1BE016D5E7F4F18
:100D60000E94520FF50122813381820F931F9383DA
:100D70008283D5010D911C91F801A081B181129659
:100D8000ED91FC91139721E0E134F20709F074C171
:100D9000E12CF12C8114910409F4A5C0ED91FC9192
:100DA000D6016D916D01B0E0EC3DFB0709F093C0F9
:100DB000F801508E938D848D981709F467C0D8017F
:100DC0005B962C9130E02F5F3F4F2F733327922F8C
:100DD00003C00FB607FE26C0D8015C968C915C97C5
:100DE0009817B9F3F801838DE80FF11DE35AFF4F0F
:100DF00060839FB7F894D8015B962C935B975296CB
:100E0000ED91FC9153978081806280839FBFBFEFFB
:100E1000EB1AFB0A8E149F0409F456C0F801A08156
:100E2000B181BCCF5096ED91FC915197808185FFA7
:100E3000D3CF5C968C915C97F801E80FF11DE35AD3
:100E4000FF4F8081F801448D50E04F5F5F4F4F733B
:100E50005527448F0688F789E02D80835096ED91C1
:100E6000FC91519780818370806480835B964C9164
:100E70005B975C968C915C974813AECF5296ED9140
:100E8000FC91539780818F7D8083A6CF0088F18964
:100E9000E02D808185FF93CF9FB7F894D8015696B7
:100EA000ED91FC91579760835096ED91FC9151978D
:100EB00080818370806480839FBFBFEFEB1AFB0A41
:100EC0008E149F0409F0AACFD50112968D919C91A2
:100ED0001397740108C0C8010995892B09F097CFB1
:100EE000F50182819381E80EF91EF501F382E28219
:100EF000B501C3010E94DF03D30115968C918111C6
:100F00000DC0F5018281938191CC28E08202E00D31
:100F1000F11D1124309709F0A2CEA7CEF8E08F0280
:100F2000600C711C11246114710409F0DCCEE9CF4E
:100F300098E08902E00DF11D1124309709F099CC59
:100F400020E1E216F10408F49FCCD5018D919C912B
:100F5000DC01ED91FC910190F081E02D6CED0995A3
:100F6000F50122813381820F931F93838283F88E50
:100F7000EF8A888D8F8BE88E80819181DC01ED91E5
:100F8000FC910280F381E02DB1E0E134FB0709F030
:100F90001BC2BE01695E7F4F0E94520FF501228184
:100FA0003381820F931F9383828390CC5096ED916F
:100FB000FC915197808185FF37CD5C968C915C9731
:100FC000F801E80FF11DE35AFF4F8081F801448DCD
:100FD00050E04F5F5F4F4F735527448F0688F78966
:100FE000E02D80835096ED91FC9151978081837024
:100FF000806480835B964C915B975C968C915C9748
:10100000481312CD5296ED91FC91539780818F7DBC
:1010100080830ACDED91FC910190F081E02D69ED86
:101020000995F50122813381820F931F9383828377
:101030008E8E80819181DC01ED91FC910280F381A3
:10104000E02DB1E0E134FB0709F04FC0BE01625E64
:101050007F4F0E94661086CEED91FC910190F08149
:10106000E02D60EA680D0995F501E280F3808E0DB0
:101070009F1D938382837DCEA401B601C80109958B
:101080007C01D50112968D919C9113972CCF0088ED
:10109000F189E02D808185FFBBCC9FB7F894D80102
:1010A0005696ED91FC91579760835096ED91FC9187
:1010B000519780818370806480839FBFD0CCC801AA
:1010C0000995892B09F0CBCCF50122813381C70129
:1010D000820F931FF50193838283A8CB42E050E0F7
:1010E000BE016D5E7F4F09953DCE41E050E0BE01EF
:1010F000625E7F4F099536CE60E86E0DD5018D9109
:101100009C91DC01ED91FC910190F081E02D09951D
:10111000F50122813381820F931F93838283DACD7D
:1011200063ECFECCD50112962D913C911397C6012C
:10113000CFCF44E050E0BE016F5F7F4F09956FCB8A
:10114000ED91FC910190F081E02D69ED0995F5019B
:1011500022813381820F931F93838283CD8E80817E
:101160009181DC01ED91FC910280F381E02DB1E0F1
:10117000E134FB0709F005C1BE01635E7F4F0E94A9
:10118000661017CCCB8EDB018D919C91DC01ED912B
:10119000FC910280F381E02DB1E0E134FB0709F01E
:1011A0001DC1BE01655E7F4F0E94661038CBED9178
:1011B000FC910190F081E02D6DEC0995F501228103
:1011C0003381820F931F93838283DE86CD868E8543
:1011D0008D87CE8680819181DC01ED91FC9102802A
:1011E000F381E02DB1E0E134FB0709F0C3C0BE019B
:1011F000635F7F4F0E94520F12CB44E050E0BE016C
:10120000675F7F4F09950BCBA601B401C801099513
:10121000D50112962D913C9113975ACFFB018081F5
:101220009181DC01ED91FC910190F081E02D60EA6B
:101230006C0D0995F50122813381280F391F338305
:101240002283BECBC98EFB0180819181DC01ED91AF
:10125000FC910280F381E02DB1E0E134FB0709F05D
:10126000C4C0BE01675E7F4F0E946610D8CAED9170
:10127000FC910190F081E02D6CEC0995F501228143
:101280003381820F931F93838283CA8E80819181E1
:10129000DC01ED91FC910280F381E02DB1E0E134BD
:1012A000FB0709F07CC0BE01665E7F4F0E9466109E
:1012B000B6CADB018D919C91DC01ED91FC9101900E
:1012C000F081E02D61ED0995F50122813381820FD6
:1012D000931F93838283D88ACF8688898F87C88A11
:1012E00080819181DC01ED91FC910280F381E02D00
:1012F000B1E0E134FB0709F04BC0BE01615F7F4FF5
:101300000E94520F8CCADB018D919C91DC01ED9102
:10131000FC910190F081E02D60ED0995F5012281AD
:101320003381820F931F93838283CC8E808191813E
:10133000DC01ED91FC910280F381E02DB1E0E1341C
:10134000FB07A1F5BE01645E7F4F0E94661067CA6D
:1013500060E9ABCA42E050E0BE016F5E7F4F099585
:1013600028CB42E050E0BE016B5E7F4F0995ABCCCD
:1013700060E8C4CE42E050E0BE01635F7F4F099554
:101380004ECA41E050E0BE01635E7F4F099511CB2C
:1013900042E050E0BE01615F7F4F099540CA41E0E5
:1013A00050E0BE01665E7F4F099539CA41E050E0CA
:1013B000BE01645E7F4F099532CA44E050E0BE0131
:1013C0006B5F7F4F09952BCA42E050E0BE01695E1A
:1013D0007F4F0995E3CD80E090E07ACE41E050E088
:1013E000BE01655E7F4F09951ACA41E050E0BE011B
:1013F000675E7F4F099513CACF92DF92EF92FF92FB
:101400000F931F93CF93DF93FC019481892F8F77E4
:1014100039F4907890629483118210821382128240
:1014200095FF3BC061157105C1F17A018B016F0118
:10143000C081D18110C06115710529F0C8010E94D9
:10144000312D892B79F09D819923B1F088E09802A4
:10145000C00DD11D1124209779F06E817F81601716
:10146000710749F7CE01DF91CF911F910F91FF9046
:10147000EF90DF90CF900895D70114968D919C91B5
:10148000159712962D913C911397285F3F4F821725
:10149000930730F481E018968C9380E090E0E3CFDE
:1014A000FC013897E701FD83EC833097B1F3E60147
:1014B000AA81BB811097A9F09F012A1B3B0B359590
:1014C0002795359527953595279515962C93FB836C
:1014D000EA8315821482DC0112970D931C93CF01CD
:1014E000C2CFF983E883FB83EA83F3CF8F929F9285
:1014F000AF92BF92CF92DF92EF92FF920F931F9322
:10150000CF93DF93DC0148E050E021E00FEF10E0E3
:101510008FE0882E912C93E2C92ED12C37EDE32E4B
:10152000F12C1CC08C911196ED91FC911297F894BE
:101530009281382F3095932392839181982B9183B8
:10154000E6012197F1F79281892B82837894C70174
:101550000197F1F7220F41505109F9F0862F8223AC
:1015600009F79C911196ED91FC911297F894828164
:10157000392F3095832382838181892B8183E801F0
:101580002197F1F78281982B92837894C401019777
:10159000F1F7220F4150510909F7F8941196ED9196
:1015A000FC91129791818C9180958923818311966A
:1015B000ED91FC91129792818C9180958923828381
:1015C0007894DF91CF911F910F91FF90EF90DF9072
:1015D000CF90BF90AF909F908F9008954F925F9261
:1015E0007F928F929F92AF92BF92CF92DF92EF92B3
:1015F000FF920F931F93CF93DF93E091B903F09184
:10160000BA034081A181B281F89411962C9111976F
:10161000542F5095252311962C93119778943CE7DD
:10162000C3E0D0E002C0315071F1FE013197F1F713
:101630002C912423C1F3F89412962C911297252310
:1016400012962C93129711962C911197242B119688
:101650002C9311977894EBE7F7E03197F1F7F89432
:1016600011962C911197522311965C931197E3E1F7
:10167000F1E03197F1F72C917894E3E6F6E03197B9
:10168000F1F7422389F080E0DF91CF911F910F9114
:10169000FF90EF90DF90CF90BF90AF909F908F9092
:1016A0007F905F904F9008958B016C01C091B903BA
:1016B000D091BA0365E5CE010E94760A7601460113
:1016C00088E0880E911C4FEF50E02FE030E083E27D
:1016D000482E512C67ED70E0F701A1907F0188E062
:1016E00090E0BB24B39419C07880E981FA81F89422
:1016F000D280C72CC094DC20D282D180D728D1825E
:10170000D2011197F1F7D2807D2872827894FB0183
:101710003197F1F7BB0C0197E1F0EA2DEB2121F7AE
:101720007880E981FA81F894D280C72CC094DC20BB
:10173000D282D180D728D182DA011197F1F7D280F5
:101740007D2872827894F9013197F1F7BB0C0197EB
:1017500021F7F894E981FA81918188818095892324
:101760008183E981FA8192818881809589238283AE
:101770007894E814F90409F0AFCF6EEB8091B903C7
:101780009091BA030E94760A48017801F9E0EF0EC1
:10179000F11C67E070E043E250E02FEC30E0E091B4
:1017A000B903F091BA039081A181B281F8941196A6
:1017B0008C911197892B11968C9311971296DC902E
:1017C0001297892F8095D8221296DC921297EB01FE
:1017D0002197F1F71196DC9011978D2111968C933A
:1017E0001197EA012197F1F78C917894D90111971B
:1017F000F1F7982381E009F480E0B080A181B28103
:10180000F89411969C9111979B2911969C9311978E
:101810001296DC9012979B2D9095D9221296DC920D
:101820001297EB012197F1F71196DC9011979D210A
:1018300011969C931197EA012197F1F79C91789466
:10184000D9011197F1F79B2109F08260B080A18145
:10185000B281F89411969C9111979B2911969C93B3
:1018600011971296DC9012979B2D9095D922129683
:10187000DC921297EB012197F1F71196DC9011970A
:101880009D2111969C931197EA012197F1F79C9164
:101890007894D9011197F1F79B2109F08460B08009
:1018A000A181B281F89411969C9111979B29119670
:1018B0009C9311971296DC9012979B2D9095D922AC
:1018C0001296DC921297EB012197F1F71196DC90BA
:1018D00011979D2111969C931197EA012197F1F799
:1018E0009C917894D9011197F1F79B2109F08860B8
:1018F000B080A181B281F89411969C9111979B2997
:1019000011969C9311971296DC9012979B2D9095AF
:10191000D9221296DC921297EB012197F1F71196DA
:10192000DC9011979D2111969C931197EA012197C4
:10193000F1F79C917894D9011197F1F79B2109F067
:101940008061B080A181B281F89411969C91119729
:101950009B2911969C9311971296DC9012979B2DC0
:101960009095D9221296DC921297EB012197F1F70C
:101970001196DC9011979D2111969C931197EA0185
:101980002197F1F79C917894D9011197F1F79B2158
:1019900009F08062B080A181B281F89411969C9187
:1019A00011979B2911969C9311971296DC90129790
:1019B0009B2D9095D9221296DC921297EB012197DC
:1019C000F1F71196DC9011979D2111969C93119738
:1019D000EA012197F1F79C917894D9011197F1F7D9
:1019E0009B2109F08064A0810180F281E02DF894B0
:1019F00091819A2B9183B2819A2F9095B923B283CA
:101A0000EB012197F1F7B1819B239183EA012197A3
:101A1000F1F790817894F9013197F1F79A2309F061
:101A20008068F40181934F01EE15FF0509F0B7CEF0
:101A3000E091B903F091BA0330810180F281E02D89
:101A4000F8948181632F60958623818378942CE7B5
:101A500043E050E003C0215009F415CECA010197BC
:101A6000F1F780818323B9F3F894828186238283FE
:101A70008181832B818378948BE797E00197F1F73D
:101A8000F89481816823618383E191E00197F1F704
:101A900080817894E3E6F6E03197F1F7382309F096
:101AA000F2CDE801A881A1119BC0F80179817111E3
:101AB000A0C0E8014281411195C0F8016B8161111C
:101AC0009AC0E801248121119CC0F8015D81511167
:101AD0009DC0E801968191119DC0F8018F8181110F
:101AE0009CC03085332309F4CECDEA2FEF70F0E0AF
:101AF000EA51FF4FB491A295AF70EA2FF0E0EA509F
:101B0000FF4FE491EB277E27E72FEF70F0E0EA51DB
:101B1000FF4FA49172957F70E72FF0E0EA50FF4FDE
:101B2000E491EA274E27E42FEF70F0E0EA51FF4FEF
:101B3000749142954F70E42FF0E0EA50FF4FE4912A
:101B4000E7276E27E62FEF70F0E0EA51FF4F449150
:101B500062956F70E62FF0E0EA50FF4FE491E427C2
:101B60002E27E22FEF70F0E0EA51FF4F44912295CB
:101B70002F70E22FF0E0EA50FF4FE491E4275E2758
:101B8000E52FEF70F0E0EA51FF4F249152955F701E
:101B9000E52FF0E0EA50FF4FE491E2279E27E92F7E
:101BA000EF70F0E0EA51FF4F249192959F70E92F7A
:101BB000F0E0EA50FF4FE491E2278E27E82FEF7024
:101BC000F0E0EA51FF4F949182958F70E82FF0E09A
:101BD000EA50FF4FE491E92781E03E1354CD54CD04
:101BE00079814A816B812C815D819E818F813885CD
:101BF0007CCF4A816B812481558196818781308594
:101C000074CF55819681878130856FCF9E818F817A
:101C100038856BCF8781308568CF388566CF2F9226
:101C20003F924F925F926F927F928F929F92AF926C
:101C3000BF92CF92DF92EF92FF920F931F93CF93B9
:101C4000DF93EC018B018D858823B9F01B861D86FF
:101C50001C8680E0DF91CF911F910F91FF90EF9054
:101C6000DF90CF90BF90AF909F908F907F906F90BC
:101C70005F904F903F902F9008953881E981FA81CD
:101C8000F8948181632F60958623818378942CE773
:101C900043E050E002C02150C9F2CA010197F1F7B8
:101CA00080818323C1F3F89482818623828381819A
:101CB000832B818378948BE797E00197F1F7F89471
:101CC00081816823618383E191E00197F1F780814D
:101CD0007894E3E6F6E03197F1F7382309F0B6CFD0
:101CE00060EFCE010E94760A81E0F12C812CEE2477
:101CF000E39467E070E023E230E04FEC50E097EDD2
:101D0000692E712C22242A94312CFFE0AF2EB12CA5
:101D10002AC0442009F47EC0FE01EF0DF11D93811D
:101D2000D82ED0949D2193839881E981FA81F894EB
:101D3000D280C92EC094DC20D282D180D92AD1820F
:101D4000D1011197F1F7D2809D2992837894F50102
:101D50003197F1F7E394880F11F4F39481E0B7E041
:101D6000BF1508F472C09881E981FA81F894D18096
:101D7000D92AD182D280992E9094D920D282DB01A7
:101D80001197F1F7D1809D209182D9011197F1F738
:101D900090807894FA013197F1F74880E981FA81CF
:101DA000F894D180D428D182D280542C5094D5205C
:101DB000D282DB011197F1F7D1805D205182D901E8
:101DC0001197F1F7E0814E227894FA013197F1F7FB
:101DD000992109F49ECF411038C0FE01EF0DF11D8D
:101DE0009381982B93839880E981FA81F89492816A
:101DF000D92CD0949D219283918199299183D901E5
:101E00001197F1F79281992992837894F301319790
:101E1000F1F7A0CF9B85E91668F4FE01EF0DF11DE7
:101E20009381D92ED822E9F6A8E0AE1508F0EC8609
:101E30008E2C76CFDD24D3949E11D12CFE01EF0D94
:101E4000F11D9381D110CDCFEFCFE0E4EE1508F076
:101E5000FDCE8B86882019F18B81882309F4F6CE7C
:101E6000D8018C938C8111968C9311978D81129649
:101E70008C9312978E8113968C9313978F8114965F
:101E80008C931497888515968C931597898516964B
:101E90008C9316978A8517968C9381E0DBCE81E030
:101EA0008D87DACFDF92EF92FF920F931F93CF933C
:101EB000DF93EC017B0100E010E0DD24D394E881A6
:101EC000F9810190F081E02DD7016D917D01B0E0A5
:101ED000EC3DFB0709F06AC0D88E9B8D8C8D98175E
:101EE00009F452C02B8D30E02F5F3F4F2F73332703
:101EF000922F03C00FB607FE21C08C8D9817D1F327
:101F00008B8DFE01E80FF11DE35AFF4F60839FB7F1
:101F1000F8942B8FEA89FB898081806280839FBF40
:101F20000F5F1F4F0230110551F6C801DF91CF91AD
:101F30001F910F91FF90EF90DF900895E889F98944
:101F4000808185FFDACF8C8DFE01E80FF11DE35A09
:101F5000FF4F80814C8D50E04F5F5F4F4F7355278F
:101F60004C8FEE89FF898083E889F98980818370AD
:101F7000806480834B8D8C8D4813BFCFEA89FB89A9
:101F800080818F7D8083B9CFE889F989808185FF41
:101F9000A9CF9FB7F894EE89FF896083E889F98912
:101FA00080818370806480839FBFBACFCE01099502
:101FB000892B09F0B5CFB9CFDF92EF92FF920F9343
:101FC0001F93CF93DF93EC017B0100E010E0DD2451
:101FD000D394E881F9810190F081E02DD7016D91D2
:101FE0007D01B0E0EC3DFB0709F06AC0D88E9B8D07
:101FF0008C8D981709F452C02B8D30E02F5F3F4F26
:102000002F733327922F03C00FB607FE21C08C8D8C
:102010009817D1F38B8DFE01E80FF11DE35AFF4FA6
:1020200060839FB7F8942B8FEA89FB898081806257
:1020300080839FBF0F5F1F4F0430110551F6C80109
:10204000DF91CF911F910F91FF90EF90DF90089556
:10205000E889F989808185FFDACF8C8DFE01E80F50
:10206000F11DE35AFF4F80814C8D50E04F5F5F4F71
:102070004F7355274C8FEE89FF898083E889F98952
:1020800080818370806480834B8D8C8D4813BFCF9B
:10209000EA89FB8980818F7D8083B9CFE889F989BE
:1020A000808185FFA9CF9FB7F894EE89FF8960836F
:1020B000E889F98980818370806480839FBFBACF6B
:1020C000CE010995892B09F0B5CFB9CFCF93DF9316
:1020D000DC01ED91FC9111970190F081E02DEB0175
:1020E0006881D0E0EC3DFD0709F08AC081E0589698
:1020F0008C9358975B969C915B975C968C915C97C0
:10210000981709F465C05B962C915B9730E02F5FC0
:102110003F4F2F733327922F03C00FB607FE20C007
:102120005C968C915C979817C1F35B968C915B974A
:10213000FD01E80FF11DE35AFF4F60839FB7F8944C
:102140005B962C935B975296ED91FC91539780810F
:10215000806280839FBF81E090E0DF91CF910895FE
:102160005096ED91FC915197808185FFD9CF5C9677
:102170008C915C97FD01E80FF11DE35AFF4F8081C0
:102180005C964C915C9750E04F5F5F4F4F735527C3
:102190005C964C935C975696ED91FC915797808393
:1021A0005096ED91FC91519780818370806480837B
:1021B0005B964C915B975C968C915C974813B0CF83
:1021C0005296ED91FC91539780818F7D8083A8CFAB
:1021D0005096ED91FC915197808185FF94CF9FB7E8
:1021E000F8945696ED91FC91579760835096ED9137
:1021F000FC91519780818370806480839FBFABCFB7
:102200000995892B09F0A7CF80E090E0A6CF90E058
:10221000FC01E45BFE4F2491FC01EC5DFE4F349128
:10222000FC01E05FFE4F84918823A1F0211118C0CA
:10223000E82FF0E0EE0FFF1FEE5BFE4FA591B4918B
:102240008FB7F894611107C09C91E32FE095E923C3
:10225000EC938FBF0895EC91E32BEC938FBFFACFF3
:10226000233029F160F02730E1F02830A1F024304C
:10227000F9F6909180009F7D90938000D9CF213016
:1022800031F02230A9F694B59F7D94BDD1CF94B59D
:102290009F7794BDCDCF9091B0009F7D9093B0007B
:1022A000C7CF9091B0009F779093B000C1CF90912D
:1022B00080009F7790938000BBCFCF93DF9390E017
:1022C000FC01EC5DFE4F2491FC01E05FFE4F849128
:1022D0008823B9F090E0880F991FFC01E85CFE4F5D
:1022E000A591B491FC01EE5BFE4FC591D49166239C
:1022F00059F06230A9F08FB7F894EC91E22BEC938F
:102300008FBFDF91CF9108959FB7F8948C91E22F02
:10231000E0958E238C932881E223E8839FBFF1CF41
:102320009FB7F8948C91322F309583238C93E8815A
:10233000E22BE8839FBFE5CF1F920F920FB60F925B
:1023400011242F933F938F939F93AF93BF938091CB
:10235000DF039091E003A091E103B091E20330919B
:10236000E30323E0230F2D3768F126E8230F0296BD
:10237000A11DB11D2093E3038093DF039093E0033D
:10238000A093E103B093E2038091DB039091DC031F
:10239000A091DD03B091DE030196A11DB11D8093D4
:1023A000DB039093DC03A093DD03B093DE03BF91C6
:1023B000AF919F918F913F912F910F900FBE0F90F2
:1023C0001F9018950196A11DB11DD4CFCF93DF9317
:1023D000CDB7DEB76B970FB6F894DEBF0FBECDBF9B
:1023E000789484B5826084BD84B5816084BD85B5F0
:1023F000826085BD85B5816085BD80916E008160FC
:1024000080936E00109281008091810082608093A1
:1024100081008091810081608093810080918000A3
:102420008160809380008091B10084608093B100CE
:102430008091B00081608093B00080917A008460C8
:1024400080937A0080917A00826080937A008091F4
:102450007A00816080937A0080917A00806880930E
:102460007A001092C10061E083E00E945D1161E09A
:102470008BE00E945D1161E08CE00E945D1161E0E3
:102480008DE00E945D1160E08EE00E945D1160E0D1
:102490008FE00E945D1160E081E10E945D1160E0CB
:1024A00083E00E94071160E08BE00E94071161E069
:1024B0008CE00E94071160E08DE00E940711E0911E
:1024C0006002F091610282E08083E0915C02F09111
:1024D0005D021082E0915E02F0915F0280E18083F4
:1024E00010926802E0916402F091650286E08083B8
:1024F000E0916202F0916302808180618083E091CB
:102500006202F0916302808188608083E0916202C0
:10251000F0916302808180688083E0916202F09193
:10252000630280818F7D808343EF52E062E771E038
:102530008CEF92E00E94FC09009769F0DC01149690
:102540002C9114972078246014962C9314972AE7E2
:1025500031E02D933C9343EF52E067E871E08CEF5C
:1025600092E00E94FC09FC01892B61F09481907833
:102570009860948382E090E0A0E0B0E08083918353
:10258000A283B383E091B903F091BA031386158651
:1025900014861286339687E0DF011D928A95E9F74B
:1025A0001092B7031092B803FE013A961F01A3E000
:1025B000CA2ED12CB7E08B2E912C13E2612E712CF8
:1025C0000FEC402E512C8BE7E82E87E0F82E03E12C
:1025D00011E0F3E6AF2EF6E0BF2E74C02A85E22F9D
:1025E000EF70F0E0EA51FF4F9491E22FE295EF7027
:1025F000F0E0EA50FF4FE4919E278B859827E92F62
:10260000EF70F0E0EA51FF4F849192959F70E92FAF
:10261000F0E0EA50FF4FE4918E279C858927E82F50
:10262000EF70F0E0EA51FF4F949182958F70E82FA0
:10263000F0E0EA50FF4FE4919E278D859827E92F1F
:10264000EF70F0E0EA51FF4F849192959F70E92F6F
:10265000F0E0EA50FF4FE4918E279E858927E82F0E
:10266000EF70F0E0EA51FF4F949182958F70E82F60
:10267000F0E0EA50FF4FE4919E278F859827E92FDD
:10268000EF70F0E0EA51FF4F849192959F70E92F2F
:10269000F0E0EA50FF4FE4918E2798898927E82FD0
:1026A000EF70F0E0EA51FF4F949182958F70E82F20
:1026B000F0E0EA50FF4FE491E92789898E1711F481
:1026C0000C94C81EB1018091B9039091BA030E9485
:1026D0000F0E811183CF8091B70390E090931E027B
:1026E00080931D0280E480937C0080917A00806456
:1026F00080937A0080917A0086FDFCCF80917800EB
:1027000080917900109228021092270240E44093B1
:102710007C0080917A00806480937A0080917A00B6
:1027200086FDFCCF809178002091790090E0922B7B
:1027300020911F0230912002820F931F909320025C
:1027400080931F0220912702309128022F5F3F4F74
:10275000309328022093270225303105C4F265E02A
:1027600070E00E945E297093200260931F029E0118
:102770002F5E3F4F3B8B2A8BBE016E5E7F4F7D8B62
:102780006C8B88248A94912C7FE0672E712CE3E275
:10279000EE2EF12C80914E0290914F0297FF02C0D5
:1027A0000C946D1D8536910514F40C94A11C84E6DF
:1027B00090E090934F0280934E0220914C02309112
:1027C0004D022436310511F00C948C1D80911C02B1
:1027D00081110C94921C80914A0290914B0220919D
:1027E0001A0230911B022817390711F010921C02AF
:1027F00090931B0280931A028FB7F8944091DF03E5
:102800005091E0036091E1037091E2038FBF8091EA
:10281000C7039091C803A091C903B091CA038A016C
:102820009B01081B190B2A0B3B0B8091CB0390914A
:10283000CC03092E000CAA0BBB0B081719072A079B
:102840003B0708F46AC04093C7035093C8036093E2
:10285000C9037093CA0380911C0220912902309110
:102860002A0281111BC080914A0290914B022817C5
:10287000390714F00C94111F2F5F3F4F30932A0239
:102880002093290260910C0170910D0180E797E17E
:102890000E945E297093CC036093CB0324363105EC
:1028A00014F40C94CB1D10924B0210924A028091AA
:1028B00021029091220220911F0230912002821762
:1028C000930714F00C94C71D20914E0230914F02D3
:1028D0002F5F3F4F30934F0220934E0221E0209311
:1028E0003502873C914014F40C94A11D80914E0256
:1028F00090914F02029790934F0280934E0281E095
:102900008093340280912502909126028E34934068
:1029100014F00C94AC1D109233028FB7F8944091D0
:10292000DF035091E0036091E1037091E2038FBFF8
:102930008091AA039091AB03A091AC03B091AD0339
:102940008A019B01081B190B2A0B3B0B8091AE03DC
:102950009091AF03092E000CAA0BBB0B08171907A7
:102960002A073B0708F448C14093AA035093AB03DE
:102970006093AC037093AD03E091B903F091BA0397
:1029800030810180F281E02DF8948181632F609580
:102990008623818378942CE743E050E002C02150E5
:1029A00001F1CA010197F1F780818323C1F3F89403
:1029B0008281862382838181382B318378948BE7CF
:1029C00097E00197F1F7F89481816823618383E1AF
:1029D00091E00197F1F78081789483E696E0019782
:1029E000F1F7A091B903B091BA0328E030E071E0AB
:1029F00047ED50E01DC0DC901196ED91FC911297CF
:102A0000F89492816D2D60959623928391819D29F2
:102A10009183C7010197F1F792818D2D892B8283D4
:102A20007894CA010197F1F7770F2150310901F12C
:102A3000872F8C7C01F7DC901196ED91FC91129719
:102A4000F89492816D2D60959623928391819D29B2
:102A50009183C4010197F1F792818D2D892B828397
:102A60007894C3010197F1F7770F2150310901F7ED
:102A7000F8941196ED91FC91129791818C9180952B
:102A8000892381831196ED91FC91129792818C910B
:102A900080958923828378941091B003A091B90323
:102AA000B091BA0328E030E071E047ED50E01DC07E
:102AB0000C911196ED91FC911297F8949281602FF0
:102AC0006095962392839181902B9183C701019702
:102AD000F1F79281802F892B82837894CA01019724
:102AE000F1F7770F2150310901F1872F847401F735
:102AF0000C911196ED91FC911297F8949281602FB0
:102B00006095962392839181902B9183C4010197C4
:102B1000F1F79281802F892B82837894C3010197EA
:102B2000F1F7770F2150310901F7111114C0F89412
:102B30001196ED91FC91129791818C91809589234A
:102B400081831196ED91FC91129792818C918095E1
:102B50008923828378948091B40381110C94F11DB0
:102B60001092280210922702A0901D02B0901E021F
:102B70001A141B040CF040C000E010E0B7EDCB2E9F
:102B8000D12C402EE091B903F091BA03138615863B
:102B90001486128611861086178216821582148278
:102BA0001382512CB1018091B9039091BA030E9414
:102BB0000F0E882339F0451411F40C94122353940A
:102BC000451480F7980160E070E08EEF92ECF80118
:102BD000EE0FFF1FEE0FFF1FEE5BFD4F6083718353
:102BE0008283938389010F5F1F4F10932802009304
:102BF00027020A151B052CF28FB7F8944091DF03CA
:102C00005091E0036091E1037091E2038FBF8091E6
:102C1000A4039091A503A091A603B091A7038A01F4
:102C20009B01081B190B2A0B3B0B8091A803909169
:102C3000A903092E000CAA0BBB0B081719072A07BA
:102C40003B0708F4DCC04093A4035093A5036093B2
:102C5000A6037093A70390917A0080917A00887FF1
:102C6000846080937A0080E480937C0080917A0075
:102C7000806480937A0080917A0086FDFCCF609119
:102C800078008091790090937A0070E0782B072E7D
:102C9000000C880B990B0E94E92A5B016C014090A3
:102CA0008803509089034114510411F40C94F31FCC
:102CB00080918303820124E0829F000D111D112465
:102CC000D8012D913D914D915C916091840370915B
:102CD000850380918603909187030E94CD2960939C
:102CE0008403709385038093860390938703F80190
:102CF000A082B182C282D38210918303F20124E0C8
:102D0000129FE00DF11D1124209184033091850361
:102D10004091860350918703608171818281938104
:102D20000E94CE2960938403709385038093860369
:102D3000909387031F5F1093830300918103101703
:102D400011F40C94291F10918203111133C7A09222
:102D50008E03B0928F03C0929003D0929103A09201
:102D60008A03B0928B03C0928C03D0928D0310170C
:102D700018F41F5F10938203809123029091240224
:102D800001969093240280932302019609F4C6C70A
:102D9000112309F4C0C7612F70E080E090E00E9429
:102DA000E92A9B01AC0160918403709185038091B5
:102DB0008603909187030E943F2A0E94B12A9B01BB
:102DC000309322022093210280911F0290912002D1
:102DD000B901681B790B072E000C880B990B0E9418
:102DE000E92A20E030E043EC5DE30E949E2B6093F3
:102DF0003A0270933B0280933C0290933D028FB75E
:102E0000F8944091DF035091E0036091E1037091E9
:102E1000E2038FBF80919E0390919F03A091A00336
:102E2000B091A1038A019B01081B190B2A0B3B0BD4
:102E30008091A2039091A303092E000CAA0BBB0B57
:102E4000081719072A073B0708F45BC040939E0345
:102E500050939F036093A0037093A10310922802E4
:102E60001092270243E490917A0080917A00887F43
:102E7000846080937A0040937C0080917A00806423
:102E800080937A0080917A0086FDFCCF8091780053
:102E90002091790090937A0090E0922B2091250266
:102EA00030912602820F931F909326028093250271
:102EB00020912702309128022F5F3F4F3093280244
:102EC000209327022530310574F265E070E00E94FE
:102ED0005E297093260260932502072E000C880B52
:102EE000990B0E94E92A23E333E343E35DE30E9465
:102EF0009E2B60933E0270933F028093400290931A
:102F000041028FB7F8944091DF035091E003609144
:102F1000E1037091E2038FBF809198039091990330
:102F2000A0919A03B0919B038A019B01081B190B86
:102F30002A0B3B0B80919C0390919D03092E000C62
:102F4000AA0BBB0B081719072A073B07E8F14093A8
:102F500098035093990360939A0370939B03209175
:102F60003A0230913B0240913C0250913D02609107
:102F70003E0270913F0280914002909141020E9476
:102F80009E2B5B016C0160914E0270914F02072EE7
:102F9000000C880B990B0E94E92A9B01AC01C60129
:102FA000B5010E949E2B5B016C0120E030E0A9017D
:102FB0000E943A2A87FDA3C6A0922F02B092300247
:102FC000C0923102D09232028FB7F8944091DF0361
:102FD0005091E0036091E1037091E2038FBF809113
:102FE000920390919303A0919403B09195038A0169
:102FF0009B01081B190B2A0B3B0B809196039091A8
:103000009703092E000CAA0BBB0B081719072A07F8
:103010003B0708F45CC04093920350939303609382
:103020009403709395030091080110910901A090F9
:103030002F02B0903002C0903102D0903202209125
:103040002B0230912C0240912D0250912E02C6018C
:10305000B5010E94CD2960933602709337028093A8
:1030600038029093390220E030E0A9010E94992BA8
:1030700018160CF0C3C68091040190910501080F49
:10308000191F109309010093080180912902909162
:103090002A02863491050CF46DC510934F020093FB
:1030A0004E02053611050CF454C784E690E0909367
:1030B000090180930801A0922B02B0922C02C092C9
:1030C0002D02D0922E0290930701809306018FB7B4
:1030D000F8944091DF035091E0036091E103709117
:1030E000E2038FBF8091ED029091EE02A091EF027A
:1030F000B091F0028A019B01081B190B2A0B3B0BB4
:103100008091F1029091F202092E000CAA0BBB0BE8
:10311000081719072A073B0708F4A6C34093ED02D6
:103120005093EE026093EF027093F002A0904A0277
:10313000B0904B0210910003812F8F7761F41078CB
:103140001062109300031092FD021092FC02109284
:10315000FF021092FE0215FF35C0C090FC02D09015
:10316000FD0214C06115710531F08FE891E00E94F5
:10317000312D892BB1F0D60115968C91882309F455
:103180007EC728E08202C00CD11C1124C114D104D6
:1031900009F475C7F60166817781F1E06F387F0722
:1031A00009F7F60184818078B7FC71C68860848352
:1031B000C501BB0CAA0BBB0B80839183A283B38395
:1031C00010910003A0904E02B0904F02812F8F7794
:1031D00061F410781062109300031092FD021092B7
:1031E000FC021092FF021092FE0215FF36C0C09042
:1031F000FC02D090FD0213C06115710531F08FE91A
:1032000091E00E94312D892BB9F0F6018581882348
:1032100009F411C7E8E08E02C00CD11C1124C114BE
:10322000D10409F408C7D60116966D917C911797C1
:10323000B1E06F397B0701F7F60184818078B7FC34
:103240003AC688608483C501BB0CAA0BBB0B808384
:103250009183A283B3831091000340910A0150919E
:103260000B0180910C0190910D01489F9001499FA5
:10327000300D589F300D1124032E000C440B550BBC
:1032800060E074E284EF90E00E9472292E8B3F8B05
:10329000488F598F812F8F7761F4107810621093C7
:1032A00000031092FD021092FC021092FF02109295
:1032B000FE0215FF3BC0C090FC02D090FD0214C07E
:1032C0006115710531F08BEA91E00E94312D892B57
:1032D000C1F0D60115968C91882309F4E2C6E8E086
:1032E0008E02C00CD11C1124C114D10409F4D9C61A
:1032F000D60116966D917C911797B1E06B3A7B07DA
:10330000F9F6F6016E897F89888D998D97FDE7C55D
:1033100084818078886084838E899F89A88DB98D07
:1033200080839183A283B383109100036091420252
:103330007091430280914402909145026E8B7F8B85
:10334000888F998F812F8F7761F410781062109396
:1033500000031092FD021092FC021092FF021092E4
:10336000FE0215FF34C0C090FC02D090FD0213C0D5
:103370006115710531F088EB91E00E94312D892BA8
:10338000B9F0F6018581882309F467C6E8E08E026A
:10339000C00CD11C1124C114D10409F45EC6D6019D
:1033A00016966D917C911797B1E0683B7B0701F70A
:1033B000F601848180788C6084836E897F89888D12
:1033C000998D608371838283938310910003809130
:1033D0003E0290913F02A0914002B09141028E8B3B
:1033E0009F8BA88FB98F812F8F7761F4107810622F
:1033F000109300031092FD021092FC021092FF0243
:103400001092FE0215FF35C0C090FC02D090FD0264
:1034100014C06115710531F08EEB91E00E94312DE1
:10342000892BC1F0D60115968C91882309F4F1C53A
:10343000E8E08E02C00CD11C1124C114D10409F49F
:10344000E8C5D60116966D917C911797B1E06E3B59
:103450007B07F9F6F601848180788C6084836E891D
:103460007F89888D998D6083718382839383109186
:10347000000380913A0290913B02A0913C02B091EE
:103480003D028E8B9F8BA88FB98F812F8F7761F430
:1034900010781062109300031092FD021092FC024B
:1034A0001092FF021092FE0215FF34C0C090FC0281
:1034B000D090FD0213C06115710531F08CEC91E0E4
:1034C0000E94312D892BB9F0F6018581882309F4FA
:1034D0008EC5E8E08E02C00CD11C1124C114D104A9
:1034E00009F485C5D60116966D917C911797B1E0C8
:1034F0006C3C7B0701F7F601848180788C608483C3
:103500006E897F89888D998D60837183828393838F
:10351000109100038091360290913702A0913802F9
:10352000B09139028E8B9F8BA88FB98F812F8F77A7
:1035300061F410781062109300031092FD02109253
:10354000FC021092FF021092FE0215FF35C0C090DF
:10355000FC02D090FD0214C06115710531F087EDB9
:1035600091E00E94312D892BC1F0D60115968C91E6
:10357000882309F426C5E8E08E02C00CD11C112472
:10358000C114D10409F41DC5D60116966D917C9124
:103590001797B1E0673D7B07F9F6F60184818078E3
:1035A0008C6084836E897F89888D998D6083718317
:1035B0008283938310910003812F8F7761F41078B9
:1035C0001062109300031092FD021092FC02109200
:1035D000FF021092FE0215FF30C0C090FC02D09096
:1035E000FD0213C06115710531F083EE91E00E9478
:1035F000312D892BB9F0F6018581882309F4CFC4D8
:10360000E8E08E02C00CD11C1124C114D10409F4CD
:10361000C6C4D60116966D917C911797B1E0633EB2
:103620007B0701F7F601848180788C6084831082A7
:103630001182128213821091000300913502812FB2
:103640008F7761F410781062109300031092FD02DE
:103650001092FC021092FF021092FE0215FF34C07D
:10366000C090FC02D090FD0214C06115710531F0CC
:1036700081EF91E00E94312D892BC1F0D601159682
:103680008C91882309F479C4E8E08E02C00CD11C27
:103690001124C114D10409F470C4D60116966D9199
:1036A0007C911797B1E0613F7B07F9F6F6018481C1
:1036B00080788660848310E020E030E0008311830E
:1036C000228333831091000300913402812F8F777E
:1036D00061F410781062109300031092FD021092B2
:1036E000FC021092FF021092FE0215FF33C0C09040
:1036F000FC02D090FD0213C06115710531F08BEF13
:1037000091E00E94312D892BB9F0F6018581882343
:1037100009F421C4E8E08E02C00CD11C1124C114AC
:10372000D10409F418C4D60116966D917C911797AF
:10373000B1E06B3F7B0701F7F601848180788660FA
:10374000848310E020E030E0008311832283338300
:1037500010910003D0903302812F8F7761F410789D
:103760001062109300031092FD021092FC0210925E
:10377000FF021092FE0215FF33C00091FC0210916F
:10378000FD0214C06115710531F085E092E00E94E0
:10379000312D892BC1F0D80115968C91882309F41D
:1037A00092C4E8E08E02000D111D112401151105CF
:1037B00009F489C4D80116966D917C911797B2E0EF
:1037C00065307B07F9F6F801848180788660848310
:1037D0008D2D90E0A0E0B0E080839183A283B3833D
:1037E00060E572E07A8369831C821B82BE016F5F91
:1037F0007F4F8CEF92E00E94DF03AFE0B2E051E038
:103800004D915093680290916B0280916C02E0910F
:103810006002F0916102981709F470C020916B0268
:1038200030E02F5F3F4F2F733327922F03C00FB627
:1038300007FE33C080916C029817C9F3E0916B02C8
:10384000F0E0E355FD4F40839FB7F89420936B025F
:10385000E0916202F09163028081806280839FBF69
:1038600072E0A331B70761F680E090E0892B11F494
:103870000C94CA138091690220916A0290E0805CE6
:103880009F4F821B91098F739927892B11F40C94F8
:10389000CA130E9400000C94CA13808185FFCACF0E
:1038A000E0916C02F0E0E355FD4F808160916C0285
:1038B00070E06F5F7F4F6F73772760936C02E091CA
:1038C0006602F09167028083E0916002F0916102EC
:1038D000808183708064808360916B0280916C0230
:1038E000681307C0E0916202F091630280818F7DCE
:1038F0008083E0916002F09161029CCF808185FF1E
:103900008DCF9FB7F894E0916602F09167024083F3
:10391000E0916002F0916102808183708064808315
:103920009FBF9ECF80914A0290914B02009709F071
:10393000E6C084E690E090934B0280934A020C9498
:10394000EF1320914C0230914D028217930711F42E
:103950000C94E613009709F4CCC08333910514F05E
:103960000C944527823091050CF4DCC0843091051D
:103970000CF408C6883091050CF407C68E3091050A
:103980000CF4E8C58E30910509F4F3C50F9709F4DE
:10399000F3C586E090E090931702809316022333DC
:1039A00031050CF4C2C044E650E0421B530B1092A8
:1039B000190210921802423051050CF4BFC0443075
:1039C00051050CF4DCC5483051050CF4C6C54E3029
:1039D00051050CF4C5C54E30510509F4C4C54F302E
:1039E000510509F4C3C546E050E0509319024093D5
:1039F00018025093150240931402232B59F483EAC2
:103A00008093B000809116029091170240911402A9
:103A10005091150284179507E9F1FC01EE0FFF1F85
:103A2000880F991F880F991F880F991FDF01A80F12
:103A3000B91FAC5EBE4F12962D913C911397203466
:103A4000310509F47EC22032310509F454C328E05F
:103A500030E030930B0120930A012AE02093B1005B
:103A60008E0F9F1FFC01EC5EFE4F84819581809339
:103A70000C0190930D0146815781608571854093BB
:103A80000001509301016093020170930301815082
:103A90008093B30060914E0270914F02072E000C8C
:103AA000880B990B0E94E92A2091000130910101B5
:103AB00040910201509103010E949E2B0E94B12A65
:103AC00061506093B40080914E0290914F029093A8
:103AD0004D0280934C020C94E61310924F02109208
:103AE0004E0280914C0290914D02892B11F40C945E
:103AF000E6138091B0008F758093B000E4CF8436D8
:103B0000910511F00C94EF1310924B0210924A029F
:103B100080E090E00C94EF1380E090E0823091051B
:103B20000CF024CF80E090E036CF10921902109272
:103B30001802A901423051050CF041CF40E050E09D
:103B400058CF1092340280912502909126028E3433
:103B5000934014F40C948B1480914E0290914F0278
:103B6000029690934F0280934E0281E0809333023D
:103B70000C948D14909309018093080197FF9BCAC0
:103B8000109209011092080180E090E094CA10920E
:103B900035020C947114121613060CF0B9C12634B8
:103BA000310514F00C94571430934F0220934E02B9
:103BB0000C94571420918A0330918B0340918C030D
:103BC00050918D03C601B5010E943A2A87FF45C175
:103BD000A0928A03B0928B03C0928C03D0928D0383
:103BE000C6C8E091B3038091B503882329F0809182
:103BF000B003882309F408C3E950E33008F085C115
:103C0000F0E0EE0FFF1FE65AFE4F808191815C01CC
:103C1000990FCC08DD088091B103811166C29FB76E
:103C2000F8944091DB035091DC036091DD037091C7
:103C3000DE0386B5A89B06C08F3F21F04F5F5F4F24
:103C40006F4F7F4F9FBF762F652F542F4427480F0C
:103C5000511D611D711D440F551F661F771F440FB5
:103C6000551F661F771FA114B104C104D104D1F1FF
:103C70003FB7F8948091DB039091DC03A091DD03C2
:103C8000B091DE0326B5A89B05C02F3F19F0019621
:103C9000A11DB11D3FBFBA2FA92F982F8827820FD2
:103CA000911DA11DB11D880F991FAA1FBB1F880F51
:103CB000991FAA1FBB1F841B950BA60BB70B883E31
:103CC0009340A105B105A0F221E0A21AB108C108F4
:103CD000D10848515C4F6F4F7F4FA114B104C1040C
:103CE000D10431F68091B103882311F40C94B015FE
:103CF00061E08091B2030E9407110C94B015D601C7
:103D0000C501B05880932F0290933002A0933102E6
:103D1000B093320259C920E030E052C8112309F4AF
:103D20000BC11092840310928503109286031092A7
:103D30008703A12CB12C650100E0D2012D913D91AA
:103D40004D915D912D01C601B5010E94CE295B0107
:103D50006C01609384037093850380938603909332
:103D600087030F5F0113E9CF602F70E080E090E0E0
:103D70000E94E92A9B01AC01C601B5010E943F2ABD
:103D80000E94B12A9B0170932202609321021CC8F9
:103D90008091B7038F5F8093B703283241F008F01A
:103DA000BEC0203121F0223211F00C9462138091B8
:103DB000B8038F5F8093B8038091B003882311F418
:103DC0000C944D272031C1F0BE016F5F7F4FC101C0
:103DD0000E94EE0A882309F4E4C38D818F3311F425
:103DE0000C94E62710F40C94EA278F3511F40C9408
:103DF000E8278F3709F0D5C38CE0D4C38091040144
:103E00009091050122273327281B390B3093050198
:103E100020930401081B190B10930901009308015A
:103E200034C9821793070CF082C0215031093093B6
:103E30002A022093290260910C0170910D0180E10A
:103E400097E20E945E297093CC036093CB030C949D
:103E50004E14109283030C94A31620918E0330917C
:103E60008F034091900350919103C601B5010E94C8
:103E7000992B181614F00C94B716A0928E03B092DA
:103E80008F03C0929003D09291030C94B7168A606E
:103E90008483C501BB0CAA0BBB0BB095A095909574
:103EA00081959F4FAF4FBF4F80839183A283B38390
:103EB0001091000387C98A608483C501BB0CAA0BDB
:103EC000BB0BB095A095909581959F4FAF4FBF4F7D
:103ED00080839183A283B38310910003BEC9848140
:103EE00080788A6084838E899F89A88DB98DB095EA
:103EF000A095909581959F4FAF4FBF4F8083918341
:103F0000A283B3831091000311CA8EEE92E07FCE9C
:103F100084E690E090934B0280934A0245CE2B3387
:103F200009F445CF223411F00C94621340CF81E0A4
:103F300080931C020C944E1460E070E080EC9FE7CC
:103F40001FCF30930B0120930A012CE02093B10086
:103F500087CDC80113CE8091F7029091F80220918D
:103F6000F5023091F602285F3F4F8217930708F061
:103F7000EAC181E08093FB02EDCB8091F702909142
:103F8000F8022091F5023091F602285F3F4F821728
:103F9000930708F082C181E08093FB0295CB80916A
:103FA000F7029091F8022091F5023091F602285F15
:103FB0003F4F8217930708F09BC181E08093FB027B
:103FC0003CCB8091F7029091F8022091F50230915C
:103FD000F602285F3F4F8217930708F094C081E0F4
:103FE0008093FB02E9CA109182030C94BC16809165
:103FF000F7029091F8022091F5023091F602285FC5
:104000003F4F8217930708F0C9C181E08093FB02FC
:1040100081CA8091F7029091F8022091F5023091C7
:10402000F602285F3F4F8217930708F097C081E0A0
:104030008093FB021ECA8091F7029091F8022091B2
:10404000F5023091F602285F3F4F8217930708F080
:10405000D0C181E08093FB0200C98091F70290916A
:10406000F8022091F5023091F602285F3F4F821747
:10407000930708F09EC081E08093FB02A8C980915D
:10408000F7029091F8022091F5023091F602285F34
:104090003F4F8217930708F0D9C181E08093FB025C
:1040A00091C88091F7029091F8022091F502309129
:1040B000F602285F3F4F8217930708F0F4C181E0B2
:1040C0008093FB0233C98091F7029091F80220910E
:1040D000F5023091F602285F3F4F8217930708F0F0
:1040E0000FC281E08093FB027BCB60E08091B20342
:1040F0000E94071194CD30930B0120930A012BE00D
:104100002093B100ADCCFC013897F093F802E09316
:10411000F702309709F450CAA091FE02B091FF0255
:10412000109709F4A9C69F012A1B3B0B35952795CB
:10413000359527953595279515962C93F093FF0285
:10414000E093FE0215821482DC01129727ED31E024
:104150002D933C93309709F021CA2CCAFC01389763
:10416000F093F802E093F702309709F482C9A09126
:10417000FE02B091FF02109709F475C69F012A1B39
:104180003B0B3595279535952795359527951596AC
:104190002C93F093FF02E093FE0215821482DC015F
:1041A00012972EEB31E02D933C93309709F053C9D1
:1041B0005EC9FC013897F093F802E093F70230975C
:1041C00009F405C9A091FE02B091FF02109709F40D
:1041D00041C69F012A1B3B0B3595279535952795A1
:1041E0003595279515962C93F093FF02E093FE02E8
:1041F00015821482DC01129728EB31E02D933C9359
:10420000309709F0D6C8E1C88FB7F894A090DF03C3
:10421000B090E003C090E103D090E2038FBF67E06D
:1042200070E04FEC50E0E091B903F091BA03908157
:104230000180F281E02DF8948181892B8183228194
:10424000892F809528232283DB011197F1F72181A3
:1042500082238183D7011197F1F780817894FA0145
:104260003197F1F7892311F00C94B0152FB7F8941A
:104270008091DF039091E003A091E103B091E2030C
:104280002FBF8A199B09AC09BD098E3E9240A1053A
:10429000B10508F4C8CF0C94B015FC013897F09321
:1042A000F802E093F702309709F40ECAA091FE02DB
:1042B000B091FF02109709F4C4C59F012A1B3B0B64
:1042C00035952795359527953595279515962C93F2
:1042D000F093FF02E093FE0215821482DC01129734
:1042E00021EF31E02D933C93309709F0E0C9EAC902
:1042F000FC013897F093F802E093F702309709F445
:104300009CC9A091FE02B091FF02109709F46FC101
:104310009F012A1B3B0B359527953595279535959C
:10432000279515962C93F093FF02E093FE021582D9
:104330001482DC01129723EE31E02D933C933097E9
:1043400009F071C978C9FC013897F093F802E0933D
:10435000F702309709F4FEC9A091FE02B091FF0266
:10436000109709F43BC19F012A1B3B0B35952795FC
:10437000359527953595279515962C93F093FF0243
:10438000E093FE0215821482DC0112972BEF31E0DC
:104390002D933C93309709F0D0C9DAC9FC013897C6
:1043A000F093F802E093F702309709F4B3C8A091B4
:1043B000FE02B091FF02109709F407C19F012A1B6A
:1043C0003B0B35952795359527953595279515966A
:1043D0002C93F093FF02E093FE0215821482DC011D
:1043E00012972CEC31E02D933C93309709F084C860
:1043F0008FC8FC013897F093F802E093F7023097EA
:1044000011F40C942D19A091FE02B091FF021097A7
:1044100009F4D2C09F012A1B3B0B35952795359592
:1044200027953595279515962C93F093FF02E093E9
:10443000FE0215821482DC0112972FE931E02D93E0
:104440003C93309711F00C941D1946CDFC01389720
:10445000F093F802E093F702309711F40C94E2180D
:10446000A091FE02B091FF02109709F4D2C09F0103
:104470002A1B3B0B3595279535952795359527951F
:1044800015962C93F093FF02E093FE02158214829E
:10449000DC0112976FE871E06D937C93309711F017
:1044A0000C94D21805CDFC013897F093F802E093F4
:1044B000F702309711F40C949619A091FE02B09176
:1044C000FF02109709F49CC09F012A1B3B0B3595F6
:1044D0002795359527953595279515962C93F09327
:1044E000FF02E093FE0215821482DC0112972BEA90
:1044F00031E02D933C93309711F00C94821902CD4A
:10450000FC013897F093F802E093F702309709F432
:1045100067C9A091FE02B091FF021097C9F19F01F7
:104520002A1B3B0B3595279535952795359527956E
:1045300015962C93F093FF02E093FE0215821482ED
:10454000DC01129725E032E02D933C93309709F07F
:104550003BC946C983E090E01ECA42E050E045CA2C
:1045600043E050E042CA44E050E03FCA45E050E03A
:104570003CCA84E090E00FCA85E090E00CCA41E0BC
:1045800050E033CA81E090E006CA82E090E003CABE
:10459000F093FD02E093FC02F093FF02E093FE0231
:1045A000CDCF80E09091B303981710F00C94621374
:1045B0008093B3030C94E912F093FD02E093FC02A4
:1045C000F093FF02E093FE0234CFF093FD02E093FC
:1045D000FC02F093FF02E093FE02FFCEF093FD0297
:1045E000E093FC02F093FF02E093FE02CBCEF09347
:1045F000FD02E093FC02F093FF02E093FE0297CEEF
:10460000F093FD02E093FC02F093FF02E093FE02C0
:104610006ACFF093FD02E093FC02F093FF02E09377
:10462000FE0234CF3F8A2E8AD10180E09D918927F6
:10463000E82FEF70F0E0EA51FF4F9491E82FE295F8
:10464000EF70F0E0EA50FF4FE491892F8E276A89DE
:104650007B896A177B0751F7998998130C94DF15AA
:10466000E091B903F091BA0350810180F281E02D0D
:10467000F8948181652F60958623818378944CE737
:1046800023E030E003C0415009F403C3C90101979E
:10469000F1F780818523B9F3F894828186238283A0
:1046A0008181852B818378948BE797E00197F1F7DF
:1046B000F89481816823618383E191E00197F1F7A8
:1046C00080817894E3E6F6E03197F1F7582309F01A
:1046D000E0C2A091B903B091BA0328E030E041E014
:1046E0001DC0BC901196ED91FC911297F8949281A7
:1046F0005B2D50959523928391819B299183C701CE
:104700000197F1F792818B2D892B82837894C601D2
:104710000197F1F7440F2150310901F1842F85757C
:1047200001F7BC901196ED91FC911297F89492814B
:104730005B2D50959523928391819B299183C40190
:104740000197F1F792818B2D892B82837894C30195
:104750000197F1F7440F2150310901F7F8941196B0
:10476000ED91FC91129791818C91809589238183A1
:104770001196ED91FC91129792818C9180958923ED
:104780008283789428014E895F89FA01A190AF0154
:1047900028E030E011E01DC00C911196ED91FC91E4
:1047A0001297F8949281602F60959623928391815D
:1047B000902B9183C7010197F1F79281802F892B6C
:1047C00082837894C6010197F1F7110F21503109C6
:1047D00001F18A2D812301F70C911196ED91FC9145
:1047E0001297F8949281602F60959623928391811D
:1047F000902B9183C4010197F1F79281802F892B2F
:1048000082837894C3010197F1F7110F2150310988
:1048100001F7F8941196ED91FC91129791818C918A
:104820008095892381831196ED91FC911297928155
:104830008C9180958923828378942C893D892417D3
:10484000350709F0A2CF8201A091B903B091BA0354
:1048500028E030E051E01DC0BC901196ED91FC9134
:104860001297F89492814B2D4095942392839181D5
:104870009B299183C7010197F1F792818B2D892B99
:1048800082837894C6010197F1F7550F21503109C1
:1048900001F1852F8E7B01F7BC901196ED91FC9173
:1048A0001297F89492814B2D409594239283918195
:1048B0009B299183C4010197F1F792818B2D892B5C
:1048C00082837894C3010197F1F7550F2150310984
:1048D00001F7F8941196ED91FC91129791818C91CA
:1048E0008095892381831196ED91FC911297928195
:1048F0008C918095892382837894AE014F5F5F4FBE
:1049000027E030E08FEC90E01F8B0E8BE091B90335
:10491000F091BA03508001811281F894D801119668
:104920006C911197652911966C93119712966C9161
:104930001297B52CB0946B2112966C93D9011197F4
:10494000F1F7D80111966C911197B6221196BC928D
:10495000D7011197F1F7D8016C917894DC01119788
:10496000F1F7652111E009F410E0A0806181728106
:104970007B8F6A8FF894AA8DBB8D11966C911197DD
:104980006A2911966C93119712966C9112975A2C72
:104990005094652112966C93D9011197F1F7AA8D65
:1049A000BB8D11966C911197562211965C92D7018E
:1049B0001197F1F7AA8DBB8D6C917894DC0111975A
:1049C000F1F7A62209F01260A080618172817B8FCD
:1049D0006A8FF894AA8DBB8D11966C9111976A29F4
:1049E00011966C93119712966C9112975A2C5094C1
:1049F000652112966C93D9011197F1F7AA8DBB8DA1
:104A000011966C911197562211965C92D7011197CD
:104A1000F1F7AA8DBB8D6C917894DC011197F1F7B9
:104A2000A62209F01460A080618172817B8F6A8F59
:104A3000F894AA8DBB8D11966C9111976A291196E5
:104A40006C93119712966C9112975A2C5094652181
:104A500012966C93D9011197F1F7AA8DBB8D11961F
:104A60006C911197562211965C92D7011197F1F72C
:104A7000AA8DBB8D6C917894DC011197F1F7A62279
:104A800009F01860A080618172817B8F6A8FF89431
:104A9000AA8DBB8D11966C9111976A2911966C9312
:104AA000119712966C9112975A2C50946521129678
:104AB0006C93D9011197F1F7AA8DBB8D11966C916A
:104AC0001197562211965C92D7011197F1F7AA8D92
:104AD000BB8D6C917894DC011197F1F7A62209F057
:104AE0001061A080618172817B8F6A8FF894AA8D9A
:104AF000BB8D11966C9111976A2911966C93119741
:104B000012966C9112975A2C5094652112966C93C0
:104B1000D9011197F1F7AA8DBB8D11966C91119760
:104B2000562211965C92D7011197F1F7AA8DBB8D91
:104B30006C917894DC011197F1F7A62209F01062CC
:104B4000A080618172817B8F6A8FF894AA8DBB8D62
:104B500011966C9111976A2911966C931197129680
:104B60006C9112975A2C5094652112966C93D9012E
:104B70001197F1F7AA8DBB8D11966C911197562262
:104B800011965C92D7011197F1F7AA8DBB8D6C91AC
:104B90007894DC011197F1F7A62209F01064708176
:104BA0000180F281E02DF8946181672B6183A281FD
:104BB000672F6095A623A283D9011197F1F7A181F0
:104BC0006A236183D7011197F1F760817894FC0122
:104BD0003197F1F7672309F01068FA011193AF01DB
:104BE000E215F30509F092CE0E891F89E091B90311
:104BF000F091BA0330810180F281E02DF894818137
:104C0000632F60958623818378942CE743E050E0FE
:104C100003C0215009F43DC0CA010197F1F780811A
:104C20008323B9F3F8948281862382838181832B45
:104C3000818378948BE797E00197F1F7F89481816D
:104C40006823618383E191E00197F1F78081789493
:104C5000E3E6F6E03197F1F73823D9F489819A81B8
:104C60002B81811124C0911122C04C81211120C0BF
:104C70003D816E817F815885A98541111EC031110A
:104C80001CC061111AC0711118C0511116C0A111B8
:104C900014C0A0901D02B0901E02209127023091F6
:104CA000280260E070E08EEF92EC0C94E7154C81E6
:104CB0003D816E817F815885A985E82FEF70F0E0F6
:104CC000EA51FF4FB491E82FE295EF70F0E0EA501F
:104CD000FF4FE491BE27B927EB2FEF70F0E0EA51C8
:104CE000FF4FB490B295BF70EB2FF0E0EA50FF4F4A
:104CF000E491EB252E27E22FEF70F0E0EA51FF4F11
:104D0000B49122952F70E22FF0E0EA50FF4FE4912A
:104D1000EB274E27E42FEF70F0E0EA51FF4F24918C
:104D200042954F70E42FF0E0EA50FF4FE491E22704
:104D30003E27E32FEF70F0E0EA51FF4F24913295C8
:104D40003F70E32FF0E0EA50FF4FE491E2276E2737
:104D5000E62FEF70F0E0EA51FF4F249162956F70FB
:104D6000E62FF0E0EA50FF4FE491E227372F3E278D
:104D7000E32FEF70F0E0EA51FF4F249132953F703E
:104D8000E32FF0E0EA50FF4FE4912E272527E22F92
:104D9000EF70F0E0EA51FF4F349122952F70E22F2F
:104DA000F0E0EA50FF4FE491E327AE1372CF292FD2
:104DB00030E0322F2227330F330F330F90E0880F6C
:104DC000991F880F991F880F991F282B392B8A85C7
:104DD0008031E1F0B9016138F4EE7F070CF459CF6E
:104DE000072E000C880B990B0E94E92A20E030E086
:104DF00040E05CE30E949E2BA0901D02B0901E023A
:104E000020912702309128020C94E715552311F3C5
:104E1000452F50E0CA01871B91099695982F882746
:104E200097958795BA010E945E2960527109207F8B
:104E3000220F331F220F331F220F331F620F731FE6
:104E4000CACFF093FD02E093FC02F093FF02E093DF
:104E5000FE0242CAF093FD02E093FC02F093FF02CF
:104E6000E093FE02C5C9F093FD02E093FC02F093CB
:104E7000FF02E093FE0291C9F093FD02E093FC0271
:104E8000F093FF02E093FE025DC944E650E0DA01D0
:104E9000A81BB90BCD010C94B21CE091B903F091A1
:104EA000BA0320810180F281E02DF8949181822F54
:104EB00080959823918378949CE702C09150E9F003
:104EC000D6011197F1F730813223C1F3F894928122
:104ED000982392839181922B91837894D701119793
:104EE000F1F7F894918189238183C8010197F1F743
:104EF00080817894C5010197F1F7B1018091B903E0
:104F00009091BA030E94020364EB8091B9039091DF
:104F1000BA030E94760AE091B903F091BA03908136
:104F20000180F281E02DF8948181892B8183228197
:104F3000892F809528232283D4011197F1F72181AD
:104F400082238183D3011197F1F78081982378948C
:104F5000F2013197F1F7E091B903F091BA03308192
:104F60000180F281E02DF8942181832F8095282300
:104F7000218378942CE702C02150E9F0D6011197E3
:104F8000F1F740814323C1F3F8942281282322833F
:104F90002181232B21837894D7011197F1F7F8947D
:104FA000218182238183D8011197F1F78081789440
:104FB000F5013197F1F7992319F02A850C94E21E37
:104FC00091E09093B0032A850C94E21E8AE0EACA2D
:104FD0008BE0E8CA8F3109F0E4CA89E0E3CA809126
:104FE000880390918903009711F00C94A32C0895E5
:104FF000109253021092520288EE93E0A0E0B0E0CB
:105000008093540290935502A0935602B093570296
:1050100084E691E0909351028093500285EC90E0F9
:1050200090935D0280935C0284EC90E090935F0229
:1050300080935E0280EC90E0909361028093600226
:1050400081EC90E0909363028093620282EC90E0A6
:10505000909365028093640286EC90E090936702DF
:10506000809366021092690210926A0210926B029B
:1050700010926C0281E093E09093F4028093F3022B
:105080009093F6028093F50281E893E09093F80202
:105090008093F7029093FA028093F9021092FB0238
:1050A000809100038078809300031092ED021092AB
:1050B000EE021092EF021092F00284EF91E09093D2
:1050C000F2028093F10260E082E00E945D11E6E26C
:1050D000F1E0E491E093CD03E2E1F1E0E491F0E06E
:1050E000EE0FFF1FEA5FFE4F859194919093CF03DF
:1050F0008093CE031092D8031092DA031092D90352
:105100001092D70387E0E0EDF3E0DF011D928A956E
:10511000E9F71092C6031092C5031092B1038DEC0B
:1051200093E09093BA038093B9031092B70310925F
:10513000B8031092B00389E08093B30381E08093B9
:10514000B4038093B5038093B6031092AA03109220
:10515000AB031092AC031092AD0388EE93E09093F2
:10516000AF038093AE031092A4031092A503109294
:10517000A6031092A70381E090E09093A903809387
:10518000A80310929E0310929F031092A003109206
:10519000A1038AE090E09093A3038093A20310926E
:1051A00098031092990310929A0310929B03909384
:1051B0009D0380939C03109292031092930310928C
:1051C00094031092950382E390E090939703809369
:1051D000960380E18093810380E490E00E940B2C91
:1051E0009C019093890380938803892B09F443C021
:1051F000109282031092830310928403109285030D
:10520000109286031092870380E090E0A0ECBFE745
:1052100080938A0390938B03A0938C03B0938D03A8
:1052200080938E0390938F03A0939003B093910388
:1052300090E19150F901B4E09B9FE00DF11D112424
:1052400010821182128213829111F3CF60910C01AE
:1052500070910D0180E197E20E945E291092C703D0
:105260001092C8031092C9031092CA037093CC0322
:105270006093CB03089510928103109282031092E1
:105280008303109284031092850310928603109278
:10529000870380E090E0A0ECBFE780938A039093BF
:1052A0008B03A0938C03B0938D0380938E03909314
:1052B0008F03A0939003B0939103C8CF97FB072E61
:1052C00016F4009407D077FD09D00E94972907FCB7
:1052D00005D03EF4909581959F4F08957095619506
:1052E0007F4F0895052E97FB1EF400940E94892994
:1052F00057FD07D00E94AB2907FC03D04EF40C9455
:10530000892950954095309521953F4F4F4F5F4FDC
:10531000089590958095709561957F4F8F4F9F4F21
:105320000895EE0FFF1F0590F491E02D0994AA1B3C
:10533000BB1B51E107C0AA1FBB1FA617B70710F080
:10534000A61BB70B881F991F5A95A9F780959095B2
:10535000BC01CD010895A1E21A2EAA1BBB1BFD01C1
:105360000DC0AA1FBB1FEE1FFF1FA217B307E40744
:10537000F50720F0A21BB30BE40BF50B661F771F9C
:10538000881F991F1A9469F760957095809590957C
:105390009B01AC01BD01CF0108955058BB27AA273E
:1053A0000E94E5290C945F2B0E94512B38F00E943B
:1053B000582B20F039F49F3F19F426F40C944E2B0F
:1053C0000EF4E095E7FB0C94482BE92F0E94702B1C
:1053D00058F3BA17620773078407950720F079F42A
:1053E000A6F50C94922B0EF4E0950B2EBA2FA02D5F
:1053F0000B01B90190010C01CA01A0011124FF2782
:10540000591B99F0593F50F4503E68F11A16F0407C
:10541000A22F232F342F4427585FF3CF469537957B
:105420002795A795F0405395C9F77EF41F16BA0B40
:10543000620B730B840BBAF09150A1F0FF0FBB1FEE
:10544000661F771F881FC2F70EC0BA0F621F731F37
:10545000841F48F4879577956795B795F7959E3F94
:1054600008F0B0CF9395880F08F09927EE0F979525
:10547000879508950E94242B08F481E008950E94E6
:10548000532A0C945F2B0E94582B58F00E94512BEA
:1054900040F029F45F3F29F00C94482B51110C94F3
:1054A000932B0C944E2B0E94702B68F39923B1F32D
:1054B000552391F3951B550BBB27AA27621773073A
:1054C000840738F09F5F5F4F220F331F441FAA1FCE
:1054D000A9F335D00E2E3AF0E0E832D0915050408A
:1054E000E695001CCAF72BD0FE2F29D0660F771F38
:1054F000881FBB1F261737074807AB07B0E809F01E
:10550000BB0B802DBF01FF2793585F4F3AF09E3FA2
:10551000510578F00C94482B0C94932B5F3FE4F3E7
:10552000983ED4F3869577956795B795F7959F5FE5
:10553000C9F7880F911D9695879597F90895E1E031
:10554000660F771F881FBB1F621773078407BA0790
:1055500020F0621B730B840BBA0BEE1F88F7E095EB
:1055600008950E94B82A6894B1110C94932B089561
:105570000E94782B88F09F5798F0B92F9927B75140
:10558000B0F0E1F0660F771F881F991F1AF0BA95E7
:10559000C9F714C0B13091F00E94922BB1E0089588
:1055A0000C94922B672F782F8827B85F39F0B93F7A
:1055B000CCF3869577956795B395D9F73EF490959A
:1055C0008095709561957F4F8F4F9F4F0895E89418
:1055D00009C097FB3EF490958095709561957F4F3B
:1055E0008F4F9F4F9923A9F0F92F96E9BB279395E9
:1055F000F695879577956795B795F111F8CFFAF4F9
:10560000BB0F11F460FF1BC06F5F7F4F8F4F9F4F29
:1056100016C0882311F096E911C0772321F09EE887
:10562000872F762F05C0662371F096E8862F70E0ED
:1056300060E02AF09A95660F771F881FDAF7880FC7
:105640009695879597F90895990F0008550FAA0B1D
:10565000E0E8FEEF16161706E807F907C0F0121685
:105660001306E407F50798F0621B730B840B950B88
:1056700039F40A2661F0232B242B252B21F40895DD
:105680000A2609F4A140A6958FEF811D811D08957A
:1056900097F99F6780E870E060E008959FEF80ECE5
:1056A000089500240A941616170618060906089588
:1056B00000240A9412161306140605060895092EEE
:1056C0000394000C11F4882352F0BB0F40F4BF2B5D
:1056D00011F460FF04C06F5F7F4F8F4F9F4F08959D
:1056E00057FD9058440F551F59F05F3F71F0479593
:1056F000880F97FB991F61F09F3F79F08795089578
:10570000121613061406551FF2CF4695F1DF08C096
:10571000161617061806991FF1CF869571056105B3
:1057200008940895E894BB2766277727CB0197F95B
:1057300008950E94242B08F48FEF08950E94B12B46
:105740000C945F2B0E94512B38F00E94582B20F0B4
:10575000952311F00C94482B0C944E2B11240C948F
:10576000932B0E94702B70F3959FC1F3950F50E01F
:10577000551F629FF001729FBB27F00DB11D639F03
:10578000AA27F00DB11DAA1F649F6627B00DA11DA9
:10579000661F829F2227B00DA11D621F739FB00D4F
:1057A000A11D621F839FA00D611D221F749F3327BF
:1057B000A00D611D231F849F600D211D822F762F58
:1057C0006A2F11249F5750409AF0F1F088234AF035
:1057D000EE0FFF1FBB1F661F771F881F91505040A1
:1057E000A9F79E3F510580F00C94482B0C94932B05
:1057F0005F3FE4F3983ED4F3869577956795B79528
:10580000F795E7959F5FC1F7FE2B880F911D969541
:10581000879597F908950F931F93CF93DF93823065
:10582000910510F482E090E0E091E603F091E70347
:1058300020E030E0A0E0B0E0309719F140815181E4
:105840000281138148175907C8F08417950769F436
:10585000109731F012960C93129713961C9327C051
:105860000093E6031093E70322C02115310519F0D8
:105870004217530718F49A01BD01EF01DF01F80147
:10588000DBCF21153105F9F0281B390B2430310508
:1058900080F48A819B816115710521F0FB0193835E
:1058A000828304C09093E7038093E603FE0132965F
:1058B00044C0FE01E20FF31F8193919322503109FE
:1058C000398328833AC02091E4033091E503232BE8
:1058D00041F420911001309111013093E5032093A0
:1058E000E40320910E0130910F012115310541F49F
:1058F0002DB73EB74091120150911301241B350B77
:10590000E091E403F091E503E217F307A0F42E1B06
:105910003F0B2817390778F0AC014E5F5F4F241713
:10592000350748F04E0F5F1F5093E5034093E403A3
:105930008193919302C0E0E0F0E0CF01DF91CF913D
:105940001F910F910895CF93DF93009709F481C0C1
:10595000FC01329713821282A091E603B091E70313
:10596000109781F420813181820F931F2091E403ED
:105970003091E5032817390751F5F093E503E093DB
:10598000E40367C0ED0120E030E0CE17DF0740F40C
:105990004A815B819E0141155105F1F0EA01F5CF85
:1059A000D383C28340815181840F951FC817D907C3
:1059B00059F488819981840F951F02969183808381
:1059C0008A819B81938382832115310529F4F09389
:1059D000E703E093E6033DC0E901FB83EA834991D5
:1059E0005991C40FD51FEC17FD0761F48081918197
:1059F000840F951F0296E9019983888382819381A0
:105A00009B838A83E0E0F0E012968D919C9113973E
:105A1000009719F0FD01DC01F7CF8D919C91119752
:105A20009D012E5F3F4F820F931F2091E403309121
:105A3000E5032817390769F4309729F41092E70332
:105A40001092E60302C013821282B093E503A09382
:105A5000E403DF91CF91089581E090E0F8940C94F5
:105A60003A2DFB01DC018D91019080190110D9F3D1
:105A7000990B089510E0C1EBD0E004C0FE010E9434
:0E5A800091292196C23BD107C9F7F894FFCFB8
:105A8E00000000400100140014004000C800000097
:105A9E00E803200001004000C800000000400300A1
:105AAE002000C80000000040070020006400000035
:105ABE00803F0D000800C800000000400E000800E6
:105ACE0096000000C03F0F00080078009A99993F99
