:100000000C94B2000C94DA000C94DA000C94DA0030
:100010000C94DA000C94DA000C94DA000C94DA00F8
:100020000C94DA000C94DA000C94DA000C94DA00E8
:100030000C94DA000C94DA000C94DA000C94DA00D8
:100040000C948B110C94DA000C94D0020C94940252
:100050000C94DA000C94DA000C94DA000C94DA00B8
:100060000C94DA000C94DA007F047F049604960462
:100070008105040436050404CF0504049605040430
:100080000404040404040404040404040404040430
:100090000404040404040404040404040404040420
:1000A00004040404230604040404040404040404EF
:1000B0000404040404040404040404040404040400
:1000C00004040404040404040404040404040404F0
:1000D00004040404040404040404040404040404E0
:1000E000040404043004005EBCE2613FDD83C29C72
:1000F0007E20A3FD1F41009D23BE46DB65F88C11C9
:10010000AF32CA57E974000000002300260029001E
:1001100004040404040404040202020202020303AD
:1001200003030303010204081020408001020408B5
:100130001020010204081020000000002400270005
:100140002A0000000000250028002B000000000805
:10015000000201000003040700000000000000008E
:10016000BF27B62711241FBECFEFD8E0DEBFCDBF1B
:1001700012E0A0E0B1E0E8E1FAE502C005900D92DE
:10018000A231B107D9F723E0A2E1B2E001C01D928C
:10019000A53EB207E1F710E0C1EBD0E004C0219723
:1001A000FE010E945629C03BD107C9F70E94D51114
:1001B0000C94FF2C0C940000FC0181E0808F938D47
:1001C000848D981709F448C0238D30E02F5F3F4F8E
:1001D0002F733327922F03C00FB607FE17C0848DED
:1001E0009817D1F3838DDF01A80FB11DA35ABF4F1C
:1001F0006C939FB7F894238F0288F389E02D808158
:10020000806280839FBF81E090E00895A089B189DA
:100210008C9185FFE4CF848DDF01A80FB11DA35A17
:10022000BF4F8C91448D50E04F5F5F4F4F73552708
:10023000448FA689B7898C93A089B1898C918370EA
:1002400080648C93438D848D4813C9CFA289B38970
:100250008C918F7D8C93C3CFA089B1898C9185FFC0
:10026000B3CF9FB7F894A689B7896C930088F189BA
:10027000E02D80818370806480839FBF81E090E067
:100280000895BF92CF92DF92EF92FF920F931F9348
:10029000CF93DF934115510509F486C06A01EC0143
:1002A0007B0100E010E0BB24B394E881F981019068
:1002B000F081E02DD7016D917D01B0E0EC3DFB07B1
:1002C00009F06CC0B88E9B8D8C8D981709F454C0C2
:1002D0002B8D30E02F5F3F4F2F733327922F03C0BA
:1002E0000FB607FE23C08C8D9817D1F38B8DFE01BE
:1002F000E80FF11DE35AFF4F60839FB7F8942B8FEF
:10030000EA89FB898081806280839FBF0F5F1F4FD6
:10031000C016D10651F6C801DF91CF911F910F9100
:10032000FF90EF90DF90CF90BF900895E889F98912
:10033000808185FFD8CF8C8DFE01E80FF11DE35A37
:10034000FF4F80814C8D50E04F5F5F4F4F735527BB
:100350004C8FEE89FF898083E889F98980818370D9
:10036000806480834B8D8C8D4813BDCFEA89FB89D7
:1003700080818F7D8083B7CFE889F989808185FF6F
:10038000A7CF9FB7F894EE89FF896083E889F98940
:1003900080818370806480839FBFB8CFCE01099530
:1003A000892B09F0B3CFB7CF00E010E0B4CFFC0148
:1003B000918D228D892F90E0805C9F4F821B910947
:1003C0008F7399270895209167028091680230E029
:1003D000205C3F4F281B31092F73332781E0232BEB
:1003E00009F480E00895089580E090E00895CF93A7
:1003F000DF93DC0158968C915897882309F447C005
:100400005296ED91FC9153975096CD91DC91519776
:10041000908195FF39C00FB607FCFACF908195FF08
:10042000F7CF888185FFF4CF5C968C915C97FD01B6
:10043000E80FF11DE35AFF4F20815C968C915C9789
:1004400090E001968F7399275C968C935C975696F3
:10045000ED91FC91579720835096ED91FC91519727
:1004600080818370806480835B969C915B975C96AF
:100470008C915C979813C4CF5296ED91FC91539751
:1004800080818F7D8083BCCF888186FFC4CFDF9140
:10049000CF910895FC01238D348D231730F4832FE1
:1004A00090E0821B9109019708958FE390E0821BF1
:1004B0009109830F911D0895FC01918D828D9817EC
:1004C00061F0828DDF01A80FB11D5D968C91928D38
:1004D0009F5F9F73928F90E008958FEF9FEF089535
:1004E000FC01918D828D981731F0828DE80FF11DFE
:1004F000858D90E008958FEF9FEF089580E090E064
:10050000892B79F0809167022091680290E0805CED
:100510009F4F821B91098F739927892B11F00C949F
:10052000000008950E94F12C1F920F920FB60F92B7
:1005300011242F938F939F93EF93FF93E0916A027F
:10054000F0E0E555FD4F208180916A0290E0019630
:100550008F73992780936A02E0916402F09165029B
:100560002083E0915E02F0915F028081837080645D
:1005700080839091690280916A02981307C0E0918C
:100580006002F091610280818F7D8083FF91EF9105
:100590009F918F912F910F900FBE0F901F901895E4
:1005A0001F920F920FB60F9211242F938F939F9348
:1005B000EF93FF93E0915E02F0915F028081E09102
:1005C0006402F091650282FF0BC08081FF91EF9180
:1005D0009F918F912F910F900FBE0F901F901895A4
:1005E0002081809167028F5F8F73909168028917D5
:1005F00069F3E0916702F0E0E25BFD4F258F8093A5
:100600006702E4CF9F92AF92BF92CF92DF92EF92B8
:10061000FF920F931F93CF93DF93DC0128E030E02C
:1006200091E0AA24AA94B12C4FE050E0E3E2EE2E30
:10063000F12C07ED10E01CC08C911196ED91FC910E
:100640001297F894D280C82EC094DC20D282D18038
:10065000D82AD182E7012197F1F7D2808D298283B0
:100660007894F8013197F1F7990F21503109F9F099
:10067000892F857509F78C911196ED91FC91129750
:10068000F894D280C82EC094DC20D282D180D82A9F
:10069000D182E5012197F1F7D2808D298283789468
:1006A000FA013197F1F7990F2150310909F7F894C0
:1006B0001196ED91FC91129791818C9180958923EF
:1006C00081831196ED91FC91129792818C91809586
:1006D0008923828378947B016B0188E0C80ED11C4A
:1006E0006FEF70E04FE050E003E210E0C7EDD0E0C4
:1006F000F70191907F0128E030E0AA24A3941CC068
:10070000BC901196ED91FC911297F89482819B2DEB
:1007100090958923828381818B298183C8010197E8
:10072000F1F78281B82AB2827894CE010197F1F76D
:10073000AA0C21503109F9F0892D8A2109F7BC90C2
:100740001196ED91FC911297F89482819B2D9095D2
:100750008923828381818B298183CB010197F1F7E2
:100760008281B82AB2827894CA010197F1F7AA0C63
:100770002150310909F7F8941196ED91FC911297E7
:1007800091818C918095892381831196ED91FC91C3
:10079000129792818C918095892382837894CE14CC
:1007A000DF0409F0A5CFDF91CF911F910F91FF904A
:1007B000EF90DF90CF90BF90AF909F9008955F92A1
:1007C0006F927F928F929F92AF92BF92CF92DF9261
:1007D000EF92FF920F931F93CF93DF93CDB7DEB7C6
:1007E0006E970FB6F894DEBF0FBECDBF8C015B01D4
:1007F000DC0114968C91E82FEF778E2F90E0FC01AE
:100800003297EF33F10540F1D5018D919C91DC01D8
:10081000ED91FC910190F081E02D60EC0995F501DE
:1008200022813381820F931F938382836E960FB64A
:10083000F894DEBF0FBECDBFDF91CF911F910F9116
:10084000FF90EF90DF90CF90BF90AF909F908F90F0
:100850007F906F905F900895EC5CFF4F0C94562949
:10086000F801A081B181109709F463C5FD01E12C65
:10087000F12C2FEFE21AF20A8581811152C3E0E1D7
:10088000EE16F10408F020C460E070E06F5F7F4F67
:1008900015968C911597882339F0F8E08F02A00DFA
:1008A000B11D1124109791F76057D5018D919C913E
:1008B000DC01ED91FC910190F081E02D0995F501AD
:1008C00022813381820F931F93838283D8010D91FC
:1008D0001C910115110509F4A9CFB501C8010E94A9
:1008E000DF03F8018581882309F4A0CFF8E08F02A7
:1008F000000D111D11240115110579F797CFDB01AA
:100900008D919C91F8014281538160817181DC015C
:10091000ED91FC910280F381E02D0995F501228192
:100920003381820F931F9383828380CFF80180806D
:100930009180F40101900020E9F731976F01C81808
:10094000D908DB018D919C91DC01F0E2CF16D10436
:1009500008F422C4FFEFCF16D10409F008F4E5C370
:10096000ED91FC910190F081E02D6AED0995F50182
:1009700022813381820F931F93838283DA8AC98A0B
:100980008A89898BCA8A80819181DC01ED91FC91F1
:100990000280F381E02DB1E0E134FB0709F0E2C40D
:1009A000BE016F5E7F4F0E94410FF50122813381AE
:1009B000280F391F33832283D5010D911C91F80133
:1009C000A081B1811296ED91FC91139781E0E13401
:1009D000F80709F00DC4C114D10409F4D8C4E12CFE
:1009E000F12C77247394ED91FC91D4016D914D011C
:1009F000B0E0EC3DFB0709F026C3F801708E938D43
:100A0000848D981709F407C3F801238D30E02F5F18
:100A10003F4F2F733327922F03C00FB607FE8AC2B2
:100A2000D8015C968C915C979817B9F3F801838D87
:100A3000E80FF11DE35AFF4F60839FB7F894D80188
:100A40005B962C935B975296ED91FC915397808126
:100A5000806280839FBFBFEFEB1AFB0ACE14DF04D6
:100A600009F40EC3F801A081B181BDCFD801CD90AA
:100A7000DD90ED90FC90B0E8CB16D104E104F104D8
:100A800008F475C3DB018D919C91DC01FFEFCF165B
:100A9000D104E104F10409F008F4DAC3C114D1046B
:100AA000F1E0EF06F10408F4ADC3ED91FC91019083
:100AB000F081E02D6EEC0995F50122813381820FE2
:100AC000931F93838283C982DA82EB82FC828C81BA
:100AD0008983CC828A819B819A838B838081918157
:100AE000DC01ED91FC910280F381E02DB1E0E13475
:100AF000FB0709F0E2C2BE016F5F7F4F0E94CB0F80
:100B00008ECEF80180819181A281B381892B8A2BBD
:100B10008B2B09F0BCC262ECD5018D919C91DC015C
:100B2000ED91FC910190F081E02D78CEF801F080FC
:100B3000D180E2801381DB018D919C91DC01ED91EC
:100B4000FC910190F081E02D6AEC0995F50122817C
:100B50003381820F931F938382838F2D9D2DAE2D22
:100B6000B12F89879A87AB87BC878C858987FC865C
:100B70008A859B859A878B8780819181DC01ED91A5
:100B8000FC910280F381E02DB1E0E134FB0709F034
:100B900028C3BE01675F7F4F0E94CB0F40CEF80194
:100BA00080819181A281B381CC24DD247601C81A91
:100BB000D90AEA0AFB0A81329105A105B10508F4B8
:100BC000FBC281389105A105B10508F48DC38130C0
:100BD000F0E89F07A105B10508F45CC30197A105E2
:100BE000B04808F023CEDB018D919C91DC01ED91A2
:100BF000FC910190F081E02D62ED0995F5012281D3
:100C00003381820F931F93838283CD82DE82EF82B2
:100C1000F88688858D83C8868E819F819E838F8389
:100C200080819181DC01ED91FC910280F381E02DC6
:100C3000B1E0E134FB0709F0B4C3BE016B5F7F4F45
:100C40000E94CB0FECCDD801ED91FC91309709F4C7
:100C500079C3E12CF12CBFEFEB1AFB0A85818111DE
:100C600057C180E1E816F10408F413C2D5018D9153
:100C70009C91DC01ED91FC910190F081E02D6EEDF5
:100C80000995F50122813381820F931F938382831B
:100C9000FE8AED8A8E898D8BEE8A80819181DC01BE
:100CA000ED91FC910280F381E02DB1E0E134FB078E
:100CB00009F041C3BE016B5E7F4F0E94410FF501F9
:100CC00022813381820F931F93838283D8016D9099
:100CD0007C906114710409F4A9CD55245394F30157
:100CE000C680D780F60101900020E9F731974F01C7
:100CF0008C189D08D5018D919C91DC01F0E28F1636
:100D0000910408F46DC1FFEF8F16910409F008F407
:100D100045C1ED91FC910190F081E02D6AED0995BE
:100D2000F50122813381820F931F938382839C8AF2
:100D30008B8A8C898B8B8C8A80819181DC01ED91EF
:100D4000FC910280F381E02DB1E0E134FB0709F072
:100D500089C1BE016D5E7F4F0E94410FF501228166
:100D60003381820F931F93838283D5010D911C9150
:100D7000F801A081B1811296ED91FC91139721E0C9
:100D8000E134F20709F03CC1E12CF12C811491040B
:100D900009F4A5C0ED91FC91D6016D916D01B0E013
:100DA000EC3DFB0709F093C0F801508E938D848DC4
:100DB000981709F467C0D8015B962C9130E02F5F3B
:100DC0003F4F2F733327922F03C00FB607FE26C065
:100DD000D8015C968C915C979817B9F3F801838DD4
:100DE000E80FF11DE35AFF4F60839FB7F894D801D5
:100DF0005B962C935B975296ED91FC915397808173
:100E0000806280839FBFBFEFEB1AFB0A8E149F04A2
:100E100009F456C0F801A081B181BCCF5096ED9184
:100E2000FC915197808185FFD3CF5C968C915C9724
:100E3000F801E80FF11DE35AFF4F8081F801448D5E
:100E400050E04F5F5F4F4F735527448F0688F789F7
:100E5000E02D80835096ED91FC91519780818370B5
:100E6000806480835B964C915B975C968C915C97D9
:100E70004813AECF5296ED91FC91539780818F7DB0
:100E80008083A6CF0088F189E02D808185FF93CFF4
:100E90009FB7F894D8015696ED91FC9157976083CF
:100EA0005096ED91FC91519780818370806480838E
:100EB0009FBFBFEFEB1AFB0A8E149F0409F0AACF65
:100EC000D50112968D919C911397740108C0C801A9
:100ED0000995892B09F097CFF50182819381E80E5E
:100EE000F91EF501F382E282B501C3010E94DF031E
:100EF000D30115968C91882309F498CCB8E08B0225
:100F0000600C711C11246114710409F0E8CE8ECCC0
:100F100028E08202E00DF11D1124309709F09BCEEC
:100F2000A0CE98E08902E00DF11D1124309709F060
:100F3000A0CCA5CC5096ED91FC915197808185FF76
:100F40006FCD5C968C915C97F801E80FF11DE35A28
:100F5000FF4F8081F801448D50E04F5F5F4F4F732A
:100F60005527448F0688F789E02D80835096ED91B0
:100F7000FC91519780818370806480835B964C9153
:100F80005B975C968C915C9748134ACD5296ED9195
:100F9000FC91539780818F7D808342CDED91FC91B0
:100FA0000190F081E02D69ED0995F50122813381F1
:100FB000820F931F938382838E8E80819181DC01C7
:100FC000ED91FC910280F381E02DB1E0E134FB076B
:100FD00009F04FC0BE01625E7F4F0E945510BECE29
:100FE000ED91FC910190F081E02D60EA680D09958A
:100FF000F501E280F3808E0D9F1D93838283B5CE31
:10100000A401B601C80109957C01D50112968D9104
:101010009C91139764CF0088F189E02D808185FF32
:10102000F3CC9FB7F894D8015696ED91FC91579761
:1010300060835096ED91FC9151978081837080641C
:1010400080839FBF08CDC8010995892B09F003CD86
:10105000F50122813381C701820F931FF50193832C
:101060008283E4CB42E050E0BE016D5E7F4F099584
:1010700075CE41E050E0BE01625E7F4F09956ECEB5
:10108000D50112962D913C911397C601E5CF63ECE3
:1010900043CD60E86E0DD5018D919C91DC01ED9101
:1010A000FC910190F081E02D0995F50122813381B9
:1010B000820F931F9383828309CE44E050E0BE01E8
:1010C0006F5F7F4F0995ABCBD5018D919C91DC0172
:1010D000ED91FC910190F081E02D6CED0995F50109
:1010E00022813381820F931F93838283F88EEF8A4C
:1010F000888D8F8BE88E80819181DC01ED91FC9150
:101100000280F381E02DB1E0E134FB0709F038C142
:10111000BE01695E7F4F0E94410FF501228133813C
:10112000820F931F93838283D1CBED91FC91019029
:10113000F081E02D69ED0995F50122813381820F5F
:10114000931F93838283CD8E80819181DC01ED9109
:10115000FC910280F381E02DB1E0E134FB0709F05E
:10116000F3C0BE01635E7F4F0E9455101ECCCA8E35
:10117000FB0180819181DC01ED91FC910280F38182
:10118000E02DB1E0E134FB0709F019C1BE01665E54
:101190007F4F0E94551043CBED91FC910190F0815F
:1011A000E02D60EA6C0D0995F50122813381280F4D
:1011B000391F3383228300CCCB8EDB018D919C9130
:1011C000DC01ED91FC910280F381E02DB1E0E1348E
:1011D000FB0709F0EDC0BE01655E7F4F0E94551010
:1011E0001ECB44E050E0BE01675F7F4F099517CBEF
:1011F000A601B401C8010995D50112962D913C9123
:1012000013972ACFED91FC910190F081E02D6DECC8
:101210000995F50122813381820F931F9383828385
:10122000DE86CD868E858D87CE8680819181DC019C
:10123000ED91FC910280F381E02DB1E0E134FB07F8
:1012400009F089C0BE01635F7F4F0E94410FE7CA6A
:10125000ED91FC910190F081E02D6CEC0995F50188
:1012600022813381820F931F93838283C98E808171
:101270009181DC01ED91FC910280F381E02DB1E0E0
:10128000E134FB0709F0A2C0BE01675E7F4F0E94F8
:101290005510C5CADB018D919C91DC01ED91FC914B
:1012A0000190F081E02D61ED0995F50122813381F6
:1012B000820F931F93838283D88ACF8688898F87F2
:1012C000C88A80819181DC01ED91FC910280F381DB
:1012D000E02DB1E0E134FB0709F05CC0BE01615FC5
:1012E0007F4F0E94410F9BCADB018D919C91DC01D5
:1012F000ED91FC910190F081E02D60ED0995F501F3
:1013000022813381820F931F93838283CC8E8081CD
:101310009181DC01ED91FC910280F381E02DB1E03F
:10132000E134FB0731F5BE01645E7F4F0E9455102A
:1013300076CA60E9BACA42E050E0BE016B5E7F4FF8
:101340000995BDCC60E8A7CE41E050E0BE01635EE8
:101350007F4F09952ACB42E050E0BE01635F7F4F8B
:1013600009955DCA42E050E0BE016F5E7F4F09956E
:101370001CCB41E050E0BE01645E7F4F09954FCA2F
:1013800042E050E0BE01695E7F4F0995C6CE80E025
:1013900090E062CE42E050E0BE01615F7F4F099570
:1013A0003ECA44E050E0BE016B5F7F4F099537CAEB
:1013B00041E050E0BE01655E7F4F099530CA41E0D3
:1013C00050E0BE01665E7F4F099529CA41E050E0BA
:1013D000BE01675E7F4F099522CACF92DF92EF92DE
:1013E000FF920F931F93CF93DF93FC019481892F7A
:1013F0008F7739F4907890629483118210821382EF
:10140000128295FF38C061157105A9F17A018B012F
:101410006F01C081D18110C06115710529F0C8012B
:101420000E94F62C892B79F09D819923B1F088E0F8
:101430009802C00DD11D1124209779F06E817F8113
:101440006017710749F7CE01DF91CF911F910F917E
:10145000FF90EF90DF90CF900895D70114968D9173
:101460009C91159712962D913C911397285F3F4FB1
:101470008217930718F480E090E0E6CFFC013897DC
:101480001596FC93EE9314973097A9F3E601AA8181
:10149000BB811097A9F09F012A1B3B0B359527951F
:1014A000359527953595279515962C93FB83EA83DB
:1014B00015821482DC0112970D931C93CF01C4CFC7
:1014C000F983E883FB83EA83F3CF8F929F92AF92F5
:1014D000BF92CF92DF92EF92FF920F931F93CF9321
:1014E000DF93DC0148E050E021E00FEF10E08FE0F7
:1014F000882E912C93E2C92ED12C37EDE32EF12CBE
:101500001CC08C911196ED91FC911297F8949281E8
:10151000382F3095932392839181982B9183E60104
:101520002197F1F79281892B82837894C7010197E3
:10153000F1F7220F41505109F9F0862F822309F764
:101540009C911196ED91FC911297F8948281392F1C
:101550003095832382838181892B8183E8012197C0
:10156000F1F78281982B92837894C4010197F1F767
:10157000220F4150510909F7F8941196ED91FC9111
:10158000129791818C918095892381831196ED9199
:10159000FC91129792818C91809589238283789413
:1015A000DF91CF911F910F91FF90EF90DF90CF903F
:1015B000BF90AF909F908F9008954F925F927F92CF
:1015C0008F929F92AF92BF92CF92DF92EF92FF9253
:1015D0000F931F93CF93DF93E091B603F091B7037E
:1015E0004081A181B281F89411962C911197542FCA
:1015F0005095252311962C93119778943CE7C3E0DE
:10160000D0E002C0315071F1FE013197F1F72C9119
:101610002423C1F3F89412962C9112972523129645
:101620002C93129711962C911197242B11962C9391
:1016300011977894EBE7F7E03197F1F7F89411966A
:101640002C911197522311965C931197E3E1F1E0ED
:101650003197F1F72C917894E3E6F6E03197F1F7C2
:10166000422389F080E0DF91CF911F910F91FF908D
:10167000EF90DF90CF90BF90AF909F908F907F9032
:101680005F904F9008958B016C01C091B603D0918B
:10169000B70365E5CE010E94650A7601460188E040
:1016A000880E911C4FEF50E02FE030E083E2482E8F
:1016B000512C67ED70E0F701A1907F0188E090E088
:1016C000BB24B39419C07880E981FA81F894D28060
:1016D000C72CC094DC20D282D180D728D182D201FD
:1016E0001197F1F7D2807D2872827894FB013197AF
:1016F000F1F7BB0C0197E1F0EA2DEB2121F778809F
:10170000E981FA81F894D280C72CC094DC20D2827F
:10171000D180D728D182DA011197F1F7D2807D28C4
:1017200072827894F9013197F1F7BB0C019721F798
:10173000F894E981FA819181888180958923818358
:10174000E981FA81928188818095892382837894C6
:10175000E814F90409F0AFCF6EEB8091B6039091D5
:10176000B7030E94650A48017801F9E0EF0EF11C09
:1017700067E070E043E250E02FEC30E0E091B60328
:10178000F091B7039081A181B281F89411968C9168
:101790001197892B11968C9311971296DC901297C2
:1017A000892F8095D8221296DC921297EB0121970F
:1017B000F1F71196DC9011978D2111968C9311976A
:1017C000EA012197F1F78C917894D9011197F1F7FB
:1017D000982381E009F480E0B080A181B281F8947F
:1017E00011969C9111979B2911969C931197129693
:1017F000DC9012979B2D9095D9221296DC9212972D
:10180000EB012197F1F71196DC9011979D2111962C
:101810009C931197EA012197F1F79C917894D90153
:101820001197F1F79B2109F08260B080A181B2810C
:10183000F89411969C9111979B2911969C9311975E
:101840001296DC9012979B2D9095D9221296DC92DD
:101850001297EB012197F1F71196DC9011979D21DA
:1018600011969C931197EA012197F1F79C91789436
:10187000D9011197F1F79B2109F08460B080A18113
:10188000B281F89411969C9111979B2911969C9383
:1018900011971296DC9012979B2D9095D922129653
:1018A000DC921297EB012197F1F71196DC901197DA
:1018B0009D2111969C931197EA012197F1F79C9134
:1018C0007894D9011197F1F79B2109F08860B080D5
:1018D000A181B281F89411969C9111979B29119640
:1018E0009C9311971296DC9012979B2D9095D9227C
:1018F0001296DC921297EB012197F1F71196DC908A
:1019000011979D2111969C931197EA012197F1F768
:101910009C917894D9011197F1F79B2109F080618E
:10192000B080A181B281F89411969C9111979B2966
:1019300011969C9311971296DC9012979B2D90957F
:10194000D9221296DC921297EB012197F1F71196AA
:10195000DC9011979D2111969C931197EA01219794
:10196000F1F79C917894D9011197F1F79B2109F037
:101970008062B080A181B281F89411969C911197F8
:101980009B2911969C9311971296DC9012979B2D90
:101990009095D9221296DC921297EB012197F1F7DC
:1019A0001196DC9011979D2111969C931197EA0155
:1019B0002197F1F79C917894D9011197F1F79B2128
:1019C00009F08064A0810180F281E02DF89491817A
:1019D0009A2B9183B2819A2F9095B923B283EB0110
:1019E0002197F1F7B1819B239183EA012197F1F7C8
:1019F00090817894F9013197F1F79A2309F0806882
:101A0000F40181934F01EE15FF0509F0B7CEE09187
:101A1000B603F091B70330810180F281E02DF89494
:101A20008181632F60958623818378942CE743E03E
:101A300050E003C0215009F415CECA010197F1F717
:101A400080818323B9F3F894828186238283818104
:101A5000832B818378948BE797E00197F1F7F894D3
:101A600081816823618383E191E00197F1F78081AF
:101A70007894E3E6F6E03197F1F7382309F0F2CDF8
:101A8000E801A881A1119BC0F80179817111A0C062
:101A9000E8014281411195C0F8016B8161119AC042
:101AA000E801248121119CC0F8015D8151119DC084
:101AB000E801968191119DC0F8018F8181119CC030
:101AC0003085332309F4CECDEA2FEF70F0E0EA51F0
:101AD000FF4FB491A295AF70EA2FF0E0EA50FF4FAC
:101AE000E491EB277E27E72FEF70F0E0EA51FF4FFC
:101AF000A49172957F70E72FF0E0EA50FF4FE491D8
:101B0000EA274E27E42FEF70F0E0EA51FF4F74917F
:101B100042954F70E42FF0E0EA50FF4FE491E72741
:101B20006E27E62FEF70F0E0EA51FF4F4491629587
:101B30006F70E62FF0E0EA50FF4FE491E4272E2784
:101B4000E22FEF70F0E0EA51FF4F449122952F70A1
:101B5000E22FF0E0EA50FF4FE491E4275E27E52F03
:101B6000EF70F0E0EA51FF4F249152955F70E52F3E
:101B7000F0E0EA50FF4FE491E2279E27E92FEF7053
:101B8000F0E0EA51FF4F249192959F70E92FF0E029
:101B9000EA50FF4FE491E2278E27E82FEF70F0E044
:101BA000EA51FF4F949182958F70E82FF0E0EA5050
:101BB000FF4FE491E92781E03E1354CD54CD798164
:101BC0004A816B812C815D819E818F8138857CCF9C
:101BD0004A816B812481558196818781308574CFBC
:101BE00055819681878130856FCF9E818F81388521
:101BF0006BCF8781308568CF388566CF2F923F9233
:101C00004F925F926F927F928F929F92AF92BF920C
:101C1000CF92DF92EF92FF920F931F93CF93DF93B8
:101C2000EC018B018D858823B9F01B861D861C86EF
:101C300080E0DF91CF911F910F91FF90EF90DF90A7
:101C4000CF90BF90AF909F908F907F906F905F905C
:101C50004F903F902F9008953881E981FA81F89450
:101C60008181632F60958623818378942CE743E0FC
:101C700050E002C02150C9F2CA010197F1F78081FA
:101C80008323C1F3F8948281862382838181832B0D
:101C9000818378948BE797E00197F1F7F89481813D
:101CA0006823618383E191E00197F1F78081789463
:101CB000E3E6F6E03197F1F7382309F0B6CF60EFAD
:101CC000CE010E94650A81E0F12C812CEE24E39480
:101CD00067E070E023E230E04FEC50E097ED692ED2
:101CE000712C22242A94312CFFE0AF2EB12C2AC073
:101CF000442009F47EC0FE01EF0DF11D9381D82E22
:101D0000D0949D2193839881E981FA81F894D280BF
:101D1000C92EC094DC20D282D180D92AD182D101AF
:101D20001197F1F7D2809D2992837894F50131972C
:101D3000F1F7E394880F11F4F39481E0B7E0BF1555
:101D400008F472C09881E981FA81F894D180D92A87
:101D5000D182D280992E9094D920D282DB01119722
:101D6000F1F7D1809D209182D9011197F1F79080F0
:101D70007894FA013197F1F74880E981FA81F89473
:101D8000D180D428D182D280542C5094D520D282B4
:101D9000DB011197F1F7D1805D205182D9011197B4
:101DA000F1F7E0814E227894FA013197F1F7992109
:101DB00009F49ECF411038C0FE01EF0DF11D938153
:101DC000982B93839880E981FA81F8949281D92C99
:101DD000D0949D219283918199299183D901119762
:101DE000F1F79281992992837894F3013197F1F771
:101DF000A0CF9B85E91668F4FE01EF0DF11D9381DC
:101E0000D92ED822E9F6A8E0AE1508F0EC868E2C83
:101E100076CFDD24D3949E11D12CFE01EF0DF11D60
:101E20009381D110CDCFEFCFE0E4EE1508F0FDCED9
:101E30008B86882019F18B81882309F4F6CED8018E
:101E40008C938C8111968C9311978D8112968C9323
:101E500012978E8113968C9313978F8114968C937F
:101E60001497888515968C931597898516968C936B
:101E700016978A8517968C9381E0DBCE81E08D875B
:101E8000DACFDF92EF92FF920F931F93CF93DF93FE
:101E9000EC017B0100E010E0DD24D394E881F981BE
:101EA0000190F081E02DD7016D917D01B0E0EC3D16
:101EB000FB0709F06AC0D88E9B8D8C8D981709F4AA
:101EC00052C02B8D30E02F5F3F4F2F733327922F5F
:101ED00003C00FB607FE21C08C8D9817D1F38B8DF0
:101EE000FE01E80FF11DE35AFF4F60839FB7F8949E
:101EF0002B8FEA89FB898081806280839FBF0F5F7F
:101F00001F4F0230110551F6C801DF91CF911F918B
:101F10000F91FF90EF90DF900895E889F989808113
:101F200085FFDACF8C8DFE01E80FF11DE35AFF4FDC
:101F300080814C8D50E04F5F5F4F4F7355274C8F22
:101F4000EE89FF898083E889F989808183708064C4
:101F500080834B8D8C8D4813BFCFEA89FB898081AC
:101F60008F7D8083B9CFE889F989808185FFA9CFEA
:101F70009FB7F894EE89FF896083E889F9898081A9
:101F80008370806480839FBFBACFCE010995892B6F
:101F900009F0B5CFB9CFDF92EF92FF920F931F9365
:101FA000CF93DF93EC017B0100E010E0DD24D394BC
:101FB000E881F9810190F081E02DD7016D917D01DB
:101FC000B0E0EC3DFB0709F06AC0D88E9B8D8C8D8C
:101FD000981709F452C02B8D30E02F5F3F4F2F73BD
:101FE0003327922F03C00FB607FE21C08C8D9817A0
:101FF000D1F38B8DFE01E80FF11DE35AFF4F608393
:102000009FB7F8942B8FEA89FB8980818062808357
:102010009FBF0F5F1F4F0430110551F6C801DF91BC
:10202000CF911F910F91FF90EF90DF900895E88975
:10203000F989808185FFDACF8C8DFE01E80FF11DD3
:10204000E35AFF4F80814C8D50E04F5F5F4F4F73DD
:1020500055274C8FEE89FF898083E889F989808133
:102060008370806480834B8D8C8D4813BFCFEA8949
:10207000FB8980818F7D8083B9CFE889F989808150
:1020800085FFA9CF9FB7F894EE89FF896083E8891F
:10209000F98980818370806480839FBFBACFCE012D
:1020A0000995892B09F0B5CFB9CFCF93DF93DC0128
:1020B000ED91FC9111970190F081E02DEB01688189
:1020C000D0E0EC3DFD0709F08AC081E058968C9382
:1020D00058975B969C915B975C968C915C97981750
:1020E00009F465C05B962C915B9730E02F5F3F4F02
:1020F0002F733327922F03C00FB607FE20C05C96C4
:102100008C915C979817C1F35B968C915B97FD015E
:10211000E80FF11DE35AFF4F60839FB7F8945B9679
:102120002C935B975296ED91FC915397808180623E
:1021300080839FBF81E090E0DF91CF91089550961A
:10214000ED91FC915197808185FFD9CF5C968C9160
:102150005C97FD01E80FF11DE35AFF4F80815C960B
:102160004C915C9750E04F5F5F4F4F7355275C96E3
:102170004C935C975696ED91FC91579780835096BF
:10218000ED91FC91519780818370806480835B9690
:102190004C915B975C968C915C974813B0CF5296AC
:1021A000ED91FC91539780818F7D8083A8CF5096CD
:1021B000ED91FC915197808185FF94CF9FB7F89462
:1021C0005696ED91FC91579760835096ED91FC9156
:1021D000519780818370806480839FBFABCF0995C6
:1021E000892B09F0A7CF80E090E0A6CF90E0FC011A
:1021F000E45BFE4F2491FC01EC5DFE4F3491FC0149
:10220000E05FFE4F84918823A1F0211118C0E82FD0
:10221000F0E0EE0FFF1FEE5BFE4FA591B4918FB77C
:10222000F894611107C09C91E32FE095E923EC93AA
:102230008FBF0895EC91E32BEC938FBFFACF23303F
:1022400029F160F02730E1F02830A1F02430F9F6D0
:10225000909180009F7D90938000D9CF213031F004
:102260002230A9F694B59F7D94BDD1CF94B59F77C8
:1022700094BDCDCF9091B0009F7D9093B000C7CF1B
:102280009091B0009F779093B000C1CF9091800063
:102290009F7790938000BBCFCF93DF9390E0FC01BA
:1022A000EC5DFE4F2491FC01E05FFE4F849188239A
:1022B000B9F090E0880F991FFC01E85CFE4FA591F2
:1022C000B491FC01EE5BFE4FC591D491662359F0A9
:1022D0006230A9F08FB7F894EC91E22BEC938FBFAA
:1022E000DF91CF9108959FB7F8948C91E22FE095FC
:1022F0008E238C932881E223E8839FBFF1CF9FB781
:10230000F8948C91322F309583238C93E881E22BC3
:10231000E8839FBFE5CF1F920F920FB60F92112453
:102320002F933F938F939F93AF93BF938091DC0341
:102330009091DD03A091DE03B091DF033091E003C3
:1023400023E0230F2D3768F126E8230F0296A11D05
:10235000B11D2093E0038093DC039093DD03A093F1
:10236000DE03B093DF038091D8039091D903A0914D
:10237000DA03B091DB030196A11DB11D8093D80350
:102380009093D903A093DA03B093DB03BF91AF918D
:102390009F918F913F912F910F900FBE0F901F90A3
:1023A00018950196A11DB11DD4CFCF93DF93CDB762
:1023B000DEB76B970FB6F894DEBF0FBECDBF789433
:1023C00084B5826084BD84B5816084BD85B582603A
:1023D00085BD85B5816085BD80916E0081608093EB
:1023E0006E00109281008091810082608093810054
:1023F0008091810081608093810080918000816064
:10240000809380008091B10084608093B1008091BE
:10241000B00081608093B00080917A0084608093E6
:102420007A0080917A00826080937A0080917A00AD
:10243000816080937A0080917A00806880937A002E
:102440001092C10061E083E00E944C1161E08BE0DA
:102450000E944C1161E08CE00E944C1161E08DE023
:102460000E944C1160E08EE00E944C1160E08FE011
:102470000E944C1160E081E10E944C1160E083E019
:102480000E94F61060E08BE00E94F61061E08CE0A4
:102490000E94F61060E08DE00E94F610E0915E026E
:1024A000F0915F0282E08083E0915A02F0915B023A
:1024B0001082E0915C02F0915D0280E180831092D5
:1024C0006602E0916202F091630286E08083E0910F
:1024D0006002F0916102808180618083E0916002FE
:1024E000F0916102808188608083E0916002F091C8
:1024F0006102808180688083E0916002F0916102D6
:1025000080818F7D808341EF52E062E771E089EF47
:1025100092E00E94ED09FC01892B41F094819078B2
:10252000946094838AE791E09183808341EF52E045
:1025300067E871E089EF92E00E94ED09FC01892BC8
:1025400061F0948190789860948382E090E0A0E0BC
:10255000B0E080839183A283B383E091B603F091CE
:10256000B7031386158614861286339687E0DF013B
:102570001D928A95E9F71092B4031092B503FE01FB
:102580003A961F01A3E0CA2ED12CB7E08B2E912CD6
:1025900013E2612E712C0FEC402E512C8BE7E82EAC
:1025A00087E0F82E03E111E0F3E6AF2EF6E0BF2E50
:1025B00075C02A85E22FEF70F0E0EA51FF4F849159
:1025C000E22FE295EF70F0E0EA50FF4FE4918E27A2
:1025D0009B858927E82FEF70F0E0EA51FF4F949137
:1025E00082958F70E82FF0E0EA50FF4FE491E927E1
:1025F0008C858E27E82FEF70F0E0EA51FF4F949121
:10260000E82FE295EF70F0E0EA50FF4FE491E92700
:102610008D859E2F9827E92FEF70F0E0EA51FF4F4C
:10262000849192959F70E92FF0E0EA50FF4FE4917A
:102630008E279E858927E82FEF70F0E0EA51FF4F43
:10264000949182958F70E82FF0E0EA50FF4FE4916B
:102650009E278F859827E92FEF70F0E0EA51FF4F12
:10266000849192959F70E92FF0E0EA50FF4FE4913A
:102670008E2798898927E82FEF70F0E0EA51FF4F05
:10268000949182958F70E82FF0E0EA50FF4FE4912B
:10269000E92789898E1711F40C94B81EB101809135
:1026A000B6039091B7030E94FE0D811182CF8091F5
:1026B000B40390E090931C0280931B0280E480930B
:1026C0007C0080917A00806480937A0080917A0007
:1026D00086FDFCCF809178008091790010922602CF
:1026E0001092250240E440937C0080917A0080643F
:1026F00080937A0080917A0086FDFCCF80917800EB
:102700002091790090E0922B20911D0230911E02C1
:10271000820F931F90931E0280931D022091250229
:10272000309126022F5F3F4F3093260220932502DF
:1027300025303105C4F265E070E00E9423297093D2
:102740001E0260931D029E012F5E3F4F3B8B2A8B22
:10275000BE016E5E7F4F7D8B6C8B88248A94912C9A
:102760007FE0672E712CE3E2EE2EF12C80914C027B
:1027700090914D0297FF02C00C945D1D8536910526
:1027800014F40C94911C84E690E090934D02809395
:102790004C0220914A0230914B022436310511F04F
:1027A0000C947C1D80911A0281110C94821C8091E2
:1027B000480290914902209118023091190228177D
:1027C000390711F010921A0290931902809318029F
:1027D0008FB7F8944091DC035091DD036091DE03E4
:1027E0007091DF038FBF8091C4039091C503A091C6
:1027F000C603B091C7038A019B01081B190B2A0B62
:102800003B0B8091C8039091C903092E000CAA0BC1
:10281000BB0B081719072A073B0708F46AC0409347
:10282000C4035093C5036093C6037093C70380919C
:102830001A02209127023091280281111BC0809139
:102840004802909149022817390714F00C94011F8F
:102850002F5F3F4F309328022093270260910C0195
:1028600070910D0180E797E10E9423297093C903BD
:102870006093C8032436310514F40C94BB1D1092E8
:1028800049021092480280911F02909120022091EB
:102890001D0230911E028217930714F00C94B71D8D
:1028A00020914C0230914D022F5F3F4F30934D02EB
:1028B00020934C0221E020933302873C914014F492
:1028C0000C94911D80914C0290914D02029790932F
:1028D0004D0280934C0281E080933202809123026A
:1028E000909124028E34934014F00C949C1D10920D
:1028F00031028FB7F8944091DC035091DD03609171
:10290000DE037091DF038FBF8091A7039091A8032E
:10291000A091A903B091AA038A019B01081B190B7E
:102920002A0B3B0B8091AB039091AC03092E000C5A
:10293000AA0BBB0B081719072A073B0708F448C165
:102940004093A7035093A8036093A9037093AA032D
:10295000E091B603F091B70330810180F281E02D60
:10296000F8948181632F60958623818378942CE786
:1029700043E050E002C0215001F1CA010197F1F794
:1029800080818323C1F3F8948281862382838181AD
:10299000382B318378948BE797E00197F1F7F8941F
:1029A00081816823618383E191E00197F1F7808160
:1029B000789483E696E00197F1F7A091B603B09181
:1029C000B70328E030E071E047ED50E01DC0DC9037
:1029D0001196ED91FC911297F89492816D2D60956E
:1029E0009623928391819D299183C7010197F1F7E5
:1029F00092818D2D892B82837894CA010197F1F7FA
:102A0000770F2150310901F1872F8C7C01F7DC9081
:102A10001196ED91FC911297F89492816D2D60952D
:102A20009623928391819D299183C4010197F1F7A7
:102A300092818D2D892B82837894C3010197F1F7C0
:102A4000770F2150310901F7F8941196ED91FC911F
:102A5000129791818C918095892381831196ED91B4
:102A6000FC91129792818C9180958923828378942E
:102A70001091AD03A091B603B091B70328E030E008
:102A800071E047ED50E01DC00C911196ED91FC9165
:102A90001297F8949281602F60959623928391818A
:102AA000902B9183C7010197F1F79281802F892B99
:102AB00082837894CA010197F1F7770F2150310989
:102AC00001F1872F847401F70C911196ED91FC911F
:102AD0001297F8949281602F60959623928391814A
:102AE000902B9183C4010197F1F79281802F892B5C
:102AF00082837894C3010197F1F7770F2150310950
:102B000001F7111114C0F8941196ED91FC911297F0
:102B100091818C918095892381831196ED91FC910F
:102B2000129792818C9180958923828378948091E9
:102B3000B10381110C94E11D10922602109225021E
:102B4000A0901B02B0901C021A141B040CF040C091
:102B500000E010E0B7EDCB2ED12C402EE091B60373
:102B6000F091B70313861586148612861186108697
:102B700017821682158214821382512CB101809122
:102B8000B6039091B7030E94FE0D882339F04514D7
:102B900011F40C94D8225394451480F7980160E006
:102BA00070E08EEF92ECF801EE0FFF1FEE0FFF1FAB
:102BB000E05CFD4F608371838283938389010F5FA3
:102BC0001F4F10932602009325020A151B052CF2B5
:102BD0008FB7F8944091DC035091DD036091DE03E0
:102BE0007091DF038FBF8091A1039091A203A09108
:102BF000A303B091A4038A019B01081B190B2A0BA4
:102C00003B0B8091A5039091A603092E000CAA0B03
:102C1000BB0B081719072A073B0708F4DCC04093D1
:102C2000A1035093A2036093A3037093A403909114
:102C30007A0080917A00887F846080937A0080E4B3
:102C400080937C0080917A00806480937A008091E8
:102C50007A0086FDFCCF6091780080917900909396
:102C60007A0070E0782B072E000C880B990B0E94DD
:102C7000AE2A5B016C01409085035090860341149D
:102C8000510411F40C94802080918003820124E08F
:102C9000829F000D111D1124D8012D913D914D9160
:102CA0005C91609181037091820380918303909184
:102CB00084030E949229609381037093820380931E
:102CC000830390938403F801A082B182C282D382ED
:102CD00010918003F20124E0129FE00DF11D1124F8
:102CE00020918103309182034091830350918403AA
:102CF00060817181828193810E9493296093810315
:102D00007093820380938303909384031F5F1093D7
:102D1000800300917E03101711F40C94191F109179
:102D20007F03111137C7A0928B03B0928C03C0921E
:102D30008D03D0928E03A0928703B0928803C09235
:102D40008903D0928A03101718F41F5F10937F0332
:102D50008091210290912202019690932202809309
:102D60002102019609F4CAC7112309F4C4C7612FCF
:102D700070E080E090E00E94AE2A9B01AC0160917F
:102D800081037091820380918303909184030E9458
:102D9000042A0E94762A9B013093200220931F026E
:102DA00080911D0290911E02B901681B790B072EBC
:102DB000000C880B990B0E94AE2A20E030E043EC17
:102DC0005DE30E94632B6093380270933902809315
:102DD0003A0290933B028FB7F8944091DC035091F4
:102DE000DD036091DE037091DF038FBF80919B0351
:102DF00090919C03A0919D03B0919E038A019B0139
:102E0000081B190B2A0B3B0B80919F039091A00389
:102E1000092E000CAA0BBB0B081719072A073B0742
:102E200008F45BC040939B0350939C0360939D0305
:102E300070939E03109226021092250243E4909113
:102E40007A0080917A00887F846080937A00409332
:102E50007C0080917A00806480937A0080917A006F
:102E600086FDFCCF809178002091790090937A00C4
:102E700090E0922B2091230230912402820F931F25
:102E80009093240280932302209125023091260200
:102E90002F5F3F4F309326022093250225303105C6
:102EA00074F265E070E00E9423297093240260931D
:102EB0002302072E000C880B990B0E94AE2A23E3F5
:102EC00033E343E35DE30E94632B60933C02709322
:102ED0003D0280933E0290933F028FB7F894409159
:102EE000DC035091DD036091DE037091DF038FBF3F
:102EF0008091950390919603A0919703B0919803C8
:102F00008A019B01081B190B2A0B3B0B809199032B
:102F100090919A03092E000CAA0BBB0B08171907F6
:102F20002A073B07E8F1409395035093960360937B
:102F300097037093980320913802309139024091A1
:102F40003A0250913B0260913C0270913D028091A7
:102F50003E0290913F020E94632B5B016C016091E5
:102F60004C0270914D02072E000C880B990B0E94A9
:102F7000AE2A9B01AC01C601B5010E94632B5B0127
:102F80006C0120E030E0A9010E94FF2987FDA7C65F
:102F9000A0922D02B0922E02C0922F02D092300247
:102FA0008FB7F8944091DC035091DD036091DE030C
:102FB0007091DF038FBF80918F0390919003A09158
:102FC0009103B09192038A019B01081B190B2A0BF4
:102FD0003B0B8091930390919403092E000CAA0B54
:102FE000BB0B081719072A073B0708F45CC040937E
:102FF0008F03509390036093910370939203009119
:10300000080110910901A0902D02B0902E02C090ED
:103010002F02D09030022091290230912A02409153
:103020002B0250912C02C601B5010E949229609397
:10303000340270933502809336029093370220E079
:1030400030E0A9010E945E2B18160CF0C7C68091D3
:10305000040190910501080F191F109309010093B5
:1030600008018091270290912802863491050CF482
:1030700071C510934D0200934C02053611050CF4F6
:1030800058C784E690E09093090180930801A092CC
:103090002902B0922A02C0922B02D0922C02909365
:1030A0000701809306018FB7F8944091DC0350919B
:1030B000DD036091DE037091DF038FBF8091EB022F
:1030C0009091EC02A091ED02B091EE028A019B0179
:1030D000081B190B2A0B3B0B8091EF029091F00219
:1030E000092E000CAA0BBB0B081719072A073B0770
:1030F00008F4AAC34093EB025093EC026093ED02F4
:103100007093EE02A0904802B09049021091FD0227
:10311000812F8F7761F4107810621093FD02109266
:10312000FA021092F9021092FC021092FB0215FFB3
:1031300037C0C090F902D090FA0215C06115710530
:1031400031F08FE891E00E94F62C892BC1F0D60176
:1031500015968C91882311F40C94BD2028E08202EE
:10316000C00CD11C1124C114D10411F40C94BD2045
:10317000F60166817781F1E06F387F07F9F6F60195
:1031800084818078B7FC73C688608483C501BB0CDA
:10319000AA0BBB0B80839183A283B3831091FD02A2
:1031A000A0904C02B0904D02812F8F7761F410787F
:1031B00010621093FD021092FA021092F90210921E
:1031C000FC021092FB0215FF36C0C090F902D090AD
:1031D000FA0213C06115710531F08FE991E00E9488
:1031E000F62C892BB9F0F6018581882309F48CC768
:1031F000E8E08E02C00CD11C1124C114D10409F4E2
:1032000083C7D60116966D917C911797B1E06F39FF
:103210007B0701F7F60184818078B7FC3CC68860A3
:103220008483C501BB0CAA0BBB0B80839183A28353
:10323000B3831091FD0240910A0150910B018091DE
:103240000C0190910D01489F9001499F300D589FAE
:10325000300D1124032E000C440B550B60E074E27A
:1032600084EF90E00E9437292E8B3F8B488F598F37
:10327000812F8F7761F4107810621093FD02109205
:10328000FA021092F9021092FC021092FB0215FF52
:103290003DC0C090F902D090FA0215C061157105C9
:1032A00031F08BEA91E00E94F62C892BD1F0D60107
:1032B00015968C91882311F40C94A421E8E08E02D9
:1032C000C00CD11C1124C114D10411F40C94A421FC
:1032D000D60116966D917C911797B1E06B3A7B07FA
:1032E000E9F6F6016E897F89888D998D97FDE7C58E
:1032F00084818078886084838E899F89A88DB98D28
:1033000080839183A283B3831091FD026091400278
:103310007091410280914202909143026E8B7F8BAB
:10332000888F998F812F8F7761F4107810621093B6
:10333000FD021092FA021092F9021092FC02109211
:10334000FB0215FF34C0C090F902D090FA0213C0FE
:103350006115710531F088EB91E00E94F62C892B04
:10336000B9F0F6018581882309F4B5C7E8E08E023B
:10337000C00CD11C1124C114D10409F4ACC7D6016E
:1033800016966D917C911797B1E0683B7B0701F72A
:10339000F601848180788C6084836E897F89888D32
:1033A000998D60837183828393831091FD02809154
:1033B0003C0290913D02A0913E02B0913F028E8B63
:1033C0009F8BA88FB98F812F8F7761F4107810624F
:1033D0001093FD021092FA021092F9021092FC0270
:1033E0001092FB0215FF35C0C090F902D090FA028E
:1033F00014C06115710531F08EEB91E00E94F62C3E
:10340000892BC1F0D60115968C91882309F42AC71F
:10341000E8E08E02C00CD11C1124C114D10409F4BF
:1034200021C7D60116966D917C911797B1E06E3B3E
:103430007B07F9F6F601848180788C6084836E893D
:103440007F89888D998D60837183828393831091A6
:10345000FD028091380290913902A0913A02B09118
:103460003B028E8B9F8BA88FB98F812F8F7761F452
:10347000107810621093FD021092FA021092F90275
:103480001092FC021092FB0215FF34C0C090F902AA
:10349000D090FA0213C06115710531F08CEC91E007
:1034A0000E94F62C892BB9F0F6018581882309F456
:1034B000A0C6E8E08E02C00CD11C1124C114D104B6
:1034C00009F497C6D60116966D917C911797B1E0D5
:1034D0006C3C7B0701F7F601848180788C608483E3
:1034E0006E897F89888D998D6083718382839383B0
:1034F0001091FD028091340290913502A091360224
:10350000B09137028E8B9F8BA88FB98F812F8F77C9
:1035100061F4107810621093FD021092FA0210927A
:10352000F9021092FC021092FB0215FF35C0C09008
:10353000F902D090FA0214C06115710531F087EDDF
:1035400091E00E94F62C892BC1F0D60115968C9142
:10355000882309F49CC5E8E08E02C00CD11C11241C
:10356000C114D10409F493C5D60116966D917C91CE
:103570001797B1E0673D7B07F9F6F6018481807803
:103580008C6084836E897F89888D998D6083718337
:10359000828393831091FD02812F8F7761F41078DD
:1035A00010621093FD021092FA021092F90210922A
:1035B000FC021092FB0215FF30C0C090F902D090BF
:1035C000FA0213C06115710531F083EE91E00E949B
:1035D000F62C892BB9F0F6018581882309F41EC5E4
:1035E000E8E08E02C00CD11C1124C114D10409F4EE
:1035F00015C5D60116966D917C911797B1E0633E83
:103600007B0701F7F601848180788C6084831082C7
:103610001182128213821091FD0200913302812FD8
:103620008F7761F4107810621093FD021092FA0205
:103630001092F9021092FC021092FB0215FF34C0A6
:10364000C090F902D090FA0214C06115710531F0F2
:1036500081EF91E00E94F62C892BC1F0D6011596DE
:103660008C91882309F4A1C4E8E08E02C00CD11C1F
:103670001124C114D10409F498C4D60116966D9191
:103680007C911797B1E0613F7B07F9F6F6018481E1
:1036900080788660848310E020E030E0008311832E
:1036A000228333831091FD0200913202812F8F77A4
:1036B00061F4107810621093FD021092FA021092D9
:1036C000F9021092FC021092FB0215FF33C0C09069
:1036D000F902D090FA0213C06115710531F08BEF39
:1036E00091E00E94F62C892BB9F0F60185818823A0
:1036F00009F421C4E8E08E02C00CD11C1124C114CD
:10370000D10409F418C4D60116966D917C911797CF
:10371000B1E06B3F7B0701F7F6018481807886601A
:10372000848310E020E030E0008311832283338320
:103730001091FD02D0903102812F8F7761F41078C3
:1037400010621093FD021092FA021092F902109288
:10375000FC021092FB0215FF33C00091F902109198
:10376000FA0214C06115710531F085E092E00E9403
:10377000F62C892BC1F0D80115968C91882309F479
:103780001FC6E8E08E02000D111D11240115110560
:1037900009F416C6D80116966D917C911797B2E080
:1037A00065307B07F9F6F801848180788660848330
:1037B0008D2D90E0A0E0B0E080839183A283B3835D
:1037C0006EE472E07A8369831C821B82BE016F5FA4
:1037D0007F4F89EF92E00E94DF03AFE0B2E051E05B
:1037E0004D91509366029091690280916A02E09136
:1037F0005E02F0915F02981709F470C0209169028F
:1038000030E02F5F3F4F2F733327922F03C00FB647
:1038100007FE33C080916A029817C9F3E0916902EC
:10382000F0E0E555FD4F40839FB7F894209369027F
:10383000E0916002F09161028081806280839FBF8D
:1038400072E0A131B70761F680E090E0892B11F4B6
:103850000C94B613809167022091680290E0805C1E
:103860009F4F821B91098F739927892B11F40C9418
:10387000B6130E9400000C94B613808185FFCACF56
:10388000E0916A02F0E0E555FD4F808160916A02A7
:1038900070E06F5F7F4F6F73772760936A02E091EC
:1038A0006402F09165028083E0915E02F0915F0214
:1038B00080818370806480836091690280916A0254
:1038C000681307C0E0916002F091610280818F7DF2
:1038D0008083E0915E02F0915F029CCF808185FF42
:1038E0008DCF9FB7F894E0916402F0916502408318
:1038F000E0915E02F0915F0280818370806480833A
:103900009FBF9ECF8091480290914902009709F095
:10391000E6C084E690E090934902809348020C94BC
:10392000DB1320914A0230914B028217930711F466
:103930000C94D213009709F4CCC08333910514F092
:103940000C940C27823091050CF4DCC08430910576
:103950000CF4E1C5883091050CF4D7C58E30910583
:103960000CF4D6C58E30910509F4C9C50F9709F43A
:10397000C9C586E090E0909315028093140223332A
:1039800031050CF4C2C044E650E0421B530B1092C8
:10399000170210921602423051050CF4BFC0443099
:1039A00051050CF49DC5483051050CF49CC54E30B2
:1039B00051050CF49BC54E30510509F49AC54F30A2
:1039C000510509F499C546E050E050931702409321
:1039D00016025093130240931202232B59F483EAE8
:1039E0008093B000809114029091150240911202D0
:1039F0005091130284179507E9F1FC01EE0FFF1FA8
:103A0000880F991F880F991F880F991FDF01A80F32
:103A1000B91FAC5EBE4F12962D913C911397203486
:103A2000310509F47EC22032310509F408C528E0C9
:103A300030E030930B0120930A012AE02093B1007B
:103A40008E0F9F1FFC01EC5EFE4F84819581809359
:103A50000C0190930D0146815781608571854093DB
:103A600000015093010160930201709303018150A2
:103A70008093B30060914C0270914D02072E000CB0
:103A8000880B990B0E94AE2A209100013091010110
:103A900040910201509103010E94632B0E94762AFB
:103AA00061506093B40080914C0290914D029093CC
:103AB0004B0280934A020C94D21310924D02109242
:103AC0004C0280914A0290914B02892B11F40C9484
:103AD000D2138091B0008F758093B000E4CF84360C
:103AE000910511F00C94DB131092490210924802D8
:103AF00080E090E00C94DB1380E090E08230910550
:103B00000CF024CF80E090E036CF10921702109294
:103B10001602A901423051050CF041CF40E050E0BF
:103B200058CF1092320280912302909124028E3459
:103B3000934014F40C94771480914C0290914D02B0
:103B4000029690934D0280934C0281E08093310263
:103B50000C947914909309018093080197FF97CAF8
:103B6000109209011092080180E090E090CA109232
:103B700033020C945D14121613060CF0B9C12634EE
:103B8000310514F00C94431430934D0220934C02F1
:103B90000C9443142091870330918803409189034A
:103BA00050918A03C601B5010E94FF2987FF45C1D4
:103BB000A0928703B0928803C0928903D0928A03AF
:103BC000C2C8E091B0038091B203882329F08091AC
:103BD000AD03882309F43BC4E950E33008F085C104
:103BE000F0E0EE0FFF1FE65AFE4F808191815C01ED
:103BF000990FCC08DD088091AE0381111AC49FB7DC
:103C0000F8944091D8035091D9036091DA037091F0
:103C1000DB0386B5A89B06C08F3F21F04F5F5F4F47
:103C20006F4F7F4F9FBF762F652F542F4427480F2C
:103C3000511D611D711D440F551F661F771F440FD5
:103C4000551F661F771FA114B104C104D104D1F11F
:103C50003FB7F8948091D8039091D903A091DA03EB
:103C6000B091DB0326B5A89B05C02F3F19F0019644
:103C7000A11DB11D3FBFBA2FA92F982F8827820FF2
:103C8000911DA11DB11D880F991FAA1FBB1F880F71
:103C9000991FAA1FBB1F841B950BA60BB70B883E51
:103CA0009340A105B105A0F221E0A21AB108C10814
:103CB000D10848515C4F6F4F7F4FA114B104C1042C
:103CC000D10431F68091AE03882311F40C949C1535
:103CD00061E08091AF030E94F6100C949C15D60110
:103CE000C501B05880932D0290932E02A0932F020D
:103CF000B093300255C920E030E04EC8112309F4DA
:103D00000BC11092810310928203109283031092D0
:103D10008403A12CB12C650100E0D2012D913D91CD
:103D20004D915D912D01C601B5010E9493295B0162
:103D30006C0160938103709382038093830390935B
:103D400084030F5F0113E9CF602F70E080E090E003
:103D50000E94AE2A9B01AC01C601B5010E94042A53
:103D60000E94762A9B017093200260931F0218C85C
:103D70008091B4038F5F8093B403283241F008F040
:103D8000BEC0203121F0223211F00C944E138091EC
:103D9000B5038F5F8093B5038091AD03882311F441
:103DA0000C9414272031C1F0BE016F5F7F4FC10119
:103DB0000E94DD0A882309F4BAC38D818F3311F480
:103DC0000C94AD2710F40C94B1278F3511F40C949A
:103DD000AF278F3709F0ABC38CE0AAC380910401F1
:103DE0009091050122273327281B390B30930501B9
:103DF00020930401081B190B10930901009308017B
:103E000030C9821793070CF082C0215031093093DA
:103E100028022093270260910C0170910D0180E12E
:103E200097E20E9423297093C9036093C8030C94FE
:103E30003A14109280030C948F1620918B033091CA
:103E40008C0340918D0350918E03C601B5010E94F1
:103E50005E2B181614F00C94A316A0928B03B0924C
:103E60008C03C0928D03D0928E030C94A3168A60AB
:103E70008483C501BB0CAA0BBB0BB095A095909594
:103E800081959F4FAF4FBF4F80839183A283B383B0
:103E90001091FD0285C98A608483C501BB0CAA0B01
:103EA000BB0BB095A095909581959F4FAF4FBF4F9D
:103EB00080839183A283B3831091FD02BCC9848166
:103EC00080788A6084838E899F89A88DB98DB0950A
:103ED000A095909581959F4FAF4FBF4F8083918361
:103EE000A283B3831091FD0211CA8EEE92E07FCEC1
:103EF00084E690E0909349028093480245CE2B33AC
:103F000009F445CF223411F00C944E1340CF81E0D8
:103F100080931A020C943A1460E070E080EC9FE702
:103F20001FCF30930B0120930A012CE02093B100A6
:103F300087CDC80113CE8091F5029091F6022091B1
:103F4000F3023091F402285F3F4F8217930708F481
:103F5000F1CBFC013897F093F602E093F50230972D
:103F600009F4E8CBA091FB02B091FC02109711F488
:103F70000C9402279F012A1B3B0B359527953595FD
:103F800027953595279515962C93F093FC02E09391
:103F9000FB0215821482DC0112972BEF31E02D9386
:103FA0003C93309709F0B9CBC3CB8091F502909147
:103FB000F6022091F3023091F402285F3F4F8217FE
:103FC000930708F471CBFC013897F093F602E09365
:103FD000F502309709F468CBA091FB02B091FC0286
:103FE000109709F406C79F012A1B3B0B35952795AF
:103FF000359527953595279515962C93F093FC02CA
:10400000E093FB0215821482DC01129721EF31E06C
:104010002D933C93309709F03ACB44CB8091F50235
:104020009091F6022091F3023091F402285F3F4F05
:104030008217930708F4F1CAFC013897F093F6024F
:10404000E093F502309709F4E8CAA091FB02B09121
:10405000FC02109709F4C4C69F012A1B3B0B35953F
:104060002795359527953595279515962C93F0939B
:10407000FC02E093FB0215821482DC01129723EE0E
:1040800031E02D933C93309709F0BDCAC4CA8091AA
:10409000F5029091F6022091F3023091F402285F2C
:1040A0003F4F8217930708F477CAFC013897F093C3
:1040B000F602E093F502309709F46ECAA091FB0274
:1040C000B091FC02109709F482C69F012A1B3B0B9A
:1040D00035952795359527953595279515962C93E4
:1040E000F093FC02E093FB0215821482DC0112972C
:1040F00027ED31E02D933C93309709F03FCA4ACA2F
:1041000010917F030C94A8168091F5029091F6020D
:104110002091F3023091F402285F3F4F82179307FA
:1041200008F489C8FC013897F093F602E093F50291
:10413000309709F480C8A091FB02B091FC0210975F
:1041400009F41BC29F012A1B3B0B3595279535951A
:1041500027953595279515962C93F093FC02E093BF
:10416000FB0215821482DC0112972FE931E02D93B6
:104170003C93309709F04FC89FCE8091F502909103
:10418000F6022091F3023091F402285F3F4F82172C
:10419000930710F40C94D018FC013897F093F602B2
:1041A000E093F502309711F40C94D018A091FB0223
:1041B000B091FC02109709F4D7C19F012A1B3B0B59
:1041C00035952795359527953595279515962C93F3
:1041D000F093FC02E093FB0215821482DC0112973B
:1041E0006FE871E06D937C93309711F00C94C018D8
:1041F0004FCE8091F5029091F6022091F30230911A
:10420000F402285F3F4F8217930708F473C9FC013B
:104210003897F093F602E093F502309709F46AC9F3
:10422000A091FB02B091FC02109709F494C19F0188
:104230002A1B3B0B35952795359527953595279561
:1042400015962C93F093FC02E093FB0215821482E6
:10425000DC0112972CEC31E02D933C93309709F060
:104260003BC946C98091F5029091F6022091F30274
:104270003091F402285F3F4F8217930708F4E9C892
:10428000FC013897F093F602E093F502309709F4B9
:10429000E0C8A091FB02B091FC02109709F452C152
:1042A0009F012A1B3B0B359527953595279535950D
:1042B000279515962C93F093FC02E093FB02158250
:1042C0001482DC0112972EEB31E02D933C93309752
:1042D00009F0B1C8BCC88091F5029091F602209116
:1042E000F3023091F402285F3F4F8217930708F4DE
:1042F0005EC8FC013897F093F602E093F502309720
:1043000009F455C8A091FB02B091FC02109709F482
:1043100046C19F012A1B3B0B35952795359527955F
:104320003595279515962C93F093FC02E093FB02AC
:1043300015821482DC01129728EB31E02D933C9317
:10434000309709F026C831C88091F5029091F602A5
:104350002091F3023091F402285F3F4F82179307B8
:1043600010F40C948619FC013897F093F602E09350
:10437000F502309711F40C948619A091FB02B091CC
:10438000FC02109709F402C19F012A1B3B0B3595D3
:104390002795359527953595279515962C93F09368
:1043A000FC02E093FB0215821482DC0112972BEAD7
:1043B00031E02D933C93309711F00C94721992CD0B
:1043C0008091F5029091F6022091F3023091F4026F
:1043D000285F3F4F8217930708F4F2C9FC01389712
:1043E000F093F602E093F502309709F4E9C9A09141
:1043F000FB02B091FC02109709F490C09F012A1BA8
:104400003B0B359527953595279535952795159629
:104410002C93F093FC02E093FB0215821482DC01E2
:10442000129725E032E02D933C93309709F0BCC9F8
:10443000C7C960E08091AF030E94F610E0CB3093D3
:104440000B0120930A012BE02093B100F9CA8FB72A
:10445000F894A090DC03B090DD03C090DE03D09010
:10446000DF038FBF67E070E04FEC50E0E091B603F0
:10447000F091B70390810180F281E02DF894818161
:10448000892B81832281892F809528232283DB0138
:104490001197F1F7218182238183D7011197F1F7D9
:1044A00080817894FA013197F1F7892311F00C9407
:1044B0009C152FB7F8948091DC039091DD03A091B7
:1044C000DE03B091DF032FBF8A199B09AC09BD0938
:1044D0008E3E9240A105B10508F4C8CF0C949C15FE
:1044E00041E050E072CA42E050E06FCA43E050E061
:1044F0006CCA44E050E069CA45E050E066CA84E016
:1045000090E039CA85E090E036CA82E090E033CA94
:1045100083E090E030CA81E090E02DCAF093FA0287
:10452000E093F902F093FC02E093FB0276CF80E087
:104530009091B003981710F00C944E138093B00331
:104540000C94D412F093FA02E093F902F093FC0277
:10455000E093FB02B4CEF093FA02E093F902F093F9
:10456000FC02E093FB0272CEF093FA02E093F902B0
:10457000F093FC02E093FB022FCEF093FA02E0935B
:10458000F902F093FC02E093FB02EBCDF093FA0208
:10459000E093F902F093FC02E093FB0204CFF09366
:1045A000FA02E093F902F093FC02E093FB02C0CE22
:1045B0003F8A2E8AD10180E09D918927E82FEF70F4
:1045C000F0E0EA51FF4F9491E82FE295EF70F0E0B0
:1045D000EA50FF4FE491892F8E276A897B896A17F9
:1045E0007B0751F7998998130C94CB15E091B6038A
:1045F000F091B70350810180F281E02DF894818120
:10460000652F60958623818378944CE723E030E022
:1046100003C0415009F403C3C9010197F1F7808138
:104620008523B9F3F8948281862382838181852B47
:10463000818378948BE797E00197F1F7F894818173
:104640006823618383E191E00197F1F78081789499
:10465000E3E6F6E03197F1F7582309F0E0C2A091C4
:10466000B603B091B70328E030E041E01DC0BC9034
:104670001196ED91FC911297F89492815B2D5095D3
:104680009523928391819B299183C7010197F1F72B
:1046900092818B2D892B82837894C6010197F1F743
:1046A000440F2150310901F1842F857501F7BC9029
:1046B0001196ED91FC911297F89492815B2D509593
:1046C0009523928391819B299183C4010197F1F7EE
:1046D00092818B2D892B82837894C3010197F1F706
:1046E000440F2150310901F7F8941196ED91FC9196
:1046F000129791818C918095892381831196ED91F8
:10470000FC91129792818C91809589238283789471
:1047100028014E895F89FA01A190AF0128E030E0BD
:1047200011E01DC00C911196ED91FC911297F89437
:104730009281602F6095962392839181902B918333
:10474000C7010197F1F79281802F892B828378949A
:10475000C6010197F1F7110F2150310901F18A2D9E
:10476000812301F70C911196ED91FC911297F89429
:104770009281602F6095962392839181902B9183F3
:10478000C4010197F1F79281802F892B828378945D
:10479000C3010197F1F7110F2150310901F7F89486
:1047A0001196ED91FC91129791818C9180958923BE
:1047B00081831196ED91FC91129792818C91809555
:1047C0008923828378942C893D892417350709F041
:1047D000A2CF8201A091B603B091B70328E030E0E8
:1047E00051E01DC0BC901196ED91FC911297F89488
:1047F00092814B2D40959423928391819B299183A3
:10480000C7010197F1F792818B2D892B82837894D0
:10481000C6010197F1F7550F2150310901F1852F9C
:104820008E7B01F7BC901196ED91FC911297F89454
:1048300092814B2D40959423928391819B29918362
:10484000C4010197F1F792818B2D892B8283789493
:10485000C3010197F1F7550F2150310901F7F89481
:104860001196ED91FC91129791818C9180958923FD
:1048700081831196ED91FC91129792818C91809594
:10488000892382837894AE014F5F5F4F27E030E049
:104890008FEC90E01F8B0E8BE091B603F091B70385
:1048A000508001811281F894D80111966C91119772
:1048B000652911966C93119712966C911297B52CED
:1048C000B0946B2112966C93D9011197F1F7D8012E
:1048D00011966C911197B6221196BC92D70111973F
:1048E000F1F7D8016C917894DC011197F1F765210B
:1048F00011E009F410E0A080618172817B8F6A8FE2
:10490000F894AA8DBB8D11966C9111976A29119616
:104910006C93119712966C9112975A2C50946521B2
:1049200012966C93D9011197F1F7AA8DBB8D119650
:104930006C911197562211965C92D7011197F1F75D
:10494000AA8DBB8D6C917894DC011197F1F7A622AA
:1049500009F01260A080618172817B8F6A8FF89468
:10496000AA8DBB8D11966C9111976A2911966C9343
:10497000119712966C9112975A2C509465211296A9
:104980006C93D9011197F1F7AA8DBB8D11966C919B
:104990001197562211965C92D7011197F1F7AA8DC3
:1049A000BB8D6C917894DC011197F1F7A62209F088
:1049B0001460A080618172817B8F6A8FF894AA8DC8
:1049C000BB8D11966C9111976A2911966C93119772
:1049D00012966C9112975A2C5094652112966C93F2
:1049E000D9011197F1F7AA8DBB8D11966C91119792
:1049F000562211965C92D7011197F1F7AA8DBB8DC3
:104A00006C917894DC011197F1F7A62209F01860F7
:104A1000A080618172817B8F6A8FF894AA8DBB8D93
:104A200011966C9111976A2911966C9311971296B1
:104A30006C9112975A2C5094652112966C93D9015F
:104A40001197F1F7AA8DBB8D11966C911197562293
:104A500011965C92D7011197F1F7AA8DBB8D6C91DD
:104A60007894DC011197F1F7A62209F01061A0807B
:104A7000618172817B8F6A8FF894AA8DBB8D1196AC
:104A80006C9111976A2911966C93119712966C91FB
:104A900012975A2C5094652112966C93D901119754
:104AA000F1F7AA8DBB8D11966C9111975622119634
:104AB0005C92D7011197F1F7AA8DBB8D6C91789418
:104AC000DC011197F1F7A62209F01062A080618144
:104AD00072817B8F6A8FF894AA8DBB8D11966C9131
:104AE00011976A2911966C93119712966C911297EF
:104AF0005A2C5094652112966C93D9011197F1F7B5
:104B0000AA8DBB8D11966C911197562211965C92CD
:104B1000D7011197F1F7AA8DBB8D6C917894DC01C8
:104B20001197F1F7A62209F0106470810180F281DB
:104B3000E02DF8946181672B6183A281672F6095D6
:104B4000A623A283D9011197F1F7A1816A2361837A
:104B5000D7011197F1F760817894FC013197F1F753
:104B6000672309F01068FA011193AF01E215F3050C
:104B700009F092CE0E891F89E091B603F091B70338
:104B800030810180F281E02DF8948181632F60955E
:104B90008623818378942CE743E050E003C02150C2
:104BA00009F43DC0CA010197F1F780818323B9F36D
:104BB000F8948281862382838181832B81837894F8
:104BC0008BE797E00197F1F7F8948181682361837F
:104BD00083E191E00197F1F780817894E3E6F6E0D4
:104BE0003197F1F73823D9F489819A812B8181118A
:104BF00024C0911122C04C81211120C03D816E81C1
:104C00007F815885A98541111EC031111CC06111D9
:104C10001AC0711118C0511116C0A11114C0A09072
:104C20001B02B0901C02209125023091260260E008
:104C300070E08EEF92EC0C94D3154C813D816E8127
:104C40007F815885A985E82FEF70F0E0EA51FF4F8A
:104C5000B491E82FE295EF70F0E0EA50FF4FE49155
:104C6000BE27B927EB2FEF70F0E0EA51FF4FB49069
:104C7000B295BF70EB2FF0E0EA50FF4FE491EB25C7
:104C80002E27E22FEF70F0E0EA51FF4FB49122950A
:104C90002F70E22FF0E0EA50FF4FE491EB274E2710
:104CA000E42FEF70F0E0EA51FF4F249142954F70EE
:104CB000E42FF0E0EA50FF4FE491E2273E27E32F94
:104CC000EF70F0E0EA51FF4F249132953F70E32FEF
:104CD000F0E0EA50FF4FE491E2276E27E62FEF70F5
:104CE000F0E0EA51FF4F249162956F70E62FF0E0FB
:104CF000EA50FF4FE491E227372F3E27E32FEF7072
:104D0000F0E0EA51FF4F249132953F70E32FF0E03D
:104D1000EA50FF4FE4912E272527E22FEF70F0E0B5
:104D2000EA51FF4F349122952F70E22FF0E0EA50C4
:104D3000FF4FE491E327AE1372CF292F30E0322FDB
:104D40002227330F330F330F90E0880F991F880FFE
:104D5000991F880F991F282B392B8A858031E1F004
:104D6000B9016138F4EE7F070CF459CF072E000C1F
:104D7000880B990B0E94AE2A20E030E040E05CE313
:104D80000E94632BA0901B02B0901C022091250270
:104D9000309126020C94D315552311F3452F50E082
:104DA000CA01871B91099695982F88279795879513
:104DB000BA010E94232960527109207F220F331FFC
:104DC000220F331F220F331F620F731FCACFF093BE
:104DD000FA02E093F902F093FC02E093FB0284C92B
:104DE000F093FA02E093F902F093FC02E093FB02E5
:104DF00042C9F093FA02E093F902F093FC02E093C7
:104E0000FB0200C9F093FA02E093F902F093FC026E
:104E1000E093FB020C94C91F44E650E0DA01A81BA2
:104E2000B90BCD010C94A21CE091B603F091B7032D
:104E300020810180F281E02DF8949181822F80956C
:104E40009823918378949CE702C09150E9F0D601B1
:104E50001197F1F730813223C1F3F89492819823AE
:104E600092839181922B91837894D7011197F1F7D6
:104E7000F894918189238183C8010197F1F780819A
:104E80007894C5010197F1F7B1018091B603909133
:104E9000B7030E94020364EB8091B6039091B703BD
:104EA0000E94650AE091B603F091B70390810180FA
:104EB000F281E02DF8948181892B81832281892FD1
:104EC000809528232283D4011197F1F72181822331
:104ED0008183D3011197F1F7808198237894F201AF
:104EE0003197F1F7E091B603F091B703308101807B
:104EF000F281E02DF8942181832F8095282321834E
:104F000078942CE702C02150E9F0D6011197F1F70F
:104F100040814323C1F3F8942281282322832181F5
:104F2000232B21837894D7011197F1F7F8942181ED
:104F300082238183D8011197F1F780817894F5015C
:104F40003197F1F7992319F02A850C94D21E91E03C
:104F50009093AD032A850C94D21E8AE0E9CA8BE0B7
:104F6000E7CA8F3109F0E3CA89E0E2CA809185037C
:104F700090918603009711F00C94682C089510927C
:104F800051021092500288EE93E0A0E0B0E08093CE
:104F9000520290935302A0935402B093550284E6B8
:104FA00091E090934F0280934E0285EC90E09093B5
:104FB0005B0280935A0284EC90E090935D028093B0
:104FC0005C0280EC90E090935F0280935E0281EC43
:104FD00090E0909361028093600282EC90E0909365
:104FE00063028093620286EC90E090936502809366
:104FF0006402109267021092680210926902109285
:105000006A028EEF92E09093F2028093F102909305
:10501000F4028093F3028EE793E09093F60280937C
:10502000F5029093F8028093F7028091FD02807858
:105030008093FD021092EB021092EC021092ED02AE
:105040001092EE0284E690E09093F0028093EF02DB
:1050500060E082E00E944C11E6E2F1E0E491E0932E
:10506000CA03E2E1F1E0E491F0E0EE0FFF1FEA5F36
:10507000FE4F859194919093CC038093CB03109233
:10508000D5031092D7031092D6031092D40387E071
:10509000EDECF3E0DF011D928A95E9F71092C3036E
:1050A0001092C2031092AE038AEC93E09093B70380
:1050B0008093B6031092B4031092B5031092AD031F
:1050C00089E08093B00381E08093B1038093B203C1
:1050D0008093B3031092A7031092A8031092A90320
:1050E0001092AA0388EE93E09093AC038093AB03F5
:1050F0001092A1031092A2031092A3031092A40392
:1051000081E090E09093A6038093A50310929B0307
:1051100010929C0310929D0310929E038AE090E0EF
:105120009093A00380939F0310929503109296038F
:10513000109297031092980390939A038093990387
:1051400010928F0310929003109291031092920389
:1051500082E390E0909394038093930380E18093A3
:105160007E0380E490E00E94D02B9C019093860304
:1051700080938503892B09F443C010927F0310921A
:105180008003109281031092820310928303109285
:10519000840380E090E0A0ECBFE7809387039093C6
:1051A0008803A0938903B0938A0380938B03909321
:1051B0008C03A0938D03B0938E0390E19150F9017D
:1051C000B4E09B9FE00DF11D112410821182128228
:1051D00013829111F3CF60910C0170910D0180E168
:1051E00097E20E9423291092C4031092C5031092E3
:1051F000C6031092C7037093C9036093C803089550
:1052000010927E0310927F0310928003109281030C
:1052100010928203109283031092840380E090E046
:10522000A0ECBFE78093870390938803A093890342
:10523000B0938A0380938B0390938C03A0938D0388
:10524000B0938E03C8CF97FB072E16F4009407D0B7
:1052500077FD09D00E945C2907FC05D03EF49095AB
:1052600081959F4F0895709561957F4F0895052E04
:1052700097FB1EF400940E944E2957FD07D00E9410
:10528000702907FC03D04EF40C944E29509540959C
:10529000309521953F4F4F4F5F4F089590958095E2
:1052A000709561957F4F8F4F9F4F0895EE0FFF1FB1
:1052B0000590F491E02D0994AA1BBB1B51E107C096
:1052C000AA1FBB1FA617B70710F0A61BB70B881F96
:1052D000991F5A95A9F780959095BC01CD01089525
:1052E000A1E21A2EAA1BBB1BFD010DC0AA1FBB1FEA
:1052F000EE1FFF1FA217B307E407F50720F0A21B5C
:10530000B30BE40BF50B661F771F881F991F1A94C8
:1053100069F760957095809590959B01AC01BD01F2
:10532000CF0108955058BB27AA270E94AA290C94A0
:10533000242B0E94162B38F00E941D2B20F039F4EC
:105340009F3F19F426F40C94132B0EF4E095E7FB21
:105350000C940D2BE92F0E94352B58F3BA176207D6
:1053600073078407950720F079F4A6F50C94572B62
:105370000EF4E0950B2EBA2FA02D0B01B901900170
:105380000C01CA01A0011124FF27591B99F0593FB4
:1053900050F4503E68F11A16F040A22F232F342FFC
:1053A0004427585FF3CF469537952795A795F0404A
:1053B0005395C9F77EF41F16BA0B620B730B840B5F
:1053C000BAF09150A1F0FF0FBB1F661F771F881F17
:1053D000C2F70EC0BA0F621F731F841F48F487956F
:1053E00077956795B795F7959E3F08F0B0CF939561
:1053F000880F08F09927EE0F9795879508950E94DA
:10540000E92A08F481E008950E94182A0C94242BBC
:105410000E941D2B58F00E94162B40F029F45F3F8C
:1054200029F00C940D2B51110C94582B0C94132B28
:105430000E94352B68F39923B1F3552391F3951B03
:10544000550BBB27AA2762177307840738F09F5FA5
:105450005F4F220F331F441FAA1FA9F335D00E2E12
:105460003AF0E0E832D091505040E695001CCAF77F
:105470002BD0FE2F29D0660F771F881FBB1F261742
:1054800037074807AB07B0E809F0BB0B802DBF0119
:10549000FF2793585F4F3AF09E3F510578F00C94E8
:1054A0000D2B0C94582B5F3FE4F3983ED4F3869574
:1054B00077956795B795F7959F5FC9F7880F911D09
:1054C0009695879597F90895E1E0660F771F881FF5
:1054D000BB1F621773078407BA0720F0621B730BA8
:1054E000840BBA0BEE1F88F7E09508950E947D2A81
:1054F0006894B1110C94582B08950E943D2B88F0AC
:105500009F5798F0B92F9927B751B0F0E1F0660F87
:10551000771F881F991F1AF0BA95C9F714C0B130C8
:1055200091F00E94572BB1E008950C94572B672FF0
:10553000782F8827B85F39F0B93FCCF386957795F7
:105540006795B395D9F73EF49095809570956195E0
:105550007F4F8F4F9F4F0895E89409C097FB3EF40B
:1055600090958095709561957F4F8F4F9F4F9923B0
:10557000A9F0F92F96E9BB279395F695879577952E
:105580006795B795F111F8CFFAF4BB0F11F460FFEE
:105590001BC06F5F7F4F8F4F9F4F16C0882311F046
:1055A00096E911C0772321F09EE8872F762F05C05A
:1055B000662371F096E8862F70E060E02AF09A95F5
:1055C000660F771F881FDAF7880F9695879597F9EA
:1055D0000895990F0008550FAA0BE0E8FEEF161684
:1055E0001706E807F907C0F012161306E407F507D7
:1055F00098F0621B730B840B950B39F40A2661F04B
:10560000232B242B252B21F408950A2609F4A140ED
:10561000A6958FEF811D811D089597F99F6780E8FA
:1056200070E060E008959FEF80EC089500240A94F4
:105630001616170618060906089500240A9412166D
:105640001306140605060895092E0394000C11F4A0
:10565000882352F0BB0F40F4BF2B11F460FF04C04D
:105660006F5F7F4F8F4F9F4F089557FD9058440FA6
:10567000551F59F05F3F71F04795880F97FB991FB1
:1056800061F09F3F79F0879508951216130614066E
:10569000551FF2CF4695F1DF08C0161617061806FB
:1056A000991FF1CF86957105610508940895E894D6
:1056B000BB2766277727CB0197F908950E94E92A2F
:1056C00008F48FEF08950E94762B0C94242B0E94EF
:1056D000162B38F00E941D2B20F0952311F00C940E
:1056E0000D2B0C94132B11240C94582B0E94352B4A
:1056F00070F3959FC1F3950F50E0551F629FF00125
:10570000729FBB27F00DB11D639FAA27F00DB11D3D
:10571000AA1F649F6627B00DA11D661F829F2227C6
:10572000B00DA11D621F739FB00DA11D621F839F4D
:10573000A00D611D221F749F3327A00D611D231F23
:10574000849F600D211D822F762F6A2F11249F5771
:1057500050409AF0F1F088234AF0EE0FFF1FBB1F74
:10576000661F771F881F91505040A9F79E3F510533
:1057700080F00C940D2B0C94582B5F3FE4F3983E73
:10578000D4F3869577956795B795F795E7959F5FDD
:10579000C1F7FE2B880F911D9695879597F908956F
:1057A0000F931F93CF93DF938230910510F482E023
:1057B00090E0E091E303F091E40320E030E0A0E02A
:1057C000B0E0309719F1408151810281138148176F
:1057D0005907C8F08417950769F4109731F01296AD
:1057E0000C93129713961C9327C00093E303109316
:1057F000E40322C02115310519F04217530718F4AC
:105800009A01BD01EF01DF01F801DBCF2115310560
:10581000F9F0281B390B2430310580F48A819B81F3
:105820006115710521F0FB019383828304C090937D
:10583000E4038093E303FE01329644C0FE01E20FCD
:10584000F31F8193919322503109398328833AC001
:105850002091E1033091E203232B41F420911001C8
:10586000309111013093E2032093E10320910E0166
:1058700030910F012115310541F42DB73EB740910C
:10588000120150911301241B350BE091E103F091BB
:10589000E203E217F307A0F42E1B3F0B281739078A
:1058A00078F0AC014E5F5F4F2417350748F04E0F7C
:1058B0005F1F5093E2034093E1038193919302C0F1
:1058C000E0E0F0E0CF01DF91CF911F910F910895BB
:1058D000CF93DF93009709F481C0FC0132971382C4
:1058E0001282A091E303B091E403109781F4208128
:1058F0003181820F931F2091E1033091E203281739
:10590000390751F5F093E203E093E10367C0ED013D
:1059100020E030E0CE17DF0740F44A815B819E0132
:1059200041155105F1F0EA01F5CFD383C2834081DF
:105930005181840F951FC817D90759F4888199811F
:10594000840F951F0296918380838A819B81938324
:1059500082832115310529F4F093E403E093E303F6
:105960003DC0E901FB83EA8349915991C40FD51FDA
:10597000EC17FD0761F480819181840F951F0296D9
:10598000E90199838883828193819B838A83E0E004
:10599000F0E012968D919C911397009719F0FD01FC
:1059A000DC01F7CF8D919C9111979D012E5F3F4FA8
:1059B000820F931F2091E1033091E20328173907EA
:1059C00069F4309729F41092E4031092E30302C0C3
:1059D00013821282B093E203A093E103DF91CF918F
:1059E000089581E090E0F8940C94FF2CFB01DC0119
:1059F0008D91019080190110D9F3990B089510E051
:105A0000C1EBD0E004C0FE010E9456292196C23BA2
:085A1000D107C9F7F894FFCF9C
:105A1800000000400100140014004000C80000000D
:105A2800E503200001004000C8000000004003001A
:105A38002000C800000000400700200064000000AB
:105A4800803F0D000800C800000000400E0008005C
:105A580096000000C03F0F00080078009A99993F0F
:105A68003200080064000000803F5E00BC0077013F
:105A780000000000DC0041014A02F701D7015C0286
:105A8800700276657273696F6E00323032302E3074
:105A9800362E32302D33007073754D6F6465007487
:105AA80068726F74746C6550657263656E740064B7
:105AB80075747950657263656E740070776D46729F
:105AC800657175656E63790074656D704300736FF9
