:100000000C9473000C949B000C949B000C949B002C
:100010000C949B000C949B000C949B000C949B00F4
:100020000C949B000C949B000C949B000C949B00E4
:100030000C949B000C949B000C949B000C949B00D4
:100040000C94ED160C949B000C9473170C943717BA
:100050000C949B000C949B000C949B000C949B00B4
:100060000C949B000C949B000000000024002700CF
:100070002A0000000000250028002B0000000008D6
:10008000000201000003040700000000000000005F
:10009000005EBCE2613FDD83C29C7E20A3FD1F4168
:1000A000009D23BE46DB65F88C11AF32CA57E97458
:1000B00000000000230026002900040404040404B6
:1000C0000404020202020202030303030303010207
:1000D00004081020408001020408102001020408D6
:1000E0001020A517BE3111241FBECFEFD8E0DEBF10
:1000F000CDBF11E0A0E0B1E0EEE5FBE602C0059067
:100100000D92AC3FB107D9F723E0ACEFB1E001C0ED
:100110001D92AE3CB207E1F710E0C2E7D0E004C0A8
:100120002197FE010E94FA31C137D107C9F70E9419
:1001300015190C94A2350C940000CF93DF93FC01A9
:10014000A181B2818081282F209560FD13C2F8948F
:1001500012969C911297922312969C931297119645
:100160009C911197982B11969C931197CFEFD0E00B
:100170002197F1F712969C911297892B12968C93E6
:1001800078948FE090E00197F1F7A181B2818081AE
:10019000282F209561FDCFC1F89412969C9112975B
:1001A000922312969C93129711969C911197982BDB
:1001B00011969C931197CFEFD0E02197F1F712960B
:1001C0009C911297892B12968C9378948FE090E0F3
:1001D0000197F1F7A181B2818081282F209562FDDE
:1001E0008BC1F89412969C911297922312969C932D
:1001F000129711969C911197982B11969C93119799
:10020000CFEFD0E02197F1F712969C911297892BAE
:1002100012968C9378948FE090E00197F1F7A1818A
:10022000B2818081282F209563FD47C1F8941296F2
:100230009C911297922312969C93129711969C91DF
:100240001197982B11969C931197CFEFD0E021979F
:10025000F1F712969C911297892B12968C937894B1
:100260008FE090E00197F1F7A181B2818081282F82
:10027000209564FD03C1F89412969C9112979223E5
:1002800012969C93129711969C911197982B119608
:100290009C931197CFEFD0E02197F1F712969C91A4
:1002A0001297892B12968C9378948FE090E00197A7
:1002B000F1F7A181B2818081282F209565FDBFC013
:1002C000F89412969C911297922312969C931297EF
:1002D00011969C911197982B11969C931197CFEFA3
:1002E000D0E02197F1F712969C911297892B1296E4
:1002F0008C9378948FE090E00197F1F7A181B2811F
:100300008081282F209566FD7BC0F89412969C91E1
:100310001297922312969C93129711969C91119783
:10032000982B11969C931197CFEFD0E02197F1F77E
:1003300012969C911297892B12968C9378948FE049
:1003400090E00197F1F7A181B2818081282F20955B
:1003500067FF37C0F89412969C91129792231296D9
:100360009C93129711969C911197982B11969C93A0
:100370001197C3E2D0E02197F1F712969C91129762
:10038000892B12968C93789487ED90E00197F1F782
:10039000F894A181B28111969C91119780818095EA
:1003A000892311968C93A181B28112969C91129708
:1003B00080818095892312968C937894DF91CF91D8
:1003C0000895F89412969C911297922312969C93FA
:1003D000129711969C911197982B11969C931197B7
:1003E000CFEFD0E02197F1F712969C911297892BCD
:1003F00012968C9378948FE090E00197F1F7C8CF34
:10040000F89412969C911297922312969C931297AD
:1004100011969C911197982B11969C931197C3E27A
:10042000D0E02197F1F712969C911297892B1296A2
:100430008C93789487ED90E00197F1F784CFF8944E
:1004400012969C911297922312969C931297119652
:100450009C911197982B11969C931197C3E2D0E031
:100460002197F1F712969C911297892B12968C93F3
:10047000789487ED90E00197F1F740CFF8941296C9
:100480009C911297922312969C93129711969C918D
:100490001197982B11969C931197C3E2D0E0219766
:1004A000F1F712969C911297892B12968C9378945F
:1004B00087ED90E00197F1F7FCCEF89412969C91AD
:1004C0001297922312969C93129711969C911197D2
:1004D000982B11969C931197C3E2D0E02197F1F7E6
:1004E00012969C911297892B12968C93789487ED93
:1004F00090E00197F1F7B8CEF89412969C9112977C
:10050000922312969C93129711969C911197982B77
:1005100011969C931197C3E2D0E02197F1F71296C0
:100520009C911297892B12968C93789487ED90E08A
:100530000197F1F774CEF89412969C91129792233A
:1005400012969C93129711969C911197982B119645
:100550009C931197C3E2D0E02197F1F712969C91FA
:100560001297892B12968C93789487ED90E00197DF
:10057000F1F730CEF89412969C911297922312962E
:100580009C93129711969C911197982B11969C937E
:100590001197C3E2D0E02197F1F712969C91129740
:1005A000892B12968C93789487ED90E00197F1F760
:1005B000ECCDFC0181E0808F938D848D981709F438
:1005C00048C0238D30E02F5F3F4F2F733327822F9A
:1005D00003C00FB607FE17C0948D9817D1F3A38DF3
:1005E000AE0FBF2FB11DA35ABF4F6C939FB7F894A6
:1005F000238F0288F389E02D8081806280839FBFF2
:1006000081E090E00895A089B1899C9195FFE4CFA5
:10061000A48DAE0FBF2FB11DA35ABF4F9C91448D27
:1006200050E04F5F5F4F4F735527448FA689B789BE
:100630009C93A089B1899C91937090649C93438D05
:10064000948D4913C9CFA289B3899C919F7D9C93B6
:10065000C3CFA089B1898C9185FFB3CF9FB7F894A0
:10066000A689B7896C930088F189E02D8081837019
:10067000806480839FBF81E090E00895DF92EF92D5
:10068000FF920F931F93CF93DF93EC018B01F12C1B
:10069000E12CDD24D394E881F9810190F081E02DF3
:1006A000D8016D918D01B2E0E93DFB0709F06AC008
:1006B000D88E9B8D8C8D981709F44CC02B8D30E013
:1006C0002F5F3F4F2F733327922F03C00FB607FEC4
:1006D0001BC08C8D9817D1F3EB8DEC0FFD2FF11D06
:1006E000E35AFF4F60839FB7F8942B8FEA89FB8909
:1006F0008081806280839FBFEA94EF2809F43EC026
:10070000EE24E394F12CC7CFE889F989808185FF35
:10071000E0CFEC8DEC0FFD2FF11DE35AFF4F8081F0
:100720004C8D50E04F5F5F4F4F7355274C8FEE89D4
:10073000FF898083E889F989808183708064808360
:100740004B8D8C8D4813C5CFEA89FB8980818F7DC5
:100750008083BFCFE889F989808185FFAFCF9FB7BC
:10076000F894EE89FF896083E889F9898081837034
:10077000806480839FBFEA94EF2811F682E0E82E20
:10078000F12C05C0CE010995892B09F0B5CFC70121
:10079000DF91CF911F910F91FF90EF90DF9008951F
:1007A000CF93DF93DC01ED91FC9111970190F081E3
:1007B000E02DEB016881D2E0E93DFD0709F086C03C
:1007C00081E058968C9358975B969C915B975C96CA
:1007D0008C915C97981709F464C05B962C915B9799
:1007E00030E02F5F3F4F2F733327922F03C00FB698
:1007F00007FE1FC05C968C915C979817C1F35B96BF
:10080000EC915B97EA0FFB2FF11DE35AFF4F6083DA
:100810009FB7F8945B962C935B975296ED91FC9161
:100820008081806280839FBF81E090E0DF91CF91E3
:1008300008955096ED91FC915197808185FFDACF14
:100840005C96EC915C97EA0FFB2FF11DE35AFF4F8A
:1008500080815C964C915C9750E04F5F5F4F4F7387
:1008600055275C964C935C975696ED91FC91579763
:1008700080835096ED91FC915197808183708064C4
:1008800080835B964C915B975C968C915C97481348
:10089000B1CF5296ED91FC91539780818F7D8083EB
:1008A000A9CF5096ED91FC915197808185FF95CF0E
:1008B0009FB7F8945696ED91FC91579760835096A8
:1008C000ED91FC91808183708064ACCF099531E01B
:1008D00020E0892B29F0832F922FDF91CF9108956B
:1008E00030E0832F922FF9CF90E0FC01E458FF4FC6
:1008F0002491FC01E253FF4F349186549F4FFC0139
:1009000084918823A1F0211118C0E82FF0E0EE0FA8
:10091000FF1FEE58FF4FA591B4918FB7F894611166
:1009200007C09C91E32FE095E923EC938FBF0895D6
:10093000EC91E32BEC938FBFFACF233029F160F0D9
:100940002730E1F02830A1F02430F9F690918000B2
:100950009F7D90938000D9CF213031F02230A9F6CD
:1009600094B59F7D94BDD1CF94B59F7794BDCDCFE5
:100970009091B0009F7D9093B000C7CF9091B00050
:100980009F779093B000C1CF909180009F77909314
:100990008000BBCF8F929F92AF92BF92CF92DF9297
:1009A000EF92FF92CF93DF93E0919A0380919C03A3
:1009B000882329F080919703882309F4A7C0E95080
:1009C000BEEECB2EB2E0DB2EE12CF12CE33008F4AE
:1009D00078C080919803811184C09FB7F8944091AA
:1009E000300250913102609132027091330286B52B
:1009F000A8995FC09FBF762F652F542F4427480FBB
:100A0000511D611D711D440F551F661F771F440F37
:100A1000551F661F771FC114D104E104F104D1F101
:100A20003FB7F8948091300290913102A091320248
:100A3000B091330226B5A89B05C02F3F19F001964F
:100A4000A11DB11D3FBFBA2FA92F982F8827820F54
:100A5000911DA11DB11D880F991FAA1FBB1F880FD3
:100A6000991FAA1FBB1F841B950BA60BB70B883EB3
:100A70009340A105B105A0F281E0C81AD108E108B0
:100A8000F10848515C4F6F4F7F4FC114D104E1040E
:100A9000F10431F680919803811129C0DF91CF9143
:100AA000FF90EF90DF90CF90BF90AF909F908F908E
:100AB00008958F3F09F49ECF4F5F5F4F6F4F7F4F79
:100AC00099CFF0E0EE0FFF1FE95AFE4FC080D180B2
:100AD0000D2C000CEE08FF0880919803882309F480
:100AE0007CCF60E0809199030E94740476CF61E02E
:100AF00080919903DF91CF91FF90EF90DF90CF909D
:100B0000BF90AF909F908F900C9474048FB7F8941F
:100B10008090340290903502A0903602B090370257
:100B20008FBF67E070E043E250E0AFECB0E01BC085
:100B30007894CD010197F1F78FB7F894C090340203
:100B4000D0903502E0903602F09037028FBFC8187F
:100B5000D908EA08FB082EEEC21622E0D206E1040C
:100B6000F10408F09BCFE091A003F091A1038081F4
:100B70000180F281E02DF8949181982B918322815C
:100B8000382F309523232283EB012197F1F79181B0
:100B900093239183EA012197F1F79081892309F446
:100BA000C7CF78948FEC90E00197F1F777CFCF9390
:100BB000DF9390E0FC01E253FF4F249186549F4F56
:100BC000FC0184918823A9F090E0880F991FFC0113
:100BD000E859FF4FA591B491FC01EE58FF4FC59124
:100BE000D491662349F08FB7F894EC91E22BEC9303
:100BF0008FBFDF91CF9108959FB7F8948C91E22F2A
:100C0000E0958E238C932881E223E8839FBFF1CF68
:100C1000FC01918D228D892F90E0805C9F4F821B7B
:100C200091098F7399270895BF92CF92DF92EF9227
:100C3000FF920F931F93CF93DF934115510509F452
:100C400086C06A01EC017B0110E000E0BB24B39494
:100C5000E881F9810190F081E02DD7016D917D014E
:100C6000B2E0E93DFB0709F06CC0B88E9B8D8C8D1E
:100C7000981709F454C02B8D30E02F5F3F4F2F732E
:100C80003327822F03C00FB607FE23C09C8D891720
:100C9000D1F3EB8DEC0FFD2FF11DE35AFF4F608375
:100CA0009FB7F8942B8FEA89FB89808180628083CB
:100CB0009FBF0F5F1F4FC016D10651F6C801DF91CD
:100CC000CF911F910F91FF90EF90DF90CF90BF9049
:100CD0000895E889F989908195FFD8CFEC8DEC0FC4
:100CE000FD2FF11DE35AFF4F90814C8D50E04F5F77
:100CF0005F4F4F7355274C8FEE89FF899083E889AA
:100D0000F98990819370906490834B8D9C8D4913E9
:100D1000BDCFEA89FB8990819F7D9083B7CFE88919
:100D2000F989808185FFA7CF9FB7F894EE89FF8965
:100D30006083E889F98980818370806480839FBFA4
:100D4000B8CFCE010995892B09F4B8CFB2CF10E006
:100D500000E0B4CF209151028091520230E0205C3B
:100D60003F4F281B31092F73332781E0232B09F4D0
:100D700080E00895CF93DF93EC01888D882399F16B
:100D8000EA89FB89A889B989908195FD03C09C9166
:100D900096FD29C00FB607FCF7CF808185FFF4CF01
:100DA0008C9185FFF1CFEC8DEC0FFD2FF11DE35AF7
:100DB000FF4F20818C8D90E001968F7399278C8F47
:100DC000EE89FF892083E889F989808183708064B6
:100DD00080839B8D8C8D9813D3CFEA89FB8980818A
:100DE0008F7D8083CDCFDF91CF910895FC01938DCE
:100DF000848D981720F4891B990B019708952FE390
:100E000030E0291B3109820F932F911D0895FC01B9
:100E1000918D828D981761F0A28DAE0FBF2FB11DFD
:100E20005D968C91928D9F5F9F73928F90E0089555
:100E30008FEF9FEF0895FC01918D828D981731F00F
:100E4000828DE80FF11D858D90E008958FEF9FEF63
:100E5000089580E090E0892B69F080915102209103
:100E6000520290E0805C9F4F821B91098F739927FB
:100E7000892B09F408950C940000AF92BF92CF9291
:100E8000DF92EF92FF920F931F93CF93DF93EC01CA
:100E90007B0165E50E949D00870188E0E80EF11C5A
:100EA00083E2A82EB12C67ED70E04FEF50E02FE009
:100EB00030E0CDC0F894D280DC20D282D180D92A13
:100EC000D182DA011197F1F7D2809D29928378942B
:100ED000F9013197F1F7E981FA819881C92EC0941F
:100EE00081FDD7C0F894D280DC20D282D180D92A6B
:100EF000D182DA011197F1F7D2809D2992837894FB
:100F0000F9013197F1F7E981FA819881C92EC094EE
:100F100082FDD7C0F894D280DC20D282D180D92A39
:100F2000D182DA011197F1F7D2809D2992837894CA
:100F3000F9013197F1F7E981FA819881C92EC094BE
:100F400083FDD7C0F894D280DC20D282D180D92A08
:100F5000D182DA011197F1F7D2809D29928378949A
:100F6000F9013197F1F7E981FA819881C92EC0948E
:100F700084FDD7C0F894D280DC20D282D180D92AD7
:100F8000D182DA011197F1F7D2809D29928378946A
:100F9000F9013197F1F7E981FA819881C92EC0945E
:100FA00085FDD7C0F894D280DC20D282D180D92AA6
:100FB000D182DA011197F1F7D2809D29928378943A
:100FC000F9013197F1F7E981FA819881C92EC0942E
:100FD00086FDD7C0F894D280DC20D282D180D92A75
:100FE000D182DA011197F1F7D2809D29928378940A
:100FF000F9013197F1F7E981FA819881D92ED094DE
:1010000087FFD7C0F89482818D2182838181892BCB
:101010008183D5011197F1F78281982B928378947F
:10102000CB010197F1F7F894E981FA8191818881E8
:10103000809589238183E981FA81928188818095D5
:10104000892382837894E016F10609F4C4C0D8019C
:101050008D918D01E981FA819881C92EC09480FF1C
:1010600029CFF894D280DC20D282D180D92AD182B3
:10107000D5011197F1F7D2809D2992837894FB01D5
:101080003197F1F7E981FA819881C92EC09481FFE7
:1010900029CFF894D280DC20D282D180D92AD18283
:1010A000D5011197F1F7D2809D2992837894FB01A5
:1010B0003197F1F7E981FA819881C92EC09482FFB6
:1010C00029CFF894D280DC20D282D180D92AD18253
:1010D000D5011197F1F7D2809D2992837894FB0175
:1010E0003197F1F7E981FA819881C92EC09483FF85
:1010F00029CFF894D280DC20D282D180D92AD18223
:10110000D5011197F1F7D2809D2992837894FB0144
:101110003197F1F7E981FA819881C92EC09484FF53
:1011200029CFF894D280DC20D282D180D92AD182F2
:10113000D5011197F1F7D2809D2992837894FB0114
:101140003197F1F7E981FA819881C92EC09485FF22
:1011500029CFF894D280DC20D282D180D92AD182C2
:10116000D5011197F1F7D2809D2992837894FB01E4
:101170003197F1F7E981FA819881C92EC09486FFF1
:1011800029CFF894D280DC20D282D180D92AD18292
:10119000D5011197F1F7D2809D2992837894FB01B4
:1011A0003197F1F7E981FA819881D92ED09487FDA2
:1011B00029CFF89482818D2182838181892B81833B
:1011C000DA011197F1F78281982B92837894C90103
:1011D0000197F1F728CFDF91CF911F910F91FF90E9
:1011E000EF90DF90CF90BF90AF9008958F929F9235
:1011F000AF92BF92CF92DF92EF92FF920F931F9325
:10120000CF93DF938C01E091A003F091A103308193
:10121000A181B281F89411969C911197832F8095AA
:10122000982311969C93119778942CE743E050E013
:1012300002C0215071F1FA013197F1F79C9193238B
:10124000C1F3F89412969C911297982312969C934E
:10125000129711969C911197932B11969C9311972D
:101260007894EBE7F7E03197F1F7F89411969C91B9
:101270001197892311968C93119783E191E001973F
:10128000F1F72C91789483E696E00197F1F73223F9
:1012900071F080E0DF91CF911F910F91FF90EF905F
:1012A000DF90CF90BF90AF909F908F9008954B01AB
:1012B000B8018091A0039091A1030E943D076EEBBD
:1012C0008091A0039091A1030E949D00840174016C
:1012D00089E0E80EF11CA7E0B0E043E250E02FEC1B
:1012E00030E0E091A003F091A1036081C181D2813F
:1012F000F8947981762B7983DA80C62EC094DC202D
:10130000DA82CD010197F1F779817C217983CA01D5
:101310000197F1F78881682309F0EAC17894C9013F
:101320000197F1F7A12C7081C181D281F894D98005
:10133000D72AD982CA80B72EB094CB20CA82CD01D9
:101340000197F1F7D980DB20D982CA010197F1F723
:101350006881972F962309F0C4C17894E9012197F9
:10136000F1F77081C181D281F894D980D72AD982CE
:10137000CA80B72EB094CB20CA82CD010197F1F775
:10138000D980DB20D982CA010197F1F76881972FB4
:10139000962309F09FC17894E9012197F1F77081B4
:1013A000C181D281F894D980D72AD982CA80B72E38
:1013B000B094CB20CA82CD010197F1F7D980DB2010
:1013C000D982CA010197F1F76881972F962309F016
:1013D0007AC17894E9012197F1F77081C181D281B6
:1013E000F894D980D72AD982CA80B72EB094CB205E
:1013F000CA82CD010197F1F7D980DB20D982CA01D9
:101400000197F1F76881972F962309F055C17894D9
:10141000E9012197F1F77081C181D281F894D980D7
:10142000D72AD982CA80B72EB094CB20CA82CD01E8
:101430000197F1F7D980DB20D982CA010197F1F732
:101440006881972F962309F030C17894E90121979C
:10145000F1F77081C181D281F894D980D72AD982DD
:10146000CA80B72EB094CB20CA82CD010197F1F784
:10147000D980DB20D982CA010197F1F76881972FC3
:10148000962309F00BC17894E9012197F1F7908137
:101490000180F281E02DF8946181692B6183728172
:1014A000D92ED0947D217283ED012197F1F76181CE
:1014B0006D216183EA012197F1F76081962309F09C
:1014C000DFC07894F9013197F1F7E801A9928E0114
:1014D000CE15DF0509F005CFE091A003F091A1033F
:1014E00030810180F281E02DF8948181632F609535
:1014F0008623818378942CE743E050E003C0215099
:1015000009F4C7CECA010197F1F780818323B9F3AB
:10151000F8948281862382838181832B81837894CE
:101520008BE797E00197F1F7F89481816823618355
:1015300083E191E00197F1F72081789483E696E0CA
:101540000197F1F7322309F0A4CEF40180818111D3
:10155000D6C0E401B181B111DBC0A281A111D1C01B
:1015600073817111D7C054815111E1C0458141117E
:10157000D7C036813111D8C027812111DDC09085B7
:10158000992309F486CEE82FEF70F0E0E057FF4F83
:101590006491E82FE295EF70F0E0E056FF4F849100
:1015A00086278B27E82FEF70F0E0E057FF4F64911C
:1015B00082958F70E82FF0E0E056FF4FE491E62728
:1015C0006E2F6A27E62FEF70F0E0E057FF4F84910F
:1015D00062956F70E62FF0E0E056FF4FE491E82748
:1015E0006E2F6727E62FEF70F0E0E057FF4F8491F2
:1015F00062956F70E62FF0E0E056FF4FE491E82728
:101600005E27E52FEF70F0E0E057FF4F8491529591
:101610005F70E52FF0E0E056FF4FE491E8274E279A
:10162000E42FEF70F0E0E057FF4F849142954F7048
:10163000E42FF0E0E056FF4FE491E8273E27E32F48
:10164000EF70F0E0E057FF4F849132953F70E32F49
:10165000F0E0E056FF4FE4918E278227E82FEF70ED
:10166000F0E0E057FF4F249182958F70E82FF0E073
:10167000E056FF4FE491E22781E09E130ACE0ACEA6
:101680007894F9013197F1F78A2D8068F8018193F8
:101690008F01EE15FF0509F024CE1ECF7894C90105
:1016A0000197F1F76894A6F8F2CE7894E9012197B2
:1016B000F1F76894A5F8CDCE7894E9012197F1F778
:1016C0006894A4F8A8CE7894E9012197F1F768947A
:1016D000A3F883CE7894E9012197F1F76894A2F8F2
:1016E0005ECE7894E9012197F1F76894A1F839CE9C
:1016F0007894C9010197F1F7AA24A39414CEB1817B
:10170000A2817381548145813681278190853BCFA9
:10171000A28173815C814D813E812F81988533CF79
:101720003681278190852FCF278190852CCF4581C9
:1017300036812781908527CF908525CF2F923F92A4
:101740005F926F927F928F929F92AF92BF92CF9251
:10175000DF92EF92FF920F931F93CF93DF93EC01F1
:101760008B018D858823B1F01B861D861C8680E049
:10177000DF91CF911F910F91FF90EF90DF90CF906D
:10178000BF90AF909F908F907F906F905F903F90B1
:101790002F9008953881E981FA81F8948181632F2F
:1017A00060958623818378942CE743E050E002C063
:1017B0002150D1F2CA010197F1F780818323C1F34F
:1017C000F8948281862382838181832B818378941C
:1017D0008BE797E00197F1F7F894818168236183A3
:1017E00083E191E00197F1F72081789483E696E018
:1017F0000197F1F7322309F0B7CF60EFCE010E94D5
:101800009D0091E0D12C712CCC24C39467E070E052
:1018100023E230E04FEC50E022242A94312CEFE018
:10182000AE2EB12CF7ED8F2E912C8881E981FA81B3
:10183000F894F180F82AF182E280682E6094E62024
:10184000E282DB011197F1F7F180F620F182D901F4
:101850001197F1F7E0818E237894FA013197F1F72F
:101860006880E981FA81F894F180F628F182E280BB
:10187000562C5094E520E282DB011197F1F7F180BC
:10188000F520F182D9011197F1F7E0816E2209F07C
:1018900076C07894FA013197F1F7ED2CF12C811193
:1018A00084C08B85C81608F0A0C0EC0EFD1ED701C1
:1018B00013968C91892366246394811101C0612C55
:1018C000E981FA818881611075C0692E6094B8E061
:1018D000BC1508F0CC86D70113967C901397762020
:1018E00013967C927C2CF894E280F82EF094FE20E3
:1018F000F282F180F82AF182D1011197F1F7F2809A
:101900008F2982837894F5013197F1F7C394990F69
:1019100031F4D394B7E0BD1530F091E086CFE7E025
:10192000ED1508F082CFF0E4FC1508F01DCF7B86A2
:10193000711002C081E08D878B81882309F414CF58
:10194000D8018C938C8111968C9311978D8112966E
:101950008C9312978E8113968C9313978F81149684
:101960008C931497888515968C9315978985169670
:101970008C9316978A8517968C9381E0F9CE78948C
:10198000FA013197F1F78111CECF8881E981FA818F
:101990007E01ED0CF11CD70113966C901397592E14
:1019A0005094652013966C929ECFE981FA818881CC
:1019B000EC0EFD1ED70113966C901397692A1396AF
:1019C0006C92F894E280F82EF094FE20F282F1807E
:1019D000F82AF182D9011197F1F7F2808F298283D9
:1019E0007894F4013197F1F791CF662463948C11C8
:1019F000612CEC0EFD1E64CF4F925F926F927F922E
:101A00008F929F92AF92BF92CF92DF92EF92FF920E
:101A10000F931F93CF93DF93CDB7DEB7A4970FB685
:101A2000F894DEBF0FBECDBF6C017B01DB018D9052
:101A30009C90F401A081B181FC018481E82FEF77B3
:101A4000E250EF3318F1ED91FC9160ECC40109957F
:101A5000F70122813381820F931F93838283A4969F
:101A60000FB6F894DEBF0FBECDBFDF91CF911F91AF
:101A70000F91FF90EF90DF90CF90BF90AF909F902D
:101A80008F907F906F905F904F900895F0E0E55BAE
:101A9000F24F0C94FA31F00DF00D240E240E391093
:101AA000230DCB0E230D220F230DA70F230D230D86
:101AB000230D230D230D230D230D230D230D230DA6
:101AC000230D230D230D230D230D230D230D230D96
:101AD000230DE80F230D230D230D230D230D230DBF
:101AE000230D230D230D230D230D230D230D230D76
:101AF000230D230D230D230D230D230D230D230D66
:101B0000230D230D230D230D230D230D230D230D55
:101B1000230D8A0DF601A080B1802D913C91A11476
:101B2000B10411F40C94C315D50115964C91159779
:101B300061E9442351F1842F01E010E007C00F5FF9
:101B40001F4F15968C911597882341F0E8E08E027F
:101B5000C0011124A80FB91F109789F761E070E048
:101B60000031110540F05DC56F5F7F4FD5011596BF
:101B70004C91442349F0B8E04B02A0011124A40E7B
:101B8000B51EA114B10481F76057C401F90109958C
:101B9000D70112962D913C911397820F931F1396A4
:101BA0009C938E931297D6010D911C9101151105EE
:101BB00051F455CFB8E08B02C0011124080F191F52
:101BC0000115110541F0B701C8010E94FC0CF80194
:101BD00085818111EFCFD70112968D919C913FCFD6
:101BE000F60102811381608171811296ED91FC9161
:101BF000139726E0E431F20709F018C60115110524
:101C0000B9F05B01D12CC12C09C0FFEFCF1ADF0A5C
:101C10000C151D0569F0F401A081B181F5016191F8
:101C20005F01ED91FC91C4010995892B71F7860143
:101C3000D70112968D919C911397800F911F139647
:101C40009C938E9312970BCFF60100811181F801BE
:101C500001900020E9F731975F01A01AB10AED91D8
:101C6000FC9120E2A216B10408F458C5BFEFAB16F0
:101C7000B10409F008F49EC36AEDC4010995F701A7
:101C800022813381820F931F93838283BD8AAE8A20
:101C9000C080D180F601A081B1811296ED91FC91B6
:101CA000139726E0E431F20709F075C7ED91FC9136
:101CB0006B2DC6010995009779F0D601ED91FC9145
:101CC0000190F081E02D6E89C6010995892B11F4F0
:101CD0000C94D61682E090E0F70122813381820FC6
:101CE000931F93838283D701CD90DC90F601A0816E
:101CF000B1811296ED91FC91139726E0E431F20741
:101D000009F085C5A114B10409F442C7480110E0E7
:101D100000E077247394ED91FC91D4016D914D0115
:101D2000B2E0E93DFB0709F036C4F601708E938DF1
:101D3000848D981709F418C4F601238D30E02F5FC5
:101D40003F4F2F733327922F03C00FB607FED5C323
:101D5000D6015C968C915C979817B9F35B96EC91E1
:101D6000EC0DFD2DF11DE35AFF4F60839FB7F894F2
:101D7000F601238F0288F389E02D808180628083C1
:101D80009FBF0F5F1F4FA016B10609F425C5F601CE
:101D9000A081B181C0CFF601408051806280738004
:101DA000F0E84F1651046104710408F4C7C4ED91C2
:101DB000FC912FEF421651046104710409F008F4FC
:101DC00029C341145104B1E06B06710408F439C50C
:101DD0006EECC4010995D70112962D913C91139791
:101DE000820F931F13969C938E93129779824C8245
:101DF0006A825B82CD90DC90F601A081B18112965F
:101E0000ED91FC91139726E0E431F20709F060C7E9
:101E1000AE014F5F5F4F5A0110E000E009C00F5F55
:101E20001F4F0430110509F403CFF601A081B181E1
:101E3000F50161915F01ED91FC91C6010995892B36
:101E400071F7F6CEF60140805180628073801414E1
:101E50001504160417040CF40FC4E0EE4E16EFEF51
:101E60005E066E067E060CF031C3ED91FC91B0E883
:101E70004B16BFEF5B066B067B060CF013C562EDDD
:101E8000C4010995D70112962D913C911397820FA9
:101E9000931F13969C938E93129779864C866A862D
:101EA0005B86CD90DC90F601A081B1811296ED9118
:101EB000FC91139726E0E431F20709F07BC75E013D
:101EC00049E0A40EB11C10E000E099249394ED9138
:101ED000FC91D5016D915D01B2E0E93DFB0709F090
:101EE000AAC4F601908E938D848D981709F478C456
:101EF000F601238D30E02F5F3F4F2F733327922F52
:101F000003C00FB607FE56C3D6015C968C915C9752
:101F10009817B9F35B96EC91EC0DFD2DF11DE35A8A
:101F2000FF4F60839FB7F894F601238F0288F389EF
:101F3000E02D8081806280839FBF0F5F1F4F043040
:101F4000110509F475CEF601A081B181C0CFF6016B
:101F5000B08011810281D380ED91FC916AECC401C3
:101F60000995D70112962D913C911397820F931FDB
:101F700013969C938E931297DD86B88A0E871F87DF
:101F8000CD90DC90F601A081B1811296ED91FC918B
:101F9000139726E0E431F20709F03FC45E014DE0FB
:101FA000A40EB11C10E000E009C00F5F1F4F043009
:101FB000110509F43DCEF601A081B181F5016191D1
:101FC0005F01ED91FC91C6010995892B71F730CE27
:101FD000F601608171812D913C916115710509F4C3
:101FE000D5C5DB0115968C9101E010E0811107C089
:101FF00056C00F5F1F4FFB018581882349F0F8E031
:102000008F02C0011124680F791F6115710589F7CE
:1020100060E8600F0031110508F442C06EEDC401A4
:10202000F9010995D70112962D913C911397820FD2
:10203000931F13969C938E931297198F0A8F8D91ED
:102040009C91DC01ED91FC910280F381E02DB6E0E2
:10205000E431FB0709F04AC2BE01675E7F4F0E9470
:102060003E03F70122813381820F931F9383828382
:1020700025C0F601808163EC811101C062ECED9115
:10208000FC91C4010995D70112962D913C911397AB
:10209000820F931F13969C938E931297E0CC61E866
:1020A000C401F9010995D70112962D913C9113971E
:1020B000820F931F13969C938E931297D6016D9067
:1020C0007C906114710409F4CACC55245394F30133
:1020D000A680B780F50101900020E9F731974F0104
:1020E0008A189B08D7018D919C91DC01ED91FC91A0
:1020F0000190F081E02DB0E28B16910408F40EC13E
:102100002FEF8216910409F008F413C16AED0995C6
:10211000F70122813381820F931F938382839F8AE9
:10212000888E00811181F801A081B1811296ED9114
:10213000FC91139726E0E431F20709F033C1ED91E9
:10214000FC91692DC8010995009771F0D801ED91B6
:10215000FC910190F081E02D688DC8010995892BD3
:1021600009F469C482E090E0F701C280D3808C0D4D
:102170009D1D93838283D7010D911C91F801A0814D
:10218000B1811296ED91FC91139726E0E431F207AC
:1021900009F002C1D12CC12C8114910409F4A2C010
:1021A000ED91FC91D5016D915D01B2E0E93DFB0738
:1021B00009F08FC0F801508E938D848D981709F423
:1021C00067C0F801238D30E02F5F3F4F2F73332717
:1021D000922F03C00FB607FE24C0D8015C968C91E5
:1021E0005C979817B9F35B96EC91E00FF12FF11D16
:1021F000E35AFF4F60839FB7F894F801238F02885A
:10220000F389E02D8081806280839FBFBFEFCB1A6E
:10221000DB0A8C149D0409F458C0F801A081B18137
:10222000BFCF5096ED91FC915197808185FFD5CF1E
:102230005C96EC915C97E00FF12FF11DE35AFF4F94
:1022400080815C964C915C9750E04F5F5F4F4F737D
:1022500055275C964C935C975696ED91FC91579759
:1022600080835096ED91FC915197808183708064BA
:1022700080835B964C915B975C968C915C9748133E
:10228000ACCF5296ED91FC9180818F7D8083A5CF5C
:102290000088F189E02D808185FF93CF9FB7F89466
:1022A000D8015696ED91FC91579760835096ED9129
:1022B000FC9180818370806480839FBFBFEFCB1AC5
:1022C000DB0A8C149D0409F0A8CFF7018281938169
:1022D00009C0C8010995892B09F098CFD70112963A
:1022E0008D919C91C80ED91EF701D382C282B7018D
:1022F000C3010E94FC0CD30115968C91882351F0E8
:10230000F8E08F02C0011124680E791E6114710477
:1023100009F0DDCEF70182819381A1CB60EA680DDF
:102320000995F701C280D3808C0D9D1D9383828314
:1023300022CF69ED0995D70112962D913C91139703
:10234000820F931F13969C938E9312978CA28D915C
:102350009C91FC01A081B1811296ED91FC911397A3
:1023600026E0E431F20709F030C2ED91FC91682DCE
:10237000099531E020E0892B09F430E0832F922F7A
:10238000D7011296CD90DC9013978C0D9D1D13965E
:102390009C938E931297EFCEA401B501C8010995C5
:1023A0006C019CCF42E050E0BE01695E7F4FC801E6
:1023B0000995DACE69EDC4010995F70122813381CF
:1023C000820F931F93838283ABA280819181FC0152
:1023D000A081B1811296ED91FC91139726E0E43132
:1023E000F20709F040C4ED91FC916A2D099531E0A6
:1023F00020E0892B09F430E0832F922FD701129629
:102400002D913C911397820F931F13969C938E935B
:10241000129769CC6CECC4010995D70112962D91E5
:102420003C911397820F931F13969C938E93129750
:102430004E8E0D90BC91A02D8D919C911197FC0119
:1024400002811381F6E004311F0709F01FC4FC016B
:1024500020813181F2E0293D3F0709F00BC481E082
:1024600058968C9358975B969C915B975C968C9151
:102470005C97981709F4A0C35B962C915B9730E0AA
:102480002F5F3F4F2F733327422F03C00FB607FE36
:102490009BC25C968C915C974817C1F35B96EC915C
:1024A0005B97EA0FFB2FF11DE35AFF4F40829FB766
:1024B000F8945B962C935B975296ED91FC918081FA
:1024C000806280839FBF81E090E0DDCD49A21296BB
:1024D000ED91FC9126E0E431F20709F0E8C3BE017A
:1024E0006F5D7F4FC4010E94D003CDCD42E050E02C
:1024F000BE01675E7F4F0995B4CD5096ED91FC917A
:102500005197808185FF24CC5C96EC915C97EC0D13
:10251000FD2DF11DE35AFF4F80815C964C915C9735
:1025200050E04F5F5F4F4F7355275C964C935C971D
:102530005696ED91FC91579780835096ED91FC91C2
:10254000519780818370806480835B964C915B9708
:102550005C968C915C974813FBCB5296ED91FC9165
:1025600080818F7D8083F4CB0088F189E02D80818C
:1025700085FFE2CB9FB7F894D6015696ED91FC917A
:10258000579760835096ED91FC91808183708064B1
:1025900080839FBFF6CBC6010995892B09F0F1CB4B
:1025A000D70112968D919C91800F911FF701938313
:1025B000828355CA5096ED91FC915197808185FF99
:1025C000A3CC5C96EC915C97EC0DFD2DF11DE35ACC
:1025D000FF4F80815C964C915C9750E04F5F5F4F5E
:1025E0004F7355275C964C935C975696ED91FC91F2
:1025F000579780835096ED91FC915197808183701D
:10260000806480835B964C915B975C968C915C9721
:1026100048137ACC5296ED91FC9180818F7D808316
:1026200073CC6CEDC401F9010995D70112962D9177
:102630003C911397820F931F13969C938E9312973E
:102640001B8F0C8F8D919C91DC01ED91FC91028090
:10265000F381E02DB6E0E431FB0709F0C6C2BE010C
:10266000655E7F4F0E943E03F70122813381820F16
:10267000931F9383828397CAF0E84F165104610435
:1026800071040CF464C1ED91FC912FEF42165104DA
:102690006104710409F00CF4E8C141145104B1E083
:1026A0006B06710408F43FC26EECC4010995D701B2
:1026B00012962D913C911397820F931F13969C9322
:1026C0008E9312977D8248866E825F82CD90DC90D9
:1026D000F601A081B1811296ED91FC91139726E04D
:1026E000E431F20709F036C35E0145E0A40EB11CE7
:1026F00010E000E009C00F5F1F4F0430110509F41E
:1027000097CAF601A081B181F50161915F01ED9158
:10271000FC91C6010995892B71F78ACA60EA6A0D96
:10272000C4010995D70112962D913C911397820F00
:10273000931F13969C938E931297D5CA4D8E129623
:10274000ED91FC91139726E0E431F20709F02BC2DA
:10275000ED91FC9142E0E93DF40709F0D8C181E038
:10276000D40158968C9358975B969C915B975C9696
:102770008C915C97981709F461C1F401238D30E0C6
:102780002F5F3F4F2F733327922F03C00FB607FEE3
:10279000A7C0D4015C968C915C978917B9F35B96BE
:1027A000EC91E80DF92DF11DE35AFF4F40829FB7E0
:1027B000F894F401238F0288F389E02D80818062F0
:1027C00080839FBF81E090E043C941E050E0BE01BB
:1027D0006C5D7F4F0995D4CDF70182819381E4CE62
:1027E0000088F189E02D808185FF82CB9FB7F89426
:1027F000D6015696ED91FC91579760835096ED91D6
:10280000FC9180818370806480839FBF96CBA501FB
:10281000B801C60109958C01C3CE44E050E0BE0169
:10282000635F7F4FC60109958C0102CAA801C401EC
:1028300009958C01FDC9C6010995892B09F07DCB4D
:10284000F7C96DECC4010995F70122813381820F2C
:10285000931F93838283598A4A8A00811181F801E8
:10286000A081B1811296ED91FC91139726E0E4319D
:10287000F20709F092C2ED91FC91652DC80109950E
:10288000009709F4E5C8D801ED91FC910190F08121
:10289000E02D6A89C8010995892B09F493CF82E05C
:1028A00090E0D6C860EDC4010995F701228133811B
:1028B000820F931F938382834AA280819181DC01DE
:1028C000ED91FC910280F381E02DB6E0E431FB074D
:1028D00009F04AC2BE016E5D7F4F0E94D003B8C8A6
:1028E0005096ED91FC915197808185FF52CF5C9677
:1028F000EC915C97E80DF92DF11DE35AFF4F8081B3
:102900005C964C915C9750E04F5F5F4F4F7355273B
:102910005C964C935C975696ED91FC91579780830B
:102920005096ED91FC9151978081837080648083F3
:102930005B964C915B975C968C915C97481329CF82
:102940005296ED91FC9180818F7D808322CF4F8EB6
:102950001296ED91FC91139726E0E431F20709F00D
:10296000AEC1ED91FC9142E0E93DF40709F0CFC022
:1029700081E0D40158968C9358975B969C915B9715
:102980005C968C915C97981709F489C1F401838D4A
:1029900090E001968F739927482F03C00FB607FE6A
:1029A0002BC1D4015C962C915C974217B9F35B96CE
:1029B000EC91E80DF92DF11DE35AFF4F40829FB7CE
:1029C000F894F401838FF7CE5096ED91FC915197D6
:1029D000808185FF5ECD5C96EC915C97EA0FFB2FC2
:1029E000F11DE35AFF4F50815C968C915C9790E00B
:1029F00001968F7399275C968C935C975696ED9110
:102A0000FC91579750835096ED91FC91519780819E
:102A10008370806480835B969C915B975C968C91BD
:102A20005C97981336CD5296ED91FC915397808127
:102A30008F7D80832ECD81E090E096CB5096ED91F6
:102A4000FC915197808185FF98CE9FB7F894569658
:102A5000ED91FC91579740825096ED91FC918081C9
:102A60008370806480839FBFADCE6CECC4010995F8
:102A7000D70112962D913C911397820F931F1396B5
:102A80009C938E93129748A20D90BC91A02D8D918E
:102A90009C911197FC0102811381F6E004311F071C
:102AA00009F072C1FC0120813181F2E0293D3F072C
:102AB00009F0E0C081E058968C9358975B969C9102
:102AC0005B975C968C915C97981709F455C15B965F
:102AD0008C915B9790E001968F739927482F03C0E4
:102AE0000FB607FEFFC05C962C915C974217C1F3AE
:102AF0005B96EC915B97EA0FFB2FF11DE35AFF4FBA
:102B000040829FB7F8945B968C935B97D5CC642DED
:102B1000C401099531E020E0892B09F430E0832FCE
:102B2000922F0C94280D6DECC4010995F7012281B8
:102B30003381820F931F938382835B8A4C8A008147
:102B40001181F801A081B1811296ED91FC9113974A
:102B500026E0E431F20709F037C1ED91FC91652DD3
:102B6000C8010995009711F40C94280DD801ED9136
:102B7000FC910190F081E02D6C89C8010995892BA9
:102B800009F08DCE1FCE60E90C94C50D60E888CAAF
:102B900010E000E009CD42E050E0BE016B5E7F4FE7
:102BA000C601099599C841E050E0BE01635E7F4FC0
:102BB000C40109950C94280D5096ED91FC91519704
:102BC000808185FF59CC9FB7F8945696ED91FC9182
:102BD000579740825096ED91FC918081837080647C
:102BE00080839FBF81E090E04ECA42E050E0BE018A
:102BF000655E7F4F099538CD5096ED91FC915197C8
:102C0000208125FFCECE5C96EC915C97E80DF92DE6
:102C1000F11DE35AFF4F50815C962C915C9730E098
:102C20002F5F3F4F2F7333275C962C935C975696FC
:102C3000ED91FC91579750835096ED91FC915197EF
:102C400020812370206420835B963C915B975C9687
:102C50002C915C973213A5CE5296ED91FC91208178
:102C60002F7D20839ECE41E050E0BE016D5D7F4F01
:102C70000995C4CB642DCD01F901099531E020E01F
:102C8000892B09F430E0832F922FFDC941E050E0F9
:102C9000BE01625E7F4FCD01F8010995F4C95096DF
:102CA000ED91FC915197808185FF70CECECE41E0B1
:102CB00050E0BE016F5D7F4FC4010995E4C941E05A
:102CC00050E0BE01615E7F4FC40109950C94280D50
:102CD00044E050E0BE016F5F7F4FC60109958C0153
:102CE0000C94180E5096ED91FC915197208125FF80
:102CF000FACE5C96EC915C97EA0FFB2FF11DE35A3C
:102D0000FF4F50815C962C915C9730E02F5F3F4FD6
:102D10002F7333275C962C935C975696ED91FC911C
:102D2000579750835096ED91FC91519720812370D5
:102D3000206420835B963C915B975C962C915C971A
:102D40003213D1CE5296ED91FC91539720812F7D75
:102D50002083C9CE44E050E0BE016B5F7F4FC601C7
:102D600009958C010C94180E41E050E0BE016E5D97
:102D70007F4F09950C94280D5096ED91FC91519739
:102D8000808185FFA4CE1FCF41E050E0BE01605E90
:102D90007F4FCD01F801099576C942E050E0BE01B0
:102DA0006F5E7F4FC80109950C94280D81E090E07B
:102DB0000C946C0E44E050E0BE01675F7F4FC6018B
:102DC00009958C010C94180E42E050E0BE016D5E36
:102DD0007F4FC80109950C94280D1F920F920FB6D2
:102DE0000F9211242F933F938F939F93AF93BF9391
:102DF0008091340290913502A0913602B091370251
:102E000030912F0223E0230F2D3768F126E8230F9E
:102E10000296A11DB11D20932F028093340290933E
:102E20003502A0933602B093370280913002909120
:102E30003102A0913202B09133020196A11DB11D61
:102E40008093300290933102A0933202B093330208
:102E5000BF91AF919F918F913F912F910F900FBE96
:102E60000F901F9018950196A11DB11DD4CF1F92F0
:102E70000F920FB60F9211242F938F939F93EF937E
:102E8000FF93E0915402F0E0EB56FD4F20818091DA
:102E9000540290E001968F73992780935402E09139
:102EA0004E02F0914F022083E0914802F0914902D6
:102EB000808183708064808390915302809154025A
:102EC000981307C0E0914A02F0914B0280818F7DF8
:102ED0008083FF91EF919F918F912F910F900FBE63
:102EE0000F901F9018951F920F920FB60F921124FA
:102EF0002F938F939F93EF93FF93E0914802F0916C
:102F000049028081E0914E02F0914F0282FF0BC096
:102F10008081FF91EF919F918F912F910F900FBE24
:102F20000F901F9018952081809151028F5F8F73B1
:102F300090915202891769F3E0915102F0E0E85C48
:102F4000FD4F258F80935102E4CFCF93DF931092F2
:102F50003B0210923A0288EE93E0A0E0B0E080934A
:102F60003C0290933D02A0933E02B0933F0281E663
:102F700091E0909339028093380285EC90E0909331
:102F800045028093440284EC90E090934702809342
:102F9000460280EC90E0909349028093480281ECD5
:102FA00090E090934B0280934A0282EC90E09093E1
:102FB0004D0280934C0286EC90E090934F028093F8
:102FC0004E0210925102109252021092530210922D
:102FD000540289EE92E09093DC028093DB0290939E
:102FE000DE028093DD0289E693E09093E002809315
:102FF000DF029093E2028093E1021092E3021092CA
:10300000E8021092D5021092D6021092D7021092C6
:10301000D80282E390E09093DA028093D902CEEE58
:10302000D2E0D093BD03C093BC0360E082E00E9475
:10303000D705E0EDF0E0E491E093AE03ECEBF0E0D7
:10304000E491F0E0EE0FFF1FE055FF4F8591949162
:103050009093B0038093AF031092B9031092BB0317
:103060001092BA031092B803E1EBF3E087E0DF01BE
:103070001D928A95E9F71092AD031092AC0310925D
:1030800098038EEA93E09093A1038093A00310929B
:103090009E0310929F031092970389E080939A03F6
:1030A00081E080939B0380939C0380939D03109207
:1030B00091031092920310929303109294038AE06A
:1030C00090E0909396038093950310928B03109257
:1030D0008C0310928D0310928E0390939003809333
:1030E0008F0310928503109286031092870310922B
:1030F000880390938A038093890310927F03109230
:1031000080031092810310928203D0938403C093B2
:10311000830380E190E090936A0380936903909326
:10312000700380936F0380E490E00E947434909366
:10313000760380937503009709F44EC010926C03D8
:1031400010926B0310926E0310926D031092710334
:1031500010927203109273031092740340E050E0D7
:1031600060EC7FE740937703509378036093790393
:1031700070937A0340937B0350937C0360937D03A9
:1031800070937E0320E4FC0111922A95E9F71092D6
:10319000BE031092BF031092C0031092C1038AE0D5
:1031A00090E09093C3038093C203609106017091F5
:1031B000070180E197E20E94C7311092C403109288
:1031C000C5031092C6031092C7037093C90360939E
:1031D000C803DF91CF91089510926A03109269039A
:1031E00010926C0310926B0310926E0310926D0399
:1031F0001092710310927203109273031092740371
:1032000080E090E0A0ECBFE7809377039093780391
:10321000A0937903B0937A0380937B0390937C030C
:10322000A0937D03B0937E03B2CFCF93DF93CDB74E
:10323000DEB762970FB6F894DEBF0FBECDBF7894AD
:1032400084B5826084BD84B5816084BD85B58260AB
:1032500085BD85B5816085BD80916E00816080935C
:103260006E001092810080918100826080938100C5
:1032700080918100816080938100809180008160D5
:10328000809380008091B10084608093B100809130
:10329000B00081608093B00080917A008460809358
:1032A0007A0080917A00826080937A0080917A001F
:1032B000816080937A0080917A00806880937A00A0
:1032C0001092C10061E083E00E94D70561E08BE0CD
:1032D0000E94D70561E08CE00E94D70561E08DE097
:1032E0000E94D70560E080E10E94D70560E08EE093
:1032F0000E94D70560E08FE00E94D70560E081E181
:103300000E94D70560E083E00E94740460E08BE0D7
:103310000E94740461E08CE00E94740460E08DE01F
:103320000E947404E0914802F091490282E0808397
:10333000E0914402F09145021082E0914602F09142
:10334000470283E0808310925002E0914C02F0919A
:103350004D0286E08083E0914A02F0914B02808129
:1033600080618083E0914A02F0914B028081886005
:103370008083E0914A02F0914B02808180688083D3
:10338000E0914A02F0914B0280818F7D8083809191
:10339000E802982F9F7709F093C18078806280932C
:1033A000E8021092E5021092E4021092E7021092F5
:1033B000E6028091DF029091E0022091DD023091DF
:1033C000DE02285F3F4F8217930708F0F9C181E0C2
:1033D0008093E302E091A003F091A1031386158688
:1033E00014861286339687E0DF011D928A95E9F7ED
:1033F00010929E0310929F0313E0812E912C07E000
:10340000202E312C83E2482E512C9BE7A92E97E0E9
:10341000B92E23E1C22EDD24D39433E6E32E36E029
:10342000F32E0FEC10E073C09A85E92FEF70F0E0F7
:10343000E057FF4F8491E92FE295EF70F0E0E056FE
:10344000FF4FE4918E272B858227E82FEF70F0E065
:10345000E057FF4F2491E82FE295EF70F0E0E0563F
:10346000FF4F849182272C858227E82FEF70F0E0B0
:10347000E057FF4F2491E82FE295EF70F0E0E0561F
:10348000FF4FE491E2272D852E27E22FEF70F0E029
:10349000E057FF4F8491E22FE295EF70F0E0E056A5
:1034A000FF4F249182272E852827E22FEF70F0E02E
:1034B000E057FF4F8491E22FE295EF70F0E0E05685
:1034C000FF4F249182272F852827E22FEF70F0E00D
:1034D000E057FF4F8491E22FE295EF70F0E0E05665
:1034E000FF4FE4918E2728898227E82FEF70F0E0C4
:1034F000E057FF4F2491E82FE295EF70F0E0E0569F
:10350000FF4FE491E22789898E1709F419C1BE01A2
:10351000665F7F4F8091A0039091A1030E949E0B54
:10352000782E811181CF80919E03282F30E0309337
:103530001402209313029CE090939A03882309F4C9
:10354000F4C11A8A73E0872E912CEBE7AE2EE7E0E8
:10355000BE2EF3E1CF2EDD24D394A3E66A2EA6E09F
:103560007A2EEE24EA94F12C0FE010E0E091A00313
:10357000F091A10313861586148612861186108693
:1035800017821682158214821382412C5A8806C033
:10359000541409F43DC14394541458F0BE01665FBD
:1035A0007F4F8091A0039091A1030E949E0B8111F7
:1035B000EFCF9A8580919A03903109F4AEC189309A
:1035C00008F4A2C1482EECE0E81710F46CE0462E97
:1035D000BE016F5F7F4FCE010A960E94F6088823D6
:1035E00009F49BC1E6EFE40DE33010F40C946C2772
:1035F0008FE19D81981709F490C18D83E091A0031C
:10360000F091A10380810180F281E02DF894218165
:10361000982F90952923218378942CE7D401119732
:10362000F1F73081382311F00C9453272150B1F772
:10363000BE01665F7F4F8091A0039091A1030E941D
:103640003D076EE48091A0039091A1030E949D002C
:103650006B818091A0039091A1030E949D006C81D9
:103660008091A0039091A1030E949D008A858031E2
:1036700039F06D818091A0039091A1030E949D007B
:10368000E091A003F091A10390810180F281E02DEF
:10369000892F809520919D0321110C948B27F894FC
:1036A00021812823218378942CE7D4011197F1F705
:1036B0003081392311F00C9472272150B1F72DC1BC
:1036C00085FF88CE0091E4021091E50201151105F5
:1036D00009F46FCED80116966D917C91B1E06F36EA
:1036E0007B0701F16115710531F08FE691E00E94D1
:1036F0009935892BB9F0D80115968C91882309F456
:1037000058CEB8E08B02C0011124080F191F011513
:10371000110509F44ECEF80166817781F1E06F362C
:103720007F0701F7F801848180788A60848381E0D3
:1037300090E0A0E0B0E080839183A283B3834ACE7F
:1037400080919E038F5F80939E03983241F010F02A
:103750000C949C27903119F0923209F0D8CE8091C8
:103760009F038F5F80939F0360909703662011F4FF
:103770000C94A6279031D9F0BE016F5F7F4FCE0128
:103780000A960E94F608882311F40C94C72A8D81AA
:103790008F3311F40C94C42A10F40C94CA2A8F3578
:1037A00011F40C94C12A8F3711F00C94C72A8CE0C5
:1037B00090919A03981708F0AACE80939A03A7CE07
:1037C000FC013897F093E002E093DF02309709F4B0
:1037D00001CEA091E602B091E702109709F48BC0E8
:1037E0009F012A1B3B0B35952795359527953595D8
:1037F000279515962C93F093E702E093E602158245
:10380000148202972FE631E0DC012D933C938BCF9D
:103810009A85E92FEF70F0E0E057FF4F8491E92F90
:10382000E295EF70F0E0E056FF4F249128278B855A
:103830002827E22FEF70F0E0E057FF4F8491E22F4E
:10384000E295EF70F0E0E056FF4F249182272C853F
:103850002827E22FEF70F0E0E057FF4F8491E22F2E
:10386000E295EF70F0E0E056FF4F249182272D851E
:103870002827E22FEF70F0E0E057FF4F8491E22F0E
:10388000E295EF70F0E0E056FF4F249182272E85FD
:103890002827E22FEF70F0E0E057FF4F8491E22FEE
:1038A000E295EF70F0E0E056FF4F249182272F85DC
:1038B0002827E22FEF70F0E0E057FF4F8491E22FCE
:1038C000E295EF70F0E0E056FF4FE4918E272889F3
:1038D0008227E82FEF70F0E0E057FF4F2491E82FA8
:1038E000E295EF70F0E0E056FF4F8491822729893E
:1038F000281351CE5FCEF093E502E093E402F093FB
:10390000E702E093E6027BCFBE016F5F7F4FCE01FF
:103910000A960E94F60881116BCE4A894F5F4A8B46
:1039200080919E03481708F421CE10929B03E091EA
:10393000A003F091A10380810180F281E02DF89431
:103940002181982F90952923218378942CE743E0B7
:1039500050E0DA011197F1F73081382311F00C941F
:10396000972A2150B1F76CEC8091A0039091A103AC
:103970000E949D00E091A003F091A1036091970344
:10398000A181B2817081F89412962C911297972F91
:103990009095922312969C93129711969C91119751
:1039A000972B11969C9311972FEF30E0C901019747
:1039B000F1F712969C911297872F892B12968C9370
:1039C00078947FE0A72EB12CD5011197F1F7A18152
:1039D000B2815081F89412967C911297452F4095B0
:1039E000472312964C93129711964C911197452BA1
:1039F00011964C931197C9010197F1F712964C91CA
:103A00001297452B12964C937894D5011197F1F7A4
:103A1000A181B2817081F89412965C911297472F20
:103A20004095452312964C93129711964C911197FD
:103A3000472B11964C93119743E250E0CA0101972E
:103A4000F1F712961C911297712B12967C93789431
:103A500007ED10E0D8011197F1F7A181B2817081D3
:103A6000F8941296EC901297F72EF094FE2012968E
:103A7000FC9212971196FC901197F72A1196FC92DE
:103A80001197C9010197F1F71296FC9012977F29BF
:103A900012967C937894D5011197F1F7A181B281A8
:103AA0007081F8941296EC901297F72EF094FE2005
:103AB0001296FC9212971196FC901197F72A119684
:103AC000FC921197C9010197F1F71296FC90129799
:103AD0007F2912967C937894D5011197F1F7A181F3
:103AE000B281F080F8941296EC9012977F2D709529
:103AF0007E2112967C93129711967C9111977F29C3
:103B000011967C931197C9010197F1F712967C9158
:103B100012977F2912967C937894D5011197F1F72B
:103B2000A181B2817081F8941296EC901297F72ED1
:103B3000F094FE201296FC9212971196FC90119729
:103B4000F72A1196FC921197CA010197F1F7129684
:103B50004C911297742B12967C937894D8011197FC
:103B6000F1F7418152817081F894DA0112968C91BB
:103B7000A72FA0958A23DA0112968C93129711969B
:103B80008C911197872B11968C93D9011197F1F78E
:103B9000DA0112962C911297272B12962C93789477
:103BA000C5010197F1F7611116C0F894A181B281A6
:103BB00011969C91119780818095892311968C9301
:103BC000A181B28112969C91129780818095892360
:103BD00012968C93789480919B0381110E94CA0461
:103BE00080E480937C0080917A00806480937A00E6
:103BF00080917A0086FDFCCF8091780080917900D9
:103C0000109216021092150240E440937C008091BD
:103C10007A00806480937A0080917A0086FDFCCFE0
:103C200090917800809179008927982789272091A1
:103C30000B0230910C02820F931F90930C02809321
:103C40000B0220911502309116022F5F3F4F3093E7
:103C500016022093150225303105BCF265E070E0B4
:103C60000E94C73170930C0260930B023BEF432E0E
:103C700031E0532E40E0242E40E0342E53E0652EF8
:103C8000712C80912D0290912E0220912B02309167
:103C90002C0297FF02C00C94142B8536910514F466
:103CA0000C942B2BE4E6F0E0F0932E02E0932D022F
:103CB0002436310511F00C9430318FB7F8944091CF
:103CC00034025091350260913602709137028FBFF5
:103CD0008091BE039091BF03A091C003B091C10336
:103CE0008A019B01081B190B2A0B3B0B8091C20315
:103CF0009091C303092E000CAA0BBB0B08171907E0
:103D00002A073B0708F466C04093BE035093BF03E5
:103D10006093C0037093C1031092070210920602D1
:103D200042E420917A0080917A00887F84608093B9
:103D30007A0040937C0080917A00806480937A00BE
:103D400080917A0086FDFCCF909178008091790077
:103D500020937A008927982789272091040230919F
:103D60000502820F931F9093050280930402209115
:103D70000602309107022F5F3F4F309307022093D6
:103D80000602253031056CF265E070E00E94C73113
:103D900070930502609304026D3C710514F00C945D
:103DA000E62DEDECF0E0F0930502E09304021092B2
:103DB0002A021092290250E040E020910202309144
:103DC00003022417350711F010920A0250930302E0
:103DD000409302028FB7F89440913402509135021B
:103DE00060913602709137028FBF8091C403909129
:103DF000C503A091C603B091C7038A019B01081BAC
:103E0000190B2A0B3B0B8091C8039091C903092E13
:103E1000000CAA0BBB0B081719072A073B0708F46D
:103E200041C04093C4035093C5036093C60370938D
:103E3000C703E0910802F091090280910A02811102
:103E400011C08091290290912A02E817F90714F411
:103E50000C944E2F8E179F0714F40C94962F81E02C
:103E600080930A02F0932E02E0932D0280910D02BE
:103E700090910E0220910B0230910C028217930751
:103E800014F00C94F92D3196F0932E02E0932D024C
:103E900021E020931802873C914014F00C94002EEE
:103EA000109217028FB7F894409134025091350266
:103EB00060913602709137028FBF8091910390918B
:103EC0009203A0919303B09194038A019B01081B74
:103ED000190B2A0B3B0B8091950390919603092EA9
:103EE000000CAA0BBB0B081719072A073B0708F49D
:103EF000EBC04093910350939203609393037093AC
:103F0000940390917A0080917A00887F84608093F6
:103F10007A0080E480937C0080917A0080648093B2
:103F20007A0080917A0086FDFCCF809178006091C4
:103F3000790090937A000091750310917603E090D8
:103F40006B03F0906C030115110509F47AC0762F0C
:103F5000682F072E000C880B990B0E9452334B01DF
:103F60005C01E0906D03F0906E036701CC0CDD1CEA
:103F7000CC0CDD1CC00ED11ED6012D913D914D9172
:103F80005C916091710370917203809173039091C1
:103F900074030E94363260937103709372038093AE
:103FA000730390937403F60180829182A282B3829C
:103FB000A501940160917103709172038091730364
:103FC000909174030E94373260937103709372036F
:103FD0008093730390937403FFEFEF1AFF0AF0923C
:103FE0006E03E0926D03C0906F03D0907003EC14E9
:103FF000FD0421F410926E0310926D03E0906B03A8
:10400000F0906C03E114F10411F00C94492E8092AD
:104010007B0390927C03A0927D03B0927E038092FA
:10402000770390927803A0927903B0927A03EC140C
:10403000FD0438F42FEFE21AF20AF0926C03E092DA
:104040006B0380910F0290911002019690931002E1
:1040500080930F02019611F40C940E2EE114F104DA
:1040600011F40C940A2EB70190E080E00E945033C6
:104070009B01AC0160917103709172038091730395
:10408000909174030E94A8320E941A3370930E021A
:1040900060930D0280910B0290910C02681B790BCA
:1040A000072E000C880B990B0E94523320E030E061
:1040B00043EC5DE30E9407346093190270931A0287
:1040C00080931B0290931C028FB7F89440913402A6
:1040D0005091350260913602709137028FBF809106
:1040E0008B0390918C03A0918D03B0918E038A0174
:1040F0009B01081B190B2A0B3B0B80918F0390919E
:104100009003092E000CAA0BBB0B081719072A07EE
:104110003B0708F45CC040938B0350938C0360937F
:104120008D0370938E03109216021092150243E4D1
:1041300020917A0080917A00887F846080937A0051
:1041400040937C0080917A00806480937A00809113
:104150007A0086FDFCCF90917800809179002093C1
:104160007A0089279827892720911102309112021D
:10417000820F931F909312028093110220911502D7
:10418000309116022F5F3F4F309316022093150295
:10419000253031056CF265E070E00E94C731709304
:1041A000120260931102072E000C880B990B0E94DB
:1041B000523323E333E343E35DE30E940734609328
:1041C0001D0270931E0280931F02909320028FB7EE
:1041D000F89440913402509135026091360270910A
:1041E00037028FBF8091850390918603A09187034A
:1041F000B09188038A019B01081B190B2A0B3B0B0A
:104200008091890390918A03092E000CAA0BBB0BA5
:10421000081719072A073B0740F04093850350937E
:10422000860360938703709388038FB7F894409157
:1042300034025091350260913602709137028FBF7F
:1042400080917F0390918003A0918103B0918203BC
:104250008A019B01081B190B2A0B3B0B80918303DE
:1042600090918403092E000CAA0BBB0B08171907A9
:104270002A073B0708F4ADC240937F0350938003A5
:1042800060938103709382031092160210921502BC
:10429000C0901302D09014021C141D04E4F5F1E246
:1042A000EF2EF2E0FF2E10E000E0A02EE091A00340
:1042B000F091A10313861586148612861186108646
:1042C00017821682158214821382B12CBE01665F9A
:1042D0007F4F8091A0039091A1030E949E0B8823A1
:1042E00039F0AB1411F40C94612EB394AB1470F745
:1042F00060E070E08EEF92ECD7016D937D938D932B
:104300009D937D010F5F1F4F1093160200931502BE
:104310000C151D0551F6E091A003F091A103308129
:104320000180F281E02DF8948181432F4095842310
:10433000818378942CE702C0215001F1C3010197D9
:10434000F1F780818323C1F3F894828184238283EF
:104350008181382B318378948BE797E00197F1F7CF
:10436000F89481814823418383E191E00197F1F73B
:104370008081789483E696E00197F1F7E091A003BD
:10438000F091A1034081A181B281F89412962C9101
:104390001297842F8095822312968C9312971196F0
:1043A0008C911197842B11968C9311976FEF70E07D
:1043B000CB010197F1F712968C911297842B1296EC
:1043C0008C9378944FE050E0CA010197F1F7108187
:1043D000A181B281F89412962C911297812F809529
:1043E000822312968C93129711968C911197812BA0
:1043F00011968C931197CB010197F1F712968C913E
:104400001297812B12968C937894CA010197F1F739
:104410003081A181B281F89412969C911297832FDA
:104420008095892312968C93129711968C911197EF
:10443000832B11968C93119703E2A02EB12CC5010A
:104440000197F1F712962C911297232B12962C9329
:10445000789487ED882E912CD4011197F1F7008183
:1044600021813281F894D9011296FC901297102F75
:1044700010951F2112961C93129711961C9111975B
:10448000102B11961C931197C5010197F1F7129605
:104490001C911297102B12961C937894C4010197CB
:1044A000F1F7008121813281F894D9011296FC90B4
:1044B0001297102F10951F2112961C931297119688
:1044C0001C911197102B11961C931197CB010197FA
:1044D000F1F712961C911297102B12961C93789458
:1044E000CA010197F1F7008121813281F894D90145
:1044F0001296FC901297102F10951F2112961C9364
:10450000129711961C911197102B11961C931197CD
:10451000CB010197F1F712961C911297102B12966E
:104520001C937894CA010197F1F7008121813281AF
:10453000F894D9011296FC901297102F10951F2114
:1045400012961C93129711961C911197102B11968D
:104550001C931197C5010197F1F712961C911297C0
:10456000102B12961C937894C4010197F1F70081E7
:1045700021813281F894D9011296FC901297102F64
:1045800010951F2112961C93129711961C9111974A
:10459000102B11961C931197C5010197F1F71296F4
:1045A0001C911297102B12961C937894C4010197BA
:1045B000F1F7F89401811281D80111963C9111977D
:1045C00020812095232311962C9301811281D801FB
:1045D00012963C91129720812095232312962C93BA
:1045E00078942091A0033091A103D0909703F90112
:1045F00001811281E081F894D8011296FC90129703
:10460000FE2FF095FF211296FC9312971196FC91C4
:104610001197FE2B1196FC931197CB010197F1F79F
:104620001296FC911297EF2B1296EC937894FA0164
:104630003197F1F7D9011196ED91FC911297FC9009
:10464000F89402811F2D10951023128311811F29C8
:104650001183CB010197F1F712811F2912837894FE
:10466000FA013197F1F71196ED91FC911297FC90B8
:10467000F89402811F2D10951023128311811F2998
:104680001183C5010197F1F712811F2912837894D4
:10469000F4013197F1F71196ED91FC911297FC908E
:1046A000F89402811F2D10951023128311811F2968
:1046B0001183CB010197F1F712811F29128378949E
:1046C000FA013197F1F71196ED91FC911297FC9058
:1046D000F89402811F2D10951023128311811F2938
:1046E0001183CB010197F1F712811F29128378946E
:1046F000FA013197F1F71196ED91FC911297FC9028
:10470000F89402811F2D10951023128311811F2907
:104710001183CB010197F1F712811F29128378943D
:10472000FA013197F1F71196ED91FC9112971C91D6
:10473000F894F280012F00950F2102830181012B53
:104740000183C5010197F1F78281812B82837894DF
:10475000D4011197F1F7F901A181B2819081F89408
:104760001296EC911297892F80958E2312968C9336
:10477000129711968C911197892B11968C93119702
:10478000FB013197F1F712968C911297892B1296B3
:104790008C937894CA010197F1F7D11015C0F89461
:1047A000D9011196ED91FC91129791818C91809590
:1047B000892381831196ED91FC91129792818C91BE
:1047C000809589238283789480919B0381110E9434
:1047D000CA048FB7F8944091340250913502609129
:1047E0003602709137028FBF8091D5029091D60228
:1047F000A091D702B091D8028A019B01081B190B26
:104800002A0B3B0B8091D9029091DA02092E000C01
:10481000AA0BBB0B081719072A073B0708F42BC381
:104820004093D5025093D6026093D7027093D8027A
:104830001091E802812F8F7711F00C942D2D1078B4
:1048400010621093E8021092E5021092E4021092B6
:10485000E7021092E6028091DF029091E00220913F
:10486000DD023091DE02285F3F4F8217930710F080
:104870000C94B12F81E08093E3021091E802812F24
:104880008F7711F40C94792D15FFB2C2E090E402F9
:10489000F090E502E114F10461F1D70116966D91F3
:1048A0007C91B1E067387B07A1F40C946D2CB8E0E3
:1048B0008B02C0011124E80EF91EE114F104C9F0C5
:1048C000F70166817781F1E067387F0711F40C9476
:1048D0006D2C6115710541F087E891E00E949935D2
:1048E000892B11F40C946D2CD70115968C918111A4
:1048F000DECF8091DF029091E0022091DD023091C5
:10490000DE02285F3F4F8217930710F00C9481302E
:1049100081E08093E302409106015091070180916C
:10492000040190910501489F9001499F300D589FC7
:10493000300D1124032E000C440B550B60E074E283
:1049400084EF90E00E94DB3149015A01812F80728F
:1049500009F44EC2E090E402F090E5026701E11430
:10496000F10461F1D70116966D917C91B1E0633944
:104970007B07A1F40C94082DB8E08B02C001112430
:10498000C80ED91EC114D104C9F0F6016681778121
:10499000F1E063397F0711F40C94082D611571055E
:1049A00041F083E991E00E949935892B11F40C9430
:1049B000082DD60115968C918111DECF8091DF02F2
:1049C0009091E0022091DD023091DE02285F3F4F9E
:1049D0008217930710F00C94262F81E08093E30256
:1049E0008701E114F10449F1D70116966D917C918C
:1049F000B1E0603A7B0791F42BC7B8E08B02C001AD
:104A00001124080F191F01151105B9F0F80166816D
:104A10007781F1E0603A7F0709F41AC761157105E3
:104A200039F080EA91E00E949935892B09F410C78A
:104A3000D80115968C918111E0CF8091DF02909181
:104A4000E0022091DD023091DE02285F3F4F8217A5
:104A5000930710F00C94C52C81E08093E302009141
:104A6000E4021091E5020115110549F1D8011696ED
:104A70006D917C91B1E0663A7B0791F414C7B8E080
:104A80008B02C0011124080F191F01151105B9F07F
:104A9000F80166817781F1E0663A7F0709F403C780
:104AA0006115710539F086EA91E00E949935892BEC
:104AB00009F4F9C6D80115968C918111E0CF2091A7
:104AC000DF023091E0028091DD029091DE020896D3
:104AD0002817390710F00C94D43081E08093E3025A
:104AE0000091E4021091E5020115110559F1D80178
:104AF00016966D917C91B1E0643B7B07A1F40C9418
:104B0000EE2CB8E08B02C0011124080F191F01150B
:104B10001105C1F0F80166817781F1E0643B7F0700
:104B200011F40C94EE2C6115710539F084EB91E0D1
:104B30000E949935892B09F451C7D80115968C919B
:104B40008111DFCF2091DF023091E0028091DD0200
:104B50009091DE0208962817390710F00C94573010
:104B600081E08093E3020091E4021091E5020115D7
:104B7000110549F1D80116966D917C91B1E06F3B1A
:104B80007B0791F441C6B8E08B02C0011124080FE5
:104B9000191F01151105B9F0F80166817781F1E05F
:104BA0006F3B7F0709F430C66115710539F08FEB53
:104BB00091E00E949935892B09F426C6D8011596F3
:104BC0008C918111E0CF2091DF023091E002809141
:104BD000DD029091DE0208962817390710F00C9438
:104BE000AA3081E08093E3020091E4021091E50293
:104BF0000115110549F1D80116966D917C91B1E02E
:104C00006B3C7B0791F412C6B8E08B02C001112403
:104C1000080F191F01151105B9F0F8016681778198
:104C2000F1E06B3C7F0709F401C66115710539F0AD
:104C30008BEC91E00E949935892B09F4F7C5D801D6
:104C400015968C918111E0CF2091DF023091E00226
:104C50008091DD029091DE0208962817390710F046
:104C60000C94FE3081E08093E3020091E402109105
:104C7000E5020115110549F1D80116966D917C9157
:104C8000B1E0693D7B0791F4FDC5B8E08B02C0013E
:104C90001124080F191F01151105B9F0F8016681DB
:104CA0007781F1E0693D7F0709F4ECC56115710575
:104CB00039F089ED91E00E949935892B09F4E2C51C
:104CC000D80115968C918111E0CF2091DF023091AF
:104CD000E0028091DD029091DE02089628173907E4
:104CE00010F00C942D3081E08093E3020091E402F7
:104CF0001091E5020115110549F1D80116966D9143
:104D00007C91B1E0633E7B0791F45CC5B8E08B0217
:104D1000C0011124080F191F01151105B9F0F80180
:104D200066817781F1E0633E7F0709F44BC5611529
:104D3000710539F083EE91E00E949935892B09F4D1
:104D400041C5D80115968C918111E0CF2091DF02E9
:104D50003091E0028091DD029091DE0208962817E2
:104D6000390710F00C94033081E08093E302009146
:104D7000E4021091E5020115110549F1D8011696DA
:104D80006D917C91B1E06D3E7B0791F436C5B8E042
:104D90008B02C0011124080F191F01151105B9F06C
:104DA000F80166817781F1E06D3E7F0709F425C542
:104DB0006115710539F08DEE91E00E949935892BCE
:104DC00009F41BC5D80115968C918111E0CF209173
:104DD000DF023091E0028091DD029091DE020896C0
:104DE0002817390710F00C94D92F81E08093E30243
:104DF00088E392E09A8389831C821B82BE016F5FE5
:104E00007F4F84EE92E00E94FC0CA7EFB1E041E0FE
:104E10005D91409350029091530280915402E09131
:104E20004802F0914902981709F4EAC3209153020D
:104E300030E02F5F3F4F2F733327922F03C00FB601
:104E400007FEADC3809154029817C9F3E091530255
:104E5000F0E0EB56FD4F50839FB7F8942093530238
:104E6000E0914A02F0914B028081806280839FBF73
:104E70004A165B0669F62114310411F40C94411EA4
:104E8000809151022091520290E0805C9F4F821BE2
:104E900091098F739927892B11F40C94411E0E945C
:104EA00000000C94411EF894228129232283218141
:104EB000822B81837894D5011197F1F7F894818141
:104EC00089238183C6010197F1F780817894C3011A
:104ED0000197F1F70C94181BF0E0E25FFE4F808120
:104EE0000C94F91AF8942281282322832181922B91
:104EF00091837894D5011197F1F7F89491818923E2
:104F00008183C6010197F1F780817894C3010197ED
:104F1000F1F70C948D1CF894218128232183789437
:104F20002CE7D4011197F1F73081392309F0AFC094
:104F30002150B9F70C948D1C9B3311F40C94AF1BCA
:104F4000923411F00C94871A0C94AF1BE091A003DB
:104F5000F091A10380810180F281E02DF8942181FC
:104F6000982F90952923218378942CE7D4011197C9
:104F7000F1F73081382309F055C02150B9F7BE014F
:104F8000665F7F4F8091A0039091A1030E943D072F
:104F900064EB8091A0039091A1030E949D00E09199
:104FA000A003F091A10380810180F281E02DF894AB
:104FB0009181982B91839281282F2095922392831F
:104FC000D1011197F1F7918192239183D201119729
:104FD000F1F79081892309F055C07894C8010197B1
:104FE000F1F7672CE091A003F091A103808101808B
:104FF000F281E02DF8942181982F90952923218327
:1050000078942CE7D4011197F1F73081382311F50A
:105010002150C1F7662019F0B1E0B09397039A854B
:105020000C94BA1BF8942281292322832181822B9C
:1050300081837894D5011197F1F7F89481818923C0
:105040008183C6010197F1F780817894C7010197A8
:10505000F1F795CFF8942281292322832181822B95
:1050600081837894D5011197F1F7F8948181892390
:105070008183C6010197F1F780817894C701019778
:10508000F1F7C8CF7894C8010197F1F7ABCFF89446
:105090002281282322832181292B21837894D50101
:1050A0001197F1F7F894218182238183D60111971A
:1050B000F1F780817894F3013197F1F7982311F09B
:1050C0000C948D1CBE01665F7F4F8091A003909170
:1050D000A1030E943D07E091A003F091A10360911C
:1050E0009703A181B2814081F89412963C91129766
:1050F000242F2095232312962C93129711962C91EE
:105100001197242B11962C931197C7010197F1F752
:1051100012962C911297842F822B12968C9378944E
:10512000D8011197F1F7A181B2814081F8941296CC
:105130003C911297242F2095232312962C9312979B
:1051400011962C911197242B11962C931197C7012E
:105150000197F1F712962C911297842F822B1296B9
:105160008C937894D8011197F1F7A181B281408195
:10517000F89412963C911297242F2095232312968F
:105180002C93129711962C911197242B11962C93F6
:105190001197C7010197F1F712962C911297842F5E
:1051A000822B12968C937894D8011197F1F7A181F4
:1051B000B2814081F89412963C911297242F209549
:1051C000232312962C93129711962C911197242B2E
:1051D00011962C93119723E230E0C9010197F1F762
:1051E00012962C911297842F822B12968C9378947E
:1051F000A7EDB0E01197F1F7A181B2814081F89459
:1052000012963C911297242F2095232312962C93CB
:10521000129711962C911197242B11962C9311977C
:10522000C7010197F1F712962C911297842F822BC8
:1052300012968C937894D8011197F1F7A181B281DD
:105240004081F89412963C911297242F20952323A5
:1052500012962C93129711962C911197242B11963C
:105260002C931197C7010197F1F712962C91129781
:10527000842F822B12968C937894D8011197F1F792
:10528000A181B2814081F89412963C911297242F0B
:105290002095232312962C93129711962C911197F7
:1052A000242B11962C93119723E230E0C90101972A
:1052B000F1F712962C911297842F822B12968C93D1
:1052C0007894A7EDB0E01197F1F7A181B281208128
:1052D000F89412963C911297822F80958323129610
:1052E0008C93129711968C911197822B11968C9317
:1052F0001197C7010197F1F712968C911297822BA3
:1053000012968C937894D8011197F1F7611116C019
:10531000F894A181B28111969C911197808180951A
:10532000892311968C93A181B28112969C91129738
:1053300080818095892312968C937894809197032D
:10534000882309F490C080919803882329F060E0B5
:10535000809199030E9474043FB7F89480913002C1
:1053600090913102A0913202B091330226B5A89BF0
:1053700005C02F3F19F00196A11DB11D3FBFBA2FE7
:10538000A92F982F8827820F911DA11DB11D880F6D
:10539000991FAA1FBB1F880F991FAA1FBB1F54E18B
:1053A000252E312C412C512C3FB7F89440913002DE
:1053B00050913102609132027091330226B5A89B60
:1053C00006C02F3F21F04F5F5F4F6F4F7F4F3FBFB2
:1053D000762F652F542F4427420F511D611D711DDB
:1053E000440F551F661F771F440F551F661F771FF9
:1053F000481B590B6A0B7B0B483E534061057105F6
:1054000098F221E0221A31084108510888519C4F36
:10541000AF4FBF4F211431044104510429F680914C
:105420009803882329F061E0809199030E94740415
:10543000E091A003F091A10380810180F281E02D31
:10544000F8942181982F90952923218378942CE733
:10545000D4011197F1F73081382309F084C021502D
:10546000B9F70C948D1C3FB7F8948091300290915D
:105470003102A0913202B091330226B5A89B05C03B
:105480002F3F19F00196A11DB11D3FBFBA2FA92FC3
:10549000982F8827820F911DA11DB11D880F991F7C
:1054A000AA1FBB1F880F991FAA1FBB1F54E1252EDF
:1054B000312C412C512C3FB7F8944091300250913F
:1054C0003102609132027091330226B5A89B06C06A
:1054D0002F3F21F04F5F5F4F6F4F7F4F3FBF762FC2
:1054E000652F542F4427420F511D611D711D440F1C
:1054F000551F661F771F440F551F661F771F481BD8
:10550000590B6A0B7B0B483E53406105710598F2BD
:10551000E1E02E1A31084108510888519C4FAF4FE5
:10552000BF4F211431044104510429F681CFF8946E
:105530002281292322832181822B81837894ABE7E6
:10554000B7E01197F1F7F89481818923818383E192
:1055500091E00197F1F78081789483E696E00197D6
:10556000F1F70C94B31CF894228129232283218122
:10557000822B81837894D5011197F1F7F89481817A
:10558000BECC8BE00C94D81B8AE00C94D81B80E036
:105590000C94D81B8F31D9F789E00C94D81B8081EB
:1055A00085FF50CCE0915402F0E0EB56FD4F808136
:1055B0006091540270E06F5F7F4F6F737727609345
:1055C0005402E0914E02F0914F028083E091480234
:1055D000F0914902808183708064808360915302DE
:1055E00080915402681307C0E0914A02F0914B0287
:1055F00080818F7D8083E0914802F091490222CC26
:10560000808185FF13CC9FB7F894E0914E02F09112
:105610004F025083E0914802F091490280818370EB
:10562000806480839FBF24CC10922E0210922D02A2
:10563000232B11F40C945D1E8091B0008F75809324
:10564000B00080912D0290912E0290932C028093B5
:105650002B020C945D1E8217930711F40C945D1EAF
:10566000009751F3833391050CF082C68230910587
:105670000CF4F6C5843091050CF405C6883091050C
:105680000CF4FEC58E3091050CF403C68E309105E6
:1056900009F4FCC545E050E00F9711F046E050E0FA
:1056A0005093FF014093FE01C9012333310524F0DB
:1056B00084E690E0821B930B823091050CF4D3C5F5
:1056C000843091050CF4D9C5883091050CF4D2C50D
:1056D0008E3091050CF4E6C58E30910509F4DFC5D6
:1056E0000F9709F4D9C586E090E09093010280936A
:1056F00000029093FD018093FC01232B59F483EA6F
:105700008093B0004091FE015091FF018091FC0117
:105710009091FD0148175907D9F1CA01880F991FC7
:10572000880F991FFC01E40FF51FEE0FFF1FEF5EBE
:10573000FE4F228133812034310509F40AC420321E
:10574000310509F485C5A8E0B0E0B0930501A09348
:1057500004012AE02093B100FC01E40FF51FEE0FD5
:10576000FF1FEF5EFE4F8481958180930601909329
:1057700007014681578160857185409300015093F0
:105780000101609302017093030181508093B30083
:1057900060912D0270912E02072E000C880B990B40
:1057A0000E94523320910001309101014091020189
:1057B000509103010E9407340E941A336150609394
:1057C000B4003FCFF8019091170284818078866001
:1057D000848390838091E802982F9F7709F0F3C12A
:1057E000807880628093E8021092E5021092E402D1
:1057F0001092E7021092E602EACAF80184818078EA
:10580000866084831082F4CAF801848180788C6079
:10581000848310821182128213821091E802812FF8
:105820008F7709F481C115FDDFC9E2CAF8018481CF
:1058300080788C608483108211821282138210918E
:10584000E802812F8F7709F48BC115FD0ECAD0CAEB
:10585000F80140912102509122026091230270913F
:105860002402848180788C608483408351836283A6
:1058700073831091E802812F8F7709F463C115FDBE
:10588000EEC8B6CAF80190911802848180788660CB
:10589000848390831091E802812F8F7709F437C1B8
:1058A00015FD24CAA5CAF80140911D0250911E029F
:1058B00060911F0270912002848180788C608483C3
:1058C00040835183628373831091E802812F8F7725
:1058D00009F453C115FD04C98BCAF70120912D02AB
:1058E00030912E02848180788A608483C901330FCD
:1058F000AA0BBB0B80839183A283B3831091E80230
:105900004091040150910501809106019091070199
:10591000489F9001499F300D589F300D1124032E50
:10592000000C440B550B60E074E284EF90E00E94A1
:10593000DB3149015A01812F8F7711F00C94A62495
:10594000107810621093E8021092E5021092E402BF
:105950001092E7021092E6028091DF029091E0023D
:105960002091DD023091DE02A901485F5F4F84176C
:10597000950708F06BC241E04093E302285F3F4F78
:105980008217930710F40C942C25FC013897F093A0
:10599000E002E093DF02309711F40C942F25A091E0
:1059A000E602B091E702109709F4BEC49F012A1BDA
:1059B0003B0B359527953595279535952795159664
:1059C0002C93F093E702E093E6021582148202978B
:1059D00020EA31E0DC012D933C933BCFF80140916C
:1059E000190250911A0260911B0270911C0284816D
:1059F00080788C60848340835183628373831091A9
:105A0000E802812F8F7709F4C6C015FDACC8F0C934
:105A1000F601848180788A60848380829182A28268
:105A2000B3821091E802812F8F7709F0C2C01078FD
:105A300010621093E8021092E5021092E4021092B4
:105A4000E7021092E6028091DF029091E00220913D
:105A5000DD023091DE020C94252515FFC9C90091A5
:105A6000E4021091E5020115110511F40C942B24A8
:105A7000F80166817781F1E067377F0711F16115E1
:105A8000710531F087E791E00E949935892BC9F0C3
:105A9000F8018581882311F40C942B24F8E08F02FF
:105AA000C0011124080F191F0115110511F40C94E0
:105AB0002B24D80116966D917C91B1E067377B0756
:105AC000F1F6F8012091290230912A028481807830
:105AD0008A608483C901330FAA0BBB0B8083918337
