:100000000C945D000C9485000C9485000C94850084
:100010000C9485000C9485000C9485000C9485004C
:100020000C9485000C9485000C9485000C9485003C
:100030000C9485000C9485000C9485000C9485002C
:100040000C943B050C9485000C947B020C943F02AD
:100050000C9485000C9485000C9485000C9485000C
:100060000C9485000C9485000000000024002700FB
:100070002A0000000000250028002B0004040404CE
:100080000404040402020202020203030303030342
:10009000010204081020408001020408102001021F
:1000A00004081020000000080002010000030407FB
:1000B0000000000000000000460B11241FBECFEF1F
:1000C000D8E0DEBFCDBF11E0A0E0B1E0EEE1FBE1A2
:1000D00002C005900D92A432B107D9F721E0A4E245
:1000E000B1E001C01D92A83DB207E1F710E0CDE5F7
:1000F000D0E004C02197FE010E94BD0BCC35D10792
:10010000C9F70E9485050C948D0D0C940000FC012C
:10011000918D228D892F90E0805C9F4F821B9109E9
:100120008F739927089520914F018091500130E0FD
:10013000205C3F4F281B31092F73332781E0232B8D
:1001400009F480E00895FC0181E0808F938D848D17
:10015000981709F448C0238D30E02F5F3F4F2F736D
:100160003327922F03C00FB607FE17C0848D981750
:10017000D1F3838DDF01A80FB11DA35ABF4F6C933C
:100180009FB7F894238F0288F389E02D80818062E5
:1001900080839FBF81E090E00895A089B1898C9110
:1001A00085FFE4CF848DDF01A80FB11DA35ABF4F97
:1001B0008C91448D50E04F5F5F4F4F735527448FB4
:1001C000A689B7898C93A089B1898C91837080644A
:1001D0008C93438D848D4813C9CFA289B3898C91A8
:1001E0008F7D8C93C3CFA089B1898C9185FFB3CFCC
:1001F0009FB7F894A689B7896C930088F189E02DA0
:1002000080818370806480839FBF81E090E0089547
:10021000BF92CF92DF92EF92FF920F931F93CF93F3
:10022000DF934115510509F486C06A01EC017B0199
:1002300000E010E0BB24B394E881F9810190F081E3
:10024000E02DD7016D917D01B0E0E33AFB0709F0A5
:100250006CC0B88E9B8D8C8D981709F454C02B8D73
:1002600030E02F5F3F4F2F733327922F03C00FB61D
:1002700007FE23C08C8D9817D1F38B8DFE01E80FFC
:10028000F11DE35AFF4F60839FB7F8942B8FEA89E3
:10029000FB898081806280839FBF0F5F1F4FC016E4
:1002A000D10651F6C801DF91CF911F910F91FF90B8
:1002B000EF90DF90CF90BF900895E889F989808111
:1002C00085FFD8CF8C8DFE01E80FF11DE35AFF4F5B
:1002D00080814C8D50E04F5F5F4F4F7355274C8F9F
:1002E000EE89FF898083E889F98980818370806441
:1002F00080834B8D8C8D4813BDCFEA89FB8980812B
:100300008F7D8083B7CFE889F989808185FFA7CF6A
:100310009FB7F894EE89FF896083E889F989808125
:100320008370806480839FBFB8CFCE010995892BED
:1003300009F0B3CFB7CF00E010E0B4CF089580E06C
:1003400090E00895CF93DF93DC0158968C915897F5
:10035000882309F447C05296ED91FC91539750962B
:10036000CD91DC915197908195FF39C00FB607FC74
:10037000FACF908195FFF7CF888185FFF4CF5C9607
:100380008C915C97FD01E80FF11DE35AFF4F20812E
:100390005C968C915C9790E001968F7399275C96A0
:1003A0008C935C975696ED91FC91579720835096CD
:1003B000ED91FC91519780818370806480835B967E
:1003C0009C915B975C968C915C979813C4CF5296E6
:1003D000ED91FC91539780818F7D8083BCCF888184
:1003E00086FFC4CFDF91CF910895FC01238D348D1A
:1003F000231730F4832F90E0821B91090197089511
:100400008FE390E0821B9109830F911D0895FC01F9
:10041000918D828D981761F0828DDF01A80FB11D3B
:100420005D968C91928D9F5F9F73928F90E008955F
:100430008FEF9FEF0895FC01918D828D981731F019
:10044000828DE80FF11D858D90E008958FEF9FEF6D
:10045000089580E090E0892B79F080914F01209100
:10046000500190E0805C9F4F821B91098F73992708
:10047000892B11F00C94000008950E94880D1F92A2
:100480000F920FB60F9211242F938F939F93EF9398
:10049000FF93E0915201F0E0ED56FE4F20818091F4
:1004A000520190E001968F73992780935201E09159
:1004B0004C01F0914D012083E0914601F0914701FC
:1004C000808183708064808390915101809152017A
:1004D000981307C0E0914801F091490180818F7D18
:1004E0008083FF91EF919F918F912F910F900FBE7D
:1004F0000F901F9018951F920F920FB60F92112414
:100500002F938F939F93EF93FF93E0914601F09188
:1005100047018081E0914C01F0914D0182FF0BC0B9
:100520008081FF91EF919F918F912F910F900FBE3E
:100530000F901F901895208180914F018F5F8F73CE
:1005400090915001891769F3E0914F01F0E0EA5C66
:10055000FE4F258F80934F01E4CF2F923F924F9211
:100560005F926F927F928F929F92AF92BF92CF9243
:10057000DF92EF92FF920F931F93CF93DF93CDB74C
:10058000DEB7A6970FB6F894DEBF0FBECDBF6B01E6
:100590007C01142F20E030E0A9010E94300C87FD7F
:1005A000C7C1212C312C60E070E080E09FE3112373
:1005B00051F000E02DEC3CEC4CEC5DE30E941B0D97
:1005C0000F5F1013F7CF9B01AC01C701B6010E946A
:1005D000C40B6BA37CA38DA39EA30E94350C2B019F
:1005E0003C0119A29B01AC01CE0181965C016AE03D
:1005F000C62ED12CE12CF12CCA01B901A70196011C
:100600000E94870B605DF50162935F012115310542
:100610004105510589F7309709F443C00190002046
:10062000E9F731974F018A189B0809F48CC1F5014D
:10063000A501480D591D01E0919100934E012091B3
:10064000510180915201A0914601B09147012817B4
:1006500009F46EC02091510130E02F5F3F4F2F739E
:100660003327822F03C00FB607FE37C060915201B7
:100670008617C9F3A0915101B0E0AD56BE4F9C93CF
:100680009FB7F89420935101A0914801B09149017E
:100690008C9180628C939FBFE417F50769F6280C54
:1006A000391C111159C0C101A6960FB6F894DEBFCE
:1006B0000FBECDBFDF91CF911F910F91FF90EF90B3
:1006C000DF90CF90BF90AF909F908F907F906F9072
:1006D0005F904F903F902F9008956C9165FFC6CF2B
:1006E000A0915201B0E0AD56BE4FBC906091520156
:1006F00070E06F5F7F4F6F73772760935201A09117
:100700004C01B0914D01BC92A0914601B0914701BE
:100710006C91637060646C937091510160915201AF
:10072000761709F4F9C0A0914601B09147019ECF18
:100730008C9185FF8FCF2FB7F894A0914C01B09189
:100740004D019C93A0914601B09147018C9183701B
:1007500080648C932FBFA0CF6EE286E391E00E946D
:10076000A300280E391E11501AA3B201C3010E9422
:10077000640C9B01AC016BA17CA18DA19EA10E9488
:10078000C30B2AE0C22ED12CE12CF12C20E030E06A
:1007900040E251E40E941B0D2B013C010E94350CEC
:1007A0004B01A12CB12CA501940119A28E010F5D62
:1007B0001F4FCA01B901A70196010E94870B605D16
:1007C000F80162938F01211531054105510589F723
:1007D000309709F49EC001900020E9F73197CF01CE
:1007E000801B910B9CA38BA3009709F492C0F80186
:1007F000BC01600F711F919121E020934E01209167
:10080000510180915201A0914601B09147012817F2
:1008100009F46BC02091510130E02F5F3F4F2F73DF
:100820003327822F03C00FB607FE2EC0409152011E
:100830008417C9F3A0915101B0E0AD56BE4F9C930F
:100840009FB7F89420935101A0914801B0914901BC
:100850008C9180628C939FBFE617F70761F68BA19E
:100860009CA1280E391EC501B4010E94640C9B0195
:10087000AC01C301B2010E94C30BEAA1E150EAA39B
:10088000EF3F09F083CF0FCF4C9145FFCFCFA09121
:100890005201B0E0AD56BE4F1C914091520150E064
:1008A0004F5F5F4F4F73552740935201A0914C010A
:1008B000B0914D011C93A0914601B09147014C911C
:1008C000437040644C935091510140915201541334
:1008D00007C0A0914801B09149014C914F7D4C93C4
:1008E000A0914601B0914701A1CF8C9185FF92CF95
:1008F0008FB7F894A0914C01B0914D019C93A091B9
:100900004601B09147019C91937090649C938FBF76
:10091000A3CF80E090E0A5CFA0914801B09149011C
:100920006C916F7D6C93A0914601B09147019ECE72
:100930006DE286E391E00E94A3001C01F7FAF094B7
:10094000F7F8F09430CE812C912CA9CE90E0FC01E8
:10095000EC55FF4F2491FC01E057FF4F3491FC010F
:10096000E458FF4F84918823A1F0211118C0E82F8B
:10097000F0E0EE0FFF1FEE58FF4FA591B4918FB737
:10098000F894611107C09C91E32FE095E923EC9363
:100990008FBF0895EC91E32BEC938FBFFACF2330F8
:1009A00029F160F02730E1F02830A1F02430F9F689
:1009B000909180009F7D90938000D9CF213031F0BD
:1009C0002230A9F694B59F7D94BDD1CF94B59F7781
:1009D00094BDCDCF9091B0009F7D9093B000C7CFD4
:1009E0009091B0009F779093B000C1CF909180001C
:1009F0009F7790938000BBCFCF93DF9390E0FC0173
:100A0000E057FF4F2491FC01E458FF4F8491882365
:100A1000B9F090E0880F991FFC01E859FF4FA591AC
:100A2000B491FC01EE58FF4FC591D491662359F063
:100A30006230A9F08FB7F894EC91E22BEC938FBF62
:100A4000DF91CF9108959FB7F8948C91E22FE095B4
:100A50008E238C932881E223E8839FBFF1CF9FB739
:100A6000F8948C91322F309583238C93E881E22B7C
:100A7000E8839FBFE5CF1F920F920FB60F9211240C
:100A80002F933F938F939F93AF93BF9380913201A6
:100A900090913301A0913401B09135013091D7018B
:100AA00023E0230F2D3768F126E8230F0296A11DBE
:100AB000B11D2093D7018093320190933301A0930D
:100AC0003401B09335018091D3019091D401A0916C
:100AD000D501B091D6010196A11DB11D8093D3011E
:100AE0009093D401A093D501B093D601BF91AF915B
:100AF0009F918F913F912F910F900FBE0F901F905C
:100B000018950196A11DB11DD4CF789484B582604B
:100B100084BD84B5816084BD85B5826085BD85B5A1
:100B2000816085BD80916E00816080936E0010921F
:100B3000810080918100826080938100809181009A
:100B4000816080938100809180008160809380002B
:100B50008091B10084608093B1008091B000816089
:100B60008093B00080917A00846080937A008091B5
:100B70007A00826080937A0080917A00816080930D
:100B80007A0080917A00806880937A001092C10088
:100B9000E0914601F091470182E08083E0914201BB
:100BA000F09143011082E0914401F09145018FECF6
:100BB000808310924E01E0914A01F0914B0186E052
:100BC0008083E0914801F0914901808180618083B8
:100BD000E0914801F0914901808188608083E09133
:100BE0004801F0914901808180688083E09148014B
:100BF000F091490180818F7D808361E083E00E94D4
:100C0000FC0461E08BE00E94FC0461E08CE00E9447
:100C1000FC0461E08DE00E94FC0462E080E00E9440
:100C2000FC0460E08EE00E94FC0460E08FE00E9423
:100C3000FC0460E081E10E94FC0460E083E00E942B
:100C4000A60460E08BE00E94A60461E08CE00E94B4
:100C5000A60460E08DE00E94A60425E0222E312C3F
:100C60003CE1E32E31E0F32E0FE111E0C2E2D1E0EE
:100C700047E1C42E41E0D42E80E4982E93E4A92EBF
:100C8000BB24B394209130013091310137FD08C36A
:100C90002536310544F084E690E09093310180934D
:100CA000300124E630E040912E0150912F01CA011D
:100CB0000296821793070CF0BAC290933101809389
:100CC00030014817590781F0009709F0B9C28091A7
:100CD000B0008F758093B000809130019091310108
:100CE00090932F0180932E01489B9AC210922D0160
:100CF00010922C018FB7F89440913201509133013A
:100D000060913401709135018FBF809128019091DD
:100D10002901A0912A01B0912B012A013B01481A17
:100D2000590A6A0A7B0A8091000190910101A0E0B2
:100D3000B0E0481659066A067B0608F48CC1409359
:100D400028015093290160932A0170932B0180910F
:100D500030019091310120912C0130912D018217A9
:100D600093070CF08DC2019690933101809330016E
:100D70008CE390E0909301018093000145E050E006
:100D800090917A0080917A00887F846080937A00C5
:100D900090927C0080917A00806480937A008091A8
:100DA0007A0086FDFCCF80917800209179009093A5
:100DB0007A0090E0922B2091260130912701820F3A
:100DC000931F909327018093260190917A00809140
:100DD0007A00887F846080937A00A0927C00809162
:100DE0007A00806480937A0080917A0086FDFCCF3F
:100DF000209178008091790090937A0030E0382B30
:100E00008091240190912501280F391F30932501ED
:100E1000209324014150510909F0B2CF809126015D
:100E200090912701B1010E94730BFB017093270180
:100E300060932601C901B1010E94730B70932501D3
:100E400060932401ED32F1404CF08091300190919B
:100E50003101029790933101809330016E3B82E023
:100E600078070CF0FEC1809130019091310102971A
:100E70009093310180933001072E000C880B990B61
:100E80000E94660C23E333E343E35DE30E941B0D02
:100E90002B013C012FEF3FEF4FE75FE40E94160D5F
:100EA00018160CF406C22FEF3FEF4FE75FECC301BB
:100EB000B2010E94300C87FDF2C242E0C301B201D0
:100EC0000E94AD02A8E1B1E04D91B0924E01909127
:100ED000510180915201E0914601F091470198172C
:100EE00009F48AC12091510130E02F5F3F4F2F73E9
:100EF0003327922F03C00FB607FEC3C08091520163
:100F00009817C9F3E0915101F0E0ED56FE4F408390
:100F10009FB7F89420935101E0914801F091490165
:100F20008081806280839FBFEA16FB0669F660912C
:100F3000260170912701072E000C880B990B0E9447
:100F4000660C20E030E048EC5DE30E941B0D2B01B5
:100F50003C012FEF3FEF4FE75FE40E94160D18169C
:100F60000CF422C22FEF3FEF4FE75FECC301B20159
:100F70000E94300C87FD0FC342E0C301B2010E9402
:100F8000AD02ADE1B1E04D91B0924E0190915101B1
:100F900080915201E0914601F0914701981709F4C0
:100FA00003C12091510130E02F5F3F4F2F73332752
:100FB000922F03C00FB607FE95C08091520198177B
:100FC000C9F3E0915101F0E0ED56FE4F40839FB729
:100FD000F89420935101E0914801F09149018081FA
:100FE000806280839FBF0A171B0769F6A0E2B1E009
:100FF0004D91B0924E019091510180915201E0913A
:101000004601F0914701981709F4E2C0209151017F
:1010100030E02F5F3F4F2F733327922F03C00FB65F
:1010200007FE91C0809152019817C9F3E0915101D8
:10103000F0E0ED56FE4F40839FB7F89420935101A6
:10104000E0914801F09149018081806280839FBFD7
:10105000CA17DB0769F680E090E0892B09F412CE0D
:1010600080914F012091500190E0805C9F4F821B46
:1010700091098F739927892B09F404CE0E940000EF
:10108000FBCD808185FF3ACFE0915201F0E0ED5633
:10109000FE4F80816091520170E06F5F7F4F6F73F0
:1010A000772760935201E0914C01F0914D018083CC
:1010B000E0914601F09147018081837080648083D4
:1010C0005091510180915201581307C0E09148019D
:1010D000F091490180818F7D8083E0914601F091FC
:1010E00047010CCF808185FF68CFE0915201F0E08D
:1010F000ED56FE4F80816091520170E06F5F7F4F2F
:101100006F73772760935201E0914C01F0914D018C
:101110008083E0914601F091470180818370806473
:1011200080835091510180915201581307C0E09182
:101130004801F091490180818F7D8083E0914601D3
:10114000F09147013ACF808185FF6CCFE091520149
:10115000F0E0ED56FE4F80816091520170E06F5FCC
:101160007F4F6F73772760935201E0914C01F091AC
:101170004D018083E0914601F091470180818370A9
:10118000806480835091510180915201581307C0AF
:10119000E0914801F091490180818F7D8083E09149
:1011A0004601F09147013ECF808185FFFACE9FB77F
:1011B000F894E0914C01F0914D014083E09146019B
:1011C000F091470180818370806480839FBF0BCF43
:1011D000808185FF1BCF9FB7F894E0914C01F0917F
:1011E0004D014083E0914601F09147018081837079
:1011F000806480839FBF2CCF808185FF73CE9FB793
:10120000F894E0914C01F0914D014083E09146014A
:10121000F091470180818370806480839FBF84CE7A
:1012200084E690E090932D0180932C0163CDCA0158
:10123000029728173907DCF590933101809330012C
:10124000452B59F483EA8093B0008AE08093B10083
:1012500083E68093B3008091300181508093B40085
:101260003BCD6E3493E079070CF406CE80913001CB
:101270009091310102969093310180933001FCCD21
:10128000281739070CF07ACD01979093310180939C
:10129000300184E690E090930101809300016ECDCF
:1012A000109231011092300120E030E0FCCCC901F5
:1012B00008CDA4E1B1E04D91B0924E019091510161
:1012C00080915201E0914601F0914701981709F48D
:1012D00057C02091510130E02F5F3F4F2F733327CC
:1012E000922F03C00FB607FE1AC0809152019817C3
:1012F000C9F3E0915101F0E0ED56FE4F40839FB7F6
:10130000F89420935101E0914801F09149018081C6
:10131000806280839FBFCA16DB0669F6D3CD8081C9
:1013200085FFE3CFE0915201F0E0ED56FE4F808162
:101330006091520170E06F5F7F4F6F73772760930A
:101340005201E0914C01F0914D018083E091460102
:10135000F0914701808183708064808350915101B6
:1013600080915201581307C0E0914801F091490162
:1013700080818F7D8083E0914601F0914701B5CF58
:10138000808185FFA6CF9FB7F894E0914C01F09142
:101390004D014083E0914601F091470180818370C7
:1013A000806480839FBFB7CFA4E1B1E04D91B0923C
:1013B0004E019091510180915201E0914601F091CE
:1013C0004701981709F457C02091510130E02F5F71
:1013D0003F4F2F733327922F03C00FB607FE1AC05B
:1013E000809152019817C9F3E0915101F0E0ED5658
:1013F000FE4F40839FB7F89420935101E09148013C
:10140000F09149018081806280839FBFCA16DB060C
:1014100069F6B7CD808185FFE3CFE0915201F0E01E
:10142000ED56FE4F80816091520170E06F5F7F4FFB
:101430006F73772760935201E0914C01F0914D0159
:101440008083E0914601F091470180818370806440
:1014500080835091510180915201581307C0E0914F
:101460004801F091490180818F7D8083E0914601A0
:10147000F0914701B5CF808185FFA6CF9FB7F89443
:10148000E0914C01F0914D014083E0914601F091D3
:10149000470180818370806480839FBFB7CFA4E1C0
:1014A000B1E04D91B0924E01909151018091520165
:1014B000E0914601F0914701981709F458C0209136
:1014C000510130E02F5F3F4F2F733327922F03C01E
:1014D0000FB607FE1BC0809152019817C9F3E09127
:1014E0005101F0E0ED56FE4F40839FB7F8942093F2
:1014F0005101E0914801F09149018081806280832F
:101500009FBF81E0A731B80761F6DCCC808185FF01
:10151000E2CFE0915201F0E0ED56FE4F8081609104
:10152000520170E06F5F7F4F6F73772760935201B6
:10153000E0914C01F0914D018083E0914601F091E2
:101540004701808183708064808350915101809134
:101550005201581307C0E0914801F0914901808180
:101560008F7D8083E0914601F0914701B4CF808167
:1015700085FFA5CF9FB7F894E0914C01F0914D0104
:101580004083E0914601F09147018081837080643F
:1015900080839FBFB6CFA4E1B1E04D91B0924E01E0
:1015A0009091510180915201E0914601F0914701E3
:1015B000981709F457C02091510130E02F5F3F4F39
:1015C0002F733327922F03C00FB607FE1AC08091E6
:1015D00052019817C9F3E0915101F0E0ED56FE4F2A
:1015E00040839FB7F89420935101E0914801F09116
:1015F00049018081806280839FBFCA16DB0669F63D
:10160000C0CC808185FFE3CFE0915201F0E0ED5640
:10161000FE4F80816091520170E06F5F7F4F6F736A
:10162000772760935201E0914C01F0914D01808346
:10163000E0914601F091470180818370806480834E
:101640005091510180915201581307C0E091480117
:10165000F091490180818F7D8083E0914601F09176
:101660004701B5CF808185FFA6CF9FB7F894E09161
:101670004C01F0914D014083E0914601F09147010A
:1016800080818370806480839FBFB7CFE6E3F1E001
:101690001382128288EE93E0A0E0B0E08483958309
:1016A000A683B78386E091E09183808385EC90E008
:1016B0009587848784EC90E09787868780EC90E01C
:1016C000918B808B81EC90E0938B828B82EC90E00D
:1016D000958B848B86EC90E0978B868B118E128E87
:1016E000138E148E089597FB072E16F4009407D0DE
:1016F00077FD09D00E94A90B07FC05D03EF4909518
:1017000081959F4F0895709561957F4F0895A1E24F
:101710001A2EAA1BBB1BFD010DC0AA1FBB1FEE1F6B
:10172000FF1FA217B307E407F50720F0A21BB30BB6
:10173000E40BF50B661F771F881F991F1A9469F732
:1017400060957095809590959B01AC01BD01CF018E
:101750000895AA1BBB1B51E107C0AA1FBB1FA617F8
:10176000B70710F0A61BB70B881F991F5A95A9F74A
:1017700080959095BC01CD010895EE0FFF1F059057
:10178000F491E02D09945058BB27AA270E94DB0B47
:101790000C94DC0C0E94CE0C38F00E94D50C20F08A
:1017A00039F49F3F19F426F40C94CB0C0EF4E09519
:1017B000E7FB0C94C50CE92F0E94ED0C58F3BA1707
:1017C000620773078407950720F079F4A6F50C9457
:1017D0000F0D0EF4E0950B2EBA2FA02D0B01B901C1
:1017E00090010C01CA01A0011124FF27591B99F097
:1017F000593F50F4503E68F11A16F040A22F232FA3
:10180000342F4427585FF3CF469537952795A795F2
:10181000F0405395C9F77EF41F16BA0B620B730B99
:10182000840BBAF09150A1F0FF0FBB1F661F771F0A
:10183000881FC2F70EC0BA0F621F731F841F48F4BF
:10184000879577956795B795F7959E3F08F0B0CF48
:101850009395880F08F09927EE0F9795879508952F
:101860000E94A10C08F481E008950E94F50C88F014
:101870009F5798F0B92F9927B751B0F0E1F0660F54
:10188000771F881F991F1AF0BA95C9F714C0B13095
:1018900091F00E940F0DB1E008950C940F0D672F89
:1018A000782F8827B85F39F0B93FCCF386957795C4
:1018B0006795B395D9F73EF49095809570956195AD
:1018C0007F4F8F4F9F4F0895E89409C097FB3EF4D8
:1018D00090958095709561957F4F8F4F9F4F99237D
:1018E000A9F0F92F96E9BB279395F69587957795FB
:1018F0006795B795F111F8CFFAF4BB0F11F460FFBB
:101900001BC06F5F7F4F8F4F9F4F16C0882311F012
:1019100096E911C0772321F09EE8872F762F05C026
:10192000662371F096E8862F70E060E02AF09A95C1
:10193000660F771F881FDAF7880F9695879597F9B6
:101940000895990F0008550FAA0BE0E8FEEF161650
:101950001706E807F907C0F012161306E407F507A3
:1019600098F0621B730B840B950B39F40A2661F017
:10197000232B242B252B21F408950A2609F4A140BA
:10198000A6958FEF811D811D089597F99F6780E8C7
:1019900070E060E008959FEF80EC089500240A94C1
:1019A0001616170618060906089500240A9412163A
:1019B0001306140605060895092E0394000C11F46D
:1019C000882352F0BB0F40F4BF2B11F460FF04C01A
:1019D0006F5F7F4F8F4F9F4F089557FD9058440F73
:1019E000551F59F05F3F71F04795880F97FB991F7E
:1019F00061F09F3F79F0879508951216130614063B
:101A0000551FF2CF4695F1DF08C0161617061806C7
:101A1000991FF1CF86957105610508940895E894A2
:101A2000BB2766277727CB0197F908950E94A10C61
:101A300008F48FEF08950E942E0D0C94DC0C0E9488
:101A4000CE0C38F00E94D50C20F0952311F00C94A8
:101A5000C50C0C94CB0C11240C94100D0E94ED0CB1
:101A600070F3959FC1F3950F50E0551F629FF001F1
:101A7000729FBB27F00DB11D639FAA27F00DB11D0A
:101A8000AA1F649F6627B00DA11D661F829F222793
:101A9000B00DA11D621F739FB00DA11D621F839F1A
:101AA000A00D611D221F749F3327A00D611D231FF0
:101AB000849F600D211D822F762F6A2F11249F573E
:101AC00050409AF0F1F088234AF0EE0FFF1FBB1F41
:101AD000661F771F881F91505040A9F79E3F510500
:101AE00080F00C94C50C0C94100D5F3FE4F3983E0D
:101AF000D4F3869577956795B795F795E7959F5FAA
:101B0000C1F7FE2B880F911D9695879597F908953B
:0E1B100081E090E0F8940C948D0DF894FFCFD6
:101B1E00640000000000A3000801F501A201870087
:101B2E0007021B026F76660020562C200020410013
:041B3E000D0A00008C
:00000001FF
