:100000000C9473000C949B000C949B000C949B002C
:100010000C949B000C949B000C949B000C949B00F4
:100020000C949B000C949B000C949B000C949B00E4
:100030000C949B000C949B000C949B000C949B00D4
:100040000C940D030C949B000C944B050C940F0521
:100050000C949B000C949B000C949B000C949B00B4
:100060000C949B000C949B00005EBCE2613FDD831E
:10007000C29C7E20A3FD1F41009D23BE46DB65F888
:100080008C11AF32CA57E974000000002400270029
:100090002A0000000000250028002B0000000008B6
:1000A000000201000003040700000000000000003F
:1000B00000000000230026002900040404040404B6
:1000C0000404020202020202030303030303010207
:1000D00004081020408001020408102001020408D6
:1000E0001020C51CAA1E11241FBECFEFD8E0DEBF12
:1000F000CDBF11E0A0E0B1E0EEE4F5E402C0059070
:100100000D92AE3CB107D9F725E0AEECB1E001C0ED
:100110001D92AF33B207E1F710E0C2E7D0E004C0B0
:100120002197FE010E94301FC137D107C9F70E94F5
:10013000ED050C949A220C9400008F929F92AF923E
:10014000BF92CF92DF92EF92FF920F931F93CF93C4
:10015000DF93DC0148E050E021E00FEF10E08FE09A
:10016000882E912C93E2C92ED12C37EDE32EF12C61
:100170001CC08C911196ED91FC911297F89492818C
:10018000382F3095932392839181982B9183E601A8
:100190002197F1F79281892B82837894C701019787
:1001A000F1F7220F41505109F9F0862F822309F708
:1001B0009C911196ED91FC911297F8948281392FC0
:1001C0003095832382838181892B8183E801219764
:1001D000F1F78281982B92837894C4010197F1F70B
:1001E000220F4150510909F7F8941196ED91FC91B5
:1001F000129791818C918095892381831196ED913D
:10020000FC91129792818C918095892382837894B6
:10021000DF91CF911F910F91FF90EF90DF90CF90E2
:10022000BF90AF909F908F9008952F923F924F92E2
:100230005F926F927F928F929F92AF92BF92CF9276
:10024000DF92EF92FF920F931F93CF93DF93EC0116
:100250008B018D858823B9F01B861D861C8680E066
:10026000DF91CF911F910F91FF90EF90DF90CF9092
:10027000BF90AF909F908F907F906F905F904F90C6
:100280003F902F9008953881E981FA81F894818117
:10029000632F60958623818378942CE743E050E0B8
:1002A00002C02150C9F2CA010197F1F7808183236E
:1002B000C1F3F8948281862382838181832B818399
:1002C00078948BE797E00197F1F7F89481816823A0
:1002D000618383E191E00197F1F780817894E3E60F
:1002E000F6E03197F1F7382309F0B6CF60EFCE0191
:1002F0000E949D0081E0F12C812CEE24E39467E0C4
:1003000070E023E230E04FEC50E097ED692E712C65
:1003100022242A94312CFFE0AF2EB12C2AC0442095
:1003200009F47EC0FE01EF0DF11D9381D82ED0940B
:100330009D2193839881E981FA81F894D280C92E16
:10034000C094DC20D282D180D92AD182D1011197E8
:10035000F1F7D2809D2992837894F5013197F1F7D6
:10036000E394880F11F4F39481E0B7E0BF1508F42B
:1003700072C09881E981FA81F894D180D92AD1821A
:10038000D280992E9094D920D282DB011197F1F777
:10039000D1809D209182D9011197F1F790807894B6
:1003A000FA013197F1F74880E981FA81F894D18018
:1003B000D428D182D280542C5094D520D282DB0113
:1003C0001197F1F7D1805D205182D9011197F1F792
:1003D000E0814E227894FA013197F1F7992109F4DE
:1003E0009ECF411038C0FE01EF0DF11D9381982B77
:1003F00093839880E981FA81F8949281D92CD094E2
:100400009D219283918199299183D9011197F1F7C7
:100410009281992992837894F3013197F1F7A0CFD3
:100420009B85E91668F4FE01EF0DF11D9381D92E2D
:10043000D822E9F6A8E0AE1508F0EC868E2C76CF2F
:10044000DD24D3949E11D12CFE01EF0DF11D93817B
:10045000D110CDCFEFCFE0E4EE1508F0FDCE8B86C6
:10046000882019F18B81882309F4F6CED8018C936A
:100470008C8111968C9311978D8112968C93129783
:100480008E8113968C9313978F8114968C93149767
:10049000888515968C931597898516968C93169753
:1004A0008A8517968C9381E0DBCE81E08D87DACF49
:1004B000009769F0FC0101900020E9F73197AF0146
:1004C000481B590BBC018AE292E00C94BC0380E00B
:1004D00090E00895CF93DF930E945802EC018AECDC
:1004E00091E00E9458028C0F9D1FDF91CF910895DB
:1004F00090E0FC01E456FF4F2491FC01E253FF4FD2
:100500003491FC01E654FF4F84918823A1F021111E
:1005100018C0E82FF0E0EE0FFF1FEE56FF4FA59139
:10052000B4918FB7F894611107C09C91E32FE095C7
:10053000E923EC938FBF0895EC91E32BEC938FBFED
:10054000FACF233029F160F02730E1F02830A1F014
:100550002430F9F6909180009F7D90938000D9CF50
:10056000213031F02230A9F694B59F7D94BDD1CFD2
:1005700094B59F7794BDCDCF9091B0009F7D90931F
:10058000B000C7CF9091B0009F779093B000C1CFDB
:10059000909180009F7790938000BBCFCF93DF93A3
:1005A00090E0FC01E253FF4F2491FC01E654FF4F21
:1005B00084918823B9F090E0880F991FFC01E857D7
:1005C000FF4FA591B491FC01EE56FF4FC591D49118
:1005D000662359F06230A9F08FB7F894EC91E22BC2
:1005E000EC938FBFDF91CF9108959FB7F8948C91D2
:1005F000E22FE0958E238C932881E223E8839FBF2E
:10060000F1CF9FB7F8948C91322F309583238C9340
:10061000E881E22BE8839FBFE5CF1F920F920FB6D0
:100620000F9211242F933F938F939F93AF93BF9378
:100630008091260290912702A0912802B091290270
:1006400030912C0523E0230F2D3768F126E8230F86
:100650000296A11DB11D20932C0580932602909334
:100660002702A0932802B093290280912202909140
:100670002302A0912402B09125020196A11DB11D73
:100680008093220290932302A0932402B093250228
:10069000BF91AF919F918F913F912F910F900FBE7E
:1006A0000F901F9018950196A11DB11DD4CFFC018C
:1006B00081E0808F938D848D981709F448C0238D35
:1006C00030E02F5F3F4F2F733327922F03C00FB6B9
:1006D00007FE17C0848D9817D1F3838DDF01A80F13
:1006E000B11DA35ABF4F6C939FB7F894238F028814
:1006F000F389E02D8081806280839FBF81E090E05C
:100700000895A089B1898C9185FFE4CF848DDF01A4
:10071000A80FB11DA35ABF4F8C91448D50E04F5F7D
:100720005F4F4F735527448FA689B7898C93A08953
:10073000B1898C91837080648C93438D848D481330
:10074000C9CFA289B3898C918F7D8C93C3CFA089A7
:10075000B1898C9185FFB3CF9FB7F894A689B789EB
:100760006C930088F189E02D8081837080648083A0
:100770009FBF81E090E00895BF92CF92DF92EF9209
:10078000FF920F931F93CF93DF934115510509F407
:1007900086C06A01EC017B0100E010E0BB24B39449
:1007A000E881F9810190F081E02DD7016D917D0103
:1007B000B3E0E735FB0709F06CC0B88E9B8D8C8DDC
:1007C000981709F454C02B8D30E02F5F3F4F2F73E3
:1007D0003327922F03C00FB607FE23C08C8D9817C6
:1007E000D1F38B8DFE01E80FF11DE35AFF4F6083BB
:1007F0009FB7F8942B8FEA89FB8980818062808380
:100800009FBF0F5F1F4FC016D10651F6C801DF9181
:10081000CF911F910F91FF90EF90DF90CF90BF90FD
:100820000895E889F989808185FFD8CF8C8DFE01F4
:10083000E80FF11DE35AFF4F80814C8D50E04F5F70
:100840005F4F4F7355274C8FEE89FF898083E8896E
:10085000F98980818370806480834B8D8C8D4813EF
:10086000BDCFEA89FB8980818F7D8083B7CFE889FE
:10087000F989808185FFA7CF9FB7F894EE89FF891A
:100880006083E889F98980818370806480839FBF59
:10089000B8CFCE010995892B09F0B3CFB7CF00E0CF
:1008A00010E0B4CFFC01918D228D892F90E0805C07
:1008B0009F4F821B91098F739927089520914302BE
:1008C0008091440230E0205C3F4F281B31092F7398
:1008D000332781E0232B09F480E00895089580E018
:1008E00090E00895CF93DF93DC0158968C91589750
:1008F000882309F447C05296ED91FC915397509686
:10090000CD91DC915197908195FF39C00FB607FCCE
:10091000FACF908195FFF7CF888185FFF4CF5C9661
:100920008C915C97FD01E80FF11DE35AFF4F208188
:100930005C968C915C9790E001968F7399275C96FA
:100940008C935C975696ED91FC9157972083509627
:10095000ED91FC91519780818370806480835B96D8
:100960009C915B975C968C915C979813C4CF529640
:10097000ED91FC91539780818F7D8083BCCF8881DE
:1009800086FFC4CFDF91CF910895FC01238D348D74
:10099000231730F4832F90E0821B9109019708956B
:1009A0008FE390E0821B9109830F911D0895FC0154
:1009B000918D828D981761F0828DDF01A80FB11D96
:1009C0005D968C91928D9F5F9F73928F90E00895BA
:1009D0008FEF9FEF0895FC01918D828D981731F074
:1009E000828DE80FF11D858D90E008958FEF9FEFC8
:1009F000089580E090E0892B79F080914302209166
:100A0000440290E0805C9F4F821B91098F7399276D
:100A1000892B11F00C94000008950E9495221F92DA
:100A20000F920FB60F9211242F938F939F93EF93F2
:100A3000FF93E0914602F0E0E957FD4F208180915D
:100A4000460290E001968F73992780934602E091C9
:100A50004002F09141022083E0913A02F0913B0282
:100A600080818370806480839091450280914602EA
:100A7000981307C0E0913C02F0913D0280818F7D88
:100A80008083FF91EF919F918F912F910F900FBED7
:100A90000F901F9018951F920F920FB60F9211246E
:100AA0002F938F939F93EF93FF93E0913A02F091EE
:100AB0003B028081E0914002F091410282FF0BC035
:100AC0008081FF91EF919F918F912F910F900FBE99
:100AD0000F901F9018952081809143028F5F8F7334
:100AE00090914402891769F3E0914302F0E0E65DDA
:100AF000FD4F258F80934302E4CFFC01908101805C
:100B0000F281E02DF8948181892B81832281892FC4
:100B1000809528232283A7E0B0E01197F1F7218187
:100B200082238183A3E2B0E01197F1F7808178946A
:100B3000EFECF0E03197F1F7982381E009F480E0E1
:100B40000895FC012081A181B281F89411968C91C5
:100B50001197322F3095832311968C9311977894A7
:100B60008CE743E050E002C0815079F1FA013197FF
:100B7000F1F79C919223C1F3F89412968C911297FD
:100B8000832312968C93129711968C911197822B36
:100B900011968C93119778948BE797E00197F1F772
:100BA000F89411968C911197382311963C931197D4
:100BB00083E191E00197F1F78C91282381E031F4F2
:100BC0007894E3E6F6E03197F1F7089580E07894C1
:100BD000E3E6F6E03197F1F7F8CFCF93DF93CDB7A7
:100BE000DEB767970FB6F894DEBF0FBECDBF78941F
:100BF00084B5826084BD84B5816084BD85B5826022
:100C000085BD85B5816085BD80916E0081608093D2
:100C10006E0010928100809181008260809381003B
:100C2000809181008160809381008091800081604B
:100C3000809380008091B10084608093B1008091A6
:100C4000B00081608093B00080917A0084608093CE
:100C50007A0080917A00826080937A0080917A0095
:100C6000816080937A0080917A00806880937A0016
:100C70001092C10061E083E00E94CE0261E08BE04F
:100C80000E94CE0261E08CE00E94CE0261E08DE025
:100C90000E94CE0260E08EE00E94CE0260E08FE013
:100CA0000E94CE0260E081E10E94CE0260E083E01B
:100CB0000E94780260E08BE00E94780261E08CE0A4
:100CC0000E94780260E08DE00E9478022AE232E021
:100CD000E0913A02F0913B0282E08083E09136029B
:100CE000F09137021082E0913802F091390280E1F0
:100CF000808310924202E0913E02F0913F0286E032
:100D00008083E0913C02F0913D028081806180838C
:100D1000E0913C02F0913D02808188608083E09107
:100D20003C02F0913D02808180688083E0913C022A
:100D3000F0913D0280818F7D80833093D104209398
:100D4000D00481E08093D4043093D3042093D20460
:100D50004DE050E06CE671E088EF91E00E94B31E38
:100D600082E090E0909305028093040289E791E08D
:100D70000E946A0283E991E00E946A028AEB91E094
:100D80000E9458028CE691E00E946A02E0911805E8
:100D9000F09119051386158614861286339687E01E
:100DA000DF011D928A95E9F710921605109217053A
:100DB000FE013A961F019E012E5E3F4F3B8B2A8B10
:100DC00003E210E077EDC72ED12C88248A94912C71
:100DD000FFE06F2E712C67E0E62EF12CB1018091BF
:100DE0001805909119050E941501882309F4A2C0E5
:100DF0002A85E22FEF70F0E0E859FF4F8491E22F4F
:100E0000E295EF70F0E0E858FF4FE491982F9E27AD
:100E10008B858927E82FEF70F0E0E859FF4F949118
:100E2000E82FE295EF70F0E0E858FF4FE4919E273D
:100E30008C858927E82FEF70F0E0E859FF4F9491F7
:100E4000E82FE295EF70F0E0E858FF4FE4919E271D
:100E50008D858927E82FEF70F0E0E859FF4F9491D6
:100E6000E82FE295EF70F0E0E858FF4FE4919E27FD
:100E70008E858927E82FEF70F0E0E859FF4F9491B5
:100E8000E82FE295EF70F0E0E858FF4FE4919E27DD
:100E90008F858927E82FEF70F0E0E859FF4F949194
:100EA000E82FE295EF70F0E0E858FF4FE4919E27BD
:100EB00088898927E82FEF70F0E0E859FF4F949177
:100EC000E82FE295EF70F0E0E858FF4FE491892FAA
:100ED0008E279989981382CF809116058F5F809312
:100EE0001605283239F008F08FC7203119F0223268
:100EF00009F074CF809117058F5F8093170580915B
:100F00000F05882311F40C947911203111F40C94FD
:100F1000761180911805909119050E94A105811103
:100F20007BC780E090911205981708F057CF809307
:100F3000120551CF8091160590E09093D8018093CF
:100F4000D70180E480937C0080917A008064809354
:100F50007A0080917A0086FDFCCF809178008091A4
:100F600079001092E2011092E10140E440937C008C
:100F700080917A00806480937A0080917A0086FD67
:100F8000FCCF809178002091790090E0922B209105
:100F9000D9013091DA01820F931F9093DA01809387
:100FA000D9012091E1013091E2012F5F3F4F309351
:100FB000E2012093E10125303105C4F265E070E0E3
:100FC0000E94C71E7093DA016093D90188248A9425
:100FD000912C4FE0642E712C53E2E52EF12C809180
:100FE00020029091210297FDFEC68536910514F4EA
:100FF0000C94731284E690E0909321028093200277
:1010000020911E0230911F022436310511F00C94FC
:101010006A138091D60181110C94301280911C02C8
:1010200090911D022091D4013091D50128173907E4
:1010300011F01092D6019093D5018093D4018FB70F
:10104000F8944091260250912702609128027091F5
:1010500029028FBF8091260590912705A091280530
:10106000B09129058A019B01081B190B2A0B3B0B28
:1010700080912A0590912B05092E000CAA0BBB0B21
:10108000081719072A073B0708F457C0409326059D
:101090005093270560932805709329058091D60108
:1010A000811115C0809120029091210220911C0293
:1010B00030911D028217930714F40C949914281789
:1010C000390714F40C943D1681E08093D601809189
:1010D000DB019091DC012091D9013091DA01821776
:1010E000930714F00C949F13209120023091210259
:1010F0002F5F3F4F309321022093200221E0209365
:10110000E701873C914014F40C94861380912002EF
:10111000909121020297909321028093200281E016
:101120008093E6018091DF019091E0018E3493403D
:1011300014F00C9491131092E5018FB7F89440913C
:1011400026025091270260912802709129028FBFD8
:101150008091090590910A05A0910B05B0910C05AD
:101160008A019B01081B190B2A0B3B0B80910D0573
:1011700090910E05092E000CAA0BBB0B081719073E
:101180002A073B0708F448C14093090550930A0514
:1011900060930B0570930C05E0911805F09119050B
:1011A00030810180F281E02DF8948181632F609578
:1011B0008623818378942CE743E050E002C02150DD
:1011C00001F1CA010197F1F780818323C1F3F894FB
:1011D0008281862382838181382B318378948BE7C7
:1011E00097E00197F1F7F89481816823618383E1A7
:1011F00091E00197F1F78081789483E696E001977A
:10120000F1F7A0911805B091190528E030E071E0E0
:1012100047ED50E01DC0DC901196ED91FC911297C6
:10122000F89492816D2D60959623928391819D29EA
:101230009183C7010197F1F792818D2D892B8283CC
:101240007894CA010197F1F7770F2150310901F124
:10125000872F8C7C01F7DC901196ED91FC91129711
:10126000F89492816D2D60959623928391819D29AA
:101270009183C4010197F1F792818D2D892B82838F
:101280007894C3010197F1F7770F2150310901F7E5
:10129000F8941196ED91FC91129791818C91809523
:1012A000892381831196ED91FC91129792818C9103
:1012B000809589238283789410910F05A091180559
:1012C000B091190528E030E071E047ED50E01DC015
:1012D0000C911196ED91FC911297F8949281602FE8
:1012E0006095962392839181902B9183C7010197FA
:1012F000F1F79281802F892B82837894CA0101971C
:10130000F1F7770F2150310901F1872F847401F72C
:101310000C911196ED91FC911297F8949281602FA7
:101320006095962392839181902B9183C4010197BC
:10133000F1F79281802F892B82837894C3010197E2
:10134000F1F7770F2150310901F7111114C0F8940A
:101350001196ED91FC91129791818C918095892342
:1013600081831196ED91FC91129792818C918095D9
:101370008923828378948091130581110C94BF1383
:101380001092E2011092E101C090D701D090D801F3
:101390001C141D040CF040C000E010E087EDA82EE6
:1013A000B12C402EE0911805F09119051386158691
:1013B0001486128611861086178216821582148270
:1013C0001382512CB10180911805909119050E944A
:1013D0001501882339F0451411F40C949117539496
:1013E000451480F7980160E070E08EEF92ECF80110
:1013F000EE0FFF1FEE0FFF1FE051FE4F6083718362
:101400008283938389010F5F1F4F1093E201009342
:10141000E1010C151D052CF28FB7F89440912602BE
:101420005091270260912802709129028FBF80910C
:10143000030590910405A0910505B09106058A0168
:101440009B01081B190B2A0B3B0B80910705909100
:101450000805092E000CAA0BBB0B081719072A0751
:101460003B0708F4DDC040930305509304056093E7
:1014700005057093060590917A0080917A00887F27
:10148000846080937A0080E480937C0080917A006D
:10149000806480937A0080917A0086FDFCCF609111
:1014A00078008091790090937A0070E0782B072E75
:1014B000000C880B990B0E9452205B016C0140903C
:1014C000E7045090E8044114510411F40C948F1671
:1014D0008091E204820124E0829F000D111D1124FD
:1014E000D8012D913D914D915C916091E3047091F3
:1014F000E4048091E5049091E6040E94361F609315
:10150000E3047093E4048093E5049093E604F80107
:10151000A082B182C282D3821091E204F20124E05F
:10152000129FE00DF11D11242091E3043091E40499
:101530004091E5045091E60460817181828193813C
:101540000E94371F6093E3047093E4048093E504E2
:101550009093E6041F5F1093E2040091E0041017DB
:1015600011F40C9495141091E10411110C94A3132F
:10157000A092ED04B092EE04C092EF04D092F00479
:10158000A092E904B092EA04C092EB04D092EC0479
:10159000101718F41F5F1093E1048091DD01909102
:1015A000DE0101969093DE018093DD01019611F436
:1015B0000C944D14112311F40C94BB13612F70E0A3
:1015C00080E090E00E9452209B01AC016091E30416
:1015D0007091E4048091E5049091E6040E94A81FB4
:1015E0000E941A207093DC016093DB018091D90185
:1015F0009091DA01681B790B072E000C880B990B70
:101600000E94522020E030E043EC5DE30E9407217D
:101610006093E8017093E9018093EA019093EB01F4
:101620008FB7F894409126025091270260912802CA
:10163000709129028FBF8091FD049091FE04A091CA
:10164000FF04B09100058A019B01081B190B2A0BAE
:101650003B0B8091010590910205092E000CAA0B0D
:10166000BB0B081719072A073B0708F45BC0409318
:10167000FD045093FE046093FF04709300051092E4
:10168000E2011092E10143E490917A0080917A00A6
:10169000887F846080937A0040937C0080917A00F8
:1016A000806480937A0080917A0086FDFCCF8091DF
:1016B00078002091790090937A0090E0922B20910D
:1016C000DF013091E001820F931F9093E00180933E
:1016D000DF012091E1013091E2012F5F3F4F309314
:1016E000E2012093E1012530310574F265E070E0FC
:1016F0000E94C71E7093E0016093DF01072E000C6B
:10170000880B990B0E94522023E333E343E35DE30C
:101710000E9407216093EC017093ED018093EE012C
:101720009093EF018FB7F8944091260250912702D1
:1017300060912802709129028FBF8091F7049091E7
:10174000F804A091F904B091FA048A019B01081BE6
:10175000190B2A0B3B0B8091FB049091FC04092E82
:10176000000CAA0BBB0B081719072A073B0740F010
:101770004093F7045093F8046093F9047093FA04CB
:101780008FB7F89440912602509127026091280269
:10179000709129028FBF8091F1049091F204A09181
:1017A000F304B091F4048A019B01081B190B2A0B66
:1017B0003B0B8091F5049091F604092E000CAA0BC6
:1017C000BB0B081719072A073B0740F04093F104A9
:1017D0005093F2046093F3047093F4048FB7F89479
:1017E00040912602509127026091280270912902AF
:1017F0008FBF8091DA049091DB04A091DC04B0915A
:10180000DD048A019B01081B190B2A0B3B0B8091FD
:10181000DE049091DF04092E000CAA0BBB0B081705
:1018200019072A073B0708F4C3C24093DA04509310
:10183000DB046093DC047093DD0480911C029091C2
:101840001D029093070280930602809120029091DE
:101850002102909309028093080240910401509163
:1018600005018091060190910701489F9001499FD1
:10187000300D589F300D1124032E000C440B550BD6
:1018800060E074E284EF90E00E94DB1E30930B0274
:1018900020930A028091F0019091F101A091F20150
:1018A000B091F30180930C0290930D02A0930E026D
:1018B000B0930F028091EC019091ED01A091EE01A7
:1018C000B091EF018093100290931102A093120245
:1018D000B09313028091E8019091E901A091EA018F
:1018E000B091EB018093140290931502A09316021D
:1018F000B09317028091E701809318028091E6016E
:101900008093190210921A028091E50180931B02C4
:1019100084E290E09093E4018093E301E8EFF1E04A
:10192000ADECB2E001900D928A95E1F78FEF8093D4
:10193000D8048DECC82E82E0D82EF60180E091917B
:101940009E3711F40C94C6148F5F8432C1F783E282
:10195000282F30E0F901E353FD4F90819E3711F4B9
:101960000C9483148150A0F74091CB025091CC028B
:1019700021EF32E0EDECF2E0512C81915826DA01B2
:10198000A50DB11D5C902E173F07B9F7A091D004AB
:10199000B091D104ED91FC9111970190F081E02D6F
:1019A00023E0E735F20711F00C94251781E05896F3
:1019B0008C9358975B969C915B975C968C915C9707
:1019C000981711F40C94C9165B962C915B9730E034
:1019D0002F5F3F4F2F733327922F05C00FB607FCA1
:1019E00002C00C9402155C968C915C979817B1F329
:1019F0005B968C915B97FD01E80FF11DE35AFF4F59
:101A00008EE780839FB7F8945B962C935B975296F2
:101A1000ED91FC9153978081806280839FBFA0915C
:101A2000D004B091D104ED91FC9111970190F08117
:101A3000E02D33E0E735F30711F00C94001781E057
:101A400058968C9358975B969C915B975C968C917B
:101A50005C97981711F40C94AE165B962C915B97DB
:101A600030E02F5F3F4F2F733327922F05C00FB603
:101A700007FC02C00C943E155C968C915C979817FD
:101A8000B1F35B968C915B97FD01E80FF11DE35A72
:101A9000FF4F10829FB7F8945B962C935B975296FA
:101AA000ED91FC9153978081806280839FBFA091CC
:101AB000D004B091D104ED91FC9111970190F08187
:101AC000E02D6091D80473E0E735F70711F00C942E
:101AD000051781E058968C9358975B969C915B977D
:101AE0005C968C915C97981711F40C94E5165B96B4
:101AF0002C915B9730E02F5F3F4F2F733327922F4E
:101B000005C00FB607FC02C00C948B155C968C9137
:101B10005C979817B1F35B968C915B97FD01E80F8A
:101B2000F11DE35AFF4F60839FB7F8945B962C93A7
:101B30005B975296ED91FC915397808180628083F0
:101B40009FBFA091D004B091D104ED91FC91119769
:101B50000190F081E02D6091E30183E0E735F80723
:101B600011F00C94161781E058968C9358975B9659
:101B70009C915B975C968C915C97981711F40C94F0
:101B800093165B962C915B9730E02F5F3F4F2F733E
:101B90003327922F05C00FB607FC02C00C94C7155F
:101BA0005C968C915C979817B1F35B968C915B97E0
:101BB000FD01E80FF11DE35AFF4F60839FB7F894D2
:101BC0005B962C935B975296ED91FC915397808195
:101BD000806280839FBF0091D0041091D104D8010E
:101BE000ED91FC910280F381E02D4091E301509151
:101BF000E4015527B3E0EC3BFB0711F00C941A17F6
:101C0000FA01E353FD4F5F0144244394AC14BD0437
:101C100009F441C0D801ED91FC910190F081E02DD3
:101C2000D6016D916D01B3E0E735FB0709F04CC5B6
:101C3000F801408E938D848D981709F42DC5D80135
:101C40005B962C9130E02F5F3F4F2F733327922FFD
:101C500003C00FB607FE13C4D8015C968C915C9745
:101C60009817B9F3F801838DE80FF11DE35AFF4F80
:101C700060839FB7F894D8015B962C935B9752963C
:101C8000ED91FC9153978081806280839FBFAC145B
:101C9000BD0409F0BFCFA091D004B091D104ED9163
:101CA000FC9111970190F081E02D23E0E735F207D8
:101CB00011F00C94111781E058968C9358975B960D
:101CC0009C915B975C968C915C97981711F40C949F
:101CD00058165B962C915B9730E02F5F3F4F2F7328
:101CE0003327922F03C00FB607FE54C65C968C9123
:101CF0005C979817C1F35B968C915B97FD01E80F99
:101D0000F11DE35AFF4F50829FB7F8945B962C93D6
:101D10005B975296ED91FC9153978081806280830E
:101D20009FBFA091D004B091D104ED91FC91119787
:101D30000190F081E02D33E0E735F30711F00C94CA
:101D4000201781E058968C9358975B969C915B97EF
:101D50005C968C915C97981711F40C9473165B96B3
:101D60002C915B9730E02F5F3F4F2F733327922FDB
:101D700003C00FB607FE47C75C968C915C97981717
:101D8000C1F35B968C915B97FD01E80FF11DE35A5F
:101D9000FF4F81E880839FB7F8945B962C935B9705
:101DA0005296ED91FC9153978081806280839FBF12
:101DB00060E070E0672B09F412C980914302209122
:101DC000440290E0805C9F4F821B91098F7399279A
:101DD000892B09F404C90E9400008091200290918F
:101DE000210297FF02C910922102109220028091D5
:101DF0001E0290911F02892B09F40BC98091B0003B
:101E00008F758093B00031C42B3309F473C822342A
:101E100011F00C94EE066EC8A0901805B09019054C
:101E200065E5C5010E949D002101D2016D912D0142
:101E300088E090E051E0262F252311F40C942C1C0F
:101E4000D5014C911196ED91FC911297F894228155
:101E5000342F3095232322832181242B2183D80101
:101E60001197F1F72281422B42837894F601319742
:101E7000F1F7550F0197F9F6F894F501A181B281B8
:101E800011968C91119790819095892311968C933E
:101E9000A181B28112968C9112979081909589239D
:101EA00012968C9378942A893B894216530609F03E
:101EB000BCCF6EEB80911805909119050E949D0092
:101EC0009E012F5F3F4F8FEC90E0E0911805F0915D
:101ED00019056081A180B280F894D50111964C91CA
:101EE0001197462B11964C93119712964C9112977D
:101EF000762F7095472312964C93D7011197F1F7DF
:101F0000D50111964C911197742311967C93D801A9
:101F10001197F1F7D5014C917894DC011197F1F705
:101F2000462361E009F460E0B08041805280F8947B
:101F3000D20111964C9111974B2911964C93119700
:101F400012964C9112977B2D7095472312964C93C5
:101F5000D7011197F1F7D20111964C911197742383
:101F600011967C93D8011197F1F7D2014C91789496
:101F7000DC011197F1F74B2109F06260708141801B
:101F80005280F894D20111964C911197472B1196DB
:101F90004C93119712964C911297B72EB0944B21F7
:101FA00012964C93D7011197F1F7D20111964C91EB
:101FB0001197B4221196BC92D8011197F1F7D20172
:101FC0004C917894DC011197F1F7742309F0646067
:101FD000B08041805280F894D20111964C911197B3
:101FE0004B2911964C93119712964C9112977B2D79
:101FF0007095472312964C93D7011197F1F7D201B0
:1020000011964C911197742311967C93D8011197D6
:10201000F1F7D2014C917894DC011197F1F74B2143
:1020200009F06860B08041805280F894D201119626
:102030004C9111974B2911964C93119712964C91F4
:1020400012977B2D7095472312964C93D7011197C9
:10205000F1F7D20111964C911197742311967C934C
:10206000D8011197F1F7D2014C917894DC011197C6
:10207000F1F74B2109F06061B08041805280F89403
:10208000D20111964C9111974B2911964C931197AF
:1020900012964C9112977B2D7095472312964C9374
:1020A000D7011197F1F7D20111964C911197742332
:1020B00011967C93D8011197F1F7D2014C91789445
:1020C000DC011197F1F74B2109F06062B08041808B
:1020D0005280F894D20111964C9111974B29119688
:1020E0004C93119712964C9112977B2D7095472324
:1020F00012964C93D7011197F1F7D20111964C919A
:102100001197742311967C93D8011197F1F7D2019E
:102110004C917894DC011197F1F74B2109F0606440
:1021200050810180F281E02DF8944181452B41835B
:102130007281452F409574237283D7011197F1F76F
:10214000718147234183D8011197F1F74081789439
:10215000FC013197F1F7452309F06068F9016193BB
:102160009F012E163F0609F0B0CE80911805909180
:1021700019050E94A105813011F00C949107B981D5
:102180007A814B81B1110C94B51C71110C94B51C62
:102190002C8141110C94B61C8D819E815F816885D4
:1021A000398521110C94B21C81110C94AE1C911133
:1021B0000C949C1C51110C94961C611105C0332386
:1021C00011F40C94910750E090E080E020E040E0B2
:1021D00070E0EB2FEF70F0E0E859FF4FA491EB2F88
:1021E000E295EF70F0E0E858FF4FE4917A277E2700
:1021F000E72FEF70F0E0E859FF4FA491E72FE29549
:10220000EF70F0E0E858FF4FE4914A274E27E42FA3
:10221000EF70F0E0E859FF4F7491E42FE295EF7012
:10222000F0E0E858FF4FE49127272E27E22FEF70C8
:10223000F0E0E859FF4F4491E22FE295EF70F0E0B3
:10224000E858FF4FE491282F24272E27E22FEF7024
:10225000F0E0E859FF4F4491E22FE295EF70F0E093
:10226000E858FF4FE49194279E27E92FEF70F0E0A4
:10227000E859FF4F2491E92FE295EF70F0E0E8581C
:10228000FF4FE491952F92279E27E92FEF70F0E002
:10229000E859FF4F2491E92FE295EF70F0E0E858FC
:1022A000FF4FE491962F92279E27E92FEF70F0E0E1
:1022B000E859FF4F2491E92FE295EF70F0E0E858DC
:1022C000FF4FE491922F9E2739130C9491078F337F
:1022D00011F40C94AB1C10F40C94A41C8F3511F465
:1022E0000C94A11C8F3711F00C9491078CE00C9486
:1022F000920780911805909119050E94A105E0911F
:102300001805F091190528E030E061E0862F857509
:1023100011F40C94461C7081A181B281F89412963C
:102320004C911297572F5095452312964C93129724
:1023300011964C911197472B11964C931197C80108
:102340000197F1F712964C911297872F842B1296D2
:102350008C937894D6011197F1F7660F21503109CB
:10236000A9F6F894A181B28111968C911197908170
:102370009095892311968C93A181B28112968C91AC
:10238000129790819095892312968C9378942101CD
:10239000D201BD902D0128E030E071E04B2D4723A4
:1023A00011F40C946A1C6081A181B281F894129698
:1023B0004C911297562F5095452312964C93129795
:1023C00011964C911197462B11964C931197C80179
:1023D0000197F1F712964C911297642B12966C9319
:1023E0007894D6011197F1F7770F21503109B1F6A2
:1023F000F894A181B28111962C911197308130957A
:10240000232311962C93A181B28112962C911297BD
:1024100030813095232312962C9378942A893B8916
:102420004216530609F0B4CF64EB809118059091E1
:1024300019050E949D0080911805909119050E9430
:102440007D0581110C948D1C8091180590911905C2
:102450000E94A10581E080930F052A850C948507D1
:1024600080911C0290911D02009709F008C184E63A
:1024700090E090931D0280931C020C9412085096D9
:10248000ED91FC915197808185FFE6CB5C968C9114
:102490005C97F801E80FF11DE35AFF4F8081F801C6
:1024A000448D50E04F5F5F4F4F735527448F068830
:1024B000F789E02D80835096ED91FC9151978081B2
:1024C0008370806480835B964C915B975C968C9163
:1024D0005C974813C1CB5296ED91FC915397808144
:1024E0008F7D8083B9CB20911E0230911F0282170D
:1024F000930711F40C940908009709F47FCC8333F7
:10250000910514F00C94BD1C823091050CF4E8C0C8
:10251000843091050CF4EAC4883091050CF4E9C4C8
:102520008E3091050CF4EBC48E30910509F4E4C4AF
:102530000F9709F4F3C486E090E09093D101809363
:10254000D001233331050CF4D5C044E650E0421BE2
:10255000530B1092D3011092D201423051050CF46A
:10256000D2C0443051050CF4BEC4483051050CF4BF
:10257000D2C44E3051050CF4CBC44E30510509F491
:10258000C4C44F30510509F4BDC446E050E0509337
:10259000D3014093D2015093CF014093CE01232B1E
:1025A00059F483EA8093B0008091D0019091D101D9
:1025B0004091CE015091CF0148175907E9F1FC0134
:1025C000EE0FFF1F880F991F880F991F880F991F03
:1025D000DF01A80FB91FA25FBE4F12962D913C914B
:1025E00013972034310509F45BC32032310509F417
:1025F00010C428E030E030930501209304012AE064
:102600002093B1008E0F9F1FFC01E25FFE4F84817B
:1026100095818093060190930701468157816085DB
:102620007185409300015093010160930201709302
:10263000030181508093B3006091200270912102C8
:10264000072E000C880B990B0E945220209100014C
:102650003091010140910201509103010E94072134
:102660000E941A2061506093B400809120029091E2
:10267000210290931F0280931E020C940908843655
:10268000910511F00C94120810921D0210921C0278
:1026900080E090E00C9412080088F189E02D8081A0
:1026A00085FFCDCA9FB7F894D8015696ED91FC915D
:1026B000579760835096ED91FC915197808183707C
:1026C000806480839FBFA2CAC8010995892B09F045
:1026D0009DCAE1CA80E090E0823091050CF018CFED
:1026E00080E090E09093D1018093D00123333105B5
:1026F0000CF02BCF1092D3011092D201A9014230DD
:1027000051050CF02ECF40E050E045CF1092E6018D
:102710008091DF019091E0018E34934014F40C9489
:102720009B088091200290912102029690932102B1
:102730008093200281E08093E5010C949D08109223
:10274000E7010C9481082091E9043091EA0440915A
:10275000EB045091EC04C601B5010E94A31F87FF52
:10276000FBC0A092E904B092EA04C092EB04D092BC
:10277000EC040C94C80A60E070E00C94F20AE0915A
:10278000120580911405882329F080910F05882374
:1027900009F460C3E950E33008F0ACC1F0E0EE0F9B
:1027A000FF1FEC5AFE4FA080B1800B2C000CCC0810
:1027B000DD08809110058111A8C19FB7F894409160
:1027C000220250912302609124027091250286B565
:1027D000A89B06C08F3F21F04F5F5F4F6F4F7F4F29
:1027E0009FBF762F652F542F4427480F511D611D21
:1027F000711D440F551F661F771F440F551F661F1D
:10280000771FA114B104C104D104D1F13FB7F894EA
:102810008091220290912302A0912402B09125027E
:1028200026B5A89B05C02F3F19F00196A11DB11D2B
:102830003FBFBA2FA92F982F8827820F911DA11D66
:10284000B11D880F991FAA1FBB1F880F991FAA1FB0
:10285000BB1F841B950BA60BB70B883E9340A105AD
:10286000B105A0F2F1E0AF1AB108C108D108485192
:102870005C4F6F4F7F4FA114B104C104D10431F6F6
:1028800080911005882311F40C94C00961E08091B7
:1028900011050E9478020C94C009112309F46BCF32
:1028A0001092E3041092E4041092E5041092E604FE
:1028B000A12CB12C650100E0D2012D913D914D91EB
:1028C0005D912D01C601B5010E94371F5B016C01AE
:1028D0006093E3047093E4048093E5049093E6042A
:1028E0000F5F1013E9CF612F70E080E090E00E944D
:1028F00052209B01AC01C601B5010E94A81F0E9495
:102900001A200C94F20A83E204C0815010F40C9453
:10291000B40C482F50E0FA01E353FD4F90819E37ED
:10292000A1F7281B2083282FF0CF1092E2040C94EB
:10293000B30A0196909321028093200260910601D0
:102940007091070180E797E10E94C71E70932B05E5
:1029500060932A050C9467082091ED043091EE04F1
:102960004091EF045091F004C601B5010E9402218C
:10297000181614F00C94C80AA092ED04B092EE045C
:10298000C092EF04D092F0040C94C80A8093D8044B
:102990000C94A70C5096ED91FC915197808185FF86
:1029A000A5C95C968C915C97FD01E80FF11DE35A77
:1029B000FF4F80815C964C915C9750E04F5F5F4F7A
:1029C0004F7355275C964C935C975696ED91FC910E
:1029D000579780835096ED91FC9151978081837039
:1029E000806480835B964C915B975C968C915C973E
:1029F00048137CC95296ED91FC91539780818F7D4D
:102A0000808374C95096ED91FC915197808185FD2A
:102A100002C00C94F30C5C968C915C97FD01E80F5E
:102A2000F11DE35AFF4F80815C964C915C9750E01A
:102A30004F5F5F4F4F7355275C964C935C9756964C
:102A4000ED91FC91579780835096ED91FC915197B1
:102A500080818370806480835B964C915B975C96E9
:102A60008C915C9748130C94F30C5296ED91FC9169
:102A7000539780818F7D80830C94F30C5096ED9159
:102A8000FC915197808185FD02C00C943C0D5C96B1
:102A90008C915C97FD01E80FF11DE35AFF4F808197
:102AA0005C964C915C9750E04F5F5F4F4F7355279A
:102AB0005C964C935C975696ED91FC91579780836A
:102AC0005096ED91FC915197808183708064808352
:102AD0005B964C915B975C968C915C9748130C9439
:102AE0003C0D5296ED91FC91539780818F7D8083B0
:102AF0000C943C0DBEEEAB2EB2E0BB2EC12CD12C03
:102B000080911005882309F458CE60E0809111056A
:102B10000E94780252CE5096ED91FC91519780819F
:102B200085FD02C00C94860D5C968C915C97FD012E
:102B3000E80FF11DE35AFF4F80815C964C915C9742
:102B400050E04F5F5F4F4F7355275C964C935C97F7
:102B50005696ED91FC91579780835096ED91FC919C
:102B6000519780818370806480835B964C915B97E2
:102B70005C968C915C9748130C94860D5296ED915F
:102B8000FC91539780818F7D80830C94860D5096A5
:102B9000ED91FC915197808185FD02C00C94D00D80
:102BA0005C968C915C97FD01E80FF11DE35AFF4F95
:102BB00080815C964C915C9750E04F5F5F4F4F7304
:102BC00055275C964C935C975696ED91FC915797E0
:102BD00080835096ED91FC91519780818370806441
:102BE00080835B964C915B975C968C915C974813C5
:102BF0000C94D00D5296ED91FC91539780818F7D6E
:102C000080830C94D00D5096ED91FC91519780816A
:102C100085FFB2C85C968C915C97FD01E80FF11DB1
:102C2000E35AFF4F80815C964C915C9750E04F5F78
:102C30005F4F4F7355275C964C935C975696ED917A
:102C4000FC91579780835096ED91FC91519780812C
:102C50008370806480835B964C915B975C968C91CB
:102C60005C9748130C94BC0E5296ED91FC915397CF
:102C700080818F7D80830C94BC0E019790932102FC
:102C800080932002609106017091070180E197E234
:102C90000E94C71E70932B0560932A050C94670849
:102CA00030930501209304012CE02093B100AACCBD
:102CB0005096ED91FC915197808185FD02C00C9456
:102CC000690E9FB7F8945696ED91FC9157975082F4
:102CD0005096ED91FC915197808183708064808340
:102CE0009FBF0C94910E5096ED91FC91519780816D
:102CF00085FD02C00C94AF0E9FB7F8945696ED91E7
:102D0000FC91579781E880835096ED91FC91519703
:102D100080818370806480839FBF0C94D80E109153
:102D2000E1040C94CD0A5096ED91FC91519780816D
:102D300085FD02C00C94C10D9FB7F8945696ED9195
:102D4000FC91579760835096ED91FC91519780814B
:102D50008370806480839FBF0C94EB0D5096ED913F
:102D6000FC915197808185FD02C00C942D0D9FB779
:102D7000F8945696ED91FC91579710825096ED91EC
:102D8000FC91519780818370806480839FBF0C94F5
:102D9000570D5096ED91FC915197808185FD02C0B1
:102DA0000C94E40C9FB7F8945696ED91FC915797CC
:102DB0008EE780835096ED91FC91519780818370CE
:102DC000806480839FBF0C940F0D5096ED91FC9111
:102DD0005197808185FD02C00C94770D9FB7F894C0
:102DE0005696ED91FC91579760835096ED91FC912A
:102DF000519780818370806480839FBF0C94A10D64
:102E000060E0CD0109950C94570DCD0109950C9406
:102E1000A10D30930501209304012BE02093B10014
:102E2000F1CB652DCD0109950C94910ECD0109953D
:102E30000C94EB0D6DEC72E0C80109950C944B0EEF
:102E400061E8CD0109950C94D80E6EE7CD01099586
:102E50000C940F0D8FB7F894A0902602B090270223
:102E6000C0902802D09029028FBF67E070E04FEC3D
:102E700050E0E0911805F091190590810180F281F0
:102E8000E02DF8948181892B81832281892F80957F
:102E900028232283DB011197F1F72181822381838B
:102EA000D7011197F1F780817894FA013197F1F702
:102EB000892311F00C94C0092FB7F8948091260251
:102EC00090912702A0912802B09129022FBF8A1960
:102ED0009B09AC09BD098E3E9240A105B10508F4DD
:102EE000C8CF0C94C00941E050E051CB81E090E0A4
:102EF00024CB82E090E021CB84E090E01ECB83E005
:102F000090E01BCB45E050E042CB44E050E03FCBAB
:102F100043E050E03CCB42E050E039CB85E090E02C
:102F20000CCB8A85E82FEF70F0E0E859FF4F9491C1
:102F3000E82FE295EF70F0E0E858FF4FE491E927C1
:102F40008B858E27E82FEF70F0E0E859FF4F9491C2
:102F5000E82FE295EF70F0E0E858FF4FE4919E27EC
:102F60008C858927E82FEF70F0E0E859FF4F9491A6
:102F7000E82FE295EF70F0E0E858FF4FE4919E27CC
:102F80008D858927E82FEF70F0E0E859FF4F949185
:102F9000E82FE295EF70F0E0E858FF4FE491892FB9
:102FA0008E279E858927E82FEF70F0E0E859FF4FC4
:102FB000949182958F70E82FF0E0E858FF4FE491EC
:102FC000E9278F858E27E82FEF70F0E0E859FF4F53
:102FD0009491E82FE295EF70F0E0E858FF4FE4910C
:102FE0009E2788898927E82FEF70F0E0E859FF4F86
:102FF0009491E82FE295EF70F0E0E858FF4FE491EC
:10300000892F8E27998998130C94EF09E091180560
:10301000F091190530810180F281E02DF8948181D1
:10302000632F60958623818378942CE743E050E0FA
:1030300003C0215009F401C3CA010197F1F780814F
:103040008323B9F3F8948281862382838181832B41
:10305000818378948BE797E00197F1F7F894818169
:103060006823618383E191E00197F1F7808178948F
:10307000E3E6F6E03197F1F7382309F0DEC2A091DC
:103080001805B091190528E030E051E01DC0DC9032
:103090001196ED91FC911297F89492814D2D4095E7
:1030A0009423928391819D299183C7010197F1F720
:1030B00092818D2D892B82837894C5010197F1F738
:1030C000550F2150310901F1852F857501F7DC90ED
:1030D0001196ED91FC911297F89492814D2D4095A7
:1030E0009423928391819D299183C4010197F1F7E3
:1030F00092818D2D892B82837894C3010197F1F7FA
:10310000550F2150310901F7F8941196ED91FC917A
:10311000129791818C918095892381831196ED91ED
:10312000FC91129792818C91809589238283789467
:10313000A101FA01D190AF0128E030E0CC24C39482
:103140001DC05C901196ED91FC911297F8946281EC
:10315000752D709567236283618165296183C7013D
:103160000197F1F76281852D862B82837894F50192
:103170003197F1F7CC0C2150310901F18D2D8C21C3
:1031800001F75C901196ED91FC911297F894628191
:10319000752D709567236283618165296183C40100
:1031A0000197F1F76281852D862B82837894F30154
:1031B0003197F1F7CC0C2150310901F7F8941196B1
:1031C000ED91FC91129791818C9180958923818357
:1031D0001196ED91FC91129792818C9180958923A3
:1031E000828378942A893B894217530709F0A1CF3B
:1031F000A0911805B091190528E030E051E01DC0FC
:10320000DC901196ED91FC911297F89492814D2DDE
:1032100040959423928391819D299183C7010197C1
:10322000F1F792818D2D892B82837894C5010197C6
:10323000F1F7550F2150310901F1852F8E7B01F7F0
:10324000DC901196ED91FC911297F89492814D2D9E
:1032500040959423928391819D299183C401019784
:10326000F1F792818D2D892B82837894C301019788
:10327000F1F7550F2150310901F7F8941196ED91AE
:10328000FC91129791818C9180958923818311966D
:10329000ED91FC91129792818C9180958923828384
:1032A0007894AE014F5F5F4F27E030E08FEC90E005
:1032B0001D8B0C8BE0911805F09119055080018150
:1032C0001281F894D80111966C9111976529119685
:1032D0006C93119712966C911297D52CD0946D2106
:1032E00012966C93D9011197F1F7D80111966C9150
:1032F0001197D6221196DC92D7011197F1F7D801D8
:103300006C917894DC011197F1F7652111E009F4D3
:1033100010E0C080618172817F8B6E8BF894AE89E2
:10332000BF8911966C9111976C2911966C93119726
:1033300012966C9112975C2C5094652112966C93A6
:10334000D9011197F1F7AE89BF8911966C91119748
:10335000562211965C92D7011197F1F7AE89BF8979
:103360006C917894DC011197F1F7C62209F0126094
:10337000C080618172817F8B6E8BF894AE89BF892A
:1033800011966C9111976C2911966C931197129666
:103390006C9112975C2C5094652112966C93D90114
:1033A0001197F1F7AE89BF8911966C91119756224A
:1033B00011965C92D7011197F1F7AE89BF896C9194
:1033C0007894DC011197F1F7C62209F01460C080EF
:1033D000618172817F8B6E8BF894AE89BF89119663
:1033E0006C9111976C2911966C93119712966C91B0
:1033F00012975C2C5094652112966C93D901119709
:10340000F1F7AE89BF8911966C91119756221196EA
:103410005C92D7011197F1F7AE89BF896C917894CE
:10342000DC011197F1F7C62209F01860C0806181B4
:1034300072817F8B6E8BF894AE89BF8911966C91E7
:1034400011976C2911966C93119712966C911297A3
:103450005C2C5094652112966C93D9011197F1F769
:10346000AE89BF8911966C911197562211965C9284
:10347000D7011197F1F7AE89BF896C917894DC017F
:103480001197F1F7C62209F01061C0806181728145
:103490007F8B6E8BF894AE89BF8911966C911197D2
:1034A0006C2911966C93119712966C9112975C2C63
:1034B0005094652112966C93D9011197F1F7AE895A
:1034C000BF8911966C911197562211965C92D70183
:1034D0001197F1F7AE89BF896C917894DC0111974F
:1034E000F1F7C62209F01062C080618172817F8B82
:1034F0006E8BF894AE89BF8911966C9111976C29E7
:1035000011966C93119712966C9112975C2C5094B3
:10351000652112966C93D9011197F1F7AE89BF8995
:1035200011966C911197562211965C92D7011197C2
:10353000F1F7AE89BF896C917894DC011197F1F7AE
:10354000C62209F0106470810180F281E02DF894A8
:103550006181672B6183A281672F6095A623A28377
:10356000D9011197F1F7A1816A236183D7011197DE
:10357000F1F760817894FC013197F1F7672309F046
:103580001068FA011193AF01E215F30509F092CE2C
:103590000C891D89E0911805F09119056081018061
:1035A000F281E02DF8948181362F30958323818339
:1035B00078942CE743E050E003C0215009F43DC06B
:1035C000CA010197F1F780818623B9F3F8948281CB
:1035D000832382838181862B818378948BE797E094
:1035E0000197F1F7F89481813823318383E191E0E9
:1035F0000197F1F780817894E3E6F6E03197F1F7EF
:103600006823D9F489818111EFC09A81911103C196
:103610004B814111F9C05C815111EFC03D813111E5
:1036200002C16E8161110BC17F812885A98571114D
:1036300001C121110BC1A1110EC0C090D701D090C2
:10364000D8012091E1013091E20160E070E08EEF5D
:1036500092EC0C94F70990E030E060E040E050E03C
:1036600070E0E82FEF70F0E0E859FF4FB491E82FD9
:10367000E295EF70F0E0E858FF4FF491B927BF27CB
:10368000EB2FEF70F0E0E859FF4FD490B295BF7088
:10369000EB2FF0E0E858FF4FF4914D254F27E42F32
:1036A000EF70F0E0E859FF4FB49142954F70E42F6E
:1036B000F0E0E858FF4F44915B275427E52FEF7067
:1036C000F0E0E859FF4F449152955F70E52FF0E02C
:1036D000E858FF4FE49134273E27E32FEF70F0E0E6
:1036E000E859FF4F449132953F70E32FF0E0E858DE
:1036F000FF4FE49164276E27E62FEF70F0E0E85962
:10370000FF4F449162956F70E62FF0E0E858FF4F4D
:10371000E49147274E27E42FEF70F0E0E859FF4F80
:10372000349142954F70E42FF0E0E858FF4FE49158
:1037300032273E27E32FEF70F0E0E859FF4F449126
:1037400032953F70E32FF0E0E858FF4FE491E42713
:10375000EA1373CFE92FF0E0FE2FEE27FF0FFF0FE4
:10376000FF0F90E0880F991F880F991F880F991FEE
:10377000E82BF92B8A858031E1F0BF016138F4EE46
:103780007F070CF45ACF072E000C880B990B0E9470
:10379000522020E030E040E05CE30E940721C0902E
:1037A000D701D090D8012091E1013091E2010C9431
:1037B000F709222311F330E0C901871B910996957F
:1037C000982F882797958795B9010E94C71E605248
:1037D0007109CF01807F880F991F880F991F880F6B
:1037E000991F680F791FCACF28857F815C814B8123
:1037F0006E813D81A9859A8134CF28857F816E8134
:103800003D81A985942F2DCF28857F815C816E8194
:103810003D81A98526CF28857F815C814B816E8182
:103820003D81A9851ECF28857F816E81A985952F31
:10383000452F17CF962F362F462F562F12CF28857C
:103840007F81A985932F432F532F0BCF90E030E03A
:1038500060E040E050E005CFF50140810180F28159
:10386000E02DF8942281342F309523232283218167
:10387000242B2183D4011197F1F72281422B42831B
:103880007894F3013197F1F70C94390F7081A1818D
:10389000B281F89412964C911297572F5095452368
:1038A00012964C93129711964C911197472B1196A3
:1038B0004C931197C4010197F1F712964C9112970E
:1038C000872F842B12968C937894D3011197F1F75C
:1038D0000C94AD116081A181B281F89412964C9143
:1038E0001297562F5095452312964C931297119686
:1038F0004C911197462B11964C931197C401019747
:10390000F1F712964C911297642B12966C9378945F
:10391000D3011197F1F70C94F4118091180590914F
:1039200019050E94A1052A850C948507892F292F46
:10393000492F792F0C94E910282F482F782F0C94B9
:10394000E9108BE00C9492078F3111F00C949107E1
:1039500089E00C9492078AE00C949207422F722F10
:103960000C94E910742F0C94E9102C818D819E81A8
:103970005F81688539850C94E91044E650E0BA010E
:10398000681B790BCB010C94841210922D021092BB
:103990002C0288EE93E0A0E0B0E080932E0290939A
:1039A0002F02A0933002B09331028EE591E0909304
:1039B0002B0280932A0285EC90E09093370280934B
:1039C000360284EC90E0909339028093380280ECC8
:1039D00090E090933B0280933A0281EC90E09093C8
:1039E0003D0280933C0282EC90E090933F028093F2
:1039F0003E0286EC90E09093410280934002109248
:103A00004302109244021092450210924602109214
:103A1000DA041092DB041092DC041092DD0484E6D8
:103A200090E09093DF048093DE048BE98093C702DB
:103A300088E08093CA0280E091E09093C90280936D
:103A4000C8020E9474218093CB029093CC02AC01F7
:103A500020E030E030C0C901880F991F87FD35C0D4
:103A6000880F991F87FD38C0880F991F87FD3BC0BD
:103A7000880F991F87FD3EC0880F991F87FD41C0A1
:103A8000880F991F87FD44C0880F991F87FD47C085
:103A9000880F991FFA01E20FF31F80832F5F3F4FBA
:103AA0008091C8029091C90228173907F0F540911A
:103AB000CB025091CC0227FFCECF6091C702C90143
:103AC000880F991F862787FFCBCF880F991F60919A
:103AD000C702862787FFC8CF880F991F6091C7024A
:103AE000862787FFC5CF880F991F6091C702862759
:103AF00087FFC2CF880F991F6091C702862787FF73
:103B0000BFCF880F991F6091C702862787FFBCCF60
:103B1000880F991F6091C702862787FFB9CF880F4A
:103B2000991F6091C7028627B5CF1092C9041092E1
:103B3000CA041092CC041092CB041092CE041092BE
:103B4000CD041092CF041092D4041092D504109298
:103B5000D6041092D7041092D8041092D90460E0D1
:103B600082E00E94CE02E0EDF0E0E491E0932D05CA
:103B7000ECEBF0E0E491F0E0EE0FFF1FE055FF4FBB
:103B80008591949190932F0580932E05109238057E
:103B900010923A05109239051092370587E0E0E35C
:103BA000F5E0DF011D928A95E9F710922505109244
:103BB0002405109210058DE295E0909319058093ED
:103BC0001805109216051092170510920F0589E03E
:103BD0008093120581E080931305809314058093F0
:103BE00015051092090510920A0510920B05109206
:103BF0000C0588EE93E090930E0580930D051092CE
:103C0000030510920405109205051092060581E047
:103C100090E090930805809307051092FD041092A0
:103C2000FE041092FF04109200058AE090E0909349
:103C30000205809301051092F7041092F804109287
:103C4000F9041092FA049093FC048093FB04109200
:103C5000F1041092F2041092F3041092F40484E63A
:103C600090E09093F6048093F50480E18093E00463
:103C700080E490E00E9474219C019093E80480937A
:103C8000E704892B09F443C01092E1041092E20486
:103C90001092E3041092E4041092E5041092E604FA
:103CA00080E090E0A0ECBFE78093E9049093EA0401
:103CB000A093EB04B093EC048093ED049093EE0496
:103CC000A093EF04B093F00490E19150F901B4E0B7
:103CD0009B9FE00DF11D112410821182128213822C
:103CE0009111F3CF609106017091070180E197E295
:103CF0000E94C71E109226051092270510922805D3
:103D00001092290570932B0560932A05089510924F
:103D1000E0041092E1041092E2041092E304109285
:103D2000E4041092E5041092E60480E090E0A0EC38
:103D3000BFE78093E9049093EA04A093EB04B09367
:103D4000EC048093ED049093EE04A093EF04B09301
:103D5000F004C8CF8091E7049091E804009711F037
:103D60000C940C220895DC01FB014150504058F0A6
:103D700049F001900D920020C1F7E61BF70B319737
:103D8000CF0108951C9201900020E9F7F6CF97FB30
:103D9000072E16F4009407D077FD09D00E94FA1E72
:103DA00007FC05D03EF4909581959F4F089570953E
:103DB00061957F4F0895052E97FB1EF400940E9495
:103DC000F21E57FD07D00E940E1F07FC03D04EF4D1
:103DD0000C94F21E50954095309521953F4F4F4FD2
:103DE0005F4F089590958095709561957F4F8F4FA7
:103DF0009F4F0895AA1BBB1B51E107C0AA1FBB1F01
:103E0000A617B70710F0A61BB70B881F991F5A9566
:103E1000A9F780959095BC01CD010895A1E21A2ED5
:103E2000AA1BBB1BFD010DC0AA1FBB1FEE1FFF1F5E
:103E3000A217B307E407F50720F0A21BB30BE40BAE
:103E4000F50B661F771F881F991F1A9469F76095F5
:103E50007095809590959B01AC01BD01CF010895AF
:103E6000EE0FFF1F0590F491E02D09945058BB27E9
:103E7000AA270E944E1F0C94C8200E94BA2038F036
:103E80000E94C12020F039F49F3F19F426F40C94CD
:103E9000B7200EF4E095E7FB0C94B120E92F0E94C7
:103EA000D92058F3BA17620773078407950720F0E3
:103EB00079F4A6F50C94FB200EF4E0950B2EBA2FA6
:103EC000A02D0B01B90190010C01CA01A001112420
:103ED000FF27591B99F0593F50F4503E68F11A16CC
:103EE000F040A22F232F342F4427585FF3CF46955D
:103EF00037952795A795F0405395C9F77EF41F167F
:103F0000BA0B620B730B840BBAF09150A1F0FF0F48
:103F1000BB1F661F771F881FC2F70EC0BA0F621F34
:103F2000731F841F48F4879577956795B795F79524
:103F30009E3F08F0B0CF9395880F08F09927EE0FB9
:103F40009795879508950E948D2008F481E0089543
:103F50000E94BC1F0C94C8200E94C12058F00E94EF
:103F6000BA2040F029F45F3F29F00C94B1205111A0
:103F70000C94FC200C94B7200E94D92068F399235C
:103F8000B1F3552391F3951B550BBB27AA27621755
:103F90007307840738F09F5F5F4F220F331F441F62
:103FA000AA1FA9F335D00E2E3AF0E0E832D0915096
:103FB0005040E695001CCAF72BD0FE2F29D0660F83
:103FC000771F881FBB1F261737074807AB07B0E8C6
:103FD00009F0BB0B802DBF01FF2793585F4F3AF0CC
:103FE0009E3F510578F00C94B1200C94FC205F3F6B
:103FF000E4F3983ED4F3869577956795B795F79552
:104000009F5FC9F7880F911D9695879597F9089539
:10401000E1E0660F771F881FBB1F621773078407D5
:10402000BA0720F0621B730B840BBA0BEE1F88F7E4
:10403000E09508950E9421206894B1110C94FC2011
:1040400008950E94E12088F09F5798F0B92F992792
:10405000B751B0F0E1F0660F771F881F991F1AF073
:10406000BA95C9F714C0B13091F00E94FB20B1E0BD
:1040700008950C94FB20672F782F8827B85F39F0BC
:10408000B93FCCF3869577956795B395D9F73EF40C
:1040900090958095709561957F4F8F4F9F4F0895B4
:1040A000E89409C097FB3EF49095809570956195D2
:1040B0007F4F8F4F9F4F9923A9F0F92F96E9BB2788
:1040C0009395F695879577956795B795F111F8CF04
:1040D000FAF4BB0F11F460FF1BC06F5F7F4F8F4F6F
:1040E0009F4F16C0882311F096E911C0772321F065
:1040F0009EE8872F762F05C0662371F096E8862FFD
:1041000070E060E02AF09A95660F771F881FDAF753
:10411000880F9695879597F90895990F0008550F80
:10412000AA0BE0E8FEEF16161706E807F907C0F03D
:1041300012161306E407F50798F0621B730B840B45
:10414000950B39F40A2661F0232B242B252B21F41F
:1041500008950A2609F4A140A6958FEF811D811DBF
:10416000089597F99F6780E870E060E008959FEFF9
:1041700080EC089500240A941616170618060906FE
:10418000089500240A9412161306140605060895CD
:10419000092E0394000C11F4882352F0BB0F40F455
:1041A000BF2B11F460FF04C06F5F7F4F8F4F9F4F95
:1041B000089557FD9058440F551F59F05F3F71F017
:1041C0004795880F97FB991F61F09F3F79F087957E
:1041D0000895121613061406551FF2CF4695F1DF07
:1041E00008C0161617061806991FF1CF8695710597
:1041F000610508940895E894BB2766277727CB01CB
:1042000097F908950E948D2008F48FEF08950E9479
:104210001A210C94C8200E94BA2038F00E94C120B4
:1042200020F0952311F00C94B1200C94B7201124A8
:104230000C94FC200E94D92070F3959FC1F3950F38
:1042400050E0551F629FF001729FBB27F00DB11D1A
:10425000639FAA27F00DB11DAA1F649F6627B00DAA
:10426000A11D661F829F2227B00DA11D621F739F93
:10427000B00DA11D621F839FA00D611D221F749FA1
:104280003327A00D611D231F849F600D211D822FE8
:10429000762F6A2F11249F5750409AF0F1F088230F
:1042A0004AF0EE0FFF1FBB1F661F771F881F91503C
:1042B0005040A9F79E3F510580F00C94B1200C941A
:1042C000FC205F3FE4F3983ED4F38695779567959D
:1042D000B795F795E7959F5FC1F7FE2B880F911D66
:1042E0009695879597F908950F931F93CF93DF9332
:1042F0008230910510F482E090E0E0913D05F0916C
:104300003E0520E030E0A0E0B0E0309719F14081B8
:1043100051810281138148175907C8F08417950706
:1043200069F4109731F012960C93129713961C9320
:1043300027C000933D0510933E0522C0211531058D
:1043400019F04217530718F49A01BD01EF01DF017C
:10435000F801DBCF21153105F9F0281B390B24308A
:10436000310580F48A819B816115710521F0FB0183
:104370009383828304C090933E0580933D05FE01A4
:10438000329644C0FE01E20FF31F819391932250B5
:104390003109398328833AC020913B0530913C058F
:1043A000232B41F420910A0130910B0130933C05FD
:1043B00020933B0520910801309109012115310519
:1043C00041F42DB73EB740910C0150910D01241BD3
:1043D000350BE0913B05F0913C05E217F307A0F4A3
:1043E0002E1B3F0B2817390778F0AC014E5F5F4F4B
:1043F0002417350748F04E0F5F1F50933C0540933C
:104400003B058193919302C0E0E0F0E0CF01DF91A2
:10441000CF911F910F910895CF93DF93009709F4E7
:1044200081C0FC01329713821282A0913D05B091A8
:104430003E05109781F420813181820F931F2091D6
:104440003B0530913C052817390751F5F0933C05A1
:10445000E0933B0567C0ED0120E030E0CE17DF07B9
:1044600040F44A815B819E0141155105F1F0EA015A
:10447000F5CFD383C28340815181840F951FC81724
:10448000D90759F488819981840F951F02969183E9
:1044900080838A819B81938382832115310529F44E
:1044A000F0933E05E0933D053DC0E901FB83EA83BF
:1044B00049915991C40FD51FEC17FD0761F4808114
:1044C0009181840F951F0296E901998388838281E7
:1044D00093819B838A83E0E0F0E012968D919C911A
:1044E0001397009719F0FD01DC01F7CF8D919C9196
:1044F00011979D012E5F3F4F820F931F20913B0527
:1045000030913C052817390769F4309729F4109247
:104510003E0510923D0502C013821282B0933C0505
:10452000A0933B05DF91CF91089581E090E0F8944E
:104530000C949A2210E0C2E7D0E004C0FE010E9471
:0E454000301F2196C337D107C9F7F894FFCF7B
:10454E00000000404000C80000003F0520000100B0
:10455E004000C8000000004003002000C80000001A
:10456E0000400700200064000000803F0D0008009E
:10457E00C800000000400E00080096000000C03F7A
:10458E000F00080078009A99993F320008006400E5
:10459E000000803F5E00BC00770100000000570362
:1045AE00BC03C50472045204D704EB04323032301B
:1045BE002E30362E32302D33004D6F746F722043F5
:1045CE006F6E74726F6C6C6572204669726D776176
:1045DE00726500436F707972696768742028632969
:1045EE002032303230204170706C69656420456E27
:1045FE0067696E656572696E6700426F6F74656498
:0E460E002076657273696F6E20000D0A000041
:00000001FF
