:100000000C94B2000C94DA000C94DA000C94DA0030
:100010000C94DA000C94DA000C94DA000C94DA00F8
:100020000C94DA000C94DA000C94DA000C94DA00E8
:100030000C94DA000C94DA000C94DA000C94DA00D8
:100040000C94A50F0C94DA000C94D0020C9494023A
:100050000C94DA000C94DA000C94DA000C94DA00B8
:100060000C94DA000C94DA002004200437043704DE
:100070002205A103D704A1037005A1033705A1033D
:10008000A103A103A103A103A103A103A103A10350
:10009000A103A103A103A103A103A103A103A10340
:1000A000A103A103C405A103A103A103A103A1030B
:1000B000A103A103A103A103A103A103A103A10320
:1000C000A103A103A103A103A103A103A103A10310
:1000D000A103A103A103A103A103A103A103A10300
:1000E000A103A103CD0300000000240027002A0083
:1000F00000000000250028002B000000000800027E
:100100000100000304070000000000000000005E82
:10011000BCE2613FDD83C29C7E20A3FD1F41009DA8
:1001200023BE46DB65F88C11AF32CA57E974000074
:10013000000023002600290004040404040404042D
:100140000202020202020303030303030102040882
:100150001020408001020408102001020408102031
:10016000D023C72311241FBECFEFD8E0DEBFCDBF01
:1001700011E0A0E0B1E0E4EEFFE402C005900D92D2
:10018000AE3FB107D9F723E0AEEFB1E001C01D9259
:10019000AB3AB207E1F710E0C1EBD0E004C0219721
:1001A000FE010E944925C03BD107C9F70E94641196
:1001B0000C94E5270C940000FC0181E0808F938D66
:1001C000848D981709F448C0238D30E02F5F3F4F8E
:1001D0002F733327922F03C00FB607FE17C0848DED
:1001E0009817D1F3838DDF01A80FB11DA35ABF4F1C
:1001F0006C939FB7F894238F0288F389E02D808158
:10020000806280839FBF81E090E00895A089B189DA
:100210008C9185FFE4CF848DDF01A80FB11DA35A17
:10022000BF4F8C91448D50E04F5F5F4F4F73552708
:10023000448FA689B7898C93A089B1898C918370EA
:1002400080648C93438D848D4813C9CFA289B38970
:100250008C918F7D8C93C3CFA089B1898C9185FFC0
:10026000B3CF9FB7F894A689B7896C930088F189BA
:10027000E02D80818370806480839FBF81E090E067
:100280000895BF92CF92DF92EF92FF920F931F9348
:10029000CF93DF934115510509F486C06A01EC0143
:1002A0007B0100E010E0BB24B394E881F981019068
:1002B000F081E02DD7016D917D01B0E0EC3DFB07B1
:1002C00009F06CC0B88E9B8D8C8D981709F454C0C2
:1002D0002B8D30E02F5F3F4F2F733327922F03C0BA
:1002E0000FB607FE23C08C8D9817D1F38B8DFE01BE
:1002F000E80FF11DE35AFF4F60839FB7F8942B8FEF
:10030000EA89FB898081806280839FBF0F5F1F4FD6
:10031000C016D10651F6C801DF91CF911F910F9100
:10032000FF90EF90DF90CF90BF900895E889F98912
:10033000808185FFD8CF8C8DFE01E80FF11DE35A37
:10034000FF4F80814C8D50E04F5F5F4F4F735527BB
:100350004C8FEE89FF898083E889F98980818370D9
:10036000806480834B8D8C8D4813BDCFEA89FB89D7
:1003700080818F7D8083B7CFE889F989808185FF6F
:10038000A7CF9FB7F894EE89FF896083E889F98940
:1003900080818370806480839FBFB8CFCE01099530
:1003A000892B09F0B3CFB7CF00E010E0B4CFFC0148
:1003B000918D228D892F90E0805C9F4F821B910947
:1003C0008F7399270895209145028091460230E06D
:1003D000205C3F4F281B31092F73332781E0232BEB
:1003E00009F480E00895089580E090E00895CF93A7
:1003F000DF93DC0158968C915897882309F447C005
:100400005296ED91FC9153975096CD91DC91519776
:10041000908195FF39C00FB607FCFACF908195FF08
:10042000F7CF888185FFF4CF5C968C915C97FD01B6
:10043000E80FF11DE35AFF4F20815C968C915C9789
:1004400090E001968F7399275C968C935C975696F3
:10045000ED91FC91579720835096ED91FC91519727
:1004600080818370806480835B969C915B975C96AF
:100470008C915C979813C4CF5296ED91FC91539751
:1004800080818F7D8083BCCF888186FFC4CFDF9140
:10049000CF910895FC01238D348D231730F4832FE1
:1004A00090E0821B9109019708958FE390E0821BF1
:1004B0009109830F911D0895FC01918D828D9817EC
:1004C00061F0828DDF01A80FB11D5D968C91928D38
:1004D0009F5F9F73928F90E008958FEF9FEF089535
:1004E000FC01918D828D981731F0828DE80FF11DFE
:1004F000858D90E008958FEF9FEF089580E090E064
:10050000892B79F0809145022091460290E0805C31
:100510009F4F821B91098F739927892B11F00C949F
:10052000000008950E94D7271F920F920FB60F92D6
:1005300011242F938F939F93EF93FF93E0914802A1
:10054000F0E0E757FD4F20818091480290E001964E
:100550008F73992780934802E0914202F091430201
:100560002083E0913C02F0913D02808183708064A1
:1005700080839091470280914802981307C0E091D0
:100580003E02F0913F0280818F7D8083FF91EF9149
:100590009F918F912F910F900FBE0F901F901895E4
:1005A0001F920F920FB60F9211242F938F939F9348
:1005B000EF93FF93E0913C02F0913D028081E09146
:1005C0004202F091430282FF0BC08081FF91EF91C4
:1005D0009F918F912F910F900FBE0F901F901895A4
:1005E0002081809145028F5F8F7390914602891719
:1005F00069F3E0914502F0E0E45DFD4F258F8093C3
:100600004502E4CF9F92AF92BF92CF92DF92EF92DA
:10061000FF920F931F93CF93DF93EC018B0165E55E
:100620000E94EC107801680188E0C80ED11C4FEFE1
:1006300050E02FE030E003E210E067ED70E0F701FA
:1006400091907F0188E090E0AA24A39419C0B8801B
:10065000E981FA81F894A281BB2DB095AB23A283E6
:10066000A181AB29A183D8011197F1F7A281BA2A00
:10067000B2827894FB013197F1F7AA0C0197E1F06F
:10068000E92DEA2121F7B880E981FA81F894A28165
:10069000BB2DB095AB23A283A181AB29A183DA0145
:1006A0001197F1F7A281BA2AB2827894F9013197B1
:1006B000F1F7AA0C019721F7F894E981FA81918169
:1006C0008881809589238183E981FA81928188815B
:1006D0008095892382837894CE14DF0409F0AFCF0C
:1006E000DF91CF911F910F91FF90EF90DF90CF900E
:1006F000BF90AF909F9008955F926F927F928F927C
:100700009F92AF92BF92CF92DF92EF92FF920F93A0
:100710001F93CF93DF93CDB7DEB76E970FB6F894E4
:10072000DEBF0FBECDBF8C015B01DC0114968C9146
:10073000E82FEF778E2F90E0FC013297EF33F10531
:1007400040F1D5018D919C91DC01ED91FC910190DE
:10075000F081E02D60EC0995F50122813381820F53
:10076000931F938382836E960FB6F894DEBF0FBEFD
:10077000CDBFDF91CF911F910F91FF90EF90DF9050
:10078000CF90BF90AF909F908F907F906F905F9031
:100790000895EC5CFF4F0C944925F801A081B181CC
:1007A000109709F472C5FD01E12CF12C2FEFE21A2C
:1007B000F20A8581811159C3E0E1EE16F10408F0D7
:1007C00061C360E070E06F5F7F4F15968C91159765
:1007D000882339F0F8E08F02A00DB11D1124109785
:1007E00091F76057D5018D919C91DC01ED91FC91C1
:1007F0000190F081E02D0995F50122813381820F6E
:10080000931F93838283D8010D911C9101151105CB
:1008100009F4A9CFB501C8010E947C03F8018581C4
:10082000882341F0B8E08B02000D111D1124011541
:10083000110581F7D50112968D919C91139793CF55
:10084000DB018D919C91F80142815381608171811E
:10085000DC01ED91FC910280F381E02D0995F50119
:1008600022813381820F931F938382837CCFD801AF
:100870008D909C90F40101900020E9F731976F0171
:10088000C818D908B0E2CB16D10408F464C4DB015F
:100890008D919C91DC01FFEFCF16D10409F008F493
:1008A000ECC3ED91FC910190F081E02D6AED09958A
:1008B000F50122813381820F931F93838283DA8A29
:1008C000C98A8A89898BCA8A80819181DC01ED91EC
:1008D000FC910280F381E02DB1E0E134FB0709F0E7
:1008E000D6C4BE016F5E7F4F0E945B0DF501228171
:1008F0003381280F391F33832283D5010D911C9139
:10090000F801A081B1811296ED91FC91139781E0DD
:10091000E134F80709F015C4C114D10409F4F8C48E
:10092000E12CF12C77247394ED91FC91D4016D911D
:100930004D01B0E0EC3DFB0709F05EC3F801708E9D
:10094000938D848D981709F43FC3F801238D30E00F
:100950002F5F3F4F2F733327922F03C00FB607FE31
:10096000C2C2D8015C968C915C979817B9F3F801D4
:10097000838DE80FF11DE35AFF4F60839FB7F89412
:10098000D8015B962C935B975296ED91FC9153970F
:100990008081806280839FBFFFEFEF1AFF0ACE1431
:1009A000DF0409F45CC3F801A081B181BDCFD80197
:1009B000CD90DD90ED90FC90B0E8CB16D104E10431
:1009C000F10408F4DCC3DB018D919C91DC01FFEFA5
:1009D000CF16D104E104F10409F008F4E5C3C11411
:1009E000D104F1E0EF06F10408F47EC3ED91FC912F
:1009F0000190F081E02D6EEC0995F50122813381A3
:100A0000820F931F93838283C982DA82EB82FC82F6
:100A10008C818983CC828A819B819A838B8380811C
:100A20009181DC01ED91FC910280F381E02DB1E038
:100A3000E134FB0709F01AC3BE016F5F7F4F0E94CC
:100A4000E50D8ACEF80180819181A281B381892B45
:100A50008A2B8B2B09F001C362ECD5018D919C91FF
:100A6000DC01ED91FC910190F081E02D74CEF80154
:100A7000F080D180E2801381DB018D919C91DC01BB
:100A8000ED91FC910190F081E02D6AEC0995F50162
:100A900022813381820F931F938382838F2D9D2D1B
:100AA000AE2DB12F89879A87AB87BC878C858987C4
:100AB000FC868A859B859A878B8780819181DC0162
:100AC000ED91FC910280F381E02DB1E0E134FB0770
:100AD00009F030C3BE01675F7F4F0E94E50D3CCE39
:100AE000F80180819181A281B381CC24DD2476013B
:100AF000C81AD90AEA0AFB0A81329105A105B10593
:100B000008F4DDC281389105A105B10508F498C348
:100B10008130F0E89F07A105B10508F467C301978C
:100B2000A105B04808F086CEFB0180819181DC01EF
:100B3000ED91FC910190F081E02D62ED0995F501B8
:100B400022813381820F931F93838283CD82DE8241
:100B5000EF82F88688858D83C8868E819F819E83EB
:100B60008F8380819181DC01ED91FC910280F38182
:100B7000E02DB1E0E134FB0709F0BCC3BE016B5FBF
:100B80007F4F0E94E50DE8CDD801ED91FC913097A3
:100B900009F48BC3E12CF12CBFEFEB1AFB0A858122
:100BA000811150C180E1E816F10408F442C2D50178
:100BB0008D919C91DC01ED91FC910190F081E02DF3
:100BC0006EED0995F50122813381820F931F938386
:100BD0008283FE8AED8A8E898D8BEE8A8081918157
:100BE000DC01ED91FC910280F381E02DB1E0E13474
:100BF000FB0709F053C3BE016B5E7F4F0E945B0D84
:100C0000F50122813381820F931F93838283D80160
:100C10006D907C906114710409F4A5CD5524539412
:100C2000F301C680D780F60101900020E9F73197E3
:100C30004F018C189D08D5018D919C91DC01F0E24B
:100C40008F16910408F4A5C1FFEF8F16910409F0E7
:100C500008F47DC1ED91FC910190F081E02D6AEDE9
:100C60000995F50122813381820F931F938382833B
:100C70009C8A8B8A8C898B8B8C8A80819181DC0108
:100C8000ED91FC910280F381E02DB1E0E134FB07AE
:100C900009F0C1C1BE016D5E7F4F0E945B0DF50181
:100CA00022813381820F931F93838283D5010D911B
:100CB0001C91F801A081B1811296ED91FC911397DE
:100CC00021E0E134F20709F074C1E12CF12C811428
:100CD000910409F4A5C0ED91FC91D6016D916D01CF
:100CE000B0E0EC3DFB0709F093C0F801508E938D06
:100CF000848D981709F467C0D8015B962C9130E079
:100D00002F5F3F4F2F733327922F03C00FB607FE7D
:100D100026C0D8015C968C915C979817B9F3F801BE
:100D2000838DE80FF11DE35AFF4F60839FB7F8945E
:100D3000D8015B962C935B975296ED91FC9153975B
:100D40008081806280839FBFBFEFEB1AFB0A8E1405
:100D50009F0409F456C0F801A081B181BCCF509620
:100D6000ED91FC915197808185FFD3CF5C968C915A
:100D70005C97F801E80FF11DE35AFF4F8081F801FD
:100D8000448D50E04F5F5F4F4F735527448F068867
:100D9000F789E02D80835096ED91FC9151978081E9
:100DA0008370806480835B964C915B975C968C919A
:100DB0005C974813AECF5296ED91FC91539780818A
:100DC0008F7D8083A6CF0088F189E02D808185FF0B
:100DD00093CF9FB7F894D8015696ED91FC91579711
:100DE00060835096ED91FC9151978081837080646F
:100DF00080839FBFBFEFEB1AFB0A8E149F0409F09C
:100E0000AACFD50112968D919C911397740108C0B9
:100E1000C8010995892B09F097CFF501828193814B
:100E2000E80EF91EF501F382E282B501C3010E94CA
:100E30007C03D30115968C9181110DC0F50182813F
:100E4000938191CC28E08202E00DF11D11243097AE
:100E500009F0A2CEA7CEF8E08F02600C711C11241D
:100E60006114710409F0DCCEE9CF98E08902E00D4D
:100E7000F11D1124309709F099CC20E1E216F1041C
:100E800008F49FCCD5018D919C91DC01ED91FC91F2
:100E90000190F081E02D6CED0995F50122813381FF
:100EA000820F931F93838283F88EEF8A888D8F8BB6
:100EB000E88E80819181DC01ED91FC910280F381CB
:100EC000E02DB1E0E134FB0709F01BC2BE01695E11
:100ED0007F4F0E945B0DF50122813381820F931FAA
:100EE0009383828390CC5096ED91FC9151978081B1
:100EF00085FF37CD5C968C915C97F801E80FF11D6A
:100F0000E35AFF4F8081F801448D50E04F5F5F4FFF
:100F10004F735527448F0688F789E02D80835096BC
:100F2000ED91FC91519780818370806480835B9602
:100F30004C915B975C968C915C97481312CD5296BE
:100F4000ED91FC91539780818F7D80830ACDED9147
:100F5000FC910190F081E02D69ED0995F501228168
:100F60003381820F931F938382838E8E8081918140
:100F7000DC01ED91FC910280F381E02DB1E0E134E0
:100F8000FB0709F04FC0BE01625E7F4F0E946F0EEB
:100F900086CEED91FC910190F081E02D60EA680D24
:100FA0000995F501E280F3808E0D9F1D9383828366
:100FB0007DCEA401B601C80109957C01D501129628
:100FC0008D919C9113972CCF0088F189E02D808121
:100FD00085FFBBCC9FB7F894D8015696ED91FC9154
:100FE000579760835096ED91FC9151978081837063
:100FF000806480839FBFD0CCC8010995892B09F0FC
:10100000CBCCF50122813381C701820F931FF501FB
:1010100093838283A8CB42E050E0BE016D5E7F4F98
:1010200009953DCE41E050E0BE01625E7F4F0995DB
:1010300036CE60E86E0DD5018D919C91DC01ED916D
:10104000FC910190F081E02D0995F5012281338119
:10105000820F931F93838283DACD63ECFECCD5019C
:1010600012962D913C911397C601CFCF44E050E0EA
:10107000BE016F5F7F4F09956FCBED91FC910190A1
:10108000F081E02D69ED0995F50122813381820F10
:10109000931F93838283CD8E80819181DC01ED91BA
:1010A000FC910280F381E02DB1E0E134FB0709F00F
:1010B00005C1BE01635E7F4F0E946F0E17CCCB8EC1
:1010C000DB018D919C91DC01ED91FC910280F3811B
:1010D000E02DB1E0E134FB0709F01DC1BE01655E02
:1010E0007F4F0E946F0E38CBED91FC910190F08103
:1010F000E02D6DEC0995F50122813381820F931F5C
:1011000093838283DE86CD868E858D87CE86808191
:101110009181DC01ED91FC910280F381E02DB1E041
:10112000E134FB0709F0C3C0BE01635F7F4F0E943B
:101130005B0D12CB44E050E0BE01675F7F4F099525
:101140000BCBA601B401C8010995D50112962D91CA
:101150003C9113975ACFFB0180819181DC01ED9185
:10116000FC910190F081E02D60EA6C0D0995F5018C
:1011700022813381280F391F33832283BECBC98E4E
:10118000FB0180819181DC01ED91FC910280F38172
:10119000E02DB1E0E134FB0709F0C4C0BE01675E99
:1011A0007F4F0E946F0ED8CAED91FC910190F081A3
:1011B000E02D6CEC0995F50122813381820F931F9C
:1011C00093838283CA8E80819181DC01ED91FC91B1
:1011D0000280F381E02DB1E0E134FB0709F07CC02F
:1011E000BE01665E7F4F0E946F0EB6CADB018D9115
:1011F0009C91DC01ED91FC910190F081E02D61ED7D
:101200000995F50122813381820F931F9383828395
:10121000D88ACF8688898F87C88A80819181DC01AE
:10122000ED91FC910280F381E02DB1E0E134FB0708
:1012300009F04BC0BE01615F7F4F0E945B0D8CCAFD
:10124000DB018D919C91DC01ED91FC910190F0818D
:10125000E02D60ED0995F50122813381820F931F06
:1012600093838283CC8E80819181DC01ED91FC910E
:101270000280F381E02DB1E0E134FB07A1F5BE016E
:10128000645E7F4F0E946F0E67CA60E9ABCA42E09E
:1012900050E0BE016F5E7F4F099528CB42E050E0E1
:1012A000BE016B5E7F4F0995ABCC60E8C4CE42E0D7
:1012B00050E0BE01635F7F4F09954ECA41E050E0A8
:1012C000BE01635E7F4F099511CB42E050E0BE0145
:1012D000615F7F4F099540CA41E050E0BE01665E04
:1012E0007F4F099539CA41E050E0BE01645E7F4FEF
:1012F000099532CA44E050E0BE016B5F7F4F09950B
:101300002BCA42E050E0BE01695E7F4F0995E3CDF4
:1013100080E090E07ACE41E050E0BE01655E7F4F14
:1013200009951ACA41E050E0BE01675E7F4F0995FA
:1013300013CA2F923F924F925F926F927F928F9239
:101340009F92AF92BF92CF92DF92EF92FF920F9354
:101350001F93CF93DF93EC018B018D858823B9F028
:101360001B861D861C8680E0DF91CF911F910F9117
:10137000FF90EF90DF90CF90BF90AF909F908F90B5
:101380007F906F905F904F903F902F90089538819D
:10139000E981FA81F8948181632F609586238183A6
:1013A00078942CE743E050E002C02150C9F2CA0112
:1013B0000197F1F780818323C1F3F894828186231A
:1013C00082838181832B818378948BE797E00197D7
:1013D000F1F7F89481816823618383E191E00197BB
:1013E000F1F780817894E3E6F6E03197F1F738235E
:1013F00009F0B6CF60EFCE010E94EC1081E0F12C35
:10140000812CEE24E39467E070E023E230E04FECBF
:1014100050E097ED692E712C22242A94312CFFE0A4
:10142000AF2EB12C2AC0442009F47EC0FE01EF0D7E
:10143000F11D9381D82ED0949D2193839881E981C9
:10144000FA81F894D280C92EC094DC20D282D18057
:10145000D92AD182D1011197F1F7D2809D299283A7
:101460007894F5013197F1F7E394880F11F4F39430
:1014700081E0B7E0BF1508F472C09881E981FA8174
:10148000F894D180D92AD182D280992E9094D920F3
:10149000D282DB011197F1F7D1809D209182D90191
:1014A0001197F1F790807894FA013197F1F748801D
:1014B000E981FA81F894D180D428D182D280542C49
:1014C0005094D520D282DB011197F1F7D1805D20B5
:1014D0005182D9011197F1F7E0814E227894FA01F7
:1014E0003197F1F7992109F49ECF411038C0FE01E0
:1014F000EF0DF11D9381982B93839880E981FA81F8
:10150000F8949281D92CD0949D219283918199292C
:101510009183D9011197F1F7928199299283789457
:10152000F3013197F1F7A0CF9B85E91668F4FE012E
:10153000EF0DF11D9381D92ED822E9F6A8E0AE1562
:1015400008F0EC868E2C76CFDD24D3949E11D12C1E
:10155000FE01EF0DF11D9381D110CDCFEFCFE0E46F
:10156000EE1508F0FDCE8B86882019F18B8188233B
:1015700009F4F6CED8018C938C8111968C93119737
:101580008D8112968C9312978E8113968C9313975C
:101590008F8114968C931497888515968C93159744
:1015A000898516968C9316978A8517968C9381E079
:1015B000DBCE81E08D87DACF8F929F92AF92BF9280
:1015C000CF92DF92EF92FF920F931F93CF93DF930F
:1015D0008C01EB01E0917D03F0917E033081A181CC
:1015E000B281F89411969C911197732F709597235F
:1015F00011969C93119778942CE743E050E002C039
:10160000215071F1FA013197F1F79C919323C1F3C5
:10161000F89412968C911297872312968C931297B6
:1016200011968C911197832B11968C931197789426
:101630008BE797E00197F1F7F89411968C91119749
:10164000782311967C93119783E191E00197F1F74C
:101650008C917894E3E6F6E03197F1F7382371F056
:1016600080E0DF91CF911F910F91FF90EF90DF907D
:10167000CF90BF90AF909F908F9008954E01B8018A
:1016800080917D0390917E030E9402036EEB809116
:101690007D0390917E030E94EC108E017E0189E013
:1016A000E80EF11CA7E0B0E043E250E02FEC30E0A0
:1016B000E0917D03F0917E037081C181D281F89425
:1016C0006981672B6983DA80672F6095D622DA8279
:1016D000CD010197F1F7D9806D216983CA01019786
:1016E000F1F788817894E9012197F1F7972F9823F2
:1016F000AA24A394911101C0A12CB080C181D281F0
:10170000F89499819B299983DA806B2D6095D62274
:10171000DA82CD010197F1F7D980962F9D21998327
:10172000CA010197F1F798817894E9012197F1F7BF
:101730009B2119F09A2D9260A92EB080C181D2818F
:10174000F89499819B299983DA806B2D6095D62234
:10175000DA82CD010197F1F7D980962F9D219983E7
:10176000CA010197F1F798817894E9012197F1F77F
:101770009B2119F09A2D9460A92EB080C181D2814D
:10178000F89499819B299983DA806B2D6095D622F4
:10179000DA82CD010197F1F7D980962F9D219983A7
:1017A000CA010197F1F798817894E9012197F1F73F
:1017B0009B2119F09A2D9860A92EB080C181D28109
:1017C000F89499819B299983DA806B2D6095D622B4
:1017D000DA82CD010197F1F7D980962F9D21998367
:1017E000CA010197F1F798817894E9012197F1F7FF
:1017F0009B2119F09A2D9061A92EB080C181D281D0
:10180000F89499819B299983DA806B2D6095D62273
:10181000DA82CD010197F1F7D980962F9D21998326
:10182000CA010197F1F798817894E9012197F1F7BE
:101830009B2119F09A2D9062A92EB080C181D2818E
:10184000F89499819B299983DA806B2D6095D62233
:10185000DA82CD010197F1F7D980962F9D219983E6
:10186000CA010197F1F798817894E9012197F1F77E
:101870009B2119F0DA2DD064AD2E60810180F281B8
:10188000E02DF8949181962B91837281962F9095FB
:1018900079237283ED012197F1F771819723918369
:1018A000CA010197F1F790817894F9013197F1F726
:1018B000962319F09A2D9068A92EE801A9928E011D
:1018C000CE15DF0509F0F4CEE0917D03F0917E03A3
:1018D00030810180F281E02DF8948181632F609541
:1018E0008623818378942CE743E050E003C02150A5
:1018F00009F4B6CECA010197F1F780818323B9F3C9
:10190000F8948281862382838181832B81837894DA
:101910008BE797E00197F1F7F89481816823618361
:1019200083E191E00197F1F780817894E3E6F6E0B6
:101930003197F1F7382309F093CEF401A081A1117A
:101940009BC0E40171817111A0C0F4014A81411171
:1019500095C0E401638161119AC0F4012C812111C9
:101960009CC0E401558151119DC0F4019E819111EB
:101970009DC0E401878181119CC03885332309F41F
:101980006FCEEA2FEF70F0E0E25FFE4FB491A295C8
:10199000AF70EA2FF0E0E25EFE4FE491EB277E2786
:1019A000E72FEF70F0E0E25FFE4FA49172957F7039
:1019B000E72FF0E0E25EFE4FE491EA274E27E42FA6
:1019C000EF70F0E0E25FFE4F749142954F70E42FAC
:1019D000F0E0E25EFE4FE491E7276E27E62FEF701E
:1019E000F0E0E25FFE4F449162956F70E62FF0E009
:1019F000E25EFE4FE491E4272E27E22FEF70F0E045
:101A0000E25FFE4F449122952F70E22FF0E0E25EFC
:101A1000FE4FE491E4275E27E52FEF70F0E0E25FF0
:101A2000FE4F249152955F70E52FF0E0E25EFE4F8D
:101A3000E491E2279E27E92FEF70F0E0E25FFE4F8E
:101A4000249192959F70E92FF0E0E25EFE4FE491C1
:101A5000E2278E27E82FEF70F0E0E25FFE4F9491CF
:101A600082958F70E82FF0E0E25EFE4FE491E92767
:101A700081E03E13F5CDF5CD7181428163812481F2
:101A800055819681878130857CCF428163812C810D
:101A90005D819E818F81388574CF5D819E818F812C
:101AA00038856FCF9681878130856BCF8F81388560
:101AB00068CF308566CFDF92EF92FF920F931F932E
:101AC000CF93DF93EC017B0100E010E0DD24D394A1
:101AD000E881F9810190F081E02DD7016D917D01C0
:101AE000B0E0EC3DFB0709F06AC0D88E9B8D8C8D71
:101AF000981709F452C02B8D30E02F5F3F4F2F73A2
:101B00003327922F03C00FB607FE21C08C8D981784
:101B1000D1F38B8DFE01E80FF11DE35AFF4F608377
:101B20009FB7F8942B8FEA89FB898081806280833C
:101B30009FBF0F5F1F4F0230110551F6C801DF91A3
:101B4000CF911F910F91FF90EF90DF900895E8895A
:101B5000F989808185FFDACF8C8DFE01E80FF11DB8
:101B6000E35AFF4F80814C8D50E04F5F5F4F4F73C2
:101B700055274C8FEE89FF898083E889F989808118
:101B80008370806480834B8D8C8D4813BFCFEA892E
:101B9000FB8980818F7D8083B9CFE889F989808135
:101BA00085FFA9CF9FB7F894EE89FF896083E88904
:101BB000F98980818370806480839FBFBACFCE0112
:101BC0000995892B09F0B5CFB9CFDF92EF92FF923B
:101BD0000F931F93CF93DF93EC017B0100E010E0A4
:101BE000DD24D394E881F9810190F081E02DD701C3
:101BF0006D917D01B0E0EC3DFB0709F06AC0D88E25
:101C00009B8D8C8D981709F452C02B8D30E02F5F7F
:101C10003F4F2F733327922F03C00FB607FE21C00B
:101C20008C8D9817D1F38B8DFE01E80FF11DE35ACF
:101C3000FF4F60839FB7F8942B8FEA89FB898081DF
:101C4000806280839FBF0F5F1F4F0430110551F6E4
:101C5000C801DF91CF911F910F91FF90EF90DF901E
:101C60000895E889F989808185FFDACF8C8DFE019E
:101C7000E80FF11DE35AFF4F80814C8D50E04F5F1C
:101C80005F4F4F7355274C8FEE89FF898083E8891A
:101C9000F98980818370806480834B8D8C8D48139B
:101CA000BFCFEA89FB8980818F7D8083B9CFE889A6
:101CB000F989808185FFA9CF9FB7F894EE89FF89C4
:101CC0006083E889F98980818370806480839FBF05
:101CD000BACFCE010995892B09F0B5CFB9CFCF93F3
:101CE000DF93DC01ED91FC9111970190F081E02DE3
:101CF000EB016881D0E0EC3DFD0709F08AC081E08E
:101D000058968C9358975B969C915B975C968C91B8
:101D10005C97981709F465C05B962C915B9730E04F
:101D20002F5F3F4F2F733327922F03C00FB607FE4D
:101D300020C05C968C915C979817C1F35B968C9150
:101D40005B97FD01E80FF11DE35AFF4F60839FB7DA
:101D5000F8945B962C935B975296ED91FC91539778
:101D60008081806280839FBF81E090E0DF91CF918E
:101D700008955096ED91FC915197808185FFD9CFC0
:101D80005C968C915C97FD01E80FF11DE35AFF4FC3
:101D900080815C964C915C9750E04F5F5F4F4F7332
:101DA00055275C964C935C975696ED91FC9157970E
:101DB00080835096ED91FC9151978081837080646F
:101DC00080835B964C915B975C968C915C974813F3
:101DD000B0CF5296ED91FC91539780818F7D808397
:101DE000A8CF5096ED91FC915197808185FF94CFBB
:101DF0009FB7F8945696ED91FC9157976083509653
:101E0000ED91FC91519780818370806480839FBFA6
:101E1000ABCF0995892B09F0A7CF80E090E0A6CF42
:101E200090E0FC01E650FF4F2491FC01E45BFE4F83
:101E30003491FC01E85CFE4F84918823A1F02111CC
:101E400018C0E82FF0E0EE0FFF1FE051FF4FA59103
:101E5000B4918FB7F894611107C09C91E32FE0957E
:101E6000E923EC938FBF0895EC91E32BEC938FBFA4
:101E7000FACF233029F160F02730E1F02830A1F0CB
:101E80002430F9F6909180009F7D90938000D9CF07
:101E9000213031F02230A9F694B59F7D94BDD1CF89
:101EA00094B59F7794BDCDCF9091B0009F7D9093D6
:101EB000B000C7CF9091B0009F779093B000C1CF92
:101EC000909180009F7790938000BBCFCF93DF935A
:101ED00090E0FC01E45BFE4F2491FC01E85CFE4FC6
:101EE00084918823B9F090E0880F991FFC01EA5192
:101EF000FF4FA591B491FC01E051FF4FC591D491E2
:101F0000662359F06230A9F08FB7F894EC91E22B78
:101F1000EC938FBFDF91CF9108959FB7F8948C9188
:101F2000E22FE0958E238C932881E223E8839FBFE4
:101F3000F1CF9FB7F8948C91322F309583238C93F7
:101F4000E881E22BE8839FBFE5CF1F920F920FB687
:101F50000F9211242F933F938F939F93AF93BF932F
:101F60008091280290912902A0912A02B0912B021F
:101F70003091230223E0230F2D3768F126E8230F49
:101F80000296A11DB11D20932302809328029093F5
:101F90002902A0932A02B0932B02809124029091EF
:101FA0002502A0912602B09127020196A11DB11D24
:101FB0008093240290932502A0932602B0932702D7
:101FC000BF91AF919F918F913F912F910F900FBE35
:101FD0000F901F9018950196A11DB11DD4CFCF92DF
:101FE000DF92EF92FF920F931F93CF93DF93E091D5
:101FF000770380917903882329F0809174038823E3
:1020000009F4A1C0E950E33008F07FC0F0E0EE0F22
:10201000FF1FE95AFE4FC080D1800D2C000CEE0846
:10202000FF088091750381117BC09FB7F8944091A0
:10203000240250912502609126027091270286B5F4
:10204000A89B06C08F3F21F04F5F5F4F6F4F7F4FC0
:102050009FBF762F652F542F4427480F511D611DB8
:10206000711D440F551F661F771F440F551F661FB4
:10207000771FC114D104E104F104D1F13FB7F89402
:102080008091240290912502A0912602B09127020E
:1020900026B5A89B05C02F3F19F00196A11DB11DC3
:1020A0003FBFBA2FA92F982F8827820F911DA11DFE
:1020B000B11D880F991FAA1FBB1F880F991FAA1F48
:1020C000BB1F841B950BA60BB70B883E9340A10545
:1020D000B105A0F221E0C21AD108E108F108485187
:1020E0005C4F6F4F7F4FC114D104E104F10431F60E
:1020F0008091750381111AC0DF91CF911F910F91CB
:10210000FF90EF90DF90CF900895BEEECB2EB2E01F
:10211000DB2EE12CF12C80917503882309F485CF07
:1021200060E0809176030E94100F7FCF61E0809184
:102130007603DF91CF911F910F91FF90EF90DF9089
:10214000CF900C94100F8FB7F894C0902802D090C5
:102150002902E0902A02F0902B028FBFA7E0B0E0A6
:1021600063E270E04FEC50E0E0917D03F0917E037C
:1021700090810180F281E02DF8948181892B818307
:102180002281892F809528232283ED012197F1F761
:10219000218182238183EB012197F1F7808178945B
:1021A000FA013197F1F7892309F0A6CF8FB7F89498
:1021B000009128021091290220912A0230912B02CD
:1021C0008FBF0C191D092E093F090E3E1240210533
:1021D000310508F4C9CF90CF8F929F92AF92BF92F2
:1021E000CF92DF92EF92FF920F931F93CF93DF93E3
:1021F000DC0148E050E021E00FEF10E08FE0882E96
:10220000912C93E2C92ED12C37EDE32EF12C1CC07A
:102210008C911196ED91FC911297F8949281382F40
:102220003095932392839181982B9183E601219796
:10223000F1F79281892B82837894C7010197F1F796
:10224000220F41505109F9F0862F822309F79C9102
:102250001196ED91FC911297F8948281392F309567
:10226000832382838181892B8183E8012197F1F780
:102270008281982B92837894C4010197F1F7220F01
:102280004150510909F7F8941196ED91FC9112977C
:1022900091818C918095892381831196ED91FC9198
:1022A000129792818C918095892382837894DF9113
:1022B000CF911F910F91FF90EF90DF90CF90BF9043
:1022C000AF909F908F900895CF93DF93CDB7DEB7F7
:1022D00063970FB6F894DEBF0FBECDBF789484B578
:1022E000826084BD84B5816084BD85B5826085BD12
:1022F00085B5816085BD80916E00816080936E00A0
:102300001092810080918100826080938100809191
:102310008100816080938100809180008160809342
:1023200080008091B10084608093B1008091B00002
:1023300081608093B00080917A00846080937A00FD
:1023400080917A00826080937A0080917A00816027
:1023500080937A0080917A00806880937A0010924E
:10236000C10061E083E00E94660F61E08BE00E94A3
:10237000660F61E08CE00E94660F61E08DE00E94D4
:10238000660F60E080E10E94660F60E08EE00E94D0
:10239000660F60E08FE00E94660F60E081E10E94BE
:1023A000660F60E083E00E94100F60E08BE00E9407
:1023B000100F61E08CE00E94100F60E08DE00E9441
:1023C000100FE0913C02F0913D0282E08083E091A9
:1023D0003802F09139021082E0913A02F0913B020A
:1023E00083E0808310924402E0914002F091410228
:1023F00086E08083E0913E02F0913F02808180611F
:102400008083E0913E02F0913F028081886080836A
:10241000E0913E02F0913F02808180688083E091EC
:102420003E02F0913F0280818F7D80838091DC02AB
:10243000982F9F7761F4807880628093DC021092FD
:10244000D9021092D8021092DB021092DA0285FFB4
:1024500035C00091D8021091D90215C061157105DF
:1024600031F081E791E00E94DC27892BD1F0D8017F
:1024700015968C91882311F40C94D521E8E08E02F6
:10248000000D111D11240115110511F40C94D52115
:10249000D80116966D917C911797B1E061377B0753
:1024A000E9F6F801848180788860848381E090E097
:1024B000A0E0B0E080839183A283B383E0917D03A9
:1024C000F0917E031386158614861286339687E074
:1024D000DF011D928A95E9F710927B0310927C032D
:1024E00023E0C22ED12C37E0832E912C43E2642EC0
:1024F000712C5FEC452E512C6BE7E62E67E0F62E33
:1025000003E111E03324339493E6A92E96E0B92E2B
:1025100076C02A85E22FEF70F0E0E25FFE4F9491E3
:10252000E22FE295EF70F0E0E25EFE4FE4919E272D
:102530008B859827E92FEF70F0E0E25FFE4F8491E2
:1025400092959F70E92FF0E0E25EFE4FE4918E27B6
:102550009C858927E82FEF70F0E0E25FFE4F9491B1
:1025600082958F70E82FF0E0E25EFE4FE491E9275C
:102570009D859E27E92FEF70F0E0E25FFE4F84918A
:10258000E92FE295EF70F0E0E25EFE4FE491E8277C
:102590009E858E2F8927E82FEF70F0E0E25FFE4FD7
:1025A000949182958F70E82FF0E0E25EFE4FE49107
:1025B000E9279F859E27E92FEF70F0E0E25FFE4F4D
:1025C0008491E92FE295EF70F0E0E25EFE4FE49136
:1025D000E82798898E2F8927E82FEF70F0E0E25FD7
:1025E000FE4F949182958F70E82FF0E0E25EFE4FEF
:1025F000E491E92789898E1711F40C94C41CBE015B
:10260000665F7F4F80917D0390917E030E949909C0
:1026100081117FCF80917B03282F30E0309310020F
:1026200020930F029CE090937703882311F40C947D
:10263000CF21512C9E012F5E3F4F3B8B2A8BAE0149
:102640004E5E5F4F3A01B3E28B2E912C17EDA12E17
:10265000B12CCC24CA94D12C8FE0E82EF12CE0913F
:102660007D03F0917E0313861586148612861186EB
:1026700010861782168215821482138210E0BE0122
:10268000665F7F4F80917D0390917E030E94990940
:1026900081110C94661B8A85803109F417C1109151
:1026A0007703BE016F5F7F4FCE010A96193010F499
:1026B0000C94701B0E94DC0A882309F407C11D30AA
:1026C00008F01CE01A50133010F00C94751BE12F29
:1026D000F0E0E25FFE4F80819D81981709F4F6C01B
:1026E0008D83E0917D03F0917E0330810180F28142
:1026F000E02DF8948181632F6095862381837894FF
:102700002CE743E050E002C0215001F1CA010197DB
:10271000F1F780818323C1F3F89482818623828339
:102720008181382B318378948BE797E00197F1F71B
:10273000F89481816823618383E191E00197F1F747
:102740008081789483E696E00197F1F700917D030C
:1027500010917E0365E5C8010E94EC10CE010A9637
:102760001C01D1016D911D0128E030E091E01CC0F9
:10277000F80180810180F281E02DF8944281582F88
:102780005095452342834181482B4183D4011197C1
:10279000F1F74281842B82837894F5013197F1F728
:1027A000990F2150310901F1892F862309F7D801AA
:1027B0008C911196ED91FC911297F8944281582FCB
:1027C0005095452342834181482B4183D60111977F
:1027D000F1F74281842B82837894F7013197F1F7E6
:1027E000990F2150310901F7F894D8011196ED9114
:1027F000FC91129791818C91809589238183119608
:10280000ED91FC91129792818C918095892382831E
:1028100078942614370409F0A4CF6EE480917D03E8
:1028200090917E030E94EC106B8180917D039091CA
:102830007E030E94EC106C8180917D0390917E0359
:102840000E94EC108A85803139F06D8180917D0382
:1028500090917E030E94EC1080917A03E0917D03B9
:10286000F0917E0330810180F281E02D81110C9482
:10287000521DF8948181632F60958623818378941B
:102880002CE743E050E002C0215001F1CA0101975A
:10289000F1F780818323C1F3F894828186238283B8
:1028A0008181382B318378948BE797E00197F1F79A
:1028B000F89481816823618383E191E00197F1F7C6
:1028C0008081789483E696E00197F1F753948091A4
:1028D0007B03581608F4C3CE10927803E0917D0371
:1028E000F0917E0330810180F281E02DF8948181A6
:1028F000632F60958623818378942CE743E050E032
:1029000002C0215001F1CA010197F1F780818323B0
:10291000C1F3F8948281862382838181382B3183AD
:1029200078948BE797E00197F1F7F8948181682319
:10293000618383E191E00197F1F78081789483E6E8
:1029400096E00197F1F76CEC80917D0390917E0306
:102950000E94EC10A0907403A0917D03B0917E03BF
:1029600028E030E0BB24B3946FEF70E04FE050E01C
:10297000E3E2EE2EF12C07ED10E04D019B2D1DC082
:10298000D4018C911196ED91FC911297F894D2801C
:10299000C82EC094DC20D282D180D82AD182D7011F
:1029A0001197F1F7D2808D2982837894F8013197BD
:1029B000F1F7990F21503109F9F0892F847401F74B
:1029C000F40180810180F281E02DF894D280C82E3C
:1029D000C094DC20D282D180D82AD182DB01119729
:1029E000F1F7D2808D2982837894FA013197F1F73B
:1029F000990F2150310909F7D401A11014C0F8949E
:102A00001196ED91FC91129781819C91909589236B
:102A100081831196ED91FC91129782819C91909502
:102A20008923828378948091780381110E94EF0F2B
:102A300080E480937C0080917A00806480937A00A7
:102A400080917A0086FDFCCF80917800809179009A
:102A5000109212021092110240E440937C00809187
:102A60007A00806480937A0080917A0086FDFCCFA2
:102A7000809178002091790090E0922B20910D02B6
:102A800030910E02820F931F90930E0280930D02DD
:102A900020911102309112022F5F3F4F30931202AA
:102AA0002093110225303105C4F265E070E00E94E8
:102AB000162570930E0260930D0293E0692E712C1F
:102AC000AA24AA94B12C8FE0882E912C8091210207
:102AD0009091220297FD1DC7853691050CF44DC6D5
:102AE00084E690E0909322028093210220911F02BD
:102AF000309120022436310509F028C78FB7F894A9
:102B0000409128025091290260912A0270912B0273
:102B10008FBF80918B0390918C03A0918D03B09116
:102B20008E038A019B01081B190B2A0B3B0B80911A
:102B30008F0390919003092E000CAA0BBB0B081772
:102B400019072A073B0708F464C040938B0350938E
:102B50008C0360938D0370938E0310920902109280
:102B6000080242E490917A0080917A00887F846024
:102B700080937A0040937C0080917A0080648093F7
:102B80007A0080917A0086FDFCCF809178002091B8
:102B9000790090937A0090E0922B20910602309178
:102BA0000702820F931F90930702809306022091E1
:102BB0000802309109022F5F3F4F309309022093A2
:102BC00008022530310574F265E070E00E94162598
:102BD00070930702609306026D3C71050CF0BFC64E
:102BE0008DEC90E0909307028093060210921E02F3
:102BF00010921D0280E090E02091040230910502C5
:102C00002817390711F010920C0290930502809357
:102C100004028FB7F89440912802509129026091E4
:102C20002A0270912B028FBF8091910390919203A1
:102C3000A0919303B09194038A019B01081B190B87
:102C40002A0B3B0B8091950390919603092E000C63
:102C5000AA0BBB0B081719072A073B07B8F14093CB
:102C60009103509392036093930370939403809124
:102C70000C0220910A0230910B02811110C0809148
:102C80001D0290911E02281739070CF4BEC6821748
:102C9000930714F40C94801E81E080930C0230930F
:102CA00022022093210280910D0290910E021816AB
:102CB00019060CF066C62F5F3F4F30932202209317
:102CC000210281E080931402109213028FB7F894CE
:102CD000409128025091290260912A0270912B02A2
:102CE0008FBF80916E0390916F03A0917003B0919C
:102CF00071038A019B01081B190B2A0B3B0B809166
:102D0000720390917303092E000CAA0BBB0B0817DA
:102D100019072A073B0708F43FC140936E035093FD
:102D20006F036093700370937103109212021092FC
:102D30001102C0900F02D09010021C141D04E4F583
:102D4000A5E1EA2EA2E0FA2E00E010E0402EE0918C
:102D50007D03F0917E0313861586148612861186F4
:102D6000108617821682158214821382512CBE019E
:102D7000665F7F4F80917D0390917E030E94990949
:102D8000882339F0451411F40C94EE215394451422
:102D900070F760E070E08EEF92ECD7016D937D9359
:102DA0008D939D937D010F5F1F4F1093120200932F
:102DB00011020C151D0551F6E0917D03F0917E0383
:102DC00030810180F281E02DF8948181432F40957C
:102DD0008423818378942CE702C0215001F1C30140
:102DE0000197F1F780818323C1F3F89482818423D2
:102DF00082838181382B318378948BE797E0019728
:102E0000F1F7F89481814823418383E191E00197B0
:102E1000F1F78081789483E696E00197F1F7A0912D
:102E20007D03B0917E0328E030E051E01FC01C918B
:102E30001196ED91FC911297F8948281412F409563
:102E4000842382838181812B818363E270E0CB01C3
:102E50000197F1F78281812B8283789487ED90E04E
:102E60000197F1F7550F21503109F9F0852F8C7C2E
:102E7000F1F61C911196ED91FC911297F8948281D4
:102E8000412F4095842382838181812B8183C501D9
:102E90000197F1F78281812B82837894C401019795
:102EA000F1F7550F2150310909F7F8941196ED917A
:102EB000FC91129791818C91809589238183119641
:102EC000ED91FC91129792818C9180958923828358
:102ED000789460917403A0917D03B0917E0328E003
:102EE00030E051E020C07C911196ED91FC91129759
:102EF000F8949281472F4095942392839181972B48
:102F0000918303E210E0C8010197F1F79281872FC6
:102F1000892B8283789487ED90E00197F1F7550F24
:102F200021503109F9F0852F8474E9F67C911196CE
:102F3000ED91FC911297F8948281472F409584235C
:102F400082838181872B8183C5010197F1F782817B
:102F5000872B82837894C4010197F1F7550F215094
:102F6000310909F7611114C0F8941196ED91FC91A3
:102F7000129791818C918095892381831196ED918F
:102F8000FC91129792818C91809589238283789409
:102F9000809178038111BAC48FB7F89440912802C8
:102FA0005091290260912A0270912B028FBF80916B
:102FB000C9029091CA02A091CB02B091CC028A01C1
:102FC0009B01081B190B2A0B3B0B8091CD029091A2
:102FD000CE02092E000CAA0BBB0B081719072A07F3
:102FE0003B0708F45DC34093C9025093CA02609343
:102FF000CB027093CC02C0901D02D0901E021091A3
:10300000DC02812F8F7761F4107810621093DC025C
:103010001092D9021092D8021092DB021092DA02BA
:1030200015FF34C0E090D802F090D90213C06115AA
:10303000710531F089E791E00E94DC27892BA9F026
:10304000F7018581882309F419C728E08202E00C82
:10305000F11C1124E114F10409F410C7F701668191
:103060007781F1E069377F0711F7F7018481807874
:10307000D7FCDEC4886084830D2C000CEE08FF08AA
:10308000C082D182E282F3821091DC02C0902102E0
:10309000D0902202812F8F7761F410781062109304
:1030A000DC021092D9021092D8021092DB02109228
:1030B000DA0215FF37C0E090D802F090D90214C0B0
:1030C0006115710531F089E891E00E94DC27892BB8
:1030D000C1F0D70115968C91882309F4ABC6E8E0BE
:1030E0008E02E00CF11C1124E114F10409F4A2C6D3
:1030F000D70116966D917C911797B1E069387B07DF
:10310000F9F6F70184818078D7FCA7C488608483AE
:103110000D2C000CEE08FF08C082D182E282F382FF
:103120001091DC024091040150910501809106014B
:1031300090910701489F9001499F300D589F300D95
:103140001124032E000C440B550B60E074E284EF55
:1031500090E00E942A2519012A01812F8F7761F4BE
:10316000107810621093DC021092D9021092D802EB
:103170001092DB021092DA0215FF32C0E090D80202
:10318000F090D90213C06115710531F085E991E025
:103190000E94DC27892BB9F0F7018581882309F487
:1031A0005BC6E8E08E02E00CF11C1124E114F1048E
:1031B00009F452C6D70116966D917C911797B1E02C
:1031C00065397B0701F7F7018481807857FC5AC481
:1031D0008860848320823182428253821091DC0293
:1031E000209015023090160240901702509018025D
:1031F000812F8F7761F4107810621093DC021092A7
:10320000D9021092D8021092DB021092DA0215FF56
:1032100031C0E090D802F090D90214C06115710558
:1032200031F082EA91E00E94DC27892BC1F0D701BE
:1032300015968C91882309F4EBC5E8E08E02E00C2A
:10324000F11C1124E114F10409F4E2C5D70116962A
:103250006D917C911797B1E0623A7B07F9F6F7011F
:10326000848180788C608483208231824282538280
:103270001091DC02812F8F7761F410781062109327
:10328000DC021092D9021092D8021092DB02109246
:10329000DA0215FF30C0E090D802F090D90213C0D6
:1032A0006115710531F088EA91E00E94DC27892BD5
:1032B000B9F0F7018581882309F498C5E8E08E020A
:1032C000E00CF11C1124E114F10409F48FC5D701BD
:1032D00016966D917C911797B1E0683A7B0701F7DC
:1032E000F701848180788C6084831082118212823D
:1032F00013821091DC02812F8F7761F410781062B5
:103300001093DC021092D9021092D8021092DB02C4
:103310001092DA0215FF31C0E090D802F090D90285
:1033200014C06115710531F086EB91E00E94DC2735
:10333000892BC1F0D70115968C91882309F432C5E9
:10334000E8E08E02E00CF11C1124E114F10409F410
:1033500029C5D70116966D917C911797B1E0663B10
:103360007B07F9F6F701848180788C608483108272
:103370001182128213821091DC02812F8F7761F407
:10338000107810621093DC021092D9021092D802C9
:103390001092DB021092DA0215FF30C0E090D802E2
:1033A000F090D90213C06115710531F081EC91E004
:1033B0000E94DC27892BB9F0F7018581882309F465
:1033C00003C5E8E08E02E00CF11C1124E114F104C5
:1033D00009F4FAC4D70116966D917C911797B1E064
:1033E000613C7B0701F7F701848180788C608483DE
:1033F00010821182128213821091DC02812F8F774A
:1034000061F4107810621093DC021092D9021092CD
:10341000D8021092DB021092DA0215FF31C0E09060
:10342000D802F090D90214C06115710531F08DEC0D
:1034300091E00E94DC27892BC1F0D70115968C9171
:10344000882309F49DC4E8E08E02E00CF11C1124ED
:10345000E114F10409F494C4D70116966D917C919E
:103460001797B1E06D3C7B07F9F6F701848180780E
:103470008C60848310821182128213821091DC028C
:1034800000911402812F8F7761F4107810621093ED
:10349000DC021092D9021092D8021092DB02109234
:1034A000DA0215FF33C0E090D802F090D90213C0C1
:1034B0006115710531F08BED91E00E94DC27892BBD
:1034C000B9F0F7018581882309F448C4E8E08E0249
:1034D000E00CF11C1124E114F10409F43FC4D701FC
:1034E00016966D917C911797B1E06B3D7B0701F7C4
:1034F000F701848180788660848310E020E030E0EA
:1035000000831183228333831091DC020091130224
:10351000812F8F7761F4107810621093DC02109283
:10352000D9021092D8021092DB021092DA0215FF33
:1035300034C0E090D802F090D90214C06115710532
:1035400031F085EE91E00E94DC27892BC1F0D70194
:1035500015968C91882309F4EFC3E8E08E02E00C05
:10356000F11C1124E114F10409F4E6C3D701169605
:103570006D917C911797B1E0653E7B07F9F6F701F5
:10358000848180788660848310E020E030E00083CE
:103590001183228333831091DC02812F8F7761F4B2
:1035A000107810621093DC021092D9021092D802A7
:1035B0001092DB021092DA0215FF2EC00091D802A1
:1035C0001091D90213C06115710531F08FEE91E0B1
:1035D0000E94DC27892BB9F0F8018581882309F442
:1035E0005FC4E8E08E02000D111D112401151105C4
:1035F00009F456C4D80116966D917C911797B1E0E5
:103600006F3E7B0701F7F8018481807886608483B0
:1036100010821182128213824CE252E05A83498353
:103620001C821B82BE016F5F7F4F88ED92E00E947B
:103630007C03A9EFB1E051E04D9150934402909189
:10364000470280914802E0913C02F0913D029817B8
:1036500009F47FC02091470230E02F5F3F4F2F7366
:103660003327922F03C00FB607FE42C08091480255
:103670009817C9F3E0914702F0E0E757FD4F408308
:103680009FB7F89420934702E0913E02F0913F02E9
:103690008081806280839FBF61E0AD3FB60761F6A5
:1036A00080E090E0892B09F411CA809145022091B5
:1036B000460290E0805C9F4F821B91098F7399278F
:1036C000892B09F403CA0E940000FAC9151509F4F0
:1036D00096C71F5F511610F40C944B130C943F13B4
:1036E0000E94DC0A882309F4F1C88FE10C946C1362
:1036F000808185FFBBCFE0914802F0E0E757FD4FA6
:1037000080816091480270E06F5F7F4F6F73772711
:1037100060934802E0914202F09143028083E0917D
:103720003C02F0913D0280818370806480836091CF
:10373000470280914802681307C0E0913E02F09171
:103740003F0280818F7D8083E0913C02F0913D02B9
:103750008DCF808185FF7ECF9FB7F894E0914202A4
:10376000F09143024083E0913C02F0913D02808160
:103770008370806480839FBF8FCF20911F02309120
:1037800020028217930709F4B9C9009709F4CCC045
:10379000833391050CF02CC7823091050CF4DCC00A
:1037A000843091050CF4D7C5883091050CF4D6C54A
:1037B0008E3091050CF4E4C58E30910509F4E3C513
:1037C0000F9709F4CEC586E090E0909301028093B4
:1037D0000002233331050CF4ADC044E650E0421B37
:1037E000530B1092030210920202423051050CF466
:1037F000AAC0443051050CF4B7C5483051050CF44B
:10380000B6C54E3051050CF4B5C54E30510509F41E
:10381000B4C54F30510509F4B9C546E050E05093A6
:103820000302409302025093FF014093FE01232BB9
:1038300059F483EA8093B0008091000290910102D4
:103840004091FE015091FF0184179507E9F1FC01B9
:10385000EE0FFF1F880F991F880F991F880F991F60
:10386000DF01A80FB91FAF5EBE4F12962D913C919C
:1038700013972034310509F457C22032310509F479
:1038800021C328E030E030930501209304012AE0B1
:103890002093B1008E0F9F1FFC01EF5EFE4F8481CD
:1038A0009581809306019093070146815781608539
:1038B0007185409300015093010160930201709360
:1038C000030181508093B300609121027091220224
:1038D000072E000C880B990B0E94BD25209100013A
:1038E0003091010140910201509103010E94212673
:1038F0000E94852561506093B400809121029091CF
:1039000022029093200280931F02F8C80E94EF0FBA
:1039100043CB109222021092210280911F029091BB
:103920002002892B09F4EAC88091B0008F7580933A
:10393000B000E3CF1092030210920202A9014230BC
:1039400051050CF056CF40E050E06DCF80E090E0A4
:10395000823091050CF024CF80E090E036CF6533C3
:1039600083E078070CF443C084E393E0909307026C
:103970008093060284E690E090931E0280931D02DD
:103980003BC910921402A0C980917B038F5F809382
:103990007B03283241F008F0ABC1203121F0223204
:1039A00011F00C94FF1280917C038F5F80937C0355
:1039B00080917403882309F440C62031B1F0BE0120
:1039C0006F5F7F4FCE010A960E94DC0A882309F4BC
:1039D00097C58D818F3309F4D1C608F4D3C68F35CE
:1039E00009F4CEC68F3709F08BC58CE08AC56433E5
:1039F00093E0790709F4BECF6D3C710509F4F6C870
:103A000080911D0290911E02F7C82F5F3F4F3093A7
:103A10000B0220930A02609106017091070180E772
:103A200097E10E941625709396036093950337C91A
:103A30008A6084830D2C000CEE08FF08F094E0945B
:103A4000D094C094C11CD11CE11CF11CC082D18255
:103A5000E282F3821091DC0219CB8A6084830D2C00
:103A6000000CEE08FF08F094E094D094C094C11CC0
:103A7000D11CE11CF11CC082D182E282F382109140
:103A8000DC0250CB8A60848388279927DC01821965
:103A90009309A409B50980839183A283B38310910C
:103AA000DC029ECBF8948181632F6095862381830D
:103AB00078942CE743E050E004C0215011F40C94BA
:103AC0006614CA010197F1F780818323B1F3F8945A
:103AD0008281862382838181832B818378948BE703
:103AE00097E00197F1F7F89481816823618383E17E
:103AF00091E00197F1F780817894E3E6F6E0319761
:103B0000F1F7382311F00C946614BE01665F7F4F05
:103B100080917D0390917E030E9402036091740363
:103B2000A0917D03B0917E0328E030E071E01DC0DC
:103B30001C911196ED91FC911297F8944281512FAE
:103B40005095452342834181412B4183C401019714
:103B5000F1F74281812F842B82837894F50131978C
:103B6000F1F7770F2150310901F1872F887401F7A0
:103B70001C911196ED91FC911297F8944281512F6E
:103B80005095452342834181412B4183C6010197D2
:103B9000F1F74281812F842B82837894F70131974A
:103BA000F1F7770F2150310901F7611114C0F89432
:103BB0001196ED91FC91129781819C9190958923AA
:103BC00081831196ED91FC91129782819C91909541
:103BD00089238283789480917403882309F459C3DC
:103BE000809175038111D5C39FB7F8944091240249
:103BF00050912502609126027091270286B5A89BFC
:103C000006C08F3F21F04F5F5F4F6F4F7F4F9FBFC9
:103C1000762F652F542F4427480F511D611D711DAC
:103C2000440F551F661F771F440F551F661F771FD0
:103C300004E110E020E030E0FFB7F8948091240226
:103C400090912502A0912602B0912702E6B5A89B8B
:103C500005C0EF3F19F00196A11DB11DFFBFBA2F9E
:103C6000A92F982F88278E0F911DA11DB11D880F98
:103C7000991FAA1FBB1F880F991FAA1FBB1F841B58
:103C8000950BA60BB70B883E9340A105B105A0F29A
:103C9000015011092109310948515C4F6F4F7F4F85
:103CA000011511052105310539F680917503811142
:103CB0008FC3E0917D03F0917E0330810180F2811A
:103CC000E02DF8948181632F609586238183789419
:103CD0002CE743E050E004C0215011F40C9466142A
:103CE000CA010197F1F780818323B1F30C944C143E
:103CF0002B3309F458CE223411F00C94FF1253CE1A
:103D00002150310930930B0220930A026091060181
:103D10007091070180E197E20E9416257093960347
:103D2000609395030C944F16309305012093040182
:103D30002CE02093B100AECD8091D3029091D402BB
:103D40002091D1023091D202285F3F4F8217930712
:103D500008F0C0C081E08093D7021FCC8091D302CD
:103D60009091D4022091D1023091D202285F3F4F2E
:103D70008217930708F0D9C081E08093D702C6CBA1
:103D80008091D3029091D4022091D1023091D2023D
:103D9000285F3F4F8217930708F01DC181E0809391
:103DA000D7026ECB8091D3029091D4022091D102A0
:103DB0003091D202285F3F4F8217930708F0E0C08E
:103DC00081E08093D702D9CA8091D3029091D40226
:103DD0002091D1023091D202285F3F4F8217930782
:103DE00008F024C181E08093D70208CB8091D302F0
:103DF0009091D4022091D1023091D202285F3F4F9E
:103E00008217930708F03DC181E08093D70273CAFF
:103E10008091D3029091D4022091D1023091D202AC
:103E2000285F3F4F8217930708F083C181E080939A
:103E3000D70220CA8091D3029091D4022091D1025E
:103E40003091D202285F3F4F8217930708F044C198
:103E500081E08093D70266C98091D3029091D40209
:103E60002091D1023091D202285F3F4F82179307F1
:103E700008F08AC181E08093D702B2C98091D30251
:103E80009091D4022091D1023091D202285F3F4F0D
:103E90008217930708F0A5C181E08093D702F6C886
:103EA0008091D3029091D4022091D1023091D2021C
:103EB000285F3F4F8217930708F0C0C181E08093CD
:103EC000D702AACB30930501209304012BE0209365
:103ED000B100E0CCFC013897F093D402E093D30218
:103EE000309709F45ACBA091DA02B091DB02109717
:103EF00009F447C39F012A1B3B0B35952795359540
:103F000027953595279515962C93F093DB02E09332
:103F1000DA0215821482DC01129725EE31E02D932E
:103F20003C93309709F02CCB36CBFC013897F093BB
:103F3000D402E093D302309709F4E8CAA091DA02E0
:103F4000B091DB02109709F413C39F012A1B3B0BAE
:103F500035952795359527953595279515962C9365
:103F6000F093DB02E093DA0215821482DC011297EF
:103F70002BED31E02D933C93309709F0BACAC4CAB7
:103F8000FC013897F093D402E093D302309709F400
:103F9000F4C9A091DA02B091DB02109709F4DFC2F4
:103FA0009F012A1B3B0B3595279535952795359510
:103FB000279515962C93F093DB02E093DA02158295
:103FC0001482DC01129726EB31E02D933C9330975D
:103FD00009F0C9C9D0C9FC013897F093D402E09325
:103FE000D302309709F44CCAA091DA02B091DB02F7
:103FF000109709F4ABC29F012A1B3B0B35952795FF
:10400000359527953595279515962C93F093DB02DA
:10401000E093DA0215821482DC0112972DEC31E074
:104020002D933C93309709F021CA28CAFC01389798
:10403000F093D402E093D302309709F4DFC9A09142
:10404000DA02B091DB02109709F477C29F012A1BB4
:104050003B0B3595279535952795359527951596DD
:104060002C93F093DB02E093DA0215821482DC01D8
:10407000129721EC31E02D933C93309709F0B4C9AD
:10408000BBC9FC013897F093D402E093D302309778
:1040900009F431C9A091DA02B091DB02109709F45A
:1040A00043C29F012A1B3B0B3595279535952795D4
:1040B0003595279515962C93F093DB02E093DA0261
:1040C00015821482DC01129728EA31E02D933C938B
:1040D000309709F006C90DC9FC013897F093D40256
:1040E000E093D302309711F40C949218A091DA0265
:1040F000B091DB02109709F40EC29F012A1B3B0B03
:1041000035952795359527953595279515962C93B3
:10411000F093DB02E093DA0215821482DC0112973D
:1041200029E831E02D933C93309711F00C948218DC
:10413000A6CCFC013897F093D402E093D3023097D9
:1041400009F498C8A091DA02B091DB02109709F443
:10415000CEC19F012A1B3B0B359527953595279599
:104160003595279515962C93F093DB02E093DA02B0
:1041700015821482DC01129722EA31E02D933C93E0
:10418000309709F06DC874C8FC013897F093D402D9
:10419000E093D302309711F40C94F018A091DA0256
:1041A000B091DB02109709F499C19F012A1B3B0BC8
:1041B00035952795359527953595279515962C9303
:1041C000F093DB02E093DA0215821482DC0112978D
:1041D00025E931E02D933C93309711F00C94E418CD
:1041E0005ECCFC013897F093D402E093D302309771
:1041F00011F40C944618A091DA02B091DB021097EA
:1042000009F463C19F012A1B3B0B35952795359512
:1042100027953595279515962C93F093DB02E0931F
:10422000DA0215821482DC01129749E751E04D93BE
:104230005C93309711F00C9436180CCCFC01389735
:10424000F093D402E093D302309709F4E5C9A0912A
:10425000DA02B091DB02109709F42EC19F012A1BEC
:104260003B0B3595279535952795359527951596CB
:104270002C93F093DB02E093DA0215821482DC01C6
:1042800012972FEE31E02D933C93309709F0BCC983
:10429000C3C99FB7F89440912402509125026091C0
:1042A00026027091270286B5A89B06C08F3F21F099
:1042B0004F5F5F4F6F4F7F4F9FBF762F652F542FFC
:1042C0004427480F511D611D711D440F551F661F66
:1042D000771F440F551F661F771F04E110E020E091
:1042E00030E0FFB7F8948091240290912502A091CC
:1042F0002602B0912702E6B5A89B05C0EF3F19F052
:104300000196A11DB11DFFBFBA2FA92F982F882795
:104310008E0F911DA11DB11D880F991FAA1FBB1FD4
:10432000880F991FAA1FBB1F841B950BA60BB70BE9
:10433000883E9340A105B105A0F201501109210961
:10434000310948515C4F6F4F7F4F01151105210511
:10435000310539F6AECC81E090E037CA82E090E0DA
:1043600034CA85E090E031CA41E050E058CA42E0EA
:1043700050E055CA43E050E052CA44E050E04FCA12
:1043800083E090E022CA84E090E01FCA45E050E05C
:1043900046CA60E0809176030E94100F25CCFE0192
:1043A0007196FB8BEA8B0C946C148091D3029091E4
:1043B000D4022091D1023091D202285F3F4F821760
:1043C000930708F0E7C081E08093D7020C945E1257
:1043D00061E0809176030E94100F6BCCDE011A968B
:1043E00080E09D918927E82FEF70F0E0E25FFE4FBB
:1043F0009491E82FE295EF70F0E0E25EFE4FE491D9
:10440000892F8E27EA89FB89EA17FB0751F79989DB
:1044100098130C94C616BE016F5F7F4FCE010A96AB
:104420000E94DC0A882311F40C94C9166A8170E09A
:10443000762F6627770F770F770F898190E0880FA7
:10444000991F880F991F880F991F9B01282B392BC3
:104450008A858031A9F0B901613854EE750714F4EA
:104460000C94C916072E000C880B990B0E94BD25D1
:1044700020E030E040E05CE30E9421260C94CD1661
:104480006885662341F370E08F81AB01481B5109B9
:10449000CA019695982F8827979587950E9416258B
:1044A00060527109207F220F331F220F331F220F0A
:1044B000331F620F731FD0CFF093D902E093D8025D
:1044C000F093DB02E093DA02D8CEF093D902E093C6
:1044D000D802F093DB02E093DA02A3CEF093D90284
:1044E000E093D802F093DB02E093DA026DCEF09312
:1044F000D902E093D802F093DB02E093DA0238CEDF
:1045000080E090917703981710F00C94FF1280933D
:1045100077030C948212F093D902E093D802F093BF
:10452000DB02E093DA02F8CDF093D902E093D802EF
:10453000F093DB02E093DA02C3CDF093D902E0936B
:10454000D802F093DB02E093DA028FCDF093D90228
:10455000E093D802F093DB02E093DA025BCDF093B4
:10456000D902E093D802F093DB02E093DA0227CD80
:10457000F093D902E093D802F093DB02E093DA02E1
:10458000F3CCF093D902E093D802F093DB02E093EE
:10459000DA02BFCCFC013897F093D402E093D30247
:1045A000309711F40C945E12A091DA02B091DB0204
:1045B000109709F4DAC09F012A1B3B0B359527950C
:1045C000359527953595279515962C93F093DB0215
:1045D000E093DA0215821482DC01129721E731E0C0
:1045E0002D933C93309711F00C9452120C945E1260
:1045F00044E650E0BA01681B790BCB01CDC8DE015F
:104600001A9680E09D918927E82FEF70F0E0E25F35
:10461000FE4F9491E82FE295EF70F0E0E25EFE4FDE
:10462000E491892F8E276A897B89A617B70751F7EE
:10463000998998134EC80C944B13E0917D03F09127
:104640007E0320810180F281E02DF8949181822FF8
:1046500080959823918378949CE702C09150E9F06B
:10466000D6011197F1F730813223C1F3F89492818A
:10467000982392839181922B91837894D7011197FB
:10468000F1F7F894918189238183C8010197F1F7AB
:1046900080817894C5010197F1F7BE01665F7F4F75
:1046A00080917D0390917E030E94020364EB8091D0
:1046B0007D0390917E030E94EC10E0917D03F091C8
:1046C0007E0390810180F281E02DF8948181892B15
:1046D00081832281892F809528232283D4011197F9
:1046E000F1F7218182238183D3011197F1F7808132
:1046F00098237894F2013197F1F7E0917D03F091DE
:104700007E0330810180F281E02DF8942181832F96
:1047100080952823218378942CE702C02150E9F06A
:10472000D6011197F1F740814323C1F3F894228118
:10473000282322832181232B21837894D701119769
:10474000F1F7F894218182238183D8011197F1F741
:1047500080817894F5013197F1F7992311F02A853A
:104760002CC9309274032A8528C9F093D902E093AA
:10477000D802F093DB02E093DA022CCF8AE0C1CEBC
:104780008BE0BFCE8F3109F0BBCE89E0BACE8091ED
:10479000640390916503009711F00C944E270895DF
:1047A000CF93DF9310922F0210922E0288EE93E0A7
:1047B000A0E0B0E08093300290933102A0933202E7
:1047C000B093330281E691E090932D0280932C0206
:1047D00085EC90E0909339028093380284EC90E06D
:1047E00090933B0280933A0280EC90E090933D02DC
:1047F00080933C0281EC90E090933F0280933E02D4
:1048000082EC90E0909341028093400286EC90E02D
:104810009093430280934202109245021092460206
:1048200010924702109248028DED92E09093D002D0
:104830008093CF029093D2028093D1028DE593E0D2
:104840009093D4028093D3029093D6028093D502A2
:104850001092D7028091DC0280788093DC02109263
:10486000C9021092CA021092CB021092CC0282E3CB
:1048700090E09093CE028093CD02CEEED2E0D09322
:10488000A603C093A50360E082E00E94660FEEE4F9
:10489000F1E0E491E0939703EAE3F1E0E491F0E0E2
:1048A000EE0FFF1FE25DFE4F859194919093990367
:1048B000809398031092A2031092A4031092A30372
:1048C0001092A10387E0EAE9F3E0DF011D928A95E7
:1048D000E9F710928A03109289031092750387E911
:1048E00093E090937E0380937D0310927B0310925C
:1048F0007C031092740389E08093770381E08093B6
:1049000078038093790380937A0310926E03109258
:104910006F031092700310927103D0937303C093CE
:10492000720380E180935D0380E490E00E94B626EC
:104930009C019093650380936403892B09F453C011
:1049400010925E0310925F03109260031092610355
:10495000109262031092630380E090E0A0ECBFE746
:104960008093660390936703A0936803B0936903F1
:1049700080936A0390936B03A0936C03B0936D03D1
:1049800090E19150F901B4E09B9FE00DF11D1124DD
:1049900010821182128213829111F3CF10928B0335
:1049A00010928C0310928D0310928E038AE090E097
:1049B0009093900380938F0360910601709107019B
:1049C00080E197E20E9416251092910310929203C3
:1049D000109293031092940370939603609395033F
:1049E000DF91CF91089510925D0310925E031092B3
:1049F0005F031092600310926103109262031092A1
:104A0000630380E090E0A0ECBFE78093660390939F
:104A10006703A0936803B093690380936A0390933C
:104A20006B03A0936C03B0936D03B8CF97FB072E75
:104A300016F4009407D077FD09D00E944F2507FC9B
:104A400005D03EF4909581959F4F0895709561959E
:104A50007F4F0895052E97FB1EF400940E94412578
:104A600057FD07D00E94632507FC03D04EF40C9439
:104A7000412550954095309521953F4F4F4F5F4FC1
:104A8000089590958095709561957F4F8F4F9F4FBA
:104A90000895EE0FFF1F0590F491E02D0994AA1BD5
:104AA000BB1B51E107C0AA1FBB1FA617B70710F019
:104AB000A61BB70B881F991F5A95A9F7809590954B
:104AC000BC01CD010895A1E21A2EAA1BBB1BFD015A
:104AD0000DC0AA1FBB1FEE1FFF1FA217B307E407DD
:104AE000F50720F0A21BB30BE40BF50B661F771F35
:104AF000881F991F1A9469F7609570958095909515
:104B00009B01AC01BD01CF0108950E948C256894E2
:104B1000B1110C941B2608950E94002688F09F571F
:104B200098F0B92F9927B751B0F0E1F0660F771FD1
:104B3000881F991F1AF0BA95C9F714C0B13091F0C7
:104B40000E941A26B1E008950C941A26672F782F38
:104B50008827B85F39F0B93FCCF38695779567958C
:104B6000B395D9F73EF490958095709561957F4FF8
:104B70008F4F9F4F0895E89409C097FB3EF490959E
:104B80008095709561957F4F8F4F9F4F9923A9F026
:104B9000F92F96E9BB279395F695879577956795B5
:104BA000B795F111F8CFFAF4BB0F11F460FF1BC0F9
:104BB0006F5F7F4F8F4F9F4F16C0882311F096E98C
:104BC00011C0772321F09EE8872F762F05C066233A
:104BD00071F096E8862F70E060E02AF09A95660FF3
:104BE000771F881FDAF7880F9695879597F90895AC
:104BF00057FD9058440F551F59F05F3F71F047958E
:104C0000880F97FB991F61F09F3F79F08795089572
:104C1000121613061406551FF2CF4695F1DF08C091
:104C2000161617061806991FF1CF869571056105AE
:104C300008940895E894BB2766277727CB0197F956
:104C400008950E9434260C94A5260E94972638F0D9
:104C50000E949E2620F0952311F00C948E260C9431
:104C6000942611240C941B260E94F82570F3959F1E
:104C7000C1F3950F50E0551F629FF001729FBB2753
:104C8000F00DB11D639FAA27F00DB11DAA1F649FEF
:104C90006627B00DA11D661F829F2227B00DA11DA2
:104CA000621F739FB00DA11D621F839FA00D611D28
:104CB000221F749F3327A00D611D231F849F600D49
:104CC000211D822F762F6A2F11249F5750409AF072
:104CD000F1F088234AF0EE0FFF1FBB1F661F771FFE
:104CE000881F91505040A9F79E3F510580F00C94C9
:104CF0008E260C941B265F3FE4F3983ED4F38695F2
:104D000077956795B795F795E7959F5FC1F7FE2B68
:104D1000880F911D9695879597F9089597F99F6744
:104D200080E870E060E008959FEF80EC0895002433
:104D30000A941616170618060906089500240A9400
:104D400012161306140605060895092E0394000C86
:104D500011F4882352F0BB0F40F4BF2B11F460FF15
:104D600004C06F5F7F4F8F4F9F4F08950F931F9326
:104D7000CF93DF938230910510F482E090E0E091D0
:104D8000A903F091AA0320E030E0A0E0B0E0309762
:104D900019F1408151810281138148175907C8F0E8
:104DA0008417950769F4109731F012960C931297B7
:104DB00013961C9327C00093A9031093AA0322C043
:104DC0002115310519F04217530718F49A01BD0156
:104DD000EF01DF01F801DBCF21153105F9F0281BC8
:104DE000390B2430310580F48A819B81611571056E
:104DF00021F0FB019383828304C09093AA038093E4
:104E0000A903FE01329644C0FE01E20FF31F819315
:104E1000919322503109398328833AC02091A70306
:104E20003091A803232B41F420910A0130910B010A
:104E30003093A8032093A703209108013091090122
:104E40002115310541F42DB73EB740910C01509129
:104E50000D01241B350BE091A703F091A803E21785
:104E6000F307A0F42E1B3F0B2817390778F0AC018D
:104E70004E5F5F4F2417350748F04E0F5F1F50936A
:104E8000A8034093A7038193919302C0E0E0F0E070
:104E9000CF01DF91CF911F910F910895CF93DF93B1
:104EA000009709F481C0FC01329713821282A0910D
:104EB000A903B091AA03109781F420813181820F58
:104EC000931F2091A7033091A8032817390751F5A4
:104ED000F093A803E093A70367C0ED0120E030E062
:104EE000CE17DF0740F44A815B819E0141155105D1
:104EF000F1F0EA01F5CFD383C28340815181840F61
:104F0000951FC817D90759F488819981840F951F77
:104F10000296918380838A819B819383828321156A
:104F2000310529F4F093AA03E093A9033DC0E901F8
:104F3000FB83EA8349915991C40FD51FEC17FD07F4
:104F400061F480819181840F951F0296E901998314
:104F50008883828193819B838A83E0E0F0E01296CC
:104F60008D919C911397009719F0FD01DC01F7CF0B
:104F70008D919C9111979D012E5F3F4F820F931F42
:104F80002091A7033091A8032817390769F43097B7
:104F900029F41092AA031092A90302C0138212826C
:104FA000B093A803A093A703DF91CF91089581E068
:104FB00090E0F8940C94E527FB01DC018D910190C1
:104FC00080190110D9F3990B089510E0C1EBD0E0DE
:104FD00004C0FE010E9449252196C23BD107C9F7B2
:044FE000F894FFCF73
:104FE400000000404000C8000000AB0320003F5F09
:104FF4007F01004000C8000000004003002000C8FA
:1050040000000000400700200064000000803F0D05
:10501400000800C800000000400E000800960000D0
:1050240000C03F0F00080078009A99993F320008A9
:105034000064000000803F5E00BC007701000000B7
:1050440000DC0041014A02F701D7015C0270020C46
:10505400007073754D6F6465007468726F74746C5E
:105064006550657263656E74006475747950657219
:1050740063656E740070776D4672657175656E63F5
:10508400790074656D704300736F75726365566F54
:105094006C746167650070776D43757272656E74C8
:1050A40000706F7765724368616E676500766F6C38
:1050B400746167654368616E6765006D6464537409
:1050C40061747573006F6370537461747573006FEA
:0E50D400767053746174757300454F4D0A0079
:00000001FF
