:100000000C94B2000C9438170C9411170C94DA006D
:100010000C94DA000C94DA000C94DA000C94DA00F8
:100020000C94DA000C94DA000C94DA000C94DA00E8
:100030000C94DA000C94DA000C94DA000C94DA00D8
:100040000C9453130C94DA000C949B170C945F17C8
:100050000C94DA000C94DA000C94DA000C94DA00B8
:100060000C94DA000C94DA00110911092809280906
:10007000130A9208C8099208610A9208280A92088D
:1000800092089208920892089208920892089208A0
:100090009208920892089208920892089208920890
:1000A00092089208B50A920892089208920892085B
:1000B0009208920892089208920892089208920870
:1000C0009208920892089208920892089208920860
:1000D0009208920892089208920892089208920850
:1000E00092089208BE0800000000240027002A00A1
:1000F00000000000250028002B000000000800027E
:100100000100000304070000000000000000005E82
:10011000BCE2613FDD83C29C7E20A3FD1F41009DA8
:1001200023BE46DB65F88C11AF32CA57E974000074
:10013000000023002600290004040404040404042D
:100140000202020202020303030303030102040882
:100150001020408001020408102001020408102031
:10016000EC27E32711241FBECFEFD8E0DEBFCDBFC1
:1001700012E0A0E0B1E0EAE0FAE502C005900D92DD
:10018000AA33B107D9F723E0AAE3B2E001C01D9278
:10019000AB3FB207E1F710E0C1EBD0E004C021971C
:1001A000FE010E944F29C03BD107C9F70E94BD182C
:1001B0000C94F82C0C9400002F923F924F925F9277
:1001C0006F927F928F929F92AF92BF92CF92DF9267
:1001D000EF92FF920F931F93CF93DF93CDB7DEB7CC
:1001E00061970FB6F894DEBF0FBECDBF61E083E02C
:1001F0000E94141361E08BE00E94141361E08CE014
:100200000E94141361E08DE00E94141360E08EE000
:100210000E94141360E08FE00E94141360E081E1FB
:100220000E94141360E083E00E94BE1260E08BE045
:100230000E94BE1261E08CE00E94BE1260E08DE080
:100240000E94BE12E0919402F091950282E08083B8
:10025000E0919002F09191021082E0919202F0916F
:10026000930283E0808310929C02E0919802F091C7
:10027000990286E08083E0919602F0919702808156
:1002800080618083E0919602F0919702808188607E
:100290008083E0919602F09197028081806880834C
:1002A000E0919602F091970280818F7D808380910A
:1002B0002E03982F9F7761F48078806280932E03BD
:1002C00010922B0310922A0310922D0310922C03EC
:1002D00085FF32C000912A0310912B0313C06115D2
:1002E000710531F081E392E00E94EF2C892BB9F087
:1002F000F8018581882309F4EEC5E8E08E02000D3F
:10030000111D11240115110509F4E5C5D801169632
:100310006D917C911797B2E061337B0701F7F8018B
:10032000848180788860848381E090E0A0E0B0E000
:1003300080839183A283B383E091CF03F091D003B4
:100340001386158614861286339687E0DF011D9288
:100350008A95E9F71092CD031092CE0333E0E32E95
:10036000F12C47E0842E912C53E2652E712C6FEC1A
:10037000462E512C0BE717E03324339493E1A92E3A
:10038000BB24B39423E6C22E26E0D22E75C02A8564
:10039000E22FEF70F0E0E25FFE4F9491E22FE295E2
:1003A000EF70F0E0E25EFE4FE491E9279B858E2F2F
:1003B0008927E82FEF70F0E0E25FFE4F949182957D
:1003C0008F70E82FF0E0E25EFE4FE4919E278C856F
:1003D0009827E92FEF70F0E0E25FFE4F849192954D
:1003E0009F70E92FF0E0E25EFE4FE4918E279D853D
:1003F0008927E82FEF70F0E0E25FFE4F949182953D
:100400008F70E82FF0E0E25EFE4FE491E9278E85E1
:100410008E27E82FEF70F0E0E25FFE4F9491E82F17
:10042000E295EF70F0E0E25EFE4FE491E9278F8500
:100430009E2F9827E92FEF70F0E0E25FFE4F849146
:1004400092959F70E92FF0E0E25EFE4FE4918E27D7
:1004500098898927E82FEF70F0E0E25FFE4F9491D2
:1004600082958F70E82FF0E0E25EFE4FE491E9277D
:100470008989E81709F480C2BE01665F7F4F8091C9
:10048000CF039091D0030E941514811180CF8CE08E
:100490008093C9038091CD03882309F44BC1712C4B
:1004A0002E01B1E14B0E511CB3E28B2E912C17EDB6
:1004B000A12EB12CCC24CA94D12C8FE0E82EF12CA3
:1004C000E091CF03F091D00313861586148612862F
:1004D000118610861782168215821482138210E00C
:1004E000BE01665F7F4F8091CF039091D0030E9441
:1004F0001514811132C28A85803109F415C1109119
:10050000C903BE016F5F7F4FCE010A96193008F410
:100510002CC20E948A0E882309F406C11D3008F0FF
:100520001CE01A50133008F025C2E12FF0E0EF591B
:10053000FE4F80819D81981709F4F6C08D83E0916C
:10054000CF03F091D00350810180F281E02DF89427
:100550008181652F60958623818378944CE723E021
:1005600030E002C0415001F1C9010197F1F78081EB
:100570008523C1F3F8948281862382838181582B5D
:10058000518378948BE797E00197F1F7F894818194
:100590006823618383E191E00197F1F7808178948A
:1005A00083E696E00197F1F70091CF031091D00315
:1005B00065E5C8010E949D13FE013A961F01BE0128
:1005C0006E5E7F4FD1015D911D0188E090E041E0BA
:1005D0001BC0F80160800180F281E02DF894228137
:1005E000362D309523232283218126292183D4018E
:1005F0001197F1F72281622A62827894F50131978E
:10060000F1F7440F0197F9F0242F252311F7D801B2
:100610006C901196ED91FC911297F8942281362DF1
:10062000309523232283218126292183D601119706
:10063000F1F72281262922837894F7013197F1F787
:10064000440F019709F7F894D8011196ED91FC91A8
:10065000129791818C918095892381831196ED91D8
:10066000FC91129792818C91809589238283789452
:100670006215730509F0A6CF6EE48091CF039091C7
:10068000D0030E949D136B818091CF039091D00382
:100690000E949D136C818091CF039091D0030E94A2
:1006A0009D138A85803139F06D818091CF039091BF
:1006B000D0030E949D138091CC03E091CF03F09171
:1006C000D00350810180F281E02D81118EC1F89418
:1006D0008181652F60958623818378944CE723E0A0
:1006E00030E002C0415001F1C9010197F1F780816A
:1006F0008523C1F3F8948281862382838181582BDC
:10070000518378948BE797E00197F1F7F894818112
:100710006823618383E191E00197F1F78081789408
:1007200083E696E00197F1F773948091CD037816F4
:1007300008F4C6CE1092CA03E091CF03F091D00323
:1007400030810180F281E02DF8948181632F6095E2
:100750008623818378942CE743E050E002C0215047
:1007600001F1CA010197F1F780818323C1F3F89465
:100770008281862382838181382B318378948BE731
:1007800097E00197F1F7F89481816823618383E111
:1007900091E00197F1F78081789483E696E00197E4
:1007A000F1F76CEC8091CF039091D0030E949D13E0
:1007B000C090C6038090CF039090D00388E090E073
:1007C00021E06FEF70E04FE050E003E2E02EF12C0B
:1007D00007ED10E01BC0F401D0800180F281E02D14
:1007E000F8943281BD2CB0943B21328331813D2974
:1007F0003183D7011197F1F732813D293283789403
:10080000F8013197F1F7220F0197F1F0322F34748C
:1008100011F7F401D0800180F281E02DF89432814B
:10082000BD2CB0943B21328331813D293183DB01E2
:100830001197F1F732813D2932837894FA0131978B
:10084000F1F7220F019711F7C11015C0F894D401E8
:100850001196ED91FC91129791818C91809589234D
:1008600081831196ED91FC91129792818C918095E4
:100870008923828378948091CA038111D7C180E44F
:1008800080937C0080917A00806480937A008091CC
:100890007A0086FDFCCF80917800809179001092DB
:1008A0003F0210923E0240E440937C0080917A0027
:1008B000806480937A0080917A0086FDFCCF8091DD
:1008C00078002091790090E0922B209140023091A5
:1008D0004102820F931F9093410280934002209126
:1008E0003E0230913F022F5F3F4F30933F022093F3
:1008F0003E0225303105C4F265E070E00E941C29FB
:10090000709341026093400262E082E00E941413FF
:1009100087E498E190931101809310018091690020
:10092000836080936900E89A61960FB6F894DEBF01
:100930000FBECDBFDF91CF911F910F91FF90EF9030
:10094000DF90CF90BF90AF909F908F907F906F90EF
:100950005F904F903F902F900895711609F491C3C6
:100960001F5F711608F4C7CDBBCD0E948A0E882385
:1009700009F4DACE8FE1DECD8091CD038F5F8093D5
:10098000CD03283239F008F44AC12B3319F0223450
:1009900009F072CD8091CE038F5F8093CE0380915A
:1009A000C603882309F4D3C22031B1F0BE016F5FC2
:1009B0007F4FCE010A960E948A0E882309F45BC3FA
:1009C0008D818F3309F481C308F483C38F3509F413
:1009D0007EC38F3709F04FC38CE09091C9039817FD
:1009E00008F04ACD8093C903C7CCF8948181652F64
:1009F00060958623818378944CE723E030E003C040
:100A0000415009F491CEC9010197F1F78081852306
:100A1000B9F3F8948281862382838181852B818337
:100A200078948BE797E00197F1F7F8948181682338
:100A3000618383E191E00197F1F780817894E3E6A7
:100A4000F6E03197F1F7582309F06ECEBE01665FEC
:100A50007F4F8091CF039091D0030E94CD1760917A
:100A6000C6030091CF031091D00388E090E041E0ED
:100A70001CC0D8015C911196ED91FC911297F894ED
:100A80002281352F3095232322832181252B218319
:100A9000D4011197F1F72281252B22837894F50157
:100AA0003197F1F7440F0197F1F0242F287409F7DB
:100AB000F80150810180F281E02DF8942281352FD8
:100AC0003095232322832181252B2183D601119761
:100AD000F1F72281252B22837894F7013197F1F7E2
:100AE000440F019711F7611115C0F894D8011196C0
:100AF000ED91FC91129781819C919095892381833E
:100B00001196ED91FC91129782819C919095892389
:100B1000828378948091C603882309F468C1809108
:100B2000C7038111D2C19FB7F89440917B025091C5
:100B30007C0260917D0270917E0286B5A89905C104
:100B40009FBF762F652F542F4427480F511D611DDD
:100B5000711D440F551F661F771F440F551F661FD9
:100B6000771F04E110E020E030E0FFB7F8948091B7
:100B70007B0290917C02A0917D02B0917E02E6B54D
:100B8000A89B05C0EF3F19F00196A11DB11DFFBF45
:100B9000BA2FA92F982F88278E0F911DA11DB11D47
:100BA000880F991FAA1FBB1F880F991FAA1FBB1F61
:100BB000841B950BA60BB70B883E9340A105B1058E
:100BC000A0F2015011092109310948515C4F6F4FC2
:100BD0007F4F011511052105310539F68091C703B5
:100BE000811167C1E091CF03F091D0035081018062
:100BF000F281E02DF8948181652F609586238183B1
:100C000078944CE723E030E003C0415009F48CCDE8
:100C1000C9010197F1F780818523B9F36BCD2031AC
:100C200009F4B8CE223209F027CCB4CEE091C90342
:100C30008091CB03882329F08091C603882309F48F
:100C40008CC0E950E33008F07DC0F0E0EE0FFF1FEC
:100C5000EC59FE4F808191816C01990FEE08FF08DD
:100C60008091C70381112BC19FB7F89440917B02FB
:100C700050917C0260917D0270917E0286B5A89BA6
:100C800006C08F3F21F04F5F5F4F6F4F7F4F9FBF79
:100C9000762F652F542F4427480F511D611D711D5C
:100CA000440F551F661F771F440F551F661F771F80
:100CB000C114D104E104F104D1F13FB7F89480915B
:100CC0007B0290917C02A0917D02B0917E0226B5BC
:100CD000A89B05C02F3F19F00196A11DB11D3FBF74
:100CE000BA2FA92F982F8827820F911DA11DB11D02
:100CF000880F991FAA1FBB1F880F991FAA1FBB1F10
:100D0000841B950BA60BB70B883E9340A105B1053C
:100D1000A0F2E1E0CE1AD108E108F10848515C4F99
:100D20006F4F7F4FC114D104E104F10431F680917B
:100D3000C703882309F4A3CD61E08091C8030E9412
:100D4000BE129DCD8EEE92E087CF8F3F09F4F8CE94
:100D50004F5F5F4F6F4F7F4FF3CE8FB7F894C090C8
:100D60007F02D0908002E0908102F09082028FBFDB
:100D700017E0A12EB12C63E270E04FEC50E0E0915F
:100D8000CF03F091D00390810180F281E02DF8949F
:100D90008181892B81832281892F80952823228339
:100DA000D5011197F1F7218182238183DB0111970E
:100DB000F1F780817894FA013197F1F7892309F0EE
:100DC0005ECD8FB7F89400917F0210918002209140
:100DD0008102309182028FBF0C191D092E093F0933
:100DE0000E3E12402105310508F4C9CF48CD9FB70A
:100DF000F89440917B0250917C0260917D02709149
:100E00007E0286B5A89B06C08F3F21F04F5F5F4FE3
:100E10006F4F7F4F9FBF762F652F542F4427480F6A
:100E2000511D611D711D440F551F661F771F440F13
:100E3000551F661F771F04E110E020E030E0FFB788
:100E4000F89480917B0290917C02A0917D02B091F8
:100E50007E02E6B5A89B05C0EF3F19F00196A11DE3
:100E6000B11DFFBFBA2FA92F982F88278E0F911D74
:100E7000A11DB11D880F991FAA1FBB1F880F991FA5
:100E8000AA1FBB1F841B950BA60BB70B883E934074
:100E9000A105B105A0F201501109210931094851FC
:100EA0005C4F6F4F7F4F011511052105310539F654
:100EB00099CE61E08091C8030E94BE1293CE60E09B
:100EC0008091C8030E94BE12CFCE60E08091C8031B
:100ED0000E94BE1228CE8091250390912603209176
:100EE000230330912403285F3F4F8217930720F498
:100EF00081E08093290320CAFC013897F0932603F0
:100F0000E0932503309709F417CAA0912C03B09100
:100F10002D03109709F4D0C09F012A1B3B0B359578
:100F20002795359527953595279515962C93F0930C
:100F30002D03E0932C0315821482DC01129721E328
:100F400032E02D933C93309709F0EAC9F5C9E0915E
:100F5000CF03F091D00320810180F281E02DF8943D
:100F60009181822F80959823918378949CE702C089
:100F70009150E9F0D7011197F1F730813223C1F395
:100F8000F8949281982392839181922B9183789403
:100F9000D8011197F1F7F894918189238183C501D4
:100FA0000197F1F780817894C6010197F1F7BE01AE
:100FB000665F7F4F8091CF039091D0030E94CD1741
:100FC00064EB8091CF039091D0030E949D13E09138
:100FD000CF03F091D00390810180F281E02DF8944D
:100FE0008181892B81832281892F809528232283E7
:100FF000D4011197F1F7218182238183D3011197C5
:10100000F1F7808198237894F2013197F1F7E0911C
:10101000CF03F091D00330810180F281E02DF8946C
:101020002181832F80952823218378942CE702C087
:101030002150E9F0D7011197F1F740814323C1F323
:10104000F8942281282322832181232B21837894E1
:10105000D8011197F1F7F894218182238183D5017A
:101060001197F1F780817894F6013197F1F7992380
:1010700021F02A8599CC80E0B0CC3092C6032A8535
:1010800093CCDE011A9680E09D918927E82FEF70BE
:10109000F0E0E25FFE4F9491E82FE295EF70F0E010
:1010A000E25EFE4FE491892F8E27A415B50561F706
:1010B0009989981355CC1FCAF0932B03E0932A0308
:1010C000F0932D03E0932C0336CF8AE086CC8BE09F
:1010D00084CC8F3181F689E080CC5F926F927F92D1
:1010E0008F929F92AF92BF92CF92DF92EF92FF9238
:1010F0000F931F93CF93DF93CDB7DEB76E970FB6E5
:10110000F894DEBF0FBECDBF8C015B01DC011496ED
:101110008C91E82FEF778E2F90E0FC013297EF3320
:10112000F10540F1D5018D919C91DC01ED91FC918F
:101130000190F081E02D60EC0995F5012281338169
:10114000820F931F938382836E960FB6F894DEBF4F
:101150000FBECDBFDF91CF911F910F91FF90EF9008
:10116000DF90CF90BF90AF909F908F907F906F90C7
:101170005F900895EC5CFF4F0C944F29F801A0811B
:10118000B181109709F472C5FD01E12CF12C2FEF0C
:10119000E21AF20A8581811159C3E0E1EE16F104E9
:1011A00008F061C360E070E06F5F7F4F15968C912F
:1011B0001597882339F0F8E08F02A00DB11D112496
:1011C000109791F76057D5018D919C91DC01ED91BD
:1011D000FC910190F081E02D0995F5012281338188
:1011E000820F931F93838283D8010D911C91011567
:1011F000110509F4A9CFB501C8010E946D08F801D5
:101200008581882341F0B8E08B02000D111D112467
:101210000115110581F7D50112968D919C911397B7
:1012200093CFDB018D919C91F801428153816081C4
:101230007181DC01ED91FC910280F381E02D099533
:10124000F50122813381820F931F938382837CCFA8
:10125000D8018D909C90F40101900020E9F731971E
:101260006F01C818D908B0E2CB16D10408F464C4E1
:10127000DB018D919C91DC01FFEFCF16D10409F0C9
:1012800008F4ECC3ED91FC910190F081E02D6AED42
:101290000995F50122813381820F931F9383828305
:1012A000DA8AC98A8A89898BCA8A80819181DC011C
:1012B000ED91FC910280F381E02DB5E1EE3BFB075F
:1012C00009F0D6C4BE016F5E7F4F0E940911F5017F
:1012D00022813381280F391F33832283D5010D9159
:1012E0001C91F801A081B1811296ED91FC911397A8
:1012F00085E1EE3BF80709F015C4C114D10409F4E7
:10130000F8C4E12CF12C77247394ED91FC91D40175
:101310006D914D01B5E1E935FB0709F05EC3F801B8
:10132000708E938D848D981709F43FC3F801238D37
:1013300030E02F5F3F4F2F733327922F03C00FB63C
:1013400007FEC2C2D8015C968C915C979817B9F3DE
:10135000F801838DE80FF11DE35AFF4F60839FB7BB
:10136000F894D8015B962C935B975296ED91FC9183
:1013700053978081806280839FBFFFEFEF1AFF0A3F
:10138000CE14DF0409F45CC3F801A081B181BDCFA4
:10139000D801CD90DD90ED90FC90B0E8CB16D10453
:1013A000E104F10408F4DCC3DB018D919C91DC01C4
:1013B000FFEFCF16D104E104F10409F008F4E5C30E
:1013C000C114D104F1E0EF06F10408F47EC3ED91FD
:1013D000FC910190F081E02D6EEC0995F5012281E0
:1013E0003381820F931F93838283C982DA82EB82D7
:1013F000FC828C818983CC828A819B819A838B83B6
:1014000080819181DC01ED91FC910280F381E02DDE
:10141000B5E1EE3BFB0709F01AC3BE016F5F7F4FDA
:101420000E9493118ACEF80180819181A281B381BB
:10143000892B8A2B8B2B09F001C362ECD5018D918E
:101440009C91DC01ED91FC910190F081E02D74CE36
:10145000F801F080D180E2801381DB018D919C91B5
:10146000DC01ED91FC910190F081E02D6AEC099591
:10147000F50122813381820F931F938382838F2D05
:101480009D2DAE2DB12F89879A87AB87BC878C8520
:101490008987FC868A859B859A878B878081918145
:1014A000DC01ED91FC910280F381E02DB5E1EE3B92
:1014B000FB0709F030C3BE01675F7F4F0E949311A5
:1014C0003CCEF80180819181A281B381CC24DD24BE
:1014D0007601C81AD90AEA0AFB0A81329105A105E8
:1014E000B10508F4DDC281389105A105B10508F404
:1014F00098C38130F0E89F07A105B10508F467C3E0
:101500000197A105B04808F086CEFB01808191814A
:10151000DC01ED91FC910190F081E02D62ED0995E7
:10152000F50122813381820F931F93838283CD82C1
:10153000DE82EF82F88688858D83C8868E819F81C2
:101540009E838F8380819181DC01ED91FC910280EB
:10155000F381E02DB5E1EE3BFB0709F0BCC3BE0112
:101560006B5F7F4F0E949311E8CDD801ED91FC9104
:10157000309709F48BC3E12CF12CBFEFEB1AFB0A77
:101580008581811150C180E1E816F10408F442C25E
:10159000D5018D919C91DC01ED91FC910190F08140
:1015A000E02D6EED0995F50122813381820F931FA5
:1015B00093838283FE8AED8A8E898D8BEE8A808169
:1015C0009181DC01ED91FC910280F381E02DB5E188
:1015D000EE3BFB0709F053C3BE016B5E7F4F0E94D9
:1015E0000911F50122813381820F931F9383828336
:1015F000D8016D907C906114710409F4A5CD552437
:101600005394F301C680D780F60101900020E9F7DA
:1016100031974F018C189D08D5018D919C91DC016B
:10162000F0E28F16910408F4A5C1FFEF8F16910424
:1016300009F008F47DC1ED91FC910190F081E02D5D
:101640006AED0995F50122813381820F931F9383FF
:1016500082839C8A8B8A8C898B8B8C8A80819181F6
:10166000DC01ED91FC910280F381E02DB5E1EE3BD0
:10167000FB0709F0C1C1BE016D5E7F4F0E940911D9
:10168000F50122813381820F931F93838283D501D9
:101690000D911C91F801A081B1811296ED91FC9100
:1016A000139725E1EE3BF20709F074C1E12CF12C10
:1016B0008114910409F4A5C0ED91FC91D6016D91BE
:1016C0006D01B5E1E935FB0709F093C0F801508ED3
:1016D000938D848D981709F467C0D8015B962C917F
:1016E00030E02F5F3F4F2F733327922F03C00FB689
:1016F00007FE26C0D8015C968C915C979817B9F3C9
:10170000F801838DE80FF11DE35AFF4F60839FB707
:10171000F894D8015B962C935B975296ED91FC91CF
:1017200053978081806280839FBFBFEFEB1AFB0AD3
:101730008E149F0409F456C0F801A081B181BCCF7A
:101740005096ED91FC915197808185FFD3CF5C96A7
:101750008C915C97F801E80FF11DE35AFF4F8081EF
:10176000F801448D50E04F5F5F4F4F735527448F12
:101770000688F789E02D80835096ED91FC91519772
:1017800080818370806480835B964C915B975C96CC
:101790008C915C974813AECF5296ED91FC91539784
:1017A00080818F7D8083A6CF0088F189E02D8081A4
:1017B00085FF93CF9FB7F894D8015696ED91FC9191
:1017C000579760835096ED91FC915197808183707B
:1017D000806480839FBFBFEFEB1AFB0A8E149F04C7
:1017E00009F0AACFD50112968D919C91139774019F
:1017F00008C0C8010995892B09F097CFF5018281AE
:101800009381E80EF91EF501F382E282B501C3016E
:101810000E946D08D30115968C9181110DC0F501C0
:101820008281938191CC28E08202E00DF11D112488
:10183000309709F0A2CEA7CEF8E08F02600C711CA1
:1018400011246114710409F0DCCEE9CF98E089021B
:10185000E00DF11D1124309709F099CC20E1E2163A
:10186000F10408F49FCCD5018D919C91DC01ED91A0
:10187000FC910190F081E02D6CED0995F50122813C
:101880003381820F931F93838283F88EEF8A888D32
:101890008F8BE88E80819181DC01ED91FC9102803B
:1018A000F381E02DB5E1EE3BFB0709F01BC2BE0161
:1018B000695E7F4F0E940911F50122813381820FF9
:1018C000931F9383828390CC5096ED91FC91519716
:1018D000808185FF37CD5C968C915C97F801E80F8D
:1018E000F11DE35AFF4F8081F801448D50E04F5FB6
:1018F0005F4F4F735527448F0688F789E02D80830B
:101900005096ED91FC915197808183708064808323
:101910005B964C915B975C968C915C97481312CDCB
:101920005296ED91FC91539780818F7D80830ACDF3
:10193000ED91FC910190F081E02D69ED0995F501A3
:1019400022813381820F931F938382838E8E8081C5
:101950009181DC01ED91FC910280F381E02DB5E1F4
:10196000EE3BFB0709F04FC0BE01625E7F4F0E9455
:101970001D1286CEED91FC910190F081E02D60EA80
:10198000680D0995F501E280F3808E0D9F1D93830C
:1019900082837DCEA401B601C80109957C01D501E1
:1019A00012968D919C9113972CCF0088F189E02D90
:1019B000808185FFBBCC9FB7F894D8015696ED91F6
:1019C000FC91579760835096ED91FC9151978081DF
:1019D0008370806480839FBFD0CCC8010995892B18
:1019E00009F0CBCCF50122813381C701820F931F0F
:1019F000F50193838283A8CB42E050E0BE016D5E87
:101A00007F4F09953DCE41E050E0BE01625E7F4FC1
:101A1000099536CE60E86E0DD5018D919C91DC0163
:101A2000ED91FC910190F081E02D0995F501228165
:101A30003381820F931F93838283DACD63ECFECCD4
:101A4000D50112962D913C911397C601CFCF44E05A
:101A500050E0BE016F5F7F4F09956FCBED91FC9118
:101A60000190F081E02D69ED0995F5012281338126
:101A7000820F931F93838283CD8E80819181DC01BD
:101A8000ED91FC910280F381E02DB5E1EE3BFB0787
:101A900009F005C1BE01635E7F4F0E941D1217CC85
:101AA000CB8EDB018D919C91DC01ED91FC9102804C
:101AB000F381E02DB5E1EE3BFB0709F01DC1BE014E
:101AC000655E7F4F0E941D1238CBED91FC91019015
:101AD000F081E02D6DEC0995F50122813381820FB3
:101AE000931F93838283DE86CD868E858D87CE86F7
:101AF00080819181DC01ED91FC910280F381E02DE8
:101B0000B5E1EE3BFB0709F0C3C0BE01635F7F4F49
:101B10000E94091112CB44E050E0BE01675F7F4F85
:101B200009950BCBA601B401C8010995D501129600
:101B30002D913C9113975ACFFB0180819181DC015B
:101B4000ED91FC910190F081E02D60EA6C0D09951A
:101B5000F50122813381280F391F33832283BECBC5
:101B6000C98EFB0180819181DC01ED91FC910280A5
:101B7000F381E02DB5E1EE3BFB0709F0C4C0BE01E7
:101B8000675E7F4F0E941D12D8CAED91FC910190B3
:101B9000F081E02D6CEC0995F50122813381820FF3
:101BA000931F93838283CA8E80819181DC01ED91A2
:101BB000FC910280F381E02DB5E1EE3BFB0709F0DB
:101BC0007CC0BE01665E7F4F0E941D12B6CADB015B
:101BD0008D919C91DC01ED91FC910190F081E02DC3
:101BE00061ED0995F50122813381820F931F938363
:101BF0008283D88ACF8688898F87C88A808191819D
:101C0000DC01ED91FC910280F381E02DB5E1EE3B2A
:101C1000FB0709F04BC0BE01615F7F4F0E940911B5
:101C20008CCADB018D919C91DC01ED91FC910190BE
:101C3000F081E02D60ED0995F50122813381820F5D
:101C4000931F93838283CC8E80819181DC01ED91FF
:101C5000FC910280F381E02DB5E1EE3BFB07A1F59D
:101C6000BE01645E7F4F0E941D1267CA60E9ABCA65
:101C700042E050E0BE016F5E7F4F099528CB42E005
:101C800050E0BE016B5E7F4F0995ABCC60E8C4CEDF
:101C900042E050E0BE01635F7F4F09954ECA41E0CC
:101CA00050E0BE01635E7F4F099511CB42E050E0EA
:101CB000BE01615F7F4F099540CA41E050E0BE011F
:101CC000665E7F4F099539CA41E050E0BE01645E0F
:101CD0007F4F099532CA44E050E0BE016B5F7F4FF1
:101CE00009952BCA42E050E0BE01695E7F4F09951D
:101CF000E3CD80E090E07ACE41E050E0BE01655E49
:101D00007F4F09951ACA41E050E0BE01675E7F4FE0
:101D1000099513CA8F929F92AF92BF92CF92DF9292
:101D2000EF92FF920F931F93CF93DF938C01EB0100
:101D3000E091CF03F091D0033081A181B281F8947A
:101D400011969C911197732F7095972311969C93E0
:101D5000119778942CE743E050E002C0215071F1D4
:101D6000FA013197F1F79C919323C1F3F8941296FD
:101D70008C911297872312968C93129711968C91BF
:101D80001197832B11968C93119778948BE797E09A
:101D90000197F1F7F89411968C9111977823119689
:101DA0007C93119783E191E00197F1F78C917894FE
:101DB000E3E6F6E03197F1F7382371F080E0DF9148
:101DC000CF911F910F91FF90EF90DF90CF90BF9038
:101DD000AF909F908F9008954E01B8018091CF03EE
:101DE0009091D0030E94CD176EEB8091CF0390911C
:101DF000D0030E949D138E017E0189E0E80EF11C44
:101E0000A7E0B0E043E250E02FEC30E0E091CF03F8
:101E1000F091D0037081C181D281F8946981672BE0
:101E20006983DA80672F6095D622DA82CD01019727
:101E3000F1F7D9806D216983CA010197F1F7888193
:101E40007894E9012197F1F7972F9823AA24A39476
:101E5000911101C0A12CB080C181D281F8949981E7
:101E60009B299983DA806B2D6095D622DA82CD0189
:101E70000197F1F7D980962F9D219983CA01019787
:101E8000F1F798817894E9012197F1F79B2119F0F6
:101E90009A2D9260A92EB080C181D281F894998147
:101EA0009B299983DA806B2D6095D622DA82CD0149
:101EB0000197F1F7D980962F9D219983CA01019747
:101EC000F1F798817894E9012197F1F79B2119F0B6
:101ED0009A2D9460A92EB080C181D281F894998105
:101EE0009B299983DA806B2D6095D622DA82CD0109
:101EF0000197F1F7D980962F9D219983CA01019707
:101F0000F1F798817894E9012197F1F79B2119F075
:101F10009A2D9860A92EB080C181D281F8949981C0
:101F20009B299983DA806B2D6095D622DA82CD01C8
:101F30000197F1F7D980962F9D219983CA010197C6
:101F4000F1F798817894E9012197F1F79B2119F035
:101F50009A2D9061A92EB080C181D281F894998187
:101F60009B299983DA806B2D6095D622DA82CD0188
:101F70000197F1F7D980962F9D219983CA01019786
:101F8000F1F798817894E9012197F1F79B2119F0F5
:101F90009A2D9062A92EB080C181D281F894998146
:101FA0009B299983DA806B2D6095D622DA82CD0148
:101FB0000197F1F7D980962F9D219983CA01019746
:101FC000F1F798817894E9012197F1F79B2119F0B5
:101FD000DA2DD064AD2E60810180F281E02DF8947D
:101FE0009181962B91837281962F9095792372839C
:101FF000ED012197F1F7718197239183CA01019730
:10200000F1F790817894F9013197F1F7962319F05F
:102010009A2D9068A92EE801A9928E01CE15DF05B0
:1020200009F0F4CEE091CF03F091D003308101802C
:10203000F281E02DF8948181632F6095862381835E
:1020400078942CE743E050E003C0215009F4B6CE69
:10205000CA010197F1F780818323B9F3F894828153
:10206000862382838181832B818378948BE797E019
:102070000197F1F7F89481816823618383E191E00E
:102080000197F1F780817894E3E6F6E03197F1F774
:10209000382309F093CEF401A081A1119BC0E40183
:1020A00071817111A0C0F4014A81411195C0E40110
:1020B000638161119AC0F4012C8121119CC0E4015B
:1020C000558151119DC0F4019E8191119DC0E40183
:1020D000878181119CC03885332309F46FCEEA2FA4
:1020E000EF70F0E0E25FFE4FB491A295AF70EA2F7F
:1020F000F0E0E25EFE4FE491EB277E27E72FEF70E2
:10210000F0E0E25FFE4FA49172957F70E72FF0E060
:10211000E25EFE4FE491EA274E27E42FEF70F0E0F5
:10212000E25FFE4F749142954F70E42FF0E0E25E63
:10213000FE4FE491E7276E27E62FEF70F0E0E25FB5
:10214000FE4F449162956F70E62FF0E0E25EFE4F25
:10215000E491E4272E27E22FEF70F0E0E25FFE4FDC
:10216000449122952F70E22FF0E0E25EFE4FE49161
:10217000E4275E27E52FEF70F0E0E25FFE4F249149
:1021800052955F70E52FF0E0E25EFE4FE491E227AA
:102190009E27E92FEF70F0E0E25FFE4F24919295C9
:1021A0009F70E92FF0E0E25EFE4FE491E2278E2778
:1021B000E82FEF70F0E0E25FFE4F949182958F7010
:1021C000E82FF0E0E25EFE4FE491E92781E03E1364
:1021D000F5CDF5CD71814281638124815581968150
:1021E000878130857CCF428163812C815D819E8196
:1021F0008F81388574CF5D819E818F8138856FCFC7
:102200009681878130856BCF8F81388568CF308507
:1022100066CFDF92EF92FF920F931F93CF93DF93DE
:10222000EC017B0100E010E0DD24D394E881F9812A
:102230000190F081E02DD7016D917D01B5E1E93587
:10224000FB0709F06AC0D88E9B8D8C8D981709F416
:1022500052C02B8D30E02F5F3F4F2F733327922FCB
:1022600003C00FB607FE21C08C8D9817D1F38B8D5C
:10227000FE01E80FF11DE35AFF4F60839FB7F8940A
:102280002B8FEA89FB898081806280839FBF0F5FEB
:102290001F4F0230110551F6C801DF91CF911F91F8
:1022A0000F91FF90EF90DF900895E889F989808180
:1022B00085FFDACF8C8DFE01E80FF11DE35AFF4F49
:1022C00080814C8D50E04F5F5F4F4F7355274C8F8F
:1022D000EE89FF898083E889F98980818370806431
:1022E00080834B8D8C8D4813BFCFEA89FB89808119
:1022F0008F7D8083B9CFE889F989808185FFA9CF57
:102300009FB7F894EE89FF896083E889F989808115
:102310008370806480839FBFBACFCE010995892BDB
:1023200009F0B5CFB9CFDF92EF92FF920F931F93D1
:10233000CF93DF93EC017B0100E010E0DD24D39428
:10234000E881F9810190F081E02DD7016D917D0147
:10235000B5E1E935FB0709F06AC0D88E9B8D8C8DFD
:10236000981709F452C02B8D30E02F5F3F4F2F7329
:102370003327922F03C00FB607FE21C08C8D98170C
:10238000D1F38B8DFE01E80FF11DE35AFF4F6083FF
:102390009FB7F8942B8FEA89FB89808180628083C4
:1023A0009FBF0F5F1F4F0430110551F6C801DF9129
:1023B000CF911F910F91FF90EF90DF900895E889E2
:1023C000F989808185FFDACF8C8DFE01E80FF11D40
:1023D000E35AFF4F80814C8D50E04F5F5F4F4F734A
:1023E00055274C8FEE89FF898083E889F9898081A0
:1023F0008370806480834B8D8C8D4813BFCFEA89B6
:10240000FB8980818F7D8083B9CFE889F9898081BC
:1024100085FFA9CF9FB7F894EE89FF896083E8898B
:10242000F98980818370806480839FBFBACFCE0199
:102430000995892B09F0B5CFB9CFCF93DF93DC0194
:10244000ED91FC9111970190F081E02DEB016881F5
:10245000D5E1E935FD0709F08AC081E058968C93F3
:1024600058975B969C915B975C968C915C979817BC
:1024700009F465C05B962C915B9730E02F5F3F4F6E
:102480002F733327922F03C00FB607FE20C05C9630
:102490008C915C979817C1F35B968C915B97FD01CB
:1024A000E80FF11DE35AFF4F60839FB7F8945B96E6
:1024B0002C935B975296ED91FC91539780818062AB
:1024C00080839FBF81E090E0DF91CF910895509687
:1024D000ED91FC915197808185FFD9CF5C968C91CD
:1024E0005C97FD01E80FF11DE35AFF4F80815C9678
:1024F0004C915C9750E04F5F5F4F4F7355275C9650
:102500004C935C975696ED91FC915797808350962B
:10251000ED91FC91519780818370806480835B96FC
:102520004C915B975C968C915C974813B0CF529618
:10253000ED91FC91539780818F7D8083A8CF509639
:10254000ED91FC915197808185FF94CF9FB7F894CE
:102550005696ED91FC91579760835096ED91FC91C2
:10256000519780818370806480839FBFABCF099532
:10257000892B09F0A7CF80E090E0A6CF90E0FC0186
:10258000E650FF4F2491FC01E45BFE4F3491FC01C7
:10259000E85CFE4F84918823A1F0211118C0E82F38
:1025A000F0E0EE0FFF1FE051FF4FA591B4918FB700
:1025B000F894611107C09C91E32FE095E923EC9317
:1025C0008FBF0895EC91E32BEC938FBFFACF2330AC
:1025D00029F160F02730E1F02830A1F02430F9F63D
:1025E000909180009F7D90938000D9CF213031F071
:1025F0002230A9F694B59F7D94BDD1CF94B59F7735
:1026000094BDCDCF9091B0009F7D9093B000C7CF87
:102610009091B0009F779093B000C1CF90918000CF
:102620009F7790938000BBCFCF93DF9390E0FC0126
:10263000E45BFE4F2491FC01E85CFE4F849188230B
:10264000B9F090E0880F991FFC01EA51FF4FA59166
:10265000B491FC01E051FF4FC591D491662359F02C
:102660006230A9F08FB7F894EC91E22BEC938FBF16
:10267000DF91CF9108959FB7F8948C91E22FE09568
:102680008E238C932881E223E8839FBFF1CF9FB7ED
:10269000F8948C91322F309583238C93E881E22B30
:1026A000E8839FBFE5CF1F920F920FB60F921124C0
:1026B0002F933F938F939F93AF93BF9380917F020C
:1026C00090918002A0918102B091820230918302A8
:1026D00023E0230F2D3768F126E8230F0296A11D72
:1026E000B11D2093830280937F0290938002A09378
:1026F0008102B093820280917B0290917C02A09132
:102700007D02B0917E020196A11DB11D80937B02D6
:1027100090937C02A0937D02B0937E02BF91AF9113
:102720009F918F913F912F910F900FBE0F901F900F
:1027300018950196A11DB11DD4CF8F929F92AF9293
:10274000BF92CF92DF92EF92FF920F931F93CF939E
:10275000DF93DC0148E050E021E00FEF10E08FE074
:10276000882E912C93E2C92ED12C37EDE32EF12C3B
:102770001CC08C911196ED91FC911297F894928166
:10278000382F3095932392839181982B9183E60182
:102790002197F1F79281892B82837894C701019761
:1027A000F1F7220F41505109F9F0862F822309F7E2
:1027B0009C911196ED91FC911297F8948281392F9A
:1027C0003095832382838181892B8183E80121973E
:1027D000F1F78281982B92837894C4010197F1F7E5
:1027E000220F4150510909F7F8941196ED91FC918F
:1027F000129791818C918095892381831196ED9117
:10280000FC91129792818C91809589238283789490
:10281000DF91CF911F910F91FF90EF90DF90CF90BC
:10282000BF90AF909F908F9008952F923F924F92BC
:102830005F926F927F928F929F92AF92BF92CF9250
:10284000DF92EF92FF920F931F93CF93DF93EC01F0
:102850008B018D858823B9F01B861D861C8680E040
:10286000DF91CF911F910F91FF90EF90DF90CF906C
:10287000BF90AF909F908F907F906F905F904F90A0
:102880003F902F9008953881E981FA81F8948181F1
:10289000632F60958623818378942CE743E050E092
:1028A00002C02150C9F2CA010197F1F78081832348
:1028B000C1F3F8948281862382838181832B818373
:1028C00078948BE797E00197F1F7F894818168237A
:1028D000618383E191E00197F1F780817894E3E6E9
:1028E000F6E03197F1F7382309F0B6CF60EFCE016B
:1028F0000E949D1381E0F12C812CEE24E39467E08B
:1029000070E023E230E04FEC50E097ED692E712C3F
:1029100022242A94312CFFE0AF2EB12C2AC044206F
:1029200009F47EC0FE01EF0DF11D9381D82ED094E5
:102930009D2193839881E981FA81F894D280C92EF0
:10294000C094DC20D282D180D92AD182D1011197C2
:10295000F1F7D2809D2992837894F5013197F1F7B0
:10296000E394880F11F4F39481E0B7E0BF1508F405
:1029700072C09881E981FA81F894D180D92AD182F4
:10298000D280992E9094D920D282DB011197F1F751
:10299000D1809D209182D9011197F1F79080789490
:1029A000FA013197F1F74880E981FA81F894D180F2
:1029B000D428D182D280542C5094D520D282DB01ED
:1029C0001197F1F7D1805D205182D9011197F1F76C
:1029D000E0814E227894FA013197F1F7992109F4B8
:1029E0009ECF411038C0FE01EF0DF11D9381982B51
:1029F00093839880E981FA81F8949281D92CD094BC
:102A00009D219283918199299183D9011197F1F7A1
:102A10009281992992837894F3013197F1F7A0CFAD
:102A20009B85E91668F4FE01EF0DF11D9381D92E07
:102A3000D822E9F6A8E0AE1508F0EC868E2C76CF09
:102A4000DD24D3949E11D12CFE01EF0DF11D938155
:102A5000D110CDCFEFCFE0E4EE1508F0FDCE8B86A0
:102A6000882019F18B81882309F4F6CED8018C9344
:102A70008C8111968C9311978D8112968C9312975D
:102A80008E8113968C9313978F8114968C93149741
:102A9000888515968C931597898516968C9316972D
:102AA0008A8517968C9381E0DBCE81E08D87DACF23
:102AB0000895FC0181E0808F938D848D981709F42F
:102AC00048C0238D30E02F5F3F4F2F733327922F65
:102AD00003C00FB607FE17C0848D9817D1F3838DFE
:102AE000DF01A80FB11DA35ABF4F6C939FB7F89495
:102AF000238F0288F389E02D8081806280839FBFCD
:102B000081E090E00895A089B1898C9185FFE4CFA0
:102B1000848DDF01A80FB11DA35ABF4F8C91448D46
:102B200050E04F5F5F4F4F735527448FA689B78999
:102B30008C93A089B1898C91837080648C93438D30
:102B4000848D4813C9CFA289B3898C918F7D8C93D2
:102B5000C3CFA089B1898C9185FFB3CF9FB7F8947B
:102B6000A689B7896C930088F189E02D80818370F4
:102B7000806480839FBF81E090E00895BF92CF92F0
:102B8000DF92EF92FF920F931F93CF93DF93411544
:102B9000510509F486C06A01EC017B0100E010E0F8
:102BA000BB24B394E881F9810190F081E02DD70135
:102BB0006D917D01B5E1E935FB0709F06CC0B88E78
:102BC0009B8D8C8D981709F454C02B8D30E02F5FAE
:102BD0003F4F2F733327922F03C00FB607FE23C03A
:102BE0008C8D9817D1F38B8DFE01E80FF11DE35A00
:102BF000FF4F60839FB7F8942B8FEA89FB89808110
:102C0000806280839FBF0F5F1F4FC016D10651F6B1
:102C1000C801DF91CF911F910F91FF90EF90DF904E
:102C2000CF90BF900895E889F989808185FFD8CF3A
:102C30008C8DFE01E80FF11DE35AFF4F80814C8D12
:102C400050E04F5F5F4F4F7355274C8FEE89FF89E0
:102C50008083E889F98980818370806480834B8DCB
:102C60008C8D4813BDCFEA89FB8980818F7D80835D
:102C7000B7CFE889F989808185FFA7CF9FB7F894FE
:102C8000EE89FF896083E889F98980818370806497
:102C900080839FBFB8CFCE010995892B09F0B3CFB0
:102CA000B7CF00E010E0B4CFFC01918D228D892FC9
:102CB00090E0805C9F4F821B91098F739927089544
:102CC00020919D0280919E0230E0205C3F4F281BA6
:102CD00031092F73332781E0232B09F480E0089515
:102CE000089580E090E00895CF93DF93DC0158963B
:102CF0008C915897882309F447C05296ED91FC9126
:102D000053975096CD91DC915197908195FF39C0A2
:102D10000FB607FCFACF908195FFF7CF888185FF2A
:102D2000F4CF5C968C915C97FD01E80FF11DE35A9E
:102D3000FF4F20815C968C915C9790E001968F7399
:102D400099275C968C935C975696ED91FC915797DA
:102D500020835096ED91FC9151978081837080641F
:102D600080835B969C915B975C968C915C979813A3
:102D7000C4CF5296ED91FC91539780818F7D8083D3
:102D8000BCCF888186FFC4CFDF91CF910895FC012D
:102D9000238D348D231730F4832F90E0821B91090B
:102DA000019708958FE390E0821B9109830F911D95
:102DB0000895FC01918D828D981761F0828DDF015D
:102DC000A80FB11D5D968C91928D9F5F9F73928F1E
:102DD00090E008958FEF9FEF0895FC01918D828D13
:102DE000981731F0828DE80FF11D858D90E00895E0
:102DF0008FEF9FEF089580E090E0892B79F080912C
:102E00009D0220919E0290E0805C9F4F821B910961
:102E10008F739927892B11F00C94000008950E945C
:102E2000EA2C1F920F920FB60F9211242F933F930B
:102E30004F935F936F937F938F939F93AF93BF93C2
:102E4000EF93FF93E0911201F09113010995FF9127
:102E5000EF91BF91AF919F918F917F916F915F9112
:102E60004F913F912F910F900FBE0F901F9018958B
:102E70001F920F920FB60F9211242F933F934F93EF
:102E80005F936F937F938F939F93AF93BF93EF93D2
:102E9000FF93E0911001F09111010995FF91EF91DD
:102EA000BF91AF919F918F917F916F915F914F9162
:102EB0003F912F910F900FBE0F901F9018951F926A
:102EC0000F920FB60F9211242F938F939F93EF932E
:102ED000FF93E091A002F0E0EF51FD4F208180913F
:102EE000A00290E001968F7399278093A002E09151
:102EF0009A02F0919B022083E0919402F091950256
:102F0000808183708064808390919F028091A00271
:102F1000981307C0E0919602F091970280818F7D0F
:102F20008083FF91EF919F918F912F910F900FBE12
:102F30000F901F9018951F920F920FB60F921124A9
:102F40002F938F939F93EF93FF93E0919402F091CF
:102F500095028081E0919A02F0919B0282FF0BC062
:102F60008081FF91EF919F918F912F910F900FBED4
:102F70000F901F901895208180919D028F5F8F7315
:102F800090919E02891769F3E0919D02F0E0EC5761
:102F9000FD4F258F80939D02E4CF9F92AF92BF9209
:102FA000CF92DF92EF92FF920F931F93CF93DF9315
:102FB000EC018B0165E50E949D137801680188E0B2
:102FC000C80ED11C4FEF50E02FE030E003E210E0DC
:102FD00067ED70E0F70191907F0188E090E0AA240E
:102FE000A39419C0B880E981FA81F894A281BB2D1D
:102FF000B095AB23A283A181AB29A183D8011197FE
:10300000F1F7A281BA2AB2827894FB013197F1F7E5
:10301000AA0C0197E1F0E92DEA2121F7B880E981B6
:10302000FA81F894A281BB2DB095AB23A283A18134
:10303000AB29A183DA011197F1F7A281BA2AB282F2
:103040007894F9013197F1F7AA0C019721F7F894D8
:10305000E981FA8191818881809589238183E98141
:10306000FA81928188818095892382837894CE1415
:10307000DF0409F0AFCFDF91CF911F910F91FF9047
:10308000EF90DF90CF90BF90AF909F9008953FB7A3
:10309000F89480917B0290917C02A0917D02B09186
:1030A0007E0226B5A89B05C02F3F19F00196A11DF1
:1030B000B11D3FBFBA2FA92F982F8827820F911DCE
:1030C000A11DB11D880F991FAA1FBB1F880F991F33
:1030D000AA1FBB1F40913A0250913B0260913C02F3
:1030E00070913D02841B950BA60BB70B80930601D4
:1030F00090930701A0930801B09309013FB7F8949A
:1031000080917B0290917C02A0917D02B0917E0221
:1031100026B5A89B05C02F3F19F00196A11DB11D32
:103120003FBFBA2FA92F982F8827820F911DA11D6D
:10313000B11D880F991FAA1FBB1F880F991FAA1FB7
:10314000BB1F80933A0290933B02A0933C02B09342
:103150003D0280910A0190910B01A0910C01B09168
:103160000D010196A11DB11D80930A0190930B01E1
:10317000A0930C01B0930D010895CF93DF93CDB7C9
:10318000DEB72A970FB6F894DEBF0FBECDBF789496
:1031900084B5826084BD84B5816084BD85B582605C
:1031A00085BD85B5816085BD80916E00816080930D
:1031B0006E00109281008091810082608093810076
:1031C0008091810081608093810080918000816086
:1031D000809380008091B10084608093B1008091E1
:1031E000B00081608093B00080917A008460809309
:1031F0007A0080917A00826080937A0080917A00D0
:10320000816080937A0080917A00806880937A0050
:103210001092C1000E94DC00A5E02A2E312C3A86D3
:103220002986E8E04E2E512CF0E36F2EF2E07F2E3F
:10323000332433948091790290917A0297FD15C4DA
:10324000853691050CF43BC344E650E050937A0276
:10325000409379022091770230917802243631052B
:1032600009F020C48FB7F89440917F0250918002FA
:1032700060918102709182028FBF8091DD039091F5
:10328000DE03A091DF03B091E0038A019B01081BDC
:10329000190B2A0B3B0B8091E1039091E203092E5D
:1032A000000CAA0BBB0B081719072A073B0708F4E9
:1032B0006EC14093DD035093DE036093DF03709390
:1032C000E00380915A02882309F4C1C38091560219
:1032D00090915702009711F00C94AC2284E690E094
:1032E00090935702809356022091480230914902F0
:1032F0002817390711F010925A02909349028093CF
:1033000048028091730290917402A0917502B0916D
:103310007602BC01CD016F5F7F4F8F4F9F4F60934F
:10332000730270937402809375029093760222E385
:1033300030E040E050E00E943029672B682B692B79
:1033400009F417C490917A0080917A00887F846094
:1033500080937A0080E480937C0080917A0080647E
:1033600080937A0080917A0086FDFCCF609178008E
:103370008091790090937A0070E0782B072E000CF2
:10338000880B990B0E94A72A4B015C01C090B603E1
:10339000D090B703C114D10411F40C94062380918A
:1033A000B103860194E0899F000D111D1124F801DD
:1033B00020813181428153816091B2037091B303C6
:1033C0008091B4039091B5030E948B296093B2035E
:1033D0007093B3038093B4039093B503F801808294
:1033E0009182A282B3821091B103F60124E0129F70
:1033F000E00DF11D11242091B2033091B3034091EF
:10340000B4035091B50360817181828193810E94E0
:103410008C296093B2037093B3038093B4039093A9
:10342000B5031F5F1093B1030091AF03101711F4A0
:103430000C94B922F090B003F1104CC38092BC03FD
:103440009092BD03A092BE03B092BF038092B803D6
:103450009092B903A092BA03B092BB03F01618F48D
:10346000F394F092B00380914A0290914B0201963E
:1034700090934B0280934A02019609F445C3FF20C2
:1034800009F43FC36F2D70E080E090E00E94A72A0E
:103490009B01AC016091B2037091B3038091B403BE
:1034A0009091B5030E94FD290E946F2A70935E02DD
:1034B00060935D028091400290914102681B790BFC
:1034C000072E000C880B990B0E94A72A20E030E001
:1034D00043EC5DE30E945C2B60934E0270934F02BD
:1034E000809350029093510210923F0210923E023C
:1034F00043E490917A0080917A00887F8460809381
:103500007A0040937C0080917A00806480937A00F6
:1035100080917A0086FDFCCF80917800209179001F
:1035200090937A0090E0922B20914C0230914D02C2
:10353000820F931F90934D0280934C0220913E0284
:1035400030913F022F5F3F4F30933F0220933E0266
:103550002530310574F269857A850E941C297093A3
:103560004D0260934C02072E000C880B990B0E94B1
:10357000A72A23E333E343E35DE30E945C2B6093DC
:1035800052027093530280935402909355028FB766
:10359000F89440917F025091800260918102709175
:1035A00082028FBF8091E3039091E403A091E50331
:1035B000B091E6038A019B01081B190B2A0B3B0BF8
:1035C0008091E7039091E803092E000CAA0BBB0B36
:1035D000081719072A073B07E0F14093E3035093CC
:1035E000E4036093E5037093E60380915A0220910F
:1035F00058023091590281110EC08091560290916B
:103600005702281739070CF4B8C7821793070CF430
:10361000E1C730925A0230937A0220937902809166
:103620005D0290915E0240914002509141028417E8
:1036300095070CF040C22F5F3F4F30937A022093E2
:10364000790230925C02873C91400CF03AC21092B1
:103650005B028FB7F89440917F0250918002609195
:103660008102709182028FBF8091C0039091C1034B
:10367000A091C203B091C3038A019B01081B190BDF
:103680002A0B3B0B8091C4039091C503092E000CBB
:10369000AA0BBB0B081719072A073B0708F4F9C048
:1036A0004093C0035093C1036093C2037093C3035C
:1036B00080910A0190910B01A0910C01B0910D0134
:1036C0000297A105B105D4F0609106017091070140
:1036D00080910801909109010E94A72A9B01AC01E9
:1036E00060EC71EE84E69CE40E94FD2960936F0219
:1036F0007093700280937102909372023FB7F894B6
:1037000080917B0290917C02A0917D02B0917E021B
:1037100026B5A89B05C02F3F19F00196A11DB11D2C
:103720003FBFBA2FA92F982F8827820F911DA11D67
:10373000B11D880F991FAA1FBB1F880F991FAA1FB1
:10374000BB1F40916B0250916C0260916D027091B1
:103750006E026C017D01C41AD50AE60AF70A809050
:103760006F0290907002A0907102B0907202C1142A
:10377000D104E104F10409F46FC180910A01909130
:103780000B01A0910C01B0910D0140916302509189
:1037900064026091650270916602481759076A07D2
:1037A0007B07A1F10197A105B10581F12091670285
:1037B000309168024091690250916A02C501B401DA
:1037C0000E948B292CEA34EB41E45CE30E945C2BE1
:1037D0006D837E838F839887C701B6010E94A72AD5
:1037E0002DEB37E346E855E30E945C2B9B01AC01CF
:1037F0006D817E818F8198850E94FD2960935F0293
:1038000070936002809361029093620280926702DB
:1038100090926802A0926902B0926A023FB7F8944F
:1038200080917B0290917C02A0917D02B0917E02FA
:1038300026B5A89B05C02F3F19F00196A11DB11D0B
:103840003FBFBA2FA92F982F8827820F911DA11D46
:10385000B11D880F991FAA1FBB1F880F991FAA1F90
:10386000BB1F80936B0290936C02A0936D02B09388
:103870006E0280910A0190910B01A0910C01B09110
:103880000D018093630290936402A0936502B0934C
:10389000660240E050E0452B09F4CCCC80919D02BB
:1038A00020919E0290E0805C9F4F821B91098F7354
:1038B0009927892B09F4BECC0E940000B2CC20913C
:1038C0007702309178028217930709F4CBCC0097E6
:1038D00009F4D6C08333910514F00C945527823037
:1038E00091050CF4E5C0843091050CF413C78830C1
:1038F00091050CF40CC78E3091050CF405C78E3081
:10390000910509F4FEC60F9709F4F5C686E090E02C
:103910009093450280934402233331050CF4B6C0E2
:1039200044E650E0421B530B1092470210924602AD
:10393000423051050CF4B3C0443051050CF4DEC6DE
:10394000483051050CF4D4C64E3051050CF4CDC6A8
:103950004E30510509F4C6C64F30510509F4BFC6B3
:1039600046E050E050934702409346025093430292
:1039700040934202232B59F483EA8093B000809154
:1039800044029091450240914202509143028417B3
:103990009507D9F1FC01EE0FFF1F880F991F880FC3
:1039A000991F880F991FDF01A80FB91FA65EBE4F90
:1039B00012962D913C9113972034310509F41EC6BF
:1039C0002032310509F426C65092050140920401C7
:1039D0002AE02093B1008E0F9F1FFC01E65EFE4F90
:1039E0008481958180930E0190930F0146815781C8
:1039F000608571854093000150930101609302013D
:103A00007093030181508093B300609179027091AB
:103A10007A02072E000C880B990B0E94A72A20918E
:103A200000013091010140910201509103010E9477
:103A30005C2B0E946F2A61506093B40080917902E0
:103A400090917A0290937802809377020BCC8091C8
:103A500056029091570248CC10925F021092600279
:103A60001092610210926202D1CE10927A021092EC
:103A700079028091770290917802892B09F4F2CB38
:103A80008091B0008F758093B000D8CF109247021C
:103A900010924602A901423051050CF04DCF40E092
:103AA00050E064CF80E090E0823091050CF01BCFB5
:103AB00080E090E02DCF10925C02873C91400CF4A6
:103AC000C6CD2250310930937A0220937902309288
:103AD0005B02BFCD2091B8033091B9034091BA0386
:103AE0005091BB03C501B4010E94F82987FF58C556
:103AF0008092B8039092B903A092BA03B092BB032C
:103B0000ADCC60E070E0D2CCFF20D9F31092B203CC
:103B10001092B3031092B4031092B5038601812C66
:103B2000912C5401E12CF801219131914191519155
:103B30008F01C501B4010E948C294B015C01609387
:103B4000B2037093B3038093B4039093B503E394EB
:103B5000EF10E9CF6E2D70E080E090E00E94A72A80
:103B60009B01AC01C501B4010E94FD290E946F2A8E
:103B70009DCC8FB7F89480907F0290908002A090A7
:103B80008102B09082028FBF10912E03812F8F7718
:103B900061F41078106210932E0310922B03109290
:103BA0002A0310922D0310922C0315FF2EC0E090D3
:103BB0002A03F0902B0313C06115710531F08EE7D5
:103BC00091E00E94EF2C892BA9F0F70185818823D1
:103BD00009F42BC628E08202E00CF11C1124E11448
:103BE000F10409F422C6F70166817781F1E06E37AE
:103BF0007F0711F7F7018481807888608483808251
:103C00009182A282B38210912E0380903A0290900A
:103C10003B02A0903C02B0903D02812F8F7761F46F
:103C20001078106210932E0310922B0310922A0327
:103C300010922D0310922C0315FF30C0E0902A0340
:103C4000F0902B0313C06115710531F087E891E006
:103C50000E94EF2C892BA9F0F7018581882309F4B4
:103C600028C628E08202E00CF11C1124E114F104C2
:103C700009F41FC6F70166817781F1E067387F0795
:103C800011F7F70184818078B7FCCCC48860848305
:103C900080829182A282B38210912E0380900A01C9
:103CA00090900B01A0900C01B0900D01812F8F77A7
:103CB00061F41078106210932E0310922B0310926F
:103CC0002A0310922D0310922C0315FF30C0E090B0
:103CD0002A03F0902B0313C06115710531F083E9BD
:103CE00091E00E94EF2C892BA9F0F70185818823B0
:103CF00009F457C528E08202E00CF11C1124E114FC
:103D0000F10409F44EC5F70166817781F1E063396A
:103D10007F0711F7F70184818078B7FC94C488602D
:103D2000848380829182A282B38210912E0380903C
:103D30006F0290907002A0907102B0907202812F79
:103D40008F7761F41078106210932E0310922B037A
:103D500010922A0310922D0310922C0315FF2EC0EF
:103D6000E0902A03F0902B0313C06115710531F028
:103D700081EA91E00E94EF2C892BA9F0F70185815F
:103D8000882309F4B8C528E08202E00CF11C112454
:103D9000E114F10409F4AFC5F70166817781F1E020
:103DA000613A7F0711F7F701848180788C60848302
:103DB00080829182A282B38210912E0380905F0252
:103DC00090906002A0906102B0906202812F8F7784
:103DD00061F41078106210932E0310922B0310924E
:103DE0002A0310922D0310922C0315FF2EC0E09091
:103DF0002A03F0902B0313C06115710531F085EA99
:103E000091E00E94EF2C892BA9F0F701858188238E
:103E100009F4E9C428E08202E00CF11C1124E11449
:103E2000F10409F4E0C4F70166817781F1E0653AB5
:103E30007F0711F7F701848180788C60848380820A
:103E40009182A282B38210912E03C0905602D0902C
:103E50005702812F8F7761F41078106210932E0330
:103E600010922B0310922A0310922D0310922C0310
:103E700015FF34C0E0902A03F0902B0313C06115A6
:103E8000710531F08CEA91E00E94EF2C892BA9F0AA
:103E9000F7018581882309F4EAC428E08202E00C56
:103EA000F11C1124E114F10409F4E1C4F701668165
:103EB0007781F1E06C3A7F0711F7F7018481807810
:103EC000D7FCD2C3886084830D2C000CEE08FF0859
:103ED000C082D182E282F38210912E03C0907902D7
:103EE000D0907A02812F8F7761F41078106210934E
:103EF0002E0310922B0310922A0310922D0310927E
:103F00002C0315FF34C0E0902A03F0902B0313C05C
:103F10006115710531F08CEB91E00E94EF2C892B3B
:103F2000A9F0F7018581882309F419C428E08202E9
:103F3000E00CF11C1124E114F10409F410C4F701A0
:103F400066817781F1E06C3B7F0711F7F70184818F
:103F50008078D7FC9EC3886084830D2C000CEE080B
:103F6000FF08C082D182E282F38210912E03409139
:103F700004015091050180910E0190910F01489F1D
:103F80009001499F300D589F300D1124032E000CD5
:103F9000440B550B60E074E284EF90E00E943029FE
:103FA00049015A01812F8F7761F4107810621093C4
:103FB0002E0310922B0310922A0310922D031092BD
:103FC0002C0315FF30C0E0902A03F0902B0313C0A0
:103FD0006115710531F088EC91E00E94EF2C892B7E
:103FE000A9F0F7018581882309F496C428E08202AC
:103FF000E00CF11C1124E114F10409F48DC4F70163
:1040000066817781F1E0683C7F0711F7F7018481D1
:104010008078B7FC53C38860848380829182A282B7
:10402000B38210912E03812F8F7761F41078106284
:1040300010932E0310922B0310922A0310922D033B
:1040400010922C0315FF2EC0E0902A03F0902B0352
:1040500013C06115710531F085ED91E00E94EF2CE0
:10406000892BA9F0F7018581882309F4CDC328E0C5
:104070008202E00CF11C1124E114F10409F4C4C320
:10408000F70166817781F1E0653D7F0711F7F70160
:10409000848180788C6084831082118212821382E2
:1040A00010912E038090520290905302A0905402DF
:1040B000B0905502812F8F7761F4107810621093C1
:1040C0002E0310922B0310922A0310922D031092AC
:1040D0002C0315FF2EC0E0902A03F0902B0313C091
:1040E0006115710531F08BED91E00E94EF2C892B69
:1040F000A9F0F7018581882309F4CAC328E0820268
:10410000E00CF11C1124E114F10409F4C1C3F7011E
:1041100066817781F1E06B3D7F0711F7F7018481BC
:1041200080788C60848380829182A282B382109195
:104130002E0380904E0290904F02A0905002B090BB
:104140005102812F8F7761F41078106210932E0343
:1041500010922B0310922A0310922D0310922C031D
:1041600015FF2EC0E0902A03F0902B0313C06115B9
:10417000710531F089EE91E00E94EF2C892BA9F0B6
:10418000F7018581882309F4FBC228E08202E00C54
:10419000F11C1124E114F10409F4F2C2F701668163
:1041A0007781F1E0693E7F0711F7F701848180781C
:1041B0008C60848380829182A282B38210912E03CC
:1041C000812F8F7761F41078106210932E03109274
:1041D0002B0310922A0310922D0310922C0315FF2B
:1041E0002EC0E0902A03F0902B0313C061157105D7
:1041F00031F084EF91E00E94EF2C892BA9F0F701B8
:104200008581882309F466C328E08202E00CF11C52
:104210001124E114F10409F45DC3F701668177818B
:10422000F1E0643F7F0711F7F701848180788C60AB
:104230008483108211821282138210912E03812FA7
:104240008F7761F41078106210932E0310922B0375
:1042500010922A0310922D0310922C0315FF2EC0EA
:10426000E0902A03F0902B0313C06115710531F023
:1042700080E092E00E94EF2C892BA9F0F701858164
:10428000882309F49FC228E08202E00CF11C11246B
:10429000E114F10409F496C2F70166817781F2E036
:1042A00060307F0711F7F701848180788C60848308
:1042B000108211821282138210912E0300915C02EF
:1042C000812F8F7761F41078106210932E03109273
:1042D0002B0310922A0310922D0310922C0315FF2A
:1042E00031C0E0902A03F0902B0313C061157105D3
:1042F00031F08EE092E00E94EF2C892BA9F0F701BB
:104300008581882309F4A2C228E08202E00CF11C16
:104310001124E114F10409F499C2F701668177814F
:10432000F2E06E307F0711F7F701848180788660B4
:10433000848310E020E030E0008311832283338304
:1043400010912E0300915B02812F8F7761F410781A
:10435000106210932E0310922B0310922A031092D6
:104360002D0310922C0315FF31C0E0902A03F0902A
:104370002B0313C06115710531F088E192E00E94B2
:10438000EF2C892BA9F0F7018581882309F4D6C188
:1043900028E08202E00CF11C1124E114F10409F47C
:1043A000CDC1F70166817781F2E068317F0711F7AF
:1043B000F701848180788660848310E020E030E01B
:1043C000008311832283338310912E03812F8F77F3
:1043D00061F41078106210932E0310922B03109248
:1043E0002A0310922D0310922C0315FF2CC000916C
:1043F0002A0310912B0313C06115710531F082E27D
:1044000092E00E94EF2C892BA9F0F8018581882386
:1044100009F483C128E08202000D111D1124011549
:10442000110509F47AC1F80166817781F2E0623200
:104430007F0711F7F8018481807886608483108279
:1044400011821282138284E892E09A8389831C820B
:104450001B82BE016F5F7F4F8AE293E00E946D086E
:10446000ACE2B2E04D9130929C0290919F0280911B
:10447000A002E0919402F0919502981709F458C0B7
:1044800020919F0230E02F5F3F4F2F733327922FF1
:1044900003C00FB607FE1BC08091A0029817C9F396
:1044A000E0919F02F0E0EF51FD4F40839FB7F894F9
:1044B00020939F02E0919602F091970280818062A2
:1044C00080839FBF6A167B0669F60C94A2198081CF
:1044D00085FFE2CFE091A002F0E0EF51FD4F808137
:1044E0006091A00270E06F5F7F4F6F7377276093DA
:1044F000A002E0919A02F0919B028083E0919402E5
:10450000F0919502808183708064808350919F0236
:104510008091A002581307C0E0919602F091970293
:1045200080818F7D8083E0919402F0919502B4CFD9
:10453000808185FFA5CF9FB7F894E0919A02F09112
:104540009B024083E0919402F091950280818370F8
:10455000806480839FBFB6CF8436910511F00C94A0
:104560007419109257021092560280E090E00C9459
:1045700074191092B1030C941A1A2F5F3F4F3093A5
:1045800059022093580260910E0170910F0180E74B
:1045900097E10E941C297093E8036093E7033BC8EE
:1045A0002091BC033091BD034091BE035091BF03E5
:1045B000C501B4010E94572B181614F00C942E1A42
:1045C0008092BC039092BD03A092BE03B092BF0341
:1045D0000C942E1A2150310930935902209358021D
:1045E00060910E0170910F0180E197E20E941C29F9
:1045F0007093E8036093E7030C940B1B3093050161
:10460000209304012CE02093B100E5C9F090B003A1
:104610000C94331A30930501209304012BE020936E
:10462000B100D9C98A608483B094A0949094809496
:10463000811C911CA11CB11C80829182A282B38238
:1046400010912E032BCB8A608483B094A094909415
:104650008094811C911CA11CB11C80829182A28239
:10466000B38210912E0363CB8A6084830D2C000CDF
:10467000EE08FF08F094E094D094C094C11CD11CC3
:10468000E11CF11CC082D182E282F38210912E03E0
:1046900025CC8A6084830D2C000CEE08FF08F09472
:1046A000E094D094C094C11CD11CE11CF11CC082C8
:1046B000D182E282F38210912E0359CC8A608483E6
:1046C000B094A09490948094811C911CA11CB11C66
:1046D00080829182A282B38210912E03A4CC45E005
:1046E00050E040C944E050E03DC943E050E03AC9E1
:1046F00042E050E037C985E090E00AC941E050E06F
:1047000031C984E090E004C983E090E001C982E00F
:1047100090E0FEC881E090E0FBC880912503909175
:1047200026032091230330912403285F3F4F8217F3
:10473000930708F02DC13092290385CE809125037F
:10474000909126032091230330912403285F3F4F4B
:104750008217930708F074C23092290337CE8091F4
:104760002503909126032091230330912403285F91
:104770003F4F8217930708F0B7C130922903F7CB58
:1047800080912503909126032091230330912403E7
:10479000285F3F4F8217930708F0FEC2309229032B
:1047A0000FCD809125039091260320912303309112
:1047B0002403285F3F4F8217930708F03FC13092D0
:1047C0002903B5CA809125039091260320912303E4
:1047D00030912403285F3F4F8217930708F086C269
:1047E000309229036BCD809125039091260320916F
:1047F000230330912403285F3F4F8217930708F06B
:10480000C9C13092290321CB8091250390912603C1
:104810002091230330912403285F3F4F8217930791
:1048200008F08BC0309229033DCC809125039091F4
:1048300026032091230330912403285F3F4F8217E2
:10484000930708F0D0C030922903DFC98091250377
:10485000909126032091230330912403285F3F4F3A
:104860008217930708F017C2309229036BCD80910D
:104870002503909126032091230330912403285F80
:104880003F4F8217930708F05AC13092290326CB75
:1048900080912503909126032091230330912403D6
:1048A000285F3F4F8217930708F0A1C23092290377
:1048B00040CC8091250390912603209123033091D1
:1048C0002403285F3F4F8217930708F0E2C030921D
:1048D0002903E4C9809125039091260320912303A5
:1048E00030912403285F3F4F8217930708F029C2B5
:1048F00030922903A4CC8091250390912603209126
:10490000230330912403285F3F4F8217930708F059
:104910006CC13092290352CA8091250390912603DD
:104920002091230330912403285F3F4F8217930780
:1049300008F088C23092290376CBFC013897F093B7
:104940002603E0932503309709F4ACCBA0912C0308
:10495000B0912D03109709F49FC29F012A1B3B0BB6
:1049600035952795359527953595279515962C934B
:10497000F0932D03E0932C0315821482DC0112972F
:1049800045ED51E04D935C93309709F081CB88CB96
:10499000FC013897F0932603E0932503309709F440
:1049A00052CDA0912C03B0912D03109709F402C3AE
:1049B0009F012A1B3B0B35952795359527953595F6
:1049C000279515962C93F0932D03E0932C031582D5
:1049D0001482DC01129742E252E04D935C933097CF
:1049E00009F029CD30CDFC013897F0932603E093F0
:1049F0002503309709F409C9A0912C03B0912D0328
:104A0000109709F4CEC29F012A1B3B0B35952795C1
:104A1000359527953595279515962C93F0932D036D
:104A2000E0932C0315821482DC0112974EE751E0CB
:104A30004D935C93309709F0DEC8E5C8FC013897C8
:104A4000F0932603E0932503309709F470C9A091F1
:104A50002C03B0912D03109709F49AC29F012A1BD1
:104A60003B0B3595279535952795359527951596C3
:104A70002C93F0932D03E0932C0315821482DC0118
:104A8000129743E951E04D935C93309709F043C985
:104A9000E8CDFC013897F0932603E0932503309787
:104AA00009F4FCC8A0912C03B0912D03109709F4D0
:104AB00066C29F012A1B3B0B359527953595279597
:104AC0003595279515962C93F0932D03E0932C03A1
:104AD00015821482DC01129747E851E04D935C93F4
:104AE000309709F0CFC8ACCDFC013897F09326037E
:104AF000E0932503309709F43ACAA0912C03B091B2
:104B00002D03109709F432C29F012A1B3B0B3595E8
:104B10002795359527953595279515962C93F093E0
:104B20002D03E0932C0315821482DC0112974CEBC9
:104B300051E04D935C93309709F009CABCCDFC015C
:104B40003897F0932603E0932503309709F4C6C9FC
:104B5000A0912C03B0912D03109709F4FEC19F0181
:104B60002A1B3B0B35952795359527953595279528
:104B700015962C93F0932D03E0932C031582148249
:104B8000DC0112974CEA51E04D935C93309709F0A9
:104B900095C97CCDFC013897F0932603E09325035B
:104BA000309709F452C9A0912C03B0912D031097AE
:104BB00009F4CAC19F012A1B3B0B359527953595F2
:104BC00027953595279515962C93F0932D03E09313
:104BD0002C0315821482DC01129745EA51E04D93B3
:104BE0005C93309709F027C92EC9FC013897F093E0
:104BF0002603E0932503309709F4E0C8A0912C0325
:104C0000B0912D03109709F496C19F012A1B3B0B0D
:104C100035952795359527953595279515962C9398
:104C2000F0932D03E0932C0315821482DC0112977C
:104C300041EA51E04D935C93309709F0B5C8BCC888
:104C4000FC013897F0932603E0932503309709F48D
:104C5000BDCBA0912C03B0912D03109709F462C134
:104C60009F012A1B3B0B3595279535952795359543
:104C7000279515962C93F0932D03E0932C03158222
:104C80001482DC01129748E152E04D935C93309717
:104C900009F08FCB99CBFC013897F0932603E09372
:104CA0002503309709F44ECBA0912C03B0912D032E
:104CB000109709F42EC19F012A1B3B0B35952795B0
:104CC000359527953595279515962C93F0932D03BB
:104CD000E0932C0315821482DC0112974EE052E01F
:104CE0004D935C93309709F020CB2ACBFC01389789
:104CF000F0932603E0932503309709F4DFCAA091CF
:104D00002C03B0912D03109709F4FAC09F012A1BC0
:104D10003B0B359527953595279535952795159610
:104D20002C93F0932D03E0932C0315821482DC0165
:104D3000129740E052E04D935C93309709F0B4CA6B
:104D4000BBCAFC013897F0932603E0932503309704
:104D500009F475CAA0912C03B0912D03109709F4A2
:104D6000C6C09F012A1B3B0B359527953595279586
:104D70003595279515962C93F0932D03E0932C03EE
:104D800015821482DC01129744EF51E04D935C933D
:104D9000309709F04ACA51CAFC013897F0932603AC
:104DA000E0932503309709F40BCAA0912C03B0912E
:104DB0002D03109709F492C09F012A1B3B0B3595D8
:104DC0002795359527953595279515962C93F0932E
:104DD0002D03E0932C0315821482DC01129749EE17
:104DE00051E04D935C93309709F0E0C9E7C9FC01AD
:104DF0003897F0932603E0932503309709F499C977
:104E0000A0912C03B0912D03109709F45EC09F016F
:104E10002A1B3B0B35952795359527953595279575
:104E200015962C93F0932D03E0932C031582148296
:104E3000DC0112974BED51E04D935C93309709F0F4
:104E40006EC975C9FC013897F0932603E0932503DA
:104E5000309709F4E8C8A0912C03B0912D03109766
:104E600059F19F012A1B3B0B3595279535952795C1
:104E70003595279515962C93F0932D03E0932C03ED
:104E800015821482DC01129748EC51E04D935C933B
:104E9000309709F0BCC820CCF0932B03E0932A0391
:104EA000F0932D03E0932C0367CDE4E6F0E0E81BDC
:104EB000F90BCF010C946F1CF0932B03E0932A03A2
:104EC000F0932D03E0932C03DBCFF0932B03E093BF
:104ED0002A03F0932D03E0932C03A8CFF0932B0328
:104EE000E0932A03F0932D03E0932C0374CFF09307
:104EF0002B03E0932A03F0932D03E0932C0340CF80
:104F0000F0932B03E0932A03F0932D03E0932C03FB
:104F10000CCFF0932B03E0932A03F0932D03E0933F
:104F20002C03D8CEF0932B03E0932A03F0932D03A8
:104F3000E0932C03A4CEF0932B03E0932A03F09389
:104F40002D03E0932C0370CEF0932B03E0932A0300
:104F5000F0932D03E0932C033CCEF0932B03E093CE
:104F60002A03F0932D03E0932C0308CEF0932B0338
:104F7000E0932A03F0932D03E0932C03D4CDF09318
:104F80002B03E0932A03F0932D03E0932C03A0CD91
:104F9000F0932B03E0932A03F0932D03E0932C036B
:104FA0006CCDF0932B03E0932A03F0932D03E09351
:104FB0002C0338CDF0932B03E0932A03F0932D03B9
:104FC000E0932C0304CD8091B6039091B703009732
:104FD00011F00C94612C08951092870210928602B1
:104FE00088EE93E0A0E0B0E080938802909389027D
:104FF000A0938A02B0938B028EE691E09093850293
:105000008093840285EC90E09093910280939002CB
:1050100084EC90E0909393028093920280EC90E075
:10502000909395028093940281EC90E09093970284
:105030008093960282EC90E090939902809398027C
:1050400086EC90E090939B0280939A0210929D02CE
:1050500010929E0210929F021092A0028FE293E0A3
:10506000909322038093210390932403809323033E
:105070008FEA93E09093260380932503909328036F
:10508000809327031092290380912E0380788093C8
:105090002E0360E082E00E941413EEE4F1E0E4915C
:1050A000E093E903EAE3F1E0E491F0E0EE0FFF1FA3
:1050B000E25DFE4F859194919093EB038093EA0318
:1050C0001092F4031092F6031092F5031092F3037A
:1050D00087E0ECEEF3E0DF011D928A95E9F710928C
:1050E000DC031092DB031092C70389EE93E09093E8
:1050F000D0038093CF031092CD031092CE03109271
:10510000C60389E08093C90381E08093CA0380933A
:10511000CB038093CC031092C0031092C103109272
:10512000C2031092C30385E090E09093C50380937F
:10513000C40380E18093AF0380E490E00E94C92B18
:105140009C019093B7038093B603892B09F451C057
:105150001092B0031092B1031092B2031092B303F5
:105160001092B4031092B50380E090E0A0ECBFE78A
:105170008093B8039093B903A093BA03B093BB0391
:105180008093BC039093BD03A093BE03B093BF0371
:1051900090E19150F901B4E09B9FE00DF11D1124C5
:1051A00010821182128213829111F3CF1092DD03CB
:1051B0001092DE031092DF031092E0038AE090E089
:1051C0009093E2038093E10360910E0170910F01CF
:1051D00080E197E20E941C291092E3031092E403FD
:1051E0001092E5031092E6037093E8036093E703DF
:1051F00008951092AF031092B0031092B103109271
:10520000B2031092B3031092B4031092B50380E07E
:1052100090E0A0ECBFE78093B8039093B903A0930C
:10522000BA03B093BB038093BC039093BD03A093D8
:10523000BE03B093BF03BACF97FB072E16F40094BA
:1052400007D077FD09D00E94552907FC05D03EF410
:10525000909581959F4F0895709561957F4F089522
:10526000052E97FB1EF400940E94472957FD07D096
:105270000E94692907FC03D04EF40C9447295095ED
:105280004095309521953F4F4F4F5F4F0895909532
:105290008095709561957F4F8F4F9F4F0895EE0FCA
:1052A000FF1F0590F491E02D0994AA1BBB1B51E14F
:1052B00007C0AA1FBB1FA617B70710F0A61BB70B86
:1052C000881F991F5A95A9F780959095BC01CD012B
:1052D0000895A1E21A2EAA1BBB1BFD010DC0AA1F37
:1052E000BB1FEE1FFF1FA217B307E407F50720F04F
:1052F000A21BB30BE40BF50B661F771F881F991FCA
:105300001A9469F760957095809590959B01AC0112
:10531000BD01CF0108955058BB27AA270E94A32999
:105320000C941D2B0E940F2B38F00E94162B20F09E
:1053300039F49F3F19F426F40C940C2B0EF4E095ED
:10534000E7FB0C94062BE92F0E942E2B58F3BA177B
:10535000620773078407950720F079F4A6F50C948B
:10536000502B0EF4E0950B2EBA2FA02D0B01B90196
:1053700090010C01CA01A0011124FF27591B99F0CB
:10538000593F50F4503E68F11A16F040A22F232FD7
:10539000342F4427585FF3CF469537952795A79527
:1053A000F0405395C9F77EF41F16BA0B620B730BCE
:1053B000840BBAF09150A1F0FF0FBB1F661F771F3F
:1053C000881FC2F70EC0BA0F621F731F841F48F4F4
:1053D000879577956795B795F7959E3F08F0B0CF7D
:1053E0009395880F08F09927EE0F97958795089564
:1053F0000E94E22A08F481E008950E94112A0C9488
:105400001D2B0E94162B58F00E940F2B40F029F400
:105410005F3F29F00C94062B51110C94512B0C94E6
:105420000C2B0E942E2B68F39923B1F3552391F393
:10543000951B550BBB27AA2762177307840738F003
:105440009F5F5F4F220F331F441FAA1FA9F335D060
:105450000E2E3AF0E0E832D091505040E695001C14
:10546000CAF72BD0FE2F29D0660F771F881FBB1FCE
:10547000261737074807AB07B0E809F0BB0B802DAC
:10548000BF01FF2793585F4F3AF09E3F510578F0D8
:105490000C94062B0C94512B5F3FE4F3983ED4F30D
:1054A000869577956795B795F7959F5FC9F7880FAC
:1054B000911D9695879597F90895E1E0660F771FFE
:1054C000881FBB1F621773078407BA0720F0621B8F
:1054D000730B840BBA0BEE1F88F7E09508950E94BA
:1054E000762A6894B1110C94512B08950E94362BA2
:1054F00088F09F5798F0B92F9927B751B0F0E1F095
:10550000660F771F881F991F1AF0BA95C9F714C044
:10551000B13091F00E94502BB1E008950C94502BC3
:10552000672F782F8827B85F39F0B93FCCF386957D
:1055300077956795B395D9F73EF4909580957095DA
:1055400061957F4F8F4F9F4F0895E89409C097FB57
:105550003EF490958095709561957F4F8F4F9F4F4A
:105560009923A9F0F92F96E9BB279395F69587958E
:1055700077956795B795F111F8CFFAF4BB0F11F451
:1055800060FF1BC06F5F7F4F8F4F9F4F16C08823F8
:1055900011F096E911C0772321F09EE8872F762F2E
:1055A00005C0662371F096E8862F70E060E02AF06F
:1055B0009A95660F771F881FDAF7880F969587955B
:1055C00097F90895990F0008550FAA0BE0E8FEEF30
:1055D00016161706E807F907C0F012161306E407B7
:1055E000F50798F0621B730B840B950B39F40A26B0
:1055F00061F0232B242B252B21F408950A2609F48E
:10560000A140A6958FEF811D811D089597F99F6791
:1056100080E870E060E008959FEF80EC089500243A
:105620000A941616170618060906089500240A9407
:1056300012161306140605060895092E0394000C8D
:1056400011F4882352F0BB0F40F4BF2B11F460FF1C
:1056500004C06F5F7F4F8F4F9F4F089557FD905845
:10566000440F551F59F05F3F71F04795880F97FB26
:10567000991F61F09F3F79F08795089512161306E0
:105680001406551FF2CF4695F1DF08C0161617060F
:105690001806991FF1CF8695710561050894089544
:1056A000E894BB2766277727CB0197F908950E94D6
:1056B000E22A08F48FEF08950E946F2B0C941D2BA3
:1056C0000E940F2B38F00E94162B20F0952311F02A
:1056D0000C94062B0C940C2B11240C94512B0E942F
:1056E0002E2B70F3959FC1F3950F50E0551F629FCD
:1056F000F001729FBB27F00DB11D639FAA27F00D2B
:10570000B11DAA1F649F6627B00DA11D661F829F51
:105710002227B00DA11D621F739FB00DA11D621F36
:10572000839FA00D611D221F749F3327A00D611D53
:10573000231F849F600D211D822F762F6A2F112435
:105740009F5750409AF0F1F088234AF0EE0FFF1F68
:10575000BB1F661F771F881F91505040A9F79E3FBF
:10576000510580F00C94062B0C94512B5F3FE4F311
:10577000983ED4F3869577956795B795F795E79515
:105780009F5FC1F7FE2B880F911D9695879597F91E
:1057900008950F931F93CF93DF938230910510F4F8
:1057A00082E090E0E091F903F091FA0320E030E02C
:1057B000A0E0B0E0309719F140815181028113815E
:1057C00048175907C8F08417950769F4109731F006
:1057D00012960C93129713961C9327C00093F9030B
:1057E0001093FA0322C02115310519F0421753070F
:1057F00018F49A01BD01EF01DF01F801DBCF21159B
:105800003105F9F0281B390B2430310580F48A81E9
:105810009B816115710521F0FB019383828304C094
:105820009093FA038093F903FE01329644C0FE017F
:10583000E20FF31F8193919322503109398328831A
:105840003AC02091F7033091F803232B41F42091C3
:105850001601309117013093F8032093F70320913C
:105860001401309115012115310541F42DB73EB7D2
:105870004091180150911901241B350BE091F70359
:10588000F091F803E217F307A0F42E1B3F0B281743
:10589000390778F0AC014E5F5F4F2417350748F0A9
:1058A0004E0F5F1F5093F8034093F703819391933A
:1058B00002C0E0E0F0E0CF01DF91CF911F910F91A6
:1058C0000895CF93DF93009709F481C0FC013297CC
:1058D00013821282A091F903B091FA03109781F418
:1058E00020813181820F931F2091F7033091F803BB
:1058F0002817390751F5F093F803E093F70367C0D1
:10590000ED0120E030E0CE17DF0740F44A815B81F3
:105910009E0141155105F1F0EA01F5CFD383C28311
:1059200040815181840F951FC817D90759F4888188
:105930009981840F951F0296918380838A819B8130
:10594000938382832115310529F4F093FA03E093C0
:10595000F9033DC0E901FB83EA8349915991C40FE2
:10596000D51FEC17FD0761F480819181840F951F8D
:105970000296E90199838883828193819B838A833C
:10598000E0E0F0E012968D919C911397009719F04A
:10599000FD01DC01F7CF8D919C9111979D012E5F48
:1059A0003F4F820F931F2091F7033091F803281780
:1059B000390769F4309729F41092FA031092F90329
:1059C00002C013821282B093F803A093F703DF9111
:1059D000CF91089581E090E0F8940C94F82CFB01AD
:1059E000DC018D91019080190110D9F3990B089574
:1059F00010E0C1EBD0E004C0FE010E944F292196C7
:0A5A0000C23BD107C9F7F894FFCFAD
:105A0A0000000040400001000000FFFFFFFFC80047
:105A1A00581558150000FB03200001004000C8007B
:105A2A000000004003002000C800000000400700FA
:105A3A00200064000000803F0D000800C80000003C
:105A4A0000400E00080096000000C03F0F0008004A
:105A5A0078009A99993F3200080064000000803F5C
:105A6A00013F5F7F5E00BC0077010000000059150E
:105A7A00BE15C71674165416D916ED160C0074699D
:105A8A006D65286D7329006C61737452504D5469A9
:105A9A006D65006E756D496E74657272757074739A
:105AAA000072706D00746F72717565007468726F40
:105ABA0074746C6550657263656E7400647574798C
:105ACA0050657263656E740070776D4672657175A4
