:100000000C945D000C9485000C9485000C94850084
:100010000C9485000C9485000C9485000C9485004C
:100020000C9485000C9485000C9485000C9485003C
:100030000C9485000C9485000C9485000C9485002C
:100040000C94F4020C9485000C947A030C943E03F7
:100050000C9485000C9485000C9485000C9485000C
:100060000C9485000C9485000000000024002700FB
:100070002A0000000000250028002B0004040404CE
:100080000404040402020202020203030303030342
:10009000010204081020408001020408102001021F
:1000A00004081020000000080002010000030407FB
:1000B0000000000000000000AC0311241FBECFEFC1
:1000C000D8E0DEBFCDBF11E0A0E0B1E0EAE8F3E1A7
:1000D00002C005900D92A437B107D9F722E0A4E73A
:1000E000B1E001C01D92AE35B207E1F710E0CDE5F9
:1000F000D0E004C02197FE010E94BD08CC35D10795
:10010000C9F70E9401040C94C3090C94000090E00C
:10011000FC01EC55FF4F2491FC01E057FF4F349157
:10012000FC01E458FF4F84918823A1F0211118C0ED
:10013000E82FF0E0EE0FFF1FEE58FF4FA591B491AE
:100140008FB7F894611107C09C91E32FE095E923E4
:10015000EC938FBF0895EC91E32BEC938FBFFACF14
:10016000233029F160F02730E1F02830A1F024306D
:10017000F9F6909180009F7D90938000D9CF213037
:1001800031F02230A9F694B59F7D94BDD1CF94B5BE
:100190009F7794BDCDCF9091B0009F7D9093B0009C
:1001A000C7CF9091B0009F779093B000C1CF90914E
:1001B00080009F7790938000BBCFCF93DF9390E038
:1001C000FC01E057FF4F2491FC01E458FF4F84915C
:1001D0008823B9F090E0880F991FFC01E859FF4F80
:1001E000A591B491FC01EE58FF4FC591D4916623BF
:1001F00059F06230A9F08FB7F894EC91E22BEC93B0
:100200008FBFDF91CF9108959FB7F8948C91E22F23
:10021000E0958E238C932881E223E8839FBFF1CF62
:100220009FB7F8948C91322F309583238C93E8817B
:10023000E22BE8839FBFE5CFFC01918D228D892FB2
:1002400090E0805C9F4F821B91098F7399270895DE
:100250002091C2018091C30130E0205C3F4F281BF8
:1002600031092F73332781E0232B09F480E00895AF
:10027000FC0181E0808F938D848D981709F448C02C
:10028000238D30E02F5F3F4F2F733327922F03C012
:100290000FB607FE17C0848D9817D1F3838DDF0149
:1002A000A80FB11DA35ABF4F6C939FB7F894238F2B
:1002B0000288F389E02D8081806280839FBF81E086
:1002C00090E00895A089B1898C9185FFE4CF848D59
:1002D000DF01A80FB11DA35ABF4F8C91448D50E090
:1002E0004F5F5F4F4F735527448FA689B7898C9313
:1002F000A089B1898C91837080648C93438D848DA7
:100300004813C9CFA289B3898C918F7D8C93C3CFB9
:10031000A089B1898C9185FFB3CF9FB7F894A68946
:10032000B7896C930088F189E02D808183708064A7
:1003300080839FBF81E090E00895BF92CF92DF92CB
:10034000EF92FF920F931F93CF93DF9341155105C7
:1003500009F486C06A01EC017B0100E010E0BB24D7
:10036000B394E881F9810190F081E02DD7016D917E
:100370007D01B1E0E833FB0709F06CC0B88E9B8DBE
:100380008C8D981709F454C02B8D30E02F5F3F4FB0
:100390002F733327922F03C00FB607FE23C08C8D17
:1003A0009817D1F38B8DFE01E80FF11DE35AFF4F33
:1003B00060839FB7F8942B8FEA89FB8980818062E4
:1003C00080839FBF0F5F1F4FC016D10651F6C80133
:1003D000DF91CF911F910F91FF90EF90DF90CF9021
:1003E000BF900895E889F989808185FFD8CF8C8DE9
:1003F000FE01E80FF11DE35AFF4F80814C8D50E064
:100400004F5F5F4F4F7355274C8FEE89FF89808375
:10041000E889F98980818370806480834B8D8C8D1D
:100420004813BDCFEA89FB8980818F7D8083B7CF58
:10043000E889F989808185FFA7CF9FB7F894EE8975
:10044000FF896083E889F989808183708064808373
:100450009FBFB8CFCE010995892B09F0B3CFB7CF95
:1004600000E010E0B4CF089580E090E00895CF93CD
:10047000DF93DC0158968C915897882309F447C084
:100480005296ED91FC9153975096CD91DC915197F6
:10049000908195FF39C00FB607FCFACF908195FF88
:1004A000F7CF888185FFF4CF5C968C915C97FD0136
:1004B000E80FF11DE35AFF4F20815C968C915C9709
:1004C00090E001968F7399275C968C935C97569673
:1004D000ED91FC91579720835096ED91FC915197A7
:1004E00080818370806480835B969C915B975C962F
:1004F0008C915C979813C4CF5296ED91FC915397D1
:1005000080818F7D8083BCCF888186FFC4CFDF91BF
:10051000CF910895FC01238D348D231730F4832F60
:1005200090E0821B9109019708958FE390E0821B70
:100530009109830F911D0895FC01918D828D98176B
:1005400061F0828DDF01A80FB11D5D968C91928DB7
:100550009F5F9F73928F90E008958FEF9FEF0895B4
:10056000FC01918D828D981731F0828DE80FF11D7D
:10057000858D90E008958FEF9FEF089580E090E0E3
:10058000892B79F08091C2012091C30190E0805CB9
:100590009F4F821B91098F739927892B11F00C941F
:1005A00000000895009769F0FC0101900020E9F730
:1005B0003197AF01481B590BBC0189EA91E00C94BB
:1005C0009D0180E090E00895CF93DF930E94D202D6
:1005D000EC0182E191E00E94D2028C0F9D1FDF911D
:1005E000CF9108950E94BE091F920F920FB60F92ED
:1005F00011242F933F938F939F93AF93BF93809139
:10060000A5019091A601A091A701B091A8013091F8
:10061000A40123E0230F2D3768F126E8230F02966B
:10062000A11DB11D2093A4018093A5019093A60163
:10063000A093A701B093A8018091A0019091A1017E
:10064000A091A201B091A3010196A11DB11D8093BB
:10065000A0019093A101A093A201B093A301BF9127
:10066000AF919F918F913F912F910F900FBE0F905F
:100670001F9018950196A11DB11DD4CF1F920F9206
:100680000FB60F9211242F938F939F93EF93FF93A5
:10069000E091C501F0E0EA5FFD4F20818091C50146
:1006A00090E001968F7399278093C501E091BF0177
:1006B000F091C0012083E091B901F091BA018081ED
:1006C0008370806480839091C4018091C5019813E8
:1006D00007C0E091BB01F091BC0180818F7D8083D8
:1006E000FF91EF919F918F912F910F900FBE0F90DF
:1006F0001F9018951F920F920FB60F9211242F93EF
:100700008F939F93EF93FF93E091B901F091BA011A
:100710008081E091BF01F091C00182FF0BC0808118
:10072000FF91EF919F918F912F910F900FBE0F909E
:100730001F90189520818091C2018F5F8F739091D7
:10074000C301891769F3E091C201F0E0E755FE4F5C
:10075000258F8093C201E4CFE9EAF1E0138212828F
:1007600088EE93E0A0E0B0E084839583A683B7830E
:1007700084E091E09183808385EC90E09587848785
:1007800084EC90E09787868780EC90E0918B808B5B
:1007900081EC90E0938B828B82EC90E0958B848B44
:1007A00086EC90E0978B868B118E128E138E148EB2
:1007B000E6E4F2E0108211821282138284EF91E06B
:1007C00095838483E2E5F2E0108211821282138223
:1007D00081E090E095838483ECE4F2E01082118262
:1007E000128213828AE090E095838483E8E5F2E048
:1007F000108211821282138284E690E095838483B2
:100800000895789484B5826084BD84B5816084BD88
:1008100085B5826085BD85B5816085BD80916E009E
:10082000816080936E0010928100809181008260CF
:10083000809381008091810081608093810080910C
:1008400080008160809380008091B10084608093FB
:10085000B1008091B00081608093B00080917A00F7
:10086000846080937A0080917A00826080937A001D
:1008700080917A00816080937A0080917A0080680C
:1008800080937A001092C10061E083E00E94DD0055
:1008900061E08BE00E94DD0061E08CE00E94DD0001
:1008A00061E08DE00E94DD0060E080E10E94DD00FB
:1008B00060E08EE00E94DD0060E08FE00E94DD00DD
:1008C00060E081E10E94DD0060E083E00E9487003B
:1008D00060E08BE00E94870061E08CE00E9487006E
:1008E00060E08DE00E948700E091B901F091BA01CB
:1008F00082E08083E091B501F091B6011082E09131
:10090000B701F091B80180E180831092C101E091BC
:10091000BD01F091BE0186E08083E091BB01F091C2
:10092000BC01808180618083E091BB01F091BC01BA
:10093000808188608083E091BB01F091BC0180815F
:1009400080688083E091BB01F091BC0180818F7D44
:10095000808381E090E0909389018093880185E114
:1009600091E00E94E4028FE291E00E94E40286E5B9
:1009700091E00E94D20286E691E00E94E40280E4C7
:1009800080937C0080917A00806480937A008091CB
:100990007A0086FDFCCF80917800809179001092DA
:1009A0007F0110927E0140E490917A0080917A005C
:1009B000887F846080937A0040937C0080917A00E5
:1009C000806480937A0080917A0086FDFCCF8091CC
:1009D00078002091790090937A0090E0922B2091FA
:1009E000780130917901820F931F90937901809360
:1009F000780120917E0130917F012F5F3F4F30932E
:100A00007F0120937E012530310574F265E070E0AE
:100A10000E949508709379016093780110927F018C
:100A200010927E0140E490917A0080917A00887F54
:100A3000846080937A0040937C0080917A00806487
:100A400080937A0080917A0086FDFCCF80917800B7
:100A50002091790090937A0090E0922B20917C0174
:100A600030917D01820F931F90937D0180937C01D3
:100A700020917E0130917F012F5F3F4F30937F01A6
:100A800020937E012436310574F264E670E00E9402
:100A9000950870937B0160937A0100E010E044E6D2
:100AA000842E912C55E0252E312C62E4A62E83EA6B
:100AB000C82E9AE0B92EFF24F39420E4D22E33E41A
:100AC000E32ECAE9D1E080919E0190919F0197FDAC
:100AD000EEC2853691050CF4D9C224E630E030939D
:100AE0009F0120939E0120919C0130919D0124360D
:100AF0003105C1F084E690E0232B49F4C092B000A8
:100B0000B092B10033E63093B30080919E018150E2
:100B10008093B40080919E0190919F0190939D01DC
:100B200080939C01109277011092760190917A0047
:100B300080917A00887F846080937A00A0927C0004
:100B400080917A00806480937A0080917A0086FD9B
:100B5000FCCF809178002091790090937A0090E00A
:100B6000922B2091740130917501820F931F909305
:100B700075018093740120917601309177012F5F88
:100B80003F4F30937701209376012530310574F281
:100B9000B1010E9495086D3C71050CF46EC265337D
:100BA00093E079070CF494C224E333E030937501A9
:100BB0002093740193E080E090939A0180939B01CD
:100BC0008FB7F8944091A5015091A6016091A701BB
:100BD0007091A8018FBF8091580290915902A09105
:100BE0005A02B0915B022A013B01481A590A6A0A6B
:100BF0007B0A80915C0290915D02092E000CAA0B89
:100C0000BB0B481659066A067B06A8F140935802AA
:100C10005093590260935A0270935B0280919E0137
:100C200090919F0120919A0130919B018217930727
:100C30000CF46FC2281739075CF4019790939F0159
:100C400080939E0124E630E030935D0220935C02A5
:100C5000209182013091830137FD51C210928101B0
:100C60002D3231400CF452C2029790939F01809331
:100C70009E01F09280018FB7F8944091A5015091A8
:100C8000A6016091A7017091A8018FBF80915202C7
:100C900090915302A0915402B09155022A013B0158
:100CA000481A590A6A0A7B0A8091560290915702A3
:100CB000092E000CAA0BBB0B481659066A067B06C8
:100CC00008F45FC040935202509353026093540261
:100CD0007093550210927F0110927E0120917C0149
:100CE00030917D0140917A0150917B01241B350B9D
:100CF00030937D0120937C0190917A0080917A005D
:100D0000887F846080937A00D0927C0080917A0002
:100D1000806480937A0080917A0086FDFCCF2091D8
:100D200078008091790090937A0030E0382B8091A0
:100D30007C0190917D01280F391F30937D01209314
:100D40007C01C901B4010E949508AB0170937B013D
:100D500060937A0180917E0190917F01019690933A
:100D60007F0180937E01843691050CF4BFCF809182
:100D7000780190917901681B790B709383016093DE
:100D800082018FB7F8944091A5015091A60160911E
:100D9000A7017091A8018FBF80914C0290914D02E4
:100DA000A0914E02B0914F022A013B01481A590A04
:100DB0006A0A7B0A8091500290915102092E000C20
:100DC000AA0BBB0B481659066A067B0608F445C0F9
:100DD00040934C0250934D0260934E0270934F0229
:100DE00010927F0110927E0190917A0080917A009A
:100DF000887F846080937A00E0927C0080917A0002
:100E0000806480937A0080917A0086FDFCCF809187
:100E100078002091790090937A0090E0922B2091B5
:100E2000840130918501820F931F909385018093F7
:100E3000840120917E0130917F012F5F3F4F3093DD
:100E40007F0120937E012530310574F2B1010E94AB
:100E5000950870938501609384018FB7F894409151
:100E6000A5015091A6016091A7017091A8018FBFC3
:100E70008091460290914702A0914802B0914902A8
:100E80002A013B01481A590A6A0A7B0A80914A02E0
:100E900090914B02092E000CAA0BBB0B4816590669
:100EA0006A067B0608F48FC04093460250934702BF
:100EB000609348027093490280919A0190919B013E
:100EC00090938B0180938A0180919E0190919F0164
:100ED00090938D0180938C016091840170918501C4
:100EE000072E000C880B990B0E94C50823E333E3FF
:100EF00043E35DE30E94000960938E0170938F01CC
:100F0000809390019093910160918201709183018F
:100F1000072E000C880B990B0E94C50820E030E0DA
:100F200048EC5DE30E940009609392017093930185
:100F30008093940190939501809181018093960113
:100F400080918001809397011092980110929901ED
:100F500084E190E09093870180938601A6E8B1E058
:100F60004D91F092C1019091C4018091C501E09131
:100F7000B901F091BA01981709F46BC02091C4012E
:100F800030E02F5F3F4F2F733327922F03C00FB6F0
:100F900007FE2EC08091C5019817C9F3E091C401E6
:100FA000F0E0EA5FFD4F40839FB7F8942093C401BF
:100FB000E091BB01F091BC018081806280839FBF82
:100FC000CA17DB0769F60115110509F47CCD80917C
:100FD000C2012091C30190E0805C9F4F821B910968
:100FE0008F739927892B09F46ECD0E9400005FCD85
:100FF000808185FFCFCFE091C501F0E0EA5FFD4F32
:1010000080816091C50170E06F5F7F4F6F737727BC
:101010006093C501E091BF01F091C0018083E09130
:10102000B901F091BA01808183708064808350910E
:10103000C4018091C501581307C0E091BB01F09134
:10104000BC0180818F7D8083E091B901F091BA016C
:10105000A1CF808185FF92CF9FB7F894E091BF0127
:10106000F091C0014083E091B901F091BA01808113
:101070008370806480839FBFA3CF8DEC90E09093BA
:1010800075018093740190E080E096CD20919C01E1
:1010900030919D018217930709F444CD009709F020
:1010A0002BCD8091B0008F758093B00033CD10921E
:1010B0009F0110929E0180919C0190919D01892B2E
:1010C00009F430CD8091B0008F758093B00022CDAF
:1010D00070937501609374016D5C71098DE491E00A
:1010E000689F9001699F300D789F300D1124932FD8
:1010F000959595959595832F880F880B5DCD0196D5
:1011000090939F0180939E01F09281011092800143
:10111000B2CD019690939F0180939E012CE330E025
:1011200030935D0220935C0293CD97FB072E16F45B
:10113000009407D077FD09D00E94A90807FC05D0CC
:101140003EF4909581959F4F0895709561957F4FDE
:101150000895AA1BBB1B51E107C0AA1FBB1FA617FE
:10116000B70710F0A61BB70B881F991F5A95A9F750
:1011700080959095BC01CD010895EE0FFF1F05905D
:10118000F491E02D0994E89409C097FB3EF4909502
:101190008095709561957F4F8F4F9F4F9923A9F050
:1011A000F92F96E9BB279395F695879577956795DF
:1011B000B795F111F8CFFAF4BB0F11F460FF1BC023
:1011C0006F5F7F4F8F4F9F4F16C0882311F096E9B6
:1011D00011C0772321F09EE8872F762F05C0662364
:1011E00071F096E8862F70E060E02AF09A95660F1D
:1011F000771F881FDAF7880F9695879597F90895D6
:101200000E9413090C9484090E94760938F00E9408
:101210007D0920F0952311F00C946D090C9473094D
:1012200011240C94B8090E94950970F3959FC1F39D
:10123000950F50E0551F629FF001729FBB27F00D84
:10124000B11D639FAA27F00DB11DAA1F649F6627D9
:10125000B00DA11D661F829F2227B00DA11D621F28
:10126000739FB00DA11D621F839FA00D611D221FE2
:10127000749F3327A00D611D231F849F600D211DC6
:10128000822F762F6A2F11249F5750409AF0F1F049
:1012900088234AF0EE0FFF1FBB1F661F771F881FB2
:1012A00091505040A9F79E3F510580F00C946D0974
:1012B0000C94B8095F3FE4F3983ED4F38695779594
:1012C0006795B795F795E7959F5FC1F7FE2B880F58
:1012D000911D9695879597F9089597F99F6780E8EE
:1012E00070E060E008959FEF80EC089500240A9478
:1012F0001616170618060906089500240A941216F1
:101300001306140605060895092E0394000C11F423
:10131000882352F0BB0F40F4BF2B11F460FF04C0D0
:101320006F5F7F4F8F4F9F4F089557FD9058440F29
:10133000551F59F05F3F71F04795880F97FB991F34
:1013400061F09F3F79F087950895121613061406F1
:10135000551FF2CF4695F1DF08C01616170618067E
:10136000991FF1CF86957105610508940895E89459
:10137000BB2766277727CB0197F9089581E090E096
:0A138000F8940C94C309F894FFCF11
:10138A000000000038019D018A0237021C019C02FC
:10139A00B0020D0A004D6F746F7220436F6E747243
:1013AA006F6C6C6572204669726D77617265004375
:1013BA006F70797269676874202863292032303225
:1013CA0030204170706C69656420456E67696E658E
:1013DA006572696E6700426F6F7465642076657224
:1013EA0073696F6E2000323032302E30332E313531
:0413FA002D31000091
:00000001FF
