:100000000C9461000C9473000C9473000C947300B6
:100010000C9473000C9473000C9473000C94730094
:100020000C9473000C9473000C9473000C94730084
:100030000C9473000C9473000C9473000C94730074
:100040000C9496020C9473000C9473000C9473003F
:100050000C9473000C9473000C9473000C94730054
:100060000C9473000C94730000000000240027001F
:100070002A0000000000250028002B0000000000DE
:1000800023002600290004040404040404040202DA
:100090000202020203030303030301020408102007
:1000A0004080010204081020010204081020000012
:1000B0000008000201000003040700000000000027
:1000C000000011241FBECFEFD8E0DEBFCDBF21E07E
:1000D000A0E0B1E001C01D92A631B207E1F70E9495
:1000E000F1020C94FE020C940000833069F028F4B5
:1000F0008130B1F08230C1F008958730C9F0883086
:10010000E9F0843001F506C0E0E8F0E080818F7707
:1001100080830895E0E8F0E080818F7D80830895FA
:1001200084B58F7784BD089584B58F7D84BD08958F
:10013000E0EBF0E080818F7780830895E0EBF0E0E2
:1001400080818F7D80830895CF93DF93282F30E0C7
:10015000F901E255FF4F8491F901E656FF4FD49122
:10016000F901EA57FF4FC491CC2389F081110E9415
:100170007500EC2FF0E0EE0FFF1FE458FF4FA59144
:10018000B491EC91ED2331F081E090E005C080E086
:1001900090E002C080E090E0DF91CF9108951F933E
:1001A000CF93DF93282F30E0F901E255FF4F849180
:1001B000F901E656FF4F1491F901EA57FF4FC49138
:1001C000CC23D1F0D62F81110E947500EC2FF0E0E6
:1001D000EE0FFF1FEE58FF4FA591B4918FB7F89423
:1001E000D11106C09C91E12FE095E923EC9303C067
:1001F000EC91E12BEC938FBFDF91CF911F9108958C
:10020000CF93DF9390E0FC01E656FF4F2491FC0171
:10021000EA57FF4F8491882379F190E0880F991F66
:10022000FC01E859FF4FA591B491FC01EE58FF4F36
:10023000C591D49161110CC09FB7F8948C91E22FB5
:10024000E0958E238C932881E223E8839FBF14C01E
:10025000623061F49FB7F8948C91322F30958323EC
:100260008C93E881E22BE8839FBF06C08FB7F89498
:10027000EC91E22BEC938FBFDF91CF9108958E30FC
:1002800008F08E508770806480937C00EAE7F0E08D
:1002900080818064808380917A0086FDFCCF2091EC
:1002A00078008091790090E0982F8827822B08951C
:1002B000789484B5826084BD84B5816084BD85B541
:1002C000826085BD85B5816085BDEEE6F0E0808108
:1002D00081608083E1E8F0E0108280818260808329
:1002E000808181608083E0E8F0E0808181608083AC
:1002F000E1EBF0E0808184608083E0EBF0E08081DE
:1003000081608083EAE7F0E080818460808380817F
:100310008260808380818160808380818068808327
:100320001092C10008952FB7F89460911201709156
:10033000130180911401909115012FBF0895089524
:100340008091040190910501892B21F488E080932C
:10035000B100089583EA8093B0008AE08093B100F1
:1003600083E68093B3008091040181508093B400B0
:100370000895CF92DF92EF92FF920F931F9380E048
:100380000E94A400019719F410920C0103C081E0AF
:1003900080930C0180910C0190910B0189131092B4
:1003A0000A0180930B0180910A01811152C00E94C1
:1003B00093010091060110910701209108013091ED
:1003C00009016B017C01C01AD10AE20AF30A970104
:1003D00086010233110521053105D8F1609306012C
:1003E00070930701809308019093090180910C019B
:1003F000882371F0209104013091050124363105E4
:100400003CF42F5F3F4F309305012093040112C04D
:1004100081110DC0809104019091050118161906F3
:1004200034F40197909305018093040103C081E0A7
:1004300080930A010E94A0018EE00E943F0120915A
:10044000000130910101821B930B90930301809373
:1004500002018091020190910301893C910554F0C1
:1004600020910401309105012A5031093093050192
:100470002093040199234CF480910401909105018B
:100480000196909305018093040181E10E943F0150
:100490008F3292404CF480910401909105010A97AB
:1004A00090930501809304011F910F91FF90EF90AD
:1004B000DF90CF90089561E083E00E94000161E049
:1004C0008CE00E94000161E08DE00E94000162E08A
:1004D00080E00E94000160E08EE00E94000160E088
:1004E0008FE00E94000160E081E10E94000160E075
:1004F00083E00E94CF0061E08CE00E94CF0060E0CA
:100500008DE00E94CF008EE00E943F0161E083E019
:100510000E94CF008EE00E943F01909301018093E2
:10052000000160E083E00E94CF0008951F920F92C7
:100530000FB60F9211240F931F932F933F934F9356
:100540005F936F937F938F939F93AF93BF9300912C
:100550001201109113012091140130911501909115
:100560001101B901A8014F5F5F4F6F4F7F4F83E0CB
:10057000890F8D3740F086E8890FB901A8014E5FD9
:100580005F4F6F4F7F4F8093110140931201509343
:100590001301609314017093150180910D019091E6
:1005A0000E01A0910F01B09110010196A11DB11D86
:1005B00080930D0190930E01A0930F01B093100151
:1005C000BF91AF919F918F917F916F915F914F916B
:1005D0003F912F911F910F910F900FBE0F901F9081
:1005E00018950E9458010E945B020E94B90180E0A8
:1005F00090E0892BD1F30E940000F7CFF894FFCF51
:00000001FF
