:100000000C9473000C949B000C949B000C949B002C
:100010000C949B000C949B000C949B000C949B00F4
:100020000C949B000C949B000C949B000C949B00E4
:100030000C949B000C949B000C949B000C949B00D4
:100040000C949D0D0C949B000C94230E0C94E70DC6
:100050000C949B000C949B000C949B000C949B00B4
:100060000C949B000C949B000000000024002700CF
:100070002A0000000000250028002B0000000008D6
:10008000000201000003040700000000000000005F
:10009000005EBCE2613FDD83C29C7E20A3FD1F4168
:1000A000009D23BE46DB65F88C11AF32CA57E97458
:1000B00000000000230026002900040404040404B6
:1000C0000404020202020202030303030303010207
:1000D00004081020408001020408102001020408D6
:1000E0001020550E542911241FBECFEFD8E0DEBFDB
:1000F000CDBF11E0A0E0B1E0ECE4FAE502C005906C
:100100000D92A83CB107D9F723E0A8ECB1E001C0FB
:100110001D92A039B207E1F710E0C2E7D0E004C0B9
:100120002197FE010E94A729C137D107C9F70E9474
:10013000C50F0C94192D0C940000CF93DF93FC0194
:10014000A181B2818081282F209560FD13C2F8948F
:1001500012969C911297922312969C931297119645
:100160009C911197982B11969C931197CFEFD0E00B
:100170002197F1F712969C911297892B12968C93E6
:1001800078948FE090E00197F1F7A181B2818081AE
:10019000282F209561FDCFC1F89412969C9112975B
:1001A000922312969C93129711969C911197982BDB
:1001B00011969C931197CFEFD0E02197F1F712960B
:1001C0009C911297892B12968C9378948FE090E0F3
:1001D0000197F1F7A181B2818081282F209562FDDE
:1001E0008BC1F89412969C911297922312969C932D
:1001F000129711969C911197982B11969C93119799
:10020000CFEFD0E02197F1F712969C911297892BAE
:1002100012968C9378948FE090E00197F1F7A1818A
:10022000B2818081282F209563FD47C1F8941296F2
:100230009C911297922312969C93129711969C91DF
:100240001197982B11969C931197CFEFD0E021979F
:10025000F1F712969C911297892B12968C937894B1
:100260008FE090E00197F1F7A181B2818081282F82
:10027000209564FD03C1F89412969C9112979223E5
:1002800012969C93129711969C911197982B119608
:100290009C931197CFEFD0E02197F1F712969C91A4
:1002A0001297892B12968C9378948FE090E00197A7
:1002B000F1F7A181B2818081282F209565FDBFC013
:1002C000F89412969C911297922312969C931297EF
:1002D00011969C911197982B11969C931197CFEFA3
:1002E000D0E02197F1F712969C911297892B1296E4
:1002F0008C9378948FE090E00197F1F7A181B2811F
:100300008081282F209566FD7BC0F89412969C91E1
:100310001297922312969C93129711969C91119783
:10032000982B11969C931197CFEFD0E02197F1F77E
:1003300012969C911297892B12968C9378948FE049
:1003400090E00197F1F7A181B2818081282F20955B
:1003500067FF37C0F89412969C91129792231296D9
:100360009C93129711969C911197982B11969C93A0
:100370001197C3E2D0E02197F1F712969C91129762
:10038000892B12968C93789487ED90E00197F1F782
:10039000F894A181B28111969C91119780818095EA
:1003A000892311968C93A181B28112969C91129708
:1003B00080818095892312968C937894DF91CF91D8
:1003C0000895F89412969C911297922312969C93FA
:1003D000129711969C911197982B11969C931197B7
:1003E000CFEFD0E02197F1F712969C911297892BCD
:1003F00012968C9378948FE090E00197F1F7C8CF34
:10040000F89412969C911297922312969C931297AD
:1004100011969C911197982B11969C931197C3E27A
:10042000D0E02197F1F712969C911297892B1296A2
:100430008C93789487ED90E00197F1F784CFF8944E
:1004400012969C911297922312969C931297119652
:100450009C911197982B11969C931197C3E2D0E031
:100460002197F1F712969C911297892B12968C93F3
:10047000789487ED90E00197F1F740CFF8941296C9
:100480009C911297922312969C93129711969C918D
:100490001197982B11969C931197C3E2D0E0219766
:1004A000F1F712969C911297892B12968C9378945F
:1004B00087ED90E00197F1F7FCCEF89412969C91AD
:1004C0001297922312969C93129711969C911197D2
:1004D000982B11969C931197C3E2D0E02197F1F7E6
:1004E00012969C911297892B12968C93789487ED93
:1004F00090E00197F1F7B8CEF89412969C9112977C
:10050000922312969C93129711969C911197982B77
:1005100011969C931197C3E2D0E02197F1F71296C0
:100520009C911297892B12968C93789487ED90E08A
:100530000197F1F774CEF89412969C91129792233A
:1005400012969C93129711969C911197982B119645
:100550009C931197C3E2D0E02197F1F712969C91FA
:100560001297892B12968C93789487ED90E00197DF
:10057000F1F730CEF89412969C911297922312962E
:100580009C93129711969C911197982B11969C937E
:100590001197C3E2D0E02197F1F712969C91129740
:1005A000892B12968C93789487ED90E00197F1F760
:1005B000ECCDDC013C911196ED91FC91F894818198
:1005C000632F60958623818378942CE743E050E085
:1005D00002C0215031F1CA010197F1F780818323D4
:1005E000C1F3F8948281862382838181832B818366
:1005F00078948BE797E00197F1F7F894818168236D
:10060000618383E191E00197F1F78081382381E0F4
:1006100031F47894E3E6F6E03197F1F7089580E05D
:10062000F8CF80E00895FC0181E0808F938D848D68
:10063000981709F448C0238D30E02F5F3F4F2F7388
:100640003327822F03C00FB607FE17C0948D98176B
:10065000D1F3A38DAE0FBF2FB11DA35ABF4F6C9323
:100660009FB7F894238F0288F389E02D8081806200
:1006700080839FBF81E090E00895A089B1899C911B
:1006800095FFE4CFA48DAE0FBF2FB11DA35ABF4F6E
:100690009C91448D50E04F5F5F4F4F735527448FBF
:1006A000A689B7899C93A089B1899C919370906425
:1006B0009C93438D948D4913C9CFA289B3899C9192
:1006C0009F7D9C93C3CFA089B1898C9185FFB3CFC7
:1006D0009FB7F894A689B7896C930088F189E02DBB
:1006E00080818370806480839FBF81E090E0089563
:1006F00090E0FC01E458FF4F2491FC01E253FF4FCE
:10070000349186549F4FFC0184918823A1F02111DC
:1007100018C0E82FF0E0EE0FFF1FEE58FF4FA59135
:10072000B4918FB7F894611107C09C91E32FE095C5
:10073000E923EC938FBF0895EC91E32BEC938FBFEB
:10074000FACF233029F160F02730E1F02830A1F012
:100750002430F9F6909180009F7D90938000D9CF4E
:10076000213031F02230A9F694B59F7D94BDD1CFD0
:1007700094B59F7794BDCDCF9091B0009F7D90931D
:10078000B000C7CF9091B0009F779093B000C1CFD9
:10079000909180009F7790938000BBCF8F929F9223
:1007A000AF92BF92CF92DF92EF92FF92CF93DF93FF
:1007B000E0915C0380915E03882329F080915903C6
:1007C000882309F4A7C0E950BEEECB2EB2E0DB2EA1
:1007D000E12CF12CE33008F478C080915A038111A8
:1007E00084C09FB7F8944091F2015091F301609159
:1007F000F4017091F50186B5A8995FC09FBF762F6F
:10080000652F542F4427480F511D611D711D440F42
:10081000551F661F771F440F551F661F771FC11492
:10082000D104E104F104D1F13FB7F8948091F201D1
:100830009091F301A091F401B091F50126B5A89B28
:1008400005C02F3F19F00196A11DB11D3FBFBA2F62
:10085000A92F982F8827820F911DA11DB11D880FE8
:10086000991FAA1FBB1F880F991FAA1FBB1F841B9C
:10087000950BA60BB70B883E9340A105B105A0F2DE
:1008800081E0C81AD108E108F10848515C4F6F4F68
:100890007F4FC114D104E104F10431F680915A0371
:1008A000811129C0DF91CF91FF90EF90DF90CF9021
:1008B000BF90AF909F908F9008958F3F09F49ECF87
:1008C0004F5F5F4F6F4F7F4F99CFF0E0EE0FFF1FED
:1008D000EB5AFE4FC080D1800D2C000CEE08FF08B3
:1008E00080915A03882309F47CCF60E080915B03F8
:1008F0000E94780376CF61E080915B03DF91CF9116
:10090000FF90EF90DF90CF90BF90AF909F908F902F
:100910000C9478038FB7F8948090F6019090F701CB
:10092000A090F801B090F9018FBF67E070E043E25A
:1009300050E0AFECB0E01BC07894CD010197F1F727
:100940008FB7F894C090F601D090F701E090F801CD
:10095000F090F9018FBFC818D908EA08FB082EEEFD
:10096000C21622E0D206E104F10408F09BCFE09128
:100970006203F091630380810180F281E02DF8949D
:100980009181982B91832281382F309523232283C4
:10099000EB012197F1F7918193239183EA0121974C
:1009A000F1F79081892309F4C7CF78948FEC90E018
:1009B0000197F1F777CFCF93DF9390E0FC01E253FB
:1009C000FF4F249186549F4FFC0184918823A9F006
:1009D00090E0880F991FFC01E859FF4FA591B49151
:1009E000FC01EE58FF4FC591D491662349F08FB7B3
:1009F000F894EC91E22BEC938FBFDF91CF910895A7
:100A00009FB7F8948C91E22FE0958E238C932881E8
:100A1000E223E8839FBFF1CFFC01918D228D892FC6
:100A200090E0805C9F4F821B91098F7399270895F6
:100A3000BF92CF92DF92EF92FF920F931F93CF93CB
:100A4000DF934115510509F486C06A01EC017B0171
:100A500010E000E0BB24B394E881F9810190F081BB
:100A6000E02DD7016D917D01B3E0E331FB0709F083
:100A70006CC0B88E9B8D8C8D981709F454C02B8D4B
:100A800030E02F5F3F4F2F733327822F03C00FB605
:100A900007FE23C09C8D8917D1F3EB8DEC0FFD2F42
:100AA000F11DE35AFF4F60839FB7F8942B8FEA89BB
:100AB000FB898081806280839FBF0F5F1F4FC016BC
:100AC000D10651F6C801DF91CF911F910F91FF9090
:100AD000EF90DF90CF90BF900895E889F9899081D9
:100AE00095FFD8CFEC8DEC0FFD2FF11DE35AFF4F92
:100AF00090814C8D50E04F5F5F4F4F7355274C8F67
:100B0000EE89FF899083E889F989908193709064D8
:100B100090834B8D9C8D4913BDCFEA89FB899081D1
:100B20009F7D9083B7CFE889F989808185FFA7CF22
:100B30009FB7F894EE89FF896083E889F9898081FD
:100B40008370806480839FBFB8CFCE010995892BC5
:100B500009F4B8CFB2CF10E000E0B4CF2091130277
:100B60008091140230E0205C3F4F281B31092F7325
:100B7000332781E0232B09F480E00895CF93DF939E
:100B8000EC01888D882399F1EA89FB89A889B989C4
:100B9000908195FD03C09C9196FD29C00FB607FC7E
:100BA000F7CF808185FFF4CF8C9185FFF1CFEC8D5D
:100BB000EC0FFD2FF11DE35AFF4F20818C8D90E04B
:100BC00001968F7399278C8FEE89FF892083E8899E
:100BD000F98980818370806480839B8D8C8D9813CC
:100BE000D3CFEA89FB8980818F7D8083CDCFDF9150
:100BF000CF910895FC01938D848D981720F4891B63
:100C0000990B019708952FE330E0291B3109820FDA
:100C1000932F911D0895FC01918D828D981761F09D
:100C2000A28DAE0FBF2FB11D5D968C91928D9F5FEF
:100C30009F73928F90E008958FEF9FEF0895FC01CE
:100C4000918D828D981731F0828DE80FF11D858D81
:100C500090E008958FEF9FEF089580E090E0892B5A
:100C600069F0809113022091140290E0805C9F4F04
:100C7000821B91098F739927892B09F408950C948D
:100C80000000AF92BF92CF92DF92EF92FF920F934C
:100C90001F93CF93DF93EC017B0165E50E949D00DC
:100CA000870188E0E80EF11C83E2A82EB12C67EDE5
:100CB00070E04FEF50E02FE030E0CDC0F894D280EC
:100CC000DC20D282D180D92AD182DA011197F1F7C2
:100CD000D2809D2992837894F9013197F1F7E981C7
:100CE000FA819881C92EC09481FDD7C0F894D28032
:100CF000DC20D282D180D92AD182DA011197F1F792
:100D0000D2809D2992837894F9013197F1F7E98196
:100D1000FA819881C92EC09482FDD7C0F894D28000
:100D2000DC20D282D180D92AD182DA011197F1F761
:100D3000D2809D2992837894F9013197F1F7E98166
:100D4000FA819881C92EC09483FDD7C0F894D280CF
:100D5000DC20D282D180D92AD182DA011197F1F731
:100D6000D2809D2992837894F9013197F1F7E98136
:100D7000FA819881C92EC09484FDD7C0F894D2809E
:100D8000DC20D282D180D92AD182DA011197F1F701
:100D9000D2809D2992837894F9013197F1F7E98106
:100DA000FA819881C92EC09485FDD7C0F894D2806D
:100DB000DC20D282D180D92AD182DA011197F1F7D1
:100DC000D2809D2992837894F9013197F1F7E981D6
:100DD000FA819881C92EC09486FDD7C0F894D2803C
:100DE000DC20D282D180D92AD182DA011197F1F7A1
:100DF000D2809D2992837894F9013197F1F7E981A6
:100E0000FA819881D92ED09487FFD7C0F894828137
:100E10008D2182838181892B8183D5011197F1F7FF
:100E20008281982B92837894CB010197F1F7F89403
:100E3000E981FA8191818881809589238183E98183
:100E4000FA81928188818095892382837894E01643
:100E5000F10609F4C4C0D8018D918D01E981FA81B0
:100E60009881C92EC09480FF29CFF894D280DC20CD
:100E7000D282D180D92AD182D5011197F1F7D280BF
:100E80009D2992837894FB013197F1F7E981FA81EA
:100E90009881C92EC09481FF29CFF894D280DC209C
:100EA000D282D180D92AD182D5011197F1F7D2808F
:100EB0009D2992837894FB013197F1F7E981FA81BA
:100EC0009881C92EC09482FF29CFF894D280DC206B
:100ED000D282D180D92AD182D5011197F1F7D2805F
:100EE0009D2992837894FB013197F1F7E981FA818A
:100EF0009881C92EC09483FF29CFF894D280DC203A
:100F0000D282D180D92AD182D5011197F1F7D2802E
:100F10009D2992837894FB013197F1F7E981FA8159
:100F20009881C92EC09484FF29CFF894D280DC2008
:100F3000D282D180D92AD182D5011197F1F7D280FE
:100F40009D2992837894FB013197F1F7E981FA8129
:100F50009881C92EC09485FF29CFF894D280DC20D7
:100F6000D282D180D92AD182D5011197F1F7D280CE
:100F70009D2992837894FB013197F1F7E981FA81F9
:100F80009881C92EC09486FF29CFF894D280DC20A6
:100F9000D282D180D92AD182D5011197F1F7D2809E
:100FA0009D2992837894FB013197F1F7E981FA81C9
:100FB0009881D92ED09487FD29CFF89482818D21F4
:100FC00082838181892B8183DA011197F1F78281F4
:100FD000982B92837894C9010197F1F728CFDF917C
:100FE000CF911F910F91FF90EF90DF90CF90BF9026
:100FF000AF9008958F929F92AF92BF92CF92DF925F
:10100000EF92FF920F931F93CF93DF938C01E091A8
:101010006203F09163033081A181B281F89411964B
:101020009C911197832F8095982311969C931197EB
:1010300078942CE743E050E002C0215071F1FA01AE
:101040003197F1F79C919323C1F3F89412969C91F8
:101050001297982312969C93129711969C91119730
:10106000932B11969C9311977894EBE7F7E03197C7
:10107000F1F7F89411969C911197892311968C930E
:10108000119783E191E00197F1F72C91789483E631
:1010900096E00197F1F7322371F080E0DF91CF9174
:1010A0001F910F91FF90EF90DF90CF90BF90AF9086
:1010B0009F908F9008954B01B801809162039091A9
:1010C00063030E9441066EEB80916203909163037B
:1010D0000E949D008401740189E0E80EF11CA7E0E4
:1010E000B0E043E250E02FEC30E0E0916203F09199
:1010F00063036081C181D281F8947981762B7983F1
:10110000DA80C62EC094DC20DA82CD010197F1F797
:1011100079817C217983CA010197F1F7888168235D
:1011200009F0EAC17894C9010197F1F7A12C708107
:10113000C181D281F894D980D72AD982CA80B72EAA
:10114000B094CB20CA82CD010197F1F7D980DB2082
:10115000D982CA010197F1F76881972F962309F088
:10116000C4C17894E9012197F1F77081C181D281DE
:10117000F894D980D72AD982CA80B72EB094CB20D0
:10118000CA82CD010197F1F7D980DB20D982CA014B
:101190000197F1F76881972F962309F09FC1789402
:1011A000E9012197F1F77081C181D281F894D9804A
:1011B000D72AD982CA80B72EB094CB20CA82CD015B
:1011C0000197F1F7D980DB20D982CA010197F1F7A5
:1011D0006881972F962309F07AC17894E9012197C5
:1011E000F1F77081C181D281F894D980D72AD98250
:1011F000CA80B72EB094CB20CA82CD010197F1F7F7
:10120000D980DB20D982CA010197F1F76881972F35
:10121000962309F055C17894E9012197F1F770817F
:10122000C181D281F894D980D72AD982CA80B72EB9
:10123000B094CB20CA82CD010197F1F7D980DB2091
:10124000D982CA010197F1F76881972F962309F097
:1012500030C17894E9012197F1F77081C181D28181
:10126000F894D980D72AD982CA80B72EB094CB20DF
:10127000CA82CD010197F1F7D980DB20D982CA015A
:101280000197F1F76881972F962309F00BC17894A5
:10129000E9012197F1F790810180F281E02DF89426
:1012A0006181692B61837281D92ED0947D217283F3
:1012B000ED012197F1F761816D216183EA012197A9
:1012C000F1F76081962309F0DFC07894F901319736
:1012D000F1F7E801A9928E01CE15DF0509F005CFDF
:1012E000E0916203F091630330810180F281E02D8F
:1012F000F8948181632F60958623818378942CE70D
:1013000043E050E003C0215009F4C7CECA01019761
:10131000F1F780818323B9F3F89482818623828355
:101320008181832B818378948BE797E00197F1F794
:10133000F89481816823618383E191E00197F1F75B
:101340002081789483E696E00197F1F7322309F043
:10135000A4CEF40180818111D6C0E401B181B11124
:10136000DBC0A281A111D1C073817111D7C054819A
:101370005111E1C045814111D7C036813111D8C02A
:1013800027812111DDC09085992309F486CEE82FAD
:10139000EF70F0E0E057FF4F6491E82FE295EF70B7
:1013A000F0E0E056FF4F849186278B27E82FEF70FF
:1013B000F0E0E057FF4F649182958F70E82FF0E0E6
:1013C000E056FF4FE491E6276E2F6A27E62FEF7075
:1013D000F0E0E057FF4F849162956F70E62FF0E0E8
:1013E000E056FF4FE491E8276E2F6727E62FEF7056
:1013F000F0E0E057FF4F849162956F70E62FF0E0C8
:10140000E056FF4FE491E8275E27E52FEF70F0E00C
:10141000E057FF4F849152955F70E52FF0E0E05662
:10142000FF4FE491E8274E27E42FEF70F0E0E057FC
:10143000FF4F849142954F70E42FF0E0E056FF4F4C
:10144000E491E8273E27E32FEF70F0E0E057FF4FED
:10145000849132953F70E32FF0E0E056FF4FE49126
:101460008E278227E82FEF70F0E0E057FF4F24919E
:1014700082958F70E82FF0E0E056FF4FE491E2276D
:1014800081E09E130ACE0ACE7894F9013197F1F7E4
:101490008A2D8068F80181938F01EE15FF0509F010
:1014A00024CE1ECF7894C9010197F1F76894A6F86D
:1014B000F2CE7894E9012197F1F76894A5F8CDCEA2
:1014C0007894E9012197F1F76894A4F8A8CE78946C
:1014D000E9012197F1F76894A3F883CE7894E901A4
:1014E0002197F1F76894A2F85ECE7894E9012197EC
:1014F000F1F76894A1F839CE7894C9010197F1F712
:10150000AA24A39414CEB181A28173815481458110
:101510003681278190853BCFA28173815C814D818B
:101520003E812F81988533CF3681278190852FCFBB
:10153000278190852CCF458136812781908527CFC3
:10154000908525CF2F923F925F926F927F928F92DC
:101550009F92AF92BF92CF92DF92EF92FF920F9342
:101560001F93CF93DF93EC018B018D858823B1F01E
:101570001B861D861C8680E0DF91CF911F910F9105
:10158000FF90EF90DF90CF90BF90AF909F908F90A3
:101590007F906F905F903F902F9008953881E98100
:1015A000FA81F8948181632F6095862381837894F2
:1015B0002CE743E050E002C02150D1F2CA0101976C
:1015C000F1F780818323C1F3F8948281862382839B
:1015D0008181832B818378948BE797E00197F1F7E2
:1015E000F89481816823618383E191E00197F1F7A9
:1015F0002081789483E696E00197F1F7322309F091
:10160000B7CF60EFCE010E949D0091E0D12C712CEC
:10161000CC24C39467E070E023E230E04FEC50E06C
:1016200022242A94312CEFE0AE2EB12CF7ED8F2E30
:10163000912C8881E981FA81F894F180F82AF1826D
:10164000E280682E6094E620E282DB011197F1F7D8
:10165000F180F620F182D9011197F1F7E0818E2314
:101660007894FA013197F1F76880E981FA81F8946A
:10167000F180F628F182E280562C5094E520E28237
:10168000DB011197F1F7F180F520F182D901119773
:10169000F1F7E0816E2209F076C07894FA01319773
:1016A000F1F7ED2CF12C811184C08B85C81608F060
:1016B000A0C0EC0EFD1ED70113968C9189236624E1
:1016C0006394811101C0612CE981FA8188816110E4
:1016D00075C0692E6094B8E0BC1508F0CC86D701BF
:1016E00013967C901397762013967C927C2CF8941A
:1016F000E280F82EF094FE20F282F180F82AF18246
:10170000D1011197F1F7F2808F2982837894F50146
:101710003197F1F7C394990F31F4D394B7E0BD1525
:1017200030F091E086CFE7E0ED1508F082CFF0E4ED
:10173000FC1508F01DCF7B86711002C081E08D87FB
:101740008B81882309F414CFD8018C938C81119656
:101750008C9311978D8112968C9312978E8113968C
:101760008C9313978F8114968C9314978885159674
:101770008C931597898516968C9316978A8517965C
:101780008C9381E0F9CE7894FA013197F1F78111C9
:10179000CECF8881E981FA817E01ED0CF11CD70161
:1017A00013966C901397592E5094652013966C9253
:1017B0009ECFE981FA818881EC0EFD1ED701139638
:1017C0006C901397692A13966C92F894E280F82E25
:1017D000F094FE20F282F180F82AF182D90111976B
:1017E000F1F7F2808F2982837894F4013197F1F731
:1017F00091CF662463948C11612CEC0EFD1E64CF96
:101800002F923F924F925F926F927F928F929F9210
:10181000AF92BF92CF92DF92EF92FF920F931F93FE
:10182000CF93DF93CDB7DEB7A5970FB6F894DEBFA1
:101830000FBECDBF6B017C01242E20E030E0A9015A
:101840000E941A2A87FD66C11DA21CA260E070E0FA
:1018500080E09FE3222051F010E02DEC3CEC4CECBA
:101860005DE30E947E2B1F5F2112F7CF9B01AC012D
:10187000C701B6010E94AE294B015C010E94982A63
:10188000762E672E582E492E19A2262F372F482F35
:10189000592F8E010F5D1F4F9AE0C92ED12CE12CDC
:1018A000F12CCA01B901A70196010E947129605D5E
:1018B000F80162938F01211531054105510589F722
:1018C000309709F101900020E9F731976F01C01AB4
:1018D000D10AC9F0F12CE12C07C03FEFE31AF30A5B
:1018E000CE14DF0409F422C1F80161918F018AEF5F
:1018F00091E00E941303892B81F72CA13DA12E0DAD
:101900003F1D3DA32CA321101BC08CA19DA1A5961A
:101910000FB6F894DEBF0FBECDBFDF91CF911F9100
:101920000F91FF90EF90DF90CF90BF90AF909F907E
:101930008F907F906F905F904F903F902F90089581
:10194000672D762D852D942D0E94C72A9B01AC0111
:10195000C501B4010E94AD294B015C016EE28AEF22
:1019600091E00E941303ECA1FDA1E80FF91FFDA374
:10197000ECA32A948AE0C82ED12CE12CF12C33243C
:10198000339420E030E040E251E4C501B4010E940C
:101990007E2B2B013C010E94982A4B01B12CA12CDB
:1019A000A5019B0119A28E010F5D1F4FCA01B9014C
:1019B000A70196010E947129605DF80162938F0171
:1019C000211531054105510589F7309709F44CC0BF
:1019D00001900020E9F731979F01201B310B3BA3B9
:1019E0002AA32115310509F43FC0F801B901600FA0
:1019F000711F91913092120220911502809116026E
:101A0000A0910A02B0910B02281709F46FC020912F
:101A1000150230E02F5F3F4F2F733327822F03C013
:101A20000FB607FE32C0409116028417C9F3A09189
:101A30001502B0E0A95ABD4F9C939FB7F89420932C
:101A40001502A0910C02B0910D028C9180628C93D2
:101A50009FBF6E177F0769F68CA19DA1EAA1FBA12C
:101A60008E0F9F1F9DA38CA3C501B4010E94C72A9E
:101A70009B01AC01C301B2010E94AD294B015C0185
:101A80002A94FFEF2F127DCF40CF4C9145FFCBCF53
:101A9000A0911602B0E0A95ABD4F1C9140911602C8
:101AA00050E04F5F5F4F4F73552740931602A09150
:101AB0001002B09111021C93A0910A02B0910B0286
:101AC0004C91437040644C93509115024091160222
:101AD000541307C0A0910C02B0910D024C914F7DA0
:101AE0004C93A0910A02B0910B029DCF8C9185FF7F
:101AF0008ECF8FB7F894A0911002B09111029C93F1
:101B0000A0910A02B0910B029C91937090649C93F7
:101B10008FBF9FCF6DE28AEF91E00E9413039DA3D8
:101B20008CA3F7FAF094F7F8F09490CE8CA19DA1D5
:101B30008C0D9D1D9DA38CA3E6CE1F920F920FB618
:101B40000F9211242F933F938F939F93AF93BF9343
:101B50008091F6019091F701A091F801B091F901FF
:101B60003091F10123E0230F2D3768F126E8230F90
:101B70000296A11DB11D2093F1018093F60190936F
:101B8000F701A093F801B093F9018091F2019091CF
:101B9000F301A091F401B091F5010196A11DB11DD1
:101BA0008093F2019093F301A093F401B093F501B7
:101BB000BF91AF919F918F913F912F910F900FBE49
:101BC0000F901F9018950196A11DB11DD4CF1F92A3
:101BD0000F920FB60F9211242F938F939F93EF9331
:101BE000FF93E0911602F0E0E95AFD4F20818091C9
:101BF000160290E001968F73992780931602E09168
:101C00001002F09111022083E0910A02F0910B0280
:101C10008081837080648083909115028091160288
:101C2000981307C0E0910C02F0910D0280818F7D26
:101C30008083FF91EF919F918F912F910F900FBE15
:101C40000F901F9018951F920F920FB60F921124AC
:101C50002F938F939F93EF93FF93E0910A02F0915C
:101C60000B028081E0911002F091110282FF0BC003
:101C70008081FF91EF919F918F912F910F900FBED7
:101C80000F901F9018952081809113028F5F8F73A2
:101C900090911402891769F3E0911302F0E0E65085
:101CA000FE4F258F80931302E4CFCF93DF931092E2
:101CB000FD011092FC0188EE93E0A0E0B0E080937B
:101CC000FE019093FF01A0930002B09301028FE503
:101CD00091E09093FB018093FA0185EC90E0909362
:101CE00007028093060284EC90E0909309028093AF
:101CF000080280EC90E090930B0280930A0281EC42
:101D000090E090930D0280930C0282EC90E090930F
:101D10000F0280930E0286EC90E090931102809364
:101D200010021092130210921402109215021092D7
:101D300016028BEA92E090939E0280939D0290930C
:101D4000A00280939F028BE293E09093A202809383
:101D5000A1029093A4028093A3021092A502109274
:101D6000AA02109297021092980210929902109271
:101D70009A0282E390E090939C0280939B02CEEEC5
:101D8000D2E0D0937F03C0937E0360E082E00E94A4
:101D9000DB04E0EDF0E0E491E0937003ECEBF0E0C5
:101DA000E491F0E0EE0FFF1FE055FF4F8591949115
:101DB000909372038093710310927B0310927D03C2
:101DC00010927C0310927A03E3E7F3E087E0DF01EF
:101DD0001D928A95E9F710926F0310926E0310928C
:101DE0005A0380E793E09093630380936203109219
:101DF0006003109261031092590389E080935C03A1
:101E000081E080935D0380935E0380935F03109273
:101E100053031092540310925503109256038AE014
:101E200090E0909358038093570310924D031092C3
:101E30004E0310924F0310925003909352038093DD
:101E400051031092470310924803109249031092D5
:101E50004A0390934C0380934B03109241031092DA
:101E600042031092430310924403D0934603C0935D
:101E7000450380E190E090932C0380932B03909393
:101E800032038093310380E490E00E94EB2B909327
:101E9000380380933703009709F44EC010922E0345
:101EA00010922D031092300310922F0310923303DF
:101EB00010923403109235031092360340E050E044
:101EC00060EC7FE74093390350933A0360933B0300
:101ED00070933C0340933D0350933E0360933F0354
:101EE0007093400320E4FC0111922A95E9F71092C7
:101EF00080031092810310928203109283038AE080
:101F000090E0909385038093840360910401709125
:101F1000050180E197E20E945D29109286031092EC
:101F20008703109288031092890370938B03609348
:101F30008A03DF91CF91089510922C0310922B0306
:101F400010922E0310922D031092300310922F0343
:101F5000109233031092340310923503109236031B
:101F600080E090E0A0ECBFE78093390390933A03C0
:101F7000A0933B03B0933C0380933D0390933E03B7
:101F8000A0933F03B0934003B2CFCF93DF93CDB77D
:101F9000DEB7AA970FB6F894DEBF0FBECDBF789418
:101FA00084B5826084BD84B5816084BD85B582605E
:101FB00085BD85B5816085BD80916E00816080930F
:101FC0006E00109281008091810082608093810078
:101FD0008091810081608093810080918000816088
:101FE000809380008091B10084608093B1008091E3
:101FF000B00081608093B00080917A00846080930B
:102000007A0080917A00826080937A0080917A00D1
:10201000816080937A0080917A00806880937A0052
:102020001092C10061E083E00E94DB0461E08BE07C
:102030000E94DB0461E08CE00E94DB0461E08DE043
:102040000E94DB0460E080E10E94DB0460E08EE03F
:102050000E94DB0460E08FE00E94DB0460E081E12D
:102060000E94DB0460E083E00E94780360E08BE084
:102070000E94780361E08CE00E94780360E08DE0CC
:102080000E947803E0910A02F0910B0282E08083C3
:10209000E0910602F09107021082E0910802F091AF
:1020A000090283E0808310921202E0910E02F09107
:1020B0000F0286E08083E0910C02F0910D02808196
:1020C00080618083E0910C02F0910D028081886034
:1020D0008083E0910C02F0910D0280818068808302
:1020E000E0910C02F0910D0280818F7D80838091C0
:1020F000AA02982F9F7709F084C18078806280932C
:10210000AA021092A7021092A6021092A90210929F
:10211000A8028091A1029091A20220919F02309189
:10212000A002285F3F4F8217930708F0EAC181E0C1
:102130008093A502E0916203F091630313861586F4
:1021400014861286339687E0DF011D928A95E9F79F
:10215000109260031092610317E0C12ED12C03E2AC
:10216000E02EF12C0FEC10E0BB24B39473C09AA1C5
:10217000E92FEF70F0E0E057FF4F8491E92FE295EF
:10218000EF70F0E0E056FF4F249128278BA128271D
:10219000E22FEF70F0E0E057FF4F8491E22FE295DD
:1021A000EF70F0E0E056FF4F249182272CA1282702
:1021B000E22FEF70F0E0E057FF4F8491E22FE295BD
:1021C000EF70F0E0E056FF4F249182272DA12827E1
:1021D000E22FEF70F0E0E057FF4F8491E22FE2959D
:1021E000EF70F0E0E056FF4F249182272EA12827C0
:1021F000E22FEF70F0E0E057FF4F8491E22FE2957D
:10220000EF70F0E0E056FF4F249182272FA128279E
:10221000E22FEF70F0E0E057FF4F8491E22FE2955C
:10222000EF70F0E0E056FF4FE4918E2728A582275B
:10223000E82FEF70F0E0E057FF4F2491E82FE29590
:10224000EF70F0E0E056FF4FE491E22789A58E178A
:1022500009F417C1BE016E5D7F4F809162039091BA
:1022600063030E94A20A811182CF80916003282F0C
:1022700030E03093DE012093DD019CE090935C031D
:10228000882309F4F3C11AA673E0872E912CEBE79B
:10229000AE2EE7E0BE2EF3E1CF2EDD24D394EE2464
:1022A000EA94F12C0FE010E0B3E22B2E312CE091F8
:1022B0006203F091630313861586148612861186D5
:1022C000108617821682158214821382612C7AA4DA
:1022D00006C0671409F43DC16394761458F0BE013A
:1022E0006E5D7F4F80916203909163030E94A20A0A
:1022F0008111EFCF9AA180915C03903109F4AEC1B6
:10230000893008F4A2C1682EBCE0B81710F46CE064
:10231000662EBE016F5F7F4FCE0182960E94FA0744
:10232000882309F49BC1E6EFE60DE33010F40C942A
:10233000D01B8FE19D81981709F490C18D83E091A6
:102340006203F091630380810180F281E02DF894B3
:102350002181982F90952923218378942CE7D4010B
:102360001197F1F73081382311F00C94B61B2150EE
:10237000B1F7BE016E5D7F4F809162039091630360
:102380000E9441066EE480916203909163030E9473
:102390009D006B8180916203909163030E949D0078
:1023A0006C8180916203909163030E949D008AA1D9
:1023B000803139F06D8180916203909163030E94B6
:1023C0009D00E0916203F091630390810180F281AE
:1023D000E02D892F809520915F0321110C94F01B33
:1023E000F89421812823218378942CE7D401119734
:1023F000F1F73081392311F00C94D61B2150B1F73D
:102400002DC185FF97CE0091A6021091A70201155C
:10241000110509F47ECED80116966D917C91B1E03C
:102420006D367B0701F16115710531F08DE691E0A4
:102430000E94102D892BB9F0D80115968C91882314
:1024400009F467CEB8E08B02C0011124080F191FF0
:102450000115110509F45DCEF80166817781F1E07F
:102460006D367F0701F7F801848180788A60848364
:1024700081E090E0A0E0B0E080839183A283B38309
:1024800059CE809160038F5F80936003983241F052
:1024900010F00C94011C903119F0923209F0DACE50
:1024A000809161038F5F809361038091590388233A
:1024B00011F40C940B1C9031D9F0BE016F5F7F4F6B
:1024C000CE0182960E94FA07882311F40C949A1E7A
:1024D0008D818F3311F40C94971E10F40C949D1E73
:1024E0008F3511F40C94941E8F3711F00C949A1EB2
:1024F0008CE090915C03981708F0ACCE80935C035D
:10250000A9CEFC013897F093A202E093A102309784
:1025100009F410CEA091A802B091A902109709F475
:102520008BC09F012A1B3B0B359527953595279529
:102530003595279515962C93F093A902E093A80260
:102540001582148202972DE631E0DC012D933C9335
:102550008BCF9AA1E92FEF70F0E0E057FF4F849105
:10256000E92FE295EF70F0E0E056FF4F24918227CB
:102570002BA12827E22FEF70F0E0E057FF4F849166
:10258000E22FE295EF70F0E0E056FF4F24918227B2
:102590002CA12827E22FEF70F0E0E057FF4F849145
:1025A000E22FE295EF70F0E0E056FF4FE4918E27C6
:1025B0002DA18227E82FEF70F0E0E057FF4F349114
:1025C000E82FE295EF70F0E0E056FF4F24912327CB
:1025D0008EA12827E22FEF70F0E0E057FF4F8491A3
:1025E000E22FE295EF70F0E0E056FF4FE4918E2786
:1025F0002FA18227E82FEF70F0E0E057FF4F2491E2
:10260000E82FE295EF70F0E0E056FF4F84918227CB
:1026100028A58227E82FEF70F0E0E057FF4F2491C4
:10262000E82FE295EF70F0E0E056FF4F84918227AB
:1026300029A5281351CE5FCEF093A702E093A602FE
:10264000F093A902E093A8027BCFBE016F5F7F4F9A
:10265000CE0182960E94FA0781116BCEFAA5FF5F28
:10266000FAA780916003F81708F421CE10925D0359
:1026700080916203909163030E94D9026CEC809177
:102680006203909163030E949D00E0916203F091C8
:102690006303609159037081A181B281F89412960D
:1026A0002C911297972F9095922312969C931297A4
:1026B00011969C911197972B11969C9311972FEF40
:1026C00030E0C9010197F1F712969C911297872F7C
:1026D000892B12968C9378949FE0C92ED12CD60129
:1026E0001197F1F74081A181B281F89412967C9103
:1026F0001297542F5095572312965C931297119668
:102700005C911197542B11965C931197C901019715
:10271000F1F712965C911297452B12964C93789490
:10272000D6011197F1F77081A181B281F8941296C8
:102730005C911297472F4095452312964C93129720
:1027400011964C911197472B11964C93119743E298
:1027500050E0CA010197F1F712961C911297712B64
:1027600012967C93789407ED10E0D8011197F1F759
:102770007081A181B281F8941296EC901297F72E95
:10278000F094FE201296FC9212971196FC901197ED
:10279000F72A1196FC921197C9010197F1F7129649
:1027A000FC9012977F2912967C937894D60111970A
:1027B000F1F77081A181B281F8941296EC90129792
:1027C000F72EF094FE201296FC9212971196FC9030
:1027D0001197F72A1196FC921197C9010197F1F709
:1027E0001296FC9012977F2912967C937894D601CA
:1027F0001197F1F77081A181B281F8941296EC9053
:102800001297F72EF094FE201296FC9212971196D2
:10281000FC901197F72A1196FC921197C901019724
:10282000F1F71296FC9012977F2912967C93789478
:10283000D6011197F1F77081A181B281F8941296B7
:10284000EC901297F72EF094FE201296FC921297BD
:102850001196FC901197F72A1196FC921197CA01D4
:102860000197F1F712964C911297742B12967C9364
:102870007894D8011197F1F7708141815281F894D1
:10288000DA0112968C91A72FA0958A23DA0112966D
:102890008C93129711968C911197872B11968C938C
:1028A000D9011197F1F7DA0112962C911297272B83
:1028B00012962C937894C6010197F1F7611116C016
:1028C000F894A181B28111969C9111978081809595
:1028D000892311968C93A181B28112969C911297B3
:1028E00080818095892312968C93789480915D03E2
:1028F00081110E94CE0380E480937C0080917A0055
:10290000806480937A0080917A0086FDFCCF80916C
:102910007800809179001092E0011092DF0140E48C
:1029200040937C0080917A00806480937A0080914B
:102930007A0086FDFCCF90917800809179008927FC
:10294000982789272091D5013091D601820F931FB6
:102950009093D6018093D5012091DF013091E00161
:102960002F5F3F4F3093E0012093DF012530310589
:10297000BCF265E070E00E945D297093D60160931F
:10298000D50103E0202E312C8AE0482E512C612CF9
:10299000712C8091EF019091F0012091ED01309127
:1029A000EE0197FF02C00C94BB238536910514F409
:1029B0000C94D223E4E6F0E0F093F001E093EF0111
:1029C0002436310511F00C9429298FB7F8944091E1
:1029D000F6015091F7016091F8017091F9018FBFF4
:1029E0008091800390918103A0918203B091830331
:1029F0008A019B01081B190B2A0B3B0B8091840356
:102A000090918503092E000CAA0BBB0B0817190720
:102A10002A073B0708F466C0409380035093810364
:102A200060938203709383031092D3011092D201BA
:102A300042E420917A0080917A00887F84608093BC
:102A40007A0040937C0080917A00806480937A00C1
:102A500080917A0086FDFCCF90917800809179007A
:102A600020937A008927982789272091D0013091D7
:102A7000D101820F931F9093D1018093D0012091B7
:102A8000D2013091D3012F5F3F4F3093D301209378
:102A9000D201253031056CF265E070E00E945D29BD
:102AA0007093D1016093D0016D3C710514F00C94CA
:102AB000EA24ADECB0E0B093D101A093D001109224
:102AC000EA011092E90150E040E02091CE013091FE
:102AD000CF012417350711F01092D4015093CF0184
:102AE0004093CE018FB7F8944091F6015091F701D1
:102AF0006091F8017091F9018FBF809186039091E8
:102B00008703A0918803B09189038A019B01081B68
:102B1000190B2A0B3B0B80918A0390918B03092E92
:102B2000000CAA0BBB0B081719072A073B0708F470
:102B30003FC040938603509387036093880370934C
:102B400089032091EB013091EC018091D401811136
:102B500011C08091E9019091EA012817390714F416
:102B60000C94DF288217930714F40C940D2981E04C
:102B70008093D4013093F0012093EF018091D7012D
:102B80009091D8014091D5015091D60184179507B5
:102B900034F42F5F3F4F3093F0012093EF01873CD7
:102BA000914034F0225031093093F0012093EF012D
:102BB0008FB7F8944091F6015091F7016091F801B8
:102BC0007091F9018FBF8091530390915403A091AC
:102BD0005503B09156038A019B01081B190B2A0B60
:102BE0003B0B8091570390915803092E000CAA0BC0
:102BF000BB0B081719072A073B0708F4EAC04093E4
:102C0000530350935403609355037093560390916C
:102C10007A0080917A00887F846080937A0080E4D3
:102C200080937C0080917A00806480937A00809108
:102C30007A0086FDFCCF80917800609179009093B6
:102C40007A000091370310913803E0902D03F09043
:102C50002E030115110509F479C0762F682F072E70
:102C6000000C880B990B0E94C92A4B015C01C09093
:102C70002F03D09030037601EE0CFF1CEE0CFF1CEE
:102C8000E00EF11ED7012D913D914D915C91609127
:102C900033037091340380913503909136030E9481
:102CA000AD2960933303709334038093350390937D
:102CB0003603F70180829182A282B382A50194013A
:102CC0006091330370913403809135039091360302
:102CD0000E94AE29609333037093340380933503CD
:102CE00090933603C60101969093300380932F038F
:102CF000C0903103D09032038C159D0521F41092C1
:102D0000300310922F03E0902D03F0902E03E11476
:102D1000F10411F00C94332780923D0390923E030E
:102D2000A0923F03B09240038092390390923A03FD
:102D3000A0923B03B0923C03EC14FD0438F4FFEF87
:102D4000EF1AFF0AF0922E03E0922D038091D90131
:102D50009091DA0101969093DA018093D90101965E
:102D600011F40C94F826E114F10411F40C94F426F7
:102D7000B70190E080E00E94C72A9B01AC016091FE
:102D800033037091340380913503909136030E9490
:102D90001F2A0E94912A7093D8016093D7018091D5
:102DA000D5019091D601681B790B072E000C880B7A
:102DB000990B0E94C92A20E030E043EC5DE30E94B9
:102DC0007E2B6093E1017093E2018093E301909385
:102DD000E4018FB7F8944091F6015091F7016091AA
:102DE000F8017091F9018FBF80914D0390914E03CE
:102DF000A0914F03B09150038A019B01081B190B4E
:102E00002A0B3B0B8091510390915203092E000C29
:102E1000AA0BBB0B081719072A073B0708F45CC06D
:102E200040934D0350934E0360934F0370935003B0
:102E30001092E0011092DF0143E420917A0080912A
:102E40007A00887F846080937A0040937C00809130
:102E50007A00806480937A0080917A0086FDFCCFAE
:102E6000909178008091790020937A0089279827A3
:102E700089272091DB013091DC01820F931F909311
:102E8000DC018093DB012091DF013091E0012F5FB5
:102E90003F4F3093E0012093DF01253031056CF284
:102EA00065E070E00E945D297093DC016093DB01B6
:102EB000072E000C880B990B0E94C92A23E333E3E9
:102EC00043E35DE30E947E2B6093E5017093E6018E
:102ED0008093E7019093E8018FB7F8944091F60151
:102EE0005091F7016091F8017091F9018FBF8091C5
:102EF000470390914803A0914903B0914A038A0186
:102F00009B01081B190B2A0B3B0B80914B039091E3
:102F10004C03092E000CAA0BBB0B081719072A0734
:102F20003B0740F0409347035093480360934903A5
:102F300070934A038FB7F8944091F6015091F701CE
:102F40006091F8017091F9018FBF809141039091D8
:102F50004203A0914303B09144038A019B01081BE3
:102F6000190B2A0B3B0B8091450390914603092EC8
:102F7000000CAA0BBB0B081719072A073B0708F41C
:102F8000EDC2409341035093420360934303709317
:102F900044031092E0011092DF01C090DD01D09057
:102FA000DE011C141D047CF5F12CE12C0E2DE091AA
:102FB0006203F091630313861586148612861186C8
:102FC00010861782168215821482138210E0BE01C9
:102FD0006E5D7F4F80916203909163030E94A20A0D
:102FE000882339F0101711F40C9448281F5F01173B
:102FF00070F7BFEFEB1AFB0AF092E001E092DF01FD
:10300000EC14FD0499F6E0916203F09163033081C2
:103010000180F281E02DF8948181432F4095842333
:10302000818378942CE702C0215001F1C1010197FE
:10303000F1F780818323C1F3F89482818423828312
:103040008181382B318378948BE797E00197F1F7F2
:10305000F89481814823418383E191E00197F1F75E
:103060008081789483E696E00197F1F7E09162031E
:10307000F0916303A181B2814081F89412962C9162
:103080001297942F9095922312969C9312971196D3
:103090009C911197942B11969C9311972FEF30E0F0
:1030A000C9010197F1F712969C911297842F892BF1
:1030B00012968C9378942FE030E0C9010197F1F7D4
:1030C000A181B2816081F89412964C911297962F4B
:1030D0009095942312969C93129711969C91119718
:1030E000962B11969C9311974FEF50E0CA010197D0
:1030F000F1F712969C911297862F892B12968C933A
:103100007894C9010197F1F7A181B2815081F894B7
:1031100012969C911297852F8095892312968C93F5
:10312000129711968C911197852B11968C9311976C
:1031300083E2C82ED12CC6010197F1F712964C916B
:103140001297452B12964C93789497EDA92EB12C9B
:10315000D5011197F1F7418152816081F894DA012C
:1031600012961C911297762F7095712312967C936C
:10317000129711967C911197762B11967C9311974B
:10318000C6010197F1F712967C911297672B129660
:103190006C937894C5010197F1F741815281708158
:1031A000F894DA0112961C911297672F60956123AB
:1031B00012966C93129711966C911197672B11963A
:1031C0006C9311970FEF10E0C8010197F1F7129679
:1031D0006C911297672B12966C937894C9010197A2
:1031E000F1F7418152816081F894DA0112961C91C5
:1031F0001297762F7095712312967C9312971196E1
:103200007C911197762B11967C9311970FEF10E01C
:10321000C8010197F1F712967C911297672B1296CD
:103220006C937894C9010197F1F7418152816081D3
:10323000F894DA0112961C911297762F70957123EB
:1032400012967C93129711967C911197762B11967A
:103250007C931197C6010197F1F712967C91129712
:10326000672B12966C937894C5010197F1F7418111
:1032700052817081F894DA0112961C911297672F8F
:103280006095612312966C93129711966C91119729
:10329000672B11966C931197C6010197F1F712965F
:1032A0006C911297672B12966C937894C5010197D5
:1032B000F1F7F89461817281DB0111965C911197AD
:1032C00040814095452311964C9361817281DB01C9
:1032D00012965C91129740814095452312964C932B
:1032E0007894E0916203F0916303609159037081D7
:1032F00041815281F894DA0112960C911297172F9E
:103300001095102312961C93129711961C911197E9
:10331000172B11961C9311970FEF10E0C80101971E
:10332000F1F712961C911297712B12967C93789458
:10333000C9010197F1F7108141815281F894DA01B6
:1033400012960C911297712F7095702312967C93A0
:10335000129711967C911197712B11967C9311976E
:10336000EE24EA94F12CC7010197F1F712967C91B3
:103370001297712B12967C937894C9010197F1F7FB
:10338000108141815281F894DA0112960C911297C2
:10339000712F7095702312967C93129711967C91E1
:1033A0001197712B11967C931197C6010197F1F734
:1033B00012967C911297712B12967C937894C5018A
:1033C0000197F1F7108141815281F894DA01129648
:1033D0000C911297712F7095702312967C9312970F
:1033E00011967C911197712B11967C931197EE2475
:1033F000EA94F12CC7010197F1F712967C9112978C
:10340000712B12967C937894C9010197F1F7108182
:1034100041815281F894DA0112960C911297712F22
:103420007095702312967C93129711967C91119748
:10343000712B11967C931197C7010197F1F71296A2
:103440007C911297712B12967C937894C901019705
:10345000F1F7108141815281F894DA0112960C91B2
:103460001297712F7095702312967C931297119674
:103470007C911197712B11967C931197C70101973D
:10348000F1F712967C911297712B12967C93789497
:10349000C9010197F1F7708141815281F894DA01F5
:1034A00012960C911297172F1095102312961C93B9
:1034B000129711961C911197172B11961C93119727
:1034C000C6010197F1F712968C911297872B1296ED
:1034D0008C937894D5011197F1F77081A181B28115
:1034E000F89412964C911297972F909594231296D8
:1034F0009C93129711969C911197972B11969C93E0
:1035000011974FEF50E0CA010197F1F712969C9185
:103510001297872F892B12968C937894C901019763
:10352000F1F7611116C0F894A181B28111969C91B6
:10353000119780818095892311968C93A181B28106
:1035400012969C91129780818095892312968C9374
:10355000789480915D0381110E94CE038FB7F89417
:103560004091F6015091F7016091F8017091F901D5
:103570008FBF8091970290919802A0919902B0918B
:103580009A028A019B01081B190B2A0B3B0B8091A5
:103590009B0290919C02092E000CAA0BBB0B0817F2
:1035A00019072A073B0708F4B9C4409397025093C0
:1035B00098026093990270939A02A5E7B1E041E006
:1035C0005D91409312029091150280911602E09154
:1035D0000A02F0910B02981709F4B9C42091150260
:1035E00030E02F5F3F4F2F733327922F03C00FB66A
:1035F00007FEA8C3809116029817C9F3E09115023F
:10360000F0E0E95AFD4F50839FB7F89420931502DC
:10361000E0910C02F0910D028081806280839FBF57
:1036200091E0A338B90761F6C090EF01D090F001A6
:103630000D2C000CEE08FF08F7FE02C00C944B2680
:10364000A701960119A28E010F5D1F4FCA01B90192
:10365000A30192010E947129605DF80162938F01BC
:10366000211531054105510589F7E0910A02F091D4
:103670000B020115110509F440C0D8010D9000207E
:10368000E9F7AD01D8014150510961E0A417B50730
:10369000A1F17D9160931202909115028091160222
:1036A000981711F40C94AB242091150230E02F5F91
:1036B0003F4F2F733327922F03C00FB607FE5BC413
:1036C000809116029817C9F3E0911502F0E0E95ACB
:1036D000FD4F70839FB7F89420931502E0910C0280
:1036E000F0910D028081806280839FBFE0910A0289
:1036F000F0910B02A417B50761F6A4E8B1E041E030
:103700005D914093120290911502809116029817D4
:1037100009F492C42091150230E02F5F3F4F2F73C0
:103720003327922F03C00FB607FE55C480911602AF
:103730009817C9F3E0911502F0E0E95AFD4F508364
:103740009FB7F89420931502E0910C02F0910D02BE
:103750008081806280839FBFE1E0A339BE0709F4C6
:1037600083C4E0910A02F0910B02CACFF89422813F
:10377000292322832181822B81837894D50111977B
:10378000F1F7F894818189238183C6010197F1F7CC
:103790008081789483E696E00197F1F70C94B91153
:1037A000F0E0E45FFE4F80810C949A11F89422813E
:1037B000282322832181922B91837894D50111971C
:1037C000F1F7F894918189238183C6010197F1F77C
:1037D0008081789483E696E00197F1F70C942E139C
:1037E000F89421812823218378942CE7D401119720
:1037F000F1F73081392309F05DC02150B9F70C94FD
:103800002E139B3311F40C945012923411F00C943B
:103810002A110C94501280916203909163030E94CC
:10382000D902BE016E5D7F4F809162039091630368
:103830000E94410664EB80916203909163030E94B1
:103840009D00E0916203F091630380810180F28129
:10385000E02DF8949181982B91839281282F2095C7
:1038600092239283D6011197F1F79181922391834C
:10387000D7011197F1F79081892379F47894C801E1
:103880000197F1F780916203909163030E94D9023E
:10389000B09259039AA10C945B127894C8010197D5
:1038A000F1F780916203909163030E94D9029AA17B
:1038B0000C945B12F8942281282322832181292BE6
:1038C00021837894D5011197F1F7F894218182230F
:1038D0008183D6011197F1F780817894E3E6F6E0D1
:1038E0003197F1F7982311F00C942E13BE016E5D01
:1038F0007F4F80916203909163030E944106E091A3
:103900006203F0916303609159034081A181B28108
:10391000F89412963C911297242F20952323129607
:103920002C93129711962C911197242B11962C936E
:103930001197C7010197F1F712962C911297842FD6
:10394000822B12968C937894D8011197F1F74081CD
:10395000A181B281F89412963C911297242F209560
:10396000232312962C93129711962C911197242BA6
:1039700011962C931197C7010197F1F712962C918C
:103980001297842F822B12968C937894D8011197DA
:10399000F1F74081A181B281F89412963C9112977F
:1039A000242F2095232312962C93129711962C9155
:1039B0001197242B11962C931197C7010197F1F7BA
:1039C00012962C911297842F822B12968C937894B6
:1039D000D8011197F1F74081A181B281F894129634
:1039E0003C911297242F2095232312962C93129703
:1039F00011962C911197242B11962C931197C1019C
:103A00000197F1F712962C911297842F822B129620
:103A10008C937894A7EDB0E01197F1F74081A181E4
:103A2000B281F89412963C911297242F209523236B
:103A300012962C93129711962C911197242B119674
:103A40002C931197C7010197F1F712962C911297B9
:103A5000842F822B12968C937894D8011197F1F7CA
:103A60004081A181B281F89412963C911297242F43
:103A70002095232312962C93129711962C9111972F
:103A8000242B11962C931197C7010197F1F71296E9
:103A90002C911297842F822B12968C937894D801B4
:103AA0001197F1F74081A181B281F89412963C916F
:103AB0001297242F2095232312962C931297119658
:103AC0002C911197242B11962C931197C1010197DA
:103AD000F1F712962C911297842F822B12968C93C9
:103AE0007894A7EDB0E01197F1F72081A181B28120
:103AF000F89412963C911297822F80958323129608
:103B00008C93129711968C911197822B11968C930E
:103B10001197C7010197F1F712968C911297822B9A
:103B200012968C937894D8011197F1F7611116C011
:103B3000F894A181B28111969C9111978081809512
:103B4000892311968C93A181B28112969C91129730
:103B500080818095892312968C9378948091590363
:103B6000882309F47DC080915A03882329F060E0FE
:103B700080915B030E9478033FB7F8948091F20133
:103B80009091F301A091F401B091F50126B5A89BA5
:103B900005C02F3F19F00196A11DB11D3FBFBA2FDF
:103BA000A92F982F8827820F911DA11DB11D880F65
:103BB000991FAA1FBB1F880F991FAA1FBB1F34E1A3
:103BC000432E512C612C712C3FB7F8944091F20197
:103BD0005091F3016091F4017091F50126B5A89B15
:103BE00006C02F3F21F04F5F5F4F6F4F7F4F3FBFAA
:103BF000762F652F542F4427420F511D611D711DD3
:103C0000440F551F661F771F440F551F661F771FF0
:103C1000481B590B6A0B7B0B483E534061057105ED
:103C200098F221E0421A51086108710888519C4FAE
:103C3000AF4FBF4F411451046104710429F68091C4
:103C40005A03882329F061E080915B030E94780386
:103C500080916203909163030E94D9020C942E1309
:103C60003FB7F8948091F2019091F301A091F40193
:103C7000B091F50126B5A89B05C02F3F19F001961C
:103C8000A11DB11D3FBFBA2FA92F982F8827820FE2
:103C9000911DA11DB11D880F991FAA1FBB1F880F61
:103CA000991FAA1FBB1F54E1452E512C612C712C6A
:103CB0003FB7F8944091F2015091F3016091F40103
:103CC0007091F50126B5A89B06C02F3F21F04F5FEC
:103CD0005F4F6F4F7F4F3FBF762F652F542F442785
:103CE000420F511D611D711D440F551F661F771F27
:103CF000440F551F661F771F481B590B6A0B7B0B20
:103D0000483E53406105710598F2E1E04E1A5108B2
:103D10006108710888519C4FAF4FBF4F4114510447
:103D20006104710429F694CF8BE00C9479128AE037
:103D30000C94791280E00C9479128F31D9F789E0D4
:103D40000C947912808185FF55CCE0911602F0E049
:103D5000E95AFD4F80816091160270E06F5F7F4FDE
:103D60006F73772760931602E0911002F0911102B1
:103D70008083E0910A02F0910B028081837080645D
:103D800080836091150280911602681307C0E0914C
:103D90000C02F0910D0280818F7D8083E0910A02F8
:103DA000F0910B0227CCC090E501D090E601E090A5
:103DB000E701F090E8012FEF3FEF4FE75FE4C70125
:103DC000B6010E94792B181614F40C944B272FEF90
:103DD0003FEF4FE75FECC701B6010E941A2AA3EB41
:103DE000B1E041E087FD85C342E0C701B6010E9412
:103DF000000CA7EBB1E041E05D914093120290917D
:103E0000150280911602E0910A02F0910B029817B8
:103E100009F427C42091150230E02F5F3F4F2F7324
:103E20003327922F03C00FB607FEEAC38091160214
:103E30009817C9F3E0911502F0E0E95AFD4F50835D
:103E40009FB7F89420931502E0910C02F0910D02B7
:103E50008081806280839FBF84EC91E08A179B07FA
:103E600059F6C090E101D090E201E090E301F090BA
:103E7000E4012FEF3FEF4FE75FE4C701B6010E9477
:103E8000792B181614F40C94C9272FEF3FEF4FE746
:103E90005FECC701B6010E941A2AA3EBB1E041E032
:103EA00087FD5EC342E0C701B6010E94000CA5EC8D
:103EB000B1E041E05D914093120290911502809132
:103EC0001602E0910A02F0910B02981709F4DDC383
:103ED0002091150230E02F5F3F4F2F733327922F31
:103EE00003C00FB607FE5BC3809116029817C9F393
:103EF000E0911502F0E0E95AFD4F50839FB7F89426
:103F000020931502E0910C02F0910D0280818062F5
:103F100080839FBF91E0A73CB90761F6A0E0B0E0C5
:103F2000AB2B11F40C94C91480911302209114024C
:103F300090E0805C9F4F821B91098F739927892B9A
:103F400011F40C94C9140E9400000C94C9148081CF
:103F500085FF44CB9FB7F894E0911002F0911102D5
:103F60005083E0910A02F0910B028081837080649B
:103F700080839FBF55CB808185FFA2CBE091160245
:103F8000F0E0E95AFD4F8081E0911602F0E03196B1
:103F9000EF73FF27E0931602E0911002F0911102F7
:103FA0008083E0910A02F0910B028081837080642B
:103FB0008083E091150280911602E81307C0E0911A
:103FC0000C02F0910D0280818F7D8083E0910A02C6
:103FD000F0910B0275CB808185FFA8CBE091160292
:103FE000F0E0E95AFD4F80816091160270E06F5F4A
:103FF0007F4F6F73772760931602E0911002F09164
:1040000011028083E0910A02F0910B02808183709B
:10401000806480836091150280911602681307C046
:10402000E0910C02F0910D0280818F7D8083E09100
:104030000A02F0910B027ACB808185FF6BCB9FB790
:10404000F894E0911002F09111025083E0910A027D
:10405000F0910B0280818370806480839FBFE1E0D8
:10406000A339BE0709F07DCBC090EB01D090EC01E5
:104070000D2C000CEE08FF08F7FCBFC4A701960149
:1040800019A28E010F5D1F4FCA01B901A301920150
:104090000E947129605DF80162938F01211531053D
:1040A0004105510589F7E0910A02F0910B020115D3
:1040B000110509F43FC0D8010D900020E9F7AD01CA
:1040C000D8014150510961E04A175B0799F17D9190
:1040D000609312029091150280911602981709F4CC
:1040E00026C42091150230E02F5F3F4F2F733327F6
:1040F000922F03C00FB607FE57C080911602981783
:10410000C9F3E0911502F0E0E95AFD4F70839FB7C3
:10411000F89420931502E0910C02F0910D02808139
:10412000806280839FBFE0910A02F0910B024A17E0
:104130005B0769F6A4E9B1E041E05D9140931202AA
:104140009091150280911602981709F48EC0209163
:10415000150230E02F5F3F4F2F733327922F03C09C
:104160000FB607FE51C0809116029817C9F3E0916F
:104170001502F0E0E95AFD4F50839FB7F894209361
:104180001502E0910C02F0910D0280818062808323
:104190009FBFE1EAF1E0EA17FB0709F47FC0E09175
:1041A0000A02F0910B02C9CF808185FFA6CFE09172
:1041B0001602F0E0E95AFD4F8081E0911602F0E02E
:1041C0003196EF73FF27E0931602E0911002F09111
:1041D00011028083E0910A02F0910B0280818370CA
:1041E00080648083E091150280911602E81307C075
:1041F000E0910C02F0910D0280818F7D8083E0912F
:104200000A02F0910B0279CF808185FFACCFE0915B
:104210001602F0E0E95AFD4F80816091160270E0CD
:104220006F5F7F4F6F73772760931602E0911002E4
:10423000F09111028083E0910A02F0910B028081DB
:1042400083708064808360911502809116026813E8
:1042500007C0E0910C02F0910D0280818F7D808378
:10426000E0910A02F0910B027ECF808185FF6FCF33
:104270009FB7F894E0911002F09111025083E09101
:104280000A02F0910B0280818370806480839FBF5B
:10429000E1EAF1E0EA17FB0709F081CFC090E901FC
:1042A000D090EA010D2C000CEE08FF08F7FC4CC47E
:1042B000A701960119A28E010F5D1F4FCA01B90116
:1042C000A30192010E947129605DF80162938F0140
:1042D000211531054105510589F7E0910A02F09158
:1042E0000B020115110509F43FC0D8010D90002003
:1042F000E9F7AD01D8014150510961E0A417B507B4
:1043000099F17D91609312029091150280911602AD
:10431000981709F4F8C22091150230E02F5F3F4F43
:104320002F733327922F03C00FB607FE56C080911C
:1043300016029817C9F3E0911502F0E0E95AFD4F13
:1043400070839FB7F89420931502E0910C02F091CE
:104350000D028081806280839FBFE0910A02F0910C
:104360000B02A417B50769F6A2EAB1E041E05D913E
:10437000409312029091150280911602981709F449
:104380008DC02091150230E02F5F3F4F2F733327F0
:10439000922F03C00FB607FE50C0809116029817E7
:1043A000C9F3E0911502F0E0E95AFD4F50839FB741
:1043B000F89420931502E0910C02F0910D02808197
:1043C000806280839FBFE1E0A23BBE0709F4EBCC93
:1043D000E0910A02F0910B02CACF808185FFA7CF3E
:1043E000E0911602F0E0E95AFD4F8081E09116025B
:1043F000F0E03196EF73FF27E0931602E091100290
:10440000F09111028083E0910A02F0910B02808109
:10441000837080648083E091150280911602E81316
:1044200007C0E0910C02F0910D0280818F7D8083A6
:10443000E0910A02F0910B027ACF808185FFADCF27
:10444000E0911602F0E0E95AFD4F8081609116027A
:1044500070E06F5F7F4F6F73772760931602E09174
:104460001002F09111028083E0910A02F0910B0298
:104470008081837080648083609115028091160230
:10448000681307C0E0910C02F0910D0280818F7DCE
:104490008083E0910A02F0910B027FCF808185FF3B
:1044A00070CF9FB7F894E0911002F0911102508301
:1044B000E0910A02F0910B02808183708064808316
:1044C0009FBF81CFE0911502F0E0E95AFD4F508384
:1044D0009FB7F89420931502E0910C02F0910D0221
:1044E0008081806280839FBF21E0A63BB20709F4F0
:1044F00080CC5D914093120290911502809116023A
:10450000E0910A02F0910B02981709F43BC2209146
:10451000150230E02F5F3F4F2F733327922F03C0D8
:104520000FB607FEC6C0809116029817C9F3CACF0E
:10453000E0911502F0E0E95AFD4F50839FB7F894DF
:1045400020931502E0910C02F0910D0280818062AF
:1045500080839FBF86EB91E08A179B0709F4A7CC65
:104560005D91409312029091150280911602E091A4
:104570000A02F0910B02981709F418C22091150253
:1045800030E02F5F3F4F2F733327922F03C00FB6BA
:1045900007FEC0C0809116029817C9F3C9CF808169
:1045A00085FFA2CCE0911602F0E0E95AFD4F808130
:1045B0006091160270E06F5F7F4F6F737727609393
:1045C0001602E0911002F09111028083E0910A023C
:1045D000F0910B028081837080648083609115026A
:1045E00080911602681307C0E0910C02F0910D0251
:1045F00080818F7D8083E0910A02F0910B0274CC60
:10460000808185FF13CCE0911602F0E0E95AFD4F5E
:1046100080816091160270E06F5F7F4F6F73772724
:1046200060931602E0911002F09111028083E091F4
:104630000A02F0910B028081837080648083609114
:10464000150280911602681307C0E0910C02F091E8
:104650000D0280818F7D8083E0910A02F0910B0230
:10466000E5CB808185FFD6CB9FB7F894E09110020F
:10467000F09111025083E0910A02F0910B028081C7
:104680008370806480839FBFE7CB808185FF20CCCF
:104690009FB7F894E0911002F09111025083E091DD
:1046A0000A02F0910B0280818370806480839FBF37
:1046B00031CC808185FF37CFE0911602F0E0E95AD6
:1046C000FD4F80816091160270E06F5F7F4F6F73C6
:1046D000772760931602E0911002F0911102808317
:1046E000E0910A02F0910B028081837080648083E4
:1046F0006091150280911602681307C0E0910C02C8
:10470000F0910D0280818F7D8083E0910A02F0910B
:104710000B0209CF808185FF3DCFE0911602F0E0CA
:10472000E95AFD4F80816091160270E06F5F7F4F04
:104730006F73772760931602E0911002F0911102D7
:104740008083E0910A02F0910B0280818370806483
:1047500080836091150280911602681307C0E09172
:104760000C02F0910D0280818F7D8083E0910A021E
:10477000F0910B020FCF1092F0011092EF01232B5A
:1047800011F40C94E5148091B0008F758093B00003
:104790008091EF019091F0019093EE018093ED01F3
:1047A0000C94E5142817390711F40C94E5140097BC
:1047B00051F3833391050CF071C5823091050CF4EF
:1047C00048C5843091050CF44EC5883091050CF431
:1047D0004DC58E3091050CF458C58E30910509F405
:1047E0005AC545E050E00F9711F046E050E0509375
:1047F000CB014093CA01C9012333310524F084E67B
:1048000090E0821B930B823091050CF425C5843017
:1048100091050CF431C5883091050CF42AC58E3011
:1048200091050CF42FC58E30910509F428C50F971A
:1048300009F42EC586E090E09093CD018093CC01E1
:104840009093C9018093C801232B59F483EA809384
:10485000B0004091CA015091CB018091C801909164
:10486000C90148175907A9F1CA01880F991F880F74
:10487000991FFC01E40FF51FEE0FFF1FE15FFE4FD4
:10488000228133812034310509F4DBC42032310523
:1048900009F4DBC42AE02093B100FC01E40FF51F0A
:1048A000EE0FFF1FE15FFE4F84819581809304012D
:1048B0009093050146815781608571854093000181
:1048C0005093010160930201709303018150809322
:1048D000B3006091EF017091F001072E000C880B7E
:1048E000990B0E94C92A2091000130910101409149
:1048F0000201509103010E947E2B0E94912A615077
:104900006093B40045CF808185FF05CD9FB7F894B3
:10491000E0911002F09111027083E0910A02F0918F
:104920000B0280818370806480839FBF16CD80815D
:1049300085FFD7CB9FB7F894E0911002F091110258
:104940007083E0910A02F0910B0280818370806491
:1049500080839FBFE8CB808185FD02C00C94541BEF
:104960009FB7F894E0911002F09111027083E091EA
:104970000A02F0910B0280818370806480839FBF64
:104980000C94761B808185FFC2CD9FB7F894E0918F
:104990001002F09111025083E0910A02F0910B0293
:1049A00080818370806480839FBF9ECD808185FFDE
:1049B000E5CD9FB7F894E0911002F0911102508379
:1049C000E0910A02F0910B02808183708064808301
:1049D0009FBFC0CD6533B3E07B070CF4D5C3E4E3E0
:1049E000F3E0F093D101E093D00144E650E050931E
:1049F000EA014093E9010C9465156DE28AEF91E0BC
:104A00000E94130322273327A9012C193D094E09BF
:104A10005F0919A28E010F5D1F4FCA01B901A301E1
:104A200092010E947129605DD8016E938D0121155C
:104A300031054105510589F7E0910A02F0910B0219
:104A4000109709F477CB0D900020E9F7AD01D8015C
:104A50004150510961E04A175B0709F46BCB7D9126
:104A6000609312029091150280911602981709F432
:104A700057C02091150230E02F5F3F4F2F7333272F
:104A8000922F03C00FB607FE1BC080911602981725
:104A9000C9F3E0911502F0E0E95AFD4F70839FB72A
:104AA000F89420931502E0910C02F0910D028081A0
:104AB000806280839FBFE0910A02F0910B02CBCF0E
:104AC000808185FFE2CFE0911602F0E0E95AFD4FC8
:104AD0008081E0911602F0E03196EF73FF27E093BA
:104AE0001602E0911002F09111028083E0910A0217
:104AF000F0910B028081837080648083E0911502C5
:104B000080911602E81307C0E0910C02F0910D02AB
:104B100080818F7D8083E0910A02F0910B02B5CFF6
:104B2000808185FFA6CF9FB7F894E0911002F091A5
:104B300011027083E0910A02F0910B028081837070
:104B4000806480839FBFB7CF6DE28AEF91E00E94BF
:104B5000130322273327A9012C193D094E095F09A8
:104B600019A28E010F5D1F4FCA01B901A301920165
:104B70000E947129605DD8016E938D012115310568
:104B80004105510589F7E0910A02F0910B02109757
:104B900009F4EACB0D900020E9F7AD01D8014150AE
:104BA000510961E04A175B0709F4DECB7D91609300
:104BB00012029091150280911602981709F457C0BD
:104BC0002091150230E02F5F3F4F2F733327922F34
:104BD00003C00FB607FE1BC0809116029817C9F3D9
:104BE000E0911502F0E0E95AFD4F70839FB7F89409
:104BF00020931502E0910C02F0910D0280818062F9
:104C000080839FBFE0910A02F0910B02CBCF80819D
:104C100085FFE2CFE0911602F0E0E95AFD4F808176
:104C2000E0911602F0E03196EF73FF27E093160251
:104C3000E0911002F09111028083E0910A02F0915C
:104C40000B028081837080648083E09115028091E3
:104C50001602E81307C0E0910C02F0910D0280816A
:104C60008F7D8083E0910A02F0910B02B5CF8081A5
:104C700085FFA6CF9FB7F894E0911002F091110242
:104C80007083E0910A02F0910B028081837080644E
:104C900080839FBFB7CF6DE28AEF91E00E9413033C
:104CA00022273327A9012C193D094E095F0919A2B2
:104CB0008E010F5D1F4FCA01B901A30192010E942D
:104CC0007129605DD8016E938D0121153105410573
:104CD000510589F7E0910A02F0910B02109711F447
:104CE0000C947D1B0D900020E9F7AD01D8014150D7
:104CF000510961E0A417B50711F40C947D1B7D9157
:104D0000609312029091150280911602981709F48F
:104D100057C02091150230E02F5F3F4F2F7333278C
:104D2000922F03C00FB607FE1BC080911602981782
:104D3000C9F3E0911502F0E0E95AFD4F70839FB787
:104D4000F89420931502E0910C02F0910D028081FD
:104D5000806280839FBFE0910A02F0910B02CACF6C
:104D6000808185FFE2CFE0911602F0E0E95AFD4F25
:104D70008081E0911602F0E03196EF73FF27E09317
:104D80001602E0911002F09111028083E0910A0274
:104D9000F0910B028081837080648083E091150222
:104DA00080911602E81307C0E0910C02F0910D0209
:104DB00080818F7D8083E0910A02F0910B02B5CF54
:104DC000808185FFA6CF9FB7F894E0911002F09103
:104DD00011027083E0910A02F0910B0280818370CE
:104DE000806480839FBFB7CF70E060E00C94CB16E7
:104DF000E114F104C9F310923303109234031092BA
:104E00003503109236036701CC0CDD1CCC0CDD1C85
:104E1000C00ED11E812C912C5401D8012D913D91B1
:104E20004D915D918D01C501B4010E94AE294B01E8
:104E30005C018092330390923403A0923503B092C8
:104E400036030C151D0549F7B70190E080E00E947C
:104E5000C72A9B01AC01C501B4010E941F2A0E9410
:104E6000912A0C94CB162091390330913A0340914A
:104E70003B0350913C03C501B4010E941A2A87FFED
:104E8000B2C18092390390923A03A0923B03B09250
:104E90003C030C949C16A3EBB1E041E05D91409380
:104EA00012029091150280911602E0910A02F0918F
:104EB0000B02981709F459C02091150230E02F5FBA
:104EC0003F4F2F733327922F03C00FB607FE1CC02E
:104ED000809116029817C9F3E0911502F0E0E95AA3
:104EE000FD4F50839FB7F89420931502E0910C0278
:104EF000F0910D028081806280839FBFF1E0A63B2C
:104F0000BF0761F60C94F91E808185FFE1CFE09127
:104F10001602F0E0E95AFD4F80816091160270E0C0
:104F20006F5F7F4F6F73772760931602E0911002D7
:104F3000F09111028083E0910A02F0910B028081CE
:104F400083708064808360911502809116026813DB
:104F500007C0E0910C02F0910D0280818F7D80836B
:104F6000E0910A02F0910B02B3CF808185FFA4CFBC
:104F70009FB7F894E0911002F09111025083E091F4
:104F80000A02F0910B0280818370806480839FBF4E
:104F9000B5CFA3EBB1E041E05D9140931202909157
:104FA000150280911602E0910A02F0910B02981707
:104FB00009F45AC02091150230E02F5F3F4F2F7344
:104FC0003327922F03C00FB607FE1DC08091160233
:104FD0009817C9F3E0911502F0E0E95AFD4F5083AC
:104FE0009FB7F89420931502E0910C02F0910D0206
:104FF0008081806280839FBFE6EBF1E0EA17FB07C8
:1050000059F60C94571F808185FFE0CFE09116027E
:10501000F0E0E95AFD4F80816091160270E06F5F09
:105020007F4F6F73772760931602E0911002F09123
:1050300011028083E0910A02F0910B02808183705B
:10504000806480836091150280911602681307C006
:10505000E0910C02F0910D0280818F7D8083E091C0
:105060000A02F0910B02B2CF808185FFA3CF9FB7D8
:10507000F894E0911002F09111025083E0910A023D
:10508000F0910B0280818370806480839FBFB4CFD6
:105090008AA1E82FEF70F0E0E057FF4F94918295DE
:1050A0008F70E82FF0E0E056FF4FE4919E27EBA1D0
:1050B0009E27E92FEF70F0E0E057FF4F8491929523
:1050C0009F70E92FF0E0E056FF4FE4918E27ECA1AE
:1050D0008E27E82FEF70F0E0E057FF4F9491E82F14
:1050E000E295EF70F0E0E056FF4F84918927EDA143
:1050F0008E27E82FEF70F0E0E057FF4F94918295F4
:105100008F70E82FF0E0E056FF4FE491E9278EA181
:105110008E27E82FEF70F0E0E057FF4F94918295D3
:105120008F70E82FF0E0E056FF4FE4919E27EFA14B
:105130009E27E92FEF70F0E0E057FF4F84919295A2
:105140009F70E92FF0E0E056FF4FE4918E27E8A52D
:105150008E27E82FEF70F0E0E057FF4F9491829593
:105160008F70E82FF0E0E056FF4FE491E92789A522
:10517000E8130C94F617BE016F5F7F4FCE01829645
:105180000E94FA070C94F917072E000C880B990B54
:105190000E94C92A20E030E04DE453E40E94AD298A
:1051A0002AE031E846E25EE30E947E2B0E94912ACB
:1051B000AB017093EA016093E9010C9465152F5FD0
:1051C0003F4F3093EC012093EB016091040170910B
:1051D000050180E797E10E945D2970938B0360933E
:1051E0008A030C94BA1520913D0330913E034091FF
:1051F0003F0350914003C501B4010E94792B18165A
:1052000014F00C949C1680923D0390923E03A09261
:105210003F03B09240030C949C1621503109309307
:10522000EC012093EB01609104017091050180E194
:1052300097E20E945D2970938B0360938A030C941C
:10524000BA152CE02093B10028CB2BE02093B100BD
:1052500024CB50E040E0CBCA1092CD011092CC019B
:1052600090E080E0EDCA41E050E0C1CA42E050E089
:10527000BECA82E090E0E0CA81E090E0DDCA84E04E
:1052800090E0DACA83E090E0D7CA43E050E0AFCACA
:1052900085E090E0D1CA44E050E0A9CA44E650E07D
:1052A000481B590BCA0189CA809137039091380372
:1052B000009711F00C94872C089597FB072E16F495
:1052C000009407D077FD09D00E94932907FC05D0F0
:1052D0003EF4909581959F4F0895709561957F4F0D
:1052E0000895A1E21A2EAA1BBB1BFD010DC0AA1F27
:1052F000BB1FEE1FFF1FA217B307E407F50720F03F
:10530000A21BB30BE40BF50B661F771F881F991FB9
:105310001A9469F760957095809590959B01AC0102
:10532000BD01CF010895AA1BBB1B51E107C0AA1FF5
:10533000BB1FA617B70710F0A61BB70B881F991F36
:105340005A95A9F780959095BC01CD010895EE0F6F
:10535000FF1F0590F491E02D09945058BB27AA2710
:105360000E94C5290C943F2B0E94312B38F00E94DB
:10537000382B20F039F49F3F19F426F40C942E2B8F
:105380000EF4E095E7FB0C94282BE92F0E94502B9C
:1053900058F3BA17620773078407950720F079F46A
:1053A000A6F50C94722B0EF4E0950B2EBA2FA02DBF
:1053B0000B01B90190010C01CA01A0011124FF27C2
:1053C000591B99F0593F50F4503E68F11A16F040BD
:1053D000A22F232F342F4427585FF3CF46953795BC
:1053E0002795A795F0405395C9F77EF41F16BA0B81
:1053F000620B730B840BBAF09150A1F0FF0FBB1F2F
:10540000661F771F881FC2F70EC0BA0F621F731F77
:10541000841F48F4879577956795B795F7959E3FD4
:1054200008F0B0CF9395880F08F09927EE0F979565
:10543000879508950E94042B08F481E008950E9446
:10544000332A0C943F2B0E94382B58F00E94312BAA
:1054500040F029F45F3F29F00C94282B51110C9453
:10546000732B0C942E2B0E94502B68F39923B1F3CD
:10547000552391F3951B550BBB27AA27621773077A
:10548000840738F09F5F5F4F220F331F441FAA1F0E
:10549000A9F335D00E2E3AF0E0E832D091505040CA
:1054A000E695001CCAF72BD0FE2F29D0660F771F78
:1054B000881FBB1F261737074807AB07B0E809F05E
:1054C000BB0B802DBF01FF2793585F4F3AF09E3FE3
:1054D000510578F00C94282B0C94732B5F3FE4F368
:1054E000983ED4F3869577956795B795F7959F5F26
:1054F000C9F7880F911D9695879597F90895E1E072
:10550000660F771F881FBB1F621773078407BA07D0
:1055100020F0621B730B840BBA0BEE1F88F7E0952B
:1055200008950E94982A6894B1110C94732B0895E1
:105530000E94582B88F09F5798F0B92F9927B751A0
:10554000B0F0E1F0660F771F881F991F1AF0BA9527
:10555000C9F714C0B13091F00E94722BB1E00895E8
:105560000C94722B672F782F8827B85F39F0B93FDA
:10557000CCF3869577956795B395D9F73EF49095DA
:105580008095709561957F4F8F4F9F4F0895E89458
:1055900009C097FB3EF490958095709561957F4F7B
:1055A0008F4F9F4F9923A9F0F92F96E9BB27939529
:1055B000F695879577956795B795F111F8CFFAF439
:1055C000BB0F11F460FF1BC06F5F7F4F8F4F9F4F6A
:1055D00016C0882311F096E911C0772321F09EE8C8
:1055E000872F762F05C0662371F096E8862F70E02E
:1055F00060E02AF09A95660F771F881FDAF7880F08
:105600009695879597F90895990F0008550FAA0B5D
:10561000E0E8FEEF16161706E807F907C0F01216C5
:105620001306E407F50798F0621B730B840B950BC8
:1056300039F40A2661F0232B242B252B21F408951D
:105640000A2609F4A140A6958FEF811D811D0895BA
:1056500097F99F6780E870E060E008959FEF80EC25
:10566000089500240A9416161706180609060895C8
:1056700000240A9412161306140605060895092E2E
:105680000394000C11F4882352F0BB0F40F4BF2B9D
:1056900011F460FF04C06F5F7F4F8F4F9F4F0895DD
:1056A00057FD9058440F551F59F05F3F71F04795D3
:1056B000880F97FB991F61F09F3F79F087950895B8
:1056C000121613061406551FF2CF4695F1DF08C0D7
:1056D000161617061806991FF1CF869571056105F4
:1056E00008940895E894BB2766277727CB0197F99C
:1056F00008950E94042B08F48FEF08950E94912BC7
:105700000C943F2B0E94312B38F00E94382B20F054
:10571000952311F00C94282B0C942E2B11240C940F
:10572000732B0E94502B70F3959FC1F3950F50E09F
:10573000551F629FF001729FBB27F00DB11D639F43
:10574000AA27F00DB11DAA1F649F6627B00DA11DE9
:10575000661F829F2227B00DA11D621F739FB00D8F
:10576000A11D621F839FA00D611D221F749F3327FF
:10577000A00D611D231F849F600D211D822F762F98
:105780006A2F11249F5750409AF0F1F088234AF075
:10579000EE0FFF1FBB1F661F771F881F91505040E1
:1057A000A9F79E3F510580F00C94282B0C94732B85
:1057B0005F3FE4F3983ED4F3869577956795B79568
:1057C000F795E7959F5FC1F7FE2B880F911D969582
:1057D000879597F908950F931F93CF93DF938230A6
:1057E000910510F482E090E0E0918E03F0918F0338
:1057F00030E020E0B0E0A0E0309799F421153105C9
:1058000009F44AC0281B390B24303105D8F58A81A8
:105810009B816115710589F1FB0193838283FE01F0
:1058200011C0408151810281138148175907E0F06E
:105830004817590799F4109761F012960C93129734
:1058400013961C933296CF01DF91CF911F910F9148
:10585000089500938E0310938F03F4CF2115310523
:1058600051F04217530738F0A901DB019A01BD013D
:10587000DF01F801C1CFEF01F9CF90938F0380933F
:105880008E03CDCFFE01E20FF31F8193919322503F
:10589000310939832883D7CF20918C0330918D0330
:1058A000232B41F4209108013091090130938D039D
:1058B00020938C03209106013091070121153105B9
:1058C00041F42DB73EB740910A0150910B01241BC2
:1058D000350BE0918C03F0918D03E217F307A0F4F0
:1058E0002E1B3F0B2817390778F0AC014E5F5F4F36
:1058F0002417350748F04E0F5F1F50938D034093D8
:105900008C03819391939FCFF0E0E0E09CCFCF9305
:10591000DF930097E9F0FC01329713821282A09185
:105920008E03B0918F03ED0130E020E01097A1F4D9
:1059300020813181820F931F20918C0330918D0340
:105940002817390709F061C0F0938D03E0938C03A9
:10595000DF91CF910895EA01CE17DF07E8F54A817C
:105960005B819E0141155105B1F7E901FB83EA8393
:1059700049915991C40FD51FEC17FD0761F480813F
:1059800091810296840F951FE90199838883828112
:1059900093819B838A83F0E0E0E012968D919C9145
:1059A00013970097B9F52D913C911197CD0102966F
:1059B000820F931F20918C0330918D032817390794
:1059C00039F6309751F510928F0310928E03B093F1
:1059D0008D03A0938C03BCCFD383C28340815181BC
:1059E000840F951FC817D90761F44E5F5F4F8881F8
:1059F0009981480F591F518340838A819B819383EA
:105A000082832115310509F0B0CFF0938F03E09325
:105A10008E039ECFFD01DC01C0CF13821282D7CF4F
:105A2000FB01DC018D91019080190110D9F3990BD4
:105A3000089510E0C2E7D0E004C0FE010E94A7294B
:0C5A40002196C337D107C9F7F894FFCFB7
:105A4C0000000040C8000000900380003F5F7F0111
:105A5C00004000C8000000004003002000C8000007
:105A6C000000400700200064000000803F0D00088B
:105A7C0000C800000000400E00080096000000C0A6
:105A8C003F0F00080078009A99993F320008006493
:105A9C00000000803F5E00BC007701000000001396
:105AAC00031805FA05BE050C050B061F0670737569
:105ABC004D6F646500096475747950657263656E29
:105ACC00743A2000097468726F74746C6544757450
