:100000000C945D000C9485000C9485000C94850084
:100010000C9485000C9485000C9485000C9485004C
:100020000C9485000C9485000C9485000C9485003C
:100030000C9485000C9485000C9485000C9485002C
:100040000C94D4020C9485000C945A030C941E0357
:100050000C9485000C9485000C9485000C9485000C
:100060000C9485000C9485000000000024002700FB
:100070002A0000000000250028002B0004040404CE
:100080000404040402020202020203030303030342
:10009000010204081020408001020408102001021F
:1000A00004081020000000080002010000030407FB
:1000B00000000000000000009F0711241FBECFEFCA
:1000C000D8E0DEBFCDBF11E0A0E0B1E0E6E4F0E1B2
:1000D00002C005900D92A831B107D9F721E0A8E13F
:1000E000B1E001C01D92AA3CB207E1F710E0CDE5F6
:1000F000D0E004C02197FE010E941608CC35D1073C
:10010000C9F70E948C030C9421080C94000090E025
:10011000FC01EC55FF4F2491FC01E057FF4F349157
:10012000FC01E458FF4F84918823A1F0211118C0ED
:10013000E82FF0E0EE0FFF1FEE58FF4FA591B491AE
:100140008FB7F894611107C09C91E32FE095E923E4
:10015000EC938FBF0895EC91E32BEC938FBFFACF14
:10016000233029F160F02730E1F02830A1F024306D
:10017000F9F6909180009F7D90938000D9CF213037
:1001800031F02230A9F694B59F7D94BDD1CF94B5BE
:100190009F7794BDCDCF9091B0009F7D9093B0009C
:1001A000C7CF9091B0009F779093B000C1CF90914E
:1001B00080009F7790938000BBCFCF93DF9390E038
:1001C000FC01E057FF4F2491FC01E458FF4F84915C
:1001D0008823B9F090E0880F991FFC01E859FF4F80
:1001E000A591B491FC01EE58FF4FC591D4916623BF
:1001F00059F06230A9F08FB7F894EC91E22BEC93B0
:100200008FBFDF91CF9108959FB7F8948C91E22F23
:10021000E0958E238C932881E223E8839FBFF1CF62
:100220009FB7F8948C91322F309583238C93E8817B
:10023000E22BE8839FBFE5CFFC01918D228D892FB2
:1002400090E0805C9F4F821B91098F7399270895DE
:1002500020913D0180913E0130E0205C3F4F281B02
:1002600031092F73332781E0232B09F480E00895AF
:10027000FC0181E0808F938D848D981709F448C02C
:10028000238D30E02F5F3F4F2F733327922F03C012
:100290000FB607FE17C0848D9817D1F3838DDF0149
:1002A000A80FB11DA35ABF4F6C939FB7F894238F2B
:1002B0000288F389E02D8081806280839FBF81E086
:1002C00090E00895A089B1898C9185FFE4CF848D59
:1002D000DF01A80FB11DA35ABF4F8C91448D50E090
:1002E0004F5F5F4F4F735527448FA689B7898C9313
:1002F000A089B1898C91837080648C93438D848DA7
:100300004813C9CFA289B3898C918F7D8C93C3CFB9
:10031000A089B1898C9185FFB3CF9FB7F894A68946
:10032000B7896C930088F189E02D808183708064A7
:1003300080839FBF81E090E00895BF92CF92DF92CB
:10034000EF92FF920F931F93CF93DF9341155105C7
:1003500009F486C06A01EC017B0100E010E0BB24D7
:10036000B394E881F9810190F081E02DD7016D917E
:100370007D01B1E0E833FB0709F06CC0B88E9B8DBE
:100380008C8D981709F454C02B8D30E02F5F3F4FB0
:100390002F733327922F03C00FB607FE23C08C8D17
:1003A0009817D1F38B8DFE01E80FF11DE35AFF4F33
:1003B00060839FB7F8942B8FEA89FB8980818062E4
:1003C00080839FBF0F5F1F4FC016D10651F6C80133
:1003D000DF91CF911F910F91FF90EF90DF90CF9021
:1003E000BF900895E889F989808185FFD8CF8C8DE9
:1003F000FE01E80FF11DE35AFF4F80814C8D50E064
:100400004F5F5F4F4F7355274C8FEE89FF89808375
:10041000E889F98980818370806480834B8D8C8D1D
:100420004813BDCFEA89FB8980818F7D8083B7CF58
:10043000E889F989808185FFA7CF9FB7F894EE8975
:10044000FF896083E889F989808183708064808373
:100450009FBFB8CFCE010995892B09F0B3CFB7CF95
:1004600000E010E0B4CF089580E090E00895CF93CD
:10047000DF93DC0158968C915897882309F447C084
:100480005296ED91FC9153975096CD91DC915197F6
:10049000908195FF39C00FB607FCFACF908195FF88
:1004A000F7CF888185FFF4CF5C968C915C97FD0136
:1004B000E80FF11DE35AFF4F20815C968C915C9709
:1004C00090E001968F7399275C968C935C97569673
:1004D000ED91FC91579720835096ED91FC915197A7
:1004E00080818370806480835B969C915B975C962F
:1004F0008C915C979813C4CF5296ED91FC915397D1
:1005000080818F7D8083BCCF888186FFC4CFDF91BF
:10051000CF910895FC01238D348D231730F4832F60
:1005200090E0821B9109019708958FE390E0821B70
:100530009109830F911D0895FC01918D828D98176B
:1005400061F0828DDF01A80FB11D5D968C91928DB7
:100550009F5F9F73928F90E008958FEF9FEF0895B4
:10056000FC01918D828D981731F0828DE80FF11D7D
:10057000858D90E008958FEF9FEF089580E090E0E3
:10058000892B79F080913D0120913E0190E0805CC3
:100590009F4F821B91098F739927892B11F00C941F
:1005A000000008950E941C081F920F920FB60F9230
:1005B00011242F933F938F939F93AF93BF93809179
:1005C000C6019091C701A091C801B091C9013091B5
:1005D000C50123E0230F2D3768F126E8230F02968B
:1005E000A11DB11D2093C5018093C6019093C70141
:1005F000A093C801B093C9018091C1019091C2013B
:10060000A091C301B091C4010196A11DB11D8093B9
:10061000C1019093C201A093C301B093C401BF91E3
:10062000AF919F918F913F912F910F900FBE0F909F
:100630001F9018950196A11DB11DD4CF1F920F9246
:100640000FB60F9211242F938F939F93EF93FF93E5
:10065000E0914001F0E0EF57FE4F20818091400192
:1006600090E001968F73992780934001E0913A01C1
:10067000F0913B012083E0913401F09135018081BC
:1006800083708064808390913F0180914001981332
:1006900007C0E0913601F091370180818F7D808322
:1006A000FF91EF919F918F912F910F900FBE0F901F
:1006B0001F9018951F920F920FB60F9211242F932F
:1006C0008F939F93EF93FF93E0913401F091350165
:1006D0008081E0913A01F0913B0182FF0BC0808163
:1006E000FF91EF919F918F912F910F900FBE0F90DF
:1006F0001F901895208180913D018F5F8F7390919D
:100700003E01891769F3E0913D01F0E0EC5DFE4F99
:10071000258F80933D01E4CFCF93DF93CDB7DEB734
:10072000A1970FB6F894DEBF0FBECDBF789484B505
:10073000826084BD84B5816084BD85B5826085BDDD
:1007400085B5816085BD80916E00816080936E006B
:10075000109281008091810082608093810080915D
:10076000810081608093810080918000816080930E
:1007700080008091B10084608093B1008091B000CE
:1007800081608093B00080917A00846080937A00C9
:1007900080917A00826080937A0080917A008160F3
:1007A00080937A0080917A00806880937A0010921A
:1007B000C100E0913401F091350182E08083E09145
:1007C0003001F09131011082E0913201F09133015A
:1007D0008FEC808310923C01E0913801F091390157
:1007E00086E08083E0913601F0913701808180615D
:1007F0008083E0913601F0913701808188608083A9
:10080000E0913601F0913701808180688083E0912A
:100810003601F091370180818F7D808361E083E034
:100820000E94DD0061E08BE00E94DD0061E08CE071
:100830000E94DD0061E08DE00E94DD0060E080E16B
:100840000E94DD0060E08EE00E94DD0060E08FE04D
:100850000E94DD0060E081E10E94DD0060E083E055
:100860000E94870060E08BE00E94870061E08CE0DE
:100870000E94870060E08DE00E94870090E0292EB2
:1008800090E0392E25E0E22EF12C3AE0432E512C57
:10089000612C712C06E111E0DD24D3948DE2C82E89
:1008A000209122013091230137FD24C225363105E4
:1008B00044F084E690E0909323018093220124E6A3
:1008C00030E04091200150912101CA010296821727
:1008D00093070CF0E5C19093230180932201481700
:1008E000590771F0009709F0E4C198E09093B100C6
:1008F0008091220190912301909321018093200106
:1009000045E050E090917A0080917A00887F846081
:1009100080937A00E2E4E0937C0080917A00806426
:1009200080937A0080917A0086FDFCCF80917800D8
:100930002091790090937A0090E0922B20911E01F3
:1009400030911F01820F931F90931F0180931E010E
:1009500041505109B9F6B7010E94CC076D3C7105B1
:100960000CF095C18DEC90E090931F0180931E01D7
:1009700010921D0110921C018FB7F8944091C6018E
:100980005091C7016091C8017091C9018FBF8091DA
:10099000180190911901A0911A01B0911B014A010F
:1009A0005B01881A990AAA0ABB0A809100019091FA
:1009B0000101A0E0B0E088169906AA06BB0608F47B
:1009C000C8C0409318015093190160931A017093A5
:1009D0001B01809122019091230120911C013091F3
:1009E0001D01821793070CF075C1019690932301A6
:1009F000809322018CE390E09093010180930001A9
:100A000090917A0080917A00887F846080937A0048
:100A1000F0E4F0937C0080917A00806480937A0007
:100A200080917A0086FDFCCF20917800809179003A
:100A300030E0382B90937A0037FD6CC1032E000C08
:100A4000440B550B19A2CE0181965C01CA01B90174
:100A5000A30192010E94E007605DF50162935F01CE
:100A6000211531054105510589F73097E9F10190CC
:100A70000020E9F7D5019F0121503109A217B307E2
:100A800099F16D91D0923C0190913F01809140018C
:100A9000E0913401F0913501981709F49FC040911D
:100AA0003F0150E04F5F5F4F4F735527942F03C0B6
:100AB0000FB607FE63C0809140019817C9F3E0911B
:100AC0003F01F0E0EF57FE4F60839FB7F8944093EB
:100AD0003F01E0913601F09137018081806280838F
:100AE0009FBFA217B30769F6A4E1B1E04D91D09280
:100AF0003C0190913F0180914001E0913401F091DF
:100B00003501981709F4AFC020913F0130E02F5F05
:100B10003F4F2F733327922F03C00FB607FE72C0CB
:100B2000809140019817C9F3E0913F01F0E0EF5741
:100B3000FE4F40839FB7F89420933F01E091360128
:100B4000F09137018081806280839FBF0A171B0765
:100B500069F62114310409F4A3CE80913D0120915E
:100B60003E0190E0805C9F4F821B91098F73992713
:100B7000892B09F495CE0E9400008CCE808185FFE0
:100B80009ACFE0914001F0E0EF57FE4F8081E09175
:100B90004001F0E03196EF73FF27E0934001E091D0
:100BA0003A01F0913B018083E0913401F0913501ED
:100BB000808183708064808370913F0180914001C7
:100BC000781307C0E0913601F091370180818F7D65
:100BD0008083E0913401F09135016DCF808185FFF4
:100BE0005ECF9FB7F894E0913A01F0913B016083AA
:100BF000E0913401F09135018081837080648083BD
:100C00009FBF3CCF808185FF8BCFE0914001F0E01A
:100C1000EF57FE4F80816091400170E06F5F7F4F22
:100C20006F73772760934001E0913A01F0913B01A7
:100C30008083E0913401F09135018081837080647C
:100C4000808350913F0180914001581307C0E0918B
:100C50003601F091370180818F7D8083E0913401EE
:100C6000F09135015DCF808185FF4ECF9FB7F8941D
:100C7000E0913A01F0913B014083E0913401F09121
:100C8000350180818370806480839FBF5FCF65332F
:100C900093E07907C4F570931F0160931E0168CE3D
:100CA000CA0102972817390764F5909323018093AE
:100CB0002201452B59F4E3EAE093B000FAE0F09307
:100CC000B10083E68093B30080912201815080932C
:100CD000B4000ECE281739070CF092CE01979093EE
:100CE000230180932201E4E6F0E0F0930101E09318
:100CF000000186CE109223011092220120E030E004
:100D0000E0CDC901ECCDE4E3F3E0F0931F01E09303
:100D10001E012ECED0923C0190913F018091400166
:100D2000E0913401F0913501981709F4F4C0409135
:100D30003F0150E04F5F5F4F4F735527942F03C023
:100D40000FB607FEB7C0809140019817C9F3E09134
:100D50003F01F0E0EF57FE4FC0829FB7F8944093F9
:100D60003F01E0913601F0913701808180628083FC
:100D70009FBFC901330FAA0BBB0B22273327A90141
:100D8000281B390B4A0B5B0B19A2CE0181965C0123
:100D9000CA01B901A30192010E94E007605DF5015B
:100DA00062935F01211531054105510589F730979F
:100DB00009F49ACE01900020E9F7D5019F01215056
:100DC00031092A173B0709F48FCE6D91D0923C016F
:100DD00090913F0180914001E0913401F091350103
:100DE000981709F453C040913F0150E04F5F5F4FA7
:100DF0004F735527942F03C00FB607FE17C080917D
:100E000040019817C9F3E0913F01F0E0EF57FE4F22
:100E100060839FB7F89440933F01E0913601F091D1
:100E200037018081806280839FBFCBCF808185FF27
:100E3000E6CFE0914001F0E0EF57FE4F8081E09176
:100E40004001F0E03196EF73FF27E0934001E0911D
:100E50003A01F0913B018083E0913401F09135013A
:100E6000808183708064808370913F018091400114
:100E7000781307C0E0913601F091370180818F7DB2
:100E80008083E0913401F0913501B9CF808185FFF5
:100E9000AACF9FB7F894E0913A01F0913B016083AB
:100EA000E0913401F091350180818370806480830A
:100EB0009FBF87CF808185FF46CFE0914001F0E062
:100EC000EF57FE4F80816091400170E06F5F7F4F70
:100ED0006F73772760934001E0913A01F0913B01F5
:100EE0008083E0913401F0913501808183708064CA
:100EF000808360913F0180914001681307C0E091B9
:100F00003601F091370180818F7D8083E09134013B
:100F1000F091350118CF808185FF09CF9FB7F894F4
:100F2000E0913A01F0913B01C082E0913401F091EF
:100F3000350180818370806480839FBF1ACFE4E293
:100F4000F1E01382128288EE93E0A0E0B0E08483A7
:100F50009583A683B78386E091E09183808385ECB7
:100F600090E09587848784EC90E09787868780EC73
:100F700090E0918B808B81EC90E0938B828B82EC64
:100F800090E0958B848B86EC90E0978B868B118E0E
:100F9000128E138E148E089597FB072E16F400946C
:100FA00007D077FD09D00E94020807FC05D03EF467
:100FB000909581959F4F0895709561957F4F089505
:100FC000A1E21A2EAA1BBB1BFD010DC0AA1FBB1F4D
:100FD000EE1FFF1FA217B307E407F50720F0A21BBF
:100FE000B30BE40BF50B661F771F881F991F1A942C
:100FF00069F760957095809590959B01AC01BD0156
:10100000CF010895AA1BBB1B51E107C0AA1FBB1F3C
:10101000A617B70710F0A61BB70B881F991F5A9584
:10102000A9F780959095BC01CD010895EE0FFF1FA3
:101030000590F491E02D099481E090E0F8940C94EF
:061040002108F894FFCF27
:1010460064000000000038019D018A0237021C017D
:081056009C02B0020D0A00002B
:00000001FF
