:100000000C945D000C9485000C9485000C94850084
:100010000C9485000C9485000C9485000C9485004C
:100020000C9485000C9485000C9485000C9485003C
:100030000C9485000C9485000C9485000C9485002C
:100040000C9462030C9485000C947B020C943F0288
:100050000C9485000C9485000C9485000C9485000C
:100060000C9485000C9485000000000024002700FB
:100070002A0000000000250028002B0004040404CE
:100080000404040402020202020203030303030342
:10009000010204081020408001020408102001021F
:1000A00004081020000000080002010000030407FB
:1000B0000000000000000000D80C11241FBECFEF8C
:1000C000D8E0DEBFCDBF11E0A0E0B1E0EEE9F1E2A3
:1000D00002C005900D92A83CB107D9F724E0A8EC26
:1000E000B1E001C01D92A93DB207E1F710E0CDE5F6
:1000F000D0E004C02197FE010E94700ECC35D107DC
:10010000C9F70E94AC030C94CD100C940000FC01C4
:1001100081E0808F938D848D981709F448C0238DDA
:1001200030E02F5F3F4F2F733327922F03C00FB65E
:1001300007FE17C0848D9817D1F3838DDF01A80FB8
:10014000B11DA35ABF4F6C939FB7F894238F0288B9
:10015000F389E02D8081806280839FBF81E090E001
:100160000895A089B1898C9185FFE4CF848DDF014A
:10017000A80FB11DA35ABF4F8C91448D50E04F5F23
:100180005F4F4F735527448FA689B7898C93A089F9
:10019000B1898C91837080648C93438D848D4813D6
:1001A000C9CFA289B3898C918F7D8C93C3CFA0894D
:1001B000B1898C9185FFB3CF9FB7F894A689B78991
:1001C0006C930088F189E02D808183708064808346
:1001D0009FBF81E090E00895BF92CF92DF92EF92AF
:1001E000FF920F931F93CF93DF934115510509F4AD
:1001F00086C06A01EC017B0100E010E0BB24B394EF
:10020000E881F9810190F081E02DD7016D917D01A8
:10021000B0E0E738FB0709F06CC0B88E9B8D8C8D81
:10022000981709F454C02B8D30E02F5F3F4F2F7388
:100230003327922F03C00FB607FE23C08C8D98176B
:10024000D1F38B8DFE01E80FF11DE35AFF4F608360
:100250009FB7F8942B8FEA89FB8980818062808325
:100260009FBF0F5F1F4FC016D10651F6C801DF9127
:10027000CF911F910F91FF90EF90DF90CF90BF90A3
:100280000895E889F989808185FFD8CF8C8DFE019A
:10029000E80FF11DE35AFF4F80814C8D50E04F5F16
:1002A0005F4F4F7355274C8FEE89FF898083E88914
:1002B000F98980818370806480834B8D8C8D481395
:1002C000BDCFEA89FB8980818F7D8083B7CFE889A4
:1002D000F989808185FFA7CF9FB7F894EE89FF89C0
:1002E0006083E889F98980818370806480839FBFFF
:1002F000B8CFCE010995892B09F0B3CFB7CF00E075
:1003000010E0B4CFFC01918D228D892F90E0805CAC
:100310009F4F821B91098F73992708952091210285
:100320008091220230E0205C3F4F281B31092F735F
:10033000332781E0232B09F480E00895089580E0BD
:1003400090E00895CF93DF93DC0158968C915897F5
:10035000882309F447C05296ED91FC91539750962B
:10036000CD91DC915197908195FF39C00FB607FC74
:10037000FACF908195FFF7CF888185FFF4CF5C9607
:100380008C915C97FD01E80FF11DE35AFF4F20812E
:100390005C968C915C9790E001968F7399275C96A0
:1003A0008C935C975696ED91FC91579720835096CD
:1003B000ED91FC91519780818370806480835B967E
:1003C0009C915B975C968C915C979813C4CF5296E6
:1003D000ED91FC91539780818F7D8083BCCF888184
:1003E00086FFC4CFDF91CF910895FC01238D348D1A
:1003F000231730F4832F90E0821B91090197089511
:100400008FE390E0821B9109830F911D0895FC01F9
:10041000918D828D981761F0828DDF01A80FB11D3B
:100420005D968C91928D9F5F9F73928F90E008955F
:100430008FEF9FEF0895FC01918D828D981731F019
:10044000828DE80FF11D858D90E008958FEF9FEF6D
:10045000089580E090E0892B79F08091210220912D
:10046000220290E0805C9F4F821B91098F73992735
:10047000892B11F00C94000008950E94C8101F925F
:100480000F920FB60F9211242F938F939F93EF9398
:10049000FF93E0912402F0E0EB59FD4F2081809121
:1004A000240290E001968F73992780932402E091B3
:1004B0001E02F0911F022083E0911802F0911902B0
:1004C00080818370806480839091230280912402D4
:1004D000981307C0E0911A02F0911B0280818F7D72
:1004E0008083FF91EF919F918F912F910F900FBE7D
:1004F0000F901F9018951F920F920FB60F92112414
:100500002F938F939F93EF93FF93E0911802F091B5
:1005100019028081E0911E02F0911F0282FF0BC040
:100520008081FF91EF919F918F912F910F900FBE3E
:100530000F901F9018952081809121028F5F8F73FB
:1005400090912202891769F3E0912102F0E0E85FBF
:10055000FD4F258F80932102E4CF009769F0FC01C5
:1005600001900020E9F73197AF01481B590BBC01FE
:1005700088E092E00C94EC0080E090E00895CF9346
:10058000DF930E94AD02EC0184EC91E00E94AD0289
:100590008C0F9D1FDF91CF91089590E0FC01EC55E9
:1005A000FF4F2491FC01E057FF4F3491FC01E458C8
:1005B000FF4F84918823A1F0211118C0E82FF0E0AB
:1005C000EE0FFF1FEE58FF4FA591B4918FB7F8942F
:1005D000611107C09C91E32FE095E923EC938FBF55
:1005E0000895EC91E32BEC938FBFFACF233029F1E0
:1005F00060F02730E1F02830A1F02430F9F6909136
:1006000080009F7D90938000D9CF213031F022303F
:10061000A9F694B59F7D94BDD1CF94B59F7794BD35
:10062000CDCF9091B0009F7D9093B000C7CF9091B7
:10063000B0009F779093B000C1CF909180009F77DA
:1006400090938000BBCFCF93DF9390E0FC01E05705
:10065000FF4F2491FC01E458FF4F84918823B9F0A7
:1006600090E0880F991FFC01E859FF4FA591B491C4
:10067000FC01EE58FF4FC591D491662359F06230CA
:10068000A9F08FB7F894EC91E22BEC938FBFDF9138
:10069000CF9108959FB7F8948C91E22FE0958E2327
:1006A0008C932881E223E8839FBFF1CF9FB7F89412
:1006B0008C91322F309583238C93E881E22BE88351
:1006C0009FBFE5CF1F920F920FB60F9211242F9369
:1006D0003F938F939F93AF93BF9380910402909128
:1006E0000502A0910602B09107023091D40423E0E4
:1006F000230F2D3768F126E8230F0296A11DB11DA7
:100700002093D4048093040290930502A0930602E0
:10071000B09307028091D0049091D104A091D204AB
:10072000B091D3040196A11DB11D8093D004909384
:10073000D104A093D204B093D304BF91AF919F9101
:100740008F913F912F910F900FBE0F901F90189592
:100750000196A11DB11DD4CF789484B5826084BD6B
:1007600084B5816084BD85B5826085BD85B58160B5
:1007700085BD80916E00816080936E001092810033
:1007800080918100826080938100809181008160EE
:1007900080938100809180008160809380008091AF
:1007A000B10084608093B1008091B000816080933B
:1007B000B00080917A00846080937A0080917A0002
:1007C000826080937A0080917A00816080937A00C1
:1007D00080917A00806880937A001092C10061E075
:1007E00083E00E94230361E08BE00E94230361E029
:1007F0008CE00E94230361E08DE00E94230360E00F
:100800008EE00E94230360E08FE00E94230360E0FB
:1008100081E10E94230360E083E00E94CD0260E05A
:100820008BE00E94CD0261E08CE00E94CD0260E08E
:100830008DE00E94CD0228E032E0E0911802F091B4
:10084000190282E08083E0911402F0911502108277
:10085000E0911602F091170280E18083109220024D
:10086000E0911C02F0911D0286E08083E0911A0263
:10087000F0911B02808180618083E0911A02F091E7
:100880001B02808188608083E0911A02F0911B0234
:10089000808180688083E0911A02F0911B02808140
:1008A0008F7D80833093AF042093AE0481E08093EA
:1008B000B2043093B1042093B0044DE050E066E6FA
:1008C00071E08EED91E00E94F30D81E090E0909355
:1008D000EB018093EA0183E791E00E94BF028DE87B
:1008E00091E00E94BF0284EB91E00E94AD0286E697
:1008F00091E00E94BF0280E480937C0080917A00A6
:10090000806480937A0080917A0086FDFCCF80918C
:100910007800809179001092D6011092D50140E4C0
:1009200090917A0080917A00887F846080937A0029
:1009300040937C0080917A00806480937A0080915B
:100940007A0086FDFCCF8091780020917900909309
:100950007A0090E0922B2091D3013091D401820F44
:10096000931F9093D4018093D3012091D5013091AE
:10097000D6012F5F3F4F3093D6012093D501243607
:10098000310574F264E670E00E94070E7093D201A4
:100990006093D10165E0A62EB12C212C74E2372E94
:1009A00074EF472E512C44E6642E712C50E4C52E72
:1009B000809102029091030297FD31C58536910521
:1009C0000CF463C470920302609202022091000250
:1009D000309101022436310509F055C58091D001CE
:1009E00081111FC48091FE019091FF012091CE01E1
:1009F0003091CF012817390711F01092D001909350
:100A0000CF018093CE018FB7F894409104025091AA
:100A1000050260910602709107028FBF8091CA049F
:100A20009091CB04A091CC04B091CD048A019B019C
:100A3000081B190B2A0B3B0B8091CE049091CF041D
:100A4000092E000CAA0BBB0B081719072A073B0736
:100A500048F14093CA045093CB046093CC04709344
:100A6000CD048091D001811113C080910202909138
:100A700003022091FE013091FF01821793070CF4CD
:100A80003CC5281739070CF49DC681E08093D0013E
:100A90008091DA019091DB018D3291400CF00FC50D
:100AA0001092D9018FB7F894409104025091050239
:100AB00060910602709107028FBF8091C4049091EB
:100AC000C504A091C604B091C7048A019B01081B0C
:100AD000190B2A0B3B0B8091C8049091C904092E75
:100AE000000CAA0BBB0B081719072A073B0708F4D1
:100AF00059C04093C4045093C5046093C6047093D6
:100B0000C7041092D6011092D5012091D3013091E3
:100B1000D4014091D1015091D201241B350B309367
:100B2000D4012093D30190917A0080917A00887F3C
:100B3000846080937A00C0927C0080917A00806407
:100B400080937A0080917A0086FDFCCF2091780016
:100B50008091790090937A0030E0382B8091D30116
:100B60009091D401280F391F3093D4012093D301E1
:100B7000C901B3010E94070EAB016093D1017093CC
:100B8000D2018091D5019091D60101969093D60122
:100B90008093D501843691050CF4BFCF6093DA01C0
:100BA0007093DB018FB7F8944091040250910502D5
:100BB00060910602709107028FBF8091BE049091F0
:100BC000BF04A091C004B091C1048A019B01081B1D
:100BD000190B2A0B3B0B8091C2049091C304092E80
:100BE000000CAA0BBB0B081719072A073B0708F4D0
:100BF00046C04093BE045093BF046093C0047093FA
:100C0000C1041092D6011092D50143E490917A006C
:100C100080917A00887F846080937A0040937C0082
:100C200080917A00806480937A0080917A0086FDBA
:100C3000FCCF809178002091790090937A0090E029
:100C4000922B2091DC013091DD01820F931F909354
:100C5000DD018093DC012091D5013091D6012F5F19
:100C60003F4F3093D6012093D5012530310574F2E2
:100C7000B5010E94070E7093DD016093DC018FB710
:100C8000F89440910402509105026091060270911F
:100C900007028FBF8091B8049091B904A091BA0463
:100CA000B091BB048A019B01081B190B2A0B3B0B5B
:100CB0008091BC049091BD04092E000CAA0BBB0BC3
:100CC000081719072A073B0708F495C24093B80490
:100CD0005093B9046093BA047093BB048091FE01F1
:100CE0009091FF019093ED018093EC0180910202BD
:100CF000909103029093EF018093EE0140910401E3
:100D0000509105018091060190910701489F900143
:100D1000499F300D589F300D1124032E000C440BB9
:100D2000550BC201B1010E941B0E3093F1012093BB
:100D3000F0016091DC017091DD01072E000C880B41
:100D4000990B0E94AE0E23E333E343E35DE30E947D
:100D5000120F6093F2017093F3018093F40190936A
:100D6000F5016091DA017091DB01072E000C880B10
:100D7000990B0E94AE0E20E030E048EC5DE30E944B
:100D8000120F6093F6017093F7018093F80190932E
:100D9000F9011092FA018091D9018093FB01109220
:100DA000FC011092FD0180E290E09093D8018093C5
:100DB000D701EEEDF1E0ABEAB2E001900D928A9539
:100DC000E1F78FEF8093B6040BEA12E0F80180E0C0
:100DD00091919E3709F4A3C38F5F8032C9F78FE1E9
:100DE000282F30E0F901E555FD4F90819E3709F439
:100DF00073C38150A8F74091A9025091AA022BEC2D
:100E000032E0EBEAF2E0D12C8191D826DA01AD0D87
:100E1000B11DDC902E173F07B9F7A091AE04B09139
:100E2000AF04ED91FC9111970190F081E02D40E02D
:100E3000E738F40709F076C581E058968C93589707
:100E40005B969C915B975C968C915C97981709F4E4
:100E500033C55B962C915B9730E02F5F3F4F2F732C
:100E60003327922F03C00FB607FE5CC35C968C91AC
:100E70005C979817C1F35B968C915B97FD01E80F27
:100E8000F11DE35AFF4F8EE780839FB7F8945B967E
:100E90002C935B975296ED91FC91539780818062E1
:100EA00080839FBFA091AE04B091AF04ED91FC91FF
:100EB00011970190F081E02D50E0E738F50709F037
:100EC00039C581E058968C9358975B969C915B97B7
:100ED0005C968C915C97981709F4D6C45B962C911C
:100EE0005B9730E02F5F3F4F2F733327922F03C064
:100EF0000FB607FE4FC35C968C915C979817C1F3B1
:100F00005B968C915B97FD01E80FF11DE35AFF4F53
:100F100010829FB7F8945B962C935B975296ED9155
:100F2000FC9153978081806280839FBFA091AE0423
:100F3000B091AF04ED91FC9111970190F081E02DFB
:100F40006091B60480E0E738F80709F0F7C481E063
:100F500058968C9358975B969C915B975C968C9176
:100F60005C97981709F460C45B962C915B9730E00E
:100F70002F5F3F4F2F733327922F03C00FB607FE0B
:100F800041C35C968C915C979817C1F35B968C91EA
:100F90005B97FD01E80FF11DE35AFF4F60839FB798
:100FA000F8945B962C935B975296ED91FC91539736
:100FB0008081806280839FBFA091AE04B091AF0416
:100FC000ED91FC9111970190F081E02D6091D70196
:100FD00090E0E738F90709F0BCC481E058968C939B
:100FE00058975B969C915B975C968C915C97981751
:100FF00009F402C45B962C915B9730E02F5F3F4F62
:101000002F733327922F03C00FB607FE6BC35C9676
:101010008C915C979817C1F35B968C915B97FD015F
:10102000E80FF11DE35AFF4F60839FB7F8945B967A
:101030002C935B975296ED91FC915397808180623F
:1010400080839FBFC091AE04D091AF04E881F98145
:101050000280F381E02D4091D7015091D8015527AE
:10106000A0E0EC3EFA0709F077C49A0125553D4F00
:10107000790199249394E016F106A1F1E881F981B0
:101080000190F081E02DD8016D918D01B0E0E7383D
:10109000FB0709F0F2C1988E9B8D8C8D981709F48F
:1010A000DAC12B8D30E02F5F3F4F2F733327922F04
:1010B00003C00FB607FEC3C08C8D9817D1F38B8D7C
:1010C000FE01E80FF11DE35AFF4F60839FB7F894CC
:1010D0002B8FEA89FB898081806280839FBFE01625
:1010E000F10661F6A091AE04B091AF04ED91FC91D0
:1010F00011970190F081E02D20E0E738F20709F028
:1011000015C481E058968C9358975B969C915B9799
:101110005C968C915C97981709F49EC35B962C9112
:101120005B9730E02F5F3F4F2F733327922F03C021
:101130000FB607FE9FC25C968C915C979817C1F31F
:101140005B968C915B97FD01E80FF11DE35AFF4F11
:10115000D0829FB7F8945B962C935B975296ED9153
:10116000FC9153978081806280839FBFA091AE04E1
:10117000B091AF04ED91FC9111970190F081E02DB9
:1011800030E0E738F30709F0C9C381E058968C9343
:1011900058975B969C915B975C968C915C9798179F
:1011A00009F4A3C35B962C915B9730E02F5F3F4F10
:1011B0002F733327922F03C00FB607FECBC25C9666
:1011C0008C915C979817C1F35B968C915B97FD01AE
:1011D000E80FF11DE35AFF4F81E880839FB7F89431
:1011E0005B962C935B975296ED91FC91539780817F
:1011F000806280839FBF40E050E0452B09F4D8CB4C
:10120000809121022091220290E0805C9F4F821BFE
:1012100091098F739927892B09F4CACB0E9400008A
:10122000C2CB8091FE019091FF01009709F008C1A7
:101230007092FF016092FE0184E690E0D7CBE889CE
:10124000F989808185FF38CF8C8DFE01E80FF11D73
:10125000E35AFF4F80814C8D50E04F5F5F4F4F73DB
:1012600055274C8FEE89FF898083E889F989808131
:101270008370806480834B8D8C8D48131DCFEA89E9
:10128000FB8980818F7D808317CF20910002309170
:1012900001028217930709F4A1CB009709F4CAC091
:1012A000833391050CF07FC3823091050CF4F1C0BB
:1012B000843091050CF468C3883091050CF461C347
:1012C0008E3091050CF45AC38E30910509F45FC33A
:1012D0000F9709F465C386E090E09093CB0180936B
:1012E000CA01233331050CF4DEC0A301421B530BAA
:1012F0001092CD011092CC01423051050CF4DCC0AB
:10130000443051050CF42DC3483051050CF433C35F
:101310004E3051050CF42CC34E30510509F43DC339
:101320004F30510509F436C3A6E0B0E0B093CD01CB
:10133000A093CC0146E050E05093C9014093C8010E
:10134000232B59F483EA8093B0008091CA019091D5
:10135000CB014091C8015091C90148175907E9F1E3
:10136000FC01EE0FFF1F880F991F880F991F880F30
:10137000991FDF01A80FB91FA25FBE4F12962D91D2
:101380003C9113972034310509F42EC220323105E7
:1013900009F4D7C228E030E030930501209304011E
:1013A0002AE02093B1008E0F9F1FFC01E25FFE4FE9
:1013B000848195818093060190930701468157812E
:1013C0006085718540930001509301016093020193
:1013D0007093030181508093B30060910202709179
:1013E0000302072E000C880B990B0E94AE0E209171
:1013F00000013091010140910201509103010E94CE
:10140000120F0E94760E61506093B4008091020228
:10141000909103029093010280930002DFCA109220
:101420000302109202028091000290910102892B26
:1014300009F4D4CA8091B0008F758093B000E6CFD4
:101440008436910509F0D2CA1092FF011092FE0174
:1014500080E090E0CBCAE889F989808185FF21CEC0
:101460009FB7F894EE89FF896083E889F9898081C4
:101470008370806480839FBFFECDCE010995892B48
:1014800009F0F9CD2FCE80E090E0823091050CF08C
:101490000FCF80E090E09093CB018093CA0123337B
:1014A00031050CF022CF1092CD011092CC01A90190
:1014B000423051050CF024CF40E050E03DCF809108
:1014C000020290910302029790930302809302021A
:1014D00081E08093D901E6CA8FE103C0815008F40E
:1014E0008ACC482F50E0FA01E555FD4F90819E3798
:1014F000A9F7281B2083282FF1CF01969093030290
:1015000080930202609106017091070180E797E1E4
:101510000E94070E7093CF046093CE04B9CA8093E3
:10152000B6045DCC5096ED91FC915197808185FF7A
:101530009DCC5C968C915C97FD01E80FF11DE35A00
:10154000FF4F80815C964C915C9750E04F5F5F4FFE
:101550004F7355275C964C935C975696ED91FC9192
:10156000579780835096ED91FC91519780818370BD
:10157000806480835B964C915B975C968C915C97C2
:10158000481374CC5296ED91FC91539780818F7DD6
:1015900080836CCC5096ED91FC915197808185FFB2
:1015A000AACC5C968C915C97FD01E80FF11DE35A83
:1015B000FF4F80815C964C915C9750E04F5F5F4F8E
:1015C0004F7355275C964C935C975696ED91FC9122
:1015D000579780835096ED91FC915197808183704D
:1015E000806480835B964C915B975C968C915C9752
:1015F000481381CC5296ED91FC91539780818F7D59
:10160000808379CC5096ED91FC915197808185FF34
:10161000B8CC5C968C915C97FD01E80FF11DE35A04
:10162000FF4F80815C964C915C9750E04F5F5F4F1D
:101630004F7355275C964C935C975696ED91FC91B1
:10164000579780835096ED91FC91519780818370DC
:10165000806480835B964C915B975C968C915C97E1
:1016600048138FCC5296ED91FC91539780818F7DDA
:10167000808387CC5096ED91FC915197808185FFB6
:101680005ACD5C968C915C97FD01E80FF11DE35AF1
:10169000FF4F80815C964C915C9750E04F5F5F4FAD
:1016A0004F7355275C964C935C975696ED91FC9141
:1016B000579780835096ED91FC915197808183706C
:1016C000806480835B964C915B975C968C915C9771
:1016D000481331CD5296ED91FC91539780818F7DC7
:1016E000808329CD5096ED91FC915197808185FFA3
:1016F0008ECC5C968C915C97FD01E80FF11DE35A4E
:10170000FF4F80815C964C915C9750E04F5F5F4F3C
:101710004F7355275C964C935C975696ED91FC91D0
:10172000579780835096ED91FC91519780818370FB
:10173000806480835B964C915B975C968C915C9700
:10174000481365CC5296ED91FC91539780818F7D23
:1017500080835DCC5096ED91FC915197808185FFFF
:101760002ECD5C968C915C97FD01E80FF11DE35A3C
:10177000FF4F80815C964C915C9750E04F5F5F4FCC
:101780004F7355275C964C935C975696ED91FC9160
:10179000579780835096ED91FC915197808183708B
:1017A000806480835B964C915B975C968C915C9790
:1017B000481305CD5296ED91FC91539780818F7D12
:1017C0008083FDCC01979093030280930202609185
:1017D00006017091070180E197E20E94070E709365
:1017E000CF046093CE0454C93093050120930401C3
:1017F0002CE02093B100D7CD5096ED91FC915197FC
:10180000808185FFF7CB9FB7F8945696ED91FC91B8
:10181000579760835096ED91FC915197808183702A
:10182000806480839FBF0ECC5096ED91FC915197C0
:10183000808185FF99CB9FB7F8945696ED91FC91E6
:10184000579760835096ED91FC91519780818370FA
:10185000806480839FBFB0CB5096ED91FC915197EF
:10186000808185FF5BCC9FB7F8945696ED91FC91F3
:101870005797D0825096ED91FC915197808183705B
:10188000806480839FBF72CC5096ED91FC915197FC
:10189000808185FF23CB9FB7F8945696ED91FC91FC
:1018A000579710825096ED91FC91519780818370EB
:1018B000806480839FBF3ACB5096ED91FC91519705
:1018C000808185FFC6CA9FB7F8945696ED91FC912A
:1018D00057978EE780835096ED91FC9151978081C8
:1018E0008370806480839FBFDDCA5096ED91FC9128
:1018F0005197808185FF56CC9FB7F8945696ED910D
:10190000FC91579781E880835096ED91FC91519717
:1019100080818370806480839FBF6DCC61E8CD013E
:10192000099569CC6EE7CD010995BCCA6D2DCD0135
:1019300009951CCC60E0CD010995F8CACD01099547
:101940003BCB30930501209304012BE02093B100A1
:101950002ACDCD01099576CB6BEA72E0CE010995CF
:10196000C1CB41E050E05093CD014093CC01E4CC99
:1019700043E050E0F8CF42E050E0F5CF83E090E064
:10198000ACCC82E090E0A9CC81E090E0A6CC84E0F1
:1019900090E0A3CC45E050E0E6CF44E050E0E3CF58
:1019A00085E090E09ACCA301481B590BCA017CCC7E
:1019B00010920B0210920A0288EE93E0A0E0B0E0D1
:1019C00080930C0290930D02A0930E02B0930F022D
:1019D00088E591E0909309028093080285EC90E0FD
:1019E000909315028093140284EC90E09093170278
:1019F0008093160280EC90E0909319028093180275
:101A000081EC90E090931B0280931A0282EC90E0AC
:101A100090931D0280931C0286EC90E090931F022D
:101A200080931E0210922102109222021092230231
:101A3000109224021092B8041092B9041092BA04C1
:101A40001092BB0484E690E09093BD048093BC04A4
:101A50008BE98093A50288E08093A80280E091E062
:101A60009093A7028093A6020E94A70F8093A902D9
:101A70009093AA02AC0120E030E030C0C901880F89
:101A8000991F87FD35C0880F991F87FD38C0880FC3
:101A9000991F87FD3BC0880F991F87FD3EC0880FA7
:101AA000991F87FD41C0880F991F87FD44C0880F8B
:101AB000991F87FD47C0880F991FFA01E20FF31F96
:101AC00080832F5F3F4F8091A6029091A702281735
:101AD0003907F0F54091A9025091AA0227FFCECF15
:101AE0006091A502C901880F991F862787FFCBCF78
:101AF000880F991F6091A502862787FFC8CF880F9E
:101B0000991F6091A502862787FFC5CF880F991F6F
:101B10006091A502862787FFC2CF880F991F609129
:101B2000A502862787FFBFCF880F991F6091A50266
:101B3000862787FFBCCF880F991F6091A502862753
:101B400087FFB9CF880F991F6091A5028627B5CF6F
:101B50001092A7041092A8041092AA041092A9044B
:101B60001092AC041092AB041092AD041092B20427
:101B70001092B3041092B4041092B5041092B604FB
:101B80001092B7041092C4041092C5041092C604B7
:101B90001092C70481E090E09093C9048093C80438
:101BA0001092BE041092BF041092C0041092C1049F
:101BB0008AE090E09093C3048093C2046091060190
:101BC0007091070180E197E20E94070E1092CA040B
:101BD0001092CB041092CC041092CD047093CF04D9
:101BE0006093CE040895DC01FB014150504058F051
:101BF00049F001900D920020C1F7E61BF70B3197D9
:101C0000CF0108951C9201900020E9F7F6CF97FBD1
:101C1000072E16F4009407D077FD09D00E943A0EE3
:101C200007FC05D03EF4909581959F4F08957095DF
:101C300061957F4F0895052E97FB1EF400940E9436
:101C4000320E57FD07D00E944E0E07FC03D04EF413
:101C50000C94320E50954095309521953F4F4F4F43
:101C60005F4F089590958095709561957F4F8F4F48
:101C70009F4F0895AA1BBB1B51E107C0AA1FBB1FA2
:101C8000A617B70710F0A61BB70B881F991F5A9508
:101C9000A9F780959095BC01CD010895A1E21A2E77
:101CA000AA1BBB1BFD010DC0AA1FBB1FEE1FFF1F00
:101CB000A217B307E407F50720F0A21BB30BE40B50
:101CC000F50B661F771F881F991F1A9469F7609597
:101CD0007095809590959B01AC01BD01CF01089551
:101CE000EE0FFF1F0590F491E02D09940E947D0EE8
:101CF0006894B1110C940C0F08950E94F10E88F0B5
:101D00009F5798F0B92F9927B751B0F0E1F0660FBF
:101D1000771F881F991F1AF0BA95C9F714C0B13000
:101D200091F00E940B0FB1E008950C940B0F672FF8
:101D3000782F8827B85F39F0B93FCCF3869577952F
:101D40006795B395D9F73EF4909580957095619518
:101D50007F4F8F4F9F4F0895E89409C097FB3EF443
:101D600090958095709561957F4F8F4F9F4F9923E8
:101D7000A9F0F92F96E9BB279395F6958795779566
:101D80006795B795F111F8CFFAF4BB0F11F460FF26
:101D90001BC06F5F7F4F8F4F9F4F16C0882311F07E
:101DA00096E911C0772321F09EE8872F762F05C092
:101DB000662371F096E8862F70E060E02AF09A952D
:101DC000660F771F881FDAF7880F9695879597F922
:101DD000089557FD9058440F551F59F05F3F71F01B
:101DE0004795880F97FB991F61F09F3F79F0879582
:101DF0000895121613061406551FF2CF4695F1DF0B
:101E000008C0161617061806991FF1CF869571059A
:101E1000610508940895E894BB2766277727CB01CE
:101E200097F908950E94250F0C94960F0E94880F31
:101E300038F00E948F0F20F0952311F00C947F0F43
:101E40000C94850F11240C940C0F0E94E90E70F372
:101E5000959FC1F3950F50E0551F629FF001729F4F
:101E6000BB27F00DB11D639FAA27F00DB11DAA1F5E
:101E7000649F6627B00DA11D661F829F2227B00DAB
:101E8000A11D621F739FB00DA11D621F839FA00D36
:101E9000611D221F749F3327A00D611D231F849F86
:101EA000600D211D822F762F6A2F11249F575040DD
:101EB0009AF0F1F088234AF0EE0FFF1FBB1F661F58
:101EC000771F881F91505040A9F79E3F510580F021
:101ED0000C947F0F0C940C0F5F3FE4F3983ED4F307
:101EE000869577956795B795F795E7959F5FC1F7C5
:101EF000FE2B880F911D9695879597F9089597F970
:101F00009F6780E870E060E008959FEF80EC08959F
:101F100000240A94161617061806090608950024C8
:101F20000A9412161306140605060895092E039442
:101F3000000C11F4882352F0BB0F40F4BF2B11F4B6
:101F400060FF04C06F5F7F4F8F4F9F4F08950F93C7
:101F50001F93CF93DF938230910510F482E090E0DD
:101F6000E091D704F091D80420E030E0A0E0B0E0A8
:101F7000309719F140815181028113814817590727
:101F8000C8F08417950769F4109731F012960C93F6
:101F9000129713961C9327C00093D7041093D8046C
:101FA00022C02115310519F04217530718F49A0180
:101FB000BD01EF01DF01F801DBCF21153105F9F09B
:101FC000281B390B2430310580F48A819B816115EF
:101FD000710521F0FB019383828304C09093D804A0
:101FE0008093D704FE01329644C0FE01E20FF31F36
:101FF0008193919322503109398328833AC02091EB
:10200000D5043091D604232B41F420910A0130915C
:102010000B013093D6042093D50420910801309110
:1020200009012115310541F42DB73EB740910C014E
:1020300050910D01241B350BE091D504F091D6048D
:10204000E217F307A0F42E1B3F0B2817390778F08F
:10205000AC014E5F5F4F2417350748F04E0F5F1FEE
:102060005093D6044093D5048193919302C0E0E04D
:10207000F0E0CF01DF91CF911F910F910895CF93A1
:10208000DF93009709F481C0FC013297138212821A
:10209000A091D704B091D804109781F420813181A8
:1020A000820F931F2091D5043091D6042817390749
:1020B00051F5F093D604E093D50467C0ED0120E01C
:1020C00030E0CE17DF0740F44A815B819E01411565
:1020D0005105F1F0EA01F5CFD383C28340815181EC
:1020E000840F951FC817D90759F488819981840FE7
:1020F000951F0296918380838A819B81938382833B
:102100002115310529F4F093D804E093D7043DC09C
:10211000E901FB83EA8349915991C40FD51FEC175C
:10212000FD0761F480819181840F951F0296E9017A
:1021300099838883828193819B838A83E0E0F0E0A6
:1021400012968D919C911397009719F0FD01DC0177
:10215000F7CF8D919C9111979D012E5F3F4F820F7C
:10216000931F2091D5043091D6042817390769F4BC
:10217000309729F41092D8041092D70402C0138229
:102180001282B093D604A093D504DF91CF91089525
:0E21900081E090E0F8940C94CD10F894FFCF0D
:10219E00000000404000C8000000D90420000100EB
:1021AE004000C8000000004003002000C8000000EE
:1021BE0000400700200064000000803F0D00080072
:1021CE00C800000000400E00080096000000C03F4E
:1021DE000F00080078009A99993F320008006400B9
:1021EE000000803F000000008700EC00F501A20116
:1021FE00820107021B02323032302E30362E323040
:10220E002D33004D6F746F7220436F6E74726F6C4E
:10221E006C6572204669726D7761726500436F70EE
:10222E007972696768742028632920323032302031
:10223E004170706C69656420456E67696E65657284
:10224E00696E6700426F6F7465642076657273699C
:08225E006F6E20000D0A000064
:00000001FF
