:100000000C945D000C9485000C9485000C94850084
:100010000C9485000C9485000C9485000C9485004C
:100020000C9485000C9485000C9485000C9485003C
:100030000C9485000C9485000C9485000C9485002C
:100040000C9462030C9485000C947B020C943F0288
:100050000C9485000C9485000C9485000C9485000C
:100060000C9485000C9485000000000024002700FB
:100070002A0000000000250028002B0004040404CE
:100080000404040402020202020203030303030342
:10009000010204081020408001020408102001021F
:1000A00004081020000000080002010000030407FB
:1000B00000000000000000007F0D11241FBECFEFE4
:1000C000D8E0DEBFCDBF11E0A0E0B1E0ECEEF2E29F
:1000D00002C005900D92A83CB107D9F724E0A8EC26
:1000E000B1E001C01D92A03EB207E1F710E0CDE5FE
:1000F000D0E004C02197FE010E94170FCC35D10734
:10010000C9F70E94AC030C9474110C940000FC011C
:1001100081E0808F938D848D981709F448C0238DDA
:1001200030E02F5F3F4F2F733327922F03C00FB65E
:1001300007FE17C0848D9817D1F3838DDF01A80FB8
:10014000B11DA35ABF4F6C939FB7F894238F0288B9
:10015000F389E02D8081806280839FBF81E090E001
:100160000895A089B1898C9185FFE4CF848DDF014A
:10017000A80FB11DA35ABF4F8C91448D50E04F5F23
:100180005F4F4F735527448FA689B7898C93A089F9
:10019000B1898C91837080648C93438D848D4813D6
:1001A000C9CFA289B3898C918F7D8C93C3CFA0894D
:1001B000B1898C9185FFB3CF9FB7F894A689B78991
:1001C0006C930088F189E02D808183708064808346
:1001D0009FBF81E090E00895BF92CF92DF92EF92AF
:1001E000FF920F931F93CF93DF934115510509F4AD
:1001F00086C06A01EC017B0100E010E0BB24B394EF
:10020000E881F9810190F081E02DD7016D917D01A8
:10021000B0E0E738FB0709F06CC0B88E9B8D8C8D81
:10022000981709F454C02B8D30E02F5F3F4F2F7388
:100230003327922F03C00FB607FE23C08C8D98176B
:10024000D1F38B8DFE01E80FF11DE35AFF4F608360
:100250009FB7F8942B8FEA89FB8980818062808325
:100260009FBF0F5F1F4FC016D10651F6C801DF9127
:10027000CF911F910F91FF90EF90DF90CF90BF90A3
:100280000895E889F989808185FFD8CF8C8DFE019A
:10029000E80FF11DE35AFF4F80814C8D50E04F5F16
:1002A0005F4F4F7355274C8FEE89FF898083E88914
:1002B000F98980818370806480834B8D8C8D481395
:1002C000BDCFEA89FB8980818F7D8083B7CFE889A4
:1002D000F989808185FFA7CF9FB7F894EE89FF89C0
:1002E0006083E889F98980818370806480839FBFFF
:1002F000B8CFCE010995892B09F0B3CFB7CF00E075
:1003000010E0B4CFFC01918D228D892F90E0805CAC
:100310009F4F821B91098F7399270895209128027E
:100320008091290230E0205C3F4F281B31092F7358
:10033000332781E0232B09F480E00895089580E0BD
:1003400090E00895CF93DF93DC0158968C915897F5
:10035000882309F447C05296ED91FC91539750962B
:10036000CD91DC915197908195FF39C00FB607FC74
:10037000FACF908195FFF7CF888185FFF4CF5C9607
:100380008C915C97FD01E80FF11DE35AFF4F20812E
:100390005C968C915C9790E001968F7399275C96A0
:1003A0008C935C975696ED91FC91579720835096CD
:1003B000ED91FC91519780818370806480835B967E
:1003C0009C915B975C968C915C979813C4CF5296E6
:1003D000ED91FC91539780818F7D8083BCCF888184
:1003E00086FFC4CFDF91CF910895FC01238D348D1A
:1003F000231730F4832F90E0821B91090197089511
:100400008FE390E0821B9109830F911D0895FC01F9
:10041000918D828D981761F0828DDF01A80FB11D3B
:100420005D968C91928D9F5F9F73928F90E008955F
:100430008FEF9FEF0895FC01918D828D981731F019
:10044000828DE80FF11D858D90E008958FEF9FEF6D
:10045000089580E090E0892B79F080912802209126
:10046000290290E0805C9F4F821B91098F7399272E
:10047000892B11F00C94000008950E946F111F92B7
:100480000F920FB60F9211242F938F939F93EF9398
:10049000FF93E0912B02F0E0E459FD4F2081809121
:1004A0002B0290E001968F73992780932B02E091A5
:1004B0002502F09126022083E0911F02F091200294
:1004C000808183708064808390912A0280912B02C6
:1004D000981307C0E0912102F091220280818F7D64
:1004E0008083FF91EF919F918F912F910F900FBE7D
:1004F0000F901F9018951F920F920FB60F92112414
:100500002F938F939F93EF93FF93E0911F02F091AE
:1005100020028081E0912502F091260282FF0BC02B
:100520008081FF91EF919F918F912F910F900FBE3E
:100530000F901F9018952081809128028F5F8F73F4
:1005400090912902891769F3E0912802F0E0E15FB8
:10055000FD4F258F80932802E4CF009769F0FC01BE
:1005600001900020E9F73197AF01481B590BBC01FE
:100570008FE092E00C94EC0080E090E00895CF933F
:10058000DF930E94AD02EC0184EC91E00E94AD0289
:100590008C0F9D1FDF91CF91089590E0FC01EC55E9
:1005A000FF4F2491FC01E057FF4F3491FC01E458C8
:1005B000FF4F84918823A1F0211118C0E82FF0E0AB
:1005C000EE0FFF1FEE58FF4FA591B4918FB7F8942F
:1005D000611107C09C91E32FE095E923EC938FBF55
:1005E0000895EC91E32BEC938FBFFACF233029F1E0
:1005F00060F02730E1F02830A1F02430F9F6909136
:1006000080009F7D90938000D9CF213031F022303F
:10061000A9F694B59F7D94BDD1CF94B59F7794BD35
:10062000CDCF9091B0009F7D9093B000C7CF9091B7
:10063000B0009F779093B000C1CF909180009F77DA
:1006400090938000BBCFCF93DF9390E0FC01E05705
:10065000FF4F2491FC01E458FF4F84918823B9F0A7
:1006600090E0880F991FFC01E859FF4FA591B491C4
:10067000FC01EE58FF4FC591D491662359F06230CA
:10068000A9F08FB7F894EC91E22BEC938FBFDF9138
:10069000CF9108959FB7F8948C91E22FE0958E2327
:1006A0008C932881E223E8839FBFF1CF9FB7F89412
:1006B0008C91322F309583238C93E881E22BE88351
:1006C0009FBFE5CF1F920F920FB60F9211242F9369
:1006D0003F938F939F93AF93BF9380910B02909121
:1006E0000C02A0910D02B0910E023091DB0423E0C8
:1006F000230F2D3768F126E8230F0296A11DB11DA7
:100700002093DB0480930B0290930C02A0930D02C4
:10071000B0930E028091D7049091D804A091D9048F
:10072000B091DA040196A11DB11D8093D704909376
:10073000D804A093D904B093DA04BF91AF919F91EC
:100740008F913F912F910F900FBE0F901F90189592
:100750000196A11DB11DD4CF789484B5826084BD6B
:1007600084B5816084BD85B5826085BD85B58160B5
:1007700085BD80916E00816080936E001092810033
:1007800080918100826080938100809181008160EE
:1007900080938100809180008160809380008091AF
:1007A000B10084608093B1008091B000816080933B
:1007B000B00080917A00846080937A0080917A0002
:1007C000826080937A0080917A00816080937A00C1
:1007D00080917A00806880937A001092C10061E075
:1007E00083E00E94230361E08BE00E94230361E029
:1007F0008CE00E94230361E08DE00E94230360E00F
:1008000080E10E94230360E08EE00E94230360E009
:100810008FE00E94230360E081E10E94230360E0F7
:1008200083E00E94CD0260E08BE00E94CD0261E097
:100830008CE00E94CD0260E08DE00E94CD022FE0AE
:1008400032E0E0911F02F091200282E08083E0918B
:100850001B02F0911C021082E0911D02F0911E0219
:1008600080E1808310922702E0912302F09124021C
:1008700086E08083E0912102F091220280818061F4
:100880008083E0912102F091220280818860808340
:10089000E0912102F0912202808180688083E091C2
:1008A0002102F091220280818F7D80833093B604F3
:1008B0002093B50481E08093B9043093B804209369
:1008C000B7044DE050E066E671E085EE91E00E94ED
:1008D0009A0E81E090E09093F2018093F10183E71A
:1008E00091E00E94BF028DE891E00E94BF0284EB7C
:1008F00091E00E94AD0286E691E00E94BF0280E492
:1009000080937C0080917A00806480937A0080914B
:100910007A0086FDFCCF809178008091790010925A
:10092000DC011092DB0140E490917A0080917A0022
:10093000887F846080937A0040937C0080917A0065
:10094000806480937A0080917A0086FDFCCF80914C
:1009500078002091790090937A0090E0922B20917A
:10096000D5013091D601820F931F9093D6018093C9
:10097000D5012091DB013091DC012F5F3F4F309397
:10098000DC012093DB012530310574F265E070E075
:100990000E94AE0E7093D6016093D5011092DC01D7
:1009A0001092DB0140E490917A0080917A00887F78
:1009B000846080937A0040937C0080917A00806408
:1009C00080937A0080917A0086FDFCCF8091780038
:1009D0002091790090937A0090E0922B2091D90198
:1009E0003091DA01820F931F9093DA018093D9013D
:1009F0002091DB013091DC012F5F3F4F3093DC0110
:100A00002093DB012436310574F264E670E00E9425
:100A1000AE0E7093D8016093D701E5E02E2E312CF5
:100A200054E6C52ED12C12E464E3662E63E0762EE4
:100A30007DE4472E552453948091090290910A0237
:100A400097FD84C5853691050CF4B6C4D0920A0290
:100A5000C092090220910702309108022436310524
:100A600009F0D9C51092D3011092D20190917A0069
:100A700080917A00887F846080937A0010937C0054
:100A800080917A00806480937A0080917A0086FD5C
:100A9000FCCF809178002091790090937A0090E0CB
:100AA000922B2091D0013091D101820F931F90930E
:100AB000D1018093D0012091D2013091D3012F5FD9
:100AC0003F4F3093D3012093D2012530310574F28A
:100AD000B1010E94AE0E6D3C71050CF055C48DEC59
:100AE00090E09093D1018093D00180E090E09093CA
:100AF0000602809305022091CE013091CF01281784
:100B0000390711F01092D4019093CF018093CE0158
:100B10008FB7F89440910B0250910C0260910D0236
:100B200070910E028FBF8091D1049091D204A09158
:100B3000D304B091D4044A015B01881A990AAA0A25
:100B4000BB0A8091D5049091D604092E000CAA0B03
:100B5000BB0B88169906AA06BB06B8F14093D104D0
:100B60005093D2046093D3047093D4048091D40141
:100B7000811113C08091090290910A02209105020F
:100B800030910602821793070CF461C528173907C4
:100B90000CF46FC581E08093D4018091E1019091C4
:100BA000E20197FDEBC41092E0018D3291400CF40C
:100BB000F1C48091090290910A02029790930A026F
:100BC0008093090281E08093DF018FB7F894409110
:100BD0000B0250910C0260910D0270910E028FBFBA
:100BE0008091CB049091CC04A091CD04B091CE041F
:100BF0004A015B01881A990AAA0ABB0A8091CF04AC
:100C00009091D004092E000CAA0BBB0B88169906F4
:100C1000AA06BB0608F460C04093CB045093CC04F2
:100C20006093CD047093CE041092DC011092DB012E
:100C30002091D9013091DA01E091D701F091D801EA
:100C400040E42E1B3F0B3093DA012093D9019091A1
:100C50007A0080917A00887F846080937A00409344
:100C60007C0080917A00806480937A0080917A0081
:100C700086FDFCCF209178008091790090937A00D6
:100C800030E0382B8091D9019091DA01280F391F7B
:100C90003093DA012093D901C901B6010E94AE0E4A
:100CA000FB017093D8016093D7018091DB01909193
:100CB000DC0101969093DC018093DB018436910581
:100CC0000CF4BFCF8091D5019091D601681B790BB0
:100CD0007093E2016093E1018FB7F89440910B02A9
:100CE00050910C0260910D0270910E028FBF8091A5
:100CF000C5049091C604A091C704B091C8044A01EC
:100D00005B01881A990AAA0ABB0A8091C9049091CA
:100D1000CA04092E000CAA0BBB0B88169906AA065A
:100D2000BB0608F446C04093C5045093C6046093C4
:100D3000C7047093C8041092DC011092DB0143E4F5
:100D400090917A0080917A00887F846080937A0005
:100D500040937C0080917A00806480937A00809137
:100D60007A0086FDFCCF80917800209179009093E5
:100D70007A0090E0922B2091E3013091E401820F00
:100D8000931F9093E4018093E3012091DB01309164
:100D9000DC012F5F3F4F3093DC012093DB012530D6
:100DA000310574F2B1010E94AE0E7093E4016093BC
:100DB000E3018FB7F89440910B0250910C026091BF
:100DC0000D0270910E028FBF8091BF049091C004FC
:100DD000A091C104B091C2044A015B01881A990A2A
:100DE000AA0ABB0A8091C3049091C404092E000C86
:100DF000AA0BBB0B88169906AA06BB0608F4AEC25E
:100E00004093BF045093C0046093C1047093C20424
:100E100080910502909106029093F4018093F30172
:100E20008091090290910A029093F6018093F50156
:100E300040910401509105018091060190910701B4
:100E4000489F9001499F300D589F300D1124032E6B
:100E5000000C440B550B60E074E284EF90E00E94BC
:100E6000C20E3093F8012093F7016091E301709175
:100E7000E401072E000C880B990B0E94550F23E309
:100E800033E343E35DE30E94B90F6093F90170938C
:100E9000FA018093FB019093FC016091E101709154
:100EA000E201072E000C880B990B0E94550F20E0E1
:100EB00030E048EC5DE30E94B90F6093FD01709350
:100EC000FE018093FF01909300028091E0018093E6
:100ED00001028091DF0180930202109203021092BE
:100EE000040280E290E09093DE018093DD01E5EE64
:100EF000F1E0A2EBB2E001900D928A95E1F78FEF5D
:100F00008093BD0482EBE82E82E0F82EF70180E0AA
:100F100003C08F5F803229F091919E37D1F7809383
:100F2000BD048FE102C08150C8F0282F30E0F901E4
:100F3000EE54FD4F90819E37B1F78FE102C0815092
:100F400068F0482F50E0FA01EE54FD4F90819E3733
:100F5000B1F7281B2083282F815098F74091B002C9
:100F60005091B10222ED32E0E2EBF2E000E081913B
:100F70008027DA01A80FB11D0C912E173F07B9F792
:100F8000A091B504B091B604ED91FC911197019038
:100F9000F081E02D50E0E738F50709F066C581E003
:100FA00058968C9358975B969C915B975C968C9126
:100FB0005C97981709F440C55B962C915B9730E0DD
:100FC0002F5F3F4F2F733327922F03C00FB607FEBB
:100FD00062C35C968C915C979817C1F35B968C9179
:100FE0005B97FD01E80FF11DE35AFF4F8EE7808309
:100FF0009FB7F8945B962C935B975296ED91FC917A
:1010000053978081806280839FBFA091B504B09187
:10101000B604ED91FC9111970190F081E02D80E0F4
:10102000E738F80709F028C581E058968C9358975F
:101030005B969C915B975C968C915C97981709F4F2
:10104000E3C45B962C915B9730E02F5F3F4F2F738B
:101050003327922F03C00FB607FEFDC35C968C9119
:101060005C979817C1F35B968C915B97FD01E80F35
:10107000F11DE35AFF4F10829FB7F8945B962C93B3
:101080005B975296ED91FC915397808180628083AB
:101090009FBFA091B504B091B604ED91FC9111975A
:1010A0000190F081E02D6091BD0490E0E738F907F0
:1010B00009F0DFC481E058968C9358975B969C9119
:1010C0005B975C968C915C97981709F485C45B9646
:1010D0002C915B9730E02F5F3F4F2F733327922F78
:1010E00003C00FB607FEEFC35C968C915C97981710
:1010F000C1F35B968C915B97FD01E80FF11DE35AFC
:10110000FF4F60839FB7F8945B962C935B97529642
:10111000ED91FC9153978081806280839FBFA09165
:10112000B504B091B604ED91FC9111970190F08156
:10113000E02D6091DD0120E0E738F20709F0A4C45A
:1011400081E058968C9358975B969C915B975C9640
:101150008C915C97981709F427C45B962C915B9748
:1011600030E02F5F3F4F2F733327922F03C00FB60E
:1011700007FE01C35C968C915C979817C1F35B9650
:101180008C915B97FD01E80FF11DE35AFF4F6083DF
:101190009FB7F8945B962C935B975296ED91FC91D8
:1011A00053978081806280839FBFC091B504D091A6
:1011B000B604E881F9810280F381E02D4091DD01E0
:1011C0005091DE01552730E0EC3EF30709F05FC493
:1011D000CA018E549D4F5C0199249394AE14BF04B0
:1011E000A1F1E881F9810190F081E02DD7016D91A5
:1011F0007D01B0E0E738FB0709F007C2988E9B8DB0
:101200008C8D981709F4EFC12B8D30E02F5F3F4F85
:101210002F733327922F03C00FB607FEBEC18C8DEC
:101220009817D1F38B8DFE01E80FF11DE35AFF4FA4
:1012300060839FB7F8942B8FEA89FB898081806255
:1012400080839FBFAE14BF0461F6A091B504B09136
:10125000B604ED91FC9111970190F081E02D20E012
:10126000E738F20709F018C481E058968C93589734
:101270005B969C915B975C968C915C97981709F4B0
:101280007BC35B962C915B9730E02F5F3F4F2F73B2
:101290003327922F03C00FB607FEA5C25C968C9130
:1012A0005C979817C1F35B968C915B97FD01E80FF3
:1012B000F11DE35AFF4F00839FB7F8945B962C9380
:1012C0005B975296ED91FC91539780818062808369
:1012D0009FBFA091B504B091B604ED91FC91119718
:1012E0000190F081E02D30E0E738F30709F0C8C342
:1012F00081E058968C9358975B969C915B975C968F
:101300008C915C97981709F41EC35B962C915B97A0
:1013100030E02F5F3F4F2F733327922F03C00FB65C
:1013200007FEF1C15C968C915C979817C1F35B96B0
:101330008C915B97FD01E80FF11DE35AFF4F81E8A7
:1013400080839FB7F8945B962C935B975296ED91B0
:10135000FC9153978081806280839FBF40E050E082
:10136000452B09F469CB809128022091290290E055
:10137000805C9F4F821B91098F739927892B09F4F9
:101380005BCB0E9400004CCB653333E073070CF05D
:10139000EEC07093D1016093D0016D5C7109649DC2
:1013A000C001659D900D749D900D112480E29802FE
:1013B000812D990B11249BCB2091070230910802BB
:1013C0008217930709F44ECB009709F4CAC0833300
:1013D00091050CF08FC3823091050CF422C184304A
:1013E00091050CF475C3883091050CF46EC38E30F2
:1013F00091050CF467C38E30910509F460C30F9713
:1014000009F469C386E090E09093CB018093CA0110
:10141000233331050CF40FC1A601421B530B10926C
:10142000CD011092CC01423051050CF40DC1443075
:1014300051050CF43DC3483051050CF458C34E30EF
:1014400051050CF451C34E30510509F44AC34F30D5
:10145000510509F443C3A6E0B0E0B093CD01A093D9
:10146000CC0146E050E05093C9014093C801232BC2
:1014700059F483EA8093B0008091CA019091CB0126
:101480004091C8015091C90184179507E9F1FC0109
:10149000EE0FFF1F880F991F880F991F880F991F44
:1014A000DF01A80FB91FA25FBE4F12962D913C918C
:1014B00013972034310509F43EC22032310509F476
:1014C000EFC228E030E030930501209304012AE0C8
:1014D0002093B1008E0F9F1FFC01E25FFE4F8481BD
:1014E000958180930601909307014681578160851D
:1014F0007185409300015093010160930201709344
:10150000030181508093B3006091090270910A0237
:10151000072E000C880B990B0E94550F209100019B
:101520003091010140910201509103010E94B90FD5
:101530000E941D0F61506093B40080910902909148
:101540000A0290930802809307028CCA10920A0242
:10155000109209028091070290910802892B09F4E8
:1015600081CA8091B0008F758093B000E6CF7092F1
:10157000D1016092D00183E090E0B9CA8091090264
:1015800090910A02019690930A028093090281E0E9
:101590008093E0011092DF0118CBE889F9898081FE
:1015A00085FF3DCE8C8DFE01E80FF11DE35AFF4F04
:1015B00080814C8D50E04F5F5F4F4F7355274C8FAC
:1015C000EE89FF898083E889F9898081837080644E
:1015D00080834B8D8C8D481322CEEA89FB898081D4
:1015E0008F7D80831CCEE889F989808185FF0CCEB0
:1015F0009FB7F894EE89FF896083E889F989808133
:101600008370806480839FBFE9CDCE010995892BCB
:1016100009F0E4CD1ACE80E090E0823091050CF024
:10162000DECE80E090E09093CB018093CA0123331B
:1016300031050CF0F1CE1092CD011092CC01A90130
:10164000423051050CF0F3CE40E050E00CCF019653
:1016500090930A028093090260910601709107013C
:1016600080E797E10E94AE0E7093D6046093D50494
:1016700094CA019790930A0280930902609106012F
:101680007091070180E197E20E94AE0E7093D6043C
:101690006093D50482CA5096ED91FC915197808158
:1016A00085FF97CC5C968C915C97FD01E80FF11D4E
:1016B000E35AFF4F80815C964C915C9750E04F5FFE
:1016C0005F4F4F7355275C964C935C975696ED9100
:1016D000FC91579780835096ED91FC9151978081B2
:1016E0008370806480835B964C915B975C968C9151
:1016F0005C9748136ECC5296ED91FC915397808184
:101700008F7D808366CC5096ED91FC9151978081BE
:1017100085FF08CE5C968C915C97FD01E80FF11D6A
:10172000E35AFF4F80815C964C915C9750E04F5F8D
:101730005F4F4F7355275C964C935C975696ED918F
:10174000FC91579780835096ED91FC915197808141
:101750008370806480835B964C915B975C968C91E0
:101760005C974813DFCD5296ED91FC9153978081A1
:101770008F7D8083D7CD5096ED91FC9151978081DC
:1017800085FFF8CC5C968C915C97FD01E80FF11D0C
:10179000E35AFF4F80815C964C915C9750E04F5F1D
:1017A0005F4F4F7355275C964C935C975696ED911F
:1017B000FC91579780835096ED91FC9151978081D1
:1017C0008370806480835B964C915B975C968C9170
:1017D0005C974813CFCC5296ED91FC915397808142
:1017E0008F7D8083C7CC5096ED91FC91519780817D
:1017F00085FF54CD5C968C915C97FD01E80FF11D3F
:10180000E35AFF4F80815C964C915C9750E04F5FAC
:101810005F4F4F7355275C964C935C975696ED91AE
:10182000FC91579780835096ED91FC915197808160
:101830008370806480835B964C915B975C968C91FF
:101840005C9748132BCD5296ED91FC915397808174
:101850008F7D808323CD5096ED91FC9151978081AF
:1018600085FFFCCB5C968C915C97FD01E80FF11D28
:10187000E35AFF4F80815C964C915C9750E04F5F3C
:101880005F4F4F7355275C964C935C975696ED913E
:10189000FC91579780835096ED91FC9151978081F0
:1018A0008370806480835B964C915B975C968C918F
:1018B0005C974813D3CB5296ED91FC91539780815E
:1018C0008F7D8083CBCB5096ED91FC915197808199
:1018D00085FF0ACC5C968C915C97FD01E80FF11DA9
:1018E000E35AFF4F80815C964C915C9750E04F5FCC
:1018F0005F4F4F7355275C964C935C975696ED91CE
:10190000FC91579780835096ED91FC91519780817F
:101910008370806480835B964C915B975C968C911E
:101920005C974813E1CB5296ED91FC9153978081DF
:101930008F7D8083D9CB30930501209304012CE067
:101940002093B100C7CD5096ED91FC9151978081C5
:1019500085FFDBCC9FB7F8945696ED91FC91579795
:1019600081E880835096ED91FC915197808183703E
:10197000806480839FBFF2CC5096ED91FC9151978B
:10198000808185FF7ECC9FB7F8945696ED91FC91AF
:10199000579700835096ED91FC9151978081837009
:1019A000806480839FBF95CC5096ED91FC915197B8
:1019B000808185FFD2CB9FB7F8945696ED91FC912C
:1019C000579760835096ED91FC9151978081837079
:1019D000806480839FBFE9CB5096ED91FC91519735
:1019E000808185FF74CB9FB7F8945696ED91FC915A
:1019F000579760835096ED91FC9151978081837049
:101A0000806480839FBF8BCB5096ED91FC91519762
:101A1000808185FF16CB9FB7F8945696ED91FC9187
:101A2000579710825096ED91FC9151978081837069
:101A3000806480839FBF2DCB5096ED91FC91519790
:101A4000808185FFB9CA9FB7F8945696ED91FC91B5
:101A500057978EE780835096ED91FC915197808146
:101A60008370806480839FBFD0CA6EE7CD010995E3
:101A7000CCCACD01099553CB60E0CD01099509CBC6
:101A800061E8CD0109956ACCCD0109958ECB62EB59
:101A900072E0CE010995D9CB602FCD01099519CC03
:101AA00030930501209304012BE02093B10012CD67
:101AB00041E050E05093CD014093CC01D4CC84E080
:101AC00090E0A2CC83E090E09FCC82E090E09CCCC0
:101AD00081E090E099CC85E090E096CC45E050E044
:101AE000E9CF44E050E0E6CF43E050E0E3CF42E00E
:101AF00050E0E0CFA601481B590BCA016CCC1092F4
:101B000012021092110288EE93E0A0E0B0E0809300
:101B1000130290931402A0931502B093160288E565
:101B200091E09093100280930F0285EC90E09093E7
:101B30001C0280931B0284EC90E090931E02809321
:101B40001D0280EC90E09093200280931F0281ECB4
:101B500090E0909322028093210282EC90E0909397
:101B600024028093230286EC90E0909326028093D7
:101B70002502109228021092290210922A02109235
:101B80002B021092BF041092C0041092C104109254
:101B9000C20484E690E09093C4048093C3048BE96C
:101BA0008093AC0288E08093AF0280E091E0909354
:101BB000AE028093AD020E944E108093B0029093CB
:101BC000B102AC0120E030E030C0C901880F991F9C
:101BD00087FD35C0880F991F87FD38C0880F991F72
:101BE00087FD3BC0880F991F87FD3EC0880F991F56
:101BF00087FD41C0880F991F87FD44C0880F991F3A
:101C000087FD47C0880F991FFA01E20FF31F8083F9
:101C10002F5F3F4F8091AD029091AE022817390798
:101C2000F0F54091B0025091B10227FFCECF609104
:101C3000AC02C901880F991F862787FFCBCF880F79
:101C4000991F6091AC02862787FFC8CF880F991F24
:101C50006091AC02862787FFC5CF880F991F6091DE
:101C6000AC02862787FFC2CF880F991F6091AC0214
:101C7000862787FFBFCF880F991F6091AC02862708
:101C800087FFBCCF880F991F6091AC02862787FF22
:101C9000B9CF880F991F6091AC028627B5CF1092FB
:101CA000AE041092AF041092B1041092B0041092DE
:101CB000B3041092B2041092B4041092B9041092BA
:101CC000BA041092BB041092BC041092BD0410928E
:101CD000BE041092CB041092CC041092CD0410924A
:101CE000CE0481E090E09093D0048093CF041092D2
:101CF000C5041092C6041092C7041092C8048AE06A
:101D000090E09093CA048093C90460910601709199
:101D1000070180E197E20E94AE0E1092D10410926A
:101D2000D2041092D3041092D4047093D60460931A
:101D3000D5040895DC01FB014150504058F049F0B2
:101D400001900D920020C1F7E61BF70B3197CF01F0
:101D500008951C9201900020E9F7F6CF97FB072E1B
:101D600016F4009407D077FD09D00E94E10E07FC1D
:101D700005D03EF4909581959F4F0895709561959B
:101D80007F4F0895052E97FB1EF400940E94D90EF4
:101D900057FD07D00E94F50E07FC03D04EF40C94BB
:101DA000D90E50954095309521953F4F4F4F5F4F3D
:101DB000089590958095709561957F4F8F4F9F4FB7
:101DC0000895AA1BBB1B51E107C0AA1FBB1FA61782
:101DD000B70710F0A61BB70B881F991F5A95A9F7D4
:101DE00080959095BC01CD010895A1E21A2EAA1B01
:101DF000BB1BFD010DC0AA1FBB1FEE1FFF1FA217BB
:101E0000B307E407F50720F0A21BB30BE40BF50BB7
:101E1000661F771F881F991F1A9469F76095709540
:101E2000809590959B01AC01BD01CF010895EE0F07
:101E3000FF1F0590F491E02D09940E94240F6894EF
:101E4000B1110C94B30F08950E94980F88F09F571A
:101E500098F0B92F9927B751B0F0E1F0660F771FCE
:101E6000881F991F1AF0BA95C9F714C0B13091F0C4
:101E70000E94B20FB1E008950C94B20F672F782F33
:101E80008827B85F39F0B93FCCF386957795679589
:101E9000B395D9F73EF490958095709561957F4FF5
:101EA0008F4F9F4F0895E89409C097FB3EF490959B
:101EB0008095709561957F4F8F4F9F4F9923A9F023
:101EC000F92F96E9BB279395F695879577956795B2
:101ED000B795F111F8CFFAF4BB0F11F460FF1BC0F6
:101EE0006F5F7F4F8F4F9F4F16C0882311F096E989
:101EF00011C0772321F09EE8872F762F05C0662337
:101F000071F096E8862F70E060E02AF09A95660FEF
:101F1000771F881FDAF7880F9695879597F90895A8
:101F200057FD9058440F551F59F05F3F71F047958A
:101F3000880F97FB991F61F09F3F79F0879508956F
:101F4000121613061406551FF2CF4695F1DF08C08E
:101F5000161617061806991FF1CF869571056105AB
:101F600008940895E894BB2766277727CB0197F953
:101F700008950E94CC0F0C943D100E942F1038F051
:101F80000E94361020F0952311F00C9426100C942A
:101F90002C1011240C94B30F0E94900F70F3959F96
:101FA000C1F3950F50E0551F629FF001729FBB2750
:101FB000F00DB11D639FAA27F00DB11DAA1F649FEC
:101FC0006627B00DA11D661F829F2227B00DA11D9F
:101FD000621F739FB00DA11D621F839FA00D611D25
:101FE000221F749F3327A00D611D231F849F600D46
:101FF000211D822F762F6A2F11249F5750409AF06F
:10200000F1F088234AF0EE0FFF1FBB1F661F771FFA
:10201000881F91505040A9F79E3F510580F00C94C5
:1020200026100C94B30F5F3FE4F3983ED4F38695EB
:1020300077956795B795F795E7959F5FC1F7FE2B65
:10204000880F911D9695879597F9089597F99F6741
:1020500080E870E060E008959FEF80EC0895002430
:102060000A941616170618060906089500240A94FD
:1020700012161306140605060895092E0394000C83
:1020800011F4882352F0BB0F40F4BF2B11F460FF12
:1020900004C06F5F7F4F8F4F9F4F08950F931F9323
:1020A000CF93DF938230910510F482E090E0E091CD
:1020B000DE04F091DF0420E030E0A0E0B0E03097F3
:1020C00019F1408151810281138148175907C8F0E5
:1020D0008417950769F4109731F012960C931297B4
:1020E00013961C9327C00093DE041093DF0422C0D4
:1020F0002115310519F04217530718F49A01BD0153
:10210000EF01DF01F801DBCF21153105F9F0281BC4
:10211000390B2430310580F48A819B81611571056A
:1021200021F0FB019383828304C09093DF048093AA
:10213000DE04FE01329644C0FE01E20FF31F8193DC
:10214000919322503109398328833AC02091DC04CD
:102150003091DD04232B41F420910A0130910B01D1
:102160003093DD042093DC042091080130910901B3
:102170002115310541F42DB73EB740910C01509126
:102180000D01241B350BE091DC04F091DD04E21716
:10219000F307A0F42E1B3F0B2817390778F0AC018A
:1021A0004E5F5F4F2417350748F04E0F5F1F509367
:1021B000DD044093DC048193919302C0E0E0F0E001
:1021C000CF01DF91CF911F910F910895CF93DF93AE
:1021D000009709F481C0FC01329713821282A0910A
:1021E000DE04B091DF04109781F420813181820FE9
:1021F000931F2091DC043091DD042817390751F535
:10220000F093DD04E093DC0467C0ED0120E030E0F2
:10221000CE17DF0740F44A815B819E0141155105CD
:10222000F1F0EA01F5CFD383C28340815181840F5D
:10223000951FC817D90759F488819981840F951F74
:102240000296918380838A819B8193838283211567
:10225000310529F4F093DF04E093DE043DC0E90189
:10226000FB83EA8349915991C40FD51FEC17FD07F1
:1022700061F480819181840F951F0296E901998311
:102280008883828193819B838A83E0E0F0E01296C9
:102290008D919C911397009719F0FD01DC01F7CF08
:1022A0008D919C9111979D012E5F3F4F820F931F3F
:1022B0002091DC043091DD042817390769F4309748
:1022C00029F41092DF041092DE0402C013821282FD
:1022D000B093DD04A093DC04DF91CF91089581E0F9
:0C22E00090E0F8940C947411F894FFCF77
:1022EC00000000404000C8000000E0042000010095
:1022FC004000C8000000004003002000C80000009F
:10230C0000400700200064000000803F0D00080022
:10231C00C800000000400E00080096000000C03FFE
:10232C000F00080078009A99993F32000800640069
:10233C000000803F000000008700EC00F501A201C6
:10234C00820107021B02323032302E30362E3230F0
:10235C002D33004D6F746F7220436F6E74726F6CFF
:10236C006C6572204669726D7761726500436F709F
:10237C0079726967687420286329203230323020E2
:10238C004170706C69656420456E67696E65657235
:10239C00696E6700426F6F7465642076657273694D
:0823AC006F6E20000D0A000015
:00000001FF
