:100000000C9473000C949B000C949B000C949B002C
:100010000C949B000C949B000C949B000C949B00F4
:100020000C949B000C949B000C949B000C949B00E4
:100030000C949B000C949B000C949B000C949B00D4
:100040000C94DB050C949B000C9419080C94DD07B0
:100050000C949B000C949B000C949B000C949B00B4
:100060000C949B000C949B000000000024002700CF
:100070002A0000000000250028002B0000000008D6
:10008000000201000003040700000000000000005F
:10009000005EBCE2613FDD83C29C7E20A3FD1F4168
:1000A000009D23BE46DB65F88C11AF32CA57E97458
:1000B00000000000230026002900040404040404B6
:1000C0000404020202020202030303030303010207
:1000D00004081020408001020408102001020408D6
:1000E00010209D1D941D11241FBECFEFD8E0DEBF50
:1000F000CDBF11E0A0E0B1E0E8EFF6E402C005906A
:100100000D92A03DB107D9F725E0A0EDB1E001C007
:100110001D92A935B207E1F710E0C2E7D0E004C0B4
:100120002197FE010E940520C137D107C9F70E941F
:10013000C3080C946F230C9400004F925F927F923F
:100140008F929F92AF92BF92CF92DF92EF92FF92E7
:100150000F931F93CF93DF93CDB7DEB729970FB6D9
:10016000F894DEBF0FBECDBFE0912F05F0913005B2
:100170004081A181B281F89411962C911197542F4E
:100180005095252311962C93119778943CE763E0C2
:1001900070E002C0315071F1FB013197F1F72C9101
:1001A0002423C1F3F89412962C91129725231296CA
:1001B0002C93129711962C911197242B11962C9316
:1001C00011977894EBE7F7E03197F1F7F8941196EF
:1001D0002C911197522311965C931197E3E1F1E072
:1001E0003197F1F72C917894E3E6F6E03197F1F747
:1001F0004223B9F080E029960FB6F894DEBF0FBE17
:10020000CDBFDF91CF911F910F91FF90EF90DF90C5
:10021000CF90BF90AF909F908F907F905F904F90C6
:1002200008957C0100912F051091300565E5C80106
:100230000E944B086701470188E0880E911C6FEF10
:1002400070E04FE050E083E2E82EF12C97ED492E6C
:10025000512CD6019D916D0128E030E081E01CC059
:10026000F80170800180F281E02DF894B280A72C13
:10027000A094BA20B282B180B728B182D701119779
:10028000F1F7B2807B2872827894F2013197F1F70E
:10029000880F2150310901F1E92FE82309F7D8012E
:1002A0007C901196ED91FC911297F894B280A72C56
:1002B000A094BA20B282B180B728B182DB01119735
:1002C000F1F7B2807B2872827894FA013197F1F7C6
:1002D000880F2150310901F7F894D8011196ED915A
:1002E000FC91129791818C9180958923818311963D
:1002F000ED91FC91129792818C9180958923828354
:100300007894C814D90409F0A4CF6EEB80912F051E
:10031000909130050E944B088E010F5F1F4F7E01A8
:10032000BAE0EB0EF11C67E070E043E250E02FEC26
:1003300030E0E0912F05F0913005B080A181B281CD
:10034000F89411968C9111978B2911968C93119793
:100350001296DC901297AB2CA094DA201296DC92C5
:100360001297CB010197F1F71196DC9011978A2D26
:100370008D2111968C931197CA010197F1F78C91F9
:100380007894D9011197F1F79B2D9823AA24A3946F
:10039000911101C0A12CB080A181B281F894119675
:1003A0009C9111979B2911969C9311971296DC9022
:1003B00012979B2C9094D9201296DC921297CB0125
:1003C0000197F1F71196DC901197992D9D211196C7
:1003D0009C931197CA010197F1F79C917894D901E8
:1003E0001197F1F79B2119F09A2D9260A92EB080F8
:1003F000A181B281F89411969C9111979B29119635
:100400009C9311971296DC9012979B2C9094D92074
:100410001296DC921297CB010197F1F71196DC90BE
:100420001197992D9D2111969C931197CA010197BF
:10043000F1F79C917894D9011197F1F79B2119F06C
:100440009A2D9460A92EB080A181B281F894119662
:100450009C9111979B2911969C9311971296DC9071
:1004600012979B2C9094D9201296DC921297CB0174
:100470000197F1F71196DC901197992D9D21119616
:100480009C931197CA010197F1F79C917894D90137
:100490001197F1F79B2119F09A2D9860A92EB08041
:1004A000A181B281F89411969C9111979B29119684
:1004B0009C9311971296DC9012979B2C9094D920C4
:1004C0001296DC921297CB010197F1F71196DC900E
:1004D0001197992D9D2111969C931197CA0101970F
:1004E000F1F79C917894D9011197F1F79B2119F0BC
:1004F0009A2D9061A92EB080A181B281F8941196B5
:100500009C9111979B2911969C9311971296DC90C0
:1005100012979B2C9094D9201296DC921297CB01C3
:100520000197F1F71196DC901197992D9D21119665
:100530009C931197CA010197F1F79C917894D90186
:100540001197F1F79B2119F09A2D9062A92EB08096
:10055000A181B281F89411969C9111979B291196D3
:100560009C9311971296DC9012979B2C9094D92013
:100570001296DC921297CB010197F1F71196DC905D
:100580001197992D9D2111969C931197CA0101975E
:10059000F1F79C917894D9011197F1F79B2119F00B
:1005A0009A2D9064A92EA0810180F281E02DF8940B
:1005B00091819A2B9183B281BA2EB094BB21B283E0
:1005C000CB010197F1F7B1819B2D9B239183CA0148
:1005D0000197F1F790817894F9013197F1F79A2317
:1005E00019F09A2D9068A92ED801AD928D01AE1503
:1005F000BF0509F09ECEE0912F05F09130053081C6
:100600000180F281E02DF8948181632F609586232B
:10061000818378942CE743E050E003C0215009F433
:10062000E9CDCA010197F1F780818323B9F3F894EA
:100630008281862382838181832B818378948BE7D7
:1006400097E00197F1F7F89481816823618383E152
:1006500091E00197F1F780817894E3E6F6E0319735
:10066000F1F7382309F0C6CDA9817A816B818C819D
:10067000A111A3C07111A1C061119FC02D815E8124
:100680004F819885398581110BC0211109C0511105
:1006900007C0411105C0911103C0332309F4AACD4D
:1006A000EA2FEF70F0E0E057FF4FB491A295AF70E2
:1006B000EA2FF0E0E056FF4FE491EB277E27E72F8B
:1006C000EF70F0E0E057FF4FA49172957F70E72F35
:1006D000F0E0E056FF4FE491EA276E27E62FEF7037
:1006E000F0E0E057FF4F749162956F70E62FF0E0F5
:1006F000E056FF4FE491E7278E27E82FEF70F0E0F8
:10070000E057FF4F6491E82FE295EF70F0E0E0567C
:10071000FF4FE491862F8E278227E82FEF70F0E0BD
:10072000E057FF4F649182958F70E82FF0E0E0561C
:10073000FF4FE491E6275E27E52FEF70F0E0E057EA
:10074000FF4F849152955F70E52FF0E0E056FF4F28
:10075000E491E8274E27E42FEF70F0E0E057FF4FD9
:10076000849142954F70E42FF0E0E056FF4FE49102
:10077000E8279E27E92FEF70F0E0E057FF4F8491C4
:1007800092959F70E92FF0E0E056FF4FE491E82743
:100790003E1330CD2F3379F048F02F3529F02F3725
:1007A00009F028CD8CE027CD8BE025CD2F3109F045
:1007B00021CD89E020CD8AE01ECD2D815E814F8143
:1007C000988539856DCF2F923F924F925F926F92AD
:1007D0007F928F929F92AF92BF92CF92DF92EF92D1
:1007E000FF920F931F93CF93DF93EC018B018D85C5
:1007F0008823B9F01B861D861C8680E0DF91CF918F
:100800001F910F91FF90EF90DF90CF90BF90AF902E
:100810009F908F907F906F905F904F903F902F9020
:1008200008953881E981FA81F8948181632F609578
:100830008623818378942CE743E050E002C0215066
:10084000C9F2CA010197F1F780818323C1F3F894BB
:100850008281862382838181832B818378948BE7B5
:1008600097E00197F1F7F89481816823618383E130
:1008700091E00197F1F780817894E3E6F6E0319713
:10088000F1F7382309F0B6CF60EFCE010E944B0894
:1008900081E0F12C812CEE24E39467E070E023E208
:1008A00030E04FEC50E097ED692E712C22242A9411
:1008B000312CFFE0AF2EB12C2AC0442009F47EC0B9
:1008C000FE01EF0DF11D9381D82ED0949D219383CD
:1008D0009881E981FA81F894D280C92EC094DC20F5
:1008E000D282D180D92AD182D1011197F1F7D28059
:1008F0009D2992837894F5013197F1F7E394880F5D
:1009000011F4F39481E0B7E0BF1508F472C0988148
:10091000E981FA81F894D180D92AD182D280992EA6
:100920009094D920D282DB011197F1F7D1809D20DC
:100930009182D9011197F1F790807894FA0131975B
:10094000F1F74880E981FA81F894D180D428D182E6
:10095000D280542C5094D520D282DB011197F1F72C
:10096000D1805D205182D9011197F1F7E0814E22AB
:100970007894FA013197F1F7992109F49ECF41104B
:1009800038C0FE01EF0DF11D9381982B9383988061
:10099000E981FA81F8949281D92CD0949D21928397
:1009A000918199299183D9011197F1F79281992920
:1009B00092837894F3013197F1F7A0CF9B85E916E4
:1009C00068F4FE01EF0DF11D9381D92ED822E9F6CE
:1009D000A8E0AE1508F0EC868E2C76CFDD24D394FB
:1009E0009E11D12CFE01EF0DF11D9381D110CDCFC1
:1009F000EFCFE0E4EE1508F0FDCE8B86882019F1EC
:100A00008B81882309F4F6CED8018C938C811196C2
:100A10008C9311978D8112968C9312978E811396D9
:100A20008C9313978F8114968C93149788851596C1
:100A30008C931597898516968C9316978A851796A9
:100A40008C9381E0DBCE81E08D87DACF009769F06F
:100A5000FC0101900020E9F73197AF01481B590BC9
:100A6000BC0182E492E00C948A0680E090E0089554
:100A7000CF93DF930E942605EC018CEC91E00E945D
:100A800026058C0F9D1FDF91CF91089590E0FC010A
:100A9000E458FF4F2491FC01E253FF4F3491FC01D5
:100AA000E654FF4F84918823A1F0211118C0E82F4C
:100AB000F0E0EE0FFF1FEE58FF4FA591B4918FB7F6
:100AC000F894611107C09C91E32FE095E923EC9322
:100AD0008FBF0895EC91E32BEC938FBFFACF2330B7
:100AE00029F160F02730E1F02830A1F02430F9F648
:100AF000909180009F7D90938000D9CF213031F07C
:100B00002230A9F694B59F7D94BDD1CF94B59F773F
:100B100094BDCDCF9091B0009F7D9093B000C7CF92
:100B20009091B0009F779093B000C1CF90918000DA
:100B30009F7790938000BBCFCF93DF9390E0FC0131
:100B4000E253FF4F2491FC01E654FF4F8491882328
:100B5000B9F090E0880F991FFC01E859FF4FA5916B
:100B6000B491FC01EE58FF4FC591D491662359F022
:100B70006230A9F08FB7F894EC91E22BEC938FBF21
:100B8000DF91CF9108959FB7F8948C91E22FE09573
:100B90008E238C932881E223E8839FBFF1CF9FB7F8
:100BA000F8948C91322F309583238C93E881E22B3B
:100BB000E8839FBFE5CF1F920F920FB60F921124CB
:100BC0002F933F938F939F93AF93BF9380913D0259
:100BD00090913E02A0913F02B091400230914102BB
:100BE00023E0230F2D3768F126E8230F0296A11D7D
:100BF000B11D2093410280933D0290933E02A09349
:100C00003F02B09340028091390290913A02A09144
:100C10003B02B0913C020196A11DB11D80933902A7
:100C200090933A02A0933B02B0933C02BF91AF91E4
:100C30009F918F913F912F910F900FBE0F901F901A
:100C400018950196A11DB11DD4CFFC0181E0808FC4
:100C5000938D848D981709F448C0238D30E02F5F61
:100C60003F4F2F733327922F03C00FB607FE17C0D5
:100C7000848D9817D1F3838DDF01A80FB11DA35A7E
:100C8000BF4F6C939FB7F894238F0288F389E02DB0
:100C90008081806280839FBF81E090E00895A08979
:100CA000B1898C9185FFE4CF848DDF01A80FB11D40
:100CB000A35ABF4F8C91448D50E04F5F5F4F4F73ED
:100CC0005527448FA689B7898C93A089B1898C91C7
:100CD000837080648C93438D848D4813C9CFA2891F
:100CE000B3898C918F7D8C93C3CFA089B1898C916E
:100CF00085FFB3CF9FB7F894A689B7896C93008816
:100D0000F189E02D80818370806480839FBF81E0C2
:100D100090E00895BF92CF92DF92EF92FF920F93EF
:100D20001F93CF93DF934115510509F486C06A01E3
:100D3000EC017B0100E010E0BB24B394E881F98171
:100D40000190F081E02DD7016D917D01B6E0E53293
:100D5000FB0709F06CC0B88E9B8D8C8D981709F439
:100D600054C02B8D30E02F5F3F4F2F733327922FCE
:100D700003C00FB607FE23C08C8D9817D1F38B8D5F
:100D8000FE01E80FF11DE35AFF4F60839FB7F8940F
:100D90002B8FEA89FB898081806280839FBF0F5FF0
:100DA0001F4FC016D10651F6C801DF91CF911F9198
:100DB0000F91FF90EF90DF90CF90BF900895E8895A
:100DC000F989808185FFD8CF8C8DFE01E80FF11D58
:100DD000E35AFF4F80814C8D50E04F5F5F4F4F7360
:100DE00055274C8FEE89FF898083E889F9898081B6
:100DF0008370806480834B8D8C8D4813BDCFEA89CE
:100E0000FB8980818F7D8083B7CFE889F9898081D4
:100E100085FFA7CF9FB7F894EE89FF896083E889A3
:100E2000F98980818370806480839FBFB8CFCE01B1
:100E30000995892B09F0B3CFB7CF00E010E0B4CF0C
:100E4000FC01918D228D892F90E0805C9F4F821B49
:100E500091098F739927089520915B0280915C021C
:100E600030E0205C3F4F281B31092F73332781E08E
:100E7000232B09F480E00895089580E090E0089520
:100E8000CF93DF93DC0158968C915897882309F40F
:100E900047C05296ED91FC9153975096CD91DC91BD
:100EA0005197908195FF39C00FB607FCFACF90811A
:100EB00095FFF7CF888185FFF4CF5C968C915C9786
:100EC000FD01E80FF11DE35AFF4F20815C968C91E4
:100ED0005C9790E001968F7399275C968C935C9752
:100EE0005696ED91FC91579720835096ED91FC9189
:100EF000519780818370806480835B969C915B971F
:100F00005C968C915C979813C4CF5296ED91FC91AE
:100F1000539780818F7D8083BCCF888186FFC4CF2B
:100F2000DF91CF910895FC01238D348D231730F488
:100F3000832F90E0821B9109019708958FE390E041
:100F4000821B9109830F911D0895FC01918D828D63
:100F5000981761F0828DDF01A80FB11D5D968C910D
:100F6000928D9F5F9F73928F90E008958FEF9FEF18
:100F70000895FC01918D828D981731F0828DE80FD4
:100F8000F11D858D90E008958FEF9FEF089580E02B
:100F900090E0892B79F080915B0220915C0290E0D7
:100FA000805C9F4F821B91098F739927892B11F0C9
:100FB0000C94000008950E946A231F920F920FB6AE
:100FC0000F9211242F938F939F93EF93FF93E091B0
:100FD0005E02F0E0E156FD4F208180915E0290E0DC
:100FE00001968F73992780935E02E0915802F091E9
:100FF00059022083E0915202F09153028081837064
:101000008064808390915D0280915E02981307C096
:10101000E0915402F091550280818F7D8083FF9191
:10102000EF919F918F912F910F900FBE0F901F9076
:1010300018951F920F920FB60F9211242F938F9332
:101040009F93EF93FF93E0915202F09153028081BE
:10105000E0915802F091590282FF0BC08081FF910C
:10106000EF919F918F912F910F900FBE0F901F9036
:101070001895208180915B028F5F8F7390915C0245
:10108000891769F3E0915B02F0E0EE5BFD4F258F7D
:1010900080935B02E4CF8F929F92AF92BF92CF92E8
:1010A000DF92EF92FF920F931F93CF93DF93DC01B8
:1010B00048E050E021E00FEF10E08FE0882E912C07
:1010C00093E2C92ED12C37EDE32EF12C1CC08C916C
:1010D0001196ED91FC911297F8949281382F3095EA
:1010E000932392839181982B9183E6012197F1F7C5
:1010F0009281892B82837894C7010197F1F7220F9F
:1011000041505109F9F0862F822309F79C911196DD
:10111000ED91FC911297F8948281392F30958323B9
:1011200082838181892B8183E8012197F1F7828174
:10113000982B92837894C4010197F1F7220F4150C4
:10114000510909F7F8941196ED91FC91129791814C
:101150008C918095892381831196ED91FC91129752
:1011600092818C918095892382837894DF91CF91AD
:101170001F910F91FF90EF90DF90CF90BF90AF90B5
:101180009F908F900895CF93DF93CDB7DEB7699787
:101190000FB6F894DEBF0FBECDBF789484B58260E1
:1011A00084BD84B5816084BD85B5826085BD85B50B
:1011B000816085BD80916E00816080936E00109289
:1011C0008100809181008260809381008091810004
:1011D0008160809381008091800081608093800095
:1011E0008091B10084608093B1008091B0008160F3
:1011F0008093B00080917A00846080937A0080911F
:101200007A00826080937A0080917A008160809376
:101210007A0080917A00806880937A001092C100F1
:1012200061E083E00E949C0561E08BE00E949C05E8
:1012300061E08CE00E949C0561E08DE00E949C05CD
:1012400060E08EE00E949C0560E08FE00E949C05BB
:1012500060E081E10E949C0560E083E00E94460519
:1012600060E08BE00E94460561E08CE00E9446054C
:1012700060E08DE00E94460522E432E0E0915202F7
:10128000F091530282E08083E0914E02F0914F0290
:101290001082E0915002F091510280E1808310921F
:1012A0005A02E0915602F091570286E08083E09165
:1012B0005402F0915502808180618083E091540254
:1012C000F0915502808188608083E0915402F09112
:1012D0005502808180688083E0915402F09155022C
:1012E00080818F7D80833093E9042093E80481E03E
:1012F0008093EC043093EB042093EA044DE050E03B
:101300006EE671E08AE092E00E94881F82E090E041
:1013100090931702809316028BE791E00E943805A4
:1013200085E991E00E9438058CEB91E00E9426054A
:101330008EE691E00E943805E0912F05F09130058E
:101340001386158614861286339687E0DF011D9278
:101350008A95E9F710922D0510922E05FE01399617
:101360004F0173E0C72ED12CAA24AA94B12CFFE020
:101370006F2E712CA3E2EA2EF12CB7ED4B2E512CDF
:10138000BE016F5F7F4F80912F05909130050E94C5
:10139000E303882309F4A2C02981E22FEF70F0E073
:1013A000E057FF4F8491E22FE295EF70F0E0E056B6
:1013B000FF4FE491982F9E278A818927E82FEF70AD
:1013C000F0E0E057FF4F9491E82FE295EF70F0E0E6
:1013D000E056FF4FE4919E278B818927E82FEF701D
:1013E000F0E0E057FF4F9491E82FE295EF70F0E0C6
:1013F000E056FF4FE4919E278C818927E82FEF70FC
:10140000F0E0E057FF4F9491E82FE295EF70F0E0A5
:10141000E056FF4FE4919E278D818927E82FEF70DA
:10142000F0E0E057FF4F9491E82FE295EF70F0E085
:10143000E056FF4FE4919E278E818927E82FEF70B9
:10144000F0E0E057FF4F9491E82FE295EF70F0E065
:10145000E056FF4FE4919E278F818927E82FEF7098
:10146000F0E0E057FF4F9491E82FE295EF70F0E045
:10147000E056FF4FE491892F8E279885981380CFEF
:1014800080912705882311F40C94931210912A055A
:10149000203111F40C948712CE0101960E949D0018
:1014A000811710F00C94821380912A059981809302
:1014B0002A0580912D058F5F80932D05983241F08C
:1014C00010F00C947D12903119F0923209F058CF3F
:1014D00080912E058F5F80932E0552CF80912D0530
:1014E00090E09093DA018093D90180E480937C00AE
:1014F00080917A00806480937A0080917A0086FDE2
:10150000FCCF80917800809179001092E4011092D4
:10151000E30140E440937C0080917A0080648093F2
:101520007A0080917A0086FDFCCF8091780020912E
:10153000790090E0922B2091DB013091DC01820F49
:10154000931F9093DC018093DB012091E3013091A4
:10155000E4012F5F3F4F3093E4012093E3012530F6
:101560003105C4F265E070E00E949C1F7093DC01BD
:101570006093DB018E01065F1F4F1801085F1F4F4C
:101580001B8B0A8B88248A94912C53E2E52EF12C34
:1015900067ED662E712C80913F059091400597FD77
:1015A0009BC78536910514F40C94D01384E690E023
:1015B0009093400580933F05209137023091380287
:1015C0002436310511F00C94DC148091D80181117E
:1015D0000C948D1380913502909136022091D601A2
:1015E0003091D7018217930711F01092D801909390
:1015F000D7018093D6018FB7F89440913D02509166
:101600003E0260913F02709140028FBF8091410580
:1016100090914205A0914305B09144058A019B0138
:10162000081B190B2A0B3B0B809145059091460531
:10163000092E000CAA0BBB0B081719072A073B073A
:1016400008F46DC0409341055093420560934305F3
:10165000709344058091D80181110C949F142091BE
:101660003F05309140058091350290913602281750
:10167000390714F00C940D162091E5013091E60124
:101680002F5F3F4F3093E6012093E5016091080101
:101690007091090180E797E10E949C1F70934605B5
:1016A000609345052C33310524F430934005209395
:1016B0003F058091DD019091DE012091DB013091A9
:1016C000DC018217930714F00C94FE1420913F055F
:1016D000309140052F5F3F4F3093400520933F05E9
:1016E00021E02093F501873C914014F40C94E5141B
:1016F00080913F059091400502979093400580931B
:101700003F0581E08093F4018091E1019091E20135
:101710008E34934014F00C94F0141092F3018FB7B0
:10172000F89440913D0250913E0260913F027091C9
:1017300040028FBF8091210590912205A091230541
:10174000B09124058A019B01081B190B2A0B3B0B46
:101750008091250590912605092E000CAA0BBB0B44
:10176000081719072A073B0708F448C140932105C9
:10177000509322056093230570932405E0912F0573
:10178000F091300530810180F281E02DF894818163
:10179000632F60958623818378942CE743E050E0A3
:1017A00002C0215001F1CA010197F1F78081832322
:1017B000C1F3F8948281862382838181382B31831F
:1017C00078948BE797E00197F1F7F894818168238B
:1017D000618383E191E00197F1F78081789483E65A
:1017E00096E00197F1F7A0912F05B091300528E020
:1017F00030E071E04FE050E01DC0DC901196ED91BB
:10180000FC911297F89492816D2D609596239283A6
:1018100091819D299183C7010197F1F792818D2DC7
:10182000892B82837894C3010197F1F7770F2150B8
:10183000310901F1872F8C7C01F7DC901196ED9135
:10184000FC911297F89492816D2D60959623928366
:1018500091819D299183C4010197F1F792818D2D8A
:10186000892B82837894CA010197F1F7770F215071
:10187000310901F7F8941196ED91FC91129791813D
:101880008C918095892381831196ED91FC9112971B
:1018900092818C9180958923828378941091270579
:1018A000A0912F05B091300528E030E071E04FE0C5
:1018B00050E01DC00C911196ED91FC911297F89497
:1018C0009281602F6095962392839181902B9183D2
:1018D000C7010197F1F79281802F892B8283789439
:1018E000C3010197F1F7770F2150310901F1872FDB
:1018F000847401F70C911196ED91FC911297F89474
:101900009281602F6095962392839181902B918391
:10191000C4010197F1F79281802F892B82837894FB
:10192000CA010197F1F7770F2150310901F7111121
:1019300014C0F8941196ED91FC91129791818C91BD
:101940008095892381831196ED91FC911297928164
:101950008C91809589238283789480912B058111C5
:101960000C9423151092E4011092E301C090D90168
:10197000D090DA011C141D040CF040C000E010E00F
:101980008FE0A82EB12C402EE0912F05F09130056C
:101990001386158614861286118610861782168283
:1019A000158214821382512CB10180912F059091E0
:1019B00030050E94E303882339F0451411F40C9498
:1019C000D9185394451480F7980160E070E08EEFC9
:1019D00092ECF801EE0FFF1FEE0FFF1FEE5FFD4FC1
:1019E000608371838283938389010F5F1F4F1093FC
:1019F000E4010093E3010C151D052CF28FB7F89458
:101A000040913D0250913E0260913F027091400230
:101A10008FBF80911B0590911C05A0911D05B09171
:101A20001E058A019B01081B190B2A0B3B0B809199
:101A30001F0590912005092E000CAA0BBB0B08175F
:101A400019072A073B0708F4DBC040931B05509396
:101A50001C0560931D0570931E0590917A0080917E
:101A60007A00887F846080937A0080E480937C0091
:101A700080917A00806480937A0080917A0086FD5C
:101A8000FCCF609178008091790090937A0070E0AB
:101A9000782B072E000C880B990B0E9427215B01E5
:101AA0006C014090FF04509000054114510411F462
:101AB0000C9441188091FA04820124E0829F000D69
:101AC000111D1124D8012D913D914D915C91609192
:101AD000FB047091FC048091FD049091FE040E942F
:101AE0000B206093FB047093FC048093FD0490939F
:101AF000FE04F801A082B182C282D3821091FA045E
:101B0000F20104E0109FE00DF11D11242091FB046F
:101B10003091FC044091FD045091FE04608171817C
:101B2000828193810E940C206093FB047093FC04DB
:101B30008093FD049093FE041F5F1093FA040091BC
:101B4000F804101711F40C9429161091F9041111CE
:101B500059C7A0920505B0920605C0920705D0921C
:101B60000805A0920105B0920205C0920305D0922B
:101B70000405101718F41F5F1093F9048091DF011A
:101B80009091E00101969093E0018093DF0101962E
:101B900011F40C94B115112309F44BC7612F70E0B7
:101BA00080E090E00E9427219B01AC016091FB0442
:101BB0007091FC048091FD049091FE040E947D20B0
:101BC0000E94EF207093DE016093DD018091DB01C4
:101BD0009091DC01681B790B072E000C880B990B88
:101BE0000E94272120E030E043EC5DE30E94DC21ED
:101BF0006093FA017093FB018093FC019093FD01C7
:101C00008FB7F89440913D0250913E0260913F029F
:101C1000709140028FBF8091150590911605A0919B
:101C20001705B09118058A019B01081B190B2A0B97
:101C30003B0B8091190590911A05092E000CAA0BF7
:101C4000BB0B081719072A073B0708F45BC0409332
:101C5000150550931605609317057093180510929B
:101C6000E4011092E30143E490917A0080917A00BC
:101C7000887F846080937A0040937C0080917A0012
:101C8000806480937A0080917A0086FDFCCF8091F9
:101C900078002091790090937A0090E0922B209127
:101CA000E1013091E201820F931F9093E201809352
:101CB000E1012091E3013091E4012F5F3F4F309328
:101CC000E4012093E3012530310574F265E070E012
:101CD0000E949C1F7093E2016093E101072E000CAB
:101CE000880B990B0E94272123E333E343E35DE351
:101CF0000E94DC216093FE017093FF01809300023B
:101D0000909301028FB7F89440913D0250913E02AA
:101D100060913F02709140028FBF80910F059091BA
:101D20001005A0911105B09112058A019B01081BB5
:101D3000190B2A0B3B0B8091130590911405092E6A
:101D4000000CAA0BBB0B081719072A073B0708F45E
:101D50004CC040930F05509310056093110570938C
:101D600012058091EB019091EC01A091ED01B091F1
:101D7000EE018093E7019093E801A093E901B0930D
:101D8000EA0180913D0590913E059093F00180938A
:101D9000EF012091FA013091FB014091FC0150913B
:101DA000FD016091FE017091FF0180910002909110
:101DB00001020E94DC215B016C0160913F05709182
:101DC0004005072E000C880B990B0E9427219B01D0
:101DD000AC01C601B5010E94DC216093EB01709358
:101DE000EC018093ED019093EE018FB7F894409150
:101DF0003D0250913E0260913F02709140028FBFC0
:101E00008091090590910A05A0910B05B0910C05F0
:101E10008A019B01081B190B2A0B3B0B80910D05B6
:101E200090910E05092E000CAA0BBB0B0817190781
:101E30002A073B0708F44DC04093090550930A0553
:101E400060930B0570930C0500913D0510913E05C4
:101E50002091E7013091E8014091E9015091EA01B8
:101E60006091EB017091EC018091ED019091EE0198
:101E70000E940B206093F6017093F7018093F801A4
:101E80009093F90120E030E0A9010E94D7211816B3
:101E90000CF0AEC68091040190910501800F911F56
:101EA00090933E0580933D052091E5013091E60138
:101EB0002C33310524F09093400580933F058536FF
:101EC00091050CF0B9C597FF04C010923E05109221
:101ED0003D058FB7F89440913D0250913E026091CC
:101EE0003F02709140028FBF8091F2049091F30401
:101EF000A091F404B091F5048A019B01081B190B11
:101F00002A0B3B0B8091F6049091F704092E000CEC
:101F1000AA0BBB0B081719072A073B0708F4C1C215
:101F20004093F2045093F3046093F4047093F50427
:101F30008091350290913602909319028093180295
:101F400080913F059091400590931B0280931A0267
:101F5000409106015091070180910801909109017B
:101F6000489F9001499F300D589F300D1124032E3A
:101F7000000C440B550B60E074E284EF90E00E948B
:101F8000B01F30931D0220931C0280910202909199
:101F90000302A0910402B091050280931E02909367
:101FA0001F02A0932002B09321028091FE01909124
:101FB000FF01A0910002B091010280932202909350
:101FC0002302A0932402B09325028091FA019091FC
:101FD000FB01A091FC01B091FD018093260290933A
:101FE0002702A0932802B09329028091F6019091D4
:101FF000F701A091F801B091F90180932A02909322
:102000002B02A0932C02B0932D0210922E0210925C
:102010002F0210923002109231028091F5018093CC
:1020200032028091F401809333028091F301809316
:1020300034028BE290E09093F2018093F101EAE0A8
:10204000F2E0A5EEB2E001900D928A95E1F78FEFF4
:102050008093F00485EEC82E82E0D82EF60180E051
:1020600091919E3709F413C68F5F8B32C9F78AE2CC
:10207000282F30E0F901EB51FD4F90819E3709F494
:10208000A6C58150A8F72091E3023091E402E5EE65
:10209000F2E0512C81915826D901A50DB11D5C901B
:1020A00003E0E031F007B1F7A091E804B091E90452
:1020B000ED91FC9111970190F081E02D16E0E53251
:1020C000F10711F00C94611881E058968C935897A1
:1020D0005B969C915B975C968C915C97981709F442
:1020E0009FC75B962C915B9730E02F5F3F4F2F731C
:1020F0003327922F03C00FB607FED3C55C968C9191
:102100005C979817C1F35B968C915B97FD01E80F84
:10211000F11DE35AFF4F8EE780839FB7F8945B96DB
:102120002C935B975296ED91FC915397808180623E
:1021300080839FBFA091E804B091E904ED91FC91E8
:1021400011970190F081E02D26E0E532F20709F0C9
:10215000A8C781E058968C9358975B969C915B97A3
:102160005C968C915C97981709F442C75B962C910A
:102170005B9730E02F5F3F4F2F733327922F03C0C1
:102180000FB607FEFEC55C968C915C979817C1F35D
:102190005B968C915B97FD01E80FF11DE35AFF4FB1
:1021A00010829FB7F8945B962C935B975296ED91B3
:1021B000FC9153978081806280839FBFA091E80447
:1021C000B091E904ED91FC9111970190F081E02D1F
:1021D0006091F00436E0E532F30709F05BC781E077
:1021E00058968C9358975B969C915B975C968C91D4
:1021F0005C97981709F42DC75B962C915B9730E09C
:102200002F5F3F4F2F733327922F03C00FB607FE68
:1022100028C65C968C915C979817C1F35B968C915D
:102220005B97FD01E80FF11DE35AFF4F60839FB7F5
:10223000F8945B962C935B975296ED91FC91539793
:102240008081806280839FBFA091E804B091E904FF
:10225000ED91FC9111970190F081E02D6091F101D9
:1022600046E0E532F40709F031C781E058968C93D7
:1022700058975B969C915B975C968C915C979817AE
:1022800009F486C65B962C915B9730E02F5F3F4F39
:102290002F733327922F03C00FB607FE1AC65C9622
:1022A0008C915C979817C1F35B968C915B97FD01BD
:1022B000E80FF11DE35AFF4F60839FB7F8945B96D8
:1022C0002C935B975296ED91FC915397808180629D
:1022D00080839FBF0091E8041091E904D801ED913B
:1022E000FC910280F381E02D4091F1015091F201C7
:1022F0005527B6E0EA38FB0709F0C7C6FA01EB51EB
:10230000FD4F5F0144244394AC14BD0409F440C064
:10231000D801ED91FC910190F081E02DD6016D91F5
:102320006D01B6E0E532FB0709F034C3F801408ED9
:10233000938D848D981709F415C3F801238D30E02F
:102340002F5F3F4F2F733327922F03C00FB607FE27
:10235000F3C1D8015C968C915C979817B9F3F8019A
:10236000838DE80FF11DE35AFF4F60839FB7F89408
:10237000D8015B962C935B975296ED91FC91539705
:102380008081806280839FBFAC14BD0409F0C0CF00
:10239000A091E804B091E904ED91FC9111970190AE
:1023A000F081E02D06E0E532F00709F076C681E025
:1023B00058968C9358975B969C915B975C968C9102
:1023C0005C97981709F4FCC55B962C915B9730E0FD
:1023D0002F5F3F4F2F733327922F03C00FB607FE97
:1023E00098C45C968C915C979817C1F35B968C911E
:1023F0005B97FD01E80FF11DE35AFF4F50829FB735
:10240000F8945B962C935B975296ED91FC915397C1
:102410008081806280839FBFA091E804B091E9042D
:10242000ED91FC9111970190F081E02D16E0E532DD
:10243000F10709F042C681E058968C9358975B9655
:102440009C915B975C968C915C97981709F481C579
:102450005B962C915B9730E02F5F3F4F2F733327B4
:10246000922F03C00FB607FEC4C45C968C915C9794
:102470009817C1F35B968C915B97FD01E80FF11DF6
:10248000E35AFF4F81E880839FB7F8945B962C93C3
:102490005B975296ED91FC91539780818062808387
:1024A0009FBF20E030E0232B09F475C880915B02C8
:1024B00020915C0290E0805C9F4F821B91098F739A
:1024C0009927892B09F467C80E94000080913F0575
:1024D0009091400597FF65C81092400510923F0506
:1024E0008091370290913802892B09F46EC880914F
:1024F000B0008F758093B00015C29B3311F40C941B
:10250000680A923411F00C94C0090C94680A1D30CA
:1025100008F4BAC010932A0580912D058F5F80932F
:102520002D050C94680AE0912F05F091300520816B
:102530000180F281E02DF8949181822F809598237B
:10254000918378949CE7D6011197F1F7308132237B
:1025500009F0A4C09150B9F700912F0510913005F2
:1025600065E5C8010E944B089E012F5F3F4F19018E
:10257000D1016D911D0128E030E091E0892F862383
:1025800009F4A7C0D8018C911196ED91FC91129796
:10259000F8944281582F5095452342834181482B1E
:1025A0004183D7011197F1F74281842B828378947C
:1025B000F2013197F1F7990F21503109F9F6F894AA
:1025C000F801A181B28111968C911197908190951B
:1025D000892311968C93A181B28112968C911297C6
:1025E00090819095892312968C9378948214930409
:1025F00009F0BECF64EB80912F05909130050E94C9
:102600004B08E0912F05F091300590810180F28117
:10261000E02DF8948181892B81832281892F8095F7
:1026200028232283A7E0B0E01197F1F721818223CC
:102630008183D7011197F1F7808198237894EFEC8B
:10264000F0E03197F1F7E0912F05F09130053081FE
:102650000180F281E02DF8942181832F8095282339
:10266000218378942CE7D6011197F1F74081432319
:1026700011F00C94721D2150B1F7992311F40C94B0
:102680008E1D29810C94460A8CE080932A05809146
:102690002D058F5F80932D050C94680AF894928124
:1026A000982392839181922B91837894ABE7B7E042
:1026B0001197F1F7F89491818923818383E191E067
:1026C0000197F1F78081789483E696E00197F1F71E
:1026D00043CFF80180810180F281E02DF89442819E
:1026E000582F5095452342834181482B4183D50182
:1026F0001197F1F74281842B82837894F30131970B
:10270000F1F759CF8981803109F4BECFCE0101960E
:102710000E949D0099810C94570A809135029091F6
:102720003602009709F011C184E690E090933602DA
:10273000809335020C94EE0A5096ED91FC915197DE
:10274000808185FF06CE5C968C915C97F801E80F3E
:10275000F11DE35AFF4F8081F801448D50E04F5F37
:102760005F4F4F735527448F0688F789E02D80838C
:102770005096ED91FC9151978081837080648083A5
:102780005B964C915B975C968C915C974813E1CD7E
:102790005296ED91FC91539780818F7D8083D9CDA6
:1027A00020913702309138028217930711F40C946C
:1027B000E50A009709F49BCE8333910514F00C943D
:1027C0006A1D823091050CF4FDC0843091050CF433
:1027D000D2C4883091050CF4D4C48E3091050CF429
:1027E000D6C48E30910509F4CFC40F9709F4D2C432
:1027F00086E090E09093D3018093D201233331059A
:102800000CF4CEC044E650E0421B530B1092D501AD
:102810001092D401423051050CF4CBC04430510524
:102820000CF4ACC4483051050CF4C0C44E30510512
:102830000CF4B9C44E30510509F4B2C44F305105FF
:1028400009F4ABC446E050E05093D5014093D40165
:102850005093D1014093D001232B59F483EA809304
:10286000B0008091D2019091D3014091D00150915C
:10287000D10184179507E9F1FC01EE0FFF1F880FC6
:10288000991F880F991F880F991FDF01A80FB91F83
:10289000A05FBE4F12962D913C91139720343105C5
:1028A00009F44FC32032310509F4FFC328E030E0BA
:1028B00030930701209306012AE02093B1008E0F88
:1028C0009F1FFC01E05FFE4F84819581809308018A
:1028D000909309014681578160857185409300017D
:1028E0005093010160930201709303018150809322
:1028F000B30060913F0570914005072E000C880BD6
:10290000990B0E94272120910001309101014091F3
:102910000201509103010E94DC210E94EF206150CE
:102920006093B40080913F059091400590933802E8
:10293000809337020C94E50A81E08093D8012091BE
:10294000E5013091E6010C94520B8436910511F0AB
:102950000C94EE0A109236021092350280E090E05C
:102960000C94EE0A0088F189E02D808185FFE5CC8A
:102970009FB7F894D8015696ED91FC9157976083D4
:102980005096ED91FC915197808183708064808393
:102990009FBFBACCC8010995892B09F0B5CCF8CCFA
:1029A0001092D5011092D401A901423051050CF0CA
:1029B00035CF40E050E04CCF80E090E08230910590
:1029C0000CF003CF80E090E015CF1092F4018091DD
:1029D000E1019091E2018E34934014F40C948D0B3C
:1029E00080913F0590914005029690934005809319
:1029F0003F0581E08093F3010C948F0B1092F50159
:102A00000C94730B20910105309102054091030550
:102A100050910405C601B5010E94782087FF1DC1B1
:102A2000A0920105B0920205C0920305D092040560
:102A3000A0C860E070E0C6C884E690E090933E05D0
:102A400080933D0546CAE0912A05E950E33008F03D
:102A500021C1F0E0EE0FFF1FEA5AFE4FA080B180C7
:102A60000B2C000CCC08DD0880912C05882329F064
:102A700080912705882309F42CC3809128058111B2
:102A800081C29FB7F8944091390250913A02609107
:102A90003B0270913C0286B5A89B06C08F3F21F097
:102AA0004F5F5F4F6F4F7F4F9FBF762F652F542F24
:102AB0004427480F511D611D711D440F551F661F8E
:102AC000771F440F551F661F771FA114B104C1045F
:102AD000D104D1F13FB7F8948091390290913A0234
:102AE000A0913B02B0913C0226B5A89B05C02F3FA8
:102AF00019F00196A11DB11D3FBFBA2FA92F982F24
:102B00008827820F911DA11DB11D880F991FAA1F33
:102B1000BB1F880F991FAA1FBB1F841B950BA60BF9
:102B2000B70B883E9340A105B105A0F211E0A11AB0
:102B3000B108C108D10848515C4F6F4F7F4FA114B5
:102B4000B104C104D10431F680912805882311F421
:102B50000C94B20C61E0809129050E9446050C940A
:102B6000B20C112309F465CF1092FB041092FC04FF
:102B70001092FD041092FE04A12CB12C650100E01E
:102B8000D2012D913D914D915D912D01C601B5016F
:102B90000E940C205B016C016093FB047093FC04A9
:102BA0008093FD049093FE040F5F0113E9CF602F23
:102BB00070E080E090E00E9427219B01AC01C601FB
:102BC000B5010E947D200E94EF200C94E20D8AE264
:102BD00003C0815008F457CA482F50E0FA01EB5166
:102BE000FD4F90819E37A9F7281B2083282FF1CF16
:102BF000809104019091050122273327281B390B6E
:102C00003093050120930401F801E81BF90BCF0173
:102C1000F0933E05E0933D0547C9821793070CF0FA
:102C20008BCE2091E5013091E6012150310930939E
:102C3000E6012093E501609108017091090180E1AE
:102C400097E20E949C1F70934605609345050C9483
:102C5000520B1092FA040C94A50D209105053091A9
:102C600006054091070550910805C601B5010E946F
:102C7000D721181614F00C94B90DA0920505B09246
:102C80000605C0920705D09208050C94B90D8093F3
:102C9000F004EDC91EEEA12E12E0B12EC12CD12CF4
:102CA000E3CE5096ED91FC915197808185FF26CA25
:102CB0005C968C915C97FD01E80FF11DE35AFF4F84
:102CC00080815C964C915C9750E04F5F5F4F4F73F3
:102CD00055275C964C935C975696ED91FC915797CF
:102CE00080835096ED91FC91519780818370806430
:102CF00080835B964C915B975C968C915C974813B4
:102D0000FDC95296ED91FC91539780818F7D808310
:102D1000F5C95096ED91FC915197808185FF61CB6B
:102D20005C968C915C97FD01E80FF11DE35AFF4F13
:102D300080815C964C915C9750E04F5F5F4F4F7382
:102D400055275C964C935C975696ED91FC9157975E
:102D500080835096ED91FC915197808183708064BF
:102D600080835B964C915B975C968C915C97481343
:102D700038CB5296ED91FC91539780818F7D808363
:102D800030CB5096ED91FC915197808185FFFBC926
:102D90005C968C915C97FD01E80FF11DE35AFF4FA3
:102DA00080815C964C915C9750E04F5F5F4F4F7312
:102DB00055275C964C935C975696ED91FC915797EE
:102DC00080835096ED91FC9151978081837080644F
:102DD00080835B964C915B975C968C915C974813D3
:102DE000D2C95296ED91FC91539780818F7D80835B
:102DF000CAC95096ED91FC915197808185FF35CBE2
:102E00005C968C915C97FD01E80FF11DE35AFF4F32
:102E100080815C964C915C9750E04F5F5F4F4F73A1
:102E200055275C964C935C975696ED91FC9157977D
:102E300080835096ED91FC915197808183708064DE
:102E400080835B964C915B975C968C915C97481362
:102E50000CCB5296ED91FC91539780818F7D8083AE
:102E600004CB5096ED91FC915197808185FFD1C99B
:102E70005C968C915C97FD01E80FF11DE35AFF4FC2
:102E800080815C964C915C9750E04F5F5F4F4F7331
:102E900055275C964C935C975696ED91FC9157970D
:102EA00080835096ED91FC9151978081837080646E
:102EB00080835B964C915B975C968C915C974813F2
:102EC000A8C95296ED91FC91539780818F7D8083A4
:102ED000A0C95096ED91FC915197808185FFDFC983
:102EE0005C968C915C97FD01E80FF11DE35AFF4F52
:102EF00080815C964C915C9750E04F5F5F4F4F73C1
:102F000055275C964C935C975696ED91FC9157979C
:102F100080835096ED91FC915197808183708064FD
:102F200080835B964C915B975C968C915C97481381
:102F3000B6C95296ED91FC91539780818F7D808325
:102F4000AEC930930701209306012CE02093B10015
:102F5000B6CC5096ED91FC915197808185FF78CA4F
:102F60009FB7F8945696ED91FC91579781E880832E
:102F70005096ED91FC91519780818370806480839D
:102F80009FBF8FCA60E0809129050E94460579CDD8
:102F90005096ED91FC915197808185FF73C99FB741
:102FA000F8945696ED91FC91579760835096ED9169
:102FB000FC91519780818370806480839FBF8AC910
:102FC0005096ED91FC915197808185FFFDC99FB787
:102FD000F8945696ED91FC91579750825096ED914A
:102FE000FC91519780818370806480839FBF14CA55
:102FF0005096ED91FC915197808185FFB7C89FB79E
:10300000F8945696ED91FC91579710825096ED9159
:10301000FC91519780818370806480839FBFCEC86C
:103020005096ED91FC915197808185FF5AC89FB7CA
:10303000F8945696ED91FC9157978EE780835096C1
:10304000ED91FC91519780818370806480839FBF54
:1030500071C85096ED91FC915197808185FFCCC845
:103060009FB7F8945696ED91FC91579760835096D0
:10307000ED91FC91519780818370806480839FBF24
:10308000E3C81091F9040C94BE0D65EE72E0C8011E
:1030900009957EC9CD010995D7C8652DCD01099542
:1030A000BBC960E0CD01099589C830930701209321
:1030B00006012BE02093B10002CC61E8CD01099517
:1030C000F0C96EE7CD0109950C949A10CD010995D0
:1030D00001C98FB7F89400913D0210913E022091F2
:1030E0003F02309140020C8B1D8B2E8B3F8B8FBF8C
:1030F00047E050E0BFEC4B2E512CE0912F05F091B2
:10310000300570810180F281E02DF8946181672B98
:1031100061831281672F609516231283CA0101977C
:10312000F1F7118161236183C7010197F1F7608194
:103130007894F2013197F1F7672311F00C94B20CF7
:103140006FB7F89480913D0290913E02A0913F02AA
:10315000B09140026FBF0C891D892E893F89801B69
:10316000910BA20BB30B8A159B05AC05BD0508F4AA
:10317000C4CF0C94B20C81E090E03CCB41E050E035
:1031800063CB82E090E036CB84E090E033CB83E009
:1031900090E030CB85E090E02DCB45E050E054CB83
:1031A00044E050E051CB43E050E04ECB42E050E0F1
:1031B0004BCB8A85E82FEF70F0E0E057FF4F9491FA
:1031C000E82FE295EF70F0E0E056FF4FE4919E2784
:1031D0008B858927E82FEF70F0E0E057FF4F94913F
:1031E000E82FE295EF70F0E0E056FF4FE4919E2764
:1031F0008C858927E82FEF70F0E0E057FF4F94911E
:10320000E82FE295EF70F0E0E056FF4FE4919E2743
:103210008D858927E82FEF70F0E0E057FF4F9491FC
:10322000E82FE295EF70F0E0E056FF4FE4919E2723
:103230008E858927E82FEF70F0E0E057FF4F9491DB
:10324000E82FE295EF70F0E0E056FF4FE4919E2703
:103250008F858927E82FEF70F0E0E057FF4F9491BA
:10326000E82FE295EF70F0E0E056FF4FE4919E27E3
:1032700088898927E82FEF70F0E0E057FF4F94919D
:10328000E82FE295EF70F0E0E056FF4FE491892FD0
:103290008E27998998130C94E10CE0912F05F091F9
:1032A000300530810180F281E02DF8948181632F17
:1032B00060958623818378942CE743E050E003C037
:1032C000215009F401C3CA010197F1F780818323DA
:1032D000B9F3F8948281862382838181832B818351
:1032E00078948BE797E00197F1F7F8948181682350
:1032F000618383E191E00197F1F780817894E3E6BF
:10330000F6E03197F1F7382309F0DEC2A0912F05DE
:10331000B091300528E030E051E01DC0DC901196FE
:10332000ED91FC911297F89492814D2D4095942344
:10333000928391819D299183C7010197F1F7928131
:103340008D2D892B82837894C3010197F1F7550F56
:103350002150310901F1852F857501F7DC90119617
:10336000ED91FC911297F89492814D2D4095942304
:10337000928391819D299183C4010197F1F79281F4
:103380008D2D892B82837894C5010197F1F7550F14
:103390002150310901F7F8941196ED91FC911297A3
:1033A00091818C918095892381831196ED91FC9177
:1033B000129792818C918095892382837894A101C0
:1033C0002D01DA01DD90AD0128E030E091E01CC074
:1033D000F20180810180F281E02DF8946281782FE2
:1033E0007095672362836181682B6183D701119790
:1033F000F1F76281862B82837894F3013197F1F79C
:10340000990F2150310901F18D2D892309F7D2013E
:103410008C911196ED91FC911297F8946281782F1E
:103420007095672362836181682B6183D401119752
:10343000F1F76281862B82837894F5013197F1F759
:10344000990F2150310901F7F894D2011196ED91AD
:10345000FC91129791818C9180958923818311969B
:10346000ED91FC91129792818C91809589238283B2
:103470007894EA89FB89E417F50709F0A2CFA091B7
:103480002F05B091300528E030E051E01DC0DC9000
:103490001196ED91FC911297F89492814D2D4095E3
:1034A0009423928391819D299183C7010197F1F71C
:1034B00092818D2D892B82837894C3010197F1F736
:1034C000550F2150310901F1852F8E7B01F7DC90DA
:1034D0001196ED91FC911297F89492814D2D4095A3
:1034E0009423928391819D299183C4010197F1F7DF
:1034F00092818D2D892B82837894C5010197F1F7F4
:10350000550F2150310901F7F8941196ED91FC9176
:10351000129791818C918095892381831196ED91E9
:10352000FC91129792818C91809589238283789463
:10353000AE014F5F5F4F27E030E08FEC90E01D8BD6
:103540000C8BE0912F05F0913005508001811281A4
:10355000F894D80111966C911197652911966C9386
:10356000119712966C911297D52CD0946D211296CA
:103570006C93D9011197F1F7D80111966C911197BD
:10358000D6221196DC92D7011197F1F7D8016C91F0
:103590007894DC011197F1F7652111E009F410E04E
:1035A000C08061817281798F688FF894A88DB98D00
:1035B00011966C9111976C2911966C931197129634
:1035C0006C9112975C2C5094652112966C93D901E2
:1035D0001197F1F7A88DB98D11966C91119756221C
:1035E00011965C92D7011197F1F7A88DB98D6C9166
:1035F0007894DC011197F1F7C62209F01260C080BF
:1036000061817281798F688FF894A88DB98D119638
:103610006C9111976C2911966C93119712966C917D
:1036200012975C2C5094652112966C93D9011197D6
:10363000F1F7A88DB98D11966C91119756221196BC
:103640005C92D7011197F1F7A88DB98D6C917894A0
:10365000DC011197F1F7C62209F01460C080618186
:103660007281798F688FF894A88DB98D11966C91BD
:1036700011976C2911966C93119712966C91129771
:103680005C2C5094652112966C93D9011197F1F737
:10369000A88DB98D11966C911197562211965C9256
:1036A000D7011197F1F7A88DB98D6C917894DC0151
:1036B0001197F1F7C62209F01860C080618172810C
:1036C000798F688FF894A88DB98D11966C911197A8
:1036D0006C2911966C93119712966C9112975C2C31
:1036E0005094652112966C93D9011197F1F7A88D2A
:1036F000B98D11966C911197562211965C92D70153
:103700001197F1F7A88DB98D6C917894DC01119720
:10371000F1F7C62209F01061C08061817281798F52
:10372000688FF894A88DB98D11966C9111976C29BA
:1037300011966C93119712966C9112975C2C509481
:10374000652112966C93D9011197F1F7A88DB98D67
:1037500011966C911197562211965C92D701119790
:10376000F1F7A88DB98D6C917894DC011197F1F780
:10377000C62209F01062C08061817281798F688FE2
:10378000F894A88DB98D11966C9111976C291196AA
:103790006C93119712966C9112975C2C5094652142
:1037A00012966C93D9011197F1F7A88DB98D1196E6
:1037B0006C911197562211965C92D7011197F1F7EF
:1037C000A88DB98D6C917894DC011197F1F7C62220
:1037D00009F0106470810180F281E02DF89461811C
:1037E000672B6183A281672F6095A623A283D901ED
:1037F0001197F1F7A1816A236183D7011197F1F73E
:1038000060817894FC013197F1F7672309F0106823
:10381000FA011193AF01E215F30509F092CE0C897C
:103820001D89E0912F05F091300560810180F281C2
:10383000E02DF8948181362F30958323818378940D
:103840002CE743E050E003C0215009F43DC0CA0119
:103850000197F1F780818623B9F3F894828183235D
:1038600082838181862B818378948BE797E001970F
:10387000F1F7F89481813823318383E191E0019756
:10388000F1F780817894E3E6F6E03197F1F7682369
:10389000D9F489818111EFC09A819111FCC04B81CB
:1038A0004111F2C06C816111F8C03D813111FCC041
:1038B0005E817F812885A985511102C17111FBC0EC
:1038C000211102C1A1110EC0C090D901D090DA011E
:1038D0002091E3013091E40160E070E08EEF92EC22
:1038E0000C94E90C50E060E030E040E090E070E0E3
:1038F000E82FEF70F0E0E057FF4FB491E82FE2952A
:10390000EF70F0E0E056FF4FF491B927BF27EB2F9F
:10391000EF70F0E0E057FF4FD490B295BF70EB2FFF
:10392000F0E0E056FF4FF4914D254F27E42FEF7064
:10393000F0E0E057FF4FB49142954F70E42FF0E074
:10394000E056FF4F44916B276427E62FEF70F0E0BD
:10395000E057FF4F449162956F70E62FF0E0E0561C
:10396000FF4FE49134273E27E32FEF70F0E0E0575C
:10397000FF4F449132953F70E32FF0E0E056FF4F48
:10398000E49154275E27E52FEF70F0E0E057FF4FFA
:10399000449152955F70E52FF0E0E056FF4FE491BF
:1039A00047274E27E42FEF70F0E0E057FF4F3491A8
:1039B00042954F70E42FF0E0E056FF4FE49132273C
:1039C0003E27E32FEF70F0E0E057FF4F4491329530
:1039D0003F70E32FF0E0E056FF4FE491E427EA1355
:1039E00073CFE92FF0E0FE2FEE27FF0FFF0FFF0F41
:1039F00090E0880F991F880F991F880F991FE82B57
:103A0000F92B8A858031E1F0BF016138F4EE7F0740
:103A10000CF45ACF072E000C880B990B0E9427211B
:103A200020E030E040E05CE30E94DC21C090D9015E
:103A3000D090DA012091E3013091E4010C94E90C7B
:103A4000222311F330E0C901871B91099695982F25
:103A5000882797958795B9010E949C1F605271092C
:103A6000CF01807F880F991F880F991F880F991F9A
:103A7000680F791FCACF7F819A8128854B813D814C
:103A80006C815E81A98534CF7F8128853D816C81E1
:103A90005E81A9852DCF7F81F0CF7F8128853D81F3
:103AA0005E81A985942F24CF7F8128855E81A98599
:103AB000462F962F1DCF652F352F452F952F18CFC9
:103AC000632F432F932F14CF50E060E030E040E0AD
:103AD00090E00ECF44E650E0BA01681B790BCB01B1
:103AE0000C94E113F8942281282322832181232B33
:103AF00021837894ABE7B7E01197F1F7F89421812F
:103B000082238183A3E1B1E01197F1F7808178945A
:103B1000E3E6F6E03197F1F70C943D1381E08093F2
:103B2000270529810C94460A8091FF049091000595
:103B3000009711F00C94E122089510924502109222
:103B4000440288EE93E0A0E0B0E0809346029093B8
:103B50004702A0934802B093490280E691E0909317
:103B600043028093420285EC90E090934F02809351
:103B70004E0284EC90E0909351028093500280ECCE
:103B800090E0909353028093520281EC90E09093E6
:103B900055028093540282EC90E0909357028093F8
:103BA000560286EC90E0909359028093580210924E
:103BB0005B0210925C0210925D0210925E02109203
:103BC000F2041092F3041092F4041092F50484E6C7
:103BD00090E09093F7048093F6048BE98093DF02E2
:103BE00088E08093E20280E091E09093E10280938C
:103BF000E0020E9449228093E3029093E402AC0128
:103C000020E030E030C0C901880F991F87FD35C022
:103C1000880F991F87FD38C0880F991F87FD3BC00B
:103C2000880F991F87FD3EC0880F991F87FD41C0EF
:103C3000880F991F87FD44C0880F991F87FD47C0D3
:103C4000880F991FFA01E20FF31F80832F5F3F4F08
:103C50008091E0029091E10228173907F0F5409138
:103C6000E3025091E40227FFCECF6091DF02C90149
:103C7000880F991F862787FFCBCF880F991F6091E8
:103C8000DF02862787FFC8CF880F991F6091DF0268
:103C9000862787FFC5CF880F991F6091DF0286278F
:103CA00087FFC2CF880F991F6091DF02862787FFA9
:103CB000BFCF880F991F6091DF02862787FFBCCF97
:103CC000880F991F6091DF02862787FFB9CF880F81
:103CD000991F6091DF028627B5CF1092E104109200
:103CE000E2041092E4041092E3041092E6041092AD
:103CF000E5041092E7041092EC041092ED04109287
:103D0000EE041092EF041092F0041092F1048091EE
:103D10003F059091400590933E0580933D0560E0FE
:103D200082E00E949C05E0EDF0E0E491E09347051D
:103D3000ECEBF0E0E491F0E0EE0FFF1FE055FF4FF9
:103D4000859194919093490580934805109252056E
:103D500010925405109253051092510587E0EAE441
:103D6000F5E0DF011D928A95E9F787E495E09093ED
:103D7000300580932F0510922D0510922E0510927C
:103D8000270589E080932A0581E080932B058093A5
:103D90002C0510923C0510923B05109228051092BC
:103DA000210510922205109223051092240588EE19
:103DB00093E0909326058093250510921B051092A1
:103DC0001C0510921D0510921E0581E090E0909355
:103DD000200580931F05109215051092160510926C
:103DE0001705109218058AE090E090931A058093C9
:103DF000190510920F0510921005109211051092DE
:103E000012059093140580931305109209051092E2
:103E10000A0510920B0510920C0582E390E0909336
:103E20000E0580930D0580E18093F80480E490E016
:103E30000E9449229C01909300058093FF04892BE6
:103E400009F443C01092F9041092FA041092FB0492
:103E50001092FC041092FD041092FE0480E090E0A9
:103E6000A0ECBFE78093010590930205A0930305A2
:103E7000B09304058093050590930605A09307056C
:103E8000B093080590E19150F901B4E09B9FE00DDB
:103E9000F11D112410821182128213829111F3CF2D
:103EA000609108017091090180E197E20E949C1FD6
:103EB000109241051092420510924305109244055C
:103EC000709346056093450508951092F80410928A
:103ED000F9041092FA041092FB041092FC04109260
:103EE000FD041092FE0480E090E0A0ECBFE7809318
:103EF000010590930205A0930305B09304058093F8
:103F0000050590930605A0930705B0930805C8CF53
:103F1000DC01FB014150504058F049F001900D92F6
:103F20000020C1F7E61BF70B3197CF0108951C92D3
:103F300001900020E9F7F6CF97FB072E16F40094C6
:103F400007D077FD09D00E94CF1F07FC05D03EF4B3
:103F5000909581959F4F0895709561957F4F089535
:103F6000052E97FB1EF400940E94C71F57FD07D033
:103F70000E94E31F07FC03D04EF40C94C71F50951A
:103F80004095309521953F4F4F4F5F4F0895909545
:103F90008095709561957F4F8F4F9F4F0895AA1B15
:103FA000BB1B51E107C0AA1FBB1FA617B70710F024
:103FB000A61BB70B881F991F5A95A9F78095909556
:103FC000BC01CD010895A1E21A2EAA1BBB1BFD0165
:103FD0000DC0AA1FBB1FEE1FFF1FA217B307E407E8
:103FE000F50720F0A21BB30BE40BF50B661F771F40
:103FF000881F991F1A9469F7609570958095909520
:104000009B01AC01BD01CF010895EE0FFF1F05908C
:10401000F491E02D09945058BB27AA270E94232031
:104020000C949D210E948F2138F00E94962120F04F
:1040300039F49F3F19F426F40C948C210EF4E0958A
:10404000E7FB0C948621E92F0E94AE2158F3BA17A2
:10405000620773078407950720F079F4A6F50C949E
:10406000D0210EF4E0950B2EBA2FA02D0B01B90133
:1040700090010C01CA01A0011124FF27591B99F0DE
:10408000593F50F4503E68F11A16F040A22F232FEA
:10409000342F4427585FF3CF469537952795A7953A
:1040A000F0405395C9F77EF41F16BA0B620B730BE1
:1040B000840BBAF09150A1F0FF0FBB1F661F771F52
:1040C000881FC2F70EC0BA0F621F731F841F48F407
:1040D000879577956795B795F7959E3F08F0B0CF90
:1040E0009395880F08F09927EE0F97958795089577
:1040F0000E94622108F481E008950E9491200C94AE
:104100009D210E94962158F00E948F2140F029F4B1
:104110005F3F29F00C94862151110C94D1210C940D
:104120008C210E94AE2168F39923B1F3552391F3BA
:10413000951B550BBB27AA2762177307840738F016
:104140009F5F5F4F220F331F441FAA1FA9F335D073
:104150000E2E3AF0E0E832D091505040E695001C27
:10416000CAF72BD0FE2F29D0660F771F881FBB1FE1
:10417000261737074807AB07B0E809F0BB0B802DBF
:10418000BF01FF2793585F4F3AF09E3F510578F0EB
:104190000C9486210C94D1215F3FE4F3983ED4F334
:1041A000869577956795B795F7959F5FC9F7880FBF
:1041B000911D9695879597F90895E1E0660F771F11
:1041C000881FBB1F621773078407BA0720F0621BA2
:1041D000730B840BBA0BEE1F88F7E09508950E94CD
:1041E000F6206894B1110C94D12108950E94B62153
:1041F00088F09F5798F0B92F9927B751B0F0E1F0A8
:10420000660F771F881F991F1AF0BA95C9F714C057
:10421000B13091F00E94D021B1E008950C94D021EA
:10422000672F782F8827B85F39F0B93FCCF3869590
:1042300077956795B395D9F73EF4909580957095ED
:1042400061957F4F8F4F9F4F0895E89409C097FB6A
:104250003EF490958095709561957F4F8F4F9F4F5D
:104260009923A9F0F92F96E9BB279395F6958795A1
:1042700077956795B795F111F8CFFAF4BB0F11F464
:1042800060FF1BC06F5F7F4F8F4F9F4F16C088230B
:1042900011F096E911C0772321F09EE8872F762F41
:1042A00005C0662371F096E8862F70E060E02AF082
:1042B0009A95660F771F881FDAF7880F969587956E
:1042C00097F90895990F0008550FAA0BE0E8FEEF43
:1042D00016161706E807F907C0F012161306E407CA
:1042E000F50798F0621B730B840B950B39F40A26C3
:1042F00061F0232B242B252B21F408950A2609F4A1
:10430000A140A6958FEF811D811D089597F99F67A4
:1043100080E870E060E008959FEF80EC089500244D
:104320000A941616170618060906089500240A941A
:1043300012161306140605060895092E0394000CA0
:1043400011F4882352F0BB0F40F4BF2B11F460FF2F
:1043500004C06F5F7F4F8F4F9F4F089557FD905858
:10436000440F551F59F05F3F71F04795880F97FB39
:10437000991F61F09F3F79F08795089512161306F3
:104380001406551FF2CF4695F1DF08C01616170622
:104390001806991FF1CF8695710561050894089557
:1043A000E894BB2766277727CB0197F908950E94E9
:1043B000622108F48FEF08950E94EF210C949D2153
:1043C0000E948F2138F00E94962120F0952311F051
:1043D0000C9486210C948C2111240C94D1210E94E0
:1043E000AE2170F3959FC1F3950F50E0551F629F6A
:1043F000F001729FBB27F00DB11D639FAA27F00D3E
:10440000B11DAA1F649F6627B00DA11D661F829F64
:104410002227B00DA11D621F739FB00DA11D621F49
:10442000839FA00D611D221F749F3327A00D611D66
:10443000231F849F600D211D822F762F6A2F112448
:104440009F5750409AF0F1F088234AF0EE0FFF1F7B
:10445000BB1F661F771F881F91505040A9F79E3FD2
:10446000510580F00C9486210C94D1215F3FE4F338
:10447000983ED4F3869577956795B795F795E79528
:104480009F5FC1F7FE2B880F911D9695879597F931
:1044900008950F931F93CF93DF938230910510F40B
:1044A00082E090E0E0915705F091580520E030E07F
:1044B000A0E0B0E0309719F1408151810281138171
:1044C00048175907C8F08417950769F4109731F019
:1044D00012960C93129713961C9327C000935705BE
:1044E0001093580522C02115310519F042175307C2
:1044F00018F49A01BD01EF01DF01F801DBCF2115AE
:104500003105F9F0281B390B2430310580F48A81FC
:104510009B816115710521F0FB019383828304C0A7
:104520009093580580935705FE01329644C0FE01D2
:10453000E20FF31F8193919322503109398328832D
:104540003AC02091550530915605232B41F4209116
:104550000C0130910D0130935605209355052091A3
:104560000A0130910B012115310541F42DB73EB7F9
:1045700040910E0150910F01241B350BE091550520
:10458000F0915605E217F307A0F42E1B3F0B2817F6
:10459000390778F0AC014E5F5F4F2417350748F0BC
:1045A0004E0F5F1F5093560540935505819391938D
:1045B00002C0E0E0F0E0CF01DF91CF911F910F91B9
:1045C0000895CF93DF93009709F481C0FC013297DF
:1045D00013821282A0915705B0915805109781F46B
:1045E00020813181820F931F20915505309156050E
:1045F0002817390751F5F0935605E093550567C024
:10460000ED0120E030E0CE17DF0740F44A815B8106
:104610009E0141155105F1F0EA01F5CFD383C28324
:1046200040815181840F951FC817D90759F488819B
:104630009981840F951F0296918380838A819B8143
:10464000938382832115310529F4F0935805E09373
:1046500057053DC0E901FB83EA8349915991C40F95
:10466000D51FEC17FD0761F480819181840F951FA0
:104670000296E90199838883828193819B838A834F
:10468000E0E0F0E012968D919C911397009719F05D
:10469000FD01DC01F7CF8D919C9111979D012E5F5B
:1046A0003F4F820F931F20915505309156052817D3
:1046B000390769F4309729F410925805109257057C
:1046C00002C013821282B0935605A0935505DF9164
:1046D000CF91089581E090E0F8940C946F2310E05E
:1046E000C2E7D0E004C0FE010E9405202196C33736
:0846F000D107C9F7F894FFCFD0
:1046F8000000004001004000C800000059052000EB
:1047080001004000C8000000004003002000C8006D
:10471800000000400700200064000000803F0D00FA
:104728000800C800000000400E00080096000000C5
:10473800C03F0F00080078009A99993F320008009E
:1047480064000000803F5E00BC00770100000000AC
:1047580025068A06930740072007A507B9073230C0
:1047680032302E30362E32302D33004D6F746F724A
:1047780020436F6E74726F6C6C6572204669726D3F
:104788007761726500436F70797269676874202871
:1047980063292032303230204170706C69656420A2
:1047A800456E67696E656572696E6700426F6F7402
:1047B80065642076657273696F6E20000D0A0000CB
:00000001FF
