:100000000C94B2000C94DA000C94DA000C94DA0030
:100010000C94DA000C94DA000C94DA000C94DA00F8
:100020000C94DA000C94DA000C94DA000C94DA00E8
:100030000C94DA000C94DA000C94DA000C94DA00D8
:100040000C947E100C94DA000C94D0020C94940260
:100050000C94DA000C94DA000C94DA000C94DA00B8
:100060000C94DA000C94DA0090049004A704A7041E
:100070009205110447051104E0051104A7051104B8
:1000800011041104110411041104110411041104C8
:1000900011041104110411041104110411041104B8
:1000A0001104110434061104110411041104110483
:1000B0001104110411041104110411041104110498
:1000C0001104110411041104110411041104110488
:1000D0001104110411041104110411041104110478
:1000E000110411043D0400000000240027002A0030
:1000F00000000000250028002B000000000800027E
:100100000100000304070000000000000000005E82
:10011000BCE2613FDD83C29C7E20A3FD1F41009DA8
:1001200023BE46DB65F88C11AF32CA57E974000074
:10013000000023002600290004040404040404042D
:100140000202020202020303030303030102040882
:100150001020408001020408102001020408102031
:10016000F026E72611241FBECFEFD8E0DEBFCDBFBB
:1001700012E0A0E0B1E0E6EAF8E502C005900D92D9
:10018000A430B107D9F723E0A4E0B2E001C01D928A
:10019000A03EB207E1F710E0C1EBD0E004C0219728
:1001A000FE010E949D28C03BD107C9F70E943D1265
:1001B0000C94462C0C940000FC0181E0808F938D00
:1001C000848D981709F448C0238D30E02F5F3F4F8E
:1001D0002F733327922F03C00FB607FE17C0848DED
:1001E0009817D1F3838DDF01A80FB11DA35ABF4F1C
:1001F0006C939FB7F894238F0288F389E02D808158
:10020000806280839FBF81E090E00895A089B189DA
:100210008C9185FFE4CF848DDF01A80FB11DA35A17
:10022000BF4F8C91448D50E04F5F5F4F4F73552708
:10023000448FA689B7898C93A089B1898C918370EA
:1002400080648C93438D848D4813C9CFA289B38970
:100250008C918F7D8C93C3CFA089B1898C9185FFC0
:10026000B3CF9FB7F894A689B7896C930088F189BA
:10027000E02D80818370806480839FBF81E090E067
:100280000895BF92CF92DF92EF92FF920F931F9348
:10029000CF93DF934115510509F486C06A01EC0143
:1002A0007B0100E010E0BB24B394E881F981019068
:1002B000F081E02DD7016D917D01B0E0EC3DFB07B1
:1002C00009F06CC0B88E9B8D8C8D981709F454C0C2
:1002D0002B8D30E02F5F3F4F2F733327922F03C0BA
:1002E0000FB607FE23C08C8D9817D1F38B8DFE01BE
:1002F000E80FF11DE35AFF4F60839FB7F8942B8FEF
:10030000EA89FB898081806280839FBF0F5F1F4FD6
:10031000C016D10651F6C801DF91CF911F910F9100
:10032000FF90EF90DF90CF90BF900895E889F98912
:10033000808185FFD8CF8C8DFE01E80FF11DE35A37
:10034000FF4F80814C8D50E04F5F5F4F4F735527BB
:100350004C8FEE89FF898083E889F98980818370D9
:10036000806480834B8D8C8D4813BDCFEA89FB89D7
:1003700080818F7D8083B7CFE889F989808185FF6F
:10038000A7CF9FB7F894EE89FF896083E889F98940
:1003900080818370806480839FBFB8CFCE01099530
:1003A000892B09F0B3CFB7CF00E010E0B4CFFC0148
:1003B000918D228D892F90E0805C9F4F821B910947
:1003C0008F7399270895209162028091630230E033
:1003D000205C3F4F281B31092F73332781E0232BEB
:1003E00009F480E00895089580E090E00895CF93A7
:1003F000DF93DC0158968C915897882309F447C005
:100400005296ED91FC9153975096CD91DC91519776
:10041000908195FF39C00FB607FCFACF908195FF08
:10042000F7CF888185FFF4CF5C968C915C97FD01B6
:10043000E80FF11DE35AFF4F20815C968C915C9789
:1004400090E001968F7399275C968C935C975696F3
:10045000ED91FC91579720835096ED91FC91519727
:1004600080818370806480835B969C915B975C96AF
:100470008C915C979813C4CF5296ED91FC91539751
:1004800080818F7D8083BCCF888186FFC4CFDF9140
:10049000CF910895FC01238D348D231730F4832FE1
:1004A00090E0821B9109019708958FE390E0821BF1
:1004B0009109830F911D0895FC01918D828D9817EC
:1004C00061F0828DDF01A80FB11D5D968C91928D38
:1004D0009F5F9F73928F90E008958FEF9FEF089535
:1004E000FC01918D828D981731F0828DE80FF11DFE
:1004F000858D90E008958FEF9FEF089580E090E064
:10050000892B79F0809162022091630290E0805CF7
:100510009F4F821B91098F739927892B11F00C949F
:10052000000008950E94382C1F920F920FB60F9270
:1005300011242F938F939F93EF93FF93E091650284
:10054000F0E0EA55FD4F20818091650290E0019630
:100550008F73992780936502E0915F02F0916002AA
:100560002083E0915902F0915A0280818370806467
:1005700080839091640280916502981307C0E09196
:100580005B02F0915C0280818F7D8083FF91EF910F
:100590009F918F912F910F900FBE0F901F901895E4
:1005A0001F920F920FB60F9211242F938F939F9348
:1005B000EF93FF93E0915902F0915A028081E0910C
:1005C0005F02F091600282FF0BC08081FF91EF918A
:1005D0009F918F912F910F900FBE0F901F901895A4
:1005E0002081809162028F5F8F73909163028917DF
:1005F00069F3E0916202F0E0E75BFD4F258F8093A5
:100600006202E4CF9F92AF92BF92CF92DF92EF92BD
:10061000FF920F931F93CF93DF93EC018B0165E55E
:100620000E94C5117801680188E0C80ED11C4FEF07
:1006300050E02FE030E003E210E067ED70E0F701FA
:1006400091907F0188E090E0AA24A39419C0B8801B
:10065000E981FA81F894A281BB2DB095AB23A283E6
:10066000A181AB29A183D8011197F1F7A281BA2A00
:10067000B2827894FB013197F1F7AA0C0197E1F06F
:10068000E92DEA2121F7B880E981FA81F894A28165
:10069000BB2DB095AB23A283A181AB29A183DA0145
:1006A0001197F1F7A281BA2AB2827894F9013197B1
:1006B000F1F7AA0C019721F7F894E981FA81918169
:1006C0008881809589238183E981FA81928188815B
:1006D0008095892382837894CE14DF0409F0AFCF0C
:1006E000DF91CF911F910F91FF90EF90DF90CF900E
:1006F000BF90AF909F900895FC0190810180F2819E
:10070000E02DF8948181892B81832281892F809526
:1007100028232283A7E0B0E01197F1F721818223FB
:100720008183A3E2B0E01197F1F780817894EFEC38
:10073000F0E03197F1F7982381E009F480E0089523
:10074000FC012081A181B281F89411968C911197BE
:10075000322F3095832311968C93119778948CE7E0
:1007600043E050E002C0815079F1FA013197F1F78E
:100770009C919223C1F3F89412968C911297832343
:1007800012968C93129711968C911197822B119639
:100790008C93119778948BE797E00197F1F7F89491
:1007A00011968C911197382311963C93119783E100
:1007B00091E00197F1F78C91282381E031F478944E
:1007C000E3E6F6E03197F1F7089580E07894E3E608
:1007D000F6E03197F1F7F8CF5F926F927F928F92A8
:1007E0009F92AF92BF92CF92DF92EF92FF920F93C0
:1007F0001F93CF93DF93CDB7DEB76E970FB6F89404
:10080000DEBF0FBECDBF8C015B01DC0114968C9165
:10081000E82FEF778E2F90E0FC013297EF33F10550
:1008200040F1D5018D919C91DC01ED91FC910190FD
:10083000F081E02D60EC0995F50122813381820F72
:10084000931F938382836E960FB6F894DEBF0FBE1C
:10085000CDBFDF91CF911F910F91FF90EF90DF906F
:10086000CF90BF90AF909F908F907F906F905F9050
:100870000895EC5CFF4F0C949D28F801A081B18194
:10088000109709F472C5FD01E12CF12C2FEFE21A4B
:10089000F20A8581811159C3E0E1EE16F10408F0F6
:1008A00061C360E070E06F5F7F4F15968C91159784
:1008B000882339F0F8E08F02A00DB11D11241097A4
:1008C00091F76057D5018D919C91DC01ED91FC91E0
:1008D0000190F081E02D0995F50122813381820F8D
:1008E000931F93838283D8010D911C9101151105EB
:1008F00009F4A9CFB501C8010E94EC03F801858174
:10090000882341F0B8E08B02000D111D1124011560
:10091000110581F7D50112968D919C91139793CF74
:10092000DB018D919C91F80142815381608171813D
:10093000DC01ED91FC910280F381E02D0995F50138
:1009400022813381820F931F938382837CCFD801CE
:100950008D909C90F40101900020E9F731976F0190
:10096000C818D908B0E2CB16D10408F464C4DB017E
:100970008D919C91DC01FFEFCF16D10409F008F4B2
:10098000ECC3ED91FC910190F081E02D6AED0995A9
:10099000F50122813381820F931F93838283DA8A48
:1009A000C98A8A89898BCA8A80819181DC01ED910B
:1009B000FC910280F381E02DB1E0E134FB0709F006
:1009C000D6C4BE016F5E7F4F0E94CB0DF501228120
:1009D0003381280F391F33832283D5010D911C9158
:1009E000F801A081B1811296ED91FC91139781E0FD
:1009F000E134F80709F015C4C114D10409F4F8C4AE
:100A0000E12CF12C77247394ED91FC91D4016D913C
:100A10004D01B0E0EC3DFB0709F05EC3F801708EBC
:100A2000938D848D981709F43FC3F801238D30E02E
:100A30002F5F3F4F2F733327922F03C00FB607FE50
:100A4000C2C2D8015C968C915C979817B9F3F801F3
:100A5000838DE80FF11DE35AFF4F60839FB7F89431
:100A6000D8015B962C935B975296ED91FC9153972E
:100A70008081806280839FBFFFEFEF1AFF0ACE1450
:100A8000DF0409F45CC3F801A081B181BDCFD801B6
:100A9000CD90DD90ED90FC90B0E8CB16D104E10450
:100AA000F10408F4DCC3DB018D919C91DC01FFEFC4
:100AB000CF16D104E104F10409F008F4E5C3C11430
:100AC000D104F1E0EF06F10408F47EC3ED91FC914E
:100AD0000190F081E02D6EEC0995F50122813381C2
:100AE000820F931F93838283C982DA82EB82FC8216
:100AF0008C818983CC828A819B819A838B8380813C
:100B00009181DC01ED91FC910280F381E02DB1E057
:100B1000E134FB0709F01AC3BE016F5F7F4F0E94EB
:100B2000550E8ACEF80180819181A281B381892BF3
:100B30008A2B8B2B09F001C362ECD5018D919C911E
:100B4000DC01ED91FC910190F081E02D74CEF80173
:100B5000F080D180E2801381DB018D919C91DC01DA
:100B6000ED91FC910190F081E02D6AEC0995F50181
:100B700022813381820F931F938382838F2D9D2D3A
:100B8000AE2DB12F89879A87AB87BC878C858987E3
:100B9000FC868A859B859A878B8780819181DC0181
:100BA000ED91FC910280F381E02DB1E0E134FB078F
:100BB00009F030C3BE01675F7F4F0E94550E3CCEE7
:100BC000F80180819181A281B381CC24DD2476015A
:100BD000C81AD90AEA0AFB0A81329105A105B105B2
:100BE00008F4DDC281389105A105B10508F498C368
:100BF0008130F0E89F07A105B10508F467C30197AC
:100C0000A105B04808F086CEFB0180819181DC010E
:100C1000ED91FC910190F081E02D62ED0995F501D7
:100C200022813381820F931F93838283CD82DE8260
:100C3000EF82F88688858D83C8868E819F819E830A
:100C40008F8380819181DC01ED91FC910280F381A1
:100C5000E02DB1E0E134FB0709F0BCC3BE016B5FDE
:100C60007F4F0E94550EE8CDD801ED91FC91309751
:100C700009F48BC3E12CF12CBFEFEB1AFB0A858141
:100C8000811150C180E1E816F10408F442C2D50197
:100C90008D919C91DC01ED91FC910190F081E02D12
:100CA0006EED0995F50122813381820F931F9383A5
:100CB0008283FE8AED8A8E898D8BEE8A8081918176
:100CC000DC01ED91FC910280F381E02DB1E0E13493
:100CD000FB0709F053C3BE016B5E7F4F0E94CB0D33
:100CE000F50122813381820F931F93838283D80180
:100CF0006D907C906114710409F4A5CD5524539432
:100D0000F301C680D780F60101900020E9F7319702
:100D10004F018C189D08D5018D919C91DC01F0E26A
:100D20008F16910408F4A5C1FFEF8F16910409F006
:100D300008F47DC1ED91FC910190F081E02D6AED08
:100D40000995F50122813381820F931F938382835A
:100D50009C8A8B8A8C898B8B8C8A80819181DC0127
:100D6000ED91FC910280F381E02DB1E0E134FB07CD
:100D700009F0C1C1BE016D5E7F4F0E94CB0DF50130
:100D800022813381820F931F93838283D5010D913A
:100D90001C91F801A081B1811296ED91FC911397FD
:100DA00021E0E134F20709F074C1E12CF12C811447
:100DB000910409F4A5C0ED91FC91D6016D916D01EE
:100DC000B0E0EC3DFB0709F093C0F801508E938D25
:100DD000848D981709F467C0D8015B962C9130E098
:100DE0002F5F3F4F2F733327922F03C00FB607FE9D
:100DF00026C0D8015C968C915C979817B9F3F801DE
:100E0000838DE80FF11DE35AFF4F60839FB7F8947D
:100E1000D8015B962C935B975296ED91FC9153977A
:100E20008081806280839FBFBFEFEB1AFB0A8E1424
:100E30009F0409F456C0F801A081B181BCCF50963F
:100E4000ED91FC915197808185FFD3CF5C968C9179
:100E50005C97F801E80FF11DE35AFF4F8081F8011C
:100E6000448D50E04F5F5F4F4F735527448F068886
:100E7000F789E02D80835096ED91FC915197808108
:100E80008370806480835B964C915B975C968C91B9
:100E90005C974813AECF5296ED91FC9153978081A9
:100EA0008F7D8083A6CF0088F189E02D808185FF2A
:100EB00093CF9FB7F894D8015696ED91FC91579730
:100EC00060835096ED91FC9151978081837080648E
:100ED00080839FBFBFEFEB1AFB0A8E149F0409F0BB
:100EE000AACFD50112968D919C911397740108C0D9
:100EF000C8010995892B09F097CFF501828193816B
:100F0000E80EF91EF501F382E282B501C3010E94E9
:100F1000EC03D30115968C9181110DC0F5018281EE
:100F2000938191CC28E08202E00DF11D11243097CD
:100F300009F0A2CEA7CEF8E08F02600C711C11243C
:100F40006114710409F0DCCEE9CF98E08902E00D6C
:100F5000F11D1124309709F099CC20E1E216F1043B
:100F600008F49FCCD5018D919C91DC01ED91FC9111
:100F70000190F081E02D6CED0995F501228133811E
:100F8000820F931F93838283F88EEF8A888D8F8BD5
:100F9000E88E80819181DC01ED91FC910280F381EA
:100FA000E02DB1E0E134FB0709F01BC2BE01695E30
:100FB0007F4F0E94CB0DF50122813381820F931F59
:100FC0009383828390CC5096ED91FC9151978081D0
:100FD00085FF37CD5C968C915C97F801E80FF11D89
:100FE000E35AFF4F8081F801448D50E04F5F5F4F1F
:100FF0004F735527448F0688F789E02D80835096DC
:10100000ED91FC91519780818370806480835B9621
:101010004C915B975C968C915C97481312CD5296DD
:10102000ED91FC91539780818F7D80830ACDED9166
:10103000FC910190F081E02D69ED0995F501228187
:101040003381820F931F938382838E8E808191815F
:10105000DC01ED91FC910280F381E02DB1E0E134FF
:10106000FB0709F04FC0BE01625E7F4F0E94DF0E9A
:1010700086CEED91FC910190F081E02D60EA680D43
:101080000995F501E280F3808E0D9F1D9383828385
:101090007DCEA401B601C80109957C01D501129647
:1010A0008D919C9113972CCF0088F189E02D808140
:1010B00085FFBBCC9FB7F894D8015696ED91FC9173
:1010C000579760835096ED91FC9151978081837082
:1010D000806480839FBFD0CCC8010995892B09F01B
:1010E000CBCCF50122813381C701820F931FF5011B
:1010F00093838283A8CB42E050E0BE016D5E7F4FB8
:1011000009953DCE41E050E0BE01625E7F4F0995FA
:1011100036CE60E86E0DD5018D919C91DC01ED918C
:10112000FC910190F081E02D0995F5012281338138
:10113000820F931F93838283DACD63ECFECCD501BB
:1011400012962D913C911397C601CFCF44E050E009
:10115000BE016F5F7F4F09956FCBED91FC910190C0
:10116000F081E02D69ED0995F50122813381820F2F
:10117000931F93838283CD8E80819181DC01ED91D9
:10118000FC910280F381E02DB1E0E134FB0709F02E
:1011900005C1BE01635E7F4F0E94DF0E17CCCB8E70
:1011A000DB018D919C91DC01ED91FC910280F3813A
:1011B000E02DB1E0E134FB0709F01DC1BE01655E21
:1011C0007F4F0E94DF0E38CBED91FC910190F081B2
:1011D000E02D6DEC0995F50122813381820F931F7B
:1011E00093838283DE86CD868E858D87CE868081B1
:1011F0009181DC01ED91FC910280F381E02DB1E061
:10120000E134FB0709F0C3C0BE01635F7F4F0E945A
:10121000CB0D12CB44E050E0BE01675F7F4F0995D4
:101220000BCBA601B401C8010995D50112962D91E9
:101230003C9113975ACFFB0180819181DC01ED91A4
:10124000FC910190F081E02D60EA6C0D0995F501AB
:1012500022813381280F391F33832283BECBC98E6D
:10126000FB0180819181DC01ED91FC910280F38191
:10127000E02DB1E0E134FB0709F0C4C0BE01675EB8
:101280007F4F0E94DF0ED8CAED91FC910190F08152
:10129000E02D6CEC0995F50122813381820F931FBB
:1012A00093838283CA8E80819181DC01ED91FC91D0
:1012B0000280F381E02DB1E0E134FB0709F07CC04E
:1012C000BE01665E7F4F0E94DF0EB6CADB018D91C4
:1012D0009C91DC01ED91FC910190F081E02D61ED9C
:1012E0000995F50122813381820F931F93838283B5
:1012F000D88ACF8688898F87C88A80819181DC01CE
:10130000ED91FC910280F381E02DB1E0E134FB0727
:1013100009F04BC0BE01615F7F4F0E94CB0D8CCAAC
:10132000DB018D919C91DC01ED91FC910190F081AC
:10133000E02D60ED0995F50122813381820F931F25
:1013400093838283CC8E80819181DC01ED91FC912D
:101350000280F381E02DB1E0E134FB07A1F5BE018D
:10136000645E7F4F0E94DF0E67CA60E9ABCA42E04D
:1013700050E0BE016F5E7F4F099528CB42E050E000
:10138000BE016B5E7F4F0995ABCC60E8C4CE42E0F6
:1013900050E0BE01635F7F4F09954ECA41E050E0C7
:1013A000BE01635E7F4F099511CB42E050E0BE0164
:1013B000615F7F4F099540CA41E050E0BE01665E23
:1013C0007F4F099539CA41E050E0BE01645E7F4F0E
:1013D000099532CA44E050E0BE016B5F7F4F09952A
:1013E0002BCA42E050E0BE01695E7F4F0995E3CD14
:1013F00080E090E07ACE41E050E0BE01655E7F4F34
:1014000009951ACA41E050E0BE01675E7F4F099519
:1014100013CA2F923F924F925F926F927F928F9258
:101420009F92AF92BF92CF92DF92EF92FF920F9373
:101430001F93CF93DF93EC018B018D858823B9F047
:101440001B861D861C8680E0DF91CF911F910F9136
:10145000FF90EF90DF90CF90BF90AF909F908F90D4
:101460007F906F905F904F903F902F9008953881BC
:10147000E981FA81F8948181632F609586238183C5
:1014800078942CE743E050E002C02150C9F2CA0131
:101490000197F1F780818323C1F3F8948281862339
:1014A00082838181832B818378948BE797E00197F6
:1014B000F1F7F89481816823618383E191E00197DA
:1014C000F1F780817894E3E6F6E03197F1F738237D
:1014D00009F0B6CF60EFCE010E94C51181E0F12C7A
:1014E000812CEE24E39467E070E023E230E04FECDF
:1014F00050E097ED692E712C22242A94312CFFE0C4
:10150000AF2EB12C2AC0442009F47EC0FE01EF0D9D
:10151000F11D9381D82ED0949D2193839881E981E8
:10152000FA81F894D280C92EC094DC20D282D18076
:10153000D92AD182D1011197F1F7D2809D299283C6
:101540007894F5013197F1F7E394880F11F4F3944F
:1015500081E0B7E0BF1508F472C09881E981FA8193
:10156000F894D180D92AD182D280992E9094D92012
:10157000D282DB011197F1F7D1809D209182D901B0
:101580001197F1F790807894FA013197F1F748803C
:10159000E981FA81F894D180D428D182D280542C68
:1015A0005094D520D282DB011197F1F7D1805D20D4
:1015B0005182D9011197F1F7E0814E227894FA0116
:1015C0003197F1F7992109F49ECF411038C0FE01FF
:1015D000EF0DF11D9381982B93839880E981FA8117
:1015E000F8949281D92CD0949D219283918199294C
:1015F0009183D9011197F1F7928199299283789477
:10160000F3013197F1F7A0CF9B85E91668F4FE014D
:10161000EF0DF11D9381D92ED822E9F6A8E0AE1581
:1016200008F0EC868E2C76CFDD24D3949E11D12C3D
:10163000FE01EF0DF11D9381D110CDCFEFCFE0E48E
:10164000EE1508F0FDCE8B86882019F18B8188235A
:1016500009F4F6CED8018C938C8111968C93119756
:101660008D8112968C9312978E8113968C9313977B
:101670008F8114968C931497888515968C93159763
:10168000898516968C9316978A8517968C9381E098
:10169000DBCE81E08D87DACF8F929F92AF92BF929F
:1016A000CF92DF92EF92FF920F931F93CF93DF932E
:1016B0008C01EB01E091B203F091B3033081A18181
:1016C000B281F89411969C911197732F709597237E
:1016D00011969C93119778942CE743E050E002C058
:1016E000215071F1FA013197F1F79C919323C1F3E5
:1016F000F89412968C911297872312968C931297D6
:1017000011968C911197832B11968C931197789445
:101710008BE797E00197F1F7F89411968C91119768
:10172000782311967C93119783E191E00197F1F76B
:101730008C917894E3E6F6E03197F1F7382371F075
:1017400080E0DF91CF911F910F91FF90EF90DF909C
:10175000CF90BF90AF909F908F9008954E01B801A9
:101760008091B2039091B3030E9402036EEB8091CB
:10177000B2039091B3030E94C5118E017E0189E0EE
:10178000E80EF11CA7E0B0E043E250E02FEC30E0BF
:10179000E091B203F091B3037081C181D281F894DA
:1017A0006981672B6983DA80672F6095D622DA8298
:1017B000CD010197F1F7D9806D216983CA010197A5
:1017C000F1F788817894E9012197F1F7972F982311
:1017D000AA24A394911101C0A12CB080C181D2810F
:1017E000F89499819B299983DA806B2D6095D62294
:1017F000DA82CD010197F1F7D980962F9D21998347
:10180000CA010197F1F798817894E9012197F1F7DE
:101810009B2119F09A2D9260A92EB080C181D281AE
:10182000F89499819B299983DA806B2D6095D62253
:10183000DA82CD010197F1F7D980962F9D21998306
:10184000CA010197F1F798817894E9012197F1F79E
:101850009B2119F09A2D9460A92EB080C181D2816C
:10186000F89499819B299983DA806B2D6095D62213
:10187000DA82CD010197F1F7D980962F9D219983C6
:10188000CA010197F1F798817894E9012197F1F75E
:101890009B2119F09A2D9860A92EB080C181D28128
:1018A000F89499819B299983DA806B2D6095D622D3
:1018B000DA82CD010197F1F7D980962F9D21998386
:1018C000CA010197F1F798817894E9012197F1F71E
:1018D0009B2119F09A2D9061A92EB080C181D281EF
:1018E000F89499819B299983DA806B2D6095D62293
:1018F000DA82CD010197F1F7D980962F9D21998346
:10190000CA010197F1F798817894E9012197F1F7DD
:101910009B2119F09A2D9062A92EB080C181D281AD
:10192000F89499819B299983DA806B2D6095D62252
:10193000DA82CD010197F1F7D980962F9D21998305
:10194000CA010197F1F798817894E9012197F1F79D
:101950009B2119F0DA2DD064AD2E60810180F281D7
:10196000E02DF8949181962B91837281962F90951A
:1019700079237283ED012197F1F771819723918388
:10198000CA010197F1F790817894F9013197F1F745
:10199000962319F09A2D9068A92EE801A9928E013C
:1019A000CE15DF0509F0F4CEE091B203F091B30358
:1019B00030810180F281E02DF8948181632F609560
:1019C0008623818378942CE743E050E003C02150C4
:1019D00009F4B6CECA010197F1F780818323B9F3E8
:1019E000F8948281862382838181832B81837894FA
:1019F0008BE797E00197F1F7F89481816823618381
:101A000083E191E00197F1F780817894E3E6F6E0D5
:101A10003197F1F7382309F093CEF401A081A11199
:101A20009BC0E40171817111A0C0F4014A81411190
:101A300095C0E401638161119AC0F4012C812111E8
:101A40009CC0E401558151119DC0F4019E8191110A
:101A50009DC0E401878181119CC03885332309F43E
:101A60006FCEEA2FEF70F0E0E25FFE4FB491A295E7
:101A7000AF70EA2FF0E0E25EFE4FE491EB277E27A5
:101A8000E72FEF70F0E0E25FFE4FA49172957F7058
:101A9000E72FF0E0E25EFE4FE491EA274E27E42FC5
:101AA000EF70F0E0E25FFE4F749142954F70E42FCB
:101AB000F0E0E25EFE4FE491E7276E27E62FEF703D
:101AC000F0E0E25FFE4F449162956F70E62FF0E028
:101AD000E25EFE4FE491E4272E27E22FEF70F0E064
:101AE000E25FFE4F449122952F70E22FF0E0E25E1C
:101AF000FE4FE491E4275E27E52FEF70F0E0E25F10
:101B0000FE4F249152955F70E52FF0E0E25EFE4FAC
:101B1000E491E2279E27E92FEF70F0E0E25FFE4FAD
:101B2000249192959F70E92FF0E0E25EFE4FE491E0
:101B3000E2278E27E82FEF70F0E0E25FFE4F9491EE
:101B400082958F70E82FF0E0E25EFE4FE491E92786
:101B500081E03E13F5CDF5CD718142816381248111
:101B600055819681878130857CCF428163812C812C
:101B70005D819E818F81388574CF5D819E818F814B
:101B800038856FCF9681878130856BCF8F8138857F
:101B900068CF308566CFDF92EF92FF920F931F934D
:101BA000CF93DF93EC017B0100E010E0DD24D394C0
:101BB000E881F9810190F081E02DD7016D917D01DF
:101BC000B0E0EC3DFB0709F06AC0D88E9B8D8C8D90
:101BD000981709F452C02B8D30E02F5F3F4F2F73C1
:101BE0003327922F03C00FB607FE21C08C8D9817A4
:101BF000D1F38B8DFE01E80FF11DE35AFF4F608397
:101C00009FB7F8942B8FEA89FB898081806280835B
:101C10009FBF0F5F1F4F0230110551F6C801DF91C2
:101C2000CF911F910F91FF90EF90DF900895E88979
:101C3000F989808185FFDACF8C8DFE01E80FF11DD7
:101C4000E35AFF4F80814C8D50E04F5F5F4F4F73E1
:101C500055274C8FEE89FF898083E889F989808137
:101C60008370806480834B8D8C8D4813BFCFEA894D
:101C7000FB8980818F7D8083B9CFE889F989808154
:101C800085FFA9CF9FB7F894EE89FF896083E88923
:101C9000F98980818370806480839FBFBACFCE0131
:101CA0000995892B09F0B5CFB9CFDF92EF92FF925A
:101CB0000F931F93CF93DF93EC017B0100E010E0C3
:101CC000DD24D394E881F9810190F081E02DD701E2
:101CD0006D917D01B0E0EC3DFB0709F06AC0D88E44
:101CE0009B8D8C8D981709F452C02B8D30E02F5F9F
:101CF0003F4F2F733327922F03C00FB607FE21C02B
:101D00008C8D9817D1F38B8DFE01E80FF11DE35AEE
:101D1000FF4F60839FB7F8942B8FEA89FB898081FE
:101D2000806280839FBF0F5F1F4F0430110551F603
:101D3000C801DF91CF911F910F91FF90EF90DF903D
:101D40000895E889F989808185FFDACF8C8DFE01BD
:101D5000E80FF11DE35AFF4F80814C8D50E04F5F3B
:101D60005F4F4F7355274C8FEE89FF898083E88939
:101D7000F98980818370806480834B8D8C8D4813BA
:101D8000BFCFEA89FB8980818F7D8083B9CFE889C5
:101D9000F989808185FFA9CF9FB7F894EE89FF89E3
:101DA0006083E889F98980818370806480839FBF24
:101DB000BACFCE010995892B09F0B5CFB9CFCF9312
:101DC000DF93DC01ED91FC9111970190F081E02D02
:101DD000EB016881D0E0EC3DFD0709F08AC081E0AD
:101DE00058968C9358975B969C915B975C968C91D8
:101DF0005C97981709F465C05B962C915B9730E06F
:101E00002F5F3F4F2F733327922F03C00FB607FE6C
:101E100020C05C968C915C979817C1F35B968C916F
:101E20005B97FD01E80FF11DE35AFF4F60839FB7F9
:101E3000F8945B962C935B975296ED91FC91539797
:101E40008081806280839FBF81E090E0DF91CF91AD
:101E500008955096ED91FC915197808185FFD9CFDF
:101E60005C968C915C97FD01E80FF11DE35AFF4FE2
:101E700080815C964C915C9750E04F5F5F4F4F7351
:101E800055275C964C935C975696ED91FC9157972D
:101E900080835096ED91FC9151978081837080648E
:101EA00080835B964C915B975C968C915C97481312
:101EB000B0CF5296ED91FC91539780818F7D8083B6
:101EC000A8CF5096ED91FC915197808185FF94CFDA
:101ED0009FB7F8945696ED91FC9157976083509672
:101EE000ED91FC91519780818370806480839FBFC6
:101EF000ABCF0995892B09F0A7CF80E090E0A6CF62
:101F000090E0FC01E650FF4F2491FC01E45BFE4FA2
:101F10003491FC01E85CFE4F84918823A1F02111EB
:101F200018C0E82FF0E0EE0FFF1FE051FF4FA59122
:101F3000B4918FB7F894611107C09C91E32FE0959D
:101F4000E923EC938FBF0895EC91E32BEC938FBFC3
:101F5000FACF233029F160F02730E1F02830A1F0EA
:101F60002430F9F6909180009F7D90938000D9CF26
:101F7000213031F02230A9F694B59F7D94BDD1CFA8
:101F800094B59F7794BDCDCF9091B0009F7D9093F5
:101F9000B000C7CF9091B0009F779093B000C1CFB1
:101FA000909180009F7790938000BBCFCF93DF9379
:101FB00090E0FC01E45BFE4F2491FC01E85CFE4FE5
:101FC00084918823B9F090E0880F991FFC01EA51B1
:101FD000FF4FA591B491FC01E051FF4FC591D49101
:101FE000662359F06230A9F08FB7F894EC91E22B98
:101FF000EC938FBFDF91CF9108959FB7F8948C91A8
:10200000E22FE0958E238C932881E223E8839FBF03
:10201000F1CF9FB7F8948C91322F309583238C9316
:10202000E881E22BE8839FBFE5CF0F931F938B01DD
:102030009C019FB7F89440914102509142026091F7
:1020400043027091440286B5A89B06C08F3F21F0E1
:102050004F5F5F4F6F4F7F4F9FBF762F652F542F7E
:102060004427480F511D611D711D440F551F661FE8
:10207000771F440F551F661F771F01151105210596
:102080003105C9F1FFB7F894809141029091420265
:10209000A0914302B0914402E6B5A89B05C0EF3F72
:1020A00019F00196A11DB11DFFBFBA2FA92F982FBE
:1020B00088278E0F911DA11DB11D880F991FAA1F82
:1020C000BB1F880F991FAA1FBB1F841B950BA60B54
:1020D000B70B883E9340A105B105A0F2015011094C
:1020E0002109310948515C4F6F4F7F4F0115110590
:1020F0002105310539F61F910F9108951F920F9216
:102100000FB60F9211242F933F938F939F93AF930A
:10211000BF938091450290914602A0914702B091F1
:1021200048023091400223E0230F2D3768F126E862
:10213000230F0296A11DB11D2093400280934502FA
:1021400090934602A0934702B093480280914102C7
:1021500090914202A0914302B09144020196A11DC8
:10216000B11D8093410290934202A0934302B09329
:102170004402BF91AF919F918F913F912F910F900A
:102180000FBE0F901F9018950196A11DB11DD4CFC1
:10219000CF92DF92EF92FF920F931F93CF93DF9333
:1021A000E091AC038091AE03882329F08091A903CC
:1021B000882309F4A1C0E950E33008F07FC0F0E0C3
:1021C000EE0FFF1FE35AFE4FC080D1800D2C000C94
:1021D000EE08FF088091AA0381117BC09FB7F89495
:1021E0004091410250914202609143027091440239
:1021F00086B5A89B06C08F3F21F04F5F5F4F6F4FA2
:102200007F4F9FBF762F652F542F4427480F511DB6
:10221000611D711D440F551F661F771F440F551F09
:10222000661F771FC114D104E104F104D1F13FB757
:10223000F8948091410290914202A0914302B091A2
:10224000440226B5A89B05C02F3F19F00196A11D99
:10225000B11D3FBFBA2FA92F982F8827820F911D3C
:10226000A11DB11D880F991FAA1FBB1F880F991FA1
:10227000AA1FBB1F841B950BA60BB70B883E934070
:10228000A105B105A0F221E0C21AD108E108F108C8
:1022900048515C4F6F4F7F4FC114D104E104F104EA
:1022A00031F68091AA0381111AC0DF91CF911F915D
:1022B0000F91FF90EF90DF90CF900895BEEECB2E60
:1022C000B2E0DB2EE12CF12C8091AA03882309F4E3
:1022D00085CF60E08091AB030E94800F7FCF61E0EB
:1022E0008091AB03DF91CF911F910F91FF90EF9001
:1022F000DF90CF900C94800F8FB7F894C090450278
:10230000D0904602E0904702F09048028FBFA7E0CD
:10231000B0E063E270E04FEC50E0E091B203F09186
:10232000B30390810180F281E02DF8948181892BA3
:1023300081832281892F809528232283ED01219793
:10234000F1F7218182238183EB012197F1F78081CD
:102350007894FA013197F1F7892309F0A6CF8FB766
:10236000F894009145021091460220914702309165
:1023700048028FBF0C191D092E093F090E3E12405D
:102380002105310508F4C9CF90CF8F929F92AF926B
:10239000BF92CF92DF92EF92FF920F931F93CF9352
:1023A000DF93DC0148E050E021E00FEF10E08FE028
:1023B000882E912C93E2C92ED12C37EDE32EF12CEF
:1023C0001CC08C911196ED91FC911297F89492811A
:1023D000382F3095932392839181982B9183E60136
:1023E0002197F1F79281892B82837894C701019715
:1023F000F1F7220F41505109F9F0862F822309F796
:102400009C911196ED91FC911297F8948281392F4D
:102410003095832382838181892B8183E8012197F1
:10242000F1F78281982B92837894C4010197F1F798
:10243000220F4150510909F7F8941196ED91FC9142
:10244000129791818C918095892381831196ED91CA
:10245000FC91129792818C91809589238283789444
:10246000DF91CF911F910F91FF90EF90DF90CF9070
:10247000BF90AF909F908F900895CF93DF93CDB78B
:10248000DEB767970FB6F894DEBF0FBECDBF789466
:1024900084B5826084BD84B5816084BD85B5826069
:1024A00085BD85B5816085BD80916E00816080931A
:1024B0006E00109281008091810082608093810083
:1024C0008091810081608093810080918000816093
:1024D000809380008091B10084608093B1008091EE
:1024E000B00081608093B00080917A008460809316
:1024F0007A0080917A00826080937A0080917A00DD
:10250000816080937A0080917A00806880937A005D
:102510001092C10061E083E00E94D60F61E08BE081
:102520000E94D60F61E08CE00E94D60F61E08DE042
:102530000E94D60F60E08EE00E94D60F60E08FE030
:102540000E94D60F60E081E10E94D60F60E083E038
:102550000E94800F60E08BE00E94800F61E08CE0C1
:102560000E94800F60E08DE00E94800FE091590290
:10257000F0915A0282E08083E0915502F091560278
:102580001082E0915702F091580283E0808310920C
:102590006102E0915D02F0915E0286E08083E0914D
:1025A0005B02F0915C02808180618083E0915B023C
:1025B000F0915C02808188608083E0915B02F09101
:1025C0005C02808180688083E0915B02F0915C0214
:1025D00080818F7D80838091F902982F9F7761F4AD
:1025E000807880628093F9021092F6021092F502D0
:1025F0001092F8021092F70285FF35C00091F502A3
:102600001091F60215C06115710531F087E791E070
:102610000E943D2C892BD1F0D80115968C918823EE
:1026200011F40C945C25E8E08E02000D111D1124BC
:102630000115110511F40C945C25D80116966D91C5
:102640007C911797B1E067377B07E9F6F801848141
:1026500080788860848382E090E0A0E0B0E08083AE
:102660009183A283B383E091B203F091B303138605
:10267000158614861286339687E0DF011D928A95AF
:10268000E9F71092B0031092B10311E075C02A85EA
:10269000E22FEF70F0E0E25FFE4F8491E22FE295CF
:1026A000EF70F0E0E25EFE4FE4918E279B85892774
:1026B000E82FEF70F0E0E25FFE4F949182958F700B
:1026C000E82FF0E0E25EFE4FE491E9278C858E274B
:1026D000E82FEF70F0E0E25FFE4F9491E82FE29573
:1026E000EF70F0E0E25EFE4FE491E9278D859E2FCA
:1026F0009827E92FEF70F0E0E25FFE4F849192950A
:102700009F70E92FF0E0E25EFE4FE4918E279E85F8
:102710008927E82FEF70F0E0E25FFE4F94918295F9
:102720008F70E82FF0E0E25EFE4FE4919E278F85E8
:102730009827E92FEF70F0E0E25FFE4F84919295C9
:102740009F70E92FF0E0E25EFE4FE4918E279889BA
:102750008927E82FEF70F0E0E25FFE4F94918295B9
:102760008F70E82FF0E0E25EFE4FE491E92789895F
:102770008E1711F40C949D20BE01665F7F4F8091EF
:10278000B2039091B3030E94090A811180CF809116
:10279000B003282F30E030930E0220930D029CE00E
:1027A0009093AC03882311F40C945625512C9E0170
:1027B0002F5E3F4F3F8B2E8BAE014E5E5F4F3A0137
:1027C000CC24CA94D12C1FE0E12EF12C03E2802E00
:1027D000912C87EDA82EB12CE091B203F091B303B8
:1027E0001386158614861286118610861782168225
:1027F00015821482138210E0BE01665F7F4F8091C4
:10280000B2039091B3030E94090A81110C947F1EB8
:102810008A85803109F4E8C01091AC03BE016F5F76
:102820007F4FCE010A96193010F40C948A1E0E9434
:102830004C0B882309F4D8C01D3008F01CE01A5056
:10284000133010F00C94901EE12FF0E0EC5EFE4F80
:1028500080819D81981709F4C7C08D83E091B203F0
:10286000F091B30330810180F281E02DF8948181F1
:10287000632F60958623818378942CE743E050E0B2
:1028800002C0215001F1CA010197F1F78081832331
:10289000C1F3F8948281862382838181382B31832E
:1028A00078948BE797E00197F1F7F894818168239A
:1028B000618383E191E00197F1F78081789483E669
:1028C00096E00197F1F70091B2031091B30365E52B
:1028D000C8010E94C511CE010A961C01D1016D915B
:1028E0001D0128E030E091E01DC0D8018C911196C7
:1028F000ED91FC911297F8944281582F5095452301
:1029000042834181482B4183D4011197F1F74281E1
:10291000842B82837894F5013197F1F7990F215038
:102920003109F9F0862F892301F7F80180810180B0
:10293000F281E02DF8944281582F5095452342832F
:102940004181482B4183D6011197F1F74281842BB5
:1029500082837894F7013197F1F7990F215031096B
:1029600009F7F894D8011196ED91FC911297918195
:102970008C918095892381831196ED91FC9112971A
:1029800092818C91809589238283789426143704D0
:1029900009F0A4CF6EE48091B2039091B3030E943A
:1029A000C5116B818091B2039091B3030E94C51150
:1029B0006C818091B2039091B3030E94C5118A8506
:1029C000803139F06D818091B2039091B3030E9400
:1029D000C5118091AF0381110C946B218091B203DA
:1029E0009091B3030E94A00353948091B0035816B2
:1029F00008F4F2CE1092AD038091B2039091B3032C
:102A00000E94A0036CEC8091B2039091B3030E94EA
:102A1000C511A090A903A091B203B091B30328E01F
:102A200030E0BB24B3946FEF70E04FE050E093E2EE
:102A3000E92EF12C07ED10E04D019B2D1DC0D401B6
:102A40008C911196ED91FC911297F894D280C82E3A
:102A5000C094DC20D282D180D82AD182D7011197AC
:102A6000F1F7D2808D2982837894F8013197F1F7BC
:102A7000990F21503109F9F0892F847401F7F4017D
:102A800080810180F281E02DF894D280C82EC0941C
:102A9000DC20D282D180D82AD182DB011197F1F7D4
:102AA000D2808D2982837894FA013197F1F7990FBA
:102AB0002150310909F7D401A11014C0F8941196DE
:102AC000ED91FC91129781819C919095892381834E
:102AD0001196ED91FC91129782819C91909589239A
:102AE000828378948091AD0381110E94C81080E4A4
:102AF00080937C0080917A00806480937A0080913A
:102B00007A0086FDFCCF8091780080917900109248
:102B100018021092170240E440937C0080917A00E2
:102B2000806480937A0080917A0086FDFCCF80914A
:102B300078002091790090E0922B20910F02309143
:102B40001002820F931F9093100280930F02209126
:102B50001702309118022F5F3F4F309318022093D5
:102B6000170225303105C4F265E070E00E946A2842
:102B70007093100260930F0283E0682E712C8824FA
:102B80008A94912C2FE0A22EB12C07ED202E312C0F
:102B900080913E0290913F0297FF02C00C94D91F92
:102BA0008536910514F40C94D81E84E690E0909339
:102BB0003F0280933E0220913C0230913D02243638
:102BC000310511F00C94F71F8FB7F894409145022E
:102BD0005091460260914702709148028FBF8091E8
:102BE000C0039091C103A091C203B091C3038A01B5
:102BF0009B01081B190B2A0B3B0B8091C40390917E
:102C0000C503092E000CAA0BBB0B081719072A07CE
:102C10003B0748F14093C0035093C1036093C20344
:102C20007093C30380910C02882311F40C94D01F7D
:102C300080913A0290913B02009711F00C94FD2094
:102C400084E690E090933B0280933A0220910A023E
:102C500030910B022817390711F010920C02909353
:102C60000B0280930A028FB7F8944091450250916D
:102C7000460260914702709148028FBF8091C6035F
:102C80009091C703A091C803B091C9038A019B0129
:102C9000081B190B2A0B3B0B8091CA039091CB03A5
:102CA000092E000CAA0BBB0B081719072A073B07B4
:102CB00008F46EC04093C6035093C7036093C803E3
:102CC0007093C90380910C0281110C94A31F209171
:102CD000190230911A02E0913A02F0913B022E174C
:102CE0003F0714F00C94E5202F5F3F4F30931A02FA
:102CF0002093190260910C0170910D0180E797E11A
:102D00000E946A287093CB036093CA03EA35F105E9
:102D100014F40C94B01F2A35310524F430933F028B
:102D200020933E02809111029091120220910F0295
:102D3000309110028217930714F00C9419202091FF
:102D40003E0230913F022F5F3F4F30933F0220936E
:102D50003E0221E020932502873C914014F40C941C
:102D6000002080913E0290913F02029790933F0293
:102D700080933E0281E0809324028091150290911D
:102D800016028E34934014F00C940B201092230200
:102D90008FB7F894409145025091460260914702E6
:102DA000709148028FBF8091A3039091A403A091DA
:102DB000A503B091A6038A019B01081B190B2A0BDE
:102DC0003B0B8091A7039091A803092E000CAA0B3E
:102DD000BB0B081719072A073B0708F43FC14093AC
:102DE000A3035093A4036093A5037093A6031092CA
:102DF000180210921702E0900D02F0900E021E14BD
:102E00001F04E4F5A2E3CA2EA2E0DA2E00E010E0EF
:102E1000402EE091B203F091B30313861586148619
:102E200012861186108617821682158214821382EA
:102E3000512CBE01665F7F4F8091B2039091B30326
:102E40000E94090A882339F0451411F40C94752561
:102E50005394451470F760E070E08EEF92ECD60169
:102E60006D937D938D939D936D010F5F1F4F109315
:102E70001802009317020E151F0551F6E091B203D8
:102E8000F091B30330810180F281E02DF8948181CB
:102E9000432F40958423818378942CE702C02150EE
:102EA00001F1C3010197F1F780818323C1F3F89405
:102EB0008281842382838181382B318378948BE7CC
:102EC00097E00197F1F7F89481814823418383E1EA
:102ED00091E00197F1F78081789483E696E001977D
:102EE000F1F7A091B203B091B30328E030E051E0D4
:102EF0001FC01C911196ED91FC911297F89492814C
:102F0000412F4095942392839181912B918363E289
:102F100070E0CB010197F1F79281812F892B828399
:102F20007894C1010197F1F7550F2150310901F152
:102F3000852F8C7CF1F61C911196ED91FC911297E6
:102F4000F8949281412F4095942392839181912B03
:102F50009183C4010197F1F79281812F892B82839C
:102F60007894C5010197F1F7550F2150310901F708
:102F7000F8941196ED91FC91129791818C91809526
:102F8000892381831196ED91FC91129792818C9106
:102F900080958923828378946091A903A091B203DC
:102FA000B091B30328E030E051E01FC07C9111964E
:102FB000ED91FC911297F8949281472F40959423BC
:102FC00092839181972B918303E210E0C8010197CE
:102FD000F1F79281872F892B82837894C101019721
:102FE000F1F7550F21503109F9F0852F8474F1F66E
:102FF0007C911196ED91FC911297F8948281472F64
:103000004095842382838181872B8183C40101972A
:10301000F1F78281872B82837894C5010197F1F7BC
:10302000550F2150310909F7611114C0F894119618
:10303000ED91FC91129791818C91809589238183E8
:103040001196ED91FC91129792818C918095892334
:10305000828378948091AD038111A8C78FB7F894CB
:10306000409145025091460260914702709148029A
:103070008FBF80919D0390919E03A0919F03B0917B
:10308000A0038A019B01081B190B2A0B3B0B8091A3
:10309000A1039091A203092E000CAA0BBB0B0817E9
:1030A00019072A073B0708F4DDC040939D0350939E
:1030B0009E0360939F037093A00390917A00809188
:1030C0007A00887F846080937A0080E480937C001B
:1030D00080917A00806480937A0080917A0086FDE6
:1030E000FCCF609178008091790090937A0070E035
:1030F000782B072E000C880B990B0E94F5296B0189
:103100007C0140908103509082034114510411F4DA
:103110000C943A2380917C038201B4E08B9F000DD4
:10312000111D1124F8012081318142815381609168
:103130007D0370917E0380917F03909180030E94B4
:10314000D92860937D0370937E0380937F039093CF
:103150008003D801CD92DD92ED92FC9213971091ED
:103160007C03F201B4E01B9FE00DF11D11242091BE
:103170007D0330917E0340917F03509180036081F5
:103180007181828193810E94DA2860937D0370931C
:103190007E0380937F03909380031F5F10937C03D3
:1031A00000917A03101711F40C940F2110917B03F6
:1031B00011116FC7C0928703D0928803E0928903F0
:1031C000F0928A03C0928303D0928403E092850335
:1031D000F0928603101718F41F5F10937B03809101
:1031E000130290911402019690931402809313029B
:1031F000019609F468C7112309F462C7612F70E0D2
:1032000080E090E00E94F5299B01AC0160917D0374
:1032100070917E0380917F03909180030E944B29DF
:103220000E94BD299B0130931202209311028091CC
:103230000F0290911002B901681B790B072E000C48
:10324000880B990B0E94F52920E030E043EC5DE308
:103250000E94AA2A60932A0270932B0280932C0268
:1032600090932D028FB7F8944091450250914602F9
:1032700060914702709148028FBF809197039091AF
:103280009803A0919903B0919A038A019B01081BAE
:10329000190B2A0B3B0B80919B0390919C03092EE9
:1032A000000CAA0BBB0B081719072A073B0708F4E9
:1032B0005BC0409397035093980360939903709376
:1032C0009A03109218021092170243E490917A0028
:1032D00080917A00887F846080937A0040937C009C
:1032E00080917A00806480937A0080917A0086FDD4
:1032F000FCCF809178002091790090937A0090E043
:10330000922B2091150230911602820F931F9093F9
:1033100016028093150220911702309118022F5F38
:103320003F4F30931802209317022530310574F275
:1033300065E070E00E946A2870931602609315029F
:10334000072E000C880B990B0E94F52923E333E329
:1033500043E35DE30E94AA2A60932E0270932F023A
:1033600080933002909331028FB7F89440914502D8
:103370005091460260914702709148028FBF809140
:10338000910390919203A0919303B09194038A01C9
:103390009B01081B190B2A0B3B0B80919503909105
:1033A0009603092E000CAA0BBB0B081719072A0756
:1033B0003B07A0F1409391035093920360939303D2
:1033C0007093940320912A0230912B0240912C0299
:1033D00050912D0260912E0270912F028091300247
:1033E000909131020E94AA2A6B017C0160913E02F9
:1033F00070913F02072E000C880B990B0E94F52953
:103400009B01AC01C701B6010E94AA2A60931F026A
:103410007093200280932102909322028FB7F89438
:1034200040914502509146026091470270914802D6
:103430008FBF80918B0390918C03A0918D03B091ED
:103440008E038A019B01081B190B2A0B3B0B8091F1
:103450008F0390919003092E000CAA0BBB0B081749
:1034600019072A073B0708F463C040938B03509366
:103470008C0360938D0370938E030091080110916B
:103480000901C0901F02D0902002E0902102F0902C
:10349000220220911B0230911C0240911D0250918A
:1034A0001E02C701B6010E94D928609326027093BC
:1034B0002702809328029093290220E030E0A9019E
:1034C0000E94A52A18160CF06BC6809104019091F9
:1034D0000501800F911F90930901809308012091AD
:1034E0003A0230913B022A3531050CF4A6C52091F1
:1034F000190230911A022A3531050CF08BC630932F
:10350000090120930801C90197FF06C01092090123
:103510001092080180E090E0C0921B02D0921C0241
:10352000E0921D02F0921E02909307018093060123
:103530008FB7F8944091450250914602609147023E
:10354000709148028FBF8091E6029091E702A091AE
:10355000E802B091E9028A019B01081B190B2A0BB2
:103560003B0B8091EA029091EB02092E000CAA0B12
:10357000BB0B081719072A073B0708F4A7C340939A
:10358000E6025093E7026093E8027093E902C0906C
:103590003A02D0903B021091F902812F8F7761F4AB
:1035A000107810621093F9021092F6021092F50250
:1035B0001092F8021092F70215FF38C0E090F50261
:1035C000F090F60214C06115710531F08FE791E0BB
:1035D0000E943D2C892BC9F0F7018581882311F4C5
:1035E0000C941523E8E08E02E00CF11C1124E11488
:1035F000F10411F40C941523D70116966D917C916A
:103600001797B1E06F377B07F1F6F7018481807877
:10361000D7FC09C6886084830D2C000CEE08FF08D7
:10362000C082D182E282F3821091F902C0903E0200
:10363000D0903F02812F8F7761F410781062109341
:10364000F9021092F6021092F5021092F80210920E
:10365000F70215FF39C0E090F502F090F60215C0B0
:103660006115710531F08FE891E00E943D2C892BA6
:10367000D1F0D70115968C91882311F40C9428234E
:10368000E8E08E02E00CF11C1124E114F10411F4C5
:103690000C942823D70116966D917C911797B1E071
:1036A0006F387B07E9F6F70184818078D7FCD0C5B5
:1036B000886084830D2C000CEE08FF08C082D18244
:1036C000E282F3821091F90240910A0150910B01BC
:1036D00080910C0190910D01489F9001499F300D00
:1036E000589F300D1124032E000C440B550B60E045
:1036F00074E284EF90E00E947E282A8B3B8B4C8BF7
:103700005D8B812F8F7761F4107810621093F9022E
:103710001092F6021092F5021092F8021092F7023F
:1037200015FF36C0E090F502F090F60213C0611567
:10373000710531F08BE991E00E943D2C892BB9F0A5
:10374000F7018581882309F45EC7E8E08E02E00C6A
:10375000F11C1124E114F10409F455C7D7011696A0
:103760006D917C911797B1E06B397B0701F7F701F9
:103770004A895B896C897D898481807877FD7DC5E4
:103780008860848340835183628373831091F9023C
:10379000609132027091330280913402909135022F
:1037A0006A8B7B8B8C8B9D8B812F8F7761F410784C
:1037B00010621093F9021092F6021092F502109224
:1037C000F8021092F70215FF35C0E090F502F09074
:1037D000F60214C06115710531F088EA91E00E948B
:1037E0003D2C892BC1F0D70115968C91882309F4C3
:1037F000F8C6E8E08E02E00CF11C1124E114F1049B
:1038000009F4EFC6D70116966D917C911797B1E038
:10381000683A7B07F9F6F701848180788C608483AD
:103820004A895B896C897D89408351836283738374
:103830001091F90260912E0270912F028091300256
:10384000909131026A8B7B8B8C8B9D8B812F8F7734
:1038500061F4107810621093F9021092F60210923F
:10386000F5021092F8021092F70215FF34C0E090B2
:10387000F502F090F60213C06115710531F08EEA81
:1038800091E00E943D2C892BB9F0F70185818823B6
:1038900009F483C6E8E08E02E00CF11C1124E11467
:1038A000F10409F47AC6D70116966D917C911797A9
:1038B000B1E06E3A7B0701F7F701848180788C6074
:1038C00084834A895B896C897D89408351836283C3
:1038D00073831091F90260912A0270912B028091FA
:1038E0002C0290912D026A8B7B8B8C8B9D8B812F70
:1038F0008F7761F4107810621093F9021092F6023B
:103900001092F5021092F8021092F70215FF35C0DE
:10391000E090F502F090F60214C06115710531F0E7
:103920008CEB91E00E943D2C892BC1F0D7011596BC
:103930008C91882309F443C6E8E08E02E00CF11C68
:103940001124E114F10409F43AC6D70116966D91D9
:103950007C911797B1E06C3B7B07F9F6F701848106
:1039600080788C6084834A895B896C897D894083F7
:103970005183628373831091F902609126027091E2
:10398000270280912802909129026A8B7B8B8C8B75
:103990009D8B812F8F7761F4107810621093F9025C
:1039A0001092F6021092F5021092F8021092F702AD
:1039B00015FF34C0E090F502F090F60213C06115D7
:1039C000710531F087EC91E00E943D2C892BB9F014
:1039D000F7018581882309F4CEC5E8E08E02E00C6A
:1039E000F11C1124E114F10409F4C5C5D7011696A0
:1039F0006D917C911797B1E0673C7B0701F7F70168
:103A0000848180788C6084834A895B896C897D8914
:103A100040835183628373831091F902812F8F77E2
:103A200061F4107810621093F9021092F60210926D
:103A3000F5021092F8021092F70215FF31C0E090E3
:103A4000F502F090F60214C06115710531F083EDB6
:103A500091E00E943D2C892BC1F0D70115968C91E5
:103A6000882309F476C5E8E08E02E00CF11C1124ED
:103A7000E114F10409F46DC5D70116966D917C919E
:103A80001797B1E0633D7B07F9F6F70184818078F1
:103A90008C60848310821182128213821091F90249
:103AA00000912502812F8F7761F4107810621093B6
:103AB000F9021092F6021092F5021092F80210929A
:103AC000F70215FF33C0E090F502F090F60213C044
:103AD0006115710531F081EE91E00E943D2C892B3A
:103AE000B9F0F7018581882309F421C5E8E08E0249
:103AF000E00CF11C1124E114F10409F418C5D701FC
:103B000016966D917C911797B1E0613E7B0701F7A6
:103B1000F701848180788660848310E020E030E0C3
:103B200000831183228333831091F90200912402D0
:103B3000812F8F7761F4107810621093F902109240
:103B4000F6021092F5021092F8021092F70215FF99
:103B500034C0E090F502F090F60214C061157105D2
:103B600031F08BEE91E00E943D2C892BC1F0D70102
:103B700015968C91882309F4C8C4E8E08E02E00C05
:103B8000F11C1124E114F10409F4BFC4D701169605
:103B90006D917C911797B1E06B3E7B07F9F6F701C9
:103BA000848180788660848310E020E030E00083A8
:103BB0001183228333831091F902F0902302812F25
:103BC0008F7761F4107810621093F9021092F60268
:103BD0001092F5021092F8021092F70215FF32C00F
:103BE0000091F5021091F60213C06115710531F0D4
:103BF00085EF91E00E943D2C892BB9F0F801858179
:103C0000882309F470C4E8E08E02000D111D112410
:103C10000115110509F467C4D80116966D917C91C0
:103C20001797B1E0653F7B0701F7F8018481807841
:103C3000866084838F2D90E0A0E0B0E08083918344
:103C4000A283B38349E452E05A8349831C821B82D6
:103C5000BE016F5F7F4F85EF92E00E94EC03AFEFF4
:103C6000B1E051E04D9150936102909164028091D6
:103C70006502E0915902F0915A02981709F484C044
:103C80002091640230E02F5F3F4F2F733327922F34
:103C900003C00FB607FE47C0809165029817C9F3AD
:103CA000E0916402F0E0EA55FD4F40839FB7F8943D
:103CB00020936402E0915B02F0915C02808180625B
:103CC00080839FBF62E0A330B60761F680E090E09A
:103CD000892B11F40C94C815809162022091630223
:103CE00090E0805C9F4F821B91098F739927892BED
:103CF00011F40C94C8150E9400000C94C5155116BF
:103D000011F40C9486261F5F511610F40C940814BD
:103D10000C94FC130E944C0B882311F40C94F414A3
:103D20008FE10C942914808185FFB6CFE091650264
:103D3000F0E0EA55FD4F80816091650270E06F5FB1
:103D40007F4F6F73772760936502E0915F02F09178
:103D500060028083E0915902F0915A028081837061
:103D6000806480836091640280916502681307C05B
:103D7000E0915B02F0915C0280818F7D8083E09115
:103D80005902F0915A0288CF808185FF79CF9FB781
:103D9000F894E0915F02F09160024083E091590253
:103DA000F0915A0280818370806480839FBF8ACFA4
:103DB00020913C0230913D028217930711F40C943C
:103DC000E415009709F401C1833391050CF097C7FE
:103DD000823091050CF411C1843091050CF45FC65A
:103DE000883091050CF449C68E3091050CF448C614
:103DF0008E30910509F447C60F9709F447C686E04F
:103E000090E09093070280930602233331050CF46F
:103E1000E2C044E650E0421B530B1092090210929C
:103E20000802423051050CF4DFC0443051050CF457
:103E300021C6483051050CF417C64E3051050CF41C
:103E400016C64E30510509F424C64F30510509F409
:103E500023C646E050E05093090240930802509375
:103E6000050240930402232B59F483EA8093B000A7
:103E70008091060290910702409104025091050240
:103E800084179507E9F1FC01EE0FFF1F880F991FBA
:103E9000880F991F880F991FDF01A80FB91FA95E0E
:103EA000BE4F12962D913C9113972034310509F4A1
:103EB00012C32032310509F4E1C328E030E0309329
:103EC0000B0120930A012AE02093B1008E0F9F1F5F
:103ED000FC01E95EFE4F8481958180930C019093F3
:103EE0000D01468157816085718540930001509393
:103EF0000101609302017093030181508093B3002C
:103F000060913E0270913F02072E000C880B990BC6
:103F10000E94F52920910001309101014091020198
:103F2000509103010E94AA2A0E94BD29615060930A
:103F3000B40080913E0290913F0290933D028093A5
:103F40003C020C94E415E0913A02F0913B0220917E
:103F5000190230911A02EA35F10514F00C948B160F
:103F60002A35310514F40C948E162C35310514F0D5
:103F70000C94921640913E0250913F028AE590E0E7
:103F8000841B950B97FD8EC5029714F40C94921622
:103F90002F5F3F4F30931A02209319020C94921610
:103FA00080913A0290913B020C9426160E94C81010
:103FB00055C810923F0210923E0280913C029091AF
:103FC0003D02892B11F40C94E4158091B0008F759B
:103FD0008093B000AECF1092090210920802A9019E
:103FE000423051050CF021CF40E050E038CF80E066
:103FF00090E0823091050CF0EFCE80E090E001CFB0
:104000001092240280911502909116028E349340F2
:1040100014F40C94C61680913E0290913F020296D1
:1040200090933F0280933E0281E0809323020C94A0
:10403000C816109225020C94AC16209119023091EA
:104040001A022A353105D4F020913E0230913F0208
:104050004AE550E0421B530B57FDFAC4423051056C
:104060006CF02A3531050CF42AC22A35310531F0BD
:104070002150310930933F0220933E02853691054D
:104080000CF442CA84E690E0909309018093080101
:1040900043CA20918303309184034091850350915A
:1040A0008603C701B6010E94462987FFFAC0C09265
:1040B0008303D0928403E0928503F09286038AC83A
:1040C00020E030E0B0C8112309F400C210927D0353
:1040D00010927E0310927F0310928003C12CD12C8A
:1040E000760100E0D2012D913D914D915D912D0120
:1040F000C701B6010E94DA286B017C0160937D0341
:1041000070937E0380937F03909380030F5F01136E
:10411000E9CF602F70E080E090E00E94F5299B01DC
:10412000AC01C701B6010E944B290E94BD299B0129
:1041300070931202609311027AC88091B0038F5F6E
:104140008093B003283241F008F0ACC1203121F057
:10415000223211F00C94BC138091B1038F5F8093D5
:10416000B1038091A903882309F4EFC52031B1F090
:10417000BE016F5F7F4FCE010A960E944C0B8823D1
:1041800009F445C58D818F3309F418C608F41AC6A1
:104190008F3509F415C68F3709F039C58CE038C55D
:1041A000809104019091050122273327281B390BA8
:1041B0003093050120930401F801E81BF90BCF01AE
:1041C000F0930901E09308018AC9E217F3070CF0A4
:1041D00071C12150310930931A0220931902609164
:1041E0000C0170910D0180E197E20E946A287093A2
:1041F000CB036093CA030C9486168436910511F0A4
:104200000C94261610923B0210923A0280E090E045
:104210000C94261690933F0280933E022FCF10926B
:104220007C030C94D6188A6084830D2C000CEE0855
:10423000FF08F094E094D094C094C11CD11CE11C00
:10424000F11CC082D182E282F3821091F902EEC9A0
:104250008A6084830D2C000CEE08FF08F094E09433
:10426000D094C094C11CD11CE11CF11CC082D1822D
:10427000E282F3821091F90227CA8A6084838A89D4
:104280009B89AC89BD89B095A095909581959F4FEC
:10429000AF4FBF4F80839183A283B3831091F90204
:1042A00077CA209187033091880340918903509108
:1042B0008A03C701B6010E94A52A181614F00C94AF
:1042C000EA18C0928703D0928803E0928903F092A3
:1042D0008A030C94EA188091B2039091B3030E9470
:1042E000A003882311F40C94F414BE01665F7F4F81
:1042F0008091B2039091B3030E9402036091A903DD
:10430000A091B203B091B30328E030E071E01DC08A
:104310001C911196ED91FC911297F8944281512FC6
:104320005095452342834181412B4183C40101972C
:10433000F1F74281812F842B82837894F5013197A4
:10434000F1F7770F2150310901F1872F887401F7B8
:104350001C911196ED91FC911297F8944281512F86
:104360005095452342834181412B4183C6010197EA
:10437000F1F74281812F842B82837894F701319762
:10438000F1F7770F2150310901F7611114C0F8944A
:104390001196ED91FC91129781819C9190958923C2
:1043A00081831196ED91FC91129782819C91909559
:1043B0008923828378948091A903882309F44CC3CC
:1043C0008091AA0381118BC39FB7F8944091410259
:1043D00050914202609143027091440286B5A89BBD
:1043E00006C08F3F21F04F5F5F4F6F4F7F4F9FBFE2
:1043F000762F652F542F4427480F511D611D711DC5
:10440000440F551F661F771F440F551F661F771FE8
:1044100004E110E020E030E0FFB7F8948091410221
:1044200090914202A0914302B0914402E6B5A89B4C
:1044300005C0EF3F19F00196A11DB11DFFBFBA2FB6
:10444000A92F982F88278E0F911DA11DB11D880FB0
:10445000991FAA1FBB1F880F991FAA1FBB1F841B70
:10446000950BA60BB70B883E9340A105B105A0F2B2
:10447000015011092109310948515C4F6F4F7F4F9D
:10448000011511052105310539F68091AA0388230C
:1044900011F40C94EE1461E08091AB030E94800F44
:1044A0000C94EE142B3309F457CE223411F00C94F3
:1044B000BC1352CE81E080930C020C9486162F5FC1
:1044C0003F4F30933F0220933E02D8CD60E070E032
:1044D00080EC9FE72ACE30930B0120930A012CE059
:1044E0002093B100F3CC8091F0029091F1022091E1
:1044F000EE023091EF02285F3F4F8217930708F0DA
:104500007CC281E08093F4029DCB8091F002909177
:10451000F1022091EE023091EF02285F3F4F8217A7
:10452000930708F0B3C081E08093F40246CB8091FA
:10453000F0029091F1022091EE023091EF02285F9B
:104540003F4F8217930708F0CCC081E08093F402BC
:10455000EDCA8091F0029091F1022091EE0230912B
:10456000EF02285F3F4F8217930708F0E5C081E014
:104570008093F40295CA8091F0029091F10220910B
:10458000EE023091EF02285F3F4F8217930708F049
:1045900029C181E08093F40241CA8091F002909198
:1045A000F1022091EE023091EF02285F3F4F821717
:1045B000930708F0ECC081E08093F4028CC98091ED
:1045C000F0029091F1022091EE023091EF02285F0B
:1045D0003F4F8217930708F030C181E08093F402C7
:1045E000CCC98091F0029091F1022091EE023091BD
:1045F000EF02285F3F4F8217930708F049C181E01F
:104600008093F40217C98091F0029091F1022091F9
:10461000EE023091EF02285F3F4F8217930708F0B8
:1046200092C181E08093F402B3C88091F00290912E
:10463000F1022091EE023091EF02285F3F4F821786
:10464000930708F053C181E08093F4020C94161B89
:104650008091F0029091F1022091EE023091EF02F0
:10466000285F3F4F8217930708F09AC181E080933B
:10467000F4022AC810917B030C94EF1830930B01BD
:1046800020930A012BE02093B10020CCFC01389745
:10469000F093F102E093F002309709F48ECAA091F2
:1046A000F702B091F802109709F4F2C29F012A1B99
:1046B0003B0B359527953595279535952795159677
:1046C0002C93F093F802E093F70215821482DC0138
:1046D00012972BEE31E02D933C93309709F060CA8E
:1046E0006ACAFC013897F093F102E093F002309728
:1046F00009F41CCAA091F702B091F802109709F4CE
:10470000BEC29F012A1B3B0B3595279535952795F2
:104710003595279515962C93F093F802E093F702C0
:1047200015821482DC01129721EE31E02D933C9327
:10473000309709F0EEC9F8C9FC013897F093F102FF
:10474000E093F002309709F4ABC9A091F702B09161
:10475000F802109709F48AC29F012A1B3B0B35957A
:104760002795359527953595279515962C93F09394
:10477000F802E093F70215821482DC01129723ED10
:1047800031E02D933C93309709F080C987C9FC0133
:104790003897F093F102E093F002309709F49BC848
:1047A000A091F702B091F802109709F456C29F0148
:1047B0002A1B3B0B359527953595279535952795DC
:1047C00015962C93F093F802E093F7021582148269
:1047D000DC0112972EEA31E02D933C93309709F0DB
:1047E0006CC877C8FC013897F093F102E093F002AF
:1047F000309709F413C9A091F702B091F80210970D
:1048000009F422C29F012A1B3B0B3595279535954C
:1048100027953595279515962C93F093F802E093FC
:10482000F70215821482DC01129727EC31E02D93F8
:104830003C93309709F0E4C8EFC8FC013897F09337
:10484000F102E093F002309709F497C8A091F702C3
:10485000B091F802109709F4EEC19F012A1B3B0B9F
:1048600035952795359527953595279515962C934C
:10487000F093F802E093F70215821482DC0112979C
:104880002CEB31E02D933C93309709F068C873C846
:10489000FC013897F093F102E093F002309711F4A5
:1048A0000C941A1CA091F702B091F802109709F429
:1048B000B9C19F012A1B3B0B359527953595279547
:1048C0003595279515962C93F093F802E093F7020F
:1048D00015821482DC01129728EA31E02D933C9373
:1048E000309711F00C940C1C0C94181CFC01389798
:1048F000F093F102E093F002309711F40C94161B40
:10490000A091F702B091F802109709F477C19F01C6
:104910002A1B3B0B3595279535952795359527957A
:1049200015962C93F093F802E093F7021582148207
:10493000DC0112972FE731E02D933C93309711F073
:104940000C94061B82CCFC013897F093F102E093A3
:10495000F002309711F40C94C81BA091F702B091AB
:10496000F802109709F441C19F012A1B3B0B3595B2
:104970002795359527953595279515962C93F09382
:10498000F802E093F70215821482DC0112972BE9FA
:1049900031E02D933C93309711F00C94B81B7ECCF2
:1049A000FC013897F093F102E093F002309711F494
:1049B0000C94641BA091F702B091F802109709F4CF
:1049C0000BC19F012A1B3B0B3595279535952795E4
:1049D0003595279515962C93F093F802E093F702FE
:1049E00015821482DC0112972FE831E02D933C935D
:1049F000309711F00C94541B3DCCFC013897F09388
:104A0000F102E093F002309709F41CC9A091F7027B
:104A1000B091F802109709F4D6C09F012A1B3B0BF6
:104A200035952795359527953595279515962C938A
:104A3000F093F802E093F70215821482DC011297DA
:104A400025EF31E02D933C93309709F0EFC8FAC879
:104A500051954195510902CB64E170E080E090E00E
:104A60000E9415100C94EE1442E050E0F4C943E0AB
:104A700050E0F1C941E050E0EEC982E090E0C1C9E8
:104A800083E090E0BEC984E090E0BBC985E090E09F
:104A9000B8C944E050E0DFC945E050E0DCC981E03E
:104AA00090E0AFC99195819591096ECAFE0171960A
:104AB000FF8BEE8B0C94FA148091F0029091F1022E
:104AC0002091EE023091EF02285F3F4F821793074B
:104AD00008F0E7C081E08093F4020C94331360E0A7
:104AE0008091AB030E94800F6FCCDE011A9680E0AC
:104AF0009D918927E82FEF70F0E0E25FFE4F9491DF
:104B0000E82FE295EF70F0E0E25EFE4FE491892F2E
:104B10008E27EE89FF89AE17BF0751F79989981341
:104B20000C942817BE016F5F7F4FCE010A960E943A
:104B30004C0B882311F40C942B176A8170E0762FAC
:104B40006627770F770F770F898190E0880F991F7D
:104B5000880F991F880F991F9B01282B392B8A8555
:104B60008031A9F0B901613854EE750714F40C9442
:104B70002B17072E000C880B990B0E94F52920E0BB
:104B800030E040E05CE30E94AA2A0C942F1768856D
:104B9000662341F370E08F81AB01481B5109CA01C4
:104BA0009695982F8827979587950E946A28605236
:104BB0007109207F220F331F220F331F220F331F53
:104BC000620F731FD0CFF093F602E093F502F093DB
:104BD000F802E093F70230CFF093F602E093F5028B
:104BE000F093F802E093F702FBCEF093F602E09325
:104BF000F502F093F802E093F702C5CEF093F602C7
:104C0000E093F502F093F802E093F7028FCE80E094
:104C10009091AC03981710F00C94BC138093AC03E4
:104C20000C94BC13F093F602E093F502F093F802B3
:104C3000E093F7024DCEF093F602E093F502F09385
:104C4000F802E093F70218CEF093F602E093F50233
:104C5000F093F802E093F702E4CDF093F602E093CC
:104C6000F502F093F802E093F702B0CDF093F6026C
:104C7000E093F502F093F802E093F7027CCDF09315
:104C8000F602E093F502F093F802E093F70248CDC4
:104C9000F093F602E093F502F093F802E093F70246
:104CA00014CDFC013897F093F102E093F0023097B5
:104CB00011F40C943313A091F702B091F8021097FD
:104CC00009F473C09F012A1B3B0B35952795359539
:104CD00027953595279515962C93F093F802E09338
:104CE000F70215821482DC01129727E731E02D9339
:104CF0003C93309711F00C9427130C94331344E633
:104D000050E0BA01681B790BCB0162C8DE011A962C
:104D100080E09D918927E82FEF70F0E0E25FFE4F81
:104D20009491E82FE295EF70F0E0E25EFE4FE4919F
:104D3000892F8E276E897F89A617B70751F7998922
:104D400098130C94831E0C9408148091B2039091D4
:104D5000B3030E94A003BE01665F7F4F8091B20340
:104D60009091B3030E94020364EB8091B20390918F
:104D7000B3030E94C5118091B2039091B3030E94C6
:104D80007C0381110AC08091B2039091B3030E9409
:104D9000A0031093A9032A85E9C98091B2039091D9
:104DA000B3030E94A0032A85E1C9F093F602E093C1
:104DB000F502F093F802E093F70293CF8AE028CF50
:104DC0008BE026CF8F3109F022CF89E021CF80916F
:104DD000810390918203009711F00C94AF2B0895FA
:104DE000CF93DF9310924C0210924B0288EE93E027
:104DF000A0E0B0E080934D0290934E02A0934F024A
:104E0000B093500287E691E090934A028093490262
:104E100085EC90E0909356028093550284EC90E0EC
:104E2000909358028093570280EC90E090935A023E
:104E30008093590281EC90E090935C0280935B0236
:104E400082EC90E090935E0280935D0286EC90E0AD
:104E50009093600280935F0210926202109263024C
:104E600010926402109265028AEF92E09093ED0234
:104E70008093EC029093EF028093EE028AE793E036
:104E80009093F1028093F0029093F3028093F202E8
:104E90001092F4028091F90280788093F9021092C6
:104EA000E6021092E7021092E8021092E90284E60C
:104EB00090E09093EB028093EA02CEEED2E0D093A2
:104EC000DB03C093DA0360E082E00E94D60FEEE4D9
:104ED000F1E0E491E093CC03EAE3F1E0E491F0E067
:104EE000EE0FFF1FE25DFE4F859194919093CE03EC
:104EF0008093CD031092D7031092D9031092D80358
:104F00001092D60387E0EFECF3E0DF011D928A9563
:104F1000E9F71092BF031092BE031092AA038CEC23
:104F200093E09093B3038093B2031092B003109276
:104F3000B1031092A90389E08093AC0381E08093D0
:104F4000AD038093AE038093AF031092A30310923E
:104F5000A4031092A5031092A603D093A803C093B4
:104F6000A70310929D0310929E0310929F0310922C
:104F7000A0038AE090E09093A2038093A103109293
:104F80009703109298031092990310929A039093AA
:104F90009C0380939B0310929103109292031092B2
:104FA0009303109294039093960380939503109229
:104FB0008B0310928C0310928D0310928E0382E368
:104FC00090E09093900380938F0380E180937A0325
:104FD00080E490E00E94172B9C01909382038093C1
:104FE0008103892B09F453C010927B0310927C0338
:104FF00010927D0310927E0310927F031092800323
:1050000080E090E0A0ECBFE780938303909384035B
:10501000A0938503B09386038093870390938803BE
:10502000A0938903B0938A0390E19150F901B4E011
:105030009B9FE00DF11D11241082118212821382B8
:105040009111F3CF1092C0031092C1031092C203CA
:105050001092C3038AE090E09093C5038093C40349
:1050600060910C0170910D0180E197E20E946A2825
:105070001092C6031092C7031092C8031092C9037E
:105080007093CB036093CA03DF91CF910895109280
:105090007A0310927B0310927C0310927D0310928E
:1050A0007E0310927F031092800380E090E0A0ECDA
:1050B000BFE78093830390938403A0938503B09309
:1050C00086038093870390938803A0938903B0930A
:1050D0008A03B8CF97FB072E16F4009407D077FD0C
:1050E00009D00E94A32807FC05D03EF49095819535
:1050F0009F4F0895709561957F4F0895052E97FBFA
:105100001EF400940E94952857FD07D00E94B728EE
:1051100007FC03D04EF40C9495285095409530959B
:1051200021953F4F4F4F5F4F089590958095709513
:1051300061957F4F8F4F9F4F0895EE0FFF1F059092
:10514000F491E02D0994AA1BBB1B51E107C0AA1FD3
:10515000BB1FA617B70710F0A61BB70B881F991F18
:105160005A95A9F780959095BC01CD010895A1E2CB
:105170001A2EAA1BBB1BFD010DC0AA1FBB1FEE1FD1
:10518000FF1FA217B307E407F50720F0A21BB30B1C
:10519000E40BF50B661F771F881F991F1A9469F798
:1051A00060957095809590959B01AC01BD01CF01F4
:1051B00008955058BB27AA270E94F1280C946B2A07
:1051C0000E945D2A38F00E94642A20F039F49F3F43
:1051D00019F426F40C945A2A0EF4E095E7FB0C948B
:1051E000542AE92F0E947C2A58F3BA1762077307E2
:1051F0008407950720F079F4A6F50C949E2A0EF406
:10520000E0950B2EBA2FA02D0B01B90190010C01D6
:10521000CA01A0011124FF27591B99F0593F50F4EE
:10522000503E68F11A16F040A22F232F342F442746
:10523000585FF3CF469537952795A795F04053953E
:10524000C9F77EF41F16BA0B620B730B840BBAF00E
:105250009150A1F0FF0FBB1F661F771F881FC2F779
:105260000EC0BA0F621F731F841F48F4879577958D
:105270006795B795F7959E3F08F0B0CF9395880F47
:1052800008F09927EE0F9795879508950E94302A88
:1052900008F481E008950E945F290C946B2A0E9413
:1052A000642A58F00E945D2A40F029F45F3F29F0FB
:1052B0000C94542A51110C949F2A0C945A2A0E943F
:1052C0007C2A68F39923B1F3552391F3951B550B71
:1052D000BB27AA2762177307840738F09F5F5F4FC9
:1052E000220F331F441FAA1FA9F335D00E2E3AF008
:1052F000E0E832D091505040E695001CCAF72BD020
:10530000FE2F29D0660F771F881FBB1F2617370770
:105310004807AB07B0E809F0BB0B802DBF01FF27A2
:1053200093585F4F3AF09E3F510578F00C94542A01
:105330000C949F2A5F3FE4F3983ED4F386957795CB
:105340006795B795F7959F5FC9F7880F911D96955B
:10535000879597F90895E1E0660F771F881FBB1FB7
:10536000621773078407BA0720F0621B730B840B64
:10537000BA0BEE1F88F7E09508950E94C42968943F
:10538000B1110C949F2A08950E94842A88F09F5797
:1053900098F0B92F9927B751B0F0E1F0660F771F59
:1053A000881F991F1AF0BA95C9F714C0B13091F04F
:1053B0000E949E2AB1E008950C949E2A672F782FB0
:1053C0008827B85F39F0B93FCCF386957795679514
:1053D000B395D9F73EF490958095709561957F4F80
:1053E0008F4F9F4F0895E89409C097FB3EF4909526
:1053F0008095709561957F4F8F4F9F4F9923A9F0AE
:10540000F92F96E9BB279395F6958795779567953C
:10541000B795F111F8CFFAF4BB0F11F460FF1BC080
:105420006F5F7F4F8F4F9F4F16C0882311F096E913
:1054300011C0772321F09EE8872F762F05C06623C1
:1054400071F096E8862F70E060E02AF09A95660F7A
:10545000771F881FDAF7880F9695879597F9089533
:10546000990F0008550FAA0BE0E8FEEF1616170675
:10547000E807F907C0F012161306E407F50798F0DD
:10548000621B730B840B950B39F40A2661F0232BF6
:10549000242B252B21F408950A2609F4A140A69572
:1054A0008FEF811D811D089597F99F6780E870E057
:1054B00060E008959FEF80EC089500240A9416168A
:1054C000170618060906089500240A9412161306F2
:1054D000140605060895092E0394000C11F4882380
:1054E00052F0BB0F40F4BF2B11F460FF04C06F5F9C
:1054F0007F4F8F4F9F4F089557FD9058440F551F72
:1055000059F05F3F71F04795880F97FB991F61F045
:105510009F3F79F087950895121613061406551FBC
:10552000F2CF4695F1DF08C0161617061806991F28
:10553000F1CF86957105610508940895E894BB271D
:1055400066277727CB0197F908950E94302A08F43F
:105550008FEF08950E94BD2A0C946B2A0E945D2A49
:1055600038F00E94642A20F0952311F00C94542AFC
:105570000C945A2A11240C949F2A0E947C2A70F3BE
:10558000959FC1F3950F50E0551F629FF001729FE8
:10559000BB27F00DB11D639FAA27F00DB11DAA1FF7
:1055A000649F6627B00DA11D661F829F2227B00D44
:1055B000A11D621F739FB00DA11D621F839FA00DCF
:1055C000611D221F749F3327A00D611D231F849F1F
:1055D000600D211D822F762F6A2F11249F57504076
:1055E0009AF0F1F088234AF0EE0FFF1FBB1F661FF1
:1055F000771F881F91505040A9F79E3F510580F0BA
:105600000C94542A0C949F2A5F3FE4F3983ED4F301
:10561000869577956795B795F795E7959F5FC1F75D
:10562000FE2B880F911D9695879597F908950F93F6
:105630001F93CF93DF938230910510F482E090E0C6
:10564000E091DE03F091DF0320E030E0A0E0B0E085
:10565000309719F140815181028113814817590710
:10566000C8F08417950769F4109731F012960C93DF
:10567000129713961C9327C00093DE031093DF0349
:1056800022C02115310519F04217530718F49A0169
:10569000BD01EF01DF01F801DBCF21153105F9F084
:1056A000281B390B2430310580F48A819B816115D8
:1056B000710521F0FB019383828304C09093DF0383
:1056C0008093DE03FE01329644C0FE01E20FF31F19
:1056D0008193919322503109398328833AC02091D4
:1056E000DC033091DD03232B41F420911001309134
:1056F00011013093DD032093DC0320910E013091E2
:105700000F012115310541F42DB73EB7409112012B
:1057100050911301241B350BE091DC03F091DD0364
:10572000E217F307A0F42E1B3F0B2817390778F078
:10573000AC014E5F5F4F2417350748F04E0F5F1FD7
:105740005093DD034093DC038193919302C0E0E02A
:10575000F0E0CF01DF91CF911F910F910895CF938A
:10576000DF93009709F481C0FC0132971382128203
:10577000A091DE03B091DF03109781F42081318185
:10578000820F931F2091DC033091DD032817390726
:1057900051F5F093DD03E093DC0367C0ED0120E0F9
:1057A00030E0CE17DF0740F44A815B819E0141154E
:1057B0005105F1F0EA01F5CFD383C28340815181D5
:1057C000840F951FC817D90759F488819981840FD0
:1057D000951F0296918380838A819B819383828324
:1057E0002115310529F4F093DF03E093DE033DC07A
:1057F000E901FB83EA8349915991C40FD51FEC1746
:10580000FD0761F480819181840F951F0296E90163
:1058100099838883828193819B838A83E0E0F0E08F
:1058200012968D919C911397009719F0FD01DC0160
:10583000F7CF8D919C9111979D012E5F3F4F820F65
:10584000931F2091DC033091DD032817390769F499
:10585000309729F41092DF031092DE0302C0138206
:105860001282B093DD03A093DC03DF91CF91089502
:1058700081E090E0F8940C94462CFB01DC018D91C2
:10588000019080190110D9F3990B089510E0C1EB34
:10589000D0E004C0FE010E949D282196C23BD107A2
:0658A000C9F7F894FFCFE8
:1058A600000000400100140014004000C800000081
:1058B600E00320003F5F7F01004000C800000000B9
:1058C6004003002000C800000000400700200064DC
:1058D600000000803F0D000800C800000000400ED8
:1058E60000080096000000C03F0F00080078009AEC
:1058F60099993F3200080064000000803F5E00BCBA
:1059060000770100000000DC0041014A02F701D7E0
:10591600015C0270020C007073754D6F6465007453
:1059260068726F74746C6550657263656E7400643A
:1059360075747950657263656E740070776D467222
:10594600657175656E63790074656D704300736F7C
:1059560075726365566F6C746167650070776D4329
:10596600757272656E7400706F7765724368616EEA
:10597600676500766F6C746167654368616E67651D
:10598600006D6464537461747573006F637053744F
:1059960061747573006F7670537461747573004526
:0459A6004F4D0A0057
:00000001FF
