:100000000C945D000C9485000C9485000C94850084
:100010000C9485000C9485000C9485000C9485004C
:100020000C9485000C9485000C9485000C9485003C
:100030000C9485000C9485000C9485000C9485002C
:100040000C94D4020C9485000C945A030C941E0357
:100050000C9485000C9485000C9485000C9485000C
:100060000C9485000C9485000000000024002700FB
:100070002A0000000000250028002B0004040404CE
:100080000404040402020202020203030303030342
:10009000010204081020408001020408102001021F
:1000A00004081020000000080002010000030407FB
:1000B00000000000000000005C0711241FBECFEF0D
:1000C000D8E0DEBFCDBF11E0A0E0B1E0E0E7FFE0A7
:1000D00002C005900D92A831B107D9F721E0A8E13F
:1000E000B1E001C01D92A83CB207E1F710E0CDE5F8
:1000F000D0E004C02197FE010E94AB07CC35D107A8
:10010000C9F70E948C030C94B6070C94000090E091
:10011000FC01EC55FF4F2491FC01E057FF4F349157
:10012000FC01E458FF4F84918823A1F0211118C0ED
:10013000E82FF0E0EE0FFF1FEE58FF4FA591B491AE
:100140008FB7F894611107C09C91E32FE095E923E4
:10015000EC938FBF0895EC91E32BEC938FBFFACF14
:10016000233029F160F02730E1F02830A1F024306D
:10017000F9F6909180009F7D90938000D9CF213037
:1001800031F02230A9F694B59F7D94BDD1CF94B5BE
:100190009F7794BDCDCF9091B0009F7D9093B0009C
:1001A000C7CF9091B0009F779093B000C1CF90914E
:1001B00080009F7790938000BBCFCF93DF9390E038
:1001C000FC01E057FF4F2491FC01E458FF4F84915C
:1001D0008823B9F090E0880F991FFC01E859FF4F80
:1001E000A591B491FC01EE58FF4FC591D4916623BF
:1001F00059F06230A9F08FB7F894EC91E22BEC93B0
:100200008FBFDF91CF9108959FB7F8948C91E22F23
:10021000E0958E238C932881E223E8839FBFF1CF62
:100220009FB7F8948C91322F309583238C93E8817B
:10023000E22BE8839FBFE5CFFC01918D228D892FB2
:1002400090E0805C9F4F821B91098F7399270895DE
:1002500020913B0180913C0130E0205C3F4F281B06
:1002600031092F73332781E0232B09F480E00895AF
:10027000FC0181E0808F938D848D981709F448C02C
:10028000238D30E02F5F3F4F2F733327922F03C012
:100290000FB607FE17C0848D9817D1F3838DDF0149
:1002A000A80FB11DA35ABF4F6C939FB7F894238F2B
:1002B0000288F389E02D8081806280839FBF81E086
:1002C00090E00895A089B1898C9185FFE4CF848D59
:1002D000DF01A80FB11DA35ABF4F8C91448D50E090
:1002E0004F5F5F4F4F735527448FA689B7898C9313
:1002F000A089B1898C91837080648C93438D848DA7
:100300004813C9CFA289B3898C918F7D8C93C3CFB9
:10031000A089B1898C9185FFB3CF9FB7F894A68946
:10032000B7896C930088F189E02D808183708064A7
:1003300080839FBF81E090E00895BF92CF92DF92CB
:10034000EF92FF920F931F93CF93DF9341155105C7
:1003500009F486C06A01EC017B0100E010E0BB24D7
:10036000B394E881F9810190F081E02DD7016D917E
:100370007D01B1E0E833FB0709F06CC0B88E9B8DBE
:100380008C8D981709F454C02B8D30E02F5F3F4FB0
:100390002F733327922F03C00FB607FE23C08C8D17
:1003A0009817D1F38B8DFE01E80FF11DE35AFF4F33
:1003B00060839FB7F8942B8FEA89FB8980818062E4
:1003C00080839FBF0F5F1F4FC016D10651F6C80133
:1003D000DF91CF911F910F91FF90EF90DF90CF9021
:1003E000BF900895E889F989808185FFD8CF8C8DE9
:1003F000FE01E80FF11DE35AFF4F80814C8D50E064
:100400004F5F5F4F4F7355274C8FEE89FF89808375
:10041000E889F98980818370806480834B8D8C8D1D
:100420004813BDCFEA89FB8980818F7D8083B7CF58
:10043000E889F989808185FFA7CF9FB7F894EE8975
:10044000FF896083E889F989808183708064808373
:100450009FBFB8CFCE010995892B09F0B3CFB7CF95
:1004600000E010E0B4CF089580E090E00895CF93CD
:10047000DF93DC0158968C915897882309F447C084
:100480005296ED91FC9153975096CD91DC915197F6
:10049000908195FF39C00FB607FCFACF908195FF88
:1004A000F7CF888185FFF4CF5C968C915C97FD0136
:1004B000E80FF11DE35AFF4F20815C968C915C9709
:1004C00090E001968F7399275C968C935C97569673
:1004D000ED91FC91579720835096ED91FC915197A7
:1004E00080818370806480835B969C915B975C962F
:1004F0008C915C979813C4CF5296ED91FC915397D1
:1005000080818F7D8083BCCF888186FFC4CFDF91BF
:10051000CF910895FC01238D348D231730F4832F60
:1005200090E0821B9109019708958FE390E0821B70
:100530009109830F911D0895FC01918D828D98176B
:1005400061F0828DDF01A80FB11D5D968C91928DB7
:100550009F5F9F73928F90E008958FEF9FEF0895B4
:10056000FC01918D828D981731F0828DE80FF11D7D
:10057000858D90E008958FEF9FEF089580E090E0E3
:10058000892B79F080913B0120913C0190E0805CC7
:100590009F4F821B91098F739927892B11F00C941F
:1005A000000008950E94B1071F920F920FB60F929C
:1005B00011242F933F938F939F93AF93BF93809179
:1005C000C4019091C501A091C601B091C7013091BD
:1005D000C30123E0230F2D3768F126E8230F02968D
:1005E000A11DB11D2093C3018093C4019093C50147
:1005F000A093C601B093C7018091BF019091C00143
:10060000A091C101B091C2010196A11DB11D8093BD
:10061000BF019093C001A093C101B093C201BF91EB
:10062000AF919F918F913F912F910F900FBE0F909F
:100630001F9018950196A11DB11DD4CF1F920F9246
:100640000FB60F9211242F938F939F93EF93FF93E5
:10065000E0913E01F0E0E158FE4F208180913E01A3
:1006600090E001968F73992780933E01E0913801C5
:10067000F09139012083E0913201F09133018081C2
:1006800083708064808390913D0180913E01981336
:1006900007C0E0913401F091350180818F7D808326
:1006A000FF91EF919F918F912F910F900FBE0F901F
:1006B0001F9018951F920F920FB60F9211242F932F
:1006C0008F939F93EF93FF93E0913201F091330169
:1006D0008081E0913801F091390182FF0BC0808167
:1006E000FF91EF919F918F912F910F900FBE0F90DF
:1006F0001F901895208180913B018F5F8F7390919F
:100700003C01891769F3E0913B01F0E0EE5DFE4F9B
:10071000258F80933B01E4CFCF93DF93CDB7DEB736
:10072000A1970FB6F894DEBF0FBECDBF789484B505
:10073000826084BD84B5816084BD85B5826085BDDD
:1007400085B5816085BD80916E00816080936E006B
:10075000109281008091810082608093810080915D
:10076000810081608093810080918000816080930E
:1007700080008091B10084608093B1008091B000CE
:1007800081608093B00080917A00846080937A00C9
:1007900080917A00826080937A0080917A008160F3
:1007A00080937A0080917A00806880937A0010921A
:1007B000C100E0913201F091330182E08083E09149
:1007C0002E01F0912F011082E0913001F091310162
:1007D0008FEC808310923A01E0913601F09137015D
:1007E00086E08083E0913401F09135018081806161
:1007F0008083E0913401F0913501808188608083AD
:10080000E0913401F0913501808180688083E0912E
:100810003401F091350180818F7D808361E083E038
:100820000E94DD0061E08BE00E94DD0061E08CE071
:100830000E94DD0061E08DE00E94DD0062E080E06A
:100840000E94DD0060E08EE00E94DD0060E08FE04D
:100850000E94DD0060E081E10E94DD0060E083E055
:100860000E94870060E08BE00E94870061E08CE0DE
:100870000E94870060E08DE00E94870080E0282EC3
:1008800080E0382E96E1692E91E0792E2AE0C22E82
:10089000D12CE12CF12C34E6432E512C11E00DE249
:1008A000209120013091210137FDE8C12536310525
:1008B00034F0509221014092200124E630E0409132
:1008C0001E0150911F01CA010296821793070CF076
:1008D000ADC190932101809320014817590781F001
:1008E000009709F0ACC18091B0008F758093B00083
:1008F000809120019091210190931F0180931E010E
:10090000489B8FC110921D0110921C018FB7F89463
:100910004091C4015091C5016091C6017091C70119
:100920008FBF8091180190911901A0911A01B09187
:100930001B014A015B01881A990AAA0ABB0A809125
:10094000000190910101A0E0B0E088169906AA0686
:10095000BB0608F4C8C04093180150931901609376
:100960001A0170931B018091200190912101209127
:100970001C0130911D01821793070CF071C1019683
:1009800090932101809320018CE390E090930101EA
:100990008093000190917A0080917A00887F846032
:1009A00080937A00E0E4E0937C0080917A00806498
:1009B00080937A0080917A0086FDFCCF20917800A8
:1009C0008091790030E0382B90937A0037FD5FC139
:1009D000032E000C440B550B19A2CE0181965C012D
:1009E000CA01B901A70196010E948907605DF5015E
:1009F00062935F01211531054105510589F7309753
:100A0000E9F101900020E9F7D5019F01215031095A
:100A1000A217B30799F16D9110933A0190913D019E
:100A200080913E01E0913201F0913301981709F471
:100A30009FC040913D0150E04F5F5F4F4F7355277E
:100A4000942F03C00FB607FE63C080913E01981734
:100A5000C9F3E0913D01F0E0E158FE4F60839FB79C
:100A6000F89440933D01E0913401F091350180818B
:100A7000806280839FBFA217B30769F6A4E1B1E04B
:100A80004D9110933A0190913D0180913E01E0918A
:100A90003201F0913301981709F4AFC020913D0164
:100AA00030E02F5F3F4F2F733327922F03C00FB6D5
:100AB00007FE72C080913E019817C9F3E0913D0195
:100AC000F0E0E158FE4F40839FB7F89420933D013A
:100AD000E0913401F09135018081806280839FBF75
:100AE0006A167B0669F62114310409F4D9CE809187
:100AF0003B0120913C0190E0805C9F4F821B91095B
:100B00008F739927892B09F4CBCE0E940000C7CEA2
:100B1000808185FF9ACFE0913E01F0E0E158FE4FE1
:100B20008081E0913E01F0E03196EF73FF27E09382
:100B30003E01E0913801F09139018083E09132016A
:100B4000F0913301808183708064808370913D01D6
:100B500080913E01781307C0E0913401F091350196
:100B600080818F7D8083E0913201F09133016DCFE0
:100B7000808185FF5ECF9FB7F894E0913801F091B6
:100B800039016083E0913201F091330180818370FB
:100B9000806480839FBF3CCF808185FF8BCFE091B5
:100BA0003E01F0E0E158FE4F808160913E0170E02F
:100BB0006F5F7F4F6F73772760933E01E09138013D
:100BC000F09139018083E0913201F091330180810D
:100BD00083708064808350913D0180913E01581361
:100BE00007C0E0913401F091350180818F7D8083D1
:100BF000E0913201F09133015DCF808185FF4ECFCE
:100C00009FB7F894E0913801F09139014083E09169
:100C10003201F091330180818370806480839FBFB3
:100C20005FCF50921D0140921C0170CECA01029705
:100C30002817390754F59093210180932001452B03
:100C400059F483EA8093B0009AE09093B100E3E610
:100C5000E093B3008091200181508093B40048CE8E
:100C6000281739070CF096CE0197909321018093B5
:100C7000200150920101409200018CCE109221017E
:100C80001092200120E030E01ACEC90126CE109348
:100C90003A0190913D0180913E01E0913201F09145
:100CA0003301981709F4F4C040913D0150E04F5FC3
:100CB0005F4F4F735527942F03C00FB607FEB7C081
:100CC00080913E019817C9F3E0913D01F0E0E158B1
:100CD000FE4F00839FB7F89440933D01E0913401AB
:100CE000F09135018081806280839FBFC901330FFD
:100CF000AA0BBB0B22273327A901281B390B4A0B50
:100D00005B0B19A2CE0181965C01CA01B901A70152
:100D100096010E948907605DF50162935F012115CC
:100D200031054105510589F7309709F4A7CE0190A7
:100D30000020E9F7D5019F01215031092A173B070F
:100D400009F49CCE6D9110933A0190913D018091F0
:100D50003E01E0913201F0913301981709F453C03C
:100D600040913D0150E04F5F5F4F4F735527942FE7
:100D700003C00FB607FE17C080913E019817C9F354
:100D8000E0913D01F0E0E158FE4F60839FB7F89499
:100D900040933D01E0913401F09135018081806202
:100DA00080839FBFCBCF808185FFE6CFE0913E015E
:100DB000F0E0E158FE4F8081E0913E01F0E0319695
:100DC000EF73FF27E0933E01E0913801F091390184
:100DD0008083E0913201F0913301808183708064DF
:100DE000808370913D0180913E01781307C0E091AE
:100DF0003401F091350180818F7D8083E091320153
:100E0000F0913301B9CF808185FFAACF9FB7F894C5
:100E1000E0913801F09139016083E0913201F09165
:100E2000330180818370806480839FBF87CF8081FE
:100E300085FF46CFE0913E01F0E0E158FE4F808112
:100E400060913E0170E06F5F7F4F6F737727609313
:100E50003E01E0913801F09139018083E091320147
:100E6000F0913301808183708064808360913D01C3
:100E700080913E01681307C0E0913401F091350183
:100E800080818F7D8083E0913201F091330118CF12
:100E9000808185FF09CF9FB7F894E0913801F091E8
:100EA00039010083E0913201F09133018081837038
:100EB000806480839FBF1ACFE2E2F1E01382128246
:100EC00088EE93E0A0E0B0E084839583A683B783A7
:100ED00086E091E09183808385EC90E0958784871C
:100EE00084EC90E09787868780EC90E0918B808BF4
:100EF00081EC90E0938B828B82EC90E0958B848BDD
:100F000086EC90E0978B868B118E128E138E148E4A
:100F10000895A1E21A2EAA1BBB1BFD010DC0AA1F3A
:100F2000BB1FEE1FFF1FA217B307E407F50720F052
:100F3000A21BB30BE40BF50B661F771F881F991FCD
:100F40001A9469F760957095809590959B01AC0116
:100F5000BD01CF010895EE0FFF1F0590F491E02D24
:100F6000099481E090E0F8940C94B607F894FFCFD0
:100F700064000000000038019D018A0237021C0154
:080F80009C02B0020D0A000002
:00000001FF
